{"abi":[{"type":"constructor","inputs":[],"stateMutability":"nonpayable"},{"type":"receive","stateMutability":"payable"},{"type":"function","name":"BALLOT_TYPEHASH","inputs":[],"outputs":[{"name":"","type":"bytes32","internalType":"bytes32"}],"stateMutability":"view"},{"type":"function","name":"COUNTING_MODE","inputs":[],"outputs":[{"name":"","type":"string","internalType":"string"}],"stateMutability":"pure"},{"type":"function","name":"EXTENDED_BALLOT_TYPEHASH","inputs":[],"outputs":[{"name":"","type":"bytes32","internalType":"bytes32"}],"stateMutability":"view"},{"type":"function","name":"NAME","inputs":[],"outputs":[{"name":"","type":"string","internalType":"string"}],"stateMutability":"pure"},{"type":"function","name":"VERSION","inputs":[],"outputs":[{"name":"","type":"uint256","internalType":"uint256"}],"stateMutability":"pure"},{"type":"function","name":"castVote","inputs":[{"name":"proposalId","type":"uint256","internalType":"uint256"},{"name":"support","type":"uint8","internalType":"uint8"}],"outputs":[{"name":"","type":"uint256","internalType":"uint256"}],"stateMutability":"nonpayable"},{"type":"function","name":"castVoteBySig","inputs":[{"name":"proposalId","type":"uint256","internalType":"uint256"},{"name":"support","type":"uint8","internalType":"uint8"},{"name":"v","type":"uint8","internalType":"uint8"},{"name":"r","type":"bytes32","internalType":"bytes32"},{"name":"s","type":"bytes32","internalType":"bytes32"}],"outputs":[{"name":"","type":"uint256","internalType":"uint256"}],"stateMutability":"nonpayable"},{"type":"function","name":"castVoteWithReason","inputs":[{"name":"proposalId","type":"uint256","internalType":"uint256"},{"name":"support","type":"uint8","internalType":"uint8"},{"name":"reason","type":"string","internalType":"string"}],"outputs":[{"name":"","type":"uint256","internalType":"uint256"}],"stateMutability":"nonpayable"},{"type":"function","name":"castVoteWithReasonAndParams","inputs":[{"name":"proposalId","type":"uint256","internalType":"uint256"},{"name":"support","type":"uint8","internalType":"uint8"},{"name":"reason","type":"string","internalType":"string"},{"name":"params","type":"bytes","internalType":"bytes"}],"outputs":[{"name":"","type":"uint256","internalType":"uint256"}],"stateMutability":"nonpayable"},{"type":"function","name":"castVoteWithReasonAndParamsBySig","inputs":[{"name":"proposalId","type":"uint256","internalType":"uint256"},{"name":"support","type":"uint8","internalType":"uint8"},{"name":"reason","type":"string","internalType":"string"},{"name":"params","type":"bytes","internalType":"bytes"},{"name":"v","type":"uint8","internalType":"uint8"},{"name":"r","type":"bytes32","internalType":"bytes32"},{"name":"s","type":"bytes32","internalType":"bytes32"}],"outputs":[{"name":"","type":"uint256","internalType":"uint256"}],"stateMutability":"nonpayable"},{"type":"function","name":"execute","inputs":[{"name":"targets","type":"address[]","internalType":"address[]"},{"name":"values","type":"uint256[]","internalType":"uint256[]"},{"name":"calldatas","type":"bytes[]","internalType":"bytes[]"},{"name":"descriptionHash","type":"bytes32","internalType":"bytes32"}],"outputs":[{"name":"","type":"uint256","internalType":"uint256"}],"stateMutability":"payable"},{"type":"function","name":"getVoteSources","inputs":[],"outputs":[{"name":"","type":"address[]","internalType":"contract IVotesUpgradeable[]"}],"stateMutability":"view"},{"type":"function","name":"getVotes","inputs":[{"name":"account","type":"address","internalType":"address"},{"name":"blockNumber","type":"uint256","internalType":"uint256"}],"outputs":[{"name":"","type":"uint256","internalType":"uint256"}],"stateMutability":"view"},{"type":"function","name":"getVotesWithParams","inputs":[{"name":"account","type":"address","internalType":"address"},{"name":"blockNumber","type":"uint256","internalType":"uint256"},{"name":"params","type":"bytes","internalType":"bytes"}],"outputs":[{"name":"","type":"uint256","internalType":"uint256"}],"stateMutability":"view"},{"type":"function","name":"hasVoted","inputs":[{"name":"proposalId","type":"uint256","internalType":"uint256"},{"name":"account","type":"address","internalType":"address"}],"outputs":[{"name":"","type":"bool","internalType":"bool"}],"stateMutability":"view"},{"type":"function","name":"hashProposal","inputs":[{"name":"targets","type":"address[]","internalType":"address[]"},{"name":"values","type":"uint256[]","internalType":"uint256[]"},{"name":"calldatas","type":"bytes[]","internalType":"bytes[]"},{"name":"descriptionHash","type":"bytes32","internalType":"bytes32"}],"outputs":[{"name":"","type":"uint256","internalType":"uint256"}],"stateMutability":"pure"},{"type":"function","name":"initialize","inputs":[{"name":"_token","type":"address","internalType":"contract IVotesUpgradeable"},{"name":"_timelock","type":"address","internalType":"contract TimelockControllerUpgradeable"},{"name":"_voteSources","type":"address[]","internalType":"contract IVotesUpgradeable[]"}],"outputs":[],"stateMutability":"nonpayable"},{"type":"function","name":"name","inputs":[],"outputs":[{"name":"","type":"string","internalType":"string"}],"stateMutability":"view"},{"type":"function","name":"onERC1155BatchReceived","inputs":[{"name":"","type":"address","internalType":"address"},{"name":"","type":"address","internalType":"address"},{"name":"","type":"uint256[]","internalType":"uint256[]"},{"name":"","type":"uint256[]","internalType":"uint256[]"},{"name":"","type":"bytes","internalType":"bytes"}],"outputs":[{"name":"","type":"bytes4","internalType":"bytes4"}],"stateMutability":"nonpayable"},{"type":"function","name":"onERC1155Received","inputs":[{"name":"","type":"address","internalType":"address"},{"name":"","type":"address","internalType":"address"},{"name":"","type":"uint256","internalType":"uint256"},{"name":"","type":"uint256","internalType":"uint256"},{"name":"","type":"bytes","internalType":"bytes"}],"outputs":[{"name":"","type":"bytes4","internalType":"bytes4"}],"stateMutability":"nonpayable"},{"type":"function","name":"onERC721Received","inputs":[{"name":"","type":"address","internalType":"address"},{"name":"","type":"address","internalType":"address"},{"name":"","type":"uint256","internalType":"uint256"},{"name":"","type":"bytes","internalType":"bytes"}],"outputs":[{"name":"","type":"bytes4","internalType":"bytes4"}],"stateMutability":"nonpayable"},{"type":"function","name":"owner","inputs":[],"outputs":[{"name":"","type":"address","internalType":"address"}],"stateMutability":"view"},{"type":"function","name":"proposalDeadline","inputs":[{"name":"proposalId","type":"uint256","internalType":"uint256"}],"outputs":[{"name":"","type":"uint256","internalType":"uint256"}],"stateMutability":"view"},{"type":"function","name":"proposalEta","inputs":[{"name":"proposalId","type":"uint256","internalType":"uint256"}],"outputs":[{"name":"","type":"uint256","internalType":"uint256"}],"stateMutability":"view"},{"type":"function","name":"proposalSnapshot","inputs":[{"name":"proposalId","type":"uint256","internalType":"uint256"}],"outputs":[{"name":"","type":"uint256","internalType":"uint256"}],"stateMutability":"view"},{"type":"function","name":"proposalThreshold","inputs":[],"outputs":[{"name":"","type":"uint256","internalType":"uint256"}],"stateMutability":"pure"},{"type":"function","name":"proposalVotes","inputs":[{"name":"proposalId","type":"uint256","internalType":"uint256"}],"outputs":[{"name":"againstVotes","type":"uint256","internalType":"uint256"},{"name":"forVotes","type":"uint256","internalType":"uint256"},{"name":"abstainVotes","type":"uint256","internalType":"uint256"}],"stateMutability":"view"},{"type":"function","name":"propose","inputs":[{"name":"targets","type":"address[]","internalType":"address[]"},{"name":"values","type":"uint256[]","internalType":"uint256[]"},{"name":"calldatas","type":"bytes[]","internalType":"bytes[]"},{"name":"description","type":"string","internalType":"string"}],"outputs":[{"name":"","type":"uint256","internalType":"uint256"}],"stateMutability":"nonpayable"},{"type":"function","name":"proxiableUUID","inputs":[],"outputs":[{"name":"","type":"bytes32","internalType":"bytes32"}],"stateMutability":"view"},{"type":"function","name":"queue","inputs":[{"name":"targets","type":"address[]","internalType":"address[]"},{"name":"values","type":"uint256[]","internalType":"uint256[]"},{"name":"calldatas","type":"bytes[]","internalType":"bytes[]"},{"name":"descriptionHash","type":"bytes32","internalType":"bytes32"}],"outputs":[{"name":"","type":"uint256","internalType":"uint256"}],"stateMutability":"nonpayable"},{"type":"function","name":"quorum","inputs":[{"name":"blockNumber","type":"uint256","internalType":"uint256"}],"outputs":[{"name":"","type":"uint256","internalType":"uint256"}],"stateMutability":"view"},{"type":"function","name":"quorumDenominator","inputs":[],"outputs":[{"name":"","type":"uint256","internalType":"uint256"}],"stateMutability":"view"},{"type":"function","name":"quorumNumerator","inputs":[{"name":"blockNumber","type":"uint256","internalType":"uint256"}],"outputs":[{"name":"","type":"uint256","internalType":"uint256"}],"stateMutability":"view"},{"type":"function","name":"quorumNumerator","inputs":[],"outputs":[{"name":"","type":"uint256","internalType":"uint256"}],"stateMutability":"view"},{"type":"function","name":"relay","inputs":[{"name":"target","type":"address","internalType":"address"},{"name":"value","type":"uint256","internalType":"uint256"},{"name":"data","type":"bytes","internalType":"bytes"}],"outputs":[],"stateMutability":"nonpayable"},{"type":"function","name":"renounceOwnership","inputs":[],"outputs":[],"stateMutability":"nonpayable"},{"type":"function","name":"setVoteSources","inputs":[{"name":"_voteSources","type":"address[]","internalType":"contract IVotesUpgradeable[]"}],"outputs":[],"stateMutability":"nonpayable"},{"type":"function","name":"state","inputs":[{"name":"proposalId","type":"uint256","internalType":"uint256"}],"outputs":[{"name":"","type":"uint8","internalType":"enum IGovernorUpgradeable.ProposalState"}],"stateMutability":"view"},{"type":"function","name":"supportsInterface","inputs":[{"name":"interfaceId","type":"bytes4","internalType":"bytes4"}],"outputs":[{"name":"","type":"bool","internalType":"bool"}],"stateMutability":"view"},{"type":"function","name":"timelock","inputs":[],"outputs":[{"name":"","type":"address","internalType":"address"}],"stateMutability":"view"},{"type":"function","name":"token","inputs":[],"outputs":[{"name":"","type":"address","internalType":"contract IVotesUpgradeable"}],"stateMutability":"view"},{"type":"function","name":"transferOwnership","inputs":[{"name":"newOwner","type":"address","internalType":"address"}],"outputs":[],"stateMutability":"nonpayable"},{"type":"function","name":"updateQuorumNumerator","inputs":[{"name":"newQuorumNumerator","type":"uint256","internalType":"uint256"}],"outputs":[],"stateMutability":"nonpayable"},{"type":"function","name":"updateTimelock","inputs":[{"name":"newTimelock","type":"address","internalType":"contract TimelockControllerUpgradeable"}],"outputs":[],"stateMutability":"nonpayable"},{"type":"function","name":"upgradeTo","inputs":[{"name":"newImplementation","type":"address","internalType":"address"}],"outputs":[],"stateMutability":"nonpayable"},{"type":"function","name":"upgradeToAndCall","inputs":[{"name":"newImplementation","type":"address","internalType":"address"},{"name":"data","type":"bytes","internalType":"bytes"}],"outputs":[],"stateMutability":"payable"},{"type":"function","name":"version","inputs":[],"outputs":[{"name":"","type":"string","internalType":"string"}],"stateMutability":"view"},{"type":"function","name":"votingDelay","inputs":[],"outputs":[{"name":"","type":"uint256","internalType":"uint256"}],"stateMutability":"pure"},{"type":"function","name":"votingPeriod","inputs":[],"outputs":[{"name":"","type":"uint256","internalType":"uint256"}],"stateMutability":"pure"},{"type":"event","name":"AdminChanged","inputs":[{"name":"previousAdmin","type":"address","indexed":false,"internalType":"address"},{"name":"newAdmin","type":"address","indexed":false,"internalType":"address"}],"anonymous":false},{"type":"event","name":"BeaconUpgraded","inputs":[{"name":"beacon","type":"address","indexed":true,"internalType":"address"}],"anonymous":false},{"type":"event","name":"Initialized","inputs":[{"name":"version","type":"uint8","indexed":false,"internalType":"uint8"}],"anonymous":false},{"type":"event","name":"OwnershipTransferred","inputs":[{"name":"previousOwner","type":"address","indexed":true,"internalType":"address"},{"name":"newOwner","type":"address","indexed":true,"internalType":"address"}],"anonymous":false},{"type":"event","name":"ProposalCanceled","inputs":[{"name":"proposalId","type":"uint256","indexed":false,"internalType":"uint256"}],"anonymous":false},{"type":"event","name":"ProposalCreated","inputs":[{"name":"proposalId","type":"uint256","indexed":false,"internalType":"uint256"},{"name":"proposer","type":"address","indexed":false,"internalType":"address"},{"name":"targets","type":"address[]","indexed":false,"internalType":"address[]"},{"name":"values","type":"uint256[]","indexed":false,"internalType":"uint256[]"},{"name":"signatures","type":"string[]","indexed":false,"internalType":"string[]"},{"name":"calldatas","type":"bytes[]","indexed":false,"internalType":"bytes[]"},{"name":"startBlock","type":"uint256","indexed":false,"internalType":"uint256"},{"name":"endBlock","type":"uint256","indexed":false,"internalType":"uint256"},{"name":"description","type":"string","indexed":false,"internalType":"string"}],"anonymous":false},{"type":"event","name":"ProposalExecuted","inputs":[{"name":"proposalId","type":"uint256","indexed":false,"internalType":"uint256"}],"anonymous":false},{"type":"event","name":"ProposalQueued","inputs":[{"name":"proposalId","type":"uint256","indexed":false,"internalType":"uint256"},{"name":"eta","type":"uint256","indexed":false,"internalType":"uint256"}],"anonymous":false},{"type":"event","name":"QuorumNumeratorUpdated","inputs":[{"name":"oldQuorumNumerator","type":"uint256","indexed":false,"internalType":"uint256"},{"name":"newQuorumNumerator","type":"uint256","indexed":false,"internalType":"uint256"}],"anonymous":false},{"type":"event","name":"TimelockChange","inputs":[{"name":"oldTimelock","type":"address","indexed":false,"internalType":"address"},{"name":"newTimelock","type":"address","indexed":false,"internalType":"address"}],"anonymous":false},{"type":"event","name":"Upgraded","inputs":[{"name":"implementation","type":"address","indexed":true,"internalType":"address"}],"anonymous":false},{"type":"event","name":"VoteCast","inputs":[{"name":"voter","type":"address","indexed":true,"internalType":"address"},{"name":"proposalId","type":"uint256","indexed":false,"internalType":"uint256"},{"name":"support","type":"uint8","indexed":false,"internalType":"uint8"},{"name":"weight","type":"uint256","indexed":false,"internalType":"uint256"},{"name":"reason","type":"string","indexed":false,"internalType":"string"}],"anonymous":false},{"type":"event","name":"VoteCastWithParams","inputs":[{"name":"voter","type":"address","indexed":true,"internalType":"address"},{"name":"proposalId","type":"uint256","indexed":false,"internalType":"uint256"},{"name":"support","type":"uint8","indexed":false,"internalType":"uint8"},{"name":"weight","type":"uint256","indexed":false,"internalType":"uint256"},{"name":"reason","type":"string","indexed":false,"internalType":"string"},{"name":"params","type":"bytes","indexed":false,"internalType":"bytes"}],"anonymous":false},{"type":"error","name":"Empty","inputs":[]}],"bytecode":{"object":"0x60a08060405234620000e157306080526000549060ff8260081c166200008f575060ff8082161062000053575b6040516145709081620000e78239608051818181611c9c01528181611d8a01526121c90152f35b60ff90811916176000557f7f26b83ff96e1f2b6a682f133852f6798a09c465da95921460cefb3847402498602060405160ff8152a1386200002c565b62461bcd60e51b815260206004820152602760248201527f496e697469616c697a61626c653a20636f6e747261637420697320696e697469604482015266616c697a696e6760c81b6064820152608490fd5b600080fdfe6080806040526004361015610035575b50361561001b57600080fd5b6101d1546001600160a01b0316300361003057005b600080fd5b60003560e01c90816301ffc9a714612c455750806302a251a314612c285780630342018114612b2557806306f3f9e6146128b357806306fdde03146127d1578063150b7a021461277c578063160cbed71461258f5780632656227d146123d35780632d63f693146123a05780632fe3e261146123655780633659cfe6146121a55780633932abb1146121895780633bccf4fd146120c55780633e4f49e614612080578063438596321461202f5780634f1ef28614611d4d57806352d1902d14611c89578063544ffc9c14611c4557806354fd4d5014611c035780635678138814611bc85780635f398a1414611b5957806360c4247f14611b3b578063715018a614611add57806377a24f36146114345780637b3c71d3146113d25780637d5e81e214610e8e5780638da5cb5b14610e6457806397c3d33414610e485780639a802a6d14610cee578063a3f4df7e14610c90578063a7713a7014610c75578063a890c91014610bcc578063ab58fb8e14610b2e578063b58131b014610b09578063bc197c8114610a81578063c01f9e3714610a41578063c28bc2fa146108a2578063c53636031461083d578063c59057e414610819578063d33219b4146107ef578063dd4e2ba51461078d578063deaaa7cc14610752578063eb9019d4146105ff578063ecb3cfd31461044c578063f23a6e61146103f7578063f2fde38b14610368578063f8ce560a146102a3578063fc0c546a146102795763ffa1ad741461025d573861000f565b3461003057600036600319011261003057602060405160028152f35b3461003057600036600319011261003057610161546040516001600160a01b039091168152602090f35b34610030576020806003193601126100305760246004358260018060a01b03610161541660405193848092632394e7a360e21b82528560048301525afa91821561035c5760009261032b575b506102f990613dcd565b9081810291818304149015171561031557606460405191048152f35b634e487b7160e01b600052601160045260246000fd5b9091508281813d8311610355575b6103438183612db9565b810103126100305751906102f96102ef565b503d610339565b6040513d6000823e3d90fd5b3461003057602036600319011261003057610381612ebf565b6103896132b5565b6001600160a01b038116156103a3576103a19061330e565b005b60405162461bcd60e51b815260206004820152602660248201527f4f776e61626c653a206e6577206f776e657220697320746865207a65726f206160448201526564647265737360d01b6064820152608490fd5b346100305760a036600319011261003057610410612ebf565b50610419612ed5565b506084356001600160401b03811161003057610439903690600401612e61565b5060405163f23a6e6160e01b8152602090f35b3461003057602080600319360112610030576001600160401b036004358181116100305761047e9036906004016130af565b6101d1549092906001600160a01b0390811661049b338214613202565b30036105da575b600080194301438111915b86811061054d5750505050821161053757600160401b821161053757610194908154838355808410610513575b509060005260005b8281106104eb57005b600190846104f884613165565b930192816000805160206144db8339815191520155016104e2565b61053190846000805160206144db83398151915291820191016131eb565b846104da565b634e487b7160e01b600052604160045260246000fd5b808461056361055e86948b8b61313f565b613165565b1691610315578860249260405193848092632394e7a360e21b82528760048301525afa91821561035c576000926105a9575b506105a36001921515613179565b016104ad565b91508882813d83116105d3575b6105c08183612db9565b81010312610030579051906105a3610595565b503d6105b6565b6105e43636612df5565b8581519101205b806105f461447c565b036105eb57506104a2565b3461003057604036600319011261003057610618612ebf565b602435600060405161062981612d68565b5261016154604051630748d63560e31b8082526001600160a01b038581166004840152602483018590529360209390929084908290604490829089165afa90811561035c57600091610725575b509461068061324e565b946000965b865188101561071b5781866106998a6135e1565b90546040518881526001600160a01b0388166004820152602481018a9052938492604492849260039290921b1c165afa90811561035c576000916106ed575b506106e590600192613606565b970196610685565b90508681813d8311610714575b6107048183612db9565b81010312610030575160016106d8565b503d6106fa565b8590604051908152f35b90508381813d831161074b575b61073c8183612db9565b81010312610030575186610676565b503d610732565b346100305760003660031901126100305760206040517f150214d74d59b7d1e90c73fc22ef3d991dd0a76b046543d4d80ab92d2a50328f8152f35b34610030576000366003190112610030576107eb6040516107ad81612d1f565b602081527f737570706f72743d627261766f2671756f72756d3d666f722c6162737461696e6020820152604051918291602083526020830190612e7f565b0390f35b34610030576000366003190112610030576101d1546040516001600160a01b039091168152602090f35b3461003057602061083561082c3661304d565b9291909161345f565b604051908152f35b346100305760003660031901126100305761085661324e565b604051809160208083018184528251809152816040850193019160005b82811061088257505050500390f35b83516001600160a01b031685528695509381019392810192600101610873565b34610030576060366003190112610030576108bb612ebf565b6024356044356001600160401b038111610030576108dd903690600401612cf2565b6101d1549091906001600160a01b03166108f8338214613202565b3003610a1b575b61090a913691612e2a565b916040519161091883612d83565b602983527f416464726573733a206c6f772d6c6576656c2063616c6c20776974682076616c6020840152681d594819985a5b195960ba1b60408401528047106109c757813b156109825783600092839260206103a197519301915af161097c6140e4565b90614114565b60405162461bcd60e51b815260206004820152601d60248201527f416464726573733a2063616c6c20746f206e6f6e2d636f6e74726163740000006044820152606490fd5b60405162461bcd60e51b815260206004820152602660248201527f416464726573733a20696e73756666696369656e742062616c616e636520666f6044820152651c8818d85b1b60d21b6064820152608490fd5b610a253636612df5565b602081519101205b80610a3661447c565b03610a2d57506108ff565b346100305760203660031901126100305760043560005260fe60205260206001600160401b03610a7760016040600020016134c3565b5116604051908152f35b346100305760a036600319011261003057610a9a612ebf565b50610aa3612ed5565b506001600160401b0360443581811161003057610ac4903690600401612f70565b5060643581811161003057610add903690600401612f70565b5060843590811161003057610af6903690600401612e61565b5060405163bc197c8160e01b8152602090f35b3461003057600036600319011261003057602060405169152d02c7e14af68000008152f35b34610030576020806003193601126100305760018060a01b036101d154166004356000526101d282528160406000205460246040518094819363d45c443560e01b835260048301525afa90811561035c57600091610b9f575b5060018103610b9a575060405160008152f35b610835565b90508181813d8311610bc5575b610bb68183612db9565b81010312610030575182610b87565b503d610bac565b3461003057602036600319011261003057610be5612ebf565b6101d1805490916001600160a01b03918216610c02338214613202565b3003610c4f575b7f08f74ea46ef7894f65eabfb5e6e695de773a000b47c529ab559178069b226401604083855493169381519084168152846020820152a16001600160a01b031916179055005b610c593636612df5565b602081519101205b80610c6a61447c565b03610c615750610c09565b34610030576000366003190112610030576020610835613db6565b34610030576000366003190112610030576107eb604051610cb081612d1f565b601e81527f476f7665726e6f724d756c7469536f757263655570677261646561626c6500006020820152604051918291602083526020830190612e7f565b3461003057606036600319011261003057610d07612ebf565b6024356044356001600160401b03811161003057610d29903690600401612e61565b5061016154604051630748d63560e31b8082526001600160a01b038581166004840152602483018590529360209390929084908290604490829089165afa90811561035c57600091610e1b575b5094610d8061324e565b946000965b865188101561071b578186610d998a6135e1565b90546040518881526001600160a01b0388166004820152602481018a9052938492604492849260039290921b1c165afa90811561035c57600091610ded575b50610de590600192613606565b970196610d85565b90508681813d8311610e14575b610e048183612db9565b8101031261003057516001610dd8565b503d610dfa565b90508381813d8311610e41575b610e328183612db9565b81010312610030575186610d76565b503d610e28565b3461003057600036600319011261003057602060405160648152f35b3461003057600036600319011261003057610203546040516001600160a01b039091168152602090f35b34610030576080366003190112610030576004356001600160401b03811161003057610ebe903690600401612f02565b6024356001600160401b03811161003057610edd903690600401612f70565b6044356001600160401b03811161003057610efc903690600401612fce565b916064356001600160401b038111610030573660238201121561003057610f2d903690602481600401359101612e2a565b9143600019810111610315576000604051610f4781612d68565b5261016154604051630748d63560e31b81523360048201526000194301602482015290602090829060449082906001600160a01b03165afa90811561035c576000916113a0575b5093610f9861324e565b936000955b8551871015611042576020610fb1886135e1565b9054604051630748d63560e31b8152336004820152600019430160248201529291839160449183916001600160a01b0360039290921b1c165afa90811561035c5760009161100f575b5061100790600192613606565b960195610f9d565b90506020813d60201161103a575b8161102a60209383612db9565b8101031261003057516001610ffa565b3d915061101d565b69152d02c7e14af680000011611341576110648151602083012083858761345f565b9261107285518251146134ea565b61107f85518451146134ea565b8451156112fc578360005260fe6020526040600020906001600160401b036110a6836134c3565b51166112ad576001600160401b03431161125957600a6001600160401b034316016001600160401b038111610315576001600160401b0316936103e88501926001600160401b03841161031557916001600160401b03199386858554161784556001600160401b0360018095019116809582541617905587519261114261112c85612eeb565b9461113a6040519687612db9565b808652612eeb565b601f199290830160005b81811061124657505061118a9061117c6040519b8c8c6040610120928392815233602082015201528d0190613392565b908b820360608d01526133cf565b89810360808b0152845190818152602081016020808460051b8401019701946000925b8484106112195750505060208a7f7d84a6263ae0d98d3329bd7b46bb4e8d6f98cd35a7adb45c274c8b7fd5ebd5e08d8061120e8e8e8e6111f58f8f87820360a0890152613403565b9260c086015260e0850152838203610100850152612e7f565b0390a1604051908152f35b90919293946020806112358b8686869c9e030188528c51612e7f565b9a01940194019295949391906111ad565b606060208289018101919091520161114c565b60405162461bcd60e51b815260206004820152602660248201527f53616665436173743a2076616c756520646f65736e27742066697420696e203660448201526534206269747360d01b6064820152608490fd5b60405162461bcd60e51b815260206004820152602160248201527f476f7665726e6f723a2070726f706f73616c20616c72656164792065786973746044820152607360f81b6064820152608490fd5b60405162461bcd60e51b815260206004820152601860248201527f476f7665726e6f723a20656d7074792070726f706f73616c00000000000000006044820152606490fd5b60405162461bcd60e51b815260206004820152603160248201527f476f7665726e6f723a2070726f706f73657220766f7465732062656c6f7720706044820152701c9bdc1bdcd85b081d1a1c995cda1bdb19607a1b6064820152608490fd5b90506020813d6020116113ca575b816113bb60209383612db9565b81010312610030575185610f8e565b3d91506113ae565b34610030576060366003190112610030576113eb612ce2565b6044356001600160401b0381116100305760209161141a611413610835933690600401612cf2565b3691612e2a565b6040519161142783612d68565b6000835233600435613613565b34610030576060366003190112610030576004356001600160a01b038116810361003057611460612ed5565b906044356001600160401b038111610030576114809036906004016130af565b600054600881901c60ff16159492908580611ad0575b8015611ab9575b15611a5d5760ff19811660011760005585611a4b575b506040516114c081612d1f565b60088152611526602082016723b7bb32b93737b960c11b815260ff60005460081c16906114ec826130df565b604051906114f982612d1f565b600182526020820190603160f81b8252611512846130df565b8551902091519020906065556066556130df565b8051906001600160401b03821161053757819061154460fd54613358565b601f81116119f1575b50602090601f83116001146119675760009261195c575b50508160011b916000199060031b1c19161760fd555b60ff60005460081c1661158c816130df565b611595816130df565b61159e816130df565b60005b8381106118bc57506115b2906130df565b61016180546001600160a01b03959095166001600160a01b03199586161790556001600160401b03821161053757600160401b821161053757610194908154838355808410611898575b509060005260005b82811061186f5750505061162860ff60005460081c16611623816130df565b6130df565b611630613db6565b9182151580611864575b61182f575b6101a0549261164c614158565b508315158061180a575b1561176d57600019840193841161031557604060008051602061451b83398151915291611685611716966135aa565b5064050000000063ffffffff8254161790555b815190815260056020820152a160ff60005460081c16916116b8836130df565b6116c1836130df565b6101d18054604080516001600160a01b03808416825290941660208501819052929492937f08f74ea46ef7894f65eabfb5e6e695de773a000b47c529ab559178069b2264019190a116179055611623816130df565b61171f3361330e565b6000549061173260ff8360081c166130df565b61173857005b61ff0019166000557f7f26b83ff96e1f2b6a682f133852f6798a09c465da95921460cefb3847402498602060405160018152a1005b925063ffffffff928343116117b657604060008051602061451b833981519152916117b1611716968351906117a182612d1f565b4316815260056020820152613f35565b611698565b60405162461bcd60e51b815260206004820152602660248201527f53616665436173743a2076616c756520646f65736e27742066697420696e203360448201526532206269747360d01b6064820152608490fd5b50600019840184811161031557611820906135aa565b505463ffffffff164314611656565b61185f61183b84614413565b6040519061184882612d1f565b600082526001600160e01b03166020820152613f35565b61163f565b506101a0541561163a565b600190602061187d84613165565b930192816000805160206144db833981519152015501611604565b6118b690846000805160206144db83398151915291820191016131eb565b866115fc565b6001600160a01b036118d261055e83878761313f565b16904360001981011161031557604051632394e7a360e21b81524360001901600482015291602090839060249082905afa91821561035c57600092611926575b506119206001921515613179565b016115a1565b91506020823d602011611954575b8161194160209383612db9565b8101031261003057905190611920611912565b3d9150611934565b015190508780611564565b925060fd6000527f9346ac6dd7de6b96975fec380d4d994c4c12e6a8897544f22915316cc6cca280906000935b601f19841685106119d6576001945083601f198116106119bd575b505050811b0160fd5561157a565b015160001960f88460031b161c191690558780806119af565b81810151835560209485019460019093019290910190611994565b611a3b9060fd6000527f9346ac6dd7de6b96975fec380d4d994c4c12e6a8897544f22915316cc6cca280601f850160051c81019160208610611a41575b601f0160051c01906131eb565b8861154d565b9091508190611a2e565b61ffff191661010117600055856114b3565b60405162461bcd60e51b815260206004820152602e60248201527f496e697469616c697a61626c653a20636f6e747261637420697320616c72656160448201526d191e481a5b9a5d1a585b1a5e995960921b6064820152608490fd5b50303b15801561149d5750600160ff82161461149d565b50600160ff821610611496565b3461003057600036600319011261003057611af66132b5565b61020380546001600160a01b031981169091556000906001600160a01b03167f8be0079c531659141344cd1fd0a4f28419497f9722a3daafe3b4186f6b6457e08280a3005b34610030576020366003190112610030576020610835600435613dcd565b3461003057608036600319011261003057611b72612ce2565b6001600160401b039060443582811161003057611b93903690600401612cf2565b909160643593841161003057611bbe61083593611bb66020963690600401612e61565b933691612e2a565b9033600435613613565b34610030576040366003190112610030576020610835611be6612ce2565b604051611bf281612d68565b600081526040519161142783612d68565b34610030576000366003190112610030576107eb604051611c2381612d1f565b60018152603160f81b6020820152604051918291602083526020830190612e7f565b346100305760203660031901126100305760043560005261012f60205260606040600020805490600260018201549101549060405192835260208301526040820152f35b34610030576000366003190112610030577f00000000000000000000000000000000000000000000000000000000000000006001600160a01b03163003611ce25760206040516000805160206144fb8339815191528152f35b60405162461bcd60e51b815260206004820152603860248201527f555550535570677261646561626c653a206d757374206e6f742062652063616c60448201527f6c6564207468726f7567682064656c656761746563616c6c00000000000000006064820152608490fd5b604036600319011261003057611d61612ebf565b6024356001600160401b03811161003057611d80903690600401612e61565b6001600160a01b037f00000000000000000000000000000000000000000000000000000000000000008116929190611dba30851415613f92565b611dd76000805160206144fb833981519152948286541614613ff3565b611ddf6132b5565b7f4910fdfa16fed3260ed0e7147f7cc6da11a60208b5b9406d12a635614ffd91435460ff1615611e155750506103a19150614054565b82919216604051936352d1902d60e01b85526020948581600481865afa60009181612000575b50611e9c5760405162461bcd60e51b815260048101879052602e60248201527f45524331393637557067726164653a206e657720696d706c656d656e7461746960448201526d6f6e206973206e6f74205555505360901b6064820152608490fd5b03611fa957611eaa82614054565b604051907fbc7cd75a20ee27fd9adebab32041f755214dbc6bffa90cc0225b39da2e5c2d3b600080a2825115801590611fa1575b611ee457005b813b15611f5057506000828192856103a19695519201905af4611f056140e4565b907f416464726573733a206c6f772d6c6576656c2064656c65676174652063616c6c60405193611f3485612d83565b60278552840152660819985a5b195960ca1b6040840152614114565b62461bcd60e51b815260048101849052602660248201527f416464726573733a2064656c65676174652063616c6c20746f206e6f6e2d636f6044820152651b9d1c9858dd60d21b6064820152608490fd5b506001611ede565b60405162461bcd60e51b815260048101859052602960248201527f45524331393637557067726164653a20756e737570706f727465642070726f786044820152681a58589b195555525160ba1b6064820152608490fd5b9091508681813d8311612028575b6120188183612db9565b8101031261003057519087611e3b565b503d61200e565b3461003057604036600319011261003057612048612ed5565b60043560005261012f60205260036040600020019060018060a01b0316600052602052602060ff604060002054166040519015158152f35b346100305760203660031901126100305761209c600435613a60565b60405160088210156120af576020918152f35b634e487b7160e01b600052602160045260246000fd5b346100305760a0366003190112610030576004356120e1612ce2565b6044359160ff83168303610030576121626108359261215a602095604051878101917f150214d74d59b7d1e90c73fc22ef3d991dd0a76b046543d4d80ab92d2a50328f835286604083015260ff851660608301526060825261214282612d9e565b6121556084359360643593519020614392565b6142dd565b929092614181565b6040519161216f83612d68565b600083526040519361218085612d68565b60008552613613565b34610030576000366003190112610030576020604051600a8152f35b3461003057602080600319360112610030576121bf612ebf565b6001600160a01b037f000000000000000000000000000000000000000000000000000000000000000081166121f630821415613f92565b6122136000805160206144fb833981519152918383541614613ff3565b61221b6132b5565b6040519161222883612d68565b600083527f4910fdfa16fed3260ed0e7147f7cc6da11a60208b5b9406d12a635614ffd91435460ff1615612263575050506103a19150614054565b83929316906040516352d1902d60e01b81528581600481865afa60009181612336575b506122e75760405162461bcd60e51b815260048101879052602e60248201527f45524331393637557067726164653a206e657720696d706c656d656e7461746960448201526d6f6e206973206e6f74205555505360901b6064820152608490fd5b03611fa9576122f582614054565b604051907fbc7cd75a20ee27fd9adebab32041f755214dbc6bffa90cc0225b39da2e5c2d3b600080a282511580159061232e57611ee457005b506000611ede565b9091508681813d831161235e575b61234e8183612db9565b8101031261003057519087612286565b503d612344565b346100305760003660031901126100305760206040517fb3b3f3b703cd84ce352197dcff232b1b5d3cfb2025ce47cf04742d0651f1af888152f35b346100305760203660031901126100305760043560005260fe60205260206001600160401b03610a7760406000206134c3565b6123dc3661304d565b916123e98383838761345f565b926123f384613a60565b60088110156120af578060046124129214908115612584575b50613540565b8360005260209460fe86526002604060002001936001948560ff198254161790557f712ae1383f79ac853f8d882153778e0260ef8f03b504e2866e0593e04d2b291f87604051888152a16101d1805490956001600160a01b039591861630036124f6575b508486541690813b15610030576000936124a66040519687958694859463e38335e560e01b865260048601613d70565b039134905af1801561035c576124e7575b5030915416036124c957604051908152f35b60ff5480600f0b9060801d600f0b131561083557600060ff55610835565b6124f090612d3a565b846124b7565b6000815b612505575b50612476565b845181101561257f57308761251a8388613596565b511614612533575b6000198114610315578101816124fa565b61253d8185613596565b518a815191012060ff906001600160801b038c835492610100608094851d9283600f0b600052526040600020558354928683199201901b169116179055612522565b6124ff565b60059150148761240c565b346100305761259d3661304d565b906125aa8282858761345f565b926125b484613a60565b60088110156120af5760046125c99114613540565b6101d1805460405163793d064960e11b81526020979095909290916001600160a01b03919082168988600481845afa97881561035c5760009861274d575b5089604051809263b1c5f42760e01b8252818061262a898d8d8d60048601613d70565b03915afa90811561035c57600091612720575b50886000526101d28a52604060002055541690813b1561003057600061269e9361268b926126ad8397604051998a98899788966308f2a0bb60e41b885260c0600489015260c4880190613392565b60031993848883030160248901526133cf565b91858303016044860152613403565b9083606484015260848301528860a483015203925af1801561035c577f9a2e42fd6722813d69113e7d0079d3d940171428df7373df9c7f7617cfda2892926040926126fe92612711575b5042613606565b81519084825285820152a1604051908152f35b61271a90612d3a565b866126f7565b90508981813d8311612746575b6127378183612db9565b8101031261003057518a61263d565b503d61272d565b9097508981813d8311612775575b6127658183612db9565b810103126100305751968a612607565b503d61275b565b3461003057608036600319011261003057612795612ebf565b5061279e612ed5565b506064356001600160401b038111610030576127be903690600401612e61565b50604051630a85bd0160e11b8152602090f35b346100305760003660031901126100305760405160fd546000826127f483613358565b91828252602093600190858282169182600014612893575050600114612836575b5061282292500383612db9565b6107eb604051928284938452830190612e7f565b84915060fd6000527f9346ac6dd7de6b96975fec380d4d994c4c12e6a8897544f22915316cc6cca280906000915b85831061287b575050612822935082010185612815565b80548389018501528794508693909201918101612864565b60ff19168582015261282295151560051b85010192508791506128159050565b3461003057602080600319360112610030576101d15460043591906001600160a01b03166128e2338214613202565b3003612b00575b60648211612a8a576128f9613db6565b80151580612a7f575b612a4b575b6101a05492612914614158565b5083151580612a26575b1561297a5761292c81614413565b9260001985019485116103155761296f60409461295760008051602061451b833981519152976135aa565b509063ffffffff82549181199060201b169116179055565b8351928352820152a1005b9091925063ffffffff8043116129d2579060008051602061451b833981519152936129cd604094936129ab84614413565b8651916129b783612d1f565b431682526001600160e01b031683820152613f35565b61296f565b60405162461bcd60e51b815260048101859052602660248201527f53616665436173743a2076616c756520646f65736e27742066697420696e203360448201526532206269747360d01b6064820152608490fd5b50600019840184811161031557612a4163ffffffff916135aa565b505416431461291e565b612a7a612a5782614413565b60405190612a6482612d1f565b600082526001600160e01b031684820152613f35565b612907565b506101a05415612902565b60a4906040519062461bcd60e51b82526004820152604360248201527f476f7665726e6f72566f74657351756f72756d4672616374696f6e3a2071756f60448201527f72756d4e756d657261746f72206f7665722071756f72756d44656e6f6d696e616064820152623a37b960e91b6084820152fd5b612b0a3636612df5565b8181519101205b80612b1a61447c565b03612b1157506128e9565b346100305760e036600319011261003057600435612b41612ce2565b6001600160401b039060443582811161003057612b62903690600401612cf2565b93909260643590811161003057612b7d903690600401612e61565b916084359460ff8616860361003057612c226108359561141392612c1a602099612ba8368486612e2a565b8b81519101209089518c8b012090604051918d8301937fb3b3f3b703cd84ce352197dcff232b1b5d3cfb2025ce47cf04742d0651f1af8885528b604085015260ff8b166060850152608084015260a083015260a08252612c0782612d4d565b61215560c4359360a43593519020614392565b949094614181565b92613613565b346100305760003660031901126100305760206040516103e88152f35b34610030576020366003190112610030576004359063ffffffff60e01b821680920361003057602091636e665ced60e01b8114908115612c87575b5015158152f35b63bf26d89760e01b811491508115612cd1575b8115612cc0575b8115612caf575b5083612c80565b6301ffc9a760e01b14905083612ca8565b630271189760e51b81149150612ca1565b6379dd796f60e01b81149150612c9a565b6024359060ff8216820361003057565b9181601f84011215610030578235916001600160401b038311610030576020838186019501011161003057565b604081019081106001600160401b0382111761053757604052565b6001600160401b03811161053757604052565b60c081019081106001600160401b0382111761053757604052565b602081019081106001600160401b0382111761053757604052565b606081019081106001600160401b0382111761053757604052565b608081019081106001600160401b0382111761053757604052565b90601f801991011681019081106001600160401b0382111761053757604052565b6001600160401b03811161053757601f01601f191660200190565b919091612e0181612dda565b612e0e6040519182612db9565b8093828252821161003057818160009384602080950137010152565b929192612e3682612dda565b91612e446040519384612db9565b829481845281830111610030578281602093846000960137010152565b9080601f8301121561003057816020612e7c93359101612e2a565b90565b919082519283825260005b848110612eab575050826000602080949584010152601f8019910116010190565b602081830181015184830182015201612e8a565b600435906001600160a01b038216820361003057565b602435906001600160a01b038216820361003057565b6001600160401b0381116105375760051b60200190565b9080601f83011215610030576020908235612f1c81612eeb565b93612f2a6040519586612db9565b818552838086019260051b820101928311610030578301905b828210612f51575050505090565b81356001600160a01b0381168103610030578152908301908301612f43565b9080601f83011215610030576020908235612f8a81612eeb565b93612f986040519586612db9565b818552838086019260051b820101928311610030578301905b828210612fbf575050505090565b81358152908301908301612fb1565b81601f8201121561003057803591602091612fe884612eeb565b93612ff66040519586612db9565b808552838086019160051b8301019280841161003057848301915b8483106130215750505050505090565b82356001600160401b03811161003057869161304284848094890101612e61565b815201920191613011565b6080600319820112610030576001600160401b0391600435838111610030578261307991600401612f02565b92602435818111610030578361309191600401612f70565b92604435918211610030576130a891600401612fce565b9060643590565b9181601f84011215610030578235916001600160401b038311610030576020808501948460051b01011161003057565b156130e657565b60405162461bcd60e51b815260206004820152602b60248201527f496e697469616c697a61626c653a20636f6e7472616374206973206e6f74206960448201526a6e697469616c697a696e6760a81b6064820152608490fd5b919081101561314f5760051b0190565b634e487b7160e01b600052603260045260246000fd5b356001600160a01b03811681036100305790565b1561318057565b60405162461bcd60e51b815260206004820152603860248201527f476f7665726e6f72566f7465734d756c7469536f75726365557067726164656160448201527f626c653a20736f7572636520686173206e6f20766f74657300000000000000006064820152608490fd5b8181106131f6575050565b600081556001016131eb565b1561320957565b60405162461bcd60e51b815260206004820152601860248201527f476f7665726e6f723a206f6e6c79476f7665726e616e636500000000000000006044820152606490fd5b6040519061019482815491828252602092838301916000526000805160206144db833981519152936000905b8282106132925750505061329092500383612db9565b565b85546001600160a01b03168452600195860195889550938101939091019061327a565b610203546001600160a01b031633036132ca57565b606460405162461bcd60e51b815260206004820152602060248201527f4f776e61626c653a2063616c6c6572206973206e6f7420746865206f776e65726044820152fd5b61020380546001600160a01b039283166001600160a01b0319821681179092559091167f8be0079c531659141344cd1fd0a4f28419497f9722a3daafe3b4186f6b6457e0600080a3565b90600182811c92168015613388575b602083101461337257565b634e487b7160e01b600052602260045260246000fd5b91607f1691613367565b90815180825260208080930193019160005b8281106133b2575050505090565b83516001600160a01b0316855293810193928101926001016133a4565b90815180825260208080930193019160005b8281106133ef575050505090565b8351855293810193928101926001016133e1565b908082519081815260208091019281808460051b8301019501936000915b8483106134315750505050505090565b909192939495848061344f600193601f198682030187528a51612e7f565b9801930193019194939290613421565b92906134ab926134bd9260405194859261349b613488602086019960808b5260a0870190613392565b601f1996878783030160408801526133cf565b9085858303016060860152613403565b90608083015203908101835282612db9565b51902090565b90604051602081016001600160401b03908281108282111761053757604052819354169052565b156134f157565b60405162461bcd60e51b815260206004820152602160248201527f476f7665726e6f723a20696e76616c69642070726f706f73616c206c656e67746044820152600d60fb1b6064820152608490fd5b1561354757565b60405162461bcd60e51b815260206004820152602160248201527f476f7665726e6f723a2070726f706f73616c206e6f74207375636365737366756044820152601b60fa1b6064820152608490fd5b805182101561314f5760209160051b010190565b6101a0805482101561314f576000527f7980fe0f714a613298681d64b7b8ffa7b148338dd52429f307d72798d5c317c40190600090565b610194805482101561314f576000526000805160206144db8339815191520190600090565b9190820180921161031557565b9490918560005260fe602052604060002061362d87613a60565b60088110156120af576001036139f75761364e6001600160401b03916134c3565b5161016154604051630748d63560e31b81526001600160a01b0387811660048301529390921660248301819052969260209183916044918391165afa90811561035c576000916139c5575b5096604051968788610194602081549384815201906000526000805160206144db8339815191529260005b8181106139a35750506136d992500389612db9565b6000985b88518a10156137985761372d602089896136f68e6135e1565b9054604051630748d63560e31b81526001600160a01b03909316600484015260248301939093529093849291839182906044820190565b039260039190911b1c6001600160a01b03165afa90811561035c57600091613765575b5061375d90600192613606565b9901986136dd565b90506020813d602011613790575b8161378060209383612db9565b8101031261003057516001613750565b3d9150613773565b975091949397509194508160005261012f602052604060002092600384019060018060a01b031695866000528160205260ff6040600020541661394e5760ff9187600052602052604060002060018319825416179055169283156000146138b857613804878254613606565b90555b805161385d57506138577fb8e138887d0aa13bab447e82de9d5c1777041ecd21ca36ba824ff1e6c07ddda49360405193849384526020840152866040840152608060608401526080830190612e7f565b0390a290565b613857906138aa7fe2babfbac5889a709b63bb7f598b324e08bc5a4fb9ec647fb3cbc9ec07eb8712956040519586958652602086015288604086015260a0606086015260a0850190612e7f565b908382036080850152612e7f565b600184036138d5576001016138ce878254613606565b9055613807565b600284036138eb576002016138ce878254613606565b60405162461bcd60e51b815260206004820152603560248201527f476f7665726e6f72566f74696e6753696d706c653a20696e76616c69642076616044820152746c756520666f7220656e756d20566f74655479706560581b6064820152608490fd5b60405162461bcd60e51b815260206004820152602760248201527f476f7665726e6f72566f74696e6753696d706c653a20766f746520616c726561604482015266191e4818d85cdd60ca1b6064820152608490fd5b84546001600160a01b031683526001948501948d9450602090930192016136c4565b90506020813d6020116139ef575b816139e060209383612db9565b81010312610030575138613699565b3d91506139d3565b60405162461bcd60e51b815260206004820152602360248201527f476f7665726e6f723a20766f7465206e6f742063757272656e746c792061637460448201526269766560e81b6064820152608490fd5b90816020910312610030575180151581036100305790565b613a6981613b88565b9060088210156120af5760048203613b8457600090815260206101d281526040822054908115600014613a9c5750505090565b6101d154604051632ab0f52960e01b8152600481018490529394506001600160a01b0316929091908281602481875afa908115613b79578591613b5c575b5015613ae95750505050600790565b8190602460405180958193632c258a9f60e11b835260048301525afa928315613b505792613b23575b505015613b1e57600590565b600290565b613b429250803d10613b49575b613b3a8183612db9565b810190613a48565b3880613b12565b503d613b30565b604051903d90823e3d90fd5b613b739150833d8511613b4957613b3a8183612db9565b38613ada565b6040513d87823e3d90fd5b5090565b600081815260209060fe825260409182822090600282015460ff8116613d655760081c60ff16613d5b57613bc6916001600160401b039283916134c3565b51168015613d1757431115613d0f5784835260fe81524382613bec6001878720016134c3565b51161015613d0557848352602461012f928383528585209060fe8452613c138787206134c3565b51168360018060a01b036101615416885194858092632394e7a360e21b82528560048301525afa928315613cfb578693613cc6575b50613c5290613dcd565b91828102928184041490151715613cb257613c798160026001606494015491015490613606565b910411159485613c9a575b5050505050600014613c9557600490565b600390565b83525220600181015490541090503880808080613c84565b634e487b7160e01b85526011600452602485fd5b9092508381813d8311613cf4575b613cde8183612db9565b81010312613cf0575191613c52613c48565b8580fd5b503d613cd4565b87513d88823e3d90fd5b5050505050600190565b505091505090565b845162461bcd60e51b815260048101839052601d60248201527f476f7665726e6f723a20756e6b6e6f776e2070726f706f73616c2069640000006044820152606490fd5b5050505050600290565b505050505050600790565b949392613d9c608093613d8e613daa9460a08a5260a08a0190613392565b9088820360208a01526133cf565b908682036040880152613403565b93600060608201520152565b6101a054613dc55761019f5490565b612e7c614158565b6101a0548015613f2c576000199080820181811161031557613dee906135aa565b509060208460405193613e0085612d1f565b5463ffffffff9485821691828252841c93849101521115613f24575043841015613ee05792906000915b848310613e83575050506000908215600014613e525750505060005b6001600160e01b031690565b8201918211613e6f5750613e65906135aa565b505460201c613e46565b634e487b7160e01b81526011600452602490fd5b909193600190613e99818718831c828816613606565b80928486613ea6846135aa565b5054161115613ebb57505050935b9190613e2a565b9196508092500180911115613eb457634e487b7160e01b600052601160045260246000fd5b606460405162461bcd60e51b815260206004820152602060248201527f436865636b706f696e74733a20626c6f636b206e6f7420796574206d696e65646044820152fd5b935050505090565b505061019f5490565b6101a08054600160401b81101561053757613f55916001820190556135aa565b613f7c57815160209283015190921b63ffffffff191663ffffffff92909216919091179055565b634e487b7160e01b600052600060045260246000fd5b15613f9957565b60405162461bcd60e51b815260206004820152602c60248201527f46756e6374696f6e206d7573742062652063616c6c6564207468726f7567682060448201526b19195b1959d85d1958d85b1b60a21b6064820152608490fd5b15613ffa57565b60405162461bcd60e51b815260206004820152602c60248201527f46756e6374696f6e206d7573742062652063616c6c6564207468726f7567682060448201526b6163746976652070726f787960a01b6064820152608490fd5b803b15614089576000805160206144fb83398151915280546001600160a01b0319166001600160a01b03909216919091179055565b60405162461bcd60e51b815260206004820152602d60248201527f455243313936373a206e657720696d706c656d656e746174696f6e206973206e60448201526c1bdd08184818dbdb9d1c9858dd609a1b6064820152608490fd5b3d1561410f573d906140f582612dda565b916141036040519384612db9565b82523d6000602084013e565b606090565b90919015614120575090565b8151156141305750805190602001fd5b60405162461bcd60e51b815260206004820152908190614154906024830190612e7f565b0390fd5b6101a05460008161416b57506000919050565b6000198201918211613e6f5750613e65906135aa565b60058110156120af57806141925750565b600181036141df5760405162461bcd60e51b815260206004820152601860248201527f45434453413a20696e76616c6964207369676e617475726500000000000000006044820152606490fd5b6002810361422c5760405162461bcd60e51b815260206004820152601f60248201527f45434453413a20696e76616c6964207369676e6174757265206c656e677468006044820152606490fd5b600381036142845760405162461bcd60e51b815260206004820152602260248201527f45434453413a20696e76616c6964207369676e6174757265202773272076616c604482015261756560f01b6064820152608490fd5b60041461428d57565b60405162461bcd60e51b815260206004820152602260248201527f45434453413a20696e76616c6964207369676e6174757265202776272076616c604482015261756560f01b6064820152608490fd5b9291907f7fffffffffffffffffffffffffffffff5d576e7357a4501ddfe92f46681b20a083116143865760ff16601b8114158061437b575b61436f579160809493916020936040519384528484015260408301526060820152600093849182805260015afa156143625781516001600160a01b0381161561435c579190565b50600190565b50604051903d90823e3d90fd5b50505050600090600490565b50601c811415614315565b50505050600090600390565b6065546066546040519060208201927f8b73c3c69bb8fe3d512ecc4cf759cc79239f7b179b0ffacaa9a75d522b39400f8452604083015260608201524660808201523060a082015260a081526143e781612d4d565b5190209060405190602082019261190160f01b845260228301526042820152604281526134bd81612d9e565b6001600160e01b0390818111614427571690565b60405162461bcd60e51b815260206004820152602760248201527f53616665436173743a2076616c756520646f65736e27742066697420696e20326044820152663234206269747360c81b6064820152608490fd5b60ff549081600f0b809260801d600f0b13156144c8578160005261010060205260406000209160008354935560016001600160801b031960ff541691016001600160801b03161760ff55565b604051631ed9509560e11b8152600490fdfea6f1ac7ad7b125ba5a5e1c96b00ad6914f90a503b1ac3d85a9dadbb4c639df92360894a13ba1a3210667c828492db98dca3e2076cc3735a920a3ca505d382bbc0553476bf02ef2726e8ce5ced78d63e26e602e4a2257b1f559418e24b4633997a2646970667358221220c9447aaab1fadb4bf901fb8ff78cef2ff9e396ae2388417a69ba33dd6136ef7364736f6c63430008150033","linkReferences":{}},"methodIdentifiers":{"BALLOT_TYPEHASH()":"deaaa7cc","COUNTING_MODE()":"dd4e2ba5","EXTENDED_BALLOT_TYPEHASH()":"2fe3e261","NAME()":"a3f4df7e","VERSION()":"ffa1ad74","castVote(uint256,uint8)":"56781388","castVoteBySig(uint256,uint8,uint8,bytes32,bytes32)":"3bccf4fd","castVoteWithReason(uint256,uint8,string)":"7b3c71d3","castVoteWithReasonAndParams(uint256,uint8,string,bytes)":"5f398a14","castVoteWithReasonAndParamsBySig(uint256,uint8,string,bytes,uint8,bytes32,bytes32)":"03420181","execute(address[],uint256[],bytes[],bytes32)":"2656227d","getVoteSources()":"c5363603","getVotes(address,uint256)":"eb9019d4","getVotesWithParams(address,uint256,bytes)":"9a802a6d","hasVoted(uint256,address)":"43859632","hashProposal(address[],uint256[],bytes[],bytes32)":"c59057e4","initialize(address,address,address[])":"77a24f36","name()":"06fdde03","onERC1155BatchReceived(address,address,uint256[],uint256[],bytes)":"bc197c81","onERC1155Received(address,address,uint256,uint256,bytes)":"f23a6e61","onERC721Received(address,address,uint256,bytes)":"150b7a02","owner()":"8da5cb5b","proposalDeadline(uint256)":"c01f9e37","proposalEta(uint256)":"ab58fb8e","proposalSnapshot(uint256)":"2d63f693","proposalThreshold()":"b58131b0","proposalVotes(uint256)":"544ffc9c","propose(address[],uint256[],bytes[],string)":"7d5e81e2","proxiableUUID()":"52d1902d","queue(address[],uint256[],bytes[],bytes32)":"160cbed7","quorum(uint256)":"f8ce560a","quorumDenominator()":"97c3d334","quorumNumerator()":"a7713a70","quorumNumerator(uint256)":"60c4247f","relay(address,uint256,bytes)":"c28bc2fa","renounceOwnership()":"715018a6","setVoteSources(address[])":"ecb3cfd3","state(uint256)":"3e4f49e6","supportsInterface(bytes4)":"01ffc9a7","timelock()":"d33219b4","token()":"fc0c546a","transferOwnership(address)":"f2fde38b","updateQuorumNumerator(uint256)":"06f3f9e6","updateTimelock(address)":"a890c910","upgradeTo(address)":"3659cfe6","upgradeToAndCall(address,bytes)":"4f1ef286","version()":"54fd4d50","votingDelay()":"3932abb1","votingPeriod()":"02a251a3"},"id":22}