{"abi":[{"type":"constructor","inputs":[{"name":"_sale","type":"address","internalType":"contract FlatPriceSale"},{"name":"_token","type":"address","internalType":"contract IERC20"},{"name":"_soldTokenDecimals","type":"uint8","internalType":"uint8"},{"name":"_price","type":"uint256","internalType":"uint256"},{"name":"tranches","type":"tuple[]","internalType":"struct Tranche[]","components":[{"name":"time","type":"uint128","internalType":"uint128"},{"name":"vestedFraction","type":"uint128","internalType":"uint128"}]},{"name":"voteWeightBips","type":"uint256","internalType":"uint256"},{"name":"_uri","type":"string","internalType":"string"}],"stateMutability":"nonpayable"},{"type":"function","name":"CLOCK_MODE","inputs":[],"outputs":[{"name":"","type":"string","internalType":"string"}],"stateMutability":"view"},{"type":"function","name":"DOMAIN_SEPARATOR","inputs":[],"outputs":[{"name":"","type":"bytes32","internalType":"bytes32"}],"stateMutability":"view"},{"type":"function","name":"NAME","inputs":[],"outputs":[{"name":"","type":"string","internalType":"string"}],"stateMutability":"pure"},{"type":"function","name":"VERSION","inputs":[],"outputs":[{"name":"","type":"uint256","internalType":"uint256"}],"stateMutability":"pure"},{"type":"function","name":"adjust","inputs":[{"name":"beneficiary","type":"address","internalType":"address"},{"name":"amount","type":"int256","internalType":"int256"}],"outputs":[],"stateMutability":"nonpayable"},{"type":"function","name":"allowance","inputs":[{"name":"owner","type":"address","internalType":"address"},{"name":"spender","type":"address","internalType":"address"}],"outputs":[{"name":"","type":"uint256","internalType":"uint256"}],"stateMutability":"view"},{"type":"function","name":"approve","inputs":[{"name":"spender","type":"address","internalType":"address"},{"name":"amount","type":"uint256","internalType":"uint256"}],"outputs":[{"name":"","type":"bool","internalType":"bool"}],"stateMutability":"nonpayable"},{"type":"function","name":"balanceOf","inputs":[{"name":"account","type":"address","internalType":"address"}],"outputs":[{"name":"","type":"uint256","internalType":"uint256"}],"stateMutability":"view"},{"type":"function","name":"checkpoints","inputs":[{"name":"account","type":"address","internalType":"address"},{"name":"pos","type":"uint32","internalType":"uint32"}],"outputs":[{"name":"","type":"tuple","internalType":"struct ERC20Votes.Checkpoint","components":[{"name":"fromBlock","type":"uint32","internalType":"uint32"},{"name":"votes","type":"uint224","internalType":"uint224"}]}],"stateMutability":"view"},{"type":"function","name":"claim","inputs":[{"name":"beneficiary","type":"address","internalType":"address"}],"outputs":[],"stateMutability":"nonpayable"},{"type":"function","name":"claimed","inputs":[],"outputs":[{"name":"","type":"uint256","internalType":"uint256"}],"stateMutability":"view"},{"type":"function","name":"clock","inputs":[],"outputs":[{"name":"","type":"uint48","internalType":"uint48"}],"stateMutability":"view"},{"type":"function","name":"decimals","inputs":[],"outputs":[{"name":"","type":"uint8","internalType":"uint8"}],"stateMutability":"view"},{"type":"function","name":"decreaseAllowance","inputs":[{"name":"spender","type":"address","internalType":"address"},{"name":"subtractedValue","type":"uint256","internalType":"uint256"}],"outputs":[{"name":"","type":"bool","internalType":"bool"}],"stateMutability":"nonpayable"},{"type":"function","name":"delegate","inputs":[{"name":"delegatee","type":"address","internalType":"address"}],"outputs":[],"stateMutability":"nonpayable"},{"type":"function","name":"delegateBySig","inputs":[{"name":"delegatee","type":"address","internalType":"address"},{"name":"nonce","type":"uint256","internalType":"uint256"},{"name":"expiry","type":"uint256","internalType":"uint256"},{"name":"v","type":"uint8","internalType":"uint8"},{"name":"r","type":"bytes32","internalType":"bytes32"},{"name":"s","type":"bytes32","internalType":"bytes32"}],"outputs":[],"stateMutability":"nonpayable"},{"type":"function","name":"delegates","inputs":[{"name":"account","type":"address","internalType":"address"}],"outputs":[{"name":"","type":"address","internalType":"address"}],"stateMutability":"view"},{"type":"function","name":"distancePerSecond","inputs":[],"outputs":[{"name":"","type":"uint160","internalType":"uint160"}],"stateMutability":"view"},{"type":"function","name":"eip712Domain","inputs":[],"outputs":[{"name":"fields","type":"bytes1","internalType":"bytes1"},{"name":"name","type":"string","internalType":"string"},{"name":"version","type":"string","internalType":"string"},{"name":"chainId","type":"uint256","internalType":"uint256"},{"name":"verifyingContract","type":"address","internalType":"address"},{"name":"salt","type":"bytes32","internalType":"bytes32"},{"name":"extensions","type":"uint256[]","internalType":"uint256[]"}],"stateMutability":"view"},{"type":"function","name":"getClaimableAmount","inputs":[{"name":"beneficiary","type":"address","internalType":"address"},{"name":"data","type":"bytes","internalType":"bytes"}],"outputs":[{"name":"","type":"uint256","internalType":"uint256"}],"stateMutability":"view"},{"type":"function","name":"getDistributionRecord","inputs":[{"name":"beneficiary","type":"address","internalType":"address"}],"outputs":[{"name":"","type":"tuple","internalType":"struct DistributionRecord","components":[{"name":"initialized","type":"bool","internalType":"bool"},{"name":"total","type":"uint120","internalType":"uint120"},{"name":"claimed","type":"uint120","internalType":"uint120"}]}],"stateMutability":"view"},{"type":"function","name":"getFairDelayTime","inputs":[{"name":"user","type":"address","internalType":"address"}],"outputs":[{"name":"","type":"uint256","internalType":"uint256"}],"stateMutability":"view"},{"type":"function","name":"getFractionDenominator","inputs":[],"outputs":[{"name":"","type":"uint256","internalType":"uint256"}],"stateMutability":"view"},{"type":"function","name":"getPastTotalSupply","inputs":[{"name":"timepoint","type":"uint256","internalType":"uint256"}],"outputs":[{"name":"","type":"uint256","internalType":"uint256"}],"stateMutability":"view"},{"type":"function","name":"getPastVotes","inputs":[{"name":"account","type":"address","internalType":"address"},{"name":"timepoint","type":"uint256","internalType":"uint256"}],"outputs":[{"name":"","type":"uint256","internalType":"uint256"}],"stateMutability":"view"},{"type":"function","name":"getPurchasedAmount","inputs":[{"name":"buyer","type":"address","internalType":"address"}],"outputs":[{"name":"","type":"uint256","internalType":"uint256"}],"stateMutability":"view"},{"type":"function","name":"getSweepRecipient","inputs":[],"outputs":[{"name":"","type":"address","internalType":"address payable"}],"stateMutability":"view"},{"type":"function","name":"getTotalVotes","inputs":[],"outputs":[{"name":"","type":"uint256","internalType":"uint256"}],"stateMutability":"view"},{"type":"function","name":"getTranche","inputs":[{"name":"i","type":"uint256","internalType":"uint256"}],"outputs":[{"name":"","type":"tuple","internalType":"struct Tranche","components":[{"name":"time","type":"uint128","internalType":"uint128"},{"name":"vestedFraction","type":"uint128","internalType":"uint128"}]}],"stateMutability":"view"},{"type":"function","name":"getTranches","inputs":[],"outputs":[{"name":"","type":"tuple[]","internalType":"struct Tranche[]","components":[{"name":"time","type":"uint128","internalType":"uint128"},{"name":"vestedFraction","type":"uint128","internalType":"uint128"}]}],"stateMutability":"view"},{"type":"function","name":"getVestedFraction","inputs":[{"name":"beneficiary","type":"address","internalType":"address"},{"name":"time","type":"uint256","internalType":"uint256"},{"name":"","type":"bytes","internalType":"bytes"}],"outputs":[{"name":"","type":"uint256","internalType":"uint256"}],"stateMutability":"view"},{"type":"function","name":"getVoteFactor","inputs":[{"name":"","type":"address","internalType":"address"}],"outputs":[{"name":"","type":"uint256","internalType":"uint256"}],"stateMutability":"view"},{"type":"function","name":"getVotes","inputs":[{"name":"account","type":"address","internalType":"address"}],"outputs":[{"name":"","type":"uint256","internalType":"uint256"}],"stateMutability":"view"},{"type":"function","name":"increaseAllowance","inputs":[{"name":"spender","type":"address","internalType":"address"},{"name":"addedValue","type":"uint256","internalType":"uint256"}],"outputs":[{"name":"","type":"bool","internalType":"bool"}],"stateMutability":"nonpayable"},{"type":"function","name":"initializeDistributionRecord","inputs":[{"name":"beneficiary","type":"address","internalType":"address"}],"outputs":[],"stateMutability":"nonpayable"},{"type":"function","name":"maxDelayTime","inputs":[],"outputs":[{"name":"","type":"uint160","internalType":"uint160"}],"stateMutability":"view"},{"type":"function","name":"name","inputs":[],"outputs":[{"name":"","type":"string","internalType":"string"}],"stateMutability":"view"},{"type":"function","name":"nonces","inputs":[{"name":"owner","type":"address","internalType":"address"}],"outputs":[{"name":"","type":"uint256","internalType":"uint256"}],"stateMutability":"view"},{"type":"function","name":"numCheckpoints","inputs":[{"name":"account","type":"address","internalType":"address"}],"outputs":[{"name":"","type":"uint32","internalType":"uint32"}],"stateMutability":"view"},{"type":"function","name":"owner","inputs":[],"outputs":[{"name":"","type":"address","internalType":"address"}],"stateMutability":"view"},{"type":"function","name":"permit","inputs":[{"name":"owner","type":"address","internalType":"address"},{"name":"spender","type":"address","internalType":"address"},{"name":"value","type":"uint256","internalType":"uint256"},{"name":"deadline","type":"uint256","internalType":"uint256"},{"name":"v","type":"uint8","internalType":"uint8"},{"name":"r","type":"bytes32","internalType":"bytes32"},{"name":"s","type":"bytes32","internalType":"bytes32"}],"outputs":[],"stateMutability":"nonpayable"},{"type":"function","name":"price","inputs":[],"outputs":[{"name":"","type":"uint256","internalType":"uint256"}],"stateMutability":"view"},{"type":"function","name":"randomValue","inputs":[],"outputs":[{"name":"","type":"uint160","internalType":"uint160"}],"stateMutability":"view"},{"type":"function","name":"renounceOwnership","inputs":[],"outputs":[],"stateMutability":"nonpayable"},{"type":"function","name":"sale","inputs":[],"outputs":[{"name":"","type":"address","internalType":"contract FlatPriceSale"}],"stateMutability":"view"},{"type":"function","name":"setSweepRecipient","inputs":[{"name":"_recipient","type":"address","internalType":"address payable"}],"outputs":[],"stateMutability":"nonpayable"},{"type":"function","name":"setToken","inputs":[{"name":"_token","type":"address","internalType":"contract IERC20"}],"outputs":[],"stateMutability":"nonpayable"},{"type":"function","name":"setTotal","inputs":[{"name":"_total","type":"uint256","internalType":"uint256"}],"outputs":[],"stateMutability":"nonpayable"},{"type":"function","name":"setTranches","inputs":[{"name":"_tranches","type":"tuple[]","internalType":"struct Tranche[]","components":[{"name":"time","type":"uint128","internalType":"uint128"},{"name":"vestedFraction","type":"uint128","internalType":"uint128"}]}],"outputs":[],"stateMutability":"nonpayable"},{"type":"function","name":"setUri","inputs":[{"name":"_uri","type":"string","internalType":"string"}],"outputs":[],"stateMutability":"nonpayable"},{"type":"function","name":"setVoteFactor","inputs":[{"name":"_voteFactor","type":"uint256","internalType":"uint256"}],"outputs":[],"stateMutability":"nonpayable"},{"type":"function","name":"soldTokenDecimals","inputs":[],"outputs":[{"name":"","type":"uint8","internalType":"uint8"}],"stateMutability":"view"},{"type":"function","name":"sweepNative","inputs":[{"name":"amount","type":"uint256","internalType":"uint256"}],"outputs":[],"stateMutability":"nonpayable"},{"type":"function","name":"sweepNative","inputs":[],"outputs":[],"stateMutability":"nonpayable"},{"type":"function","name":"sweepToken","inputs":[{"name":"token","type":"address","internalType":"contract IERC20"}],"outputs":[],"stateMutability":"nonpayable"},{"type":"function","name":"sweepToken","inputs":[{"name":"token","type":"address","internalType":"contract IERC20"},{"name":"amount","type":"uint256","internalType":"uint256"}],"outputs":[],"stateMutability":"nonpayable"},{"type":"function","name":"symbol","inputs":[],"outputs":[{"name":"","type":"string","internalType":"string"}],"stateMutability":"view"},{"type":"function","name":"token","inputs":[],"outputs":[{"name":"","type":"address","internalType":"contract IERC20"}],"stateMutability":"view"},{"type":"function","name":"total","inputs":[],"outputs":[{"name":"","type":"uint256","internalType":"uint256"}],"stateMutability":"view"},{"type":"function","name":"totalSupply","inputs":[],"outputs":[{"name":"","type":"uint256","internalType":"uint256"}],"stateMutability":"view"},{"type":"function","name":"transfer","inputs":[{"name":"to","type":"address","internalType":"address"},{"name":"amount","type":"uint256","internalType":"uint256"}],"outputs":[{"name":"","type":"bool","internalType":"bool"}],"stateMutability":"nonpayable"},{"type":"function","name":"transferFrom","inputs":[{"name":"from","type":"address","internalType":"address"},{"name":"to","type":"address","internalType":"address"},{"name":"amount","type":"uint256","internalType":"uint256"}],"outputs":[{"name":"","type":"bool","internalType":"bool"}],"stateMutability":"nonpayable"},{"type":"function","name":"transferOwnership","inputs":[{"name":"newOwner","type":"address","internalType":"address"}],"outputs":[],"stateMutability":"nonpayable"},{"type":"function","name":"uri","inputs":[],"outputs":[{"name":"","type":"string","internalType":"string"}],"stateMutability":"view"},{"type":"event","name":"Adjust","inputs":[{"name":"beneficiary","type":"address","indexed":true,"internalType":"address"},{"name":"amount","type":"int256","indexed":false,"internalType":"int256"}],"anonymous":false},{"type":"event","name":"Approval","inputs":[{"name":"owner","type":"address","indexed":true,"internalType":"address"},{"name":"spender","type":"address","indexed":true,"internalType":"address"},{"name":"value","type":"uint256","indexed":false,"internalType":"uint256"}],"anonymous":false},{"type":"event","name":"Claim","inputs":[{"name":"beneficiary","type":"address","indexed":true,"internalType":"address"},{"name":"amount","type":"uint256","indexed":false,"internalType":"uint256"}],"anonymous":false},{"type":"event","name":"DelegateChanged","inputs":[{"name":"delegator","type":"address","indexed":true,"internalType":"address"},{"name":"fromDelegate","type":"address","indexed":true,"internalType":"address"},{"name":"toDelegate","type":"address","indexed":true,"internalType":"address"}],"anonymous":false},{"type":"event","name":"DelegateVotesChanged","inputs":[{"name":"delegate","type":"address","indexed":true,"internalType":"address"},{"name":"previousBalance","type":"uint256","indexed":false,"internalType":"uint256"},{"name":"newBalance","type":"uint256","indexed":false,"internalType":"uint256"}],"anonymous":false},{"type":"event","name":"EIP712DomainChanged","inputs":[],"anonymous":false},{"type":"event","name":"InitializeDistributionRecord","inputs":[{"name":"beneficiary","type":"address","indexed":true,"internalType":"address"},{"name":"total","type":"uint256","indexed":false,"internalType":"uint256"}],"anonymous":false},{"type":"event","name":"InitializeDistributor","inputs":[{"name":"token","type":"address","indexed":true,"internalType":"contract IERC20"},{"name":"total","type":"uint256","indexed":false,"internalType":"uint256"},{"name":"uri","type":"string","indexed":false,"internalType":"string"},{"name":"fractionDenominator","type":"uint256","indexed":false,"internalType":"uint256"}],"anonymous":false},{"type":"event","name":"OwnershipTransferred","inputs":[{"name":"previousOwner","type":"address","indexed":true,"internalType":"address"},{"name":"newOwner","type":"address","indexed":true,"internalType":"address"}],"anonymous":false},{"type":"event","name":"SetDelay","inputs":[{"name":"maxDelayTime","type":"uint160","indexed":false,"internalType":"uint160"}],"anonymous":false},{"type":"event","name":"SetSweepRecipient","inputs":[{"name":"recipient","type":"address","indexed":false,"internalType":"address"}],"anonymous":false},{"type":"event","name":"SetToken","inputs":[{"name":"token","type":"address","indexed":true,"internalType":"contract IERC20"}],"anonymous":false},{"type":"event","name":"SetTotal","inputs":[{"name":"total","type":"uint256","indexed":false,"internalType":"uint256"}],"anonymous":false},{"type":"event","name":"SetTranche","inputs":[{"name":"index","type":"uint256","indexed":true,"internalType":"uint256"},{"name":"time","type":"uint128","indexed":false,"internalType":"uint128"},{"name":"VestedFraction","type":"uint128","indexed":false,"internalType":"uint128"}],"anonymous":false},{"type":"event","name":"SetUri","inputs":[{"name":"uri","type":"string","indexed":true,"internalType":"string"}],"anonymous":false},{"type":"event","name":"SetVoteFactor","inputs":[{"name":"voteFactor","type":"uint256","indexed":false,"internalType":"uint256"}],"anonymous":false},{"type":"event","name":"SweepNative","inputs":[{"name":"amount","type":"uint256","indexed":false,"internalType":"uint256"}],"anonymous":false},{"type":"event","name":"SweepToken","inputs":[{"name":"token","type":"address","indexed":true,"internalType":"address"},{"name":"amount","type":"uint256","indexed":false,"internalType":"uint256"}],"anonymous":false},{"type":"event","name":"Transfer","inputs":[{"name":"from","type":"address","indexed":true,"internalType":"address"},{"name":"to","type":"address","indexed":true,"internalType":"address"},{"name":"value","type":"uint256","indexed":false,"internalType":"uint256"}],"anonymous":false},{"type":"error","name":"InvalidShortString","inputs":[]},{"type":"error","name":"StringTooLong","inputs":[{"name":"str","type":"string","internalType":"string"}]}],"bytecode":{"object":"0x6101e0806040523462000f5f5762005c8d803803809162000021828562000fee565b8339810160e08282031262000f5f5781516001600160a01b038116810362000f5f576020830151906001600160a01b038216820362000f5f5760408401519260ff841680850362000f5f57606086015160808701519094906001600160401b03811162000f5f5787019683601f8901121562000f5f5787516001600160401b038111620006d55760405198620000be60208360051b018b62000fee565b818a526020808b019260061b8201019086821162000f5f57602001915b81831062000f645750505060a081015160c08201519094906001600160401b03811162000f5f576200010e92016200104c565b6040516316ede89d60e11b815290926020826004816001600160a01b038a165afa918215620009a45760009262000f25575b50604d811162000f0f57600a0a9081810291818304149015171562000f0f57851562000ef95762000170620010a7565b6200017a620010a7565b90604051620001898162000fd2565b600381526212559560ea1b602082015260405192620001a88462000fd2565b60018452603160f81b60208086019190915260008054336001600160a01b03198216811783556040517fccdd1baf560d2682736fa25752c8ccc0c5fc4079b245b0acf7389776308d5b1f949390926001600160a01b0316907f8be0079c531659141344cd1fd0a4f28419497f9722a3daafe3b4186f6b6457e09080a3600180546001600160a01b031916339081179091558152a18051906001600160401b038211620006d55781906200025d600554620010e2565b601f811162000ea3575b50602090601f831160011462000e145760009262000e08575b50508160011b916000199060031b1c1916176005555b8051906001600160401b038211620006d5578190620002b7600654620010e2565b601f811162000da7575b50602090601f831160011462000d295760009262000d1d575b50508160011b916000199060031b1c1916176006555b620002fb816200118d565b610120526200030a826200131a565b6101405260208151910120908160e0526020815191012080610100524660a052604051917f8b73c3c69bb8fe3d512ecc4cf759cc79239f7b179b0ffacaa9a75d522b39400f6020840152604083015260608201524660808201523060a082015260a081528060c081011060018060401b0360c083011117620006d55760c0818101604052815160208301206080523090526001600e556001600160a01b0383161562000cd557508581041562000c9057601080546001600160a01b0319166001600160a01b03909316929092179091558490046011558051906001600160401b038211620006d557819062000401601354620010e2565b601f811162000c2f575b50602090601f831160011462000bb15760009262000ba5575b50508160011b916000199060031b1c1916176013555b6127106101605260018060a01b03601054166011546040519081526060602082015260006013546200046c81620010e2565b9081606085015260018116908160001462000b73575060011462000b1c575b509160008051602062005c2d833981519152828060209561271060407f6c339c0bee516a4df5d7074ba7a974856d609f83666e915aa4a0f90e06989dc5999701520390a2601580546001600160a01b0319908116909155601480549091169055604051600081527fdccb8d94a5bbd764ed844afa20f2581be18d3fa84b36855e86a8f0c9316cba7d908390a16200052162001134565b80601755604051908152a183511562000ae35760185460006018558062000a9c575b509060009182835b8651851015620007c8576001600160801b0360206200056b878a6200111f565b510151161562000783576001600160801b036200058986896200111f565b5151166001600160801b0390911610156200073e576001600160801b036020620005b486896200111f565b510151166001600160801b039091161015620006eb576001600160801b03620005de84876200111f565b515116916001600160801b036020620005f886896200111f565b51015116936200060981886200111f565b51906018549168010000000000000000831015620006d5576001830180601855831015620006bf576018600052805160209182015160801b6001600160801b0319166001600160801b0391909116177fb13d2d76d1f4b7be834882e410b3e3a8afaf69f83600ae24db354391d2378d2e909301929092556040805186815292830187905260019282917f5104929ca78e46ba25dca9557731ec873a03ae745d3ee194d262cc4820662a1c91a2019390926200054b565b634e487b7160e01b600052603260045260246000fd5b634e487b7160e01b600052604160045260246000fd5b60405162461bcd60e51b815260206004820152602560248201527f7472616e63686520766573746564206672616374696f6e206d75737420696e63604482015264726561736560d81b6064820152608490fd5b60405162461bcd60e51b815260206004820152601a60248201527f7472616e6368652074696d65206d75737420696e6372656173650000000000006044820152606490fd5b60405162461bcd60e51b815260206004820152601c60248201527f7472616e63686520766573746564206672616374696f6e203d3d2030000000006044820152606490fd5b91935084916001600160801b039063f48657009082161162000a445761016051911603620009f5576001600160a01b03831615620009b0576040516379502c5560e01b81526000816004816001600160a01b0388165afa908115620009a4576000916200093a575b50421115620008f5576101809283526101c09081526101a0918252604051916147d69384620014578539608051846141ec015260a051846142a7015260c051846141b6015260e0518461423b015261010051846142610152610120518461146801526101405184611492015261016051848181610594015281816127a601528181612ae2015261307001525183818161094c01528181610f780152818161110c01526126120152518281816119e2015261268001525181818161242601526126480152f35b60405162461bcd60e51b815260206004820152601c60248201527f5456535f325f305f443a2073616c65206e6f74206f76657220796574000000006044820152606490fd5b903d8082843e6200094c818462000fee565b82019061012083830312620009a15782516001600160a01b03811603620009a15760c0830151610100840151909390916001600160401b038311620009a15750620009999291016200104c565b508462000830565b80fd5b6040513d6000823e3d90fd5b60405162461bcd60e51b815260206004820152601d60248201527f5456535f325f305f443a2073616c6520697320616464726573732830290000006044820152606490fd5b60405162461bcd60e51b815260206004820152602160248201527f6c617374207472616e636865206d757374207665737420616c6c20746f6b656e6044820152607360f81b6064820152608490fd5b60405162461bcd60e51b815260206004820152602a60248201527f76657374696e6720656e6473206166746572203431303234343438303020284a604482015269616e203120323130302960b01b6064820152608490fd5b60186000527fb13d2d76d1f4b7be834882e410b3e3a8afaf69f83600ae24db354391d2378d2e908101905b81811062000ad6575062000543565b6000815560010162000ac7565b60405162461bcd60e51b81526020600482015260116024820152701d1c985b98da195cc81c995c5d5a5c9959607a1b6044820152606490fd5b60136000908152915060008051602062005c4d8339815191525b81831062000b5b575050810160800160008051602062005c2d8339815191526200048b565b80546080848601015260209092019160010162000b36565b60ff191660808086019190915291151560051b8401909101915060008051602062005c2d83398151915290506200048b565b01519050388062000424565b60136000908152935060008051602062005c4d83398151915291905b601f198416851062000c13576001945083601f1981161062000bf9575b505050811b016013556200043a565b015160001960f88460031b161c1916905538808062000bea565b8181015183556020948501946001909301929091019062000bcd565b601360005290915060008051602062005c4d833981519152601f840160051c81016020851062000c88575b90849392915b601f830160051c8201811062000c785750506200040b565b6000815585945060010162000c60565b508062000c5a565b60405162461bcd60e51b815260206004820152601760248201527f4469737472696275746f723a20746f74616c20697320300000000000000000006044820152606490fd5b60c060649162461bcd60e51b82820152602060c4820152602060e48201527f4469737472696275746f723a20746f6b656e206973206164647265737328302961010482015201fd5b015190503880620002da565b60066000908152935060008051602062005c6d83398151915291905b601f198416851062000d8b576001945083601f1981161062000d71575b505050811b01600655620002f0565b015160001960f88460031b161c1916905538808062000d62565b8181015183556020948501946001909301929091019062000d45565b600660005290915060008051602062005c6d833981519152601f840160051c81016020851062000e00575b90849392915b601f830160051c8201811062000df0575050620002c1565b6000815585945060010162000dd8565b508062000dd2565b01519050388062000280565b6005600090815293507f036b6384b5eca791c62761152d0c79bb0604c104a5fb6f4eb0703f3154bb3db091905b601f198416851062000e87576001945083601f1981161062000e6d575b505050811b0160055562000296565b015160001960f88460031b161c1916905538808062000e5e565b8181015183556020948501946001909301929091019062000e41565b90915060056000526020600020601f840160051c81016020851062000ef1575b90849392915b601f830160051c8201811062000ee157505062000267565b6000815585945060010162000ec9565b508062000ec3565b634e487b7160e01b600052601260045260246000fd5b634e487b7160e01b600052601160045260246000fd5b90916020823d60201162000f56575b8162000f436020938362000fee565b81010312620009a1575051903862000140565b3d915062000f34565b600080fd5b60408388031262000f5f576040805191908201906001600160401b0382118383101762000fbd57604092602092845262000f9e8662001012565b815262000fad83870162001012565b83820152815201920191620000db565b60246000634e487b7160e01b81526041600452fd5b604081019081106001600160401b03821117620006d557604052565b601f909101601f19168101906001600160401b03821190821017620006d557604052565b51906001600160801b038216820362000f5f57565b60005b8381106200103b5750506000910152565b81810151838201526020016200102a565b81601f8201121562000f5f5780516001600160401b038111620006d5576040519262001083601f8301601f19166020018562000fee565b8184526020828401011162000f5f57620010a4916020808501910162001027565b90565b60405190620010b68262000fd2565b601582527f496e7465726e616c20766f746520747261636b657200000000000000000000006020830152565b90600182811c9216801562001114575b6020831014620010fe57565b634e487b7160e01b600052602260045260246000fd5b91607f1691620010f2565b8051821015620006bf5760209160051b010190565b6014546001600160a01b0316156200118b5760405162461bcd60e51b815260206004820152601860248201527f492064656d616e64206d6f72652072616e646f6d6e65737300000000000000006044820152606490fd5b565b8051602090818110156200120b5750601f825111620011c95780825192015190808310620011ba57501790565b82600019910360031b1b161790565b604490620011fd9260405193849263305a27a960e01b84528060048501528251928391826024870152868601910162001027565b601f01601f19168101030190fd5b919291906001600160401b038211620006d5576200122b600754620010e2565b601f8111620012e2575b5080601f83116001146200127657508192936000926200126a575b50508160011b916000199060031b1c19161760075560ff90565b01519050388062001250565b90601f19831694600760005282600020926000905b878210620012c9575050836001959610620012af575b505050811b0160075560ff90565b015160001960f88460031b161c19169055388080620012a1565b806001859682949686015181550195019301906200128b565b600060078152601f838220920160051c820191601f850160051c015b8281106200130e57505062001235565b818155600101620012fe565b805160209081811015620013475750601f825111620011c95780825192015190808310620011ba57501790565b919291906001600160401b038211620006d55762001367600854620010e2565b601f81116200141e575b5080601f8311600114620013b25750819293600092620013a6575b50508160011b916000199060031b1c19161760085560ff90565b0151905038806200138c565b90601f19831694600860005282600020926000905b87821062001405575050836001959610620013eb575b505050811b0160085560ff90565b015160001960f88460031b161c19169055388080620013dd565b80600185968294968601518155019501930190620013c7565b600060088152601f838220920160051c820191601f850160051c015b8281106200144a57505062001371565b8181556001016200143a56fe6080604052600436101561001257600080fd5b60003560e01c806306fdde031461040d578063095ea7b31461034a5780630f56b96c1461040857806313c67ce514610403578063144fa6d7146103fe57806318160ddd1461036d5780631be19560146103f95780631e83409a146103f45780631f8d1d50146103ef57806323b872dd146103ea57806324285762146103e5578063276801ec146103e05780632ddbd13a146103db578063313ce567146103d65780633644e515146103d157806339509351146103cc5780633a46b1a8146103c75780633cf3a025146103c257806344b3c204146103bd5780634bf5d7e9146103b8578063587cde1e146103b35780635c19a95c146103ae5780636ad1fe02146103a95780636fcfff45146103a457806370a082311461039f578063715018a61461039a57806375aa9bc6146103955780637ecebe001461039057806384b0196e1461038b5780638da5cb5b146103865780638e539e8c1461038157806391ddadf41461037c57806395d89b41146103775780639691cab5146103725780639a0e7d661461036d5780639ab24eb0146103685780639b642de114610363578063a035b1fe1461035e578063a3f4df7e14610359578063a457c2d714610354578063a4ef1f781461034f578063a9059cbb1461034a578063ab803a7614610345578063bb22dccb14610340578063c3cda5201461033b578063c6e8d98214610336578063c78d598514610331578063c95572551461032c578063d3d0ec8914610327578063d505accf14610322578063d972e8ad1461031d578063dc2f511b14610318578063dd62ed3e14610313578063de032f581461030e578063e834a83414610309578063e85858d914610304578063e90a182f146102ff578063eac989f8146102fa578063f1127ed8146102f5578063f2d5c0ff146102f0578063f2fde38b146102eb578063f56c8547146102e6578063fc0c546a146102e15763ffa1ad74146102dc57600080fd5b612563565b61253a565b612511565b61244a565b61240c565b61238c565b6122f5565b612249565b612167565b612149565b6120d9565b612076565b611f94565b611f24565b611de4565b611d97565b611d4b565b611d22565b611cf9565b611bca565b611b81565b611b26565b61055b565b611aff565b611a5c565b611a05565b6119ca565b61187a565b611817565b610803565b611760565b61168b565b61165f565b61156f565b611546565b61144d565b611410565b61121e565b6111c3565b611186565b61113b565b6110f6565b6110d0565b611091565b610fdf565b610f30565b610ec1565b610d6c565b610cd6565b610cbb565b610c9f565b610c81565b610c58565b610c31565b610b8f565b610b43565b610909565b610821565b61075b565b61070a565b61057c565b610466565b919082519283825260005b84811061043e575050826000602080949584010152601f8019910116010190565b60208183018101518483018201520161041d565b906020610463928181520190610412565b90565b34610545576000806003193601126105425760405181600554610488816122bb565b90818452602092600191828116908160001461052057506001146104c7575b6104c3856104b78189038261065e565b60405191829182610452565b0390f35b929450600583527f036b6384b5eca791c62761152d0c79bb0604c104a5fb6f4eb0703f3154bb3db05b82841061050d57505050816104c3936104b79282010193386104a7565b80548585018701529285019281016104f0565b60ff191686860152505050151560051b82010191506104b7816104c3386104a7565b80fd5b600080fd5b6001600160a01b0381160361054557565b346105455760403660031901126105455761057760043561054a565b61341e565b346105455760003660031901126105455760206040517f00000000000000000000000000000000000000000000000000000000000000008152f35b634e487b7160e01b600052604160045260246000fd5b6040810190811067ffffffffffffffff8211176105e957604052565b6105b7565b6060810190811067ffffffffffffffff8211176105e957604052565b6020810190811067ffffffffffffffff8211176105e957604052565b6080810190811067ffffffffffffffff8211176105e957604052565b60c0810190811067ffffffffffffffff8211176105e957604052565b90601f8019910116810190811067ffffffffffffffff8211176105e957604052565b6040519061068d826105ee565b565b6040519061068d826105cd565b67ffffffffffffffff81116105e957601f01601f191660200190565b9291926106c48261069c565b916106d2604051938461065e565b829481845281830111610545578281602093846000960137010152565b9080601f8301121561054557816020610463933591016106b8565b34610545576040366003190112610545576004356107278161054a565b60243567ffffffffffffffff81116105455760209161074d6107539236906004016106ef565b50612758565b604051908152f35b34610545576020366003190112610545576004356107788161054a565b6107806133c6565b6001600160a01b031680156107c857601080546001600160a01b031916821790557fefc1fd16ea80a922086ee4e995739d59b025c1bcea6d1f67855747480c83214b600080a2005b60405162461bcd60e51b8152602060048201526013602482015272746f6b656e206973206164647265737328302960681b6044820152606490fd5b34610545576000366003190112610545576020600454604051908152f35b346105455760203660031901126105455760043561083e8161054a565b6108466133c6565b6040516370a0823160e01b81523060048201526001600160a01b0382169190602081602481865afa8015610904577ff4a44a7f605c4971a27bcecb448108e6328b7fad34fab5bff4f69377294b826d926108cb926000926108d0575b506001546108bb9183916001600160a01b031690613e11565b6040519081529081906020820190565b0390a2005b6108bb9192506108f69060203d81116108fd575b6108ee818361065e565b81019061257f565b91906108a2565b503d6108e4565b61258e565b3461054557602080600319360112610545576004356109278161054a565b60018060a01b03604051630998467560e31b81528381602481858716958660048301527f0000000000000000000000000000000000000000000000000000000000000000165afa80156109045761098891600091610b26575b5015156126c8565b6002600e5414610ae1576002600e556109a0826128a3565b906109a9612709565b506001600160781b0380921690600052600f8452808260406000205460081c1603610ad1575b506109d982612758565b16908115610a74576001600160a01b0381166000908152600f60205260409020610a689350610a4690610a2084610a1b83546001600160781b039060801c1690565b612bd1565b8154600160801b600160f81b03191660809190911b600160801b600160f81b0316179055565b610a5a610a5583601254612bc4565b601255565b610a6381612a38565b612e03565b610a726001600e55565b005b60405162461bcd60e51b815260048101849052602f60248201527f4469737472696275746f723a206e6f206d6f726520746f6b656e7320636c616960448201526e6d61626c65207269676874206e6f7760881b6064820152608490fd5b610adb90836128df565b386109cf565b60405162461bcd60e51b815260048101849052601f60248201527f5265656e7472616e637947756172643a207265656e7472616e742063616c6c006044820152606490fd5b610b3d9150853d87116108fd576108ee818361065e565b38610980565b34610545576020366003190112610545577fac657d3615bd618ee537848e2b33acd2a9df67d4776485ab6922b0421d324d296020600435610b826133c6565b80601155604051908152a1005b3461054557606036600319011261054557600435610bac8161054a565b610bb760243561054a565b6001600160a01b03166000908152600360209081526040808320338452909152902054600181011561341e57604435111561341e5760405162461bcd60e51b815260206004820152601d60248201527f45524332303a20696e73756666696369656e7420616c6c6f77616e63650000006044820152606490fd5b34610545576020366003190112610545576020610753600435610c538161054a565b6125e8565b34610545576000366003190112610545576016546040516001600160a01b039091168152602090f35b34610545576000366003190112610545576020601154604051908152f35b3461054557600036600319011261054557602060405160128152f35b346105455760003660031901126105455760206107536141b3565b3461054557604036600319011261054557610d1b600435610cf68161054a565b33600052600360205260406000209060018060a01b0316600052602052604060002090565b54602435810110610d675760405162461bcd60e51b81526020600482015260196024820152783234b9b0b13632b2103337b9103b37ba34b733903837bbb2b960391b6044820152606490fd5b61259a565b3461054557604036600319011261054557600435610d898161054a565b60243590610da865ffffffffffff610da04361467a565b1683106134cd565b6001600160a01b03166000908152600c6020526040812080549290918360058111610e70575b50905b838210610e1f57505081610df8575050602060005b6040516001600160e01b039091168152f35b610e13610e1a91602093600019019060005260206000200190565b5460201c90565b610de6565b9092610e2b81856144aa565b908263ffffffff610e50610e46858860005260206000200190565b5463ffffffff1690565b161115610e605750925b90610dd1565b9350610e6b90612bb6565b610e5a565b80610e80610e86929693966144bf565b90612a2b565b908263ffffffff610ea1610e46858860005260206000200190565b161115610eb15750925b38610dce565b9350610ebc90612bb6565b610eab565b3461054557602036600319011261054557600435610edd6133c6565b7f3b381fdfc0e2729a70e8b26ae2397e9014f703a8235b557f5581c4ed47280fd26020600092610f26848080808560018060a01b03600154165af1610f20613357565b50613387565b604051908152a180f35b34610545576020366003190112610545576024600435610f4f8161054a565b604051630998467560e31b81526001600160a01b038281166004830152909260209184919082907f0000000000000000000000000000000000000000000000000000000000000000165afa91821561090457610a7292610fb891600091610fc7575015156126c8565b610fc1816125e8565b906128df565b610b3d915060203d81116108fd576108ee818361065e565b34610545576000366003190112610545574365ffffffffffff6110014361467a565b160361104c576104c3604051611016816105cd565b601d81527f6d6f64653d626c6f636b6e756d6265722666726f6d3d64656661756c74000000602082015260405191829182610452565b60405162461bcd60e51b815260206004820152601d60248201527f4552433230566f7465733a2062726f6b656e20636c6f636b206d6f64650000006044820152606490fd5b346105455760203660031901126105455760206004356110b08161054a565b60018060a01b03809116600052600b825260406000205416604051908152f35b3461054557602036600319011261054557610a726004356110f08161054a565b33613893565b34610545576000366003190112610545576040517f00000000000000000000000000000000000000000000000000000000000000006001600160a01b03168152602090f35b34610545576020366003190112610545576004356111588161054a565b60018060a01b0316600052600c60205260206111786040600020546146e1565b63ffffffff60405191168152f35b34610545576020366003190112610545576004356111a38161054a565b60018060a01b031660005260026020526020604060002054604051908152f35b3461054557600080600319360112610542576111dd6133c6565b80546001600160a01b03198116825581906001600160a01b03167f8be0079c531659141344cd1fd0a4f28419497f9722a3daafe3b4186f6b6457e08280a380f35b346105455760403660031901126105455760043561123b8161054a565b7fd81661cef4e40e0f1f97384c033d606e4d6b570554fc3524568d8f9fc84c83886108cb6024359261126b6133c6565b6001600160a01b0381166000908152600f6020526040902061128c90612721565b61129e6112998251151590565b612b0e565b600085131561140257845b6001600160781b03916112bd838310612b6a565b60008712156113b7576113949261131c61131784611376946113128261130b6112ff6020601154956112f185881015612bec565b01516001600160781b031690565b6001600160781b031690565b1015612c48565b612a2b565b601155565b6001600160a01b0385166000908152600f602052604090206113559091841661135083546001600160781b039060081c1690565b612a12565b610100600160801b0382549160081b1690610100600160801b031916179055565b6010546001600160a01b03166000546001600160a01b031690613e11565b61139d81612a38565b6040519384526001600160a01b0316929081906020820190565b506113556113fd926113ce61131784601154612bc4565b6001600160a01b0385166000908152600f602052604090209216610a1b83546001600160781b039060081c1690565b611394565b61140b85612b59565b6112a9565b346105455760203660031901126105455760043561142d8161054a565b60018060a01b031660005260096020526020604060002054604051908152f35b3461054557600080600319360112610542576114ea9061148c7f00000000000000000000000000000000000000000000000000000000000000006142f3565b906114b67f00000000000000000000000000000000000000000000000000000000000000006143ed565b90604051916114c48361060a565b8183526114f8602091604051968796600f60f81b885260e08589015260e0880190610412565b908682036040880152610412565b904660608601523060808601528260a086015284820360c08601528080855193848152019401925b82811061152f57505050500390f35b835185528695509381019392810192600101611520565b34610545576000366003190112610545576000546040516001600160a01b039091168152602090f35b346105455760203660031901126105455760043561159e65ffffffffffff6115964361467a565b1682106134cd565b600d54906000826005811161161c575b50905b8282106115dd5782806115cb575060405160008152602090f35b610e1a610e1360209260001901613de7565b90916115e981846144aa565b908263ffffffff6115fc610e4685613de7565b16111561160c5750915b906115b1565b925061161790612bb6565b611606565b80610e8061162c929593956144bf565b908263ffffffff61163f610e4685613de7565b16111561164f5750915b386115ae565b925061165a90612bb6565b611649565b3461054557600036600319011261054557602061167b4361467a565b65ffffffffffff60405191168152f35b346105455760008060031936011261054257604051816006546116ad816122bb565b90818452602092600191828116908160001461052057506001146116db576104c3856104b78189038261065e565b929450600683527ff652222313e28459528d920b65115c16c04f3efc82aaedc97be59f3f377c0d3f5b82841061172157505050816104c3936104b79282010193386104a7565b8054858501870152928501928101611704565b67ffffffffffffffff81116105e95760051b60200190565b35906001600160801b038216820361054557565b3461054557602080600319360112610545576004359067ffffffffffffffff821161054557366023830112156105455781600401359161179f83611734565b916040936117af8551948561065e565b80845260248285019160061b8401019236841161054557602401905b8382106117db57610a7285612f22565b85823603126105455782869182516117f2816105cd565b6117fb8561174c565b815261180883860161174c565b838201528152019101906117cb565b34610545576020366003190112610545576004356118348161054a565b6001600160a01b03166000908152600c6020526040902080548061186057505060405160008152602090f35b602091611871916000190190612e5f565b5054811c610de6565b34610545576020806003193601126105455767ffffffffffffffff6004358181116105455736602382011215610545576118be9036906024816004013591016106b8565b916118c76133c6565b82519182116105e9576118e4826118df6013546122bb565b612cab565b80601f83116001146119525750819061191493600092611947575b50508160011b916000199060031b1c19161790565b6013555b611920612d0a565b7fd70c1392a974224e639e7a9607dcb2c766826aecfe2dc356f442ce0488b01e1f600080a2005b0151905038806118ff565b90601f19831693611973601360005260008051602061476183398151915290565b926000905b8682106119b25750508360019510611999575b505050811b01601355611918565b015160001960f88460031b161c1916905538808061198b565b80600185968294968601518155019501930190611978565b346105455760003660031901126105455760206040517f00000000000000000000000000000000000000000000000000000000000000008152f35b34610545576000366003190112610545576104c3604051611a25816105cd565b601681527505472616e63686556657374696e6753616c655f325f360541b6020820152604051918291602083526020830190610412565b3461054557604036600319011261054557600435611a798161054a565b336000526003602052611aa56024359160406000209060018060a01b0316600052602052604060002090565b54101561341e5760405162461bcd60e51b815260206004820152602560248201527f45524332303a2064656372656173656420616c6c6f77616e63652062656c6f77604482015264207a65726f60d81b6064820152608490fd5b34610545576020366003190112610545576020610753600435611b218161054a565b613328565b346105455760008060031936011261054257611b406133c6565b7f3b381fdfc0e2729a70e8b26ae2397e9014f703a8235b557f5581c4ed47280fd2602047610f26848080808560018060a01b03600154165af1610f20613357565b3461054557602036600319011261054557611b9d60043561054a565b6020601754604051908152f35b6064359060ff8216820361054557565b6084359060ff8216820361054557565b346105455760c036600319011261054557600435611be78161054a565b60443590602435611bf6611baa565b92804211611cb457611c86611caf91610a729560405190611c6e82611c606020820195898b8860609194939260808201957fe48329057bfd03d55e49b547132e39cffd9c1820ad7b9d4c5307691425d15adf835260018060a01b0316602083015260408201520152565b03601f19810184528361065e565b611c8160a43593608435935190206142cd565b613fda565b6001600160a01b0381166000908152600960205260409020805460018101909155909214613519565b613893565b60405162461bcd60e51b815260206004820152601d60248201527f4552433230566f7465733a207369676e617475726520657870697265640000006044820152606490fd5b34610545576000366003190112610545576014546040516001600160a01b039091168152602090f35b34610545576000366003190112610545576001546040516001600160a01b039091168152602090f35b34610545576020366003190112610545577f6c339c0bee516a4df5d7074ba7a974856d609f83666e915aa4a0f90e06989dc56020600435611d8a6133c6565b80601755604051908152a1005b3461054557606036600319011261054557600435611db48161054a565b60443567ffffffffffffffff811161054557602091611dda6107539236906004016106ef565b5060243590612e77565b346105455760e036600319011261054557600435611e018161054a565b60243590611e0e8261054a565b60643591611e1a611bba565b90834211611edf5761057793611ecc92611eb9611e528660018060a01b03166000526009602052604060002090815491600183019055565b611c606040519485926020840197604435908b8a91959493909260a09360c08401977f6e71edae12b1b97f4d1f60370fef10105fa2faae0126114a169c64845d6126c98552600180871b038092166020860152166040840152606083015260808201520152565b611c8160c4359360a435935190206142cd565b6001600160a01b0390811691161461345f565b60405162461bcd60e51b815260206004820152601d60248201527f45524332305065726d69743a206578706972656420646561646c696e650000006044820152606490fd5b3461054557602036600319011261054557600435611f40612ee4565b50601854811015611f8f57611f6b604091601860005260008051602061478183398151915201612efd565b611f8d82518092602090816001600160801b0391828151168552015116910152565bf35b612e49565b34610545576000806003193601126105425760185490611fb382611734565b91604091611fc38351948561065e565b818452601881526020938481019282600080516020614781833981519152855b83831061204e5750505050835194859481860192828752518093528086019493905b8382106120125786860387f35b91849650828661203e6001949698849851602090816001600160801b0391828151168552015116910152565b0196019201869594929391612005565b6001898192612062859c99989a9b9c612efd565b815201920192019190979695939497611fe3565b346105455760403660031901126105455760206120d06004356120988161054a565b602435906120a58261054a565b60018060a01b03166000526003835260406000209060018060a01b0316600052602052604060002090565b54604051908152f35b34610545576020366003190112610545577fccdd1baf560d2682736fa25752c8ccc0c5fc4079b245b0acf7389776308d5b1f60206004356121198161054a565b6121216133c6565b600180546001600160a01b0319166001600160a01b03929092169182179055604051908152a1005b34610545576000366003190112610545576020601254604051908152f35b34610545576020366003190112610545576104c36004356121878161054a565b60406000818051612197816105ee565b828152826020820152015260018060a01b038216600052600f60205280600020918151926121c4846105ee565b5460ff811615801585526001600160781b036020860192818160081c16845260801c1684860152612226575b5050519182918291909160406060820193805115158352816020820151916001600160781b038093166020860152015116910152565b6122356112ff612242936125e8565b6001600160781b03169052565b38806121f0565b34610545576040366003190112610545576004356122668161054a565b7ff4a44a7f605c4971a27bcecb448108e6328b7fad34fab5bff4f69377294b826d6020602435926122956133c6565b6001546001600160a01b0391906122b0908690841683613e11565b6040519485521692a2005b90600182811c921680156122eb575b60208310146122d557565b634e487b7160e01b600052602260045260246000fd5b91607f16916122ca565b34610545576000806003193601126105425760405181601354612317816122bb565b9081845260209260019182811690816000146105205750600114612345576104c3856104b78189038261065e565b929450601383526000805160206147618339815191525b82841061237957505050816104c3936104b79282010193386104a7565b805485850187015292850192810161235c565b34610545576040366003190112610545576004356123a98161054a565b63ffffffff6024358181168103610545576123e86123ee916040946123cc612ee4565b506001600160a01b03166000908152600c602052859020612e5f565b506134ab565b8251815190921682526020908101516001600160e01b031690820152f35b3461054557600036600319011261054557602060405160ff7f0000000000000000000000000000000000000000000000000000000000000000168152f35b34610545576020366003190112610545576004356124678161054a565b61246f6133c6565b6001600160a01b0390811680156124bd57600080546001600160a01b03198116831782559092167f8be0079c531659141344cd1fd0a4f28419497f9722a3daafe3b4186f6b6457e08380a380f35b60405162461bcd60e51b815260206004820152602660248201527f4f776e61626c653a206e6577206f776e657220697320746865207a65726f206160448201526564647265737360d01b6064820152608490fd5b34610545576000366003190112610545576015546040516001600160a01b039091168152602090f35b34610545576000366003190112610545576010546040516001600160a01b039091168152602090f35b3461054557600036600319011261054557602060405160058152f35b90816020910312610545575190565b6040513d6000823e3d90fd5b634e487b7160e01b600052601160045260246000fd5b81810292918115918404141715610d6757565b634e487b7160e01b600052601260045260246000fd5b81156125e3570490565b6125c3565b604051630998467560e31b81526001600160a01b03918216600482015290602090829060249082907f0000000000000000000000000000000000000000000000000000000000000000165afa908115610904576000916126aa575b5060ff7f00000000000000000000000000000000000000000000000000000000000000001690604d8211610d675761267e91600a0a906125b0565b7f00000000000000000000000000000000000000000000000000000000000000009081156125e3570490565b6126c2915060203d81116108fd576108ee818361065e565b38612643565b156126cf57565b60405162461bcd60e51b81526020600482015260126024820152711b9bc81c1d5c98da185cd95cc8199bdd5b9960721b6044820152606490fd5b6040516127158161060a565b60008152906000368137565b9060405161272e816105ee565b604081935460ff8116151583526001600160781b0390818160081c16602085015260801c16910152565b6001600160a01b0381166000908152600f602052604090205460ff16806127cb57506127a48161279e61278d610463946125e8565b91612796612709565b504290612e77565b906125b0565b7f0000000000000000000000000000000000000000000000000000000000000000906125d9565b15612853576001600160a01b0381166000908152600f602052604090206127f190612721565b9061283b604061282c6127a461281c61281460208801516001600160781b031690565b954290612e77565b6001600160781b038096166125b0565b9301516001600160781b031690565b1681811061284a575050600090565b61046391612a2b565b60405162461bcd60e51b815260206004820152602260248201527f4469737472696275746f723a20636c61696d206e6f7420696e697469616c697a604482015261195960f21b6064820152608490fd5b6001600160a01b0381166000908152600f602052604090205460ff81166128ce5750610463906125e8565b6001600160781b03915060081c1690565b6001600160781b038083116129b85761068d92166129716129256129158460018060a01b0316600052600f602052604060002090565b5460801c6001600160781b031690565b612954612930610680565b60018152916001600160781b03851660208401526001600160781b03166040830152565b6001600160a01b0384166000908152600f60205260409020612d95565b6040516001600160781b039190911681526001600160a01b038216907fdb598eb8e0a3d3d5c2e02e4cab1ee8b65bb20e48fc7b42f4c76272de4cdd243490602090a2612a38565b60405162461bcd60e51b815260206004820152602c60248201527f4469737472696275746f723a20746f74616c416d6f756e74203e20747970652860448201526b0ead2dce8626460525cdac2f60a31b6064820152608490fd5b6001600160781b039182169082160391908211610d6757565b91908203918211610d6757565b6001600160a01b038116600090815260026020908152604080832054600f909252909120909190612a6890612721565b6001600160781b03806020816040850151169301511680831015600014612ac95750505060005b80831115612aaa57612aa49061068d93612a2b565b906136ac565b808310612ab657505050565b61068d92612ac391612a2b565b906135ca565b612ae092612ad691612a12565b16601754906125b0565b7f00000000000000000000000000000000000000000000000000000000000000009081156125e35704612a8f565b15612b1557565b606460405162461bcd60e51b815260206004820152602060248201527f6d75737420696e697469616c697a65206265666f72652061646a757374696e676044820152fd5b600160ff1b8114610d675760000390565b15612b7157565b60405162461bcd60e51b815260206004820152601860248201527f61646a7573746d656e74203e206d61782075696e7431323000000000000000006044820152606490fd5b9060018201809211610d6757565b91908201809211610d6757565b9190916001600160781b0380809416911601918211610d6757565b15612bf357565b60405162461bcd60e51b815260206004820152602760248201527f64656372656173652067726561746572207468616e206469737472696275746f6044820152661c881d1bdd185b60ca1b6064820152608490fd5b15612c4f57565b60405162461bcd60e51b815260206004820152602e60248201527f64656372656173652067726561746572207468616e206469737472696275746960448201526d1bdb949958dbdc99081d1bdd185b60921b6064820152608490fd5b601f8111612cb7575050565b60009060138252600080516020614761833981519152906020601f850160051c83019410612d00575b601f0160051c01915b828110612cf557505050565b818155600101612ce9565b9092508290612ce0565b604051806000601354612d1c816122bb565b90600190818116908115612d7e5750600114612d3b575b505003902090565b601360009081529192506000805160206147618339815191525b838310612d685750505081013880612d33565b8054868401528594506020909201918101612d55565b60ff19168552505080151502820190503880612d33565b815181546020840151610100600160801b0360089190911b1691151560ff166fffffffffffffffffffffffffffffffff199091161717815561068d916001600160781b0390604001518254600160801b600160f81b031916911660801b600160801b600160f81b0316179055565b60207f47cee97cb7acd717b3c0aa1435d004cd5b3c8c57d70dbceb4e4458bbd60e39d49160018060a01b0390612e3e85828460105416613e11565b6040519485521692a2565b634e487b7160e01b600052603260045260246000fd5b8054821015611f8f5760005260206000200190600090565b612e8090613328565b6018805480805b612e95575050505050600090565b60001901838503858111610d675782821015611f8f5783600052816000805160206147818339815191520154906001600160801b03821610612ed8575080612e87565b94505050505060801c90565b60405190612ef1826105cd565b60006020838281520152565b90604051612f0a816105cd565b91546001600160801b038116835260801c6020830152565b90612f2b6133c6565b612f3782511515613095565b612f3f6130d5565b600080805b845182101561304a57612fd590602093612f8a612f83612f7787612f68888c613116565b5101516001600160801b031690565b6001600160801b031690565b151561312a565b612fbc612fa8612f9a868a613116565b51516001600160801b031690565b6001600160801b0380809416911611613176565b80612fcb86612f68878b613116565b92169116116131c2565b6001612ff2612fe7612f9a8488613116565b93612f688488613116565b916130066130008288613116565b5161321c565b604080516001600160801b0386811682528516602082015282917f5104929ca78e46ba25dca9557731ec873a03ae745d3ee194d262cc4820662a1c91a20190612f44565b91905061068d92935061306d63f48657006001600160801b038093161115613273565b167f0000000000000000000000000000000000000000000000000000000000000000146132d2565b1561309c57565b60405162461bcd60e51b81526020600482015260116024820152701d1c985b98da195cc81c995c5d5a5c9959607a1b6044820152606490fd5b601854600080601855816130e7575050565b60188152600080516020614781833981519152918201915b82811061310b57505050565b8181556001016130ff565b8051821015611f8f5760209160051b010190565b1561313157565b60405162461bcd60e51b815260206004820152601c60248201527f7472616e63686520766573746564206672616374696f6e203d3d2030000000006044820152606490fd5b1561317d57565b60405162461bcd60e51b815260206004820152601a60248201527f7472616e6368652074696d65206d75737420696e6372656173650000000000006044820152606490fd5b156131c957565b60405162461bcd60e51b815260206004820152602560248201527f7472616e63686520766573746564206672616374696f6e206d75737420696e63604482015264726561736560d81b6064820152608490fd5b60185490600160401b8210156105e9576001820180601855821015611f8f5760186000526001600160801b038151169060206001600160801b031991015160801b1617906000805160206147818339815191520155565b1561327a57565b60405162461bcd60e51b815260206004820152602a60248201527f76657374696e6720656e6473206166746572203431303234343438303020284a604482015269616e203120323130302960b01b6064820152608490fd5b156132d957565b60405162461bcd60e51b815260206004820152602160248201527f6c617374207472616e636865206d757374207665737420616c6c20746f6b656e6044820152607360f81b6064820152608490fd5b6014546001600160a01b039190821690811561334f57829081806016541691161816041690565b505050600090565b3d15613382573d906133688261069c565b91613376604051938461065e565b82523d6000602084013e565b606090565b1561338e57565b60405162461bcd60e51b815260206004820152601060248201526f2a3930b739b332b9103330b4b632b21760811b6044820152606490fd5b6000546001600160a01b031633036133da57565b606460405162461bcd60e51b815260206004820152602060248201527f4f776e61626c653a2063616c6c6572206973206e6f7420746865206f776e65726044820152fd5b60405162461bcd60e51b81526020600482015260196024820152783234b9b0b13632b2103337b9103b37ba34b733903837bbb2b960391b6044820152606490fd5b1561346657565b60405162461bcd60e51b815260206004820152601e60248201527f45524332305065726d69743a20696e76616c6964207369676e617475726500006044820152606490fd5b906040516134b8816105cd565b602081935463ffffffff81168352811c910152565b156134d457565b60405162461bcd60e51b815260206004820152601960248201527f4552433230566f7465733a20667574757265206c6f6f6b7570000000000000006044820152606490fd5b1561352057565b60405162461bcd60e51b815260206004820152601960248201527f4552433230566f7465733a20696e76616c6964206e6f6e6365000000000000006044820152606490fd5b1561356c57565b60405162461bcd60e51b815260206004820152603060248201527f4552433230566f7465733a20746f74616c20737570706c79207269736b73206f60448201526f766572666c6f77696e6720766f74657360801b6064820152608490fd5b906001600160a01b038216801561366757600454828101809111610d675761366393613648926135fa8593600455565b6001600160a01b0382166000908152600260209081526040808320805487019055518581527fddf252ad1be2c89b69c2b068fc378daa952ba7f163c4a11628f55a4df523b3ef9190a36137fa565b60045461365e906001600160e01b031015613565565b613be5565b5050565b60405162461bcd60e51b815260206004820152601f60248201527f45524332303a206d696e7420746f20746865207a65726f2061646472657373006044820152606490fd5b6001600160a01b03811691908215613754578181600061366395836136e661374f9660018060a01b03166000526002602052604060002090565b546136f3828210156137a3565b036137108460018060a01b03166000526002602052604060002090565b5561371e8460045403600455565b6040518481527fddf252ad1be2c89b69c2b068fc378daa952ba7f163c4a11628f55a4df523b3ef90602090a3613845565b613cd5565b60405162461bcd60e51b815260206004820152602160248201527f45524332303a206275726e2066726f6d20746865207a65726f206164647265736044820152607360f81b6064820152608490fd5b156137aa57565b60405162461bcd60e51b815260206004820152602260248201527f45524332303a206275726e20616d6f756e7420657863656564732062616c616e604482015261636560f01b6064820152608490fd5b600b6020527fdf7de25b7f1fd6d0b5205f0e18f1f35bd7b8d84cce336588d184533ce43a6f76546001600160a01b039182166000908152604090205461068d93929081169116613908565b6001600160a01b039081166000908152600b60205260408120549080527fdf7de25b7f1fd6d0b5205f0e18f1f35bd7b8d84cce336588d184533ce43a6f765461068d93929081169116613908565b61068d9160018060a01b03809216600092818452600b60205280604085205416809260026020527f3134e8a2e6d97e929a7e54011ea5485d7d196dd5f0ba4d4ef95803e8e3fc257f604087205496600b6020526040812094871694856bffffffffffffffffffffffff60a01b82541617905580a45b6001600160a01b03808316939291168084141580613b1b575b61392c575b50505050565b8061399a575b508261393f575b80613926565b6001600160a01b03166000908152600c602052604090207fdec2bacdd2f05b59de34da9b523dff8be42e5e38e818c82fdb0bae774387a7249161398191613d2e565b60408051928352602083019190915290a2388080613939565b80600052600c6020527fdec2bacdd2f05b59de34da9b523dff8be42e5e38e818c82fdb0bae774387a7246040600020805480159182600014613af8576139de61068f565b6000815260006020820152915b6020830151613a0a906001600160e01b03165b6001600160e01b031690565b92613a158985614746565b94159081613ad5575b5015613a7357613a46613a5d92613a3486614611565b92600019019060005260206000200190565b9063ffffffff82549181199060201b169116179055565b604080519182526020820192909252a238613932565b50613ad090613a97613a92613a874361467a565b65ffffffffffff1690565b6146e1565b90613acb613aa486614611565b613abb613aaf61068f565b63ffffffff9095168552565b6001600160e01b03166020840152565b613b8b565b613a5d565b5163ffffffff16905063ffffffff613aef613a874361467a565b91161438613a1e565b613b15613b1060001984018360005260206000200190565b6134ab565b916139eb565b50821515613921565b600d5490600160401b8210156105e9576001820180600d55821015611f8f57600d600052805160209182015190911b63ffffffff191663ffffffff91909116177fd7b6990105719101dabeb77144f2a3385c8033acd3af97e9423a695e81ad1eb590910155565b8054600160401b8110156105e957613ba891600182018155612e5f565b613bcf57815160209283015190921b63ffffffff191663ffffffff92909216919091179055565b634e487b7160e01b600052600060045260246000fd5b600d5490918115918215613cc057613bfb61068f565b60008152600060208201525b6020810151613c2990613c22906001600160e01b03166139fe565b9586614753565b93159081613c9d575b5015613c525761068d90613a46613c4885614611565b9160001901613de7565b5061068d613c65613a92613a874361467a565b613c98613c7185614611565b613c88613c7c61068f565b63ffffffff9094168452565b6001600160e01b03166020830152565b613b24565b5163ffffffff16905063ffffffff613cb7613a874361467a565b91161438613c32565b613cd0613b106000198301613de7565b613c07565b600d5490918115918215613d1957613ceb61068f565b60008152600060208201525b6020810151613c2990613d12906001600160e01b03166139fe565b9586614746565b613d29613b106000198301613de7565b613cf7565b909181549182159283600014613dca57613d4661068f565b60008152600060208201525b6020810151613d7490613d6d906001600160e01b03166139fe565b9687614753565b94159081613da7575b5015613d9357613a4661068d92613a3486614611565b5061068d90613a97613a92613a874361467a565b5163ffffffff16905063ffffffff613dc1613a874361467a565b91161438613d7d565b613de2613b1060001983018460005260206000200190565b613d52565b600d6000527fd7b6990105719101dabeb77144f2a3385c8033acd3af97e9423a695e81ad1eb50190565b60405163a9059cbb60e01b602082019081526001600160a01b039384166024830152604480830195909552938152613ea0929091613e4e83610626565b1660405191613e5c836105cd565b602083527f5361666545524332303a206c6f772d6c6576656c2063616c6c206661696c65646020840152600080958192519082855af1613e9a613357565b91613f45565b8051908115918215613eb9575b505061068d9150613ee6565b8192509060209181010312613ee25760200151908115158203610542575061068d903880613ead565b5080fd5b15613eed57565b60405162461bcd60e51b815260206004820152602a60248201527f5361666545524332303a204552433230206f7065726174696f6e20646964206e6044820152691bdd081cdd58d8d9595960b21b6064820152608490fd5b91929015613fa75750815115613f59575090565b3b15613f625790565b60405162461bcd60e51b815260206004820152601d60248201527f416464726573733a2063616c6c20746f206e6f6e2d636f6e74726163740000006044820152606490fd5b825190915015613fba5750805190602001fd5b60405162461bcd60e51b8152908190613fd69060048301610452565b0390fd5b916104639391613fe993614131565b919091614011565b60051115613ffb57565b634e487b7160e01b600052602160045260246000fd5b61401a81613ff1565b806140225750565b61402b81613ff1565b600181036140785760405162461bcd60e51b815260206004820152601860248201527f45434453413a20696e76616c6964207369676e617475726500000000000000006044820152606490fd5b61408181613ff1565b600281036140ce5760405162461bcd60e51b815260206004820152601f60248201527f45434453413a20696e76616c6964207369676e6174757265206c656e677468006044820152606490fd5b806140da600392613ff1565b146140e157565b60405162461bcd60e51b815260206004820152602260248201527f45434453413a20696e76616c6964207369676e6174757265202773272076616c604482015261756560f01b6064820152608490fd5b9291907f7fffffffffffffffffffffffffffffff5d576e7357a4501ddfe92f46681b20a083116141a75791608094939160ff602094604051948552168484015260408301526060820152600093849182805260015afa156109045781516001600160a01b038116156141a1579190565b50600190565b50505050600090600390565b307f00000000000000000000000000000000000000000000000000000000000000006001600160a01b031614806142a4575b1561420e577f000000000000000000000000000000000000000000000000000000000000000090565b60405160208101907f8b73c3c69bb8fe3d512ecc4cf759cc79239f7b179b0ffacaa9a75d522b39400f82527f000000000000000000000000000000000000000000000000000000000000000060408201527f000000000000000000000000000000000000000000000000000000000000000060608201524660808201523060a082015260a0815261429e81610642565b51902090565b507f000000000000000000000000000000000000000000000000000000000000000046146141e5565b6042906142d86141b3565b906040519161190160f01b8352600283015260228201522090565b60ff81146143315760ff811690601f821161431f5760405191614315836105cd565b8252602082015290565b604051632cd44ac360e21b8152600490fd5b50604051600754816000614344836122bb565b8083526020936001908181169081156143cd575060011461436e575b50506104639250038261065e565b9093915060076000527fa66cc928b5edb82af9bd49922954155ab7b0942694bea4ce44661d9a8736c688936000915b8183106143b557505061046393508201013880614360565b8554878401850152948501948694509183019161439d565b91505061046394925060ff191682840152151560051b8201013880614360565b60ff811461440f5760ff811690601f821161431f5760405191614315836105cd565b50604051600854816000614422836122bb565b8083526020936001908181169081156143cd575060011461444b5750506104639250038261065e565b9093915060086000527ff3f7a9fe364faab93b216da50a3214154f22a0a2b415b23a84c8169e8b636ee3936000915b81831061449257505061046393508201013880614360565b8554878401850152948501948694509183019161447a565b90808216911860011c8101809111610d675790565b80156145f9578061459261458b61458161457761456d61456361455961454f60016104639a6000908b60801c806145ed575b508060401c806145e0575b508060201c806145d3575b508060101c806145c6575b508060081c806145b9575b508060041c806145ac575b508060021c8061459f575b50821c614598575b811c1b614548818b6125d9565b0160011c90565b614548818a6125d9565b61454881896125d9565b61454881886125d9565b61454881876125d9565b61454881866125d9565b61454881856125d9565b80926125d9565b906145ff565b810161453b565b6002915091019038614533565b6004915091019038614528565b600891509101903861451d565b6010915091019038614512565b6020915091019038614507565b60409150910190386144fc565b915050608090386144f1565b50600090565b908082101561460c575090565b905090565b6001600160e01b0390818111614625571690565b60405162461bcd60e51b815260206004820152602760248201527f53616665436173743a2076616c756520646f65736e27742066697420696e20326044820152663234206269747360c81b6064820152608490fd5b65ffffffffffff9081811161468d571690565b60405162461bcd60e51b815260206004820152602660248201527f53616665436173743a2076616c756520646f65736e27742066697420696e203460448201526538206269747360d01b6064820152608490fd5b63ffffffff908181116146f2571690565b60405162461bcd60e51b815260206004820152602660248201527f53616665436173743a2076616c756520646f65736e27742066697420696e203360448201526532206269747360d01b6064820152608490fd5b908103908111610d675790565b908101809111610d67579056fe66de8ffda797e3de9c05e8fc57b3bf0ec28a930d40b0d285d93c06501cf6a090b13d2d76d1f4b7be834882e410b3e3a8afaf69f83600ae24db354391d2378d2ea2646970667358221220865846152b6e0a99f776e518f111baee4c114afb0aa8e76793fc018e307350a764736f6c63430008150033433127dedcff849792656a12f4a9dbc0efeb80df5cce6310f53481a93cd71c7166de8ffda797e3de9c05e8fc57b3bf0ec28a930d40b0d285d93c06501cf6a090f652222313e28459528d920b65115c16c04f3efc82aaedc97be59f3f377c0d3f","linkReferences":{}},"methodIdentifiers":{"CLOCK_MODE()":"4bf5d7e9","DOMAIN_SEPARATOR()":"3644e515","NAME()":"a3f4df7e","VERSION()":"ffa1ad74","adjust(address,int256)":"75aa9bc6","allowance(address,address)":"dd62ed3e","approve(address,uint256)":"095ea7b3","balanceOf(address)":"70a08231","checkpoints(address,uint32)":"f1127ed8","claim(address)":"1e83409a","claimed()":"e834a834","clock()":"91ddadf4","decimals()":"313ce567","decreaseAllowance(address,uint256)":"a457c2d7","delegate(address)":"5c19a95c","delegateBySig(address,uint256,uint256,uint8,bytes32,bytes32)":"c3cda520","delegates(address)":"587cde1e","distancePerSecond()":"c6e8d982","eip712Domain()":"84b0196e","getClaimableAmount(address,bytes)":"13c67ce5","getDistributionRecord(address)":"e85858d9","getFairDelayTime(address)":"a4ef1f78","getFractionDenominator()":"0f56b96c","getPastTotalSupply(uint256)":"8e539e8c","getPastVotes(address,uint256)":"3a46b1a8","getPurchasedAmount(address)":"24285762","getSweepRecipient()":"c78d5985","getTotalVotes()":"9a0e7d66","getTranche(uint256)":"d972e8ad","getTranches()":"dc2f511b","getVestedFraction(address,uint256,bytes)":"d3d0ec89","getVoteFactor(address)":"bb22dccb","getVotes(address)":"9ab24eb0","increaseAllowance(address,uint256)":"39509351","initializeDistributionRecord(address)":"44b3c204","maxDelayTime()":"f56c8547","name()":"06fdde03","nonces(address)":"7ecebe00","numCheckpoints(address)":"6fcfff45","owner()":"8da5cb5b","permit(address,address,uint256,uint256,uint8,bytes32,bytes32)":"d505accf","price()":"a035b1fe","randomValue()":"276801ec","renounceOwnership()":"715018a6","sale()":"6ad1fe02","setSweepRecipient(address)":"de032f58","setToken(address)":"144fa6d7","setTotal(uint256)":"1f8d1d50","setTranches((uint128,uint128)[])":"9691cab5","setUri(string)":"9b642de1","setVoteFactor(uint256)":"c9557255","soldTokenDecimals()":"f2d5c0ff","sweepNative()":"ab803a76","sweepNative(uint256)":"3cf3a025","sweepToken(address)":"1be19560","sweepToken(address,uint256)":"e90a182f","symbol()":"95d89b41","token()":"fc0c546a","total()":"2ddbd13a","totalSupply()":"18160ddd","transfer(address,uint256)":"a9059cbb","transferFrom(address,address,uint256)":"23b872dd","transferOwnership(address)":"f2fde38b","uri()":"eac989f8"},"id":6}