{"abi":[{"type":"constructor","inputs":[],"stateMutability":"nonpayable"},{"type":"function","name":"ADMIN_ROLE","inputs":[],"outputs":[{"name":"","type":"bytes32","internalType":"bytes32"}],"stateMutability":"view"},{"type":"function","name":"DEFAULT_ADMIN_ROLE","inputs":[],"outputs":[{"name":"","type":"bytes32","internalType":"bytes32"}],"stateMutability":"view"},{"type":"function","name":"addAdmin","inputs":[{"name":"admin","type":"address","internalType":"address"}],"outputs":[],"stateMutability":"nonpayable"},{"type":"function","name":"getRoleAdmin","inputs":[{"name":"role","type":"bytes32","internalType":"bytes32"}],"outputs":[{"name":"","type":"bytes32","internalType":"bytes32"}],"stateMutability":"view"},{"type":"function","name":"grantRole","inputs":[{"name":"role","type":"bytes32","internalType":"bytes32"},{"name":"account","type":"address","internalType":"address"}],"outputs":[],"stateMutability":"nonpayable"},{"type":"function","name":"hasRole","inputs":[{"name":"role","type":"bytes32","internalType":"bytes32"},{"name":"account","type":"address","internalType":"address"}],"outputs":[{"name":"","type":"bool","internalType":"bool"}],"stateMutability":"view"},{"type":"function","name":"owner","inputs":[],"outputs":[{"name":"","type":"address","internalType":"address"}],"stateMutability":"view"},{"type":"function","name":"register","inputs":[{"name":"addressRegistered","type":"address","internalType":"address"},{"name":"interfaceIds","type":"bytes4[]","internalType":"bytes4[]"}],"outputs":[],"stateMutability":"nonpayable"},{"type":"function","name":"removeAdmin","inputs":[{"name":"admin","type":"address","internalType":"address"}],"outputs":[],"stateMutability":"nonpayable"},{"type":"function","name":"renounceOwnership","inputs":[],"outputs":[],"stateMutability":"nonpayable"},{"type":"function","name":"renounceRole","inputs":[{"name":"role","type":"bytes32","internalType":"bytes32"},{"name":"account","type":"address","internalType":"address"}],"outputs":[],"stateMutability":"nonpayable"},{"type":"function","name":"revokeRole","inputs":[{"name":"role","type":"bytes32","internalType":"bytes32"},{"name":"account","type":"address","internalType":"address"}],"outputs":[],"stateMutability":"nonpayable"},{"type":"function","name":"supportsInterface","inputs":[{"name":"interfaceId","type":"bytes4","internalType":"bytes4"}],"outputs":[{"name":"","type":"bool","internalType":"bool"}],"stateMutability":"view"},{"type":"function","name":"targetSupportsInterface","inputs":[{"name":"target","type":"address","internalType":"address"},{"name":"interfaceId","type":"bytes4","internalType":"bytes4"}],"outputs":[{"name":"","type":"bool","internalType":"bool"}],"stateMutability":"view"},{"type":"function","name":"transferOwnership","inputs":[{"name":"newOwner","type":"address","internalType":"address"}],"outputs":[],"stateMutability":"nonpayable"},{"type":"function","name":"unregister","inputs":[{"name":"addressUnregistered","type":"address","internalType":"address"},{"name":"interfaceIds","type":"bytes4[]","internalType":"bytes4[]"}],"outputs":[],"stateMutability":"nonpayable"},{"type":"event","name":"DeployRegistry","inputs":[],"anonymous":false},{"type":"event","name":"OwnershipTransferred","inputs":[{"name":"previousOwner","type":"address","indexed":true,"internalType":"address"},{"name":"newOwner","type":"address","indexed":true,"internalType":"address"}],"anonymous":false},{"type":"event","name":"Register","inputs":[{"name":"addressRegistered","type":"address","indexed":true,"internalType":"address"},{"name":"interfaceIds","type":"bytes4[]","indexed":false,"internalType":"bytes4[]"},{"name":"registeredBy","type":"address","indexed":false,"internalType":"address"}],"anonymous":false},{"type":"event","name":"RoleAdminChanged","inputs":[{"name":"role","type":"bytes32","indexed":true,"internalType":"bytes32"},{"name":"previousAdminRole","type":"bytes32","indexed":true,"internalType":"bytes32"},{"name":"newAdminRole","type":"bytes32","indexed":true,"internalType":"bytes32"}],"anonymous":false},{"type":"event","name":"RoleGranted","inputs":[{"name":"role","type":"bytes32","indexed":true,"internalType":"bytes32"},{"name":"account","type":"address","indexed":true,"internalType":"address"},{"name":"sender","type":"address","indexed":true,"internalType":"address"}],"anonymous":false},{"type":"event","name":"RoleRevoked","inputs":[{"name":"role","type":"bytes32","indexed":true,"internalType":"bytes32"},{"name":"account","type":"address","indexed":true,"internalType":"address"},{"name":"sender","type":"address","indexed":true,"internalType":"address"}],"anonymous":false},{"type":"event","name":"Unregister","inputs":[{"name":"addressUnregistered","type":"address","indexed":true,"internalType":"address"},{"name":"interfaceIds","type":"bytes4[]","indexed":false,"internalType":"bytes4[]"},{"name":"unregisteredBy","type":"address","indexed":false,"internalType":"address"}],"anonymous":false}],"bytecode":{"object":"0x6080806040523461007e5760018054336001600160a01b0319821681179092556001600160a01b03167f8be0079c531659141344cd1fd0a4f28419497f9722a3daafe3b4186f6b6457e0600080a37f23e3485b9b3a753e0fb9855b5da73c634992a2f49a6ae49662aacc620dca4ed6600080a1610ea490816100848239f35b600080fdfe6080604081815260048036101561001557600080fd5b600092833560e01c90816301ffc9a71461073e575080631785f53c1461069b578063248a9ca3146106725780632f2ff15d1461061457806336568abe146105825780635c5a269a146104cf5780637048027514610428578063715018a6146103c857806375b238fc1461039f5780638da5cb5b1461037657806391d148541461033157806398e84680146102d1578063a217fddf146102b6578063d547741f14610279578063e559e420146101a15763f2fde38b146100d357600080fd5b3461019d57602036600319011261019d576100ec610792565b906100f5610cd6565b6001600160a01b0391821692831561014b575050600154826bffffffffffffffffffffffff60a01b821617600155167f8be0079c531659141344cd1fd0a4f28419497f9722a3daafe3b4186f6b6457e08380a380f35b906020608492519162461bcd60e51b8352820152602660248201527f4f776e61626c653a206e6577206f776e657220697320746865207a65726f206160448201526564647265737360d01b6064820152fd5b8280fd5b50829034610275576101b2366107c3565b926101be9291926108c0565b83805b6102095750506102037f64fa3fc4b9f2176bcce2c8b9156f1dfa1deafdb316a3b0fbe796556c482f2dee9394955192839260018060a01b03169533918461085e565b0390a280f35b6001600160a01b0383168652600260209081528787206000198301929091908311610262576001600160e01b031961024a610245858a8a610823565b610849565b16885252868620805460ff19166001179055806101c1565b634e487b7160e01b885260118452602488fd5b5080fd5b50903461019d578060031936011261019d576102b391356102ae600161029d6107ad565b938387528660205286200154610ae0565b610c62565b80f35b50503461027557816003193601126102755751908152602090f35b5050346102755780600319360112610275576102eb610792565b6024359063ffffffff60e01b821680920361032d576001600160a01b03168352600260209081528284209184529081529181902054905160ff90911615158152f35b8380fd5b503461019d578160031936011261019d578160209360ff926103516107ad565b903582528186528282206001600160a01b039091168252855220549151911615158152f35b50503461027557816003193601126102755760015490516001600160a01b039091168152602090f35b50503461027557816003193601126102755760209051600080516020610e4f8339815191528152f35b83346104255780600319360112610425576103e1610cd6565b600180546001600160a01b0319811690915581906001600160a01b03167f8be0079c531659141344cd1fd0a4f28419497f9722a3daafe3b4186f6b6457e08280a380f35b80fd5b50503461027557602036600319011261027557610443610792565b61044b610cd6565b600080516020610e4f83398151915291828452836020528084209160018060a01b03169182855260205260ff818520541615610485578380f35b828452836020528084208285526020528320600160ff1982541617905533917f2f8788117e7eff1d82e926ec794901d17c78024a50270940304540a733656f0d8480a43880808380f35b50829034610275576104e0366107c3565b926104ec9291926108c0565b83805b6105315750506102037f0bcb3f274869f37c93d17d9843dbd5c5e0529fb902ae1b91c6a91b2f3178bb749394955192839260018060a01b03169533918461085e565b6001600160a01b0383168652600260209081528787206000198301929091908311610262576001600160e01b031961056d610245858a8a610823565b16885252868620805460ff19169055806104ef565b5082903461027557826003193601126102755761059d6107ad565b90336001600160a01b038316036105b957906102b39135610c62565b608490602085519162461bcd60e51b8352820152602f60248201527f416363657373436f6e74726f6c3a2063616e206f6e6c792072656e6f756e636560448201526e103937b632b9903337b91039b2b63360891b6064820152fd5b503461019d578160031936011261019d57359061062f6107ad565b908284528360205261064660018286200154610ae0565b82845260208481528185206001600160a01b039093168086529290528084205460ff1615610485578380f35b503461019d57602036600319011261019d57816020936001923581528085522001549051908152f35b505034610275576020366003190112610275576106b6610792565b6106be610cd6565b600080516020610e4f83398151915291828452836020528084209160018060a01b03169182855260205260ff81852054166106f7578380f35b82845283602052808420828552602052832060ff19815416905533917ff6391f5c32d9c69d2a47ea670b442974b53935d1edc7fd64eb21e047a839171b8480a43880808380f35b9250503461019d57602036600319011261019d573563ffffffff60e01b811680910361019d5760209250637965db0b60e01b8114908115610781575b5015158152f35b6301ffc9a760e01b1490503861077a565b600435906001600160a01b03821682036107a857565b600080fd5b602435906001600160a01b03821682036107a857565b60406003198201126107a8576004356001600160a01b03811681036107a8579160243567ffffffffffffffff928382116107a857806023830112156107a85781600401359384116107a85760248460051b830101116107a8576024019190565b91908110156108335760051b0190565b634e487b7160e01b600052603260045260246000fd5b356001600160e01b0319811681036107a85790565b60408082528101839052929392916060830190600090815b81811061089257505050602091509360018060a01b0316910152565b909192843563ffffffff60e01b81168091036108bc57815260209485019401929190600101610876565b8480fd5b3360009081527f7d7ffb7a348e1c6a02869081a26547b49160dd3df72d1d75a570eb9b698292ec602090815260408083205490929190600080516020610e4f8339815191529060ff16156109145750505050565b61091d33610d3f565b9084519061092a82610c0e565b60428252838201946060368737825115610acc5760308653825190600191821015610acc5790607860218501536041915b818311610a5e57505050610a1c57846109ea6048610a0e9360449798519889916109db8984019876020b1b1b2b9b9a1b7b73a3937b61d1030b1b1b7bab73a1604d1b8a526109b2815180928d603789019101610beb565b8401917001034b99036b4b9b9b4b733903937b6329607d1b603784015251809386840190610beb565b01036028810189520187610c40565b5194859362461bcd60e51b8552600485015251809281602486015285850190610beb565b601f01601f19168101030190fd5b60648386519062461bcd60e51b825280600483015260248201527f537472696e67733a20686578206c656e67746820696e73756666696369656e746044820152fd5b909192600f81166010811015610ab8576f181899199a1a9b1b9c1cb0b131b232b360811b901a610a8e8587610d2e565b5360041c928015610aa45760001901919061095b565b634e487b7160e01b82526011600452602482fd5b634e487b7160e01b83526032600452602483fd5b634e487b7160e01b81526032600452602490fd5b60008181526020818152604092838320338452825260ff848420541615610b075750505050565b610b1033610d3f565b90845190610b1d82610c0e565b60428252838201946060368737825115610acc5760308653825190600191821015610acc5790607860218501536041915b818311610ba557505050610a1c57846109ea6048610a0e9360449798519889916109db8984019876020b1b1b2b9b9a1b7b73a3937b61d1030b1b1b7bab73a1604d1b8a526109b2815180928d603789019101610beb565b909192600f81166010811015610ab8576f181899199a1a9b1b9c1cb0b131b232b360811b901a610bd58587610d2e565b5360041c928015610aa457600019019190610b4e565b60005b838110610bfe5750506000910152565b8181015183820152602001610bee565b6080810190811067ffffffffffffffff821117610c2a57604052565b634e487b7160e01b600052604160045260246000fd5b90601f8019910116810190811067ffffffffffffffff821117610c2a57604052565b9060009180835282602052604083209160018060a01b03169182845260205260ff604084205416610c9257505050565b80835282602052604083208284526020526040832060ff1981541690557ff6391f5c32d9c69d2a47ea670b442974b53935d1edc7fd64eb21e047a839171b339380a4565b6001546001600160a01b03163303610cea57565b606460405162461bcd60e51b815260206004820152602060248201527f4f776e61626c653a2063616c6c6572206973206e6f7420746865206f776e65726044820152fd5b908151811015610833570160200190565b604051906060820182811067ffffffffffffffff821117610c2a57604052602a82526020820160403682378251156108335760309053815160019081101561083357607860218401536029905b808211610de0575050610d9c5790565b606460405162461bcd60e51b815260206004820152602060248201527f537472696e67733a20686578206c656e67746820696e73756666696369656e746044820152fd5b9091600f81166010811015610e39576f181899199a1a9b1b9c1cb0b131b232b360811b901a610e0f8486610d2e565b5360041c918015610e24576000190190610d8c565b60246000634e487b7160e01b81526011600452fd5b60246000634e487b7160e01b81526032600452fdfea49807205ce4d355092ef5a8a18f56e8913cf4a201fbe287825b095693c21775a2646970667358221220889c8e3fff3355348a8128dde4681f26e594c8eaafe17ecfe6caf24a2524029e64736f6c63430008150033","linkReferences":{}},"methodIdentifiers":{"ADMIN_ROLE()":"75b238fc","DEFAULT_ADMIN_ROLE()":"a217fddf","addAdmin(address)":"70480275","getRoleAdmin(bytes32)":"248a9ca3","grantRole(bytes32,address)":"2f2ff15d","hasRole(bytes32,address)":"91d14854","owner()":"8da5cb5b","register(address,bytes4[])":"e559e420","removeAdmin(address)":"1785f53c","renounceOwnership()":"715018a6","renounceRole(bytes32,address)":"36568abe","revokeRole(bytes32,address)":"d547741f","supportsInterface(bytes4)":"01ffc9a7","targetSupportsInterface(address,bytes4)":"98e84680","transferOwnership(address)":"f2fde38b","unregister(address,bytes4[])":"5c5a269a"},"id":23}