{"abi":[{"type":"constructor","inputs":[{"name":"_answer","type":"int256","internalType":"int256"},{"name":"_oracleDescription","type":"string","internalType":"string"}],"stateMutability":"nonpayable"},{"type":"function","name":"decimals","inputs":[],"outputs":[{"name":"","type":"uint8","internalType":"uint8"}],"stateMutability":"pure"},{"type":"function","name":"description","inputs":[],"outputs":[{"name":"","type":"string","internalType":"string"}],"stateMutability":"view"},{"type":"function","name":"getAnswer","inputs":[{"name":"","type":"uint256","internalType":"uint256"}],"outputs":[{"name":"","type":"int256","internalType":"int256"}],"stateMutability":"view"},{"type":"function","name":"getRoundData","inputs":[{"name":"","type":"uint80","internalType":"uint80"}],"outputs":[{"name":"roundId","type":"uint80","internalType":"uint80"},{"name":"","type":"int256","internalType":"int256"},{"name":"","type":"uint256","internalType":"uint256"},{"name":"","type":"uint256","internalType":"uint256"},{"name":"answeredInRound","type":"uint80","internalType":"uint80"}],"stateMutability":"view"},{"type":"function","name":"getTimestamp","inputs":[{"name":"","type":"uint256","internalType":"uint256"}],"outputs":[{"name":"","type":"uint256","internalType":"uint256"}],"stateMutability":"view"},{"type":"function","name":"latestAnswer","inputs":[],"outputs":[{"name":"","type":"int256","internalType":"int256"}],"stateMutability":"view"},{"type":"function","name":"latestRound","inputs":[],"outputs":[{"name":"","type":"uint256","internalType":"uint256"}],"stateMutability":"pure"},{"type":"function","name":"latestRoundData","inputs":[],"outputs":[{"name":"roundId","type":"uint80","internalType":"uint80"},{"name":"","type":"int256","internalType":"int256"},{"name":"","type":"uint256","internalType":"uint256"},{"name":"","type":"uint256","internalType":"uint256"},{"name":"answeredInRound","type":"uint80","internalType":"uint80"}],"stateMutability":"view"},{"type":"function","name":"latestTimestamp","inputs":[],"outputs":[{"name":"","type":"uint256","internalType":"uint256"}],"stateMutability":"view"},{"type":"function","name":"setAnswer","inputs":[{"name":"_answer","type":"int256","internalType":"int256"}],"outputs":[],"stateMutability":"nonpayable"},{"type":"function","name":"version","inputs":[],"outputs":[{"name":"","type":"uint256","internalType":"uint256"}],"stateMutability":"pure"},{"type":"event","name":"AnswerUpdated","inputs":[{"name":"current","type":"int256","indexed":true,"internalType":"int256"},{"name":"roundId","type":"uint256","indexed":true,"internalType":"uint256"},{"name":"updatedAt","type":"uint256","indexed":false,"internalType":"uint256"}],"anonymous":false},{"type":"event","name":"NewRound","inputs":[{"name":"roundId","type":"uint256","indexed":true,"internalType":"uint256"},{"name":"startedBy","type":"address","indexed":true,"internalType":"address"},{"name":"startedAt","type":"uint256","indexed":false,"internalType":"uint256"}],"anonymous":false}],"bytecode":{"object":"0x608060405234610203576106148038038061001981610208565b92833981019060408183031261020357805160208083015190926001600160401b03929190838211610203570192601f918583860112156102035784518481116101d957601f199561007082860188168501610208565b9782895284838301011161020357839060005b8381106101ef575050600091880101526364e665288060025560035560005584519283116101d95760019384548581811c911680156101cf575b838210146101b957838111610173575b5081928411600114610114575050819293600092610109575b5050600019600383901b1c191690821b1790555b6040516103e6908161022e8239f35b0151905038806100e6565b6000858152828120918516969193925b87821061015c57505083859610610143575b505050811b0190556100fa565b015160001960f88460031b161c19169055388080610136565b808785968294968601518155019501930190610124565b85600052826000208480870160051c8201928588106101b0575b0160051c019086905b8281106101a45750506100cd565b60008155018690610196565b9250819261018d565b634e487b7160e01b600052602260045260246000fd5b90607f16906100bd565b634e487b7160e01b600052604160045260246000fd5b8181018301518a8201840152859201610083565b600080fd5b6040519190601f01601f191682016001600160401b038111838210176101d95760405256fe6080604090808252600436101561001557600080fd5b600090813560e01c908163313ce567146103975750806350d25bcd1461037a57806354fd4d501461035e578063668a0f021461033a5780637284e416146101d75780638205bf6a146101b857806399213cd8146101965780639a6fc8f514610132578063b5ab58dc14610114578063b633620c146100f05763feaf968c1461009c57600080fd5b346100ed57806003193601126100ed57546100e96002549260035490519384938460809192949360a08201956801000000000000020b948584526020840152604083015260608201520152565b0390f35b80fd5b509034610110576020366003190112610110576020906002549051908152f35b5080fd5b50903461011057602036600319011261011057602091549051908152f35b50346100ed5760203660031901126100ed5760043569ffffffffffffffffffff8116036100ed57546100e96002549260035490519384938460809192949360a08201956801000000000000020b948584526020840152604083015260608201520152565b50346100ed5760203660031901126100ed576004358155426002554260035580f35b5090346101105781600319360112610110576020906002549051908152f35b50346100ed57806003193601126100ed57815191819260019283549485851c94808716968715610330575b602097888810811461031c5787865288929181156102fd57506001146102a8575b505082939450601f801994859203011682019482861067ffffffffffffffff8711176102945785929391838652818452845191828186015281955b83871061027c5750508394508582601f949501015201168101030190f35b8681018201518988018901529581019588955061025e565b634e487b7160e01b82526041600452602482fd5b80845290915082907fb10e2d527612073b26eecdfd717e6a320cf44b4afac2b0732d9fcbe2b7fa0cf65b8783106102ea57509495508594508301018538610223565b80548684018501529183019181016102d2565b60ff191683870152509495869550151560051b84010190508538610223565b634e487b7160e01b85526022600452602485fd5b95607f1695610202565b509034610110578160031936011261011057602090516801000000000000020b8152f35b5090346101105781600319360112610110576020905160018152f35b509034610110578160031936011261011057602091549051908152f35b9050346101105781600319360112610110576020918152f3fea26469706673582212205f90bc66cf4872eefcb3a7f9b44004466b1371649a2e1d9de9f267df9541f9a464736f6c63430008150033","linkReferences":{}},"methodIdentifiers":{"decimals()":"313ce567","description()":"7284e416","getAnswer(uint256)":"b5ab58dc","getRoundData(uint80)":"9a6fc8f5","getTimestamp(uint256)":"b633620c","latestAnswer()":"50d25bcd","latestRound()":"668a0f02","latestRoundData()":"feaf968c","latestTimestamp()":"8205bf6a","setAnswer(int256)":"99213cd8","version()":"54fd4d50"},"id":37}