{"abi":[{"type":"constructor","inputs":[],"stateMutability":"nonpayable"},{"type":"function","name":"CLOCK_MODE","inputs":[],"outputs":[{"name":"","type":"string","internalType":"string"}],"stateMutability":"view"},{"type":"function","name":"DOMAIN_SEPARATOR","inputs":[],"outputs":[{"name":"","type":"bytes32","internalType":"bytes32"}],"stateMutability":"view"},{"type":"function","name":"NAME","inputs":[],"outputs":[{"name":"","type":"string","internalType":"string"}],"stateMutability":"pure"},{"type":"function","name":"VERSION","inputs":[],"outputs":[{"name":"","type":"uint256","internalType":"uint256"}],"stateMutability":"pure"},{"type":"function","name":"adjust","inputs":[{"name":"beneficiary","type":"address","internalType":"address"},{"name":"amount","type":"int256","internalType":"int256"}],"outputs":[],"stateMutability":"nonpayable"},{"type":"function","name":"allowance","inputs":[{"name":"owner","type":"address","internalType":"address"},{"name":"spender","type":"address","internalType":"address"}],"outputs":[{"name":"","type":"uint256","internalType":"uint256"}],"stateMutability":"view"},{"type":"function","name":"approve","inputs":[{"name":"spender","type":"address","internalType":"address"},{"name":"amount","type":"uint256","internalType":"uint256"}],"outputs":[{"name":"","type":"bool","internalType":"bool"}],"stateMutability":"nonpayable"},{"type":"function","name":"balanceOf","inputs":[{"name":"account","type":"address","internalType":"address"}],"outputs":[{"name":"","type":"uint256","internalType":"uint256"}],"stateMutability":"view"},{"type":"function","name":"checkpoints","inputs":[{"name":"account","type":"address","internalType":"address"},{"name":"pos","type":"uint32","internalType":"uint32"}],"outputs":[{"name":"","type":"tuple","internalType":"struct ERC20Votes.Checkpoint","components":[{"name":"fromBlock","type":"uint32","internalType":"uint32"},{"name":"votes","type":"uint224","internalType":"uint224"}]}],"stateMutability":"view"},{"type":"function","name":"claim","inputs":[{"name":"index","type":"uint256","internalType":"uint256"},{"name":"beneficiary","type":"address","internalType":"address"},{"name":"totalAmount","type":"uint256","internalType":"uint256"},{"name":"merkleProof","type":"bytes32[]","internalType":"bytes32[]"}],"outputs":[],"stateMutability":"nonpayable"},{"type":"function","name":"claimed","inputs":[],"outputs":[{"name":"","type":"uint256","internalType":"uint256"}],"stateMutability":"view"},{"type":"function","name":"clock","inputs":[],"outputs":[{"name":"","type":"uint48","internalType":"uint48"}],"stateMutability":"view"},{"type":"function","name":"decimals","inputs":[],"outputs":[{"name":"","type":"uint8","internalType":"uint8"}],"stateMutability":"view"},{"type":"function","name":"decreaseAllowance","inputs":[{"name":"spender","type":"address","internalType":"address"},{"name":"subtractedValue","type":"uint256","internalType":"uint256"}],"outputs":[{"name":"","type":"bool","internalType":"bool"}],"stateMutability":"nonpayable"},{"type":"function","name":"delegate","inputs":[{"name":"delegatee","type":"address","internalType":"address"}],"outputs":[],"stateMutability":"nonpayable"},{"type":"function","name":"delegateBySig","inputs":[{"name":"delegatee","type":"address","internalType":"address"},{"name":"nonce","type":"uint256","internalType":"uint256"},{"name":"expiry","type":"uint256","internalType":"uint256"},{"name":"v","type":"uint8","internalType":"uint8"},{"name":"r","type":"bytes32","internalType":"bytes32"},{"name":"s","type":"bytes32","internalType":"bytes32"}],"outputs":[],"stateMutability":"nonpayable"},{"type":"function","name":"delegates","inputs":[{"name":"account","type":"address","internalType":"address"}],"outputs":[{"name":"","type":"address","internalType":"address"}],"stateMutability":"view"},{"type":"function","name":"distancePerSecond","inputs":[],"outputs":[{"name":"","type":"uint160","internalType":"uint160"}],"stateMutability":"view"},{"type":"function","name":"eip712Domain","inputs":[],"outputs":[{"name":"fields","type":"bytes1","internalType":"bytes1"},{"name":"name","type":"string","internalType":"string"},{"name":"version","type":"string","internalType":"string"},{"name":"chainId","type":"uint256","internalType":"uint256"},{"name":"verifyingContract","type":"address","internalType":"address"},{"name":"salt","type":"bytes32","internalType":"bytes32"},{"name":"extensions","type":"uint256[]","internalType":"uint256[]"}],"stateMutability":"view"},{"type":"function","name":"getClaimableAmount","inputs":[{"name":"beneficiary","type":"address","internalType":"address"},{"name":"data","type":"bytes","internalType":"bytes"}],"outputs":[{"name":"","type":"uint256","internalType":"uint256"}],"stateMutability":"view"},{"type":"function","name":"getDistributionRecord","inputs":[{"name":"beneficiary","type":"address","internalType":"address"}],"outputs":[{"name":"","type":"tuple","internalType":"struct DistributionRecord","components":[{"name":"initialized","type":"bool","internalType":"bool"},{"name":"total","type":"uint120","internalType":"uint120"},{"name":"claimed","type":"uint120","internalType":"uint120"}]}],"stateMutability":"view"},{"type":"function","name":"getFairDelayTime","inputs":[{"name":"user","type":"address","internalType":"address"}],"outputs":[{"name":"","type":"uint256","internalType":"uint256"}],"stateMutability":"view"},{"type":"function","name":"getFractionDenominator","inputs":[],"outputs":[{"name":"","type":"uint256","internalType":"uint256"}],"stateMutability":"view"},{"type":"function","name":"getMerkleRoot","inputs":[],"outputs":[{"name":"","type":"bytes32","internalType":"bytes32"}],"stateMutability":"view"},{"type":"function","name":"getPastTotalSupply","inputs":[{"name":"timepoint","type":"uint256","internalType":"uint256"}],"outputs":[{"name":"","type":"uint256","internalType":"uint256"}],"stateMutability":"view"},{"type":"function","name":"getPastVotes","inputs":[{"name":"account","type":"address","internalType":"address"},{"name":"timepoint","type":"uint256","internalType":"uint256"}],"outputs":[{"name":"","type":"uint256","internalType":"uint256"}],"stateMutability":"view"},{"type":"function","name":"getSweepRecipient","inputs":[],"outputs":[{"name":"","type":"address","internalType":"address payable"}],"stateMutability":"view"},{"type":"function","name":"getTotalVotes","inputs":[],"outputs":[{"name":"","type":"uint256","internalType":"uint256"}],"stateMutability":"view"},{"type":"function","name":"getVestedFraction","inputs":[{"name":"beneficiary","type":"address","internalType":"address"},{"name":"time","type":"uint256","internalType":"uint256"},{"name":"","type":"bytes","internalType":"bytes"}],"outputs":[{"name":"","type":"uint256","internalType":"uint256"}],"stateMutability":"view"},{"type":"function","name":"getVestingConfig","inputs":[],"outputs":[{"name":"","type":"uint256","internalType":"uint256"},{"name":"","type":"uint256","internalType":"uint256"},{"name":"","type":"uint256","internalType":"uint256"}],"stateMutability":"view"},{"type":"function","name":"getVoteFactor","inputs":[{"name":"","type":"address","internalType":"address"}],"outputs":[{"name":"","type":"uint256","internalType":"uint256"}],"stateMutability":"view"},{"type":"function","name":"getVotes","inputs":[{"name":"account","type":"address","internalType":"address"}],"outputs":[{"name":"","type":"uint256","internalType":"uint256"}],"stateMutability":"view"},{"type":"function","name":"increaseAllowance","inputs":[{"name":"spender","type":"address","internalType":"address"},{"name":"addedValue","type":"uint256","internalType":"uint256"}],"outputs":[{"name":"","type":"bool","internalType":"bool"}],"stateMutability":"nonpayable"},{"type":"function","name":"initialize","inputs":[{"name":"_token","type":"address","internalType":"contract IERC20"},{"name":"_total","type":"uint256","internalType":"uint256"},{"name":"_uri","type":"string","internalType":"string"},{"name":"_start","type":"uint256","internalType":"uint256"},{"name":"_cliff","type":"uint256","internalType":"uint256"},{"name":"_end","type":"uint256","internalType":"uint256"},{"name":"_merkleRoot","type":"bytes32","internalType":"bytes32"},{"name":"_maxDelayTime","type":"uint160","internalType":"uint160"},{"name":"_owner","type":"address","internalType":"address"}],"outputs":[],"stateMutability":"nonpayable"},{"type":"function","name":"initializeDistributionRecord","inputs":[{"name":"index","type":"uint256","internalType":"uint256"},{"name":"beneficiary","type":"address","internalType":"address"},{"name":"amount","type":"uint256","internalType":"uint256"},{"name":"merkleProof","type":"bytes32[]","internalType":"bytes32[]"}],"outputs":[],"stateMutability":"nonpayable"},{"type":"function","name":"maxDelayTime","inputs":[],"outputs":[{"name":"","type":"uint160","internalType":"uint160"}],"stateMutability":"view"},{"type":"function","name":"name","inputs":[],"outputs":[{"name":"","type":"string","internalType":"string"}],"stateMutability":"view"},{"type":"function","name":"nonces","inputs":[{"name":"owner","type":"address","internalType":"address"}],"outputs":[{"name":"","type":"uint256","internalType":"uint256"}],"stateMutability":"view"},{"type":"function","name":"numCheckpoints","inputs":[{"name":"account","type":"address","internalType":"address"}],"outputs":[{"name":"","type":"uint32","internalType":"uint32"}],"stateMutability":"view"},{"type":"function","name":"owner","inputs":[],"outputs":[{"name":"","type":"address","internalType":"address"}],"stateMutability":"view"},{"type":"function","name":"permit","inputs":[{"name":"owner","type":"address","internalType":"address"},{"name":"spender","type":"address","internalType":"address"},{"name":"value","type":"uint256","internalType":"uint256"},{"name":"deadline","type":"uint256","internalType":"uint256"},{"name":"v","type":"uint8","internalType":"uint8"},{"name":"r","type":"bytes32","internalType":"bytes32"},{"name":"s","type":"bytes32","internalType":"bytes32"}],"outputs":[],"stateMutability":"nonpayable"},{"type":"function","name":"randomValue","inputs":[],"outputs":[{"name":"","type":"uint160","internalType":"uint160"}],"stateMutability":"view"},{"type":"function","name":"renounceOwnership","inputs":[],"outputs":[],"stateMutability":"nonpayable"},{"type":"function","name":"setMerkleRoot","inputs":[{"name":"_merkleRoot","type":"bytes32","internalType":"bytes32"}],"outputs":[],"stateMutability":"nonpayable"},{"type":"function","name":"setSweepRecipient","inputs":[{"name":"_recipient","type":"address","internalType":"address payable"}],"outputs":[],"stateMutability":"nonpayable"},{"type":"function","name":"setToken","inputs":[{"name":"_token","type":"address","internalType":"contract IERC20"}],"outputs":[],"stateMutability":"nonpayable"},{"type":"function","name":"setTotal","inputs":[{"name":"_total","type":"uint256","internalType":"uint256"}],"outputs":[],"stateMutability":"nonpayable"},{"type":"function","name":"setUri","inputs":[{"name":"_uri","type":"string","internalType":"string"}],"outputs":[],"stateMutability":"nonpayable"},{"type":"function","name":"setVestingConfig","inputs":[{"name":"_start","type":"uint256","internalType":"uint256"},{"name":"_cliff","type":"uint256","internalType":"uint256"},{"name":"_end","type":"uint256","internalType":"uint256"}],"outputs":[],"stateMutability":"nonpayable"},{"type":"function","name":"setVoteFactor","inputs":[{"name":"_voteFactor","type":"uint256","internalType":"uint256"}],"outputs":[],"stateMutability":"nonpayable"},{"type":"function","name":"sweepNative","inputs":[{"name":"amount","type":"uint256","internalType":"uint256"}],"outputs":[],"stateMutability":"nonpayable"},{"type":"function","name":"sweepNative","inputs":[],"outputs":[],"stateMutability":"nonpayable"},{"type":"function","name":"sweepToken","inputs":[{"name":"token","type":"address","internalType":"contract IERC20"}],"outputs":[],"stateMutability":"nonpayable"},{"type":"function","name":"sweepToken","inputs":[{"name":"token","type":"address","internalType":"contract IERC20"},{"name":"amount","type":"uint256","internalType":"uint256"}],"outputs":[],"stateMutability":"nonpayable"},{"type":"function","name":"symbol","inputs":[],"outputs":[{"name":"","type":"string","internalType":"string"}],"stateMutability":"view"},{"type":"function","name":"token","inputs":[],"outputs":[{"name":"","type":"address","internalType":"contract IERC20"}],"stateMutability":"view"},{"type":"function","name":"total","inputs":[],"outputs":[{"name":"","type":"uint256","internalType":"uint256"}],"stateMutability":"view"},{"type":"function","name":"totalSupply","inputs":[],"outputs":[{"name":"","type":"uint256","internalType":"uint256"}],"stateMutability":"view"},{"type":"function","name":"transfer","inputs":[{"name":"to","type":"address","internalType":"address"},{"name":"amount","type":"uint256","internalType":"uint256"}],"outputs":[{"name":"","type":"bool","internalType":"bool"}],"stateMutability":"nonpayable"},{"type":"function","name":"transferFrom","inputs":[{"name":"from","type":"address","internalType":"address"},{"name":"to","type":"address","internalType":"address"},{"name":"amount","type":"uint256","internalType":"uint256"}],"outputs":[{"name":"","type":"bool","internalType":"bool"}],"stateMutability":"nonpayable"},{"type":"function","name":"transferOwnership","inputs":[{"name":"newOwner","type":"address","internalType":"address"}],"outputs":[],"stateMutability":"nonpayable"},{"type":"function","name":"uri","inputs":[],"outputs":[{"name":"","type":"string","internalType":"string"}],"stateMutability":"view"},{"type":"event","name":"Adjust","inputs":[{"name":"beneficiary","type":"address","indexed":true,"internalType":"address"},{"name":"amount","type":"int256","indexed":false,"internalType":"int256"}],"anonymous":false},{"type":"event","name":"Approval","inputs":[{"name":"owner","type":"address","indexed":true,"internalType":"address"},{"name":"spender","type":"address","indexed":true,"internalType":"address"},{"name":"value","type":"uint256","indexed":false,"internalType":"uint256"}],"anonymous":false},{"type":"event","name":"Claim","inputs":[{"name":"beneficiary","type":"address","indexed":true,"internalType":"address"},{"name":"amount","type":"uint256","indexed":false,"internalType":"uint256"}],"anonymous":false},{"type":"event","name":"DelegateChanged","inputs":[{"name":"delegator","type":"address","indexed":true,"internalType":"address"},{"name":"fromDelegate","type":"address","indexed":true,"internalType":"address"},{"name":"toDelegate","type":"address","indexed":true,"internalType":"address"}],"anonymous":false},{"type":"event","name":"DelegateVotesChanged","inputs":[{"name":"delegate","type":"address","indexed":true,"internalType":"address"},{"name":"previousBalance","type":"uint256","indexed":false,"internalType":"uint256"},{"name":"newBalance","type":"uint256","indexed":false,"internalType":"uint256"}],"anonymous":false},{"type":"event","name":"EIP712DomainChanged","inputs":[],"anonymous":false},{"type":"event","name":"InitializeDistributionRecord","inputs":[{"name":"beneficiary","type":"address","indexed":true,"internalType":"address"},{"name":"total","type":"uint256","indexed":false,"internalType":"uint256"}],"anonymous":false},{"type":"event","name":"InitializeDistributor","inputs":[{"name":"token","type":"address","indexed":true,"internalType":"contract IERC20"},{"name":"total","type":"uint256","indexed":false,"internalType":"uint256"},{"name":"uri","type":"string","indexed":false,"internalType":"string"},{"name":"fractionDenominator","type":"uint256","indexed":false,"internalType":"uint256"}],"anonymous":false},{"type":"event","name":"Initialized","inputs":[{"name":"version","type":"uint8","indexed":false,"internalType":"uint8"}],"anonymous":false},{"type":"event","name":"OwnershipTransferred","inputs":[{"name":"previousOwner","type":"address","indexed":true,"internalType":"address"},{"name":"newOwner","type":"address","indexed":true,"internalType":"address"}],"anonymous":false},{"type":"event","name":"SetContinuousVesting","inputs":[{"name":"start","type":"uint256","indexed":false,"internalType":"uint256"},{"name":"cliff","type":"uint256","indexed":false,"internalType":"uint256"},{"name":"end","type":"uint256","indexed":false,"internalType":"uint256"}],"anonymous":false},{"type":"event","name":"SetDelay","inputs":[{"name":"maxDelayTime","type":"uint160","indexed":false,"internalType":"uint160"}],"anonymous":false},{"type":"event","name":"SetMerkleRoot","inputs":[{"name":"merkleRoot","type":"bytes32","indexed":false,"internalType":"bytes32"}],"anonymous":false},{"type":"event","name":"SetSweepRecipient","inputs":[{"name":"recipient","type":"address","indexed":false,"internalType":"address"}],"anonymous":false},{"type":"event","name":"SetToken","inputs":[{"name":"token","type":"address","indexed":true,"internalType":"contract IERC20"}],"anonymous":false},{"type":"event","name":"SetTotal","inputs":[{"name":"total","type":"uint256","indexed":false,"internalType":"uint256"}],"anonymous":false},{"type":"event","name":"SetUri","inputs":[{"name":"uri","type":"string","indexed":true,"internalType":"string"}],"anonymous":false},{"type":"event","name":"SetVoteFactor","inputs":[{"name":"voteFactor","type":"uint256","indexed":false,"internalType":"uint256"}],"anonymous":false},{"type":"event","name":"SweepNative","inputs":[{"name":"amount","type":"uint256","indexed":false,"internalType":"uint256"}],"anonymous":false},{"type":"event","name":"SweepToken","inputs":[{"name":"token","type":"address","indexed":true,"internalType":"address"},{"name":"amount","type":"uint256","indexed":false,"internalType":"uint256"}],"anonymous":false},{"type":"event","name":"Transfer","inputs":[{"name":"from","type":"address","indexed":true,"internalType":"address"},{"name":"to","type":"address","indexed":true,"internalType":"address"},{"name":"value","type":"uint256","indexed":false,"internalType":"uint256"}],"anonymous":false},{"type":"error","name":"InvalidShortString","inputs":[]},{"type":"error","name":"StringTooLong","inputs":[{"name":"str","type":"string","internalType":"string"}]}],"bytecode":{"object":"0x6101606040818152346200058257620000188262000587565b60158252602091828101917f496e7465726e616c20766f746520747261636b6572000000000000000000000093848452815194620000568662000587565b60158652818601528151906200006c8262000587565b600382526212559560ea1b81830152825195620000898762000587565b6001808852603160f81b8389019081526000805462010000600160b01b0319811633601081811b62010000600160b01b031692909217845589519598939693957fccdd1baf560d2682736fa25752c8ccc0c5fc4079b245b0acf7389776308d5b1f9389939192911c6001600160a01b03167f8be0079c531659141344cd1fd0a4f28419497f9722a3daafe3b4186f6b6457e08980a388546001600160a01b031916339081178a558152a180516001600160401b03939091908483116200056e576005928354928984811c9416801562000563575b898510146200046f578190601f9485811162000512575b508990858311600114620004ae578992620004a2575b5050600019600383901b1c191690891b1783555b8051928584116200048e57600654908982811c9216801562000483575b898310146200046f57908392918594821162000418575b505087918311600114620003b2578692620003a6575b5050600019600383901b1c191690861b176006555b6200020887620005b9565b976101209889526200021a8a62000796565b97610140988952519020988960e0525190209361010098858a524660a052865195858701917f8b73c3c69bb8fe3d512ecc4cf759cc79239f7b179b0ffacaa9a75d522b39400f83528888015260608701524660808701523060a087015260a0865260c0860192868410908411176200039257828752855190206080523060c052600e5581549360ff8560081c166200033f57505060ff8084160362000305575b505050519161486693846200094f8539608051846142a2015260a0518461435d015260c0518461426c015260e051846142f101525183614317015251826114030152518161142d0152f35b60ff7f7f26b83ff96e1f2b6a682f133852f6798a09c465da95921460cefb384740249893811916179055825160ff8152a1388080620002ba565b9066616c697a696e6760c81b6101246084938662461bcd60e51b855260c4820152602760e48201527f496e697469616c697a61626c653a20636f6e747261637420697320696e6974696101048201520152fd5b634e487b7160e01b84526041600452602484fd5b015190503880620001e8565b600687528787208994509190601f198416885b8a828210620004015750508411620003e7575b505050811b01600655620001fd565b015160001960f88460031b161c19169055388080620003d8565b8385015186558c97909501949384019301620003c5565b9091929350600688528888209084808701821c8301938b881062000465575b9187968d93969594929601901c01915b828110620004565750620001d2565b8981558695508b910162000447565b9350829362000437565b634e487b7160e01b88526022600452602488fd5b91607f1691620001bb565b634e487b7160e01b87526041600452602487fd5b0151905038806200018a565b868a528a8a208c94509190601f1984168b5b8d828210620004fb5750508411620004e1575b505050811b0183556200019e565b015160001960f88460031b161c19169055388080620004d3565b8385015186558f97909501949384019301620004c0565b90915085895289892085808501881c8201928c861062000559575b918d918695949301891c01915b8281106200054a57505062000174565b8b81558594508d91016200053a565b925081926200052d565b93607f16936200015d565b634e487b7160e01b86526041600452602486fd5b600080fd5b604081019081106001600160401b03821117620005a357604052565b634e487b7160e01b600052604160045260246000fd5b805160209081811015620006565750601f825111620005f55780825192015190808310620005e657501790565b82600019910360031b1b161790565b90604051809263305a27a960e01b82528060048301528251908160248401526000935b8285106200063c575050604492506000838284010152601f80199101168101030190fd5b848101820151868601604401529381019385935062000618565b906001600160401b038211620005a357600754926001938481811c911680156200078b575b838210146200077557601f81116200073b575b5081601f8411600114620006cf5750928293918392600094620006c3575b50501b916000199060031b1c19161760075560ff90565b015192503880620006ac565b919083601f198116600760005284600020946000905b8883831062000720575050501062000706575b505050811b0160075560ff90565b015160001960f88460031b161c19169055388080620006f8565b858701518855909601959485019487935090810190620006e5565b600760005284601f84600020920160051c820191601f860160051c015b828110620007685750506200068e565b6000815501859062000758565b634e487b7160e01b600052602260045260246000fd5b90607f16906200067b565b805160209081811015620008245750601f825111620007c35780825192015190808310620005e657501790565b90604051809263305a27a960e01b82528060048301528251908160248401526000935b8285106200080a575050604492506000838284010152601f80199101168101030190fd5b8481018201518686016044015293810193859350620007e6565b906001600160401b038211620005a357600854926001938481811c9116801562000943575b838210146200077557601f811162000909575b5081601f84116001146200089d575092829391839260009462000891575b50501b916000199060031b1c19161760085560ff90565b0151925038806200087a565b919083601f198116600860005284600020946000905b88838310620008ee5750505010620008d4575b505050811b0160085560ff90565b015160001960f88460031b161c19169055388080620008c6565b858701518855909601959485019487935090810190620008b3565b600860005284601f84600020920160051c820191601f860160051c015b828110620009365750506200085c565b6000815501859062000926565b90607f16906200084956fe6080604052600436101561001257600080fd5b60003560e01c806306fdde03146103ed578063095ea7b31461032f5780630f56b96c146103e857806313c67ce5146103e3578063144fa6d7146103de57806318160ddd146103525780631be19560146103d95780631f8d1d50146103d457806323b872dd146103cf578063276801ec146103ca5780632ddbd13a146103c55780632e7ba6ef146103c0578063313ce567146103bb5780633644e515146103b657806339509351146103b15780633a46b1a8146103ac5780633cf3a025146103a757806349590657146103a25780634bf5d7e91461039d578063587cde1e146103985780635c19a95c14610393578063684de1f51461038e5780636fcfff451461038957806370a0823114610384578063715018a61461037f57806375aa9bc61461037a5780637cb64759146103755780637ecebe001461037057806384b0196e1461036b5780638da5cb5b146103665780638e539e8c1461036157806391ddadf41461035c57806395d89b41146103575780639a0e7d66146103525780639ab24eb01461034d5780639b642de114610348578063a011c8cc14610343578063a3f4df7e1461033e578063a457c2d714610339578063a4ef1f7814610334578063a9059cbb1461032f578063ab803a761461032a578063bb22dccb14610325578063bf38b5c814610320578063c32b13261461031b578063c3cda52014610316578063c6e8d98214610311578063c78d59851461030c578063c955725514610307578063d3d0ec8914610302578063d505accf146102fd578063dd62ed3e146102f8578063de032f58146102f3578063e834a834146102ee578063e85858d9146102e9578063e90a182f146102e4578063eac989f8146102df578063f1127ed8146102da578063f2fde38b146102d5578063f56c8547146102d0578063fc0c546a146102cb5763ffa1ad74146102c657600080fd5b6123a1565b612378565b61234f565b6122be565b612233565b61219c565b6120f0565b61203a565b61201c565b611fef565b611f8c565b611e4c565b611e00565b611db4565b611d8b565b611d62565b611c33565b611ba4565b611b72565b611b49565b611aee565b61053b565b611ac7565b611a24565b6119b9565b611878565b61173a565b6116d7565b6107b3565b61162e565b611602565b61150e565b6114e1565b6113e8565b6113ab565b61135f565b61116a565b61110a565b6110cd565b611082565b61102b565b611005565b610fc6565b610f14565b610ef6565b610e87565b610d2e565b610c98565b610c7d565b610c61565b610a4e565b6109d0565b6109a7565b610905565b6108b9565b6107d1565b61070b565b6106bb565b61055c565b610446565b919082519283825260005b84811061041e575050826000602080949584010152601f8019910116010190565b6020818301810151848301820152016103fd565b9060206104439281815201906103f2565b90565b3461052557600080600319360112610522576040518160055461046881612162565b90818452602092600191828116908160001461050057506001146104a7575b6104a3856104978189038261061c565b60405191829182610432565b0390f35b929450600583527f036b6384b5eca791c62761152d0c79bb0604c104a5fb6f4eb0703f3154bb3db05b8284106104ed57505050816104a393610497928201019338610487565b80548585018701529285019281016104d0565b60ff191686860152505050151560051b8201019150610497816104a338610487565b80fd5b600080fd5b6001600160a01b0381160361052557565b346105255760403660031901126105255761055760043561052a565b6134af565b34610525576000366003190112610525576020601454604051908152f35b634e487b7160e01b600052604160045260246000fd5b606081019081106001600160401b038211176105ab57604052565b61057a565b604081019081106001600160401b038211176105ab57604052565b602081019081106001600160401b038211176105ab57604052565b608081019081106001600160401b038211176105ab57604052565b60c081019081106001600160401b038211176105ab57604052565b90601f801991011681019081106001600160401b038211176105ab57604052565b6040519061064a82610590565b565b6040519061064a826105b0565b6001600160401b0381116105ab57601f01601f191660200190565b81601f820112156105255780359061068b82610659565b92610699604051948561061c565b8284526020838301011161052557816000926020809301838601378301015290565b34610525576040366003190112610525576004356106d88161052a565b6024356001600160401b038111610525576020916106fd610703923690600401610674565b50612fda565b604051908152f35b34610525576020366003190112610525576004356107288161052a565b6107306133f6565b6001600160a01b0316801561077857601080546001600160a01b031916821790557fefc1fd16ea80a922086ee4e995739d59b025c1bcea6d1f67855747480c83214b600080a2005b60405162461bcd60e51b8152602060048201526013602482015272746f6b656e206973206164647265737328302960681b6044820152606490fd5b34610525576000366003190112610525576020600454604051908152f35b34610525576020366003190112610525576004356107ee8161052a565b6107f66133f6565b6040516370a0823160e01b81523060048201526001600160a01b0382169190602081602481865afa80156108b4577ff4a44a7f605c4971a27bcecb448108e6328b7fad34fab5bff4f69377294b826d9261087b92600092610880575b5060015461086b9183916001600160a01b031690613ec7565b6040519081529081906020820190565b0390a2005b61086b9192506108a69060203d81116108ad575b61089e818361061c565b810190613320565b9190610852565b503d610894565b61332f565b34610525576020366003190112610525577fac657d3615bd618ee537848e2b33acd2a9df67d4776485ab6922b0421d324d2960206004356108f86133f6565b80601155604051908152a1005b34610525576060366003190112610525576004356109228161052a565b61092d60243561052a565b6001600160a01b0316600090815260036020908152604080832033845290915290205460018101156134af5760443511156134af5760405162461bcd60e51b815260206004820152601d60248201527f45524332303a20696e73756666696369656e7420616c6c6f77616e63650000006044820152606490fd5b34610525576000366003190112610525576017546040516001600160a01b039091168152602090f35b34610525576000366003190112610525576020601154604051908152f35b60806003198201126105255760043591602435610a0a8161052a565b91604435916064356001600160401b039283821161052557806023830112156105255781600401359384116105255760248460051b83010111610525576024019190565b3461052557610abc610ab6610a62366109ee565b929593604095929551610aab81610a9d898b602084019687916054939183526001600160601b03199060601b16602083015260348201520190565b03601f19810183528261061c565b519020923691612c89565b9061328a565b6002600e5414610c1c576002600e55610ad3612e11565b50610adc612e11565b506001600160781b0380911660018060a01b038316600052600f602052808260406000205460081c1603610c0c575b50610b1582612fda565b168015610baf576001600160a01b0382166000908152600f60205260409020610ba39290610b8190610b5b84610b5683546001600160781b039060801c1690565b6124cd565b8154600160801b600160f81b03191660809190911b600160801b600160f81b0316179055565b610b95610b90836012546124c0565b601255565b610b9e816125cd565b612f94565b610bad6001600e55565b005b60405162461bcd60e51b815260206004820152602f60248201527f4469737472696275746f723a206e6f206d6f726520746f6b656e7320636c616960448201526e6d61626c65207269676874206e6f7760881b6064820152608490fd5b610c169083612cde565b38610b0b565b60405162461bcd60e51b815260206004820152601f60248201527f5265656e7472616e637947756172643a207265656e7472616e742063616c6c006044820152606490fd5b3461052557600036600319011261052557602060405160128152f35b34610525576000366003190112610525576020610703614269565b3461052557604036600319011261052557610cdd600435610cb88161052a565b33600052600360205260406000209060018060a01b0316600052602052604060002090565b54602435810110610d295760405162461bcd60e51b81526020600482015260196024820152783234b9b0b13632b2103337b9103b37ba34b733903837bbb2b960391b6044820152606490fd5b61243f565b3461052557604036600319011261052557600435610d4b8161052a565b60243590610d6a65ffffffffffff610d624361472a565b16831061358c565b6001600160a01b03166000908152600c6020526040812080549290918360058111610e36575b50905b838210610de157505081610dba575050602060005b6040516001600160e01b039091168152f35b610dd5610ddc91602093600019019060005260206000200190565b5460201c90565b610da8565b9092610ded8185614560565b90818363ffffffff610e13610e09848960005260206000200190565b5463ffffffff1690565b161115610e24575050925b90610d93565b909450610e3191506124b2565b610e1e565b80610e46610e4c92969396614575565b906125a7565b908263ffffffff610e67610e09858860005260206000200190565b161115610e775750925b38610d90565b9350610e82906124b2565b610e71565b3461052557602036600319011261052557600435610ea36133f6565b7f3b381fdfc0e2729a70e8b26ae2397e9014f703a8235b557f5581c4ed47280fd26020600092610eec848080808560018060a01b03600154165af1610ee661333b565b5061336b565b604051908152a180f35b34610525576000366003190112610525576020601c54604051908152f35b34610525576000366003190112610525574365ffffffffffff610f364361472a565b1603610f81576104a3604051610f4b816105b0565b601d81527f6d6f64653d626c6f636b6e756d6265722666726f6d3d64656661756c74000000602082015260405191829182610432565b60405162461bcd60e51b815260206004820152601d60248201527f4552433230566f7465733a2062726f6b656e20636c6f636b206d6f64650000006044820152606490fd5b34610525576020366003190112610525576020600435610fe58161052a565b60018060a01b03809116600052600b825260406000205416604051908152f35b3461052557602036600319011261052557610bad6004356110258161052a565b3361394e565b3461052557610bad610ab661107d611042366109ee565b929493604096929651610aab81610a9d8a8a602084019687916054939183526001600160601b03199060601b16602083015260348201520190565b612cde565b346105255760203660031901126105255760043561109f8161052a565b60018060a01b0316600052600c60205260206110bf604060002054614791565b63ffffffff60405191168152f35b34610525576020366003190112610525576004356110ea8161052a565b60018060a01b031660005260026020526020604060002054604051908152f35b3461052557600080600319360112610522576111246133f6565b805462010000600160b01b031981168255819060101c6001600160a01b03167f8be0079c531659141344cd1fd0a4f28419497f9722a3daafe3b4186f6b6457e08280a380f35b34610525576040366003190112610525576004356111878161052a565b7fd81661cef4e40e0f1f97384c033d606e4d6b570554fc3524568d8f9fc84c838861087b602435926111b76133f6565b6001600160a01b0381166000908152600f602052604090206111d8906123bd565b6111ea6111e58251151590565b6123f4565b600085131561135157845b6001600160781b0391611209838310612466565b6000871215611306576112e392611268611263846112c29461125e8261125761124b60206011549561123d858810156124e8565b01516001600160781b031690565b6001600160781b031690565b1015612544565b6125a7565b601155565b6001600160a01b0385166000908152600f602052604090206112a19091841661129c83546001600160781b039060081c1690565b6125b4565b610100600160801b0382549160081b1690610100600160801b031916179055565b6010546001600160a01b031660005460101c6001600160a01b031690613ec7565b6112ec816125cd565b6040519384526001600160a01b0316929081906020820190565b506112a161134c9261131d611263846011546124c0565b6001600160a01b0385166000908152600f602052604090209216610b5683546001600160781b039060081c1690565b6112e3565b61135a85612455565b6111f5565b34610525576020366003190112610525577f914960aef5e033ce5cae8a7992d4b7a6f0f9741227b66acb67c605b7019f8a46602060043561139e6133f6565b80601c55604051908152a1005b34610525576020366003190112610525576004356113c88161052a565b60018060a01b031660005260096020526020604060002054604051908152f35b346105255760008060031936011261052257611485906114277f00000000000000000000000000000000000000000000000000000000000000006143a9565b906114517f00000000000000000000000000000000000000000000000000000000000000006144a3565b906040519161145f836105cb565b818352611493602091604051968796600f60f81b885260e08589015260e08801906103f2565b9086820360408801526103f2565b904660608601523060808601528260a086015284820360c08601528080855193848152019401925b8281106114ca57505050500390f35b8351855286955093810193928101926001016114bb565b346105255760003660031901126105255760005460405160109190911c6001600160a01b03168152602090f35b346105255760203660031901126105255760043561153d65ffffffffffff6115354361472a565b16821061358c565b600d5490600082600581116115bf575b50905b82821061157c57828061156a575060405160008152602090f35b610ddc610dd560209260001901613e9d565b90916115888184614560565b90818363ffffffff61159c610e0984613e9d565b1611156115ad575050915b90611550565b9093506115ba91506124b2565b6115a7565b80610e466115cf92959395614575565b908263ffffffff6115e2610e0985613e9d565b1611156115f25750915b3861154d565b92506115fd906124b2565b6115ec565b3461052557600036600319011261052557602061161e4361472a565b65ffffffffffff60405191168152f35b3461052557600080600319360112610522576040518160065461165081612162565b908184526020926001918281169081600014610500575060011461167e576104a3856104978189038261061c565b929450600683527ff652222313e28459528d920b65115c16c04f3efc82aaedc97be59f3f377c0d3f5b8284106116c457505050816104a393610497928201019338610487565b80548585018701529285019281016116a7565b34610525576020366003190112610525576004356116f48161052a565b6001600160a01b03166000908152600c6020526040902080548061172057505060405160008152602090f35b60209161173191600019019061353c565b5054811c610da8565b3461052557602080600319360112610525576001600160401b036004358181116105255761176c903690600401610674565b916117756133f6565b82519182116105ab576117928261178d601354612162565b6126bd565b80601f8311600114611800575081906117c2936000926117f5575b50508160011b916000199060031b1c19161790565b6013555b6117ce6127e9565b7fd70c1392a974224e639e7a9607dcb2c766826aecfe2dc356f442ce0488b01e1f600080a2005b0151905038806117ad565b90601f19831693611821601360005260008051602061481183398151915290565b926000905b8682106118605750508360019510611847575b505050811b016013556117c6565b015160001960f88460031b161c19169055388080611839565b80600185968294968601518155019501930190611826565b3461052557610120366003190112610525576004356118968161052a565b6044356001600160401b038111610525576118b8611928913690600401610674565b60e4356118c48161052a565b61010435916118d28361052a565b600054946118f760ff8760081c1615809781986119ab575b811561198b575b506128d9565b8561190a600160ff196000541617600055565b611972575b60c4359160a4359160843591606435916024359061293c565b61192e57005b61193e61ff001960005416600055565b604051600181527f7f26b83ff96e1f2b6a682f133852f6798a09c465da95921460cefb38474024989080602081015b0390a1005b61198661010061ff00196000541617600055565b61190f565b303b1591508161199d575b50386118f1565b6001915060ff161438611996565b600160ff82161091506118ea565b34610525576000366003190112610525576104a36040516119d981610590565b602481527f436f6e74696e756f757356657374696e674d65726b6c65496e697469616c697a60208201526361626c6560e01b60408201526040519182916020835260208301906103f2565b3461052557604036600319011261052557600435611a418161052a565b336000526003602052611a6d6024359160406000209060018060a01b0316600052602052604060002090565b5410156134af5760405162461bcd60e51b815260206004820152602560248201527f45524332303a2064656372656173656420616c6c6f77616e63652062656c6f77604482015264207a65726f60d81b6064820152608490fd5b34610525576020366003190112610525576020610703600435611ae98161052a565b613219565b346105255760008060031936011261052257611b086133f6565b7f3b381fdfc0e2729a70e8b26ae2397e9014f703a8235b557f5581c4ed47280fd2602047610eec848080808560018060a01b03600154165af1610ee661333b565b3461052557602036600319011261052557611b6560043561052a565b6020601854604051908152f35b3461052557600036600319011261052557601954601a54601b5460408051938452602084019290925290820152606090f35b34610525576060366003190112610525577f34ebbb9e095e6c8737f99dd9923fb97ec1ca3d25cb39225975a934dd8d7a31b460243560043561196d604435611bea6133f6565b8260195583601a5580601b55604051938493846040919493926060820195825260208201520152565b6064359060ff8216820361052557565b6084359060ff8216820361052557565b346105255760c036600319011261052557600435611c508161052a565b60443590602435611c5f611c13565b92804211611d1d57611cef611d1891610bad9560405190611cd782611cc96020820195898b8860609194939260808201957fe48329057bfd03d55e49b547132e39cffd9c1820ad7b9d4c5307691425d15adf835260018060a01b0316602083015260408201520152565b03601f19810184528361061c565b611cea60a4359360843593519020614383565b614090565b6001600160a01b03811660009081526009602052604090208054600181019091559092146135d8565b61394e565b60405162461bcd60e51b815260206004820152601d60248201527f4552433230566f7465733a207369676e617475726520657870697265640000006044820152606490fd5b34610525576000366003190112610525576015546040516001600160a01b039091168152602090f35b34610525576000366003190112610525576001546040516001600160a01b039091168152602090f35b34610525576020366003190112610525577f6c339c0bee516a4df5d7074ba7a974856d609f83666e915aa4a0f90e06989dc56020600435611df36133f6565b80601855604051908152a1005b3461052557606036600319011261052557600435611e1d8161052a565b6044356001600160401b03811161052557602091611e42610703923690600401610674565b5060243590612874565b346105255760e036600319011261052557600435611e698161052a565b60243590611e768261052a565b60643591611e82611c23565b90834211611f475761055793611f3492611f21611eba8660018060a01b03166000526009602052604060002090815491600183019055565b611cc96040519485926020840197604435908b8a91959493909260a09360c08401977f6e71edae12b1b97f4d1f60370fef10105fa2faae0126114a169c64845d6126c98552600180871b038092166020860152166040840152606083015260808201520152565b611cea60c4359360a43593519020614383565b6001600160a01b039081169116146134f0565b60405162461bcd60e51b815260206004820152601d60248201527f45524332305065726d69743a206578706972656420646561646c696e650000006044820152606490fd5b34610525576040366003190112610525576020611fe6600435611fae8161052a565b60243590611fbb8261052a565b60018060a01b03166000526003835260406000209060018060a01b0316600052602052604060002090565b54604051908152f35b3461052557602036600319011261052557610bad60043561200f8161052a565b6120176133f6565b6133aa565b34610525576000366003190112610525576020601254604051908152f35b34610525576020366003190112610525576104a360043561205a8161052a565b604090600082805161206b81610590565b828152826020820152015260018060a01b0316600052600f602052806000209080519161209783610590565b5460ff8116151583526001600160781b0390818160081c16602085015260801c1681830152519182918291909160406060820193805115158352816020820151916001600160781b038093166020860152015116910152565b346105255760403660031901126105255760043561210d8161052a565b7ff4a44a7f605c4971a27bcecb448108e6328b7fad34fab5bff4f69377294b826d60206024359261213c6133f6565b6001546001600160a01b039190612157908690841683613ec7565b6040519485521692a2005b90600182811c92168015612192575b602083101461217c57565b634e487b7160e01b600052602260045260246000fd5b91607f1691612171565b346105255760008060031936011261052257604051816013546121be81612162565b90818452602092600191828116908160001461050057506001146121ec576104a3856104978189038261061c565b929450601383526000805160206148118339815191525b82841061222057505050816104a393610497928201019338610487565b8054858501870152928501928101612203565b34610525576040366003190112610525576004356122508161052a565b63ffffffff60243581811681036105255761229a6122a09160409460006020875161227a816105b0565b82815201526001600160a01b03166000908152600c60205285902061353c565b5061356a565b8251815190921682526020908101516001600160e01b031690820152f35b34610525576020366003190112610525576004356122db8161052a565b6122e36133f6565b6001600160a01b038116156122fb57610bad90613451565b60405162461bcd60e51b815260206004820152602660248201527f4f776e61626c653a206e6577206f776e657220697320746865207a65726f206160448201526564647265737360d01b6064820152608490fd5b34610525576000366003190112610525576016546040516001600160a01b039091168152602090f35b34610525576000366003190112610525576010546040516001600160a01b039091168152602090f35b3461052557600036600319011261052557602060405160038152f35b906040516123ca81610590565b604081935460ff8116151583526001600160781b0390818160081c16602085015260801c16910152565b156123fb57565b606460405162461bcd60e51b815260206004820152602060248201527f6d75737420696e697469616c697a65206265666f72652061646a757374696e676044820152fd5b634e487b7160e01b600052601160045260246000fd5b600160ff1b8114610d295760000390565b1561246d57565b60405162461bcd60e51b815260206004820152601860248201527f61646a7573746d656e74203e206d61782075696e7431323000000000000000006044820152606490fd5b9060018201809211610d2957565b91908201809211610d2957565b9190916001600160781b0380809416911601918211610d2957565b156124ef57565b60405162461bcd60e51b815260206004820152602760248201527f64656372656173652067726561746572207468616e206469737472696275746f6044820152661c881d1bdd185b60ca1b6064820152608490fd5b1561254b57565b60405162461bcd60e51b815260206004820152602e60248201527f64656372656173652067726561746572207468616e206469737472696275746960448201526d1bdb949958dbdc99081d1bdd185b60921b6064820152608490fd5b91908203918211610d2957565b6001600160781b039182169082160391908211610d2957565b6001600160a01b038116600090815260026020908152604080832054600f9092529091209091906125fd906123bd565b6001600160781b0380602081604085015116930151168083101560001461265e5750505060005b8083111561263f576126399061064a936125a7565b90613767565b80831061264b57505050565b61064a92612658916125a7565b90613689565b6126759261266b916125b4565b166018549061268a565b6014549081156126855704612624565b61269d565b81810292918115918404141715610d2957565b634e487b7160e01b600052601260045260246000fd5b8115612685570490565b601f81116126c9575050565b60009060138252600080516020614811833981519152906020601f850160051c83019410612712575b601f0160051c01915b82811061270757505050565b8181556001016126fb565b90925082906126f2565b9081516001600160401b0381116105ab5761273c8161178d601354612162565b602080601f83116001146127735750819061276e93946000926117f55750508160011b916000199060031b1c19161790565b601355565b90601f19831694612794601360005260008051602061481183398151915290565b926000905b8782106127d15750508360019596106127b8575b505050811b01601355565b015160001960f88460031b161c191690553880806127ad565b80600185968294968601518155019501930190612799565b6040518060006013546127fb81612162565b9060019081811690811561285d575060011461281a575b505003902090565b601360009081529192506000805160206148118339815191525b8383106128475750505081013880612812565b8054868401528594506020909201918101612834565b60ff19168552505080151502820190503880612812565b61287d90613219565b8103908111610d2957601a548111156128d357601b5490818110156128cb5760145460195491828103908111610d29576128b69161268a565b9080830392808411610d295714612685570490565b505060145490565b50600090565b156128e057565b60405162461bcd60e51b815260206004820152602e60248201527f496e697469616c697a61626c653a20636f6e747261637420697320616c72656160448201526d191e481a5b9a5d1a585b1a5e995960921b6064820152608490fd5b979695949293909160018060a01b039461296660ff60005460081c1661296181612b32565b612b32565b612971868a166133aa565b7f6c339c0bee516a4df5d7074ba7a974856d609f83666e915aa4a0f90e06989dc5602061271080601855604051908152a16129b360ff60005460081c16612b32565b858a1615612aee57612a6b612ae998612aa297612a09612a9895612a0461064a9f99611263612a9d9b6129e7831515612e29565b60018060a01b03166001600160601b0360a01b6010541617601055565b61271c565b612a1a670de0b6b3a7640000601455565b6010546001600160a01b03167f433127dedcff849792656a12f4a9dbc0efeb80df5cce6310f53481a93cd71c718260115492612a60601454604051938493169583612e75565b0390a28916906130d7565b612a7783821115612b92565b612a8385841115612bde565b612a9363f4865700861115612c2a565b601955565b601a55565b601b55565b601954601a54601b54604080519384526020840192909252908201527f34ebbb9e095e6c8737f99dd9923fb97ec1ca3d25cb39225975a934dd8d7a31b490606090a1613248565b613451565b606460405162461bcd60e51b815260206004820152602060248201527f4469737472696275746f723a20746f6b656e20697320616464726573732830296044820152fd5b15612b3957565b60405162461bcd60e51b815260206004820152602b60248201527f496e697469616c697a61626c653a20636f6e7472616374206973206e6f74206960448201526a6e697469616c697a696e6760a81b6064820152608490fd5b15612b9957565b60405162461bcd60e51b815260206004820152601a60248201527f76657374696e6720636c696666206265666f72652073746172740000000000006044820152606490fd5b15612be557565b60405162461bcd60e51b815260206004820152601860248201527f76657374696e6720656e64206265666f726520636c69666600000000000000006044820152606490fd5b15612c3157565b60405162461bcd60e51b815260206004820152602a60248201527f76657374696e6720656e6473206166746572203431303234343438303020284a604482015269616e203120323130302960b01b6064820152608490fd5b9092916001600160401b0384116105ab578360051b60209283604051612cb18285018261061c565b809781520191810192831161052557905b828210612ccf5750505050565b81358152908301908301612cc2565b6001600160781b03808311612db75761064a9216612d70612d24612d148460018060a01b0316600052600f602052604060002090565b5460801c6001600160781b031690565b612d53612d2f61063d565b60018152916001600160781b03851660208401526001600160781b03166040830152565b6001600160a01b0384166000908152600f60205260409020612f26565b6040516001600160781b039190911681526001600160a01b038216907fdb598eb8e0a3d3d5c2e02e4cab1ee8b65bb20e48fc7b42f4c76272de4cdd243490602090a26125cd565b60405162461bcd60e51b815260206004820152602c60248201527f4469737472696275746f723a20746f74616c416d6f756e74203e20747970652860448201526b0ead2dce8626460525cdac2f60a31b6064820152608490fd5b604051612e1d816105cb565b60008152906000368137565b15612e3057565b60405162461bcd60e51b815260206004820152601760248201527f4469737472696275746f723a20746f74616c20697320300000000000000000006044820152606490fd5b92919083526020606081850152600060135491612e9183612162565b908160608801526080936001908181169081600014612f055750600114612ebf575b50505060409150930152565b6013600090815293506000805160206148118339815191525b838510612ef2575050505090604091850101388080612eb3565b8054898601870152938201938101612ed8565b92505050604093925060ff191682870152151560051b850101388080612eb3565b815181546020840151610100600160801b0360089190911b1691151560ff166fffffffffffffffffffffffffffffffff199091161717815561064a916001600160781b0390604001518254600160801b600160f81b031916911660801b600160801b600160f81b0316179055565b60207f47cee97cb7acd717b3c0aa1435d004cd5b3c8c57d70dbceb4e4458bbd60e39d49160018060a01b0390612fcf85828460105416613ec7565b6040519485521692a2565b6001600160a01b0381166000908152600f602052604090205460ff1615613087576001600160a01b0381166000908152600f6020526040902061301c906123bd565b9061306f604061306061305761304761303f60208801516001600160781b031690565b954290612874565b6001600160781b0380961661268a565b601454906126b3565b9301516001600160781b031690565b1681811061307e575050600090565b610443916125a7565b60405162461bcd60e51b815260206004820152602260248201527f4469737472696275746f723a20636c61696d206e6f7420696e697469616c697a604482015261195960f21b6064820152608490fd5b906130e960ff60005460081c16612b32565b601680546001600160a01b039384166001600160a01b031991821681179092559092831560008161315c575061268557837fdccb8d94a5bbd764ed844afa20f2581be18d3fa84b36855e86a8f0c9316cba7d928261064a96602094045b16906015541617601555604051908152a161318d565b61064a959150926020927fdccb8d94a5bbd764ed844afa20f2581be18d3fa84b36855e86a8f0c9316cba7d94613146565b6015546001600160a01b03919082161561321557818116156131d0576000194301438111610d29578290401618166001600160601b0360a01b6017541617601755565b60405162461bcd60e51b815260206004820152601860248201527f492064656d616e64206d6f72652072616e646f6d6e65737300000000000000006044820152606490fd5b5050565b6015546001600160a01b039190821690811561324057829081806017541691161816041690565b505050600090565b60207f914960aef5e033ce5cae8a7992d4b7a6f0f9741227b66acb67c605b7019f8a469161327d60ff60005460081c16612b32565b80601c55604051908152a1565b601c5492600092915b82518410156132df576020808560051b850101519160008382106000146132d257506000525260406000205b926000198114610d295760010192613293565b91604093835252206132bf565b9150929150036132eb57565b60405162461bcd60e51b815260206004820152600d60248201526c34b73b30b634b210383937b7b360991b6044820152606490fd5b90816020910312610525575190565b6040513d6000823e3d90fd5b3d15613366573d9061334c82610659565b9161335a604051938461061c565b82523d6000602084013e565b606090565b1561337257565b60405162461bcd60e51b815260206004820152601060248201526f2a3930b739b332b9103330b4b632b21760811b6044820152606490fd5b600180546001600160a01b0319166001600160a01b0390921691821790556040519081527fccdd1baf560d2682736fa25752c8ccc0c5fc4079b245b0acf7389776308d5b1f90602090a1565b60005460101c6001600160a01b0316330361340d57565b606460405162461bcd60e51b815260206004820152602060248201527f4f776e61626c653a2063616c6c6572206973206e6f7420746865206f776e65726044820152fd5b6000805462010000600160b01b03198116601084811b62010000600160b01b03169190911783556001600160a01b039384169391901c16907f8be0079c531659141344cd1fd0a4f28419497f9722a3daafe3b4186f6b6457e09080a3565b60405162461bcd60e51b81526020600482015260196024820152783234b9b0b13632b2103337b9103b37ba34b733903837bbb2b960391b6044820152606490fd5b156134f757565b60405162461bcd60e51b815260206004820152601e60248201527f45524332305065726d69743a20696e76616c6964207369676e617475726500006044820152606490fd5b80548210156135545760005260206000200190600090565b634e487b7160e01b600052603260045260246000fd5b90604051613577816105b0565b602081935463ffffffff81168352811c910152565b1561359357565b60405162461bcd60e51b815260206004820152601960248201527f4552433230566f7465733a20667574757265206c6f6f6b7570000000000000006044820152606490fd5b156135df57565b60405162461bcd60e51b815260206004820152601960248201527f4552433230566f7465733a20696e76616c6964206e6f6e6365000000000000006044820152606490fd5b1561362b57565b60405162461bcd60e51b815260206004820152603060248201527f4552433230566f7465733a20746f74616c20737570706c79207269736b73206f60448201526f766572666c6f77696e6720766f74657360801b6064820152608490fd5b906001600160a01b038216801561372257600454828101809111610d295761321593613707926136b98593600455565b6001600160a01b0382166000908152600260209081526040808320805487019055518581527fddf252ad1be2c89b69c2b068fc378daa952ba7f163c4a11628f55a4df523b3ef9190a36138b5565b60045461371d906001600160e01b031015613624565b613c9b565b60405162461bcd60e51b815260206004820152601f60248201527f45524332303a206d696e7420746f20746865207a65726f2061646472657373006044820152606490fd5b6001600160a01b0381169190821561380f578181600061321595836137a161380a9660018060a01b03166000526002602052604060002090565b546137ae8282101561385e565b036137cb8460018060a01b03166000526002602052604060002090565b556137d98460045403600455565b6040518481527fddf252ad1be2c89b69c2b068fc378daa952ba7f163c4a11628f55a4df523b3ef90602090a3613900565b613d8b565b60405162461bcd60e51b815260206004820152602160248201527f45524332303a206275726e2066726f6d20746865207a65726f206164647265736044820152607360f81b6064820152608490fd5b1561386557565b60405162461bcd60e51b815260206004820152602260248201527f45524332303a206275726e20616d6f756e7420657863656564732062616c616e604482015261636560f01b6064820152608490fd5b600b6020527fdf7de25b7f1fd6d0b5205f0e18f1f35bd7b8d84cce336588d184533ce43a6f76546001600160a01b039182166000908152604090205461064a939290811691166139be565b6001600160a01b039081166000908152600b60205260408120549080527fdf7de25b7f1fd6d0b5205f0e18f1f35bd7b8d84cce336588d184533ce43a6f765461064a939290811691166139be565b61064a9160018060a01b03809216600092818452600b60205280604085205416809260026020527f3134e8a2e6d97e929a7e54011ea5485d7d196dd5f0ba4d4ef95803e8e3fc257f604087205496600b6020526040812094871694856001600160601b0360a01b82541617905580a45b6001600160a01b03808316939291168084141580613bd1575b6139e2575b50505050565b80613a50575b50826139f5575b806139dc565b6001600160a01b03166000908152600c602052604090207fdec2bacdd2f05b59de34da9b523dff8be42e5e38e818c82fdb0bae774387a72491613a3791613de4565b60408051928352602083019190915290a23880806139ef565b80600052600c6020527fdec2bacdd2f05b59de34da9b523dff8be42e5e38e818c82fdb0bae774387a7246040600020805480159182600014613bae57613a9461064c565b6000815260006020820152915b6020830151613ac0906001600160e01b03165b6001600160e01b031690565b92613acb89856147f6565b94159081613b8b575b5015613b2957613afc613b1392613aea866146c1565b92600019019060005260206000200190565b9063ffffffff82549181199060201b169116179055565b604080519182526020820192909252a2386139e8565b50613b8690613b4d613b48613b3d4361472a565b65ffffffffffff1690565b614791565b90613b81613b5a866146c1565b613b71613b6561064c565b63ffffffff9095168552565b6001600160e01b03166020840152565b613c41565b613b13565b5163ffffffff16905063ffffffff613ba5613b3d4361472a565b91161438613ad4565b613bcb613bc660001984018360005260206000200190565b61356a565b91613aa1565b508215156139d7565b600d5490600160401b8210156105ab576001820180600d5582101561355457600d600052805160209182015190911b63ffffffff191663ffffffff91909116177fd7b6990105719101dabeb77144f2a3385c8033acd3af97e9423a695e81ad1eb590910155565b8054600160401b8110156105ab57613c5e9160018201815561353c565b613c8557815160209283015190921b63ffffffff191663ffffffff92909216919091179055565b634e487b7160e01b600052600060045260246000fd5b600d5490918115918215613d7657613cb161064c565b60008152600060208201525b6020810151613cdf90613cd8906001600160e01b0316613ab4565b9586614803565b93159081613d53575b5015613d085761064a90613afc613cfe856146c1565b9160001901613e9d565b5061064a613d1b613b48613b3d4361472a565b613d4e613d27856146c1565b613d3e613d3261064c565b63ffffffff9094168452565b6001600160e01b03166020830152565b613bda565b5163ffffffff16905063ffffffff613d6d613b3d4361472a565b91161438613ce8565b613d86613bc66000198301613e9d565b613cbd565b600d5490918115918215613dcf57613da161064c565b60008152600060208201525b6020810151613cdf90613dc8906001600160e01b0316613ab4565b95866147f6565b613ddf613bc66000198301613e9d565b613dad565b909181549182159283600014613e8057613dfc61064c565b60008152600060208201525b6020810151613e2a90613e23906001600160e01b0316613ab4565b9687614803565b94159081613e5d575b5015613e4957613afc61064a92613aea866146c1565b5061064a90613b4d613b48613b3d4361472a565b5163ffffffff16905063ffffffff613e77613b3d4361472a565b91161438613e33565b613e98613bc660001983018460005260206000200190565b613e08565b600d6000527fd7b6990105719101dabeb77144f2a3385c8033acd3af97e9423a695e81ad1eb50190565b60405163a9059cbb60e01b602082019081526001600160a01b039384166024830152604480830195909552938152613f56929091613f04836105e6565b1660405191613f12836105b0565b602083527f5361666545524332303a206c6f772d6c6576656c2063616c6c206661696c65646020840152600080958192519082855af1613f5061333b565b91613ffb565b8051908115918215613f6f575b505061064a9150613f9c565b8192509060209181010312613f985760200151908115158203610522575061064a903880613f63565b5080fd5b15613fa357565b60405162461bcd60e51b815260206004820152602a60248201527f5361666545524332303a204552433230206f7065726174696f6e20646964206e6044820152691bdd081cdd58d8d9595960b21b6064820152608490fd5b9192901561405d575081511561400f575090565b3b156140185790565b60405162461bcd60e51b815260206004820152601d60248201527f416464726573733a2063616c6c20746f206e6f6e2d636f6e74726163740000006044820152606490fd5b8251909150156140705750805190602001fd5b60405162461bcd60e51b815290819061408c9060048301610432565b0390fd5b91610443939161409f936141e7565b9190916140c7565b600511156140b157565b634e487b7160e01b600052602160045260246000fd5b6140d0816140a7565b806140d85750565b6140e1816140a7565b6001810361412e5760405162461bcd60e51b815260206004820152601860248201527f45434453413a20696e76616c6964207369676e617475726500000000000000006044820152606490fd5b614137816140a7565b600281036141845760405162461bcd60e51b815260206004820152601f60248201527f45434453413a20696e76616c6964207369676e6174757265206c656e677468006044820152606490fd5b806141906003926140a7565b1461419757565b60405162461bcd60e51b815260206004820152602260248201527f45434453413a20696e76616c6964207369676e6174757265202773272076616c604482015261756560f01b6064820152608490fd5b9291907f7fffffffffffffffffffffffffffffff5d576e7357a4501ddfe92f46681b20a0831161425d5791608094939160ff602094604051948552168484015260408301526060820152600093849182805260015afa156108b45781516001600160a01b03811615614257579190565b50600190565b50505050600090600390565b307f00000000000000000000000000000000000000000000000000000000000000006001600160a01b0316148061435a575b156142c4577f000000000000000000000000000000000000000000000000000000000000000090565b60405160208101907f8b73c3c69bb8fe3d512ecc4cf759cc79239f7b179b0ffacaa9a75d522b39400f82527f000000000000000000000000000000000000000000000000000000000000000060408201527f000000000000000000000000000000000000000000000000000000000000000060608201524660808201523060a082015260a0815261435481610601565b51902090565b507f0000000000000000000000000000000000000000000000000000000000000000461461429b565b60429061438e614269565b906040519161190160f01b8352600283015260228201522090565b60ff81146143e75760ff811690601f82116143d557604051916143cb836105b0565b8252602082015290565b604051632cd44ac360e21b8152600490fd5b506040516007548160006143fa83612162565b8083526020936001908181169081156144835750600114614424575b50506104439250038261061c565b9093915060076000527fa66cc928b5edb82af9bd49922954155ab7b0942694bea4ce44661d9a8736c688936000915b81831061446b57505061044393508201013880614416565b85548784018501529485019486945091830191614453565b91505061044394925060ff191682840152151560051b8201013880614416565b60ff81146144c55760ff811690601f82116143d557604051916143cb836105b0565b506040516008548160006144d883612162565b80835260209360019081811690811561448357506001146145015750506104439250038261061c565b9093915060086000527ff3f7a9fe364faab93b216da50a3214154f22a0a2b415b23a84c8169e8b636ee3936000915b81831061454857505061044393508201013880614416565b85548784018501529485019486945091830191614530565b90808216911860011c8101809111610d295790565b80156128d3578061464861464161463761462d61462361461961460f61460560016104439a6000908b60801c806146a3575b508060401c80614696575b508060201c80614689575b508060101c8061467c575b508060081c8061466f575b508060041c80614662575b508060021c80614655575b50821c61464e575b811c1b6145fe818b6126b3565b0160011c90565b6145fe818a6126b3565b6145fe81896126b3565b6145fe81886126b3565b6145fe81876126b3565b6145fe81866126b3565b6145fe81856126b3565b80926126b3565b906146af565b81016145f1565b60029150910190386145e9565b60049150910190386145de565b60089150910190386145d3565b60109150910190386145c8565b60209150910190386145bd565b60409150910190386145b2565b915050608090386145a7565b90808210156146bc575090565b905090565b6001600160e01b03908181116146d5571690565b60405162461bcd60e51b815260206004820152602760248201527f53616665436173743a2076616c756520646f65736e27742066697420696e20326044820152663234206269747360c81b6064820152608490fd5b65ffffffffffff9081811161473d571690565b60405162461bcd60e51b815260206004820152602660248201527f53616665436173743a2076616c756520646f65736e27742066697420696e203460448201526538206269747360d01b6064820152608490fd5b63ffffffff908181116147a2571690565b60405162461bcd60e51b815260206004820152602660248201527f53616665436173743a2076616c756520646f65736e27742066697420696e203360448201526532206269747360d01b6064820152608490fd5b908103908111610d295790565b908101809111610d29579056fe66de8ffda797e3de9c05e8fc57b3bf0ec28a930d40b0d285d93c06501cf6a090a26469706673582212201a526fd3049d49bbc63a880d1e577c70b265bdb8ecf44bcb1ab833ef2188405a64736f6c63430008150033","linkReferences":{}},"methodIdentifiers":{"CLOCK_MODE()":"4bf5d7e9","DOMAIN_SEPARATOR()":"3644e515","NAME()":"a3f4df7e","VERSION()":"ffa1ad74","adjust(address,int256)":"75aa9bc6","allowance(address,address)":"dd62ed3e","approve(address,uint256)":"095ea7b3","balanceOf(address)":"70a08231","checkpoints(address,uint32)":"f1127ed8","claim(uint256,address,uint256,bytes32[])":"2e7ba6ef","claimed()":"e834a834","clock()":"91ddadf4","decimals()":"313ce567","decreaseAllowance(address,uint256)":"a457c2d7","delegate(address)":"5c19a95c","delegateBySig(address,uint256,uint256,uint8,bytes32,bytes32)":"c3cda520","delegates(address)":"587cde1e","distancePerSecond()":"c6e8d982","eip712Domain()":"84b0196e","getClaimableAmount(address,bytes)":"13c67ce5","getDistributionRecord(address)":"e85858d9","getFairDelayTime(address)":"a4ef1f78","getFractionDenominator()":"0f56b96c","getMerkleRoot()":"49590657","getPastTotalSupply(uint256)":"8e539e8c","getPastVotes(address,uint256)":"3a46b1a8","getSweepRecipient()":"c78d5985","getTotalVotes()":"9a0e7d66","getVestedFraction(address,uint256,bytes)":"d3d0ec89","getVestingConfig()":"bf38b5c8","getVoteFactor(address)":"bb22dccb","getVotes(address)":"9ab24eb0","increaseAllowance(address,uint256)":"39509351","initialize(address,uint256,string,uint256,uint256,uint256,bytes32,uint160,address)":"a011c8cc","initializeDistributionRecord(uint256,address,uint256,bytes32[])":"684de1f5","maxDelayTime()":"f56c8547","name()":"06fdde03","nonces(address)":"7ecebe00","numCheckpoints(address)":"6fcfff45","owner()":"8da5cb5b","permit(address,address,uint256,uint256,uint8,bytes32,bytes32)":"d505accf","randomValue()":"276801ec","renounceOwnership()":"715018a6","setMerkleRoot(bytes32)":"7cb64759","setSweepRecipient(address)":"de032f58","setToken(address)":"144fa6d7","setTotal(uint256)":"1f8d1d50","setUri(string)":"9b642de1","setVestingConfig(uint256,uint256,uint256)":"c32b1326","setVoteFactor(uint256)":"c9557255","sweepNative()":"ab803a76","sweepNative(uint256)":"3cf3a025","sweepToken(address)":"1be19560","sweepToken(address,uint256)":"e90a182f","symbol()":"95d89b41","token()":"fc0c546a","total()":"2ddbd13a","totalSupply()":"18160ddd","transfer(address,uint256)":"a9059cbb","transferFrom(address,address,uint256)":"23b872dd","transferOwnership(address)":"f2fde38b","uri()":"eac989f8"},"id":17}