{"abi":[{"type":"constructor","inputs":[{"name":"_merkleRoot","type":"bytes32","internalType":"bytes32"}],"stateMutability":"nonpayable"},{"type":"function","name":"getMerkleRoot","inputs":[],"outputs":[{"name":"","type":"bytes32","internalType":"bytes32"}],"stateMutability":"view"},{"type":"event","name":"SetMerkleRoot","inputs":[{"name":"merkleRoot","type":"bytes32","indexed":false,"internalType":"bytes32"}],"anonymous":false}],"bytecode":{"object":"0x60803461007c57601f61011038819003918201601f19168301916001600160401b038311848410176100815780849260209460405283398101031261007c5760207f914960aef5e033ce5cae8a7992d4b7a6f0f9741227b66acb67c605b7019f8a46915180600055604051908152a1604051607890816100988239f35b600080fd5b634e487b7160e01b600052604160045260246000fdfe6080806040526004361015601257600080fd5b600090813560e01c634959065714602857600080fd5b34603e5781600319360112603e57602091548152f35b5080fdfea2646970667358221220da8bbb82987841166d8620bc143d2074856ff26a9336490d70ef05053ab393d764736f6c63430008150033","linkReferences":{}},"methodIdentifiers":{"getMerkleRoot()":"49590657"},"id":12}