{"abi":[{"type":"constructor","inputs":[],"stateMutability":"nonpayable"},{"type":"function","name":"CLOCK_MODE","inputs":[],"outputs":[{"name":"","type":"string","internalType":"string"}],"stateMutability":"view"},{"type":"function","name":"DOMAIN_SEPARATOR","inputs":[],"outputs":[{"name":"","type":"bytes32","internalType":"bytes32"}],"stateMutability":"view"},{"type":"function","name":"NAME","inputs":[],"outputs":[{"name":"","type":"string","internalType":"string"}],"stateMutability":"pure"},{"type":"function","name":"VERSION","inputs":[],"outputs":[{"name":"","type":"uint256","internalType":"uint256"}],"stateMutability":"pure"},{"type":"function","name":"adjust","inputs":[{"name":"beneficiary","type":"address","internalType":"address"},{"name":"amount","type":"int256","internalType":"int256"}],"outputs":[],"stateMutability":"nonpayable"},{"type":"function","name":"allowance","inputs":[{"name":"owner","type":"address","internalType":"address"},{"name":"spender","type":"address","internalType":"address"}],"outputs":[{"name":"","type":"uint256","internalType":"uint256"}],"stateMutability":"view"},{"type":"function","name":"approve","inputs":[{"name":"spender","type":"address","internalType":"address"},{"name":"amount","type":"uint256","internalType":"uint256"}],"outputs":[{"name":"","type":"bool","internalType":"bool"}],"stateMutability":"nonpayable"},{"type":"function","name":"balanceOf","inputs":[{"name":"account","type":"address","internalType":"address"}],"outputs":[{"name":"","type":"uint256","internalType":"uint256"}],"stateMutability":"view"},{"type":"function","name":"checkpoints","inputs":[{"name":"account","type":"address","internalType":"address"},{"name":"pos","type":"uint32","internalType":"uint32"}],"outputs":[{"name":"","type":"tuple","internalType":"struct ERC20Votes.Checkpoint","components":[{"name":"fromBlock","type":"uint32","internalType":"uint32"},{"name":"votes","type":"uint224","internalType":"uint224"}]}],"stateMutability":"view"},{"type":"function","name":"claim","inputs":[{"name":"index","type":"uint256","internalType":"uint256"},{"name":"beneficiary","type":"address","internalType":"address"},{"name":"totalAmount","type":"uint256","internalType":"uint256"},{"name":"merkleProof","type":"bytes32[]","internalType":"bytes32[]"}],"outputs":[],"stateMutability":"nonpayable"},{"type":"function","name":"claimed","inputs":[],"outputs":[{"name":"","type":"uint256","internalType":"uint256"}],"stateMutability":"view"},{"type":"function","name":"clock","inputs":[],"outputs":[{"name":"","type":"uint48","internalType":"uint48"}],"stateMutability":"view"},{"type":"function","name":"decimals","inputs":[],"outputs":[{"name":"","type":"uint8","internalType":"uint8"}],"stateMutability":"view"},{"type":"function","name":"decreaseAllowance","inputs":[{"name":"spender","type":"address","internalType":"address"},{"name":"subtractedValue","type":"uint256","internalType":"uint256"}],"outputs":[{"name":"","type":"bool","internalType":"bool"}],"stateMutability":"nonpayable"},{"type":"function","name":"delegate","inputs":[{"name":"delegatee","type":"address","internalType":"address"}],"outputs":[],"stateMutability":"nonpayable"},{"type":"function","name":"delegateBySig","inputs":[{"name":"delegatee","type":"address","internalType":"address"},{"name":"nonce","type":"uint256","internalType":"uint256"},{"name":"expiry","type":"uint256","internalType":"uint256"},{"name":"v","type":"uint8","internalType":"uint8"},{"name":"r","type":"bytes32","internalType":"bytes32"},{"name":"s","type":"bytes32","internalType":"bytes32"}],"outputs":[],"stateMutability":"nonpayable"},{"type":"function","name":"delegates","inputs":[{"name":"account","type":"address","internalType":"address"}],"outputs":[{"name":"","type":"address","internalType":"address"}],"stateMutability":"view"},{"type":"function","name":"distancePerSecond","inputs":[],"outputs":[{"name":"","type":"uint160","internalType":"uint160"}],"stateMutability":"view"},{"type":"function","name":"eip712Domain","inputs":[],"outputs":[{"name":"fields","type":"bytes1","internalType":"bytes1"},{"name":"name","type":"string","internalType":"string"},{"name":"version","type":"string","internalType":"string"},{"name":"chainId","type":"uint256","internalType":"uint256"},{"name":"verifyingContract","type":"address","internalType":"address"},{"name":"salt","type":"bytes32","internalType":"bytes32"},{"name":"extensions","type":"uint256[]","internalType":"uint256[]"}],"stateMutability":"view"},{"type":"function","name":"getClaimableAmount","inputs":[{"name":"beneficiary","type":"address","internalType":"address"},{"name":"data","type":"bytes","internalType":"bytes"}],"outputs":[{"name":"","type":"uint256","internalType":"uint256"}],"stateMutability":"view"},{"type":"function","name":"getDistributionRecord","inputs":[{"name":"beneficiary","type":"address","internalType":"address"}],"outputs":[{"name":"","type":"tuple","internalType":"struct DistributionRecord","components":[{"name":"initialized","type":"bool","internalType":"bool"},{"name":"total","type":"uint120","internalType":"uint120"},{"name":"claimed","type":"uint120","internalType":"uint120"}]}],"stateMutability":"view"},{"type":"function","name":"getFairDelayTime","inputs":[{"name":"user","type":"address","internalType":"address"}],"outputs":[{"name":"","type":"uint256","internalType":"uint256"}],"stateMutability":"view"},{"type":"function","name":"getFractionDenominator","inputs":[],"outputs":[{"name":"","type":"uint256","internalType":"uint256"}],"stateMutability":"view"},{"type":"function","name":"getMerkleRoot","inputs":[],"outputs":[{"name":"","type":"bytes32","internalType":"bytes32"}],"stateMutability":"view"},{"type":"function","name":"getPastTotalSupply","inputs":[{"name":"timepoint","type":"uint256","internalType":"uint256"}],"outputs":[{"name":"","type":"uint256","internalType":"uint256"}],"stateMutability":"view"},{"type":"function","name":"getPastVotes","inputs":[{"name":"account","type":"address","internalType":"address"},{"name":"timepoint","type":"uint256","internalType":"uint256"}],"outputs":[{"name":"","type":"uint256","internalType":"uint256"}],"stateMutability":"view"},{"type":"function","name":"getSweepRecipient","inputs":[],"outputs":[{"name":"","type":"address","internalType":"address payable"}],"stateMutability":"view"},{"type":"function","name":"getTotalVotes","inputs":[],"outputs":[{"name":"","type":"uint256","internalType":"uint256"}],"stateMutability":"view"},{"type":"function","name":"getTranche","inputs":[{"name":"i","type":"uint256","internalType":"uint256"}],"outputs":[{"name":"","type":"tuple","internalType":"struct Tranche","components":[{"name":"time","type":"uint128","internalType":"uint128"},{"name":"vestedFraction","type":"uint128","internalType":"uint128"}]}],"stateMutability":"view"},{"type":"function","name":"getTranches","inputs":[],"outputs":[{"name":"","type":"tuple[]","internalType":"struct Tranche[]","components":[{"name":"time","type":"uint128","internalType":"uint128"},{"name":"vestedFraction","type":"uint128","internalType":"uint128"}]}],"stateMutability":"view"},{"type":"function","name":"getVestedFraction","inputs":[{"name":"beneficiary","type":"address","internalType":"address"},{"name":"time","type":"uint256","internalType":"uint256"},{"name":"","type":"bytes","internalType":"bytes"}],"outputs":[{"name":"","type":"uint256","internalType":"uint256"}],"stateMutability":"view"},{"type":"function","name":"getVoteFactor","inputs":[{"name":"","type":"address","internalType":"address"}],"outputs":[{"name":"","type":"uint256","internalType":"uint256"}],"stateMutability":"view"},{"type":"function","name":"getVotes","inputs":[{"name":"account","type":"address","internalType":"address"}],"outputs":[{"name":"","type":"uint256","internalType":"uint256"}],"stateMutability":"view"},{"type":"function","name":"increaseAllowance","inputs":[{"name":"spender","type":"address","internalType":"address"},{"name":"addedValue","type":"uint256","internalType":"uint256"}],"outputs":[{"name":"","type":"bool","internalType":"bool"}],"stateMutability":"nonpayable"},{"type":"function","name":"initialize","inputs":[{"name":"_token","type":"address","internalType":"contract IERC20"},{"name":"_total","type":"uint256","internalType":"uint256"},{"name":"_uri","type":"string","internalType":"string"},{"name":"_tranches","type":"tuple[]","internalType":"struct Tranche[]","components":[{"name":"time","type":"uint128","internalType":"uint128"},{"name":"vestedFraction","type":"uint128","internalType":"uint128"}]},{"name":"_merkleRoot","type":"bytes32","internalType":"bytes32"},{"name":"_maxDelayTime","type":"uint160","internalType":"uint160"},{"name":"_owner","type":"address","internalType":"address"}],"outputs":[],"stateMutability":"nonpayable"},{"type":"function","name":"initializeDistributionRecord","inputs":[{"name":"index","type":"uint256","internalType":"uint256"},{"name":"beneficiary","type":"address","internalType":"address"},{"name":"amount","type":"uint256","internalType":"uint256"},{"name":"merkleProof","type":"bytes32[]","internalType":"bytes32[]"}],"outputs":[],"stateMutability":"nonpayable"},{"type":"function","name":"maxDelayTime","inputs":[],"outputs":[{"name":"","type":"uint160","internalType":"uint160"}],"stateMutability":"view"},{"type":"function","name":"name","inputs":[],"outputs":[{"name":"","type":"string","internalType":"string"}],"stateMutability":"view"},{"type":"function","name":"nonces","inputs":[{"name":"owner","type":"address","internalType":"address"}],"outputs":[{"name":"","type":"uint256","internalType":"uint256"}],"stateMutability":"view"},{"type":"function","name":"numCheckpoints","inputs":[{"name":"account","type":"address","internalType":"address"}],"outputs":[{"name":"","type":"uint32","internalType":"uint32"}],"stateMutability":"view"},{"type":"function","name":"owner","inputs":[],"outputs":[{"name":"","type":"address","internalType":"address"}],"stateMutability":"view"},{"type":"function","name":"permit","inputs":[{"name":"owner","type":"address","internalType":"address"},{"name":"spender","type":"address","internalType":"address"},{"name":"value","type":"uint256","internalType":"uint256"},{"name":"deadline","type":"uint256","internalType":"uint256"},{"name":"v","type":"uint8","internalType":"uint8"},{"name":"r","type":"bytes32","internalType":"bytes32"},{"name":"s","type":"bytes32","internalType":"bytes32"}],"outputs":[],"stateMutability":"nonpayable"},{"type":"function","name":"randomValue","inputs":[],"outputs":[{"name":"","type":"uint160","internalType":"uint160"}],"stateMutability":"view"},{"type":"function","name":"renounceOwnership","inputs":[],"outputs":[],"stateMutability":"nonpayable"},{"type":"function","name":"setMerkleRoot","inputs":[{"name":"_merkleRoot","type":"bytes32","internalType":"bytes32"}],"outputs":[],"stateMutability":"nonpayable"},{"type":"function","name":"setSweepRecipient","inputs":[{"name":"_recipient","type":"address","internalType":"address payable"}],"outputs":[],"stateMutability":"nonpayable"},{"type":"function","name":"setToken","inputs":[{"name":"_token","type":"address","internalType":"contract IERC20"}],"outputs":[],"stateMutability":"nonpayable"},{"type":"function","name":"setTotal","inputs":[{"name":"_total","type":"uint256","internalType":"uint256"}],"outputs":[],"stateMutability":"nonpayable"},{"type":"function","name":"setTranches","inputs":[{"name":"_tranches","type":"tuple[]","internalType":"struct Tranche[]","components":[{"name":"time","type":"uint128","internalType":"uint128"},{"name":"vestedFraction","type":"uint128","internalType":"uint128"}]}],"outputs":[],"stateMutability":"nonpayable"},{"type":"function","name":"setUri","inputs":[{"name":"_uri","type":"string","internalType":"string"}],"outputs":[],"stateMutability":"nonpayable"},{"type":"function","name":"setVoteFactor","inputs":[{"name":"_voteFactor","type":"uint256","internalType":"uint256"}],"outputs":[],"stateMutability":"nonpayable"},{"type":"function","name":"sweepNative","inputs":[{"name":"amount","type":"uint256","internalType":"uint256"}],"outputs":[],"stateMutability":"nonpayable"},{"type":"function","name":"sweepNative","inputs":[],"outputs":[],"stateMutability":"nonpayable"},{"type":"function","name":"sweepToken","inputs":[{"name":"token","type":"address","internalType":"contract IERC20"}],"outputs":[],"stateMutability":"nonpayable"},{"type":"function","name":"sweepToken","inputs":[{"name":"token","type":"address","internalType":"contract IERC20"},{"name":"amount","type":"uint256","internalType":"uint256"}],"outputs":[],"stateMutability":"nonpayable"},{"type":"function","name":"symbol","inputs":[],"outputs":[{"name":"","type":"string","internalType":"string"}],"stateMutability":"view"},{"type":"function","name":"token","inputs":[],"outputs":[{"name":"","type":"address","internalType":"contract IERC20"}],"stateMutability":"view"},{"type":"function","name":"total","inputs":[],"outputs":[{"name":"","type":"uint256","internalType":"uint256"}],"stateMutability":"view"},{"type":"function","name":"totalSupply","inputs":[],"outputs":[{"name":"","type":"uint256","internalType":"uint256"}],"stateMutability":"view"},{"type":"function","name":"transfer","inputs":[{"name":"to","type":"address","internalType":"address"},{"name":"amount","type":"uint256","internalType":"uint256"}],"outputs":[{"name":"","type":"bool","internalType":"bool"}],"stateMutability":"nonpayable"},{"type":"function","name":"transferFrom","inputs":[{"name":"from","type":"address","internalType":"address"},{"name":"to","type":"address","internalType":"address"},{"name":"amount","type":"uint256","internalType":"uint256"}],"outputs":[{"name":"","type":"bool","internalType":"bool"}],"stateMutability":"nonpayable"},{"type":"function","name":"transferOwnership","inputs":[{"name":"newOwner","type":"address","internalType":"address"}],"outputs":[],"stateMutability":"nonpayable"},{"type":"function","name":"uri","inputs":[],"outputs":[{"name":"","type":"string","internalType":"string"}],"stateMutability":"view"},{"type":"event","name":"Adjust","inputs":[{"name":"beneficiary","type":"address","indexed":true,"internalType":"address"},{"name":"amount","type":"int256","indexed":false,"internalType":"int256"}],"anonymous":false},{"type":"event","name":"Approval","inputs":[{"name":"owner","type":"address","indexed":true,"internalType":"address"},{"name":"spender","type":"address","indexed":true,"internalType":"address"},{"name":"value","type":"uint256","indexed":false,"internalType":"uint256"}],"anonymous":false},{"type":"event","name":"Claim","inputs":[{"name":"beneficiary","type":"address","indexed":true,"internalType":"address"},{"name":"amount","type":"uint256","indexed":false,"internalType":"uint256"}],"anonymous":false},{"type":"event","name":"DelegateChanged","inputs":[{"name":"delegator","type":"address","indexed":true,"internalType":"address"},{"name":"fromDelegate","type":"address","indexed":true,"internalType":"address"},{"name":"toDelegate","type":"address","indexed":true,"internalType":"address"}],"anonymous":false},{"type":"event","name":"DelegateVotesChanged","inputs":[{"name":"delegate","type":"address","indexed":true,"internalType":"address"},{"name":"previousBalance","type":"uint256","indexed":false,"internalType":"uint256"},{"name":"newBalance","type":"uint256","indexed":false,"internalType":"uint256"}],"anonymous":false},{"type":"event","name":"EIP712DomainChanged","inputs":[],"anonymous":false},{"type":"event","name":"InitializeDistributionRecord","inputs":[{"name":"beneficiary","type":"address","indexed":true,"internalType":"address"},{"name":"total","type":"uint256","indexed":false,"internalType":"uint256"}],"anonymous":false},{"type":"event","name":"InitializeDistributor","inputs":[{"name":"token","type":"address","indexed":true,"internalType":"contract IERC20"},{"name":"total","type":"uint256","indexed":false,"internalType":"uint256"},{"name":"uri","type":"string","indexed":false,"internalType":"string"},{"name":"fractionDenominator","type":"uint256","indexed":false,"internalType":"uint256"}],"anonymous":false},{"type":"event","name":"Initialized","inputs":[{"name":"version","type":"uint8","indexed":false,"internalType":"uint8"}],"anonymous":false},{"type":"event","name":"OwnershipTransferred","inputs":[{"name":"previousOwner","type":"address","indexed":true,"internalType":"address"},{"name":"newOwner","type":"address","indexed":true,"internalType":"address"}],"anonymous":false},{"type":"event","name":"SetDelay","inputs":[{"name":"maxDelayTime","type":"uint160","indexed":false,"internalType":"uint160"}],"anonymous":false},{"type":"event","name":"SetMerkleRoot","inputs":[{"name":"merkleRoot","type":"bytes32","indexed":false,"internalType":"bytes32"}],"anonymous":false},{"type":"event","name":"SetSweepRecipient","inputs":[{"name":"recipient","type":"address","indexed":false,"internalType":"address"}],"anonymous":false},{"type":"event","name":"SetToken","inputs":[{"name":"token","type":"address","indexed":true,"internalType":"contract IERC20"}],"anonymous":false},{"type":"event","name":"SetTotal","inputs":[{"name":"total","type":"uint256","indexed":false,"internalType":"uint256"}],"anonymous":false},{"type":"event","name":"SetTranche","inputs":[{"name":"index","type":"uint256","indexed":true,"internalType":"uint256"},{"name":"time","type":"uint128","indexed":false,"internalType":"uint128"},{"name":"VestedFraction","type":"uint128","indexed":false,"internalType":"uint128"}],"anonymous":false},{"type":"event","name":"SetUri","inputs":[{"name":"uri","type":"string","indexed":true,"internalType":"string"}],"anonymous":false},{"type":"event","name":"SetVoteFactor","inputs":[{"name":"voteFactor","type":"uint256","indexed":false,"internalType":"uint256"}],"anonymous":false},{"type":"event","name":"SweepNative","inputs":[{"name":"amount","type":"uint256","indexed":false,"internalType":"uint256"}],"anonymous":false},{"type":"event","name":"SweepToken","inputs":[{"name":"token","type":"address","indexed":true,"internalType":"address"},{"name":"amount","type":"uint256","indexed":false,"internalType":"uint256"}],"anonymous":false},{"type":"event","name":"Transfer","inputs":[{"name":"from","type":"address","indexed":true,"internalType":"address"},{"name":"to","type":"address","indexed":true,"internalType":"address"},{"name":"value","type":"uint256","indexed":false,"internalType":"uint256"}],"anonymous":false},{"type":"error","name":"InvalidShortString","inputs":[]},{"type":"error","name":"StringTooLong","inputs":[{"name":"str","type":"string","internalType":"string"}]}],"bytecode":{"object":"0x6101606040818152346200058257620000188262000587565b60158252602091828101917f496e7465726e616c20766f746520747261636b6572000000000000000000000093848452815194620000568662000587565b60158652818601528151906200006c8262000587565b600382526212559560ea1b81830152825195620000898762000587565b6001808852603160f81b8389019081526000805462010000600160b01b0319811633601081811b62010000600160b01b031692909217845589519598939693957fccdd1baf560d2682736fa25752c8ccc0c5fc4079b245b0acf7389776308d5b1f9389939192911c6001600160a01b03167f8be0079c531659141344cd1fd0a4f28419497f9722a3daafe3b4186f6b6457e08980a388546001600160a01b031916339081178a558152a180516001600160401b03939091908483116200056e576005928354928984811c9416801562000563575b898510146200046f578190601f9485811162000512575b508990858311600114620004ae578992620004a2575b5050600019600383901b1c191690891b1783555b8051928584116200048e57600654908982811c9216801562000483575b898310146200046f57908392918594821162000418575b505087918311600114620003b2578692620003a6575b5050600019600383901b1c191690861b176006555b6200020887620005b9565b976101209889526200021a8a62000796565b97610140988952519020988960e0525190209361010098858a524660a052865195858701917f8b73c3c69bb8fe3d512ecc4cf759cc79239f7b179b0ffacaa9a75d522b39400f83528888015260608701524660808701523060a087015260a0865260c0860192868410908411176200039257828752855190206080523060c052600e5581549360ff8560081c166200033f57505060ff8084160362000305575b5050505191614cf493846200094f85396080518461470a015260a051846147c5015260c051846146d4015260e051846147590152518361477f01525182611618015251816116420152f35b60ff7f7f26b83ff96e1f2b6a682f133852f6798a09c465da95921460cefb384740249893811916179055825160ff8152a1388080620002ba565b9066616c697a696e6760c81b6101246084938662461bcd60e51b855260c4820152602760e48201527f496e697469616c697a61626c653a20636f6e747261637420697320696e6974696101048201520152fd5b634e487b7160e01b84526041600452602484fd5b015190503880620001e8565b600687528787208994509190601f198416885b8a828210620004015750508411620003e7575b505050811b01600655620001fd565b015160001960f88460031b161c19169055388080620003d8565b8385015186558c97909501949384019301620003c5565b9091929350600688528888209084808701821c8301938b881062000465575b9187968d93969594929601901c01915b828110620004565750620001d2565b8981558695508b910162000447565b9350829362000437565b634e487b7160e01b88526022600452602488fd5b91607f1691620001bb565b634e487b7160e01b87526041600452602487fd5b0151905038806200018a565b868a528a8a208c94509190601f1984168b5b8d828210620004fb5750508411620004e1575b505050811b0183556200019e565b015160001960f88460031b161c19169055388080620004d3565b8385015186558f97909501949384019301620004c0565b90915085895289892085808501881c8201928c861062000559575b918d918695949301891c01915b8281106200054a57505062000174565b8b81558594508d91016200053a565b925081926200052d565b93607f16936200015d565b634e487b7160e01b86526041600452602486fd5b600080fd5b604081019081106001600160401b03821117620005a357604052565b634e487b7160e01b600052604160045260246000fd5b805160209081811015620006565750601f825111620005f55780825192015190808310620005e657501790565b82600019910360031b1b161790565b90604051809263305a27a960e01b82528060048301528251908160248401526000935b8285106200063c575050604492506000838284010152601f80199101168101030190fd5b848101820151868601604401529381019385935062000618565b906001600160401b038211620005a357600754926001938481811c911680156200078b575b838210146200077557601f81116200073b575b5081601f8411600114620006cf5750928293918392600094620006c3575b50501b916000199060031b1c19161760075560ff90565b015192503880620006ac565b919083601f198116600760005284600020946000905b8883831062000720575050501062000706575b505050811b0160075560ff90565b015160001960f88460031b161c19169055388080620006f8565b858701518855909601959485019487935090810190620006e5565b600760005284601f84600020920160051c820191601f860160051c015b828110620007685750506200068e565b6000815501859062000758565b634e487b7160e01b600052602260045260246000fd5b90607f16906200067b565b805160209081811015620008245750601f825111620007c35780825192015190808310620005e657501790565b90604051809263305a27a960e01b82528060048301528251908160248401526000935b8285106200080a575050604492506000838284010152601f80199101168101030190fd5b8481018201518686016044015293810193859350620007e6565b906001600160401b038211620005a357600854926001938481811c9116801562000943575b838210146200077557601f811162000909575b5081601f84116001146200089d575092829391839260009462000891575b50501b916000199060031b1c19161760085560ff90565b0151925038806200087a565b919083601f198116600860005284600020946000905b88838310620008ee5750505010620008d4575b505050811b0160085560ff90565b015160001960f88460031b161c19169055388080620008c6565b858701518855909601959485019487935090810190620008b3565b600860005284601f84600020920160051c820191601f860160051c015b828110620009365750506200085c565b6000815501859062000926565b90607f16906200084956fe6080604052600436101561001257600080fd5b60003560e01c806306fdde03146103fd578063095ea7b31461033a5780630f56b96c146103f857806313c67ce5146103f3578063144fa6d7146103ee57806318160ddd146103585780631be19560146103e95780631f8d1d50146103e457806323b872dd146103df578063276801ec146103da5780632ddbd13a146103d55780632e7ba6ef146103d0578063313ce567146103cb5780633480e6ab146103c65780633644e515146103c157806339509351146103bc5780633a46b1a8146103b75780633cf3a025146103b257806349590657146103ad5780634bf5d7e9146103a8578063587cde1e146103a35780635c19a95c1461039e578063684de1f5146103995780636fcfff451461039457806370a082311461038f578063715018a61461038a57806375aa9bc6146103855780637cb64759146103805780637ecebe001461037b57806384b0196e146103765780638da5cb5b146103715780638e539e8c1461036c57806391ddadf41461036757806395d89b41146103625780639691cab51461035d5780639a0e7d66146103585780639ab24eb0146103535780639b642de11461034e578063a3f4df7e14610349578063a457c2d714610344578063a4ef1f781461033f578063a9059cbb1461033a578063ab803a7614610335578063bb22dccb14610330578063c3cda5201461032b578063c6e8d98214610326578063c78d598514610321578063c95572551461031c578063d3d0ec8914610317578063d505accf14610312578063d972e8ad1461030d578063dc2f511b14610308578063dd62ed3e14610303578063de032f58146102fe578063e834a834146102f9578063e85858d9146102f4578063e90a182f146102ef578063eac989f8146102ea578063f1127ed8146102e5578063f2fde38b146102e0578063f56c8547146102db578063fc0c546a146102d65763ffa1ad74146102d157600080fd5b61254a565b612521565b6124f8565b612467565b6123e7565b612350565b6122a4565b6121ee565b6121d0565b6121a3565b612140565b61205e565b611fee565b611eae565b611e62565b611e16565b611ded565b611dc4565b611c95565b611c4c565b611bf1565b61054b565b611bca565b611b27565b611ac9565b61198b565b611928565b6107c3565b6118e8565b61183f565b611813565b611723565b6116f6565b6115fd565b6115c0565b611574565b61137f565b61131f565b6112e2565b611297565b611240565b61121a565b6111db565b611129565b61110b565b61109c565b610f43565b610ead565b610e92565b610d48565b610c71565b610a5e565b6109e0565b6109b7565b610915565b6108c9565b6107e1565b61071b565b6106cb565b61056c565b610456565b919082519283825260005b84811061042e575050826000602080949584010152601f8019910116010190565b60208183018101518483018201520161040d565b906020610453928181520190610402565b90565b3461053557600080600319360112610532576040518160055461047881612316565b90818452602092600191828116908160001461051057506001146104b7575b6104b3856104a78189038261062c565b60405191829182610442565b0390f35b929450600583527f036b6384b5eca791c62761152d0c79bb0604c104a5fb6f4eb0703f3154bb3db05b8284106104fd57505050816104b3936104a7928201019338610497565b80548585018701529285019281016104e0565b60ff191686860152505050151560051b82010191506104a7816104b338610497565b80fd5b600080fd5b6001600160a01b0381160361053557565b346105355760403660031901126105355761056760043561053a565b613945565b34610535576000366003190112610535576020601454604051908152f35b634e487b7160e01b600052604160045260246000fd5b604081019081106001600160401b038211176105bb57604052565b61058a565b606081019081106001600160401b038211176105bb57604052565b602081019081106001600160401b038211176105bb57604052565b608081019081106001600160401b038211176105bb57604052565b60c081019081106001600160401b038211176105bb57604052565b90601f801991011681019081106001600160401b038211176105bb57604052565b6040519061065a826105c0565b565b6040519061065a826105a0565b6001600160401b0381116105bb57601f01601f191660200190565b81601f820112156105355780359061069b82610669565b926106a9604051948561062c565b8284526020838301011161053557816000926020809301838601378301015290565b34610535576040366003190112610535576004356106e88161053a565b6024356001600160401b0381116105355760209161070d610713923690600401610684565b50612a1d565b604051908152f35b34610535576020366003190112610535576004356107388161053a565b61074061388c565b6001600160a01b0316801561078857601080546001600160a01b031916821790557fefc1fd16ea80a922086ee4e995739d59b025c1bcea6d1f67855747480c83214b600080a2005b60405162461bcd60e51b8152602060048201526013602482015272746f6b656e206973206164647265737328302960681b6044820152606490fd5b34610535576000366003190112610535576020600454604051908152f35b34610535576020366003190112610535576004356107fe8161053a565b61080661388c565b6040516370a0823160e01b81523060048201526001600160a01b0382169190602081602481865afa80156108c4577ff4a44a7f605c4971a27bcecb448108e6328b7fad34fab5bff4f69377294b826d9261088b92600092610890575b5060015461087b9183916001600160a01b03169061432f565b6040519081529081906020820190565b0390a2005b61087b9192506108b69060203d81116108bd575b6108ae818361062c565b8101906137b6565b9190610862565b503d6108a4565b6137c5565b34610535576020366003190112610535577fac657d3615bd618ee537848e2b33acd2a9df67d4776485ab6922b0421d324d29602060043561090861388c565b80601155604051908152a1005b34610535576060366003190112610535576004356109328161053a565b61093d60243561053a565b6001600160a01b0316600090815260036020908152604080832033845290915290205460018101156139455760443511156139455760405162461bcd60e51b815260206004820152601d60248201527f45524332303a20696e73756666696369656e7420616c6c6f77616e63650000006044820152606490fd5b34610535576000366003190112610535576017546040516001600160a01b039091168152602090f35b34610535576000366003190112610535576020601154604051908152f35b60806003198201126105355760043591602435610a1a8161053a565b91604435916064356001600160401b039283821161053557806023830112156105355781600401359384116105355760248460051b83010111610535576024019190565b3461053557610acc610ac6610a72366109fe565b929593604095929551610abb81610aad898b602084019687916054939183526001600160601b03199060601b16602083015260348201520190565b03601f19810183528261062c565b5190209236916134d1565b906136c0565b6002600e5414610c2c576002600e55610ae3613758565b50610aec613758565b506001600160781b0380911660018060a01b038316600052600f602052808260406000205460081c1603610c1c575b50610b2582612a1d565b168015610bbf576001600160a01b0382166000908152600f60205260409020610bb39290610b9190610b6b84610b6683546001600160781b039060801c1690565b612676565b8154600160801b600160f81b03191660809190911b600160801b600160f81b0316179055565b610ba5610ba083601254612669565b601255565b610bae81612776565b613770565b610bbd6001600e55565b005b60405162461bcd60e51b815260206004820152602f60248201527f4469737472696275746f723a206e6f206d6f726520746f6b656e7320636c616960448201526e6d61626c65207269676874206e6f7760881b6064820152608490fd5b610c26908361351f565b38610b1b565b60405162461bcd60e51b815260206004820152601f60248201527f5265656e7472616e637947756172643a207265656e7472616e742063616c6c006044820152606490fd5b3461053557600036600319011261053557602060405160128152f35b6001600160401b0381116105bb5760051b60200190565b35906001600160801b038216820361053557565b9080601f83011215610535578135916020610cd284610c8d565b93604093610ce28551968761062c565b818652828087019260061b85010193818511610535578301915b848310610d0c5750505050505090565b8583830312610535578386918251610d23816105a0565b610d2c86610ca4565b8152610d39838701610ca4565b83820152815201920191610cfc565b346105355760e036600319011261053557600435610d658161053a565b6001600160401b0360443581811161053557610d85903690600401610684565b9160643591821161053557610da1610e06923690600401610cb8565b9060a43590610daf8261053a565b60c43592610dbc8461053a565b60005495610de160ff8860081c161580988199610e84575b8115610e64575b5061301e565b86610df4600160ff196000541617600055565b610e4b575b6084359260243590613081565b610e0c57005b610e1c61ff001960005416600055565b604051600181527f7f26b83ff96e1f2b6a682f133852f6798a09c465da95921460cefb384740249890602090a1005b610e5f61010061ff00196000541617600055565b610df9565b303b15915081610e76575b5038610ddb565b6001915060ff161438610e6f565b600160ff8216109150610dd4565b346105355760003660031901126105355760206107136146d1565b3461053557604036600319011261053557610ef2600435610ecd8161053a565b33600052600360205260406000209060018060a01b0316600052602052604060002090565b54602435810110610f3e5760405162461bcd60e51b81526020600482015260196024820152783234b9b0b13632b2103337b9103b37ba34b733903837bbb2b960391b6044820152606490fd5b6125e8565b3461053557604036600319011261053557600435610f608161053a565b60243590610f7f65ffffffffffff610f7743614b98565b1683106139f4565b6001600160a01b03166000908152600c602052604081208054929091836005811161104b575b50905b838210610ff657505081610fcf575050602060005b6040516001600160e01b039091168152f35b610fea610ff191602093600019019060005260206000200190565b5460201c90565b610fbd565b909261100281856149c8565b90818363ffffffff61102861101e848960005260206000200190565b5463ffffffff1690565b161115611039575050925b90610fa8565b909450611046915061265b565b611033565b8061105b611061929693966149dd565b90612750565b908263ffffffff61107c61101e858860005260206000200190565b16111561108c5750925b38610fa5565b93506110979061265b565b611086565b34610535576020366003190112610535576004356110b861388c565b7f3b381fdfc0e2729a70e8b26ae2397e9014f703a8235b557f5581c4ed47280fd26020600092611101848080808560018060a01b03600154165af16110fb6137d1565b50613801565b604051908152a180f35b34610535576000366003190112610535576020601a54604051908152f35b34610535576000366003190112610535574365ffffffffffff61114b43614b98565b1603611196576104b3604051611160816105a0565b601d81527f6d6f64653d626c6f636b6e756d6265722666726f6d3d64656661756c74000000602082015260405191829182610442565b60405162461bcd60e51b815260206004820152601d60248201527f4552433230566f7465733a2062726f6b656e20636c6f636b206d6f64650000006044820152606490fd5b346105355760203660031901126105355760206004356111fa8161053a565b60018060a01b03809116600052600b825260406000205416604051908152f35b3461053557602036600319011261053557610bbd60043561123a8161053a565b33613db6565b3461053557610bbd610ac6611292611257366109fe565b929493604096929651610abb81610aad8a8a602084019687916054939183526001600160601b03199060601b16602083015260348201520190565b61351f565b34610535576020366003190112610535576004356112b48161053a565b60018060a01b0316600052600c60205260206112d4604060002054614bff565b63ffffffff60405191168152f35b34610535576020366003190112610535576004356112ff8161053a565b60018060a01b031660005260026020526020604060002054604051908152f35b34610535576000806003193601126105325761133961388c565b805462010000600160b01b031981168255819060101c6001600160a01b03167f8be0079c531659141344cd1fd0a4f28419497f9722a3daafe3b4186f6b6457e08280a380f35b346105355760403660031901126105355760043561139c8161053a565b7fd81661cef4e40e0f1f97384c033d606e4d6b570554fc3524568d8f9fc84c838861088b602435926113cc61388c565b6001600160a01b0381166000908152600f602052604090206113ed90612566565b6113ff6113fa8251151590565b61259d565b600085131561156657845b6001600160781b039161141e83831061260f565b600087121561151b576114f89261147d611478846114d7946114738261146c61146060206011549561145285881015612691565b01516001600160781b031690565b6001600160781b031690565b10156126ed565b612750565b601155565b6001600160a01b0385166000908152600f602052604090206114b6909184166114b183546001600160781b039060081c1690565b61275d565b610100600160801b0382549160081b1690610100600160801b031916179055565b6010546001600160a01b031660005460101c6001600160a01b03169061432f565b61150181612776565b6040519384526001600160a01b0316929081906020820190565b506114b66115619261153261147884601154612669565b6001600160a01b0385166000908152600f602052604090209216610b6683546001600160781b039060081c1690565b6114f8565b61156f856125fe565b61140a565b34610535576020366003190112610535577f914960aef5e033ce5cae8a7992d4b7a6f0f9741227b66acb67c605b7019f8a4660206004356115b361388c565b80601a55604051908152a1005b34610535576020366003190112610535576004356115dd8161053a565b60018060a01b031660005260096020526020604060002054604051908152f35b34610535576000806003193601126105325761169a9061163c7f0000000000000000000000000000000000000000000000000000000000000000614811565b906116667f000000000000000000000000000000000000000000000000000000000000000061490b565b9060405191611674836105db565b8183526116a8602091604051968796600f60f81b885260e08589015260e0880190610402565b908682036040880152610402565b904660608601523060808601528260a086015284820360c08601528080855193848152019401925b8281106116df57505050500390f35b8351855286955093810193928101926001016116d0565b346105355760003660031901126105355760005460405160109190911c6001600160a01b03168152602090f35b346105355760203660031901126105355760043561175265ffffffffffff61174a43614b98565b1682106139f4565b600d5490600082600581116117d0575b50905b82821061179157828061177f575060405160008152602090f35b610ff1610fea60209260001901614305565b909161179d81846149c8565b908263ffffffff6117b061101e85614305565b1611156117c05750915b90611765565b92506117cb9061265b565b6117ba565b8061105b6117e0929593956149dd565b908263ffffffff6117f361101e85614305565b1611156118035750915b38611762565b925061180e9061265b565b6117fd565b3461053557600036600319011261053557602061182f43614b98565b65ffffffffffff60405191168152f35b3461053557600080600319360112610532576040518160065461186181612316565b908184526020926001918281169081600014610510575060011461188f576104b3856104a78189038261062c565b929450600683527ff652222313e28459528d920b65115c16c04f3efc82aaedc97be59f3f377c0d3f5b8284106118d557505050816104b3936104a7928201019338610497565b80548585018701529285019281016118b8565b34610535576020366003190112610535576004356001600160401b0381116105355761191b610bbd913690600401610cb8565b61192361388c565b612ed0565b34610535576020366003190112610535576004356119458161053a565b6001600160a01b03166000908152600c6020526040902080548061197157505060405160008152602090f35b602091611982916000190190612b5f565b5054811c610fbd565b3461053557602080600319360112610535576001600160401b03600435818111610535576119bd903690600401610684565b916119c661388c565b82519182116105bb576119e3826119de601354612316565b612866565b80601f8311600114611a5157508190611a1393600092611a46575b50508160011b916000199060031b1c19161790565b6013555b611a1f612992565b7fd70c1392a974224e639e7a9607dcb2c766826aecfe2dc356f442ce0488b01e1f600080a2005b0151905038806119fe565b90601f19831693611a726013600052600080516020614c7f83398151915290565b926000905b868210611ab15750508360019510611a98575b505050811b01601355611a17565b015160001960f88460031b161c19169055388080611a8a565b80600185968294968601518155019501930190611a77565b34610535576000366003190112610535576104b3604051611ae9816105a0565b601f81527f5472616e63686556657374696e674d65726b6c654469737472696275746f72006020820152604051918291602083526020830190610402565b3461053557604036600319011261053557600435611b448161053a565b336000526003602052611b706024359160406000209060018060a01b0316600052602052604060002090565b5410156139455760405162461bcd60e51b815260206004820152602560248201527f45524332303a2064656372656173656420616c6c6f77616e63652062656c6f77604482015264207a65726f60d81b6064820152608490fd5b34610535576020366003190112610535576020610713600435611bec8161053a565b612b1a565b346105355760008060031936011261053257611c0b61388c565b7f3b381fdfc0e2729a70e8b26ae2397e9014f703a8235b557f5581c4ed47280fd2602047611101848080808560018060a01b03600154165af16110fb6137d1565b3461053557602036600319011261053557611c6860043561053a565b6020601854604051908152f35b6064359060ff8216820361053557565b6084359060ff8216820361053557565b346105355760c036600319011261053557600435611cb28161053a565b60443590602435611cc1611c75565b92804211611d7f57611d51611d7a91610bbd9560405190611d3982611d2b6020820195898b8860609194939260808201957fe48329057bfd03d55e49b547132e39cffd9c1820ad7b9d4c5307691425d15adf835260018060a01b0316602083015260408201520152565b03601f19810184528361062c565b611d4c60a43593608435935190206147eb565b6144f8565b6001600160a01b0381166000908152600960205260409020805460018101909155909214613a40565b613db6565b60405162461bcd60e51b815260206004820152601d60248201527f4552433230566f7465733a207369676e617475726520657870697265640000006044820152606490fd5b34610535576000366003190112610535576015546040516001600160a01b039091168152602090f35b34610535576000366003190112610535576001546040516001600160a01b039091168152602090f35b34610535576020366003190112610535577f6c339c0bee516a4df5d7074ba7a974856d609f83666e915aa4a0f90e06989dc56020600435611e5561388c565b80601855604051908152a1005b3461053557606036600319011261053557600435611e7f8161053a565b6044356001600160401b03811161053557602091611ea4610713923690600401610684565b5060243590612b77565b346105355760e036600319011261053557600435611ecb8161053a565b60243590611ed88261053a565b60643591611ee4611c85565b90834211611fa95761056793611f9692611f83611f1c8660018060a01b03166000526009602052604060002090815491600183019055565b611d2b6040519485926020840197604435908b8a91959493909260a09360c08401977f6e71edae12b1b97f4d1f60370fef10105fa2faae0126114a169c64845d6126c98552600180871b038092166020860152166040840152606083015260808201520152565b611d4c60c4359360a435935190206147eb565b6001600160a01b03908116911614613986565b60405162461bcd60e51b815260206004820152601d60248201527f45524332305065726d69743a206578706972656420646561646c696e650000006044820152606490fd5b346105355760203660031901126105355760043561200a612bff565b50601954811015612059576120356040916019600052600080516020614c9f83398151915201612c18565b61205782518092602090816001600160801b0391828151168552015116910152565bf35b612b49565b3461053557600080600319360112610532576019549061207d82610c8d565b9160409161208d8351948561062c565b818452601981526020938481019282600080516020614c9f833981519152855b8383106121185750505050835194859481860192828752518093528086019493905b8382106120dc5786860387f35b9184965082866121086001949698849851602090816001600160801b0391828151168552015116910152565b01960192018695949293916120cf565b600189819261212c859c99989a9b9c612c18565b8152019201920191909796959394976120ad565b3461053557604036600319011261053557602061219a6004356121628161053a565b6024359061216f8261053a565b60018060a01b03166000526003835260406000209060018060a01b0316600052602052604060002090565b54604051908152f35b3461053557602036600319011261053557610bbd6004356121c38161053a565b6121cb61388c565b613840565b34610535576000366003190112610535576020601254604051908152f35b34610535576020366003190112610535576104b360043561220e8161053a565b604090600082805161221f816105c0565b828152826020820152015260018060a01b0316600052600f602052806000209080519161224b836105c0565b5460ff8116151583526001600160781b0390818160081c16602085015260801c1681830152519182918291909160406060820193805115158352816020820151916001600160781b038093166020860152015116910152565b34610535576040366003190112610535576004356122c18161053a565b7ff4a44a7f605c4971a27bcecb448108e6328b7fad34fab5bff4f69377294b826d6020602435926122f061388c565b6001546001600160a01b03919061230b90869084168361432f565b6040519485521692a2005b90600182811c92168015612346575b602083101461233057565b634e487b7160e01b600052602260045260246000fd5b91607f1691612325565b3461053557600080600319360112610532576040518160135461237281612316565b90818452602092600191828116908160001461051057506001146123a0576104b3856104a78189038261062c565b92945060138352600080516020614c7f8339815191525b8284106123d457505050816104b3936104a7928201019338610497565b80548585018701529285019281016123b7565b34610535576040366003190112610535576004356124048161053a565b63ffffffff60243581811681036105355761244361244991604094612427612bff565b506001600160a01b03166000908152600c602052859020612b5f565b506139d2565b8251815190921682526020908101516001600160e01b031690820152f35b34610535576020366003190112610535576004356124848161053a565b61248c61388c565b6001600160a01b038116156124a457610bbd906138e7565b60405162461bcd60e51b815260206004820152602660248201527f4f776e61626c653a206e6577206f776e657220697320746865207a65726f206160448201526564647265737360d01b6064820152608490fd5b34610535576000366003190112610535576016546040516001600160a01b039091168152602090f35b34610535576000366003190112610535576010546040516001600160a01b039091168152602090f35b3461053557600036600319011261053557602060405160038152f35b90604051612573816105c0565b604081935460ff8116151583526001600160781b0390818160081c16602085015260801c16910152565b156125a457565b606460405162461bcd60e51b815260206004820152602060248201527f6d75737420696e697469616c697a65206265666f72652061646a757374696e676044820152fd5b634e487b7160e01b600052601160045260246000fd5b600160ff1b8114610f3e5760000390565b1561261657565b60405162461bcd60e51b815260206004820152601860248201527f61646a7573746d656e74203e206d61782075696e7431323000000000000000006044820152606490fd5b9060018201809211610f3e57565b91908201809211610f3e57565b9190916001600160781b0380809416911601918211610f3e57565b1561269857565b60405162461bcd60e51b815260206004820152602760248201527f64656372656173652067726561746572207468616e206469737472696275746f6044820152661c881d1bdd185b60ca1b6064820152608490fd5b156126f457565b60405162461bcd60e51b815260206004820152602e60248201527f64656372656173652067726561746572207468616e206469737472696275746960448201526d1bdb949958dbdc99081d1bdd185b60921b6064820152608490fd5b91908203918211610f3e57565b6001600160781b039182169082160391908211610f3e57565b6001600160a01b038116600090815260026020908152604080832054600f9092529091209091906127a690612566565b6001600160781b038060208160408501511693015116808310156000146128075750505060005b808311156127e8576127e29061065a93612750565b90613bcf565b8083106127f457505050565b61065a9261280191612750565b90613af1565b61281e926128149161275d565b1660185490612833565b60145490811561282e57046127cd565b612846565b81810292918115918404141715610f3e57565b634e487b7160e01b600052601260045260246000fd5b811561282e570490565b601f8111612872575050565b60009060138252600080516020614c7f833981519152906020601f850160051c830194106128bb575b601f0160051c01915b8281106128b057505050565b8181556001016128a4565b909250829061289b565b9081516001600160401b0381116105bb576128e5816119de601354612316565b602080601f831160011461291c575081906129179394600092611a465750508160011b916000199060031b1c19161790565b601355565b90601f1983169461293d6013600052600080516020614c7f83398151915290565b926000905b87821061297a575050836001959610612961575b505050811b01601355565b015160001960f88460031b161c19169055388080612956565b80600185968294968601518155019501930190612942565b6040518060006013546129a481612316565b90600190818116908115612a0657506001146129c3575b505003902090565b60136000908152919250600080516020614c7f8339815191525b8383106129f057505050810138806129bb565b80548684015285945060209092019181016129dd565b60ff191685525050801515028201905038806129bb565b6001600160a01b0381166000908152600f602052604090205460ff1615612aca576001600160a01b0381166000908152600f60205260409020612a5f90612566565b90612ab26040612aa3612a9a612a8a612a8260208801516001600160781b031690565b954290612b77565b6001600160781b03809616612833565b6014549061285c565b9301516001600160781b031690565b16818110612ac1575050600090565b61045391612750565b60405162461bcd60e51b815260206004820152602260248201527f4469737472696275746f723a20636c61696d206e6f7420696e697469616c697a604482015261195960f21b6064820152608490fd5b6015546001600160a01b0391908216908115612b4157829081806017541691161816041690565b505050600090565b634e487b7160e01b600052603260045260246000fd5b80548210156120595760005260206000200190600090565b612b8090612b1a565b601991825492835b84808015612bf3576000190195858503858111610f3e578388101561205957846000526001600160801b037f944998273e477b495144fb8794c914197f3ccb46be2900f4698fd0ef743c9694809401541610612be5575050612b88565b015460801c95945050505050565b50505050505050600090565b60405190612c0c826105a0565b60006020838281520152565b90604051612c25816105a0565b91546001600160801b038116835260801c6020830152565b15612c4457565b60405162461bcd60e51b81526020600482015260116024820152701d1c985b98da195cc81c995c5d5a5c9959607a1b6044820152606490fd5b60195460008060195581612c8f575050565b60198152600080516020614c9f833981519152918201915b828110612cb357505050565b818155600101612ca7565b80518210156120595760209160051b010190565b15612cd957565b60405162461bcd60e51b815260206004820152601c60248201527f7472616e63686520766573746564206672616374696f6e203d3d2030000000006044820152606490fd5b15612d2557565b60405162461bcd60e51b815260206004820152601a60248201527f7472616e6368652074696d65206d75737420696e6372656173650000000000006044820152606490fd5b15612d7157565b60405162461bcd60e51b815260206004820152602560248201527f7472616e63686520766573746564206672616374696f6e206d75737420696e63604482015264726561736560d81b6064820152608490fd5b60195490600160401b8210156105bb5760018201806019558210156120595760196000526001600160801b038151169060206001600160801b031991015160801b161790600080516020614c9f8339815191520155565b15612e2257565b60405162461bcd60e51b815260206004820152602a60248201527f76657374696e6720656e6473206166746572203431303234343438303020284a604482015269616e203120323130302960b01b6064820152608490fd5b15612e8157565b60405162461bcd60e51b815260206004820152602160248201527f6c617374207472616e636865206d757374207665737420616c6c20746f6b656e6044820152607360f81b6064820152608490fd5b90612edd82511515612c3d565b612ee5612c7d565b600080805b8451821015612ff057612f7b90602093612f30612f29612f1d87612f0e888c612cbe565b5101516001600160801b031690565b6001600160801b031690565b1515612cd2565b612f62612f4e612f40868a612cbe565b51516001600160801b031690565b6001600160801b0380809416911611612d1e565b80612f7186612f0e878b612cbe565b9216911611612d6a565b6001612f98612f8d612f408488612cbe565b93612f0e8488612cbe565b91612fac612fa68288612cbe565b51612dc4565b604080516001600160801b0386811682528516602082015282917f5104929ca78e46ba25dca9557731ec873a03ae745d3ee194d262cc4820662a1c91a20190612eea565b91905061065a92935061301363f48657006001600160801b038093161115612e1b565b601454911614612e7a565b1561302557565b60405162461bcd60e51b815260206004820152602e60248201527f496e697469616c697a61626c653a20636f6e747261637420697320616c72656160448201526d191e481a5b9a5d1a585b1a5e995960921b6064820152608490fd5b6000546001600160a01b03979692959492906130ab9060081c60ff166130a6816131f0565b6131f0565b6130b6888816613840565b7f6c339c0bee516a4df5d7074ba7a974856d609f83666e915aa4a0f90e06989dc5602061271080601855604051908152a16130f860ff60005460081c166131f0565b878216156131ac5761065a976131466131a29561314189611478611923976131246131a79d1515613292565b60018060a01b03166001600160601b0360a01b6010541617601055565b6128c5565b613151612710601455565b6010546001600160a01b03167f433127dedcff849792656a12f4a9dbc0efeb80df5cce6310f53481a93cd71c7182601154926131976014546040519384931695836132de565b0390a285169061338f565b613250565b6138e7565b606460405162461bcd60e51b815260206004820152602060248201527f4469737472696275746f723a20746f6b656e20697320616464726573732830296044820152fd5b156131f757565b60405162461bcd60e51b815260206004820152602b60248201527f496e697469616c697a61626c653a20636f6e7472616374206973206e6f74206960448201526a6e697469616c697a696e6760a81b6064820152608490fd5b60207f914960aef5e033ce5cae8a7992d4b7a6f0f9741227b66acb67c605b7019f8a469161328560ff60005460081c166131f0565b80601a55604051908152a1565b1561329957565b60405162461bcd60e51b815260206004820152601760248201527f4469737472696275746f723a20746f74616c20697320300000000000000000006044820152606490fd5b929190835260206060818501526000601354916132fa83612316565b90816060880152608093600190818116908160001461336e5750600114613328575b50505060409150930152565b601360009081529350600080516020614c7f8339815191525b83851061335b57505050509060409185010138808061331c565b8054898601870152938201938101613341565b92505050604093925060ff191682870152151560051b85010138808061331c565b906133a160ff60005460081c166131f0565b601680546001600160a01b039384166001600160a01b0319918216811790925590928315600081613414575061282e57837fdccb8d94a5bbd764ed844afa20f2581be18d3fa84b36855e86a8f0c9316cba7d928261065a96602094045b16906015541617601555604051908152a1613445565b61065a959150926020927fdccb8d94a5bbd764ed844afa20f2581be18d3fa84b36855e86a8f0c9316cba7d946133fe565b6015546001600160a01b0391908216156134cd5781811615613488576000194301438111610f3e578290401618166001600160601b0360a01b6017541617601755565b60405162461bcd60e51b815260206004820152601860248201527f492064656d616e64206d6f72652072616e646f6d6e65737300000000000000006044820152606490fd5b5050565b92916134dc82610c8d565b916134ea604051938461062c565b829481845260208094019160051b810192831161053557905b8282106135105750505050565b81358152908301908301613503565b6001600160781b038083116135f85761065a92166135b16135656135558460018060a01b0316600052600f602052604060002090565b5460801c6001600160781b031690565b61359461357061064d565b60018152916001600160781b03851660208401526001600160781b03166040830152565b6001600160a01b0384166000908152600f60205260409020613652565b6040516001600160781b039190911681526001600160a01b038216907fdb598eb8e0a3d3d5c2e02e4cab1ee8b65bb20e48fc7b42f4c76272de4cdd243490602090a2612776565b60405162461bcd60e51b815260206004820152602c60248201527f4469737472696275746f723a20746f74616c416d6f756e74203e20747970652860448201526b0ead2dce8626460525cdac2f60a31b6064820152608490fd5b815181546020840151610100600160801b0360089190911b1691151560ff166fffffffffffffffffffffffffffffffff199091161717815561065a916001600160781b0390604001518254600160801b600160f81b031916911660801b600160801b600160f81b0316179055565b601a5492600092915b8251841015613717576136dc8484612cbe565b5190600082821015613708575060005260205260406000205b926000198114610f3e57600101926136c9565b906040928252602052206136f5565b91509291500361372357565b60405162461bcd60e51b815260206004820152600d60248201526c34b73b30b634b210383937b7b360991b6044820152606490fd5b604051613764816105db565b60008152906000368137565b60207f47cee97cb7acd717b3c0aa1435d004cd5b3c8c57d70dbceb4e4458bbd60e39d49160018060a01b03906137ab8582846010541661432f565b6040519485521692a2565b90816020910312610535575190565b6040513d6000823e3d90fd5b3d156137fc573d906137e282610669565b916137f0604051938461062c565b82523d6000602084013e565b606090565b1561380857565b60405162461bcd60e51b815260206004820152601060248201526f2a3930b739b332b9103330b4b632b21760811b6044820152606490fd5b600180546001600160a01b0319166001600160a01b0390921691821790556040519081527fccdd1baf560d2682736fa25752c8ccc0c5fc4079b245b0acf7389776308d5b1f90602090a1565b60005460101c6001600160a01b031633036138a357565b606460405162461bcd60e51b815260206004820152602060248201527f4f776e61626c653a2063616c6c6572206973206e6f7420746865206f776e65726044820152fd5b6000805462010000600160b01b03198116601084811b62010000600160b01b03169190911783556001600160a01b039384169391901c16907f8be0079c531659141344cd1fd0a4f28419497f9722a3daafe3b4186f6b6457e09080a3565b60405162461bcd60e51b81526020600482015260196024820152783234b9b0b13632b2103337b9103b37ba34b733903837bbb2b960391b6044820152606490fd5b1561398d57565b60405162461bcd60e51b815260206004820152601e60248201527f45524332305065726d69743a20696e76616c6964207369676e617475726500006044820152606490fd5b906040516139df816105a0565b602081935463ffffffff81168352811c910152565b156139fb57565b60405162461bcd60e51b815260206004820152601960248201527f4552433230566f7465733a20667574757265206c6f6f6b7570000000000000006044820152606490fd5b15613a4757565b60405162461bcd60e51b815260206004820152601960248201527f4552433230566f7465733a20696e76616c6964206e6f6e6365000000000000006044820152606490fd5b15613a9357565b60405162461bcd60e51b815260206004820152603060248201527f4552433230566f7465733a20746f74616c20737570706c79207269736b73206f60448201526f766572666c6f77696e6720766f74657360801b6064820152608490fd5b906001600160a01b0382168015613b8a57600454828101809111610f3e576134cd93613b6f92613b218593600455565b6001600160a01b0382166000908152600260209081526040808320805487019055518581527fddf252ad1be2c89b69c2b068fc378daa952ba7f163c4a11628f55a4df523b3ef9190a3613d1d565b600454613b85906001600160e01b031015613a8c565b614103565b60405162461bcd60e51b815260206004820152601f60248201527f45524332303a206d696e7420746f20746865207a65726f2061646472657373006044820152606490fd5b6001600160a01b03811691908215613c7757818160006134cd9583613c09613c729660018060a01b03166000526002602052604060002090565b54613c1682821015613cc6565b03613c338460018060a01b03166000526002602052604060002090565b55613c418460045403600455565b6040518481527fddf252ad1be2c89b69c2b068fc378daa952ba7f163c4a11628f55a4df523b3ef90602090a3613d68565b6141f3565b60405162461bcd60e51b815260206004820152602160248201527f45524332303a206275726e2066726f6d20746865207a65726f206164647265736044820152607360f81b6064820152608490fd5b15613ccd57565b60405162461bcd60e51b815260206004820152602260248201527f45524332303a206275726e20616d6f756e7420657863656564732062616c616e604482015261636560f01b6064820152608490fd5b600b6020527fdf7de25b7f1fd6d0b5205f0e18f1f35bd7b8d84cce336588d184533ce43a6f76546001600160a01b039182166000908152604090205461065a93929081169116613e26565b6001600160a01b039081166000908152600b60205260408120549080527fdf7de25b7f1fd6d0b5205f0e18f1f35bd7b8d84cce336588d184533ce43a6f765461065a93929081169116613e26565b61065a9160018060a01b03809216600092818452600b60205280604085205416809260026020527f3134e8a2e6d97e929a7e54011ea5485d7d196dd5f0ba4d4ef95803e8e3fc257f604087205496600b6020526040812094871694856001600160601b0360a01b82541617905580a45b6001600160a01b03808316939291168084141580614039575b613e4a575b50505050565b80613eb8575b5082613e5d575b80613e44565b6001600160a01b03166000908152600c602052604090207fdec2bacdd2f05b59de34da9b523dff8be42e5e38e818c82fdb0bae774387a72491613e9f9161424c565b60408051928352602083019190915290a2388080613e57565b80600052600c6020527fdec2bacdd2f05b59de34da9b523dff8be42e5e38e818c82fdb0bae774387a724604060002080548015918260001461401657613efc61065c565b6000815260006020820152915b6020830151613f28906001600160e01b03165b6001600160e01b031690565b92613f338985614c64565b94159081613ff3575b5015613f9157613f64613f7b92613f5286614b2f565b92600019019060005260206000200190565b9063ffffffff82549181199060201b169116179055565b604080519182526020820192909252a238613e50565b50613fee90613fb5613fb0613fa543614b98565b65ffffffffffff1690565b614bff565b90613fe9613fc286614b2f565b613fd9613fcd61065c565b63ffffffff9095168552565b6001600160e01b03166020840152565b6140a9565b613f7b565b5163ffffffff16905063ffffffff61400d613fa543614b98565b91161438613f3c565b61403361402e60001984018360005260206000200190565b6139d2565b91613f09565b50821515613e3f565b600d5490600160401b8210156105bb576001820180600d5582101561205957600d600052805160209182015190911b63ffffffff191663ffffffff91909116177fd7b6990105719101dabeb77144f2a3385c8033acd3af97e9423a695e81ad1eb590910155565b8054600160401b8110156105bb576140c691600182018155612b5f565b6140ed57815160209283015190921b63ffffffff191663ffffffff92909216919091179055565b634e487b7160e01b600052600060045260246000fd5b600d54909181159182156141de5761411961065c565b60008152600060208201525b602081015161414790614140906001600160e01b0316613f1c565b9586614c71565b931590816141bb575b50156141705761065a90613f6461416685614b2f565b9160001901614305565b5061065a614183613fb0613fa543614b98565b6141b661418f85614b2f565b6141a661419a61065c565b63ffffffff9094168452565b6001600160e01b03166020830152565b614042565b5163ffffffff16905063ffffffff6141d5613fa543614b98565b91161438614150565b6141ee61402e6000198301614305565b614125565b600d54909181159182156142375761420961065c565b60008152600060208201525b602081015161414790614230906001600160e01b0316613f1c565b9586614c64565b61424761402e6000198301614305565b614215565b9091815491821592836000146142e85761426461065c565b60008152600060208201525b60208101516142929061428b906001600160e01b0316613f1c565b9687614c71565b941590816142c5575b50156142b157613f6461065a92613f5286614b2f565b5061065a90613fb5613fb0613fa543614b98565b5163ffffffff16905063ffffffff6142df613fa543614b98565b9116143861429b565b61430061402e60001983018460005260206000200190565b614270565b600d6000527fd7b6990105719101dabeb77144f2a3385c8033acd3af97e9423a695e81ad1eb50190565b60405163a9059cbb60e01b602082019081526001600160a01b0393841660248301526044808301959095529381526143be92909161436c836105f6565b166040519161437a836105a0565b602083527f5361666545524332303a206c6f772d6c6576656c2063616c6c206661696c65646020840152600080958192519082855af16143b86137d1565b91614463565b80519081159182156143d7575b505061065a9150614404565b81925090602091810103126144005760200151908115158203610532575061065a9038806143cb565b5080fd5b1561440b57565b60405162461bcd60e51b815260206004820152602a60248201527f5361666545524332303a204552433230206f7065726174696f6e20646964206e6044820152691bdd081cdd58d8d9595960b21b6064820152608490fd5b919290156144c55750815115614477575090565b3b156144805790565b60405162461bcd60e51b815260206004820152601d60248201527f416464726573733a2063616c6c20746f206e6f6e2d636f6e74726163740000006044820152606490fd5b8251909150156144d85750805190602001fd5b60405162461bcd60e51b81529081906144f49060048301610442565b0390fd5b9161045393916145079361464f565b91909161452f565b6005111561451957565b634e487b7160e01b600052602160045260246000fd5b6145388161450f565b806145405750565b6145498161450f565b600181036145965760405162461bcd60e51b815260206004820152601860248201527f45434453413a20696e76616c6964207369676e617475726500000000000000006044820152606490fd5b61459f8161450f565b600281036145ec5760405162461bcd60e51b815260206004820152601f60248201527f45434453413a20696e76616c6964207369676e6174757265206c656e677468006044820152606490fd5b806145f860039261450f565b146145ff57565b60405162461bcd60e51b815260206004820152602260248201527f45434453413a20696e76616c6964207369676e6174757265202773272076616c604482015261756560f01b6064820152608490fd5b9291907f7fffffffffffffffffffffffffffffff5d576e7357a4501ddfe92f46681b20a083116146c55791608094939160ff602094604051948552168484015260408301526060820152600093849182805260015afa156108c45781516001600160a01b038116156146bf579190565b50600190565b50505050600090600390565b307f00000000000000000000000000000000000000000000000000000000000000006001600160a01b031614806147c2575b1561472c577f000000000000000000000000000000000000000000000000000000000000000090565b60405160208101907f8b73c3c69bb8fe3d512ecc4cf759cc79239f7b179b0ffacaa9a75d522b39400f82527f000000000000000000000000000000000000000000000000000000000000000060408201527f000000000000000000000000000000000000000000000000000000000000000060608201524660808201523060a082015260a081526147bc81610611565b51902090565b507f00000000000000000000000000000000000000000000000000000000000000004614614703565b6042906147f66146d1565b906040519161190160f01b8352600283015260228201522090565b60ff811461484f5760ff811690601f821161483d5760405191614833836105a0565b8252602082015290565b604051632cd44ac360e21b8152600490fd5b5060405160075481600061486283612316565b8083526020936001908181169081156148eb575060011461488c575b50506104539250038261062c565b9093915060076000527fa66cc928b5edb82af9bd49922954155ab7b0942694bea4ce44661d9a8736c688936000915b8183106148d35750506104539350820101388061487e565b855487840185015294850194869450918301916148bb565b91505061045394925060ff191682840152151560051b820101388061487e565b60ff811461492d5760ff811690601f821161483d5760405191614833836105a0565b5060405160085481600061494083612316565b8083526020936001908181169081156148eb57506001146149695750506104539250038261062c565b9093915060086000527ff3f7a9fe364faab93b216da50a3214154f22a0a2b415b23a84c8169e8b636ee3936000915b8183106149b05750506104539350820101388061487e565b85548784018501529485019486945091830191614998565b90808216911860011c8101809111610f3e5790565b8015614b175780614ab0614aa9614a9f614a95614a8b614a81614a77614a6d60016104539a6000908b60801c80614b0b575b508060401c80614afe575b508060201c80614af1575b508060101c80614ae4575b508060081c80614ad7575b508060041c80614aca575b508060021c80614abd575b50821c614ab6575b811c1b614a66818b61285c565b0160011c90565b614a66818a61285c565b614a66818961285c565b614a66818861285c565b614a66818761285c565b614a66818661285c565b614a66818561285c565b809261285c565b90614b1d565b8101614a59565b6002915091019038614a51565b6004915091019038614a46565b6008915091019038614a3b565b6010915091019038614a30565b6020915091019038614a25565b6040915091019038614a1a565b91505060809038614a0f565b50600090565b9080821015614b2a575090565b905090565b6001600160e01b0390818111614b43571690565b60405162461bcd60e51b815260206004820152602760248201527f53616665436173743a2076616c756520646f65736e27742066697420696e20326044820152663234206269747360c81b6064820152608490fd5b65ffffffffffff90818111614bab571690565b60405162461bcd60e51b815260206004820152602660248201527f53616665436173743a2076616c756520646f65736e27742066697420696e203460448201526538206269747360d01b6064820152608490fd5b63ffffffff90818111614c10571690565b60405162461bcd60e51b815260206004820152602660248201527f53616665436173743a2076616c756520646f65736e27742066697420696e203360448201526532206269747360d01b6064820152608490fd5b908103908111610f3e5790565b908101809111610f3e579056fe66de8ffda797e3de9c05e8fc57b3bf0ec28a930d40b0d285d93c06501cf6a090944998273e477b495144fb8794c914197f3ccb46be2900f4698fd0ef743c9695a2646970667358221220ff9f465157703da8865a0dc13a43e37a723ade3dc09020a75c1c9ebdf6115d7e64736f6c63430008150033","linkReferences":{}},"methodIdentifiers":{"CLOCK_MODE()":"4bf5d7e9","DOMAIN_SEPARATOR()":"3644e515","NAME()":"a3f4df7e","VERSION()":"ffa1ad74","adjust(address,int256)":"75aa9bc6","allowance(address,address)":"dd62ed3e","approve(address,uint256)":"095ea7b3","balanceOf(address)":"70a08231","checkpoints(address,uint32)":"f1127ed8","claim(uint256,address,uint256,bytes32[])":"2e7ba6ef","claimed()":"e834a834","clock()":"91ddadf4","decimals()":"313ce567","decreaseAllowance(address,uint256)":"a457c2d7","delegate(address)":"5c19a95c","delegateBySig(address,uint256,uint256,uint8,bytes32,bytes32)":"c3cda520","delegates(address)":"587cde1e","distancePerSecond()":"c6e8d982","eip712Domain()":"84b0196e","getClaimableAmount(address,bytes)":"13c67ce5","getDistributionRecord(address)":"e85858d9","getFairDelayTime(address)":"a4ef1f78","getFractionDenominator()":"0f56b96c","getMerkleRoot()":"49590657","getPastTotalSupply(uint256)":"8e539e8c","getPastVotes(address,uint256)":"3a46b1a8","getSweepRecipient()":"c78d5985","getTotalVotes()":"9a0e7d66","getTranche(uint256)":"d972e8ad","getTranches()":"dc2f511b","getVestedFraction(address,uint256,bytes)":"d3d0ec89","getVoteFactor(address)":"bb22dccb","getVotes(address)":"9ab24eb0","increaseAllowance(address,uint256)":"39509351","initialize(address,uint256,string,(uint128,uint128)[],bytes32,uint160,address)":"3480e6ab","initializeDistributionRecord(uint256,address,uint256,bytes32[])":"684de1f5","maxDelayTime()":"f56c8547","name()":"06fdde03","nonces(address)":"7ecebe00","numCheckpoints(address)":"6fcfff45","owner()":"8da5cb5b","permit(address,address,uint256,uint256,uint8,bytes32,bytes32)":"d505accf","randomValue()":"276801ec","renounceOwnership()":"715018a6","setMerkleRoot(bytes32)":"7cb64759","setSweepRecipient(address)":"de032f58","setToken(address)":"144fa6d7","setTotal(uint256)":"1f8d1d50","setTranches((uint128,uint128)[])":"9691cab5","setUri(string)":"9b642de1","setVoteFactor(uint256)":"c9557255","sweepNative()":"ab803a76","sweepNative(uint256)":"3cf3a025","sweepToken(address)":"1be19560","sweepToken(address,uint256)":"e90a182f","symbol()":"95d89b41","token()":"fc0c546a","total()":"2ddbd13a","totalSupply()":"18160ddd","transfer(address,uint256)":"a9059cbb","transferFrom(address,address,uint256)":"23b872dd","transferOwnership(address)":"f2fde38b","uri()":"eac989f8"},"id":5}