{"abi":[{"type":"function","name":"distancePerSecond","inputs":[],"outputs":[{"name":"","type":"uint160","internalType":"uint160"}],"stateMutability":"view"},{"type":"function","name":"getFairDelayTime","inputs":[{"name":"user","type":"address","internalType":"address"}],"outputs":[{"name":"","type":"uint256","internalType":"uint256"}],"stateMutability":"view"},{"type":"function","name":"maxDelayTime","inputs":[],"outputs":[{"name":"","type":"uint160","internalType":"uint160"}],"stateMutability":"view"},{"type":"function","name":"randomValue","inputs":[],"outputs":[{"name":"","type":"uint160","internalType":"uint160"}],"stateMutability":"view"},{"type":"event","name":"Initialized","inputs":[{"name":"version","type":"uint8","indexed":false,"internalType":"uint8"}],"anonymous":false},{"type":"event","name":"SetDelay","inputs":[{"name":"maxDelayTime","type":"uint160","indexed":false,"internalType":"uint160"}],"anonymous":false}],"bytecode":{"object":"0x608080604052346100165761016f908161001c8239f35b600080fdfe608080604052600436101561001357600080fd5b600090813560e01c908163276801ec146100dc57508063a4ef1f78146100a3578063c6e8d982146100785763f56c85471461004d57600080fd5b346100755780600319360112610075576001546040516001600160a01b039091168152602090f35b80fd5b50346100755780600319360112610075575460405160109190911c6001600160a01b03168152602090f35b503461007557602036600319011261007557600435906001600160a01b03821682036100755760206100d483610105565b604051908152f35b9050346101015781600319360112610101576002546001600160a01b03168152602090f35b5080fd5b6000546001600160a01b039160109190911c821690811561013157829081806002541691161816041690565b50505060009056fea264697066735822122098539e1ca79993973e2211a84e6a2eab9eb6f7ae66f74447cbb8ab3d4c25895564736f6c63430008150033","linkReferences":{}},"methodIdentifiers":{"distancePerSecond()":"c6e8d982","getFairDelayTime(address)":"a4ef1f78","maxDelayTime()":"f56c8547","randomValue()":"276801ec"},"id":20}