{"abi":[{"type":"constructor","inputs":[{"name":"_token","type":"address","internalType":"contract IERC20"},{"name":"_total","type":"uint256","internalType":"uint256"},{"name":"_uri","type":"string","internalType":"string"},{"name":"_voteFactor","type":"uint256","internalType":"uint256"},{"name":"_merkleRoot","type":"bytes32","internalType":"bytes32"},{"name":"_maxDelayTime","type":"uint160","internalType":"uint160"}],"stateMutability":"nonpayable"},{"type":"function","name":"CLOCK_MODE","inputs":[],"outputs":[{"name":"","type":"string","internalType":"string"}],"stateMutability":"view"},{"type":"function","name":"DOMAIN_SEPARATOR","inputs":[],"outputs":[{"name":"","type":"bytes32","internalType":"bytes32"}],"stateMutability":"view"},{"type":"function","name":"NAME","inputs":[],"outputs":[{"name":"","type":"string","internalType":"string"}],"stateMutability":"pure"},{"type":"function","name":"VERSION","inputs":[],"outputs":[{"name":"","type":"uint256","internalType":"uint256"}],"stateMutability":"pure"},{"type":"function","name":"adjust","inputs":[{"name":"beneficiary","type":"address","internalType":"address"},{"name":"amount","type":"int256","internalType":"int256"}],"outputs":[],"stateMutability":"nonpayable"},{"type":"function","name":"allowance","inputs":[{"name":"owner","type":"address","internalType":"address"},{"name":"spender","type":"address","internalType":"address"}],"outputs":[{"name":"","type":"uint256","internalType":"uint256"}],"stateMutability":"view"},{"type":"function","name":"approve","inputs":[{"name":"spender","type":"address","internalType":"address"},{"name":"amount","type":"uint256","internalType":"uint256"}],"outputs":[{"name":"","type":"bool","internalType":"bool"}],"stateMutability":"nonpayable"},{"type":"function","name":"balanceOf","inputs":[{"name":"account","type":"address","internalType":"address"}],"outputs":[{"name":"","type":"uint256","internalType":"uint256"}],"stateMutability":"view"},{"type":"function","name":"checkpoints","inputs":[{"name":"account","type":"address","internalType":"address"},{"name":"pos","type":"uint32","internalType":"uint32"}],"outputs":[{"name":"","type":"tuple","internalType":"struct ERC20Votes.Checkpoint","components":[{"name":"fromBlock","type":"uint32","internalType":"uint32"},{"name":"votes","type":"uint224","internalType":"uint224"}]}],"stateMutability":"view"},{"type":"function","name":"claim","inputs":[{"name":"index","type":"uint256","internalType":"uint256"},{"name":"beneficiary","type":"address","internalType":"address"},{"name":"totalAmount","type":"uint256","internalType":"uint256"},{"name":"start","type":"uint256","internalType":"uint256"},{"name":"cliff","type":"uint256","internalType":"uint256"},{"name":"end","type":"uint256","internalType":"uint256"},{"name":"merkleProof","type":"bytes32[]","internalType":"bytes32[]"}],"outputs":[],"stateMutability":"nonpayable"},{"type":"function","name":"claimed","inputs":[],"outputs":[{"name":"","type":"uint256","internalType":"uint256"}],"stateMutability":"view"},{"type":"function","name":"clock","inputs":[],"outputs":[{"name":"","type":"uint48","internalType":"uint48"}],"stateMutability":"view"},{"type":"function","name":"decimals","inputs":[],"outputs":[{"name":"","type":"uint8","internalType":"uint8"}],"stateMutability":"view"},{"type":"function","name":"decreaseAllowance","inputs":[{"name":"spender","type":"address","internalType":"address"},{"name":"subtractedValue","type":"uint256","internalType":"uint256"}],"outputs":[{"name":"","type":"bool","internalType":"bool"}],"stateMutability":"nonpayable"},{"type":"function","name":"delegate","inputs":[{"name":"delegatee","type":"address","internalType":"address"}],"outputs":[],"stateMutability":"nonpayable"},{"type":"function","name":"delegateBySig","inputs":[{"name":"delegatee","type":"address","internalType":"address"},{"name":"nonce","type":"uint256","internalType":"uint256"},{"name":"expiry","type":"uint256","internalType":"uint256"},{"name":"v","type":"uint8","internalType":"uint8"},{"name":"r","type":"bytes32","internalType":"bytes32"},{"name":"s","type":"bytes32","internalType":"bytes32"}],"outputs":[],"stateMutability":"nonpayable"},{"type":"function","name":"delegates","inputs":[{"name":"account","type":"address","internalType":"address"}],"outputs":[{"name":"","type":"address","internalType":"address"}],"stateMutability":"view"},{"type":"function","name":"distancePerSecond","inputs":[],"outputs":[{"name":"","type":"uint160","internalType":"uint160"}],"stateMutability":"view"},{"type":"function","name":"eip712Domain","inputs":[],"outputs":[{"name":"fields","type":"bytes1","internalType":"bytes1"},{"name":"name","type":"string","internalType":"string"},{"name":"version","type":"string","internalType":"string"},{"name":"chainId","type":"uint256","internalType":"uint256"},{"name":"verifyingContract","type":"address","internalType":"address"},{"name":"salt","type":"bytes32","internalType":"bytes32"},{"name":"extensions","type":"uint256[]","internalType":"uint256[]"}],"stateMutability":"view"},{"type":"function","name":"getClaimableAmount","inputs":[{"name":"beneficiary","type":"address","internalType":"address"},{"name":"data","type":"bytes","internalType":"bytes"}],"outputs":[{"name":"","type":"uint256","internalType":"uint256"}],"stateMutability":"view"},{"type":"function","name":"getDistributionRecord","inputs":[{"name":"beneficiary","type":"address","internalType":"address"}],"outputs":[{"name":"","type":"tuple","internalType":"struct DistributionRecord","components":[{"name":"initialized","type":"bool","internalType":"bool"},{"name":"total","type":"uint120","internalType":"uint120"},{"name":"claimed","type":"uint120","internalType":"uint120"}]}],"stateMutability":"view"},{"type":"function","name":"getFairDelayTime","inputs":[{"name":"user","type":"address","internalType":"address"}],"outputs":[{"name":"","type":"uint256","internalType":"uint256"}],"stateMutability":"view"},{"type":"function","name":"getFractionDenominator","inputs":[],"outputs":[{"name":"","type":"uint256","internalType":"uint256"}],"stateMutability":"view"},{"type":"function","name":"getMerkleRoot","inputs":[],"outputs":[{"name":"","type":"bytes32","internalType":"bytes32"}],"stateMutability":"view"},{"type":"function","name":"getPastTotalSupply","inputs":[{"name":"timepoint","type":"uint256","internalType":"uint256"}],"outputs":[{"name":"","type":"uint256","internalType":"uint256"}],"stateMutability":"view"},{"type":"function","name":"getPastVotes","inputs":[{"name":"account","type":"address","internalType":"address"},{"name":"timepoint","type":"uint256","internalType":"uint256"}],"outputs":[{"name":"","type":"uint256","internalType":"uint256"}],"stateMutability":"view"},{"type":"function","name":"getSweepRecipient","inputs":[],"outputs":[{"name":"","type":"address","internalType":"address payable"}],"stateMutability":"view"},{"type":"function","name":"getTotalVotes","inputs":[],"outputs":[{"name":"","type":"uint256","internalType":"uint256"}],"stateMutability":"view"},{"type":"function","name":"getVestedFraction","inputs":[{"name":"beneficiary","type":"address","internalType":"address"},{"name":"time","type":"uint256","internalType":"uint256"},{"name":"data","type":"bytes","internalType":"bytes"}],"outputs":[{"name":"","type":"uint256","internalType":"uint256"}],"stateMutability":"view"},{"type":"function","name":"getVoteFactor","inputs":[{"name":"","type":"address","internalType":"address"}],"outputs":[{"name":"","type":"uint256","internalType":"uint256"}],"stateMutability":"view"},{"type":"function","name":"getVotes","inputs":[{"name":"account","type":"address","internalType":"address"}],"outputs":[{"name":"","type":"uint256","internalType":"uint256"}],"stateMutability":"view"},{"type":"function","name":"increaseAllowance","inputs":[{"name":"spender","type":"address","internalType":"address"},{"name":"addedValue","type":"uint256","internalType":"uint256"}],"outputs":[{"name":"","type":"bool","internalType":"bool"}],"stateMutability":"nonpayable"},{"type":"function","name":"initializeDistributionRecord","inputs":[{"name":"index","type":"uint256","internalType":"uint256"},{"name":"beneficiary","type":"address","internalType":"address"},{"name":"amount","type":"uint256","internalType":"uint256"},{"name":"start","type":"uint256","internalType":"uint256"},{"name":"cliff","type":"uint256","internalType":"uint256"},{"name":"end","type":"uint256","internalType":"uint256"},{"name":"merkleProof","type":"bytes32[]","internalType":"bytes32[]"}],"outputs":[],"stateMutability":"nonpayable"},{"type":"function","name":"maxDelayTime","inputs":[],"outputs":[{"name":"","type":"uint160","internalType":"uint160"}],"stateMutability":"view"},{"type":"function","name":"name","inputs":[],"outputs":[{"name":"","type":"string","internalType":"string"}],"stateMutability":"view"},{"type":"function","name":"nonces","inputs":[{"name":"owner","type":"address","internalType":"address"}],"outputs":[{"name":"","type":"uint256","internalType":"uint256"}],"stateMutability":"view"},{"type":"function","name":"numCheckpoints","inputs":[{"name":"account","type":"address","internalType":"address"}],"outputs":[{"name":"","type":"uint32","internalType":"uint32"}],"stateMutability":"view"},{"type":"function","name":"owner","inputs":[],"outputs":[{"name":"","type":"address","internalType":"address"}],"stateMutability":"view"},{"type":"function","name":"permit","inputs":[{"name":"owner","type":"address","internalType":"address"},{"name":"spender","type":"address","internalType":"address"},{"name":"value","type":"uint256","internalType":"uint256"},{"name":"deadline","type":"uint256","internalType":"uint256"},{"name":"v","type":"uint8","internalType":"uint8"},{"name":"r","type":"bytes32","internalType":"bytes32"},{"name":"s","type":"bytes32","internalType":"bytes32"}],"outputs":[],"stateMutability":"nonpayable"},{"type":"function","name":"randomValue","inputs":[],"outputs":[{"name":"","type":"uint160","internalType":"uint160"}],"stateMutability":"view"},{"type":"function","name":"renounceOwnership","inputs":[],"outputs":[],"stateMutability":"nonpayable"},{"type":"function","name":"setMerkleRoot","inputs":[{"name":"_merkleRoot","type":"bytes32","internalType":"bytes32"}],"outputs":[],"stateMutability":"nonpayable"},{"type":"function","name":"setSweepRecipient","inputs":[{"name":"_recipient","type":"address","internalType":"address payable"}],"outputs":[],"stateMutability":"nonpayable"},{"type":"function","name":"setToken","inputs":[{"name":"_token","type":"address","internalType":"contract IERC20"}],"outputs":[],"stateMutability":"nonpayable"},{"type":"function","name":"setTotal","inputs":[{"name":"_total","type":"uint256","internalType":"uint256"}],"outputs":[],"stateMutability":"nonpayable"},{"type":"function","name":"setUri","inputs":[{"name":"_uri","type":"string","internalType":"string"}],"outputs":[],"stateMutability":"nonpayable"},{"type":"function","name":"setVoteFactor","inputs":[{"name":"_voteFactor","type":"uint256","internalType":"uint256"}],"outputs":[],"stateMutability":"nonpayable"},{"type":"function","name":"sweepNative","inputs":[{"name":"amount","type":"uint256","internalType":"uint256"}],"outputs":[],"stateMutability":"nonpayable"},{"type":"function","name":"sweepNative","inputs":[],"outputs":[],"stateMutability":"nonpayable"},{"type":"function","name":"sweepToken","inputs":[{"name":"token","type":"address","internalType":"contract IERC20"}],"outputs":[],"stateMutability":"nonpayable"},{"type":"function","name":"sweepToken","inputs":[{"name":"token","type":"address","internalType":"contract IERC20"},{"name":"amount","type":"uint256","internalType":"uint256"}],"outputs":[],"stateMutability":"nonpayable"},{"type":"function","name":"symbol","inputs":[],"outputs":[{"name":"","type":"string","internalType":"string"}],"stateMutability":"view"},{"type":"function","name":"token","inputs":[],"outputs":[{"name":"","type":"address","internalType":"contract IERC20"}],"stateMutability":"view"},{"type":"function","name":"total","inputs":[],"outputs":[{"name":"","type":"uint256","internalType":"uint256"}],"stateMutability":"view"},{"type":"function","name":"totalSupply","inputs":[],"outputs":[{"name":"","type":"uint256","internalType":"uint256"}],"stateMutability":"view"},{"type":"function","name":"transfer","inputs":[{"name":"to","type":"address","internalType":"address"},{"name":"amount","type":"uint256","internalType":"uint256"}],"outputs":[{"name":"","type":"bool","internalType":"bool"}],"stateMutability":"nonpayable"},{"type":"function","name":"transferFrom","inputs":[{"name":"from","type":"address","internalType":"address"},{"name":"to","type":"address","internalType":"address"},{"name":"amount","type":"uint256","internalType":"uint256"}],"outputs":[{"name":"","type":"bool","internalType":"bool"}],"stateMutability":"nonpayable"},{"type":"function","name":"transferOwnership","inputs":[{"name":"newOwner","type":"address","internalType":"address"}],"outputs":[],"stateMutability":"nonpayable"},{"type":"function","name":"uri","inputs":[],"outputs":[{"name":"","type":"string","internalType":"string"}],"stateMutability":"view"},{"type":"event","name":"Adjust","inputs":[{"name":"beneficiary","type":"address","indexed":true,"internalType":"address"},{"name":"amount","type":"int256","indexed":false,"internalType":"int256"}],"anonymous":false},{"type":"event","name":"Approval","inputs":[{"name":"owner","type":"address","indexed":true,"internalType":"address"},{"name":"spender","type":"address","indexed":true,"internalType":"address"},{"name":"value","type":"uint256","indexed":false,"internalType":"uint256"}],"anonymous":false},{"type":"event","name":"Claim","inputs":[{"name":"beneficiary","type":"address","indexed":true,"internalType":"address"},{"name":"amount","type":"uint256","indexed":false,"internalType":"uint256"}],"anonymous":false},{"type":"event","name":"DelegateChanged","inputs":[{"name":"delegator","type":"address","indexed":true,"internalType":"address"},{"name":"fromDelegate","type":"address","indexed":true,"internalType":"address"},{"name":"toDelegate","type":"address","indexed":true,"internalType":"address"}],"anonymous":false},{"type":"event","name":"DelegateVotesChanged","inputs":[{"name":"delegate","type":"address","indexed":true,"internalType":"address"},{"name":"previousBalance","type":"uint256","indexed":false,"internalType":"uint256"},{"name":"newBalance","type":"uint256","indexed":false,"internalType":"uint256"}],"anonymous":false},{"type":"event","name":"EIP712DomainChanged","inputs":[],"anonymous":false},{"type":"event","name":"InitializeDistributionRecord","inputs":[{"name":"beneficiary","type":"address","indexed":true,"internalType":"address"},{"name":"total","type":"uint256","indexed":false,"internalType":"uint256"}],"anonymous":false},{"type":"event","name":"InitializeDistributor","inputs":[{"name":"token","type":"address","indexed":true,"internalType":"contract IERC20"},{"name":"total","type":"uint256","indexed":false,"internalType":"uint256"},{"name":"uri","type":"string","indexed":false,"internalType":"string"},{"name":"fractionDenominator","type":"uint256","indexed":false,"internalType":"uint256"}],"anonymous":false},{"type":"event","name":"OwnershipTransferred","inputs":[{"name":"previousOwner","type":"address","indexed":true,"internalType":"address"},{"name":"newOwner","type":"address","indexed":true,"internalType":"address"}],"anonymous":false},{"type":"event","name":"SetDelay","inputs":[{"name":"maxDelayTime","type":"uint160","indexed":false,"internalType":"uint160"}],"anonymous":false},{"type":"event","name":"SetMerkleRoot","inputs":[{"name":"merkleRoot","type":"bytes32","indexed":false,"internalType":"bytes32"}],"anonymous":false},{"type":"event","name":"SetSweepRecipient","inputs":[{"name":"recipient","type":"address","indexed":false,"internalType":"address"}],"anonymous":false},{"type":"event","name":"SetToken","inputs":[{"name":"token","type":"address","indexed":true,"internalType":"contract IERC20"}],"anonymous":false},{"type":"event","name":"SetTotal","inputs":[{"name":"total","type":"uint256","indexed":false,"internalType":"uint256"}],"anonymous":false},{"type":"event","name":"SetUri","inputs":[{"name":"uri","type":"string","indexed":true,"internalType":"string"}],"anonymous":false},{"type":"event","name":"SetVoteFactor","inputs":[{"name":"voteFactor","type":"uint256","indexed":false,"internalType":"uint256"}],"anonymous":false},{"type":"event","name":"SweepNative","inputs":[{"name":"amount","type":"uint256","indexed":false,"internalType":"uint256"}],"anonymous":false},{"type":"event","name":"SweepToken","inputs":[{"name":"token","type":"address","indexed":true,"internalType":"address"},{"name":"amount","type":"uint256","indexed":false,"internalType":"uint256"}],"anonymous":false},{"type":"event","name":"Transfer","inputs":[{"name":"from","type":"address","indexed":true,"internalType":"address"},{"name":"to","type":"address","indexed":true,"internalType":"address"},{"name":"value","type":"uint256","indexed":false,"internalType":"uint256"}],"anonymous":false},{"type":"error","name":"InvalidShortString","inputs":[]},{"type":"error","name":"StringTooLong","inputs":[{"name":"str","type":"string","internalType":"string"}]}],"bytecode":{"object":"0x61018080604052346200098c5762004e848038038091620000218285620009ad565b833981019060c0818303126200098c5780516001600160a01b03811681036200098c57602082015160408301519092906001600160401b0381116200098c57810184601f820112156200098c5780516001600160401b0381116200070d576040519562000099601f8301601f191660200188620009ad565b818752602082840101116200098c57620000ba9160208088019101620009d1565b6060810151608082015160a090920151909390926001600160a01b03841684036200098c57620000e9620009f6565b620000f3620009f6565b90604051620001028162000991565b600381526212559560ea1b602082015260405192620001218462000991565b60018452603160f81b60208086019190915260008054336001600160a01b03198216811783556040517fccdd1baf560d2682736fa25752c8ccc0c5fc4079b245b0acf7389776308d5b1f949390926001600160a01b0316907f8be0079c531659141344cd1fd0a4f28419497f9722a3daafe3b4186f6b6457e09080a3600180546001600160a01b031916339081179091558152a18051906001600160401b0382116200070d578190620001d660055462000a31565b601f811162000936575b50602090601f8311600114620008a7576000926200089b575b50508160011b916000199060031b1c1916176005555b8051906001600160401b0382116200070d5781906200023060065462000a31565b601f81116200083a575b50602090601f8311600114620007bc57600092620007b0575b50508160011b916000199060031b1c1916176006555b620002748162000b10565b61012052620002838262000c9d565b6101405260208151910120908160e0526020815191012080610100524660a052604051917f8b73c3c69bb8fe3d512ecc4cf759cc79239f7b179b0ffacaa9a75d522b39400f6020840152604083015260608201524660808201523060a082015260a081528060c081011060018060401b0360c0830111176200070d5760c0818101604052815160208301206080523090526001600e556001600160a01b0382161562000768575081156200072357601080546001600160a01b0319166001600160a01b039290921691909117905560115583516001600160401b0381116200070d576200037260135462000a31565b601f8111620006b8575b506020601f8211600114620006485781929394956000926200063c575b50508160011b916000199060031b1c1916176013555b670de0b6b3a76400006101605260018060a01b0360105416601154604051908152606060208201526000601354620003e78162000a31565b90816060850152600181169081600014620006195750600114620005c9575b5090807f433127dedcff849792656a12f4a9dbc0efeb80df5cce6310f53481a93cd71c7192670de0b6b3a764000060408301520390a2601580546001600160a01b0319166001600160a01b03841690811790915515806200058a57620005745760008051602062004e048339815191529260209260008051602062004e4483398151915291849160008051602062004e248339815191529083906001600160a01b0380821690045b601480546001600160a01b0319166001600160a01b0392831617905560405191168152a1620004e66001600160a01b03851662000a6e565b80601755604051908152a180601855604051908152a160405161400a908162000dda823960805181613a40015260a05181613afb015260c05181613a0a015260e05181613a8f01526101005181613ab501526101205181611237015261014051816112610152610160518181816105440152818161253d0152818161295901528181612ae10152612b160152f35b634e487b7160e01b600052601260045260246000fd5b5060008051602062004e44833981519152602060008051602062004e048339815191529460008051602062004e248339815191528280966000620004ae565b6013600090815260008051602062004de4833981519152939250905b808210620005fd575090915081016080018162000406565b91926001816020925460808588010152019101909291620005e5565b60ff191660808086019190915291151560051b8401909101915082905062000406565b01519050388062000399565b601360005260206000209060005b601f19841681106200069f575060019394959683601f1981161062000685575b505050811b01601355620003af565b015160001960f88460031b161c1916905538808062000676565b9091602060018192858b01518155019301910162000656565b601360005260008051602062004de4833981519152601f830160051c81016020841062000705575b601f830160051c82018110620006f85750506200037c565b60008155600101620006e0565b5080620006e0565b634e487b7160e01b600052604160045260246000fd5b60405162461bcd60e51b815260206004820152601760248201527f4469737472696275746f723a20746f74616c20697320300000000000000000006044820152606490fd5b60c060649162461bcd60e51b82820152602060c4820152602060e48201527f4469737472696275746f723a20746f6b656e206973206164647265737328302961010482015201fd5b01519050388062000253565b60066000908152935060008051602062004e6483398151915291905b601f19841685106200081e576001945083601f1981161062000804575b505050811b0160065562000269565b015160001960f88460031b161c19169055388080620007f5565b81810151835560209485019460019093019290910190620007d8565b600660005290915060008051602062004e64833981519152601f840160051c81016020851062000893575b90849392915b601f830160051c82018110620008835750506200023a565b600081558594506001016200086b565b508062000865565b015190503880620001f9565b6005600090815293507f036b6384b5eca791c62761152d0c79bb0604c104a5fb6f4eb0703f3154bb3db091905b601f19841685106200091a576001945083601f1981161062000900575b505050811b016005556200020f565b015160001960f88460031b161c19169055388080620008f1565b81810151835560209485019460019093019290910190620008d4565b90915060056000526020600020601f840160051c81016020851062000984575b90849392915b601f830160051c8201811062000974575050620001e0565b600081558594506001016200095c565b508062000956565b600080fd5b604081019081106001600160401b038211176200070d57604052565b601f909101601f19168101906001600160401b038211908210176200070d57604052565b60005b838110620009e55750506000910152565b8181015183820152602001620009d4565b6040519062000a058262000991565b601582527f496e7465726e616c20766f746520747261636b657200000000000000000000006020830152565b90600182811c9216801562000a63575b602083101462000a4d57565b634e487b7160e01b600052602260045260246000fd5b91607f169162000a41565b6014546001600160a01b03919082161562000b0c578181161562000ac757600019430143811162000ab15782904016181660018060a01b03196016541617601655565b634e487b7160e01b600052601160045260246000fd5b60405162461bcd60e51b815260206004820152601860248201527f492064656d616e64206d6f72652072616e646f6d6e65737300000000000000006044820152606490fd5b5050565b80516020908181101562000b8e5750601f82511162000b4c578082519201519080831062000b3d57501790565b82600019910360031b1b161790565b60449062000b809260405193849263305a27a960e01b845280600485015282519283918260248701528686019101620009d1565b601f01601f19168101030190fd5b919291906001600160401b0382116200070d5762000bae60075462000a31565b601f811162000c65575b5080601f831160011462000bf9575081929360009262000bed575b50508160011b916000199060031b1c19161760075560ff90565b01519050388062000bd3565b90601f19831694600760005282600020926000905b87821062000c4c57505083600195961062000c32575b505050811b0160075560ff90565b015160001960f88460031b161c1916905538808062000c24565b8060018596829496860151815501950193019062000c0e565b600060078152601f838220920160051c820191601f850160051c015b82811062000c9157505062000bb8565b81815560010162000c81565b80516020908181101562000cca5750601f82511162000b4c578082519201519080831062000b3d57501790565b919291906001600160401b0382116200070d5762000cea60085462000a31565b601f811162000da1575b5080601f831160011462000d35575081929360009262000d29575b50508160011b916000199060031b1c19161760085560ff90565b01519050388062000d0f565b90601f19831694600860005282600020926000905b87821062000d8857505083600195961062000d6e575b505050811b0160085560ff90565b015160001960f88460031b161c1916905538808062000d60565b8060018596829496860151815501950193019062000d4a565b600060088152601f838220920160051c820191601f850160051c015b82811062000dcd57505062000cf4565b81815560010162000dbd56fe6080604052600436101561001257600080fd5b60003560e01c806306fdde03146103bd578063095ea7b3146103095780630f56b96c146103b857806313c67ce5146103b3578063144fa6d7146103ae57806318160ddd146103275780631be19560146103a95780631f8d1d50146103a457806323b872dd1461039f578063276801ec1461039a5780632ddbd13a14610395578063313ce567146103905780633644e5151461038b57806339509351146103865780633a46b1a8146103815780633cf3a0251461037c57806349590657146103775780634bf5d7e914610372578063587cde1e1461036d5780635c19a95c146103685780636fcfff451461036357806370a082311461035e578063715018a61461035957806375aa9bc6146103545780637cb647591461034f5780637ecebe001461034a578063839f6ded1461034557806384b0196e146103405780638da5cb5b1461033b5780638e539e8c1461033657806391ddadf41461033157806395d89b411461032c5780639a0e7d66146103275780639ab24eb0146103225780639b642de11461031d578063a3f4df7e14610318578063a457c2d714610313578063a4ef1f781461030e578063a9059cbb14610309578063ab803a7614610304578063bb22dccb146102ff578063c3cda520146102fa578063c6e8d982146102f5578063c78d5985146102f0578063c9557255146102eb578063d3d0ec89146102e6578063d505accf146102e1578063dd62ed3e146102dc578063de032f58146102d7578063dfc5aed0146102d2578063e834a834146102cd578063e85858d9146102c8578063e90a182f146102c3578063eac989f8146102be578063f1127ed8146102b9578063f2fde38b146102b4578063f56c8547146102af578063fc0c546a146102aa5763ffa1ad74146102a557600080fd5b61227b565b612252565b612229565b612162565b6120d7565b612040565b611f94565b611ede565b611ec0565b611cb9565b611c49565b611be6565b611aa6565b611a59565b611a0d565b6119e4565b6119bb565b61188c565b611843565b6117e8565b61050b565b6117c1565b61171e565b6116b6565b611566565b611503565b6107b3565b61145a565b61142e565b61133e565b611315565b61121c565b61118c565b6110e1565b611095565b610e99565b610e3e565b610e01565b610db6565b610d8e565b610d4f565b610c9d565b610c7f565b610c10565b610abb565b610a25565b610a0a565b6109ee565b6109d0565b6109a7565b610905565b6108b9565b6107d1565b61070b565b6106ba565b61052c565b610416565b919082519283825260005b8481106103ee575050826000602080949584010152601f8019910116010190565b6020818301810151848301820152016103cd565b9060206104139281815201906103c2565b90565b346104f5576000806003193601126104f2576040518160055461043881612006565b9081845260209260019182811690816000146104d05750600114610477575b610473856104678189038261060e565b60405191829182610402565b0390f35b929450600583527f036b6384b5eca791c62761152d0c79bb0604c104a5fb6f4eb0703f3154bb3db05b8284106104bd575050508161047393610467928201019338610457565b80548585018701529285019281016104a0565b60ff191686860152505050151560051b82010191506104678161047338610457565b80fd5b600080fd5b6001600160a01b038116036104f557565b346104f55760403660031901126104f5576105276004356104fa565b612c49565b346104f55760003660031901126104f55760206040517f00000000000000000000000000000000000000000000000000000000000000008152f35b634e487b7160e01b600052604160045260246000fd5b6060810190811067ffffffffffffffff82111761059957604052565b610567565b6040810190811067ffffffffffffffff82111761059957604052565b6020810190811067ffffffffffffffff82111761059957604052565b6080810190811067ffffffffffffffff82111761059957604052565b60c0810190811067ffffffffffffffff82111761059957604052565b90601f8019910116810190811067ffffffffffffffff82111761059957604052565b6040519061063d8261057d565b565b6040519061063d8261059e565b67ffffffffffffffff811161059957601f01601f191660200190565b9291926106748261064c565b91610682604051938461060e565b8294818452818301116104f5578281602093846000960137010152565b9080601f830112156104f55781602061041393359101610668565b346104f55760403660031901126104f5576004356106d7816104fa565b60243567ffffffffffffffff81116104f5576020916106fd61070392369060040161069f565b906128dc565b604051908152f35b346104f55760203660031901126104f557600435610728816104fa565b610730612bf1565b6001600160a01b0316801561077857601080546001600160a01b031916821790557fefc1fd16ea80a922086ee4e995739d59b025c1bcea6d1f67855747480c83214b600080a2005b60405162461bcd60e51b8152602060048201526013602482015272746f6b656e206973206164647265737328302960681b6044820152606490fd5b346104f55760003660031901126104f5576020600454604051908152f35b346104f55760203660031901126104f5576004356107ee816104fa565b6107f6612bf1565b6040516370a0823160e01b81523060048201526001600160a01b0382169190602081602481865afa80156108b4577ff4a44a7f605c4971a27bcecb448108e6328b7fad34fab5bff4f69377294b826d9261087b92600092610880575b5060015461086b9183916001600160a01b031690613665565b6040519081529081906020820190565b0390a2005b61086b9192506108a69060203d81116108ad575b61089e818361060e565b810190612b67565b9190610852565b503d610894565b612b76565b346104f55760203660031901126104f5577fac657d3615bd618ee537848e2b33acd2a9df67d4776485ab6922b0421d324d2960206004356108f8612bf1565b80601155604051908152a1005b346104f55760603660031901126104f557600435610922816104fa565b61092d6024356104fa565b6001600160a01b031660009081526003602090815260408083203384529091529020546001810115612c49576044351115612c495760405162461bcd60e51b815260206004820152601d60248201527f45524332303a20696e73756666696369656e7420616c6c6f77616e63650000006044820152606490fd5b346104f55760003660031901126104f5576016546040516001600160a01b039091168152602090f35b346104f55760003660031901126104f5576020601154604051908152f35b346104f55760003660031901126104f557602060405160128152f35b346104f55760003660031901126104f5576020610703613a07565b346104f55760403660031901126104f557610a6a600435610a45816104fa565b33600052600360205260406000209060018060a01b0316600052602052604060002090565b54602435810110610ab65760405162461bcd60e51b81526020600482015260196024820152783234b9b0b13632b2103337b9103b37ba34b733903837bbb2b960391b6044820152606490fd5b612457565b346104f55760403660031901126104f557600435610ad8816104fa565b60243590610af765ffffffffffff610aef43613ece565b168310612d26565b6001600160a01b03166000908152600c6020526040812080549290918360058111610bbf575b50905b838210610b6e57505081610b47575050602060005b6040516001600160e01b039091168152f35b610b62610b6991602093600019019060005260206000200190565b5460201c90565b610b35565b9092610b7a8185613cfe565b908263ffffffff610b9f610b95858860005260206000200190565b5463ffffffff1690565b161115610baf5750925b90610b20565b9350610bba90612649565b610ba9565b80610bcf610bd592969396613d13565b90612486565b908263ffffffff610bf0610b95858860005260206000200190565b161115610c005750925b38610b1d565b9350610c0b90612649565b610bfa565b346104f55760203660031901126104f557600435610c2c612bf1565b7f3b381fdfc0e2729a70e8b26ae2397e9014f703a8235b557f5581c4ed47280fd26020600092610c75848080808560018060a01b03600154165af1610c6f612b82565b50612bb2565b604051908152a180f35b346104f55760003660031901126104f5576020601854604051908152f35b346104f55760003660031901126104f5574365ffffffffffff610cbf43613ece565b1603610d0a57610473604051610cd48161059e565b601d81527f6d6f64653d626c6f636b6e756d6265722666726f6d3d64656661756c74000000602082015260405191829182610402565b60405162461bcd60e51b815260206004820152601d60248201527f4552433230566f7465733a2062726f6b656e20636c6f636b206d6f64650000006044820152606490fd5b346104f55760203660031901126104f5576020600435610d6e816104fa565b60018060a01b03809116600052600b825260406000205416604051908152f35b346104f55760203660031901126104f557610db4600435610dae816104fa565b336130ec565b005b346104f55760203660031901126104f557600435610dd3816104fa565b60018060a01b0316600052600c6020526020610df3604060002054613f35565b63ffffffff60405191168152f35b346104f55760203660031901126104f557600435610e1e816104fa565b60018060a01b031660005260026020526020604060002054604051908152f35b346104f5576000806003193601126104f257610e58612bf1565b80546001600160a01b03198116825581906001600160a01b03167f8be0079c531659141344cd1fd0a4f28419497f9722a3daafe3b4186f6b6457e08280a380f35b346104f55760403660031901126104f557600435610eb6816104fa565b7fd81661cef4e40e0f1f97384c033d606e4d6b570554fc3524568d8f9fc84c838861087b60243592610ee6612bf1565b6001600160a01b0381166000908152600f60205260409020610f0c90612420565b612420565b610f1e610f198251151590565b6125a1565b600085131561108757845b6001600160781b0391610f3d8383106125fd565b60008712156110375761101492610f9c610f9784610ff694610f9282610f8b610f7f602060115495610f718588101561267f565b01516001600160781b031690565b6001600160781b031690565b10156126db565b612486565b601155565b6001600160a01b0385166000908152600f60205260409020610fd590918416610fd083546001600160781b039060081c1690565b61246d565b610100600160801b0382549160081b1690610100600160801b031916179055565b6010546001600160a01b03166000546001600160a01b031690613665565b61101d81612493565b6040519384526001600160a01b0316929081906020820190565b50610fd56110829261104e610f9784601154612657565b6001600160a01b0385166000908152600f60205260409020921661107d83546001600160781b039060081c1690565b612664565b611014565b611090856125ec565b610f29565b346104f55760203660031901126104f5577f914960aef5e033ce5cae8a7992d4b7a6f0f9741227b66acb67c605b7019f8a4660206004356110d4612bf1565b80601855604051908152a1005b346104f55760203660031901126104f5576004356110fe816104fa565b60018060a01b031660005260096020526020604060002054604051908152f35b9060e06003198301126104f5576004359160243561113b816104fa565b9160443591606435916084359160a4359160c43567ffffffffffffffff928382116104f557806023830112156104f55781600401359384116104f55760248460051b830101116104f5576024019190565b346104f557610db46112066111f86112176112116111a93661111e565b9796949a92939160409a91969a519485938d8d60208701998a9492909160b496949286526001600160601b03199060601b16602086015260348501526054840152607483015260948201520190565b03601f19810183528261060e565b519020923691612297565b906129f5565b6122ed565b346104f5576000806003193601126104f2576112b99061125b7f0000000000000000000000000000000000000000000000000000000000000000613b47565b906112857f0000000000000000000000000000000000000000000000000000000000000000613c41565b9060405191611293836105ba565b8183526112c7602091604051968796600f60f81b885260e08589015260e08801906103c2565b9086820360408801526103c2565b904660608601523060808601528260a086015284820360c08601528080855193848152019401925b8281106112fe57505050500390f35b8351855286955093810193928101926001016112ef565b346104f55760003660031901126104f5576000546040516001600160a01b039091168152602090f35b346104f55760203660031901126104f55760043561136d65ffffffffffff61136543613ece565b168210612d26565b600d5490600082600581116113eb575b50905b8282106113ac57828061139a575060405160008152602090f35b610b69610b626020926000190161363b565b90916113b88184613cfe565b908263ffffffff6113cb610b958561363b565b1611156113db5750915b90611380565b92506113e690612649565b6113d5565b80610bcf6113fb92959395613d13565b908263ffffffff61140e610b958561363b565b16111561141e5750915b3861137d565b925061142990612649565b611418565b346104f55760003660031901126104f557602061144a43613ece565b65ffffffffffff60405191168152f35b346104f5576000806003193601126104f2576040518160065461147c81612006565b9081845260209260019182811690816000146104d057506001146114aa57610473856104678189038261060e565b929450600683527ff652222313e28459528d920b65115c16c04f3efc82aaedc97be59f3f377c0d3f5b8284106114f0575050508161047393610467928201019338610457565b80548585018701529285019281016114d3565b346104f55760203660031901126104f557600435611520816104fa565b6001600160a01b03166000908152600c6020526040902080548061154c57505060405160008152602090f35b60209161155d916000190190612cd6565b5054811c610b35565b346104f5576020806003193601126104f55767ffffffffffffffff6004358181116104f557366023820112156104f5576115aa903690602481600401359101610668565b916115b3612bf1565b8251918211610599576115d0826115cb601354612006565b61273e565b80601f831160011461163e5750819061160093600092611633575b50508160011b916000199060031b1c19161790565b6013555b61160c61279d565b7fd70c1392a974224e639e7a9607dcb2c766826aecfe2dc356f442ce0488b01e1f600080a2005b0151905038806115eb565b90601f1983169361165f6013600052600080516020613fb583398151915290565b926000905b86821061169e5750508360019510611685575b505050811b01601355611604565b015160001960f88460031b161c19169055388080611677565b80600185968294968601518155019501930190611664565b346104f55760003660031901126104f5576104736040516116d68161057d565b602181527f50657241646472657373436f6e74696e756f757356657374696e674d65726b6c6020820152606560f81b60408201526040519182916020835260208301906103c2565b346104f55760403660031901126104f55760043561173b816104fa565b3360005260036020526117676024359160406000209060018060a01b0316600052602052604060002090565b541015612c495760405162461bcd60e51b815260206004820152602560248201527f45524332303a2064656372656173656420616c6c6f77616e63652062656c6f77604482015264207a65726f60d81b6064820152608490fd5b346104f55760203660031901126104f55760206107036004356117e3816104fa565b612b40565b346104f5576000806003193601126104f257611802612bf1565b7f3b381fdfc0e2729a70e8b26ae2397e9014f703a8235b557f5581c4ed47280fd2602047610c75848080808560018060a01b03600154165af1610c6f612b82565b346104f55760203660031901126104f55761185f6004356104fa565b6020601754604051908152f35b6064359060ff821682036104f557565b6084359060ff821682036104f557565b346104f55760c03660031901126104f5576004356118a9816104fa565b604435906024356118b861186c565b928042116119765761194861197191610db49560405190611930826119226020820195898b8860609194939260808201957fe48329057bfd03d55e49b547132e39cffd9c1820ad7b9d4c5307691425d15adf835260018060a01b0316602083015260408201520152565b03601f19810184528361060e565b61194360a4359360843593519020613b21565b61382e565b6001600160a01b0381166000908152600960205260409020805460018101909155909214612d72565b6130ec565b60405162461bcd60e51b815260206004820152601d60248201527f4552433230566f7465733a207369676e617475726520657870697265640000006044820152606490fd5b346104f55760003660031901126104f5576014546040516001600160a01b039091168152602090f35b346104f55760003660031901126104f5576001546040516001600160a01b039091168152602090f35b346104f55760203660031901126104f5577f6c339c0bee516a4df5d7074ba7a974856d609f83666e915aa4a0f90e06989dc56020600435611a4c612bf1565b80601755604051908152a1005b346104f55760603660031901126104f557600435611a76816104fa565b60443567ffffffffffffffff81116104f557602091611a9c61070392369060040161069f565b9060243590612a8b565b346104f55760e03660031901126104f557600435611ac3816104fa565b60243590611ad0826104fa565b60643591611adc61187c565b90834211611ba15761052793611b8e92611b7b611b148660018060a01b03166000526009602052604060002090815491600183019055565b6119226040519485926020840197604435908b8a91959493909260a09360c08401977f6e71edae12b1b97f4d1f60370fef10105fa2faae0126114a169c64845d6126c98552600180871b038092166020860152166040840152606083015260808201520152565b61194360c4359360a43593519020613b21565b6001600160a01b03908116911614612c8a565b60405162461bcd60e51b815260206004820152601d60248201527f45524332305065726d69743a206578706972656420646561646c696e650000006044820152606490fd5b346104f55760403660031901126104f5576020611c40600435611c08816104fa565b60243590611c15826104fa565b60018060a01b03166000526003835260406000209060018060a01b0316600052602052604060002090565b54604051908152f35b346104f55760203660031901126104f5577fccdd1baf560d2682736fa25752c8ccc0c5fc4079b245b0acf7389776308d5b1f6020600435611c89816104fa565b611c91612bf1565b600180546001600160a01b0319166001600160a01b03929092169182179055604051908152a1005b346104f5576111f8611206611d22611211611cd33661111e565b979694999291869b9196928b9560405196879560208701998a9492909160b496949286526001600160601b03199060601b16602086015260348501526054840152607483015260948201520190565b6002600e5414611e7b576002600e55611d7b604051611d40816105ba565b60008082526001600160a01b0385168152600f60205260409020546001600160781b039384169060081c8416819003611e6b575b50836128dc565b168015611e0e576001600160a01b0382166000908152600f60205260409020611e049290611de290611dbc8461107d83546001600160781b039060801c1690565b8154600160801b600160f81b03191660809190911b600160801b600160f81b0316179055565b611df6611df183601254612657565b601255565b611dff81612493565b612896565b610db46001600e55565b60405162461bcd60e51b815260206004820152602f60248201527f4469737472696275746f723a206e6f206d6f726520746f6b656e7320636c616960448201526e6d61626c65207269676874206e6f7760881b6064820152608490fd5b611e7590856122ed565b38611d74565b60405162461bcd60e51b815260206004820152601f60248201527f5265656e7472616e637947756172643a207265656e7472616e742063616c6c006044820152606490fd5b346104f55760003660031901126104f5576020601254604051908152f35b346104f55760203660031901126104f557610473600435611efe816104fa565b6040906000828051611f0f8161057d565b828152826020820152015260018060a01b0316600052600f6020528060002090805191611f3b8361057d565b5460ff8116151583526001600160781b0390818160081c16602085015260801c1681830152519182918291909160406060820193805115158352816020820151916001600160781b038093166020860152015116910152565b346104f55760403660031901126104f557600435611fb1816104fa565b7ff4a44a7f605c4971a27bcecb448108e6328b7fad34fab5bff4f69377294b826d602060243592611fe0612bf1565b6001546001600160a01b039190611ffb908690841683613665565b6040519485521692a2005b90600182811c92168015612036575b602083101461202057565b634e487b7160e01b600052602260045260246000fd5b91607f1691612015565b346104f5576000806003193601126104f2576040518160135461206281612006565b9081845260209260019182811690816000146104d0575060011461209057610473856104678189038261060e565b92945060138352600080516020613fb58339815191525b8284106120c4575050508161047393610467928201019338610457565b80548585018701529285019281016120a7565b346104f55760403660031901126104f5576004356120f4816104fa565b63ffffffff60243581811681036104f55761213e6121449160409460006020875161211e8161059e565b82815201526001600160a01b03166000908152600c602052859020612cd6565b50612d04565b8251815190921682526020908101516001600160e01b031690820152f35b346104f55760203660031901126104f55760043561217f816104fa565b612187612bf1565b6001600160a01b0390811680156121d557600080546001600160a01b03198116831782559092167f8be0079c531659141344cd1fd0a4f28419497f9722a3daafe3b4186f6b6457e08380a380f35b60405162461bcd60e51b815260206004820152602660248201527f4f776e61626c653a206e6577206f776e657220697320746865207a65726f206160448201526564647265737360d01b6064820152608490fd5b346104f55760003660031901126104f5576015546040516001600160a01b039091168152602090f35b346104f55760003660031901126104f5576010546040516001600160a01b039091168152602090f35b346104f55760003660031901126104f557602060405160048152f35b90929167ffffffffffffffff8411610599578360051b602092836040516122c08285018261060e565b80978152019181019283116104f557905b8282106122de5750505050565b813581529083019083016122d1565b6001600160781b038083116123c65761063d921661237f6123336123238460018060a01b0316600052600f602052604060002090565b5460801c6001600160781b031690565b61236261233e610630565b60018152916001600160781b03851660208401526001600160781b03166040830152565b6001600160a01b0384166000908152600f60205260409020612828565b6040516001600160781b039190911681526001600160a01b038216907fdb598eb8e0a3d3d5c2e02e4cab1ee8b65bb20e48fc7b42f4c76272de4cdd243490602090a2612493565b60405162461bcd60e51b815260206004820152602c60248201527f4469737472696275746f723a20746f74616c416d6f756e74203e20747970652860448201526b0ead2dce8626460525cdac2f60a31b6064820152608490fd5b9060405161242d8161057d565b604081935460ff8116151583526001600160781b0390818160081c16602085015260801c16910152565b634e487b7160e01b600052601160045260246000fd5b6001600160781b039182169082160391908211610ab657565b91908203918211610ab657565b6001600160a01b038116600090815260026020908152604080832054600f9092529091209091906124c390612420565b6001600160781b038060208160408501511693015116808310156000146125245750505060005b80831115612505576124ff9061063d93612486565b90612f05565b80831061251157505050565b61063d9261251e91612486565b90612e23565b61253b926125319161246d565b166017549061256e565b7f000000000000000000000000000000000000000000000000000000000000000090811561256957046124ea565b612581565b81810292918115918404141715610ab657565b634e487b7160e01b600052601260045260246000fd5b8115612569570490565b156125a857565b606460405162461bcd60e51b815260206004820152602060248201527f6d75737420696e697469616c697a65206265666f72652061646a757374696e676044820152fd5b600160ff1b8114610ab65760000390565b1561260457565b60405162461bcd60e51b815260206004820152601860248201527f61646a7573746d656e74203e206d61782075696e7431323000000000000000006044820152606490fd5b9060018201809211610ab657565b91908201809211610ab657565b9190916001600160781b0380809416911601918211610ab657565b1561268657565b60405162461bcd60e51b815260206004820152602760248201527f64656372656173652067726561746572207468616e206469737472696275746f6044820152661c881d1bdd185b60ca1b6064820152608490fd5b156126e257565b60405162461bcd60e51b815260206004820152602e60248201527f64656372656173652067726561746572207468616e206469737472696275746960448201526d1bdb949958dbdc99081d1bdd185b60921b6064820152608490fd5b601f811161274a575050565b60009060138252600080516020613fb5833981519152906020601f850160051c83019410612793575b601f0160051c01915b82811061278857505050565b81815560010161277c565b9092508290612773565b6040518060006013546127af81612006565b9060019081811690811561281157506001146127ce575b505003902090565b60136000908152919250600080516020613fb58339815191525b8383106127fb57505050810138806127c6565b80548684015285945060209092019181016127e8565b60ff191685525050801515028201905038806127c6565b815181546020840151610100600160801b0360089190911b1691151560ff166fffffffffffffffffffffffffffffffff199091161717815561063d916001600160781b0390604001518254600160801b600160f81b031916911660801b600160801b600160f81b0316179055565b60207f47cee97cb7acd717b3c0aa1435d004cd5b3c8c57d70dbceb4e4458bbd60e39d49160018060a01b03906128d185828460105416613665565b6040519485521692a2565b6001600160a01b0381166000908152600f602052604090205460ff16156129a55761298d604061297e61295761294761292a610f078760018060a01b0316600052600f602052604060002090565b9661293f60208901516001600160781b031690565b964290612a8b565b6001600160781b0380961661256e565b7f000000000000000000000000000000000000000000000000000000000000000090612597565b9301516001600160781b031690565b1681811061299c575050600090565b61041391612486565b60405162461bcd60e51b815260206004820152602260248201527f4469737472696275746f723a20636c61696d206e6f7420696e697469616c697a604482015261195960f21b6064820152608490fd5b60185492600092915b8251841015612a4a576020808560051b85010151916000838210600014612a3d57506000525260406000205b926000198114610ab657600101926129fe565b9160409383525220612a2a565b915092915003612a5657565b60405162461bcd60e51b815260206004820152600d60248201526c34b73b30b634b210383937b7b360991b6044820152606490fd5b906060838051810103126104f557602083015192612ab26060604083015192015193612b40565b8203918211610ab657811115612b385781811015612b1157828103908111610ab65761041392612b05612b0b927f000000000000000000000000000000000000000000000000000000000000000061256e565b92612486565b90612597565b5050507f000000000000000000000000000000000000000000000000000000000000000090565b505050600090565b6014546001600160a01b0391908216908115612b3857829081806016541691161816041690565b908160209103126104f5575190565b6040513d6000823e3d90fd5b3d15612bad573d90612b938261064c565b91612ba1604051938461060e565b82523d6000602084013e565b606090565b15612bb957565b60405162461bcd60e51b815260206004820152601060248201526f2a3930b739b332b9103330b4b632b21760811b6044820152606490fd5b6000546001600160a01b03163303612c0557565b606460405162461bcd60e51b815260206004820152602060248201527f4f776e61626c653a2063616c6c6572206973206e6f7420746865206f776e65726044820152fd5b60405162461bcd60e51b81526020600482015260196024820152783234b9b0b13632b2103337b9103b37ba34b733903837bbb2b960391b6044820152606490fd5b15612c9157565b60405162461bcd60e51b815260206004820152601e60248201527f45524332305065726d69743a20696e76616c6964207369676e617475726500006044820152606490fd5b8054821015612cee5760005260206000200190600090565b634e487b7160e01b600052603260045260246000fd5b90604051612d118161059e565b602081935463ffffffff81168352811c910152565b15612d2d57565b60405162461bcd60e51b815260206004820152601960248201527f4552433230566f7465733a20667574757265206c6f6f6b7570000000000000006044820152606490fd5b15612d7957565b60405162461bcd60e51b815260206004820152601960248201527f4552433230566f7465733a20696e76616c6964206e6f6e6365000000000000006044820152606490fd5b15612dc557565b60405162461bcd60e51b815260206004820152603060248201527f4552433230566f7465733a20746f74616c20737570706c79207269736b73206f60448201526f766572666c6f77696e6720766f74657360801b6064820152608490fd5b906001600160a01b0382168015612ec057600454828101809111610ab657612ebc93612ea192612e538593600455565b6001600160a01b0382166000908152600260209081526040808320805487019055518581527fddf252ad1be2c89b69c2b068fc378daa952ba7f163c4a11628f55a4df523b3ef9190a3613053565b600454612eb7906001600160e01b031015612dbe565b613439565b5050565b60405162461bcd60e51b815260206004820152601f60248201527f45524332303a206d696e7420746f20746865207a65726f2061646472657373006044820152606490fd5b6001600160a01b03811691908215612fad5781816000612ebc9583612f3f612fa89660018060a01b03166000526002602052604060002090565b54612f4c82821015612ffc565b03612f698460018060a01b03166000526002602052604060002090565b55612f778460045403600455565b6040518481527fddf252ad1be2c89b69c2b068fc378daa952ba7f163c4a11628f55a4df523b3ef90602090a361309e565b613529565b60405162461bcd60e51b815260206004820152602160248201527f45524332303a206275726e2066726f6d20746865207a65726f206164647265736044820152607360f81b6064820152608490fd5b1561300357565b60405162461bcd60e51b815260206004820152602260248201527f45524332303a206275726e20616d6f756e7420657863656564732062616c616e604482015261636560f01b6064820152608490fd5b600b6020527fdf7de25b7f1fd6d0b5205f0e18f1f35bd7b8d84cce336588d184533ce43a6f76546001600160a01b039182166000908152604090205461063d9392908116911661315c565b6001600160a01b039081166000908152600b60205260408120549080527fdf7de25b7f1fd6d0b5205f0e18f1f35bd7b8d84cce336588d184533ce43a6f765461063d9392908116911661315c565b61063d9160018060a01b03809216600092818452600b60205280604085205416809260026020527f3134e8a2e6d97e929a7e54011ea5485d7d196dd5f0ba4d4ef95803e8e3fc257f604087205496600b6020526040812094871694856001600160601b0360a01b82541617905580a45b6001600160a01b0380831693929116808414158061336f575b613180575b50505050565b806131ee575b5082613193575b8061317a565b6001600160a01b03166000908152600c602052604090207fdec2bacdd2f05b59de34da9b523dff8be42e5e38e818c82fdb0bae774387a724916131d591613582565b60408051928352602083019190915290a238808061318d565b80600052600c6020527fdec2bacdd2f05b59de34da9b523dff8be42e5e38e818c82fdb0bae774387a724604060002080548015918260001461334c5761323261063f565b6000815260006020820152915b602083015161325e906001600160e01b03165b6001600160e01b031690565b926132698985613f9a565b94159081613329575b50156132c75761329a6132b19261328886613e65565b92600019019060005260206000200190565b9063ffffffff82549181199060201b169116179055565b604080519182526020820192909252a238613186565b50613324906132eb6132e66132db43613ece565b65ffffffffffff1690565b613f35565b9061331f6132f886613e65565b61330f61330361063f565b63ffffffff9095168552565b6001600160e01b03166020840152565b6133df565b6132b1565b5163ffffffff16905063ffffffff6133436132db43613ece565b91161438613272565b61336961336460001984018360005260206000200190565b612d04565b9161323f565b50821515613175565b600d5490600160401b821015610599576001820180600d55821015612cee57600d600052805160209182015190911b63ffffffff191663ffffffff91909116177fd7b6990105719101dabeb77144f2a3385c8033acd3af97e9423a695e81ad1eb590910155565b8054600160401b811015610599576133fc91600182018155612cd6565b61342357815160209283015190921b63ffffffff191663ffffffff92909216919091179055565b634e487b7160e01b600052600060045260246000fd5b600d54909181159182156135145761344f61063f565b60008152600060208201525b602081015161347d90613476906001600160e01b0316613252565b9586613fa7565b931590816134f1575b50156134a65761063d9061329a61349c85613e65565b916000190161363b565b5061063d6134b96132e66132db43613ece565b6134ec6134c585613e65565b6134dc6134d061063f565b63ffffffff9094168452565b6001600160e01b03166020830152565b613378565b5163ffffffff16905063ffffffff61350b6132db43613ece565b91161438613486565b613524613364600019830161363b565b61345b565b600d549091811591821561356d5761353f61063f565b60008152600060208201525b602081015161347d90613566906001600160e01b0316613252565b9586613f9a565b61357d613364600019830161363b565b61354b565b90918154918215928360001461361e5761359a61063f565b60008152600060208201525b60208101516135c8906135c1906001600160e01b0316613252565b9687613fa7565b941590816135fb575b50156135e75761329a61063d9261328886613e65565b5061063d906132eb6132e66132db43613ece565b5163ffffffff16905063ffffffff6136156132db43613ece565b911614386135d1565b61363661336460001983018460005260206000200190565b6135a6565b600d6000527fd7b6990105719101dabeb77144f2a3385c8033acd3af97e9423a695e81ad1eb50190565b60405163a9059cbb60e01b602082019081526001600160a01b0393841660248301526044808301959095529381526136f49290916136a2836105d6565b16604051916136b08361059e565b602083527f5361666545524332303a206c6f772d6c6576656c2063616c6c206661696c65646020840152600080958192519082855af16136ee612b82565b91613799565b805190811591821561370d575b505061063d915061373a565b819250906020918101031261373657602001519081151582036104f2575061063d903880613701565b5080fd5b1561374157565b60405162461bcd60e51b815260206004820152602a60248201527f5361666545524332303a204552433230206f7065726174696f6e20646964206e6044820152691bdd081cdd58d8d9595960b21b6064820152608490fd5b919290156137fb57508151156137ad575090565b3b156137b65790565b60405162461bcd60e51b815260206004820152601d60248201527f416464726573733a2063616c6c20746f206e6f6e2d636f6e74726163740000006044820152606490fd5b82519091501561380e5750805190602001fd5b60405162461bcd60e51b815290819061382a9060048301610402565b0390fd5b91610413939161383d93613985565b919091613865565b6005111561384f57565b634e487b7160e01b600052602160045260246000fd5b61386e81613845565b806138765750565b61387f81613845565b600181036138cc5760405162461bcd60e51b815260206004820152601860248201527f45434453413a20696e76616c6964207369676e617475726500000000000000006044820152606490fd5b6138d581613845565b600281036139225760405162461bcd60e51b815260206004820152601f60248201527f45434453413a20696e76616c6964207369676e6174757265206c656e677468006044820152606490fd5b8061392e600392613845565b1461393557565b60405162461bcd60e51b815260206004820152602260248201527f45434453413a20696e76616c6964207369676e6174757265202773272076616c604482015261756560f01b6064820152608490fd5b9291907f7fffffffffffffffffffffffffffffff5d576e7357a4501ddfe92f46681b20a083116139fb5791608094939160ff602094604051948552168484015260408301526060820152600093849182805260015afa156108b45781516001600160a01b038116156139f5579190565b50600190565b50505050600090600390565b307f00000000000000000000000000000000000000000000000000000000000000006001600160a01b03161480613af8575b15613a62577f000000000000000000000000000000000000000000000000000000000000000090565b60405160208101907f8b73c3c69bb8fe3d512ecc4cf759cc79239f7b179b0ffacaa9a75d522b39400f82527f000000000000000000000000000000000000000000000000000000000000000060408201527f000000000000000000000000000000000000000000000000000000000000000060608201524660808201523060a082015260a08152613af2816105f2565b51902090565b507f00000000000000000000000000000000000000000000000000000000000000004614613a39565b604290613b2c613a07565b906040519161190160f01b8352600283015260228201522090565b60ff8114613b855760ff811690601f8211613b735760405191613b698361059e565b8252602082015290565b604051632cd44ac360e21b8152600490fd5b50604051600754816000613b9883612006565b808352602093600190818116908115613c215750600114613bc2575b50506104139250038261060e565b9093915060076000527fa66cc928b5edb82af9bd49922954155ab7b0942694bea4ce44661d9a8736c688936000915b818310613c0957505061041393508201013880613bb4565b85548784018501529485019486945091830191613bf1565b91505061041394925060ff191682840152151560051b8201013880613bb4565b60ff8114613c635760ff811690601f8211613b735760405191613b698361059e565b50604051600854816000613c7683612006565b808352602093600190818116908115613c215750600114613c9f5750506104139250038261060e565b9093915060086000527ff3f7a9fe364faab93b216da50a3214154f22a0a2b415b23a84c8169e8b636ee3936000915b818310613ce657505061041393508201013880613bb4565b85548784018501529485019486945091830191613cce565b90808216911860011c8101809111610ab65790565b8015613e4d5780613de6613ddf613dd5613dcb613dc1613db7613dad613da360016104139a6000908b60801c80613e41575b508060401c80613e34575b508060201c80613e27575b508060101c80613e1a575b508060081c80613e0d575b508060041c80613e00575b508060021c80613df3575b50821c613dec575b811c1b613d9c818b612597565b0160011c90565b613d9c818a612597565b613d9c8189612597565b613d9c8188612597565b613d9c8187612597565b613d9c8186612597565b613d9c8185612597565b8092612597565b90613e53565b8101613d8f565b6002915091019038613d87565b6004915091019038613d7c565b6008915091019038613d71565b6010915091019038613d66565b6020915091019038613d5b565b6040915091019038613d50565b91505060809038613d45565b50600090565b9080821015613e60575090565b905090565b6001600160e01b0390818111613e79571690565b60405162461bcd60e51b815260206004820152602760248201527f53616665436173743a2076616c756520646f65736e27742066697420696e20326044820152663234206269747360c81b6064820152608490fd5b65ffffffffffff90818111613ee1571690565b60405162461bcd60e51b815260206004820152602660248201527f53616665436173743a2076616c756520646f65736e27742066697420696e203460448201526538206269747360d01b6064820152608490fd5b63ffffffff90818111613f46571690565b60405162461bcd60e51b815260206004820152602660248201527f53616665436173743a2076616c756520646f65736e27742066697420696e203360448201526532206269747360d01b6064820152608490fd5b908103908111610ab65790565b908101809111610ab6579056fe66de8ffda797e3de9c05e8fc57b3bf0ec28a930d40b0d285d93c06501cf6a090a26469706673582212203a55cb6eb8ac6dec611b9a1e94a868ffd6ed60e112e96f52c685e3e07705923364736f6c6343000815003366de8ffda797e3de9c05e8fc57b3bf0ec28a930d40b0d285d93c06501cf6a090914960aef5e033ce5cae8a7992d4b7a6f0f9741227b66acb67c605b7019f8a46dccb8d94a5bbd764ed844afa20f2581be18d3fa84b36855e86a8f0c9316cba7d6c339c0bee516a4df5d7074ba7a974856d609f83666e915aa4a0f90e06989dc5f652222313e28459528d920b65115c16c04f3efc82aaedc97be59f3f377c0d3f","linkReferences":{}},"methodIdentifiers":{"CLOCK_MODE()":"4bf5d7e9","DOMAIN_SEPARATOR()":"3644e515","NAME()":"a3f4df7e","VERSION()":"ffa1ad74","adjust(address,int256)":"75aa9bc6","allowance(address,address)":"dd62ed3e","approve(address,uint256)":"095ea7b3","balanceOf(address)":"70a08231","checkpoints(address,uint32)":"f1127ed8","claim(uint256,address,uint256,uint256,uint256,uint256,bytes32[])":"dfc5aed0","claimed()":"e834a834","clock()":"91ddadf4","decimals()":"313ce567","decreaseAllowance(address,uint256)":"a457c2d7","delegate(address)":"5c19a95c","delegateBySig(address,uint256,uint256,uint8,bytes32,bytes32)":"c3cda520","delegates(address)":"587cde1e","distancePerSecond()":"c6e8d982","eip712Domain()":"84b0196e","getClaimableAmount(address,bytes)":"13c67ce5","getDistributionRecord(address)":"e85858d9","getFairDelayTime(address)":"a4ef1f78","getFractionDenominator()":"0f56b96c","getMerkleRoot()":"49590657","getPastTotalSupply(uint256)":"8e539e8c","getPastVotes(address,uint256)":"3a46b1a8","getSweepRecipient()":"c78d5985","getTotalVotes()":"9a0e7d66","getVestedFraction(address,uint256,bytes)":"d3d0ec89","getVoteFactor(address)":"bb22dccb","getVotes(address)":"9ab24eb0","increaseAllowance(address,uint256)":"39509351","initializeDistributionRecord(uint256,address,uint256,uint256,uint256,uint256,bytes32[])":"839f6ded","maxDelayTime()":"f56c8547","name()":"06fdde03","nonces(address)":"7ecebe00","numCheckpoints(address)":"6fcfff45","owner()":"8da5cb5b","permit(address,address,uint256,uint256,uint8,bytes32,bytes32)":"d505accf","randomValue()":"276801ec","renounceOwnership()":"715018a6","setMerkleRoot(bytes32)":"7cb64759","setSweepRecipient(address)":"de032f58","setToken(address)":"144fa6d7","setTotal(uint256)":"1f8d1d50","setUri(string)":"9b642de1","setVoteFactor(uint256)":"c9557255","sweepNative()":"ab803a76","sweepNative(uint256)":"3cf3a025","sweepToken(address)":"1be19560","sweepToken(address,uint256)":"e90a182f","symbol()":"95d89b41","token()":"fc0c546a","total()":"2ddbd13a","totalSupply()":"18160ddd","transfer(address,uint256)":"a9059cbb","transferFrom(address,address,uint256)":"23b872dd","transferOwnership(address)":"f2fde38b","uri()":"eac989f8"},"id":0}