{"abi":[{"type":"constructor","inputs":[{"name":"domain_","type":"uint32","internalType":"uint32"}],"stateMutability":"nonpayable"},{"type":"function","name":"callXreceive","inputs":[{"name":"_transferId","type":"bytes32","internalType":"bytes32"},{"name":"_amount","type":"uint256","internalType":"uint256"},{"name":"_asset","type":"address","internalType":"address"},{"name":"_originSender","type":"address","internalType":"address"},{"name":"_origin","type":"uint32","internalType":"uint32"},{"name":"_proof","type":"bytes32[]","internalType":"bytes32[]"},{"name":"_distributor","type":"address","internalType":"address"}],"outputs":[{"name":"","type":"bytes","internalType":"bytes"}],"stateMutability":"nonpayable"},{"type":"function","name":"domain","inputs":[],"outputs":[{"name":"","type":"uint32","internalType":"uint32"}],"stateMutability":"view"},{"type":"function","name":"setDomain","inputs":[{"name":"domain_","type":"uint32","internalType":"uint32"}],"outputs":[],"stateMutability":"nonpayable"},{"type":"function","name":"xcall","inputs":[{"name":"_destination","type":"uint32","internalType":"uint32"},{"name":"_to","type":"address","internalType":"address"},{"name":"_asset","type":"address","internalType":"address"},{"name":"_delegate","type":"address","internalType":"address"},{"name":"_amount","type":"uint256","internalType":"uint256"},{"name":"_slippage","type":"uint256","internalType":"uint256"},{"name":"_callData","type":"bytes","internalType":"bytes"}],"outputs":[{"name":"","type":"bytes32","internalType":"bytes32"}],"stateMutability":"payable"},{"type":"event","name":"NativeRelayerFeeIncluded","inputs":[{"name":"caller","type":"address","indexed":true,"internalType":"address"},{"name":"amount","type":"uint256","indexed":false,"internalType":"uint256"}],"anonymous":false},{"type":"event","name":"XCalled","inputs":[{"name":"destination","type":"uint32","indexed":false,"internalType":"uint32"},{"name":"to","type":"address","indexed":false,"internalType":"address"},{"name":"asset","type":"address","indexed":false,"internalType":"address"},{"name":"delegate","type":"address","indexed":false,"internalType":"address"},{"name":"amount","type":"uint256","indexed":false,"internalType":"uint256"},{"name":"slippage","type":"uint256","indexed":false,"internalType":"uint256"},{"name":"callData","type":"bytes","indexed":false,"internalType":"bytes"}],"anonymous":false}],"bytecode":{"object":"0x60803461006a57601f6106ba38819003918201601f19168301916001600160401b0383118484101761006f5780849260209460405283398101031261006a575163ffffffff811680910361006a5763ffffffff19600054161760005560405161063490816100868239f35b600080fd5b634e487b7160e01b600052604160045260246000fdfe608080604052600436101561001357600080fd5b60003560e01c9081638aac16ba14610332575080639c59e8c9146100a6578063bf8d2234146100745763c2fb26a61461004b57600080fd5b3461006f57600036600319011261006f57602063ffffffff60005416604051908152f35b600080fd5b3461006f57602036600319011261006f5763ffffffff6100926104df565b1663ffffffff196000541617600055600080f35b3461006f5760e036600319011261006f5760248035906100c46104f2565b916100cd610508565b6084359363ffffffff80861680960361006f5760a4359367ffffffffffffffff851161006f573660238601121561006f57846004013567ffffffffffffffff811161031d578060051b976020966040519261012a898c018561051e565b835287830189819b8301019136831161006f578a8a9101915b83831061030d57505060c435959150506001600160a01b038516850361006f5760005416906040519260a084019160018060a01b0389168a86015260408501528460608501526080808501525180915260c08301999060005b8181106102f957505050966102168260009798996101c78995859d601f19828203018252038361051e565b604051998a988997889663fd614f4160e01b8852600435600489015287015260018060a01b0316604486015260018060a01b03166064850152608484015260c060a484015260c4830190610579565b03926001600160a01b03165af19283156102ed5760009361024c575b5050610248604051928284938452830190610579565b0390f35b909192503d806000843e610260818461051e565b820191838184031261006f5780519067ffffffffffffffff821161006f57019082601f8301121561006f5781519067ffffffffffffffff82116102d95750604051926102b5601f8301601f191686018561051e565b81845284828401011161006f576102d191848085019101610556565b908280610232565b634e487b7160e01b60009081526041600452fd5b6040513d6000823e3d90fd5b82518c529a89019a9189019160010161019c565b82358152918101918a9101610143565b86634e487b7160e01b60005260416004526000fd5b60e036600319011261006f576103466104df565b6001600160a01b03602435818116810361006f576103626104f2565b9161036b610508565b60843560a4359060c4359267ffffffffffffffff9485851161006f573660238601121561006f57846004013595861161006f576024850194602487369201011161006f5782610463575b50602098509181837f0e47ab85bb0215a45fffc76f9e7196681536ad25cd880b3fc6af9050ca9d0f2e888b6104058a8a888f9a6104269f9e9c6104189e9c34610431575b6040519889988961059e565b0390a16040519889978c89019b8c61059e565b03601f19810183528261051e565b519020604051908152f35b60405134815260207fe21295d9849854e47e7e1128c8f7dab3b95663f36f95a46d87a6ff2609f6d7f7903392a26103f9565b8960648160006020946323b872dd60e01b83523360048401523060248401528760448401528c165af180156102ed5761049d575b886103b5565b9290949391976020813d82116104d7575b816104bb6020938361051e565b8101031261006f57518015150361006f57919387919394610497565b3d91506104ae565b6004359063ffffffff8216820361006f57565b604435906001600160a01b038216820361006f57565b606435906001600160a01b038216820361006f57565b90601f8019910116810190811067ffffffffffffffff82111761054057604052565b634e487b7160e01b600052604160045260246000fd5b60005b8381106105695750506000910152565b8181015183820152602001610559565b9060209161059281518092818552858086019101610556565b601f01601f1916010190565b9697959493919063ffffffff16875260018060a01b0392838092166020890152166040870152166060850152608084015260a083015260e060c08301528060e08301528061010093848401376000828201840152601f01601f191601019056fea26469706673582212202345c5468a3e460f3d7c06c052295e54074e4b1c06a5f79c0fbe7e81ea2c1ec864736f6c63430008150033","linkReferences":{}},"methodIdentifiers":{"callXreceive(bytes32,uint256,address,address,uint32,bytes32[],address)":"9c59e8c9","domain()":"c2fb26a6","setDomain(uint32)":"bf8d2234","xcall(uint32,address,address,address,uint256,uint256,bytes)":"8aac16ba"},"id":35}