{"abi":[{"type":"function","name":"deposit","inputs":[{"name":"payee","type":"address","internalType":"address"}],"outputs":[],"stateMutability":"payable"},{"type":"function","name":"depositsOf","inputs":[{"name":"payee","type":"address","internalType":"address"}],"outputs":[{"name":"","type":"uint256","internalType":"uint256"}],"stateMutability":"view"},{"type":"function","name":"initialize","inputs":[],"outputs":[],"stateMutability":"nonpayable"},{"type":"function","name":"owner","inputs":[],"outputs":[{"name":"","type":"address","internalType":"address"}],"stateMutability":"view"},{"type":"function","name":"renounceOwnership","inputs":[],"outputs":[],"stateMutability":"nonpayable"},{"type":"function","name":"transferOwnership","inputs":[{"name":"newOwner","type":"address","internalType":"address"}],"outputs":[],"stateMutability":"nonpayable"},{"type":"function","name":"withdraw","inputs":[{"name":"payee","type":"address","internalType":"address payable"}],"outputs":[],"stateMutability":"nonpayable"},{"type":"event","name":"Deposited","inputs":[{"name":"payee","type":"address","indexed":true,"internalType":"address"},{"name":"weiAmount","type":"uint256","indexed":false,"internalType":"uint256"}],"anonymous":false},{"type":"event","name":"Initialized","inputs":[{"name":"version","type":"uint8","indexed":false,"internalType":"uint8"}],"anonymous":false},{"type":"event","name":"OwnershipTransferred","inputs":[{"name":"previousOwner","type":"address","indexed":true,"internalType":"address"},{"name":"newOwner","type":"address","indexed":true,"internalType":"address"}],"anonymous":false},{"type":"event","name":"Withdrawn","inputs":[{"name":"payee","type":"address","indexed":true,"internalType":"address"},{"name":"weiAmount","type":"uint256","indexed":false,"internalType":"uint256"}],"anonymous":false}],"bytecode":{"object":"0x6080806040523461001657610654908161001c8239f35b600080fdfe60406080815260048036101561001457600080fd5b600091823560e01c806351cff8d914610388578063715018a6146103285780638129fc1c146101f65780638da5cb5b146101c9578063e3a9db1a1461018f578063f2fde38b146100f85763f340fa011461006d57600080fd5b60203660031901126100f45781356001600160a01b03811692908390036100f05761009661051d565b82845260656020528184208054913483018093116100dd575055513481527f2da466a7b24304f47e87fa2e1e5a81b9831ce54fec19055ce277ca2f39ba42c490602090a280f35b634e487b7160e01b865260119052602485fd5b8380fd5b8280fd5b5090346100f45760203660031901126100f4578035916001600160a01b03831680840361018b5761012761051d565b15610139578361013684610575565b80f35b906020608492519162461bcd60e51b8352820152602660248201527f4f776e61626c653a206e6577206f776e657220697320746865207a65726f206160448201526564647265737360d01b6064820152fd5b8480fd5b5090346100f45760203660031901126100f457356001600160a01b038116908190036100f457828291602094526065845220549051908152f35b8382346101f257816003193601126101f25760335490516001600160a01b039091168152602090f35b5080fd5b5090346100f457826003193601126100f457825460ff8160081c16159182809361031b575b8015610304575b156102aa575060ff198116600117845581610299575b5061025260ff845460081c1661024d816105be565b6105be565b61025b33610575565b610263575080f35b60207f7f26b83ff96e1f2b6a682f133852f6798a09c465da95921460cefb38474024989161ff001984541684555160018152a180f35b61ffff191661010117835538610238565b608490602085519162461bcd60e51b8352820152602e60248201527f496e697469616c697a61626c653a20636f6e747261637420697320616c72656160448201526d191e481a5b9a5d1a585b1a5e995960921b6064820152fd5b50303b1580156102225750600160ff831614610222565b50600160ff83161061021b565b833461038557806003193601126103855761034161051d565b603380546001600160a01b0319811690915581906001600160a01b03167f8be0079c531659141344cd1fd0a4f28419497f9722a3daafe3b4186f6b6457e08280a380f35b80fd5b5090346100f457602090816003193601126100f05780356001600160a01b038116939084900361018b576103ba61051d565b838552606583528085209185835493558247106104dc578580808086895af13d156104d75767ffffffffffffffff3d8181116104c457845191601f8201601f19908116603f01168301908111838210176104b1578552815287863d92013e5b1561044a5750519081527f7084f5476618d8e60b11ef0d7d3f06914655adb8793e28ff7f018d4c76d505d59190a280f35b83608492519162461bcd60e51b8352820152603a60248201527f416464726573733a20756e61626c6520746f2073656e642076616c75652c207260448201527f6563697069656e74206d617920686176652072657665727465640000000000006064820152fd5b634e487b7160e01b8a526041855260248afd5b634e487b7160e01b895260418452602489fd5b610419565b83606492519162461bcd60e51b8352820152601d60248201527f416464726573733a20696e73756666696369656e742062616c616e63650000006044820152fd5b6033546001600160a01b0316330361053157565b606460405162461bcd60e51b815260206004820152602060248201527f4f776e61626c653a2063616c6c6572206973206e6f7420746865206f776e65726044820152fd5b603380546001600160a01b039283166001600160a01b0319821681179092559091167f8be0079c531659141344cd1fd0a4f28419497f9722a3daafe3b4186f6b6457e0600080a3565b156105c557565b60405162461bcd60e51b815260206004820152602b60248201527f496e697469616c697a61626c653a20636f6e7472616374206973206e6f74206960448201526a6e697469616c697a696e6760a81b6064820152608490fdfea264697066735822122004c3d8057385ea3ff9aa48116a34f42d7f7fa5704393ac6fcddcf8aa2bccb05664736f6c63430008150033","linkReferences":{}},"methodIdentifiers":{"deposit(address)":"f340fa01","depositsOf(address)":"e3a9db1a","initialize()":"8129fc1c","owner()":"8da5cb5b","renounceOwnership()":"715018a6","transferOwnership(address)":"f2fde38b","withdraw(address)":"51cff8d9"},"id":106}