{"abi":[{"type":"constructor","inputs":[{"name":"implementation","type":"address","internalType":"address"}],"stateMutability":"nonpayable"},{"type":"function","name":"deployDistributor","inputs":[{"name":"_token","type":"address","internalType":"contract IERC20"},{"name":"_total","type":"uint256","internalType":"uint256"},{"name":"_uri","type":"string","internalType":"string"},{"name":"_merkleRoot","type":"bytes32","internalType":"bytes32"},{"name":"_maxDelayTime","type":"uint160","internalType":"uint160"},{"name":"_owner","type":"address","internalType":"address"},{"name":"_nonce","type":"uint256","internalType":"uint256"}],"outputs":[{"name":"distributor","type":"address","internalType":"contract PerAddressContinuousVestingMerkleDistributor"}],"stateMutability":"nonpayable"},{"type":"function","name":"distributors","inputs":[{"name":"","type":"uint256","internalType":"uint256"}],"outputs":[{"name":"","type":"address","internalType":"address"}],"stateMutability":"view"},{"type":"function","name":"getImplementation","inputs":[],"outputs":[{"name":"","type":"address","internalType":"address"}],"stateMutability":"view"},{"type":"function","name":"predictDistributorAddress","inputs":[{"name":"_token","type":"address","internalType":"contract IERC20"},{"name":"_total","type":"uint256","internalType":"uint256"},{"name":"_uri","type":"string","internalType":"string"},{"name":"_merkleRoot","type":"bytes32","internalType":"bytes32"},{"name":"_maxDelayTime","type":"uint160","internalType":"uint160"},{"name":"_owner","type":"address","internalType":"address"},{"name":"_nonce","type":"uint256","internalType":"uint256"}],"outputs":[{"name":"","type":"address","internalType":"address"}],"stateMutability":"view"},{"type":"event","name":"DistributorDeployed","inputs":[{"name":"distributor","type":"address","indexed":true,"internalType":"address"}],"anonymous":false}],"bytecode":{"object":"0x60a03461007757601f61061f38819003918201601f19168301916001600160401b0383118484101761007c5780849260209460405283398101031261007757516001600160a01b03811681036100775760805260405161058c9081610093823960805181818160710152818161025b01526103160152f35b600080fd5b634e487b7160e01b600052604160045260246000fdfe6040608081526004908136101561001557600080fd5b600090813560e01c8063030e905f146102d157806350b492ba1461028a578063aaf10f42146102475763b72bcfee1461004d57600080fd5b346102435761006f61005e366103b0565b81838587898b9c96989a9e9b6104eb565b7f0000000000000000000000000000000000000000000000000000000000000000608881901c62ffffff16763d602d80600a3d3981f3363d3d373d3d3d363d7300000017875260781b6e5af43d82803e903d91602b57fd5bf3176020526001600160a01b03939084906037600989f516988915610200578654680100000000000000008110156101ed5780600161010892018955610461565b81549060031b90878d831b921b19161790558851978a7f448708bcd9fda3435ba79d40bb017e884dcbed0b1e972743c8fd32f6c5ff47bb8980a28a3b156101e957638d31aa6360e01b895285168b890152602488015260c06044880152859487948594919390928391906101809060c48801906104ab565b9460648701521660848501521660a4830152038183885af180156101dd576101ad575b6020848451908152f35b67ffffffffffffffff82116101ca575060209350815238806101a3565b634e487b7160e01b815260418552602490fd5b508251903d90823e3d90fd5b8780fd5b634e487b7160e01b885260418c52602488fd5b885162461bcd60e51b81526020818d0152601760248201527f455243313136373a2063726561746532206661696c65640000000000000000006044820152606490fd5b5080fd5b5034610243578160031936011261024357517f00000000000000000000000000000000000000000000000000000000000000006001600160a01b03168152602090f35b5082346102cd5760203660031901126102cd57359180548310156102ca57506102b4602092610461565b905491519160018060a01b039160031b1c168152f35b80fd5b8280fd5b503461024357602090605560436102f66102ea366103b0565b959490949391936104eb565b83513060388201526f5af43d82803e903d91602b57fd5bf3ff60248201527f00000000000000000000000000000000000000000000000000000000000000006014820152733d602d80600a3d3981f3363d3d373d3d3d363d73815260588101919091526037600c8201206078820152012090516001600160a01b039091168152f35b90601f8019910116810190811067ffffffffffffffff82111761039a57604052565b634e487b7160e01b600052604160045260246000fd5b60e060031982011261045c576001600160a01b03600435818116810361045c57926024359267ffffffffffffffff60443581811161045c578260238201121561045c57806004013591821161039a5760405192610417601f8401601f191660200185610378565b8284526024838301011161045c578160009260246020930183860137830101529160643591608435828116810361045c579160a435908116810361045c579060c43590565b600080fd5b906000918254811015610497578280527f290decd9548b62a8d60345a988386fc84ba6bc95484008f6362f93160ef3e563019190565b634e487b7160e01b83526032600452602483fd5b919082519283825260005b8481106104d7575050826000602080949584010152601f8019910116010190565b6020818301810151848301820152016104b6565b604080516001600160a01b03928316602082019081529181019390935260e060608401529691956105509587959483919061052b906101008901906104ab565b9560808801521660a08601521660c084015260e083015203601f198101835282610378565b5190209056fea26469706673582212204d90e64e223b92dbf1bcb83ad9fc9a0692d153aea42db9f67e1a9c5d30c030dd64736f6c63430008150033","linkReferences":{}},"methodIdentifiers":{"deployDistributor(address,uint256,string,bytes32,uint160,address,uint256)":"b72bcfee","distributors(uint256)":"50b492ba","getImplementation()":"aaf10f42","predictDistributorAddress(address,uint256,string,bytes32,uint160,address,uint256)":"030e905f"},"id":13}