{"abi":[{"type":"constructor","inputs":[{"name":"implementation","type":"address","internalType":"address"}],"stateMutability":"nonpayable"},{"type":"function","name":"deployDistributor","inputs":[{"name":"_token","type":"address","internalType":"contract IERC20"},{"name":"_total","type":"uint256","internalType":"uint256"},{"name":"_uri","type":"string","internalType":"string"},{"name":"_start","type":"uint256","internalType":"uint256"},{"name":"_cliff","type":"uint256","internalType":"uint256"},{"name":"_end","type":"uint256","internalType":"uint256"},{"name":"_merkleRoot","type":"bytes32","internalType":"bytes32"},{"name":"_maxDelayTime","type":"uint160","internalType":"uint160"},{"name":"_owner","type":"address","internalType":"address"},{"name":"_nonce","type":"uint256","internalType":"uint256"}],"outputs":[{"name":"distributor","type":"address","internalType":"contract ContinuousVestingMerkleDistributor"}],"stateMutability":"nonpayable"},{"type":"function","name":"distributors","inputs":[{"name":"","type":"uint256","internalType":"uint256"}],"outputs":[{"name":"","type":"address","internalType":"address"}],"stateMutability":"view"},{"type":"function","name":"getImplementation","inputs":[],"outputs":[{"name":"","type":"address","internalType":"address"}],"stateMutability":"view"},{"type":"function","name":"predictDistributorAddress","inputs":[{"name":"_token","type":"address","internalType":"contract IERC20"},{"name":"_total","type":"uint256","internalType":"uint256"},{"name":"_uri","type":"string","internalType":"string"},{"name":"_start","type":"uint256","internalType":"uint256"},{"name":"_cliff","type":"uint256","internalType":"uint256"},{"name":"_end","type":"uint256","internalType":"uint256"},{"name":"_merkleRoot","type":"bytes32","internalType":"bytes32"},{"name":"_maxDelayTime","type":"uint160","internalType":"uint160"},{"name":"_owner","type":"address","internalType":"address"},{"name":"_nonce","type":"uint256","internalType":"uint256"}],"outputs":[{"name":"","type":"address","internalType":"address"}],"stateMutability":"view"},{"type":"event","name":"DistributorDeployed","inputs":[{"name":"distributor","type":"address","indexed":true,"internalType":"address"}],"anonymous":false}],"bytecode":{"object":"0x60a03461007757601f61067338819003918201601f19168301916001600160401b0383118484101761007c5780849260209460405283398101031261007757516001600160a01b0381168103610077576080526040516105e09081610093823960805181818160990152818161011301526101ba0152f35b600080fd5b634e487b7160e01b600052604160045260246000fdfe6040608081526004908136101561001557600080fd5b600091823560e01c90816322bacceb1461018957816350b492ba1461014257508063aaf10f42146100ff5763d4213aef1461004f57600080fd5b346100fb5760209060556043610079610067366103de565b98979097969196959295949394610529565b83513060388201526f5af43d82803e903d91602b57fd5bf3ff60248201527f00000000000000000000000000000000000000000000000000000000000000006014820152733d602d80600a3d3981f3363d3d373d3d3d363d73815260588101919091526037600c8201206078820152012090516001600160a01b039091168152f35b5080fd5b50346100fb57816003193601126100fb57517f00000000000000000000000000000000000000000000000000000000000000006001600160a01b03168152602090f35b9050346101855760203660031901126101855735918054831015610182575061016c60209261049f565b905491519160018060a01b039160031b1c168152f35b80fd5b8280fd5b8383346100fb576101b861019c366103de565b8183858b9f9c9d94999b97898f8d8f919b849b9c9d9a9d610529565b7f0000000000000000000000000000000000000000000000000000000000000000608881901c62ffffff16763d602d80600a3d3981f3363d3d373d3d3d363d73000000178a5260781b6e5af43d82803e903d91602b57fd5bf3176020526001600160a01b0396908790603760098cf5169b8c156103635789546801000000000000000081101561035057610252818f926001018d5561049f565b8a829392549160031b92831b921b19161790558b519a8d7f448708bcd9fda3435ba79d40bb017e884dcbed0b1e972743c8fd32f6c5ff47bb8c80a28d3b1561034c57632804723360e21b8c5288168b8f015260248b015261012060448b015288978a978897919690959194869491939091906102d3906101248b01906104e9565b9760648a0152608489015260a488015260c48701521660e485015216610104830152038183885af1801561034057610310575b6020848451908152f35b67ffffffffffffffff821161032d57506020935081528380610306565b634e487b7160e01b815260418552602490fd5b508251903d90823e3d90fd5b8a80fd5b634e487b7160e01b8b5260418f5260248bfd5b60648e60208e519162461bcd60e51b8352820152601760248201527f455243313136373a2063726561746532206661696c65640000000000000000006044820152fd5b90601f8019910116810190811067ffffffffffffffff8211176103c857604052565b634e487b7160e01b600052604160045260246000fd5b61014060031982011261049a576001600160a01b0391600435838116810361049a57926024359267ffffffffffffffff60443581811161049a578260238201121561049a5780600401359182116103c85760405192610447601f8401601f1916602001856103a6565b8284526024838301011161049a5781600092602460209301838601378301015291606435916084359160a4359160c4359160e435828116810361049a579161010435908116810361049a57906101243590565b600080fd5b9060009182548110156104d5578280527f290decd9548b62a8d60345a988386fc84ba6bc95484008f6362f93160ef3e563019190565b634e487b7160e01b83526032600452602483fd5b919082519283825260005b848110610515575050826000602080949584010152601f8019910116010190565b6020818301810151848301820152016104f4565b90929597919398949660405198899860208a019b8c96600160a01b600190039788809716905260408c0152610140978860608d01526101608c0161056c916104e9565b9960808c015260a08b015260c08a015260e0890152166101008701521661012085015283015203601f19810182526105a490826103a6565b5190209056fea2646970667358221220e8263b6b46cf657d67ab46ec03045a161ebacf8a24946b339ee783ec5a2bf75864736f6c63430008150033","linkReferences":{}},"methodIdentifiers":{"deployDistributor(address,uint256,string,uint256,uint256,uint256,bytes32,uint160,address,uint256)":"22bacceb","distributors(uint256)":"50b492ba","getImplementation()":"aaf10f42","predictDistributorAddress(address,uint256,string,uint256,uint256,uint256,bytes32,uint160,address,uint256)":"d4213aef"},"id":18}