{"abi":[{"type":"constructor","inputs":[{"name":"_token","type":"address","internalType":"contract IERC20"},{"name":"_total","type":"uint256","internalType":"uint256"},{"name":"_uri","type":"string","internalType":"string"},{"name":"_voteFactor","type":"uint256","internalType":"uint256"},{"name":"_merkleRoot","type":"bytes32","internalType":"bytes32"},{"name":"_maxDelayTime","type":"uint160","internalType":"uint160"}],"stateMutability":"nonpayable"},{"type":"function","name":"CLOCK_MODE","inputs":[],"outputs":[{"name":"","type":"string","internalType":"string"}],"stateMutability":"view"},{"type":"function","name":"DOMAIN_SEPARATOR","inputs":[],"outputs":[{"name":"","type":"bytes32","internalType":"bytes32"}],"stateMutability":"view"},{"type":"function","name":"NAME","inputs":[],"outputs":[{"name":"","type":"string","internalType":"string"}],"stateMutability":"pure"},{"type":"function","name":"VERSION","inputs":[],"outputs":[{"name":"","type":"uint256","internalType":"uint256"}],"stateMutability":"pure"},{"type":"function","name":"adjust","inputs":[{"name":"beneficiary","type":"address","internalType":"address"},{"name":"amount","type":"int256","internalType":"int256"}],"outputs":[],"stateMutability":"nonpayable"},{"type":"function","name":"allowance","inputs":[{"name":"owner","type":"address","internalType":"address"},{"name":"spender","type":"address","internalType":"address"}],"outputs":[{"name":"","type":"uint256","internalType":"uint256"}],"stateMutability":"view"},{"type":"function","name":"approve","inputs":[{"name":"spender","type":"address","internalType":"address"},{"name":"amount","type":"uint256","internalType":"uint256"}],"outputs":[{"name":"","type":"bool","internalType":"bool"}],"stateMutability":"nonpayable"},{"type":"function","name":"balanceOf","inputs":[{"name":"account","type":"address","internalType":"address"}],"outputs":[{"name":"","type":"uint256","internalType":"uint256"}],"stateMutability":"view"},{"type":"function","name":"checkpoints","inputs":[{"name":"account","type":"address","internalType":"address"},{"name":"pos","type":"uint32","internalType":"uint32"}],"outputs":[{"name":"","type":"tuple","internalType":"struct ERC20Votes.Checkpoint","components":[{"name":"fromBlock","type":"uint32","internalType":"uint32"},{"name":"votes","type":"uint224","internalType":"uint224"}]}],"stateMutability":"view"},{"type":"function","name":"claim","inputs":[{"name":"index","type":"uint256","internalType":"uint256"},{"name":"beneficiary","type":"address","internalType":"address"},{"name":"totalAmount","type":"uint256","internalType":"uint256"},{"name":"tranches","type":"tuple[]","internalType":"struct Tranche[]","components":[{"name":"time","type":"uint128","internalType":"uint128"},{"name":"vestedFraction","type":"uint128","internalType":"uint128"}]},{"name":"merkleProof","type":"bytes32[]","internalType":"bytes32[]"}],"outputs":[],"stateMutability":"nonpayable"},{"type":"function","name":"claimed","inputs":[],"outputs":[{"name":"","type":"uint256","internalType":"uint256"}],"stateMutability":"view"},{"type":"function","name":"clock","inputs":[],"outputs":[{"name":"","type":"uint48","internalType":"uint48"}],"stateMutability":"view"},{"type":"function","name":"decimals","inputs":[],"outputs":[{"name":"","type":"uint8","internalType":"uint8"}],"stateMutability":"view"},{"type":"function","name":"decreaseAllowance","inputs":[{"name":"spender","type":"address","internalType":"address"},{"name":"subtractedValue","type":"uint256","internalType":"uint256"}],"outputs":[{"name":"","type":"bool","internalType":"bool"}],"stateMutability":"nonpayable"},{"type":"function","name":"delegate","inputs":[{"name":"delegatee","type":"address","internalType":"address"}],"outputs":[],"stateMutability":"nonpayable"},{"type":"function","name":"delegateBySig","inputs":[{"name":"delegatee","type":"address","internalType":"address"},{"name":"nonce","type":"uint256","internalType":"uint256"},{"name":"expiry","type":"uint256","internalType":"uint256"},{"name":"v","type":"uint8","internalType":"uint8"},{"name":"r","type":"bytes32","internalType":"bytes32"},{"name":"s","type":"bytes32","internalType":"bytes32"}],"outputs":[],"stateMutability":"nonpayable"},{"type":"function","name":"delegates","inputs":[{"name":"account","type":"address","internalType":"address"}],"outputs":[{"name":"","type":"address","internalType":"address"}],"stateMutability":"view"},{"type":"function","name":"distancePerSecond","inputs":[],"outputs":[{"name":"","type":"uint160","internalType":"uint160"}],"stateMutability":"view"},{"type":"function","name":"eip712Domain","inputs":[],"outputs":[{"name":"fields","type":"bytes1","internalType":"bytes1"},{"name":"name","type":"string","internalType":"string"},{"name":"version","type":"string","internalType":"string"},{"name":"chainId","type":"uint256","internalType":"uint256"},{"name":"verifyingContract","type":"address","internalType":"address"},{"name":"salt","type":"bytes32","internalType":"bytes32"},{"name":"extensions","type":"uint256[]","internalType":"uint256[]"}],"stateMutability":"view"},{"type":"function","name":"getClaimableAmount","inputs":[{"name":"beneficiary","type":"address","internalType":"address"},{"name":"data","type":"bytes","internalType":"bytes"}],"outputs":[{"name":"","type":"uint256","internalType":"uint256"}],"stateMutability":"view"},{"type":"function","name":"getDistributionRecord","inputs":[{"name":"beneficiary","type":"address","internalType":"address"}],"outputs":[{"name":"","type":"tuple","internalType":"struct DistributionRecord","components":[{"name":"initialized","type":"bool","internalType":"bool"},{"name":"total","type":"uint120","internalType":"uint120"},{"name":"claimed","type":"uint120","internalType":"uint120"}]}],"stateMutability":"view"},{"type":"function","name":"getFairDelayTime","inputs":[{"name":"user","type":"address","internalType":"address"}],"outputs":[{"name":"","type":"uint256","internalType":"uint256"}],"stateMutability":"view"},{"type":"function","name":"getFractionDenominator","inputs":[],"outputs":[{"name":"","type":"uint256","internalType":"uint256"}],"stateMutability":"view"},{"type":"function","name":"getMerkleRoot","inputs":[],"outputs":[{"name":"","type":"bytes32","internalType":"bytes32"}],"stateMutability":"view"},{"type":"function","name":"getPastTotalSupply","inputs":[{"name":"timepoint","type":"uint256","internalType":"uint256"}],"outputs":[{"name":"","type":"uint256","internalType":"uint256"}],"stateMutability":"view"},{"type":"function","name":"getPastVotes","inputs":[{"name":"account","type":"address","internalType":"address"},{"name":"timepoint","type":"uint256","internalType":"uint256"}],"outputs":[{"name":"","type":"uint256","internalType":"uint256"}],"stateMutability":"view"},{"type":"function","name":"getSweepRecipient","inputs":[],"outputs":[{"name":"","type":"address","internalType":"address payable"}],"stateMutability":"view"},{"type":"function","name":"getTotalVotes","inputs":[],"outputs":[{"name":"","type":"uint256","internalType":"uint256"}],"stateMutability":"view"},{"type":"function","name":"getVestedFraction","inputs":[{"name":"beneficiary","type":"address","internalType":"address"},{"name":"time","type":"uint256","internalType":"uint256"},{"name":"data","type":"bytes","internalType":"bytes"}],"outputs":[{"name":"","type":"uint256","internalType":"uint256"}],"stateMutability":"view"},{"type":"function","name":"getVoteFactor","inputs":[{"name":"","type":"address","internalType":"address"}],"outputs":[{"name":"","type":"uint256","internalType":"uint256"}],"stateMutability":"view"},{"type":"function","name":"getVotes","inputs":[{"name":"account","type":"address","internalType":"address"}],"outputs":[{"name":"","type":"uint256","internalType":"uint256"}],"stateMutability":"view"},{"type":"function","name":"increaseAllowance","inputs":[{"name":"spender","type":"address","internalType":"address"},{"name":"addedValue","type":"uint256","internalType":"uint256"}],"outputs":[{"name":"","type":"bool","internalType":"bool"}],"stateMutability":"nonpayable"},{"type":"function","name":"initializeDistributionRecord","inputs":[{"name":"index","type":"uint256","internalType":"uint256"},{"name":"beneficiary","type":"address","internalType":"address"},{"name":"amount","type":"uint256","internalType":"uint256"},{"name":"tranches","type":"tuple[]","internalType":"struct Tranche[]","components":[{"name":"time","type":"uint128","internalType":"uint128"},{"name":"vestedFraction","type":"uint128","internalType":"uint128"}]},{"name":"merkleProof","type":"bytes32[]","internalType":"bytes32[]"}],"outputs":[],"stateMutability":"nonpayable"},{"type":"function","name":"maxDelayTime","inputs":[],"outputs":[{"name":"","type":"uint160","internalType":"uint160"}],"stateMutability":"view"},{"type":"function","name":"name","inputs":[],"outputs":[{"name":"","type":"string","internalType":"string"}],"stateMutability":"view"},{"type":"function","name":"nonces","inputs":[{"name":"owner","type":"address","internalType":"address"}],"outputs":[{"name":"","type":"uint256","internalType":"uint256"}],"stateMutability":"view"},{"type":"function","name":"numCheckpoints","inputs":[{"name":"account","type":"address","internalType":"address"}],"outputs":[{"name":"","type":"uint32","internalType":"uint32"}],"stateMutability":"view"},{"type":"function","name":"owner","inputs":[],"outputs":[{"name":"","type":"address","internalType":"address"}],"stateMutability":"view"},{"type":"function","name":"permit","inputs":[{"name":"owner","type":"address","internalType":"address"},{"name":"spender","type":"address","internalType":"address"},{"name":"value","type":"uint256","internalType":"uint256"},{"name":"deadline","type":"uint256","internalType":"uint256"},{"name":"v","type":"uint8","internalType":"uint8"},{"name":"r","type":"bytes32","internalType":"bytes32"},{"name":"s","type":"bytes32","internalType":"bytes32"}],"outputs":[],"stateMutability":"nonpayable"},{"type":"function","name":"randomValue","inputs":[],"outputs":[{"name":"","type":"uint160","internalType":"uint160"}],"stateMutability":"view"},{"type":"function","name":"renounceOwnership","inputs":[],"outputs":[],"stateMutability":"nonpayable"},{"type":"function","name":"setMerkleRoot","inputs":[{"name":"_merkleRoot","type":"bytes32","internalType":"bytes32"}],"outputs":[],"stateMutability":"nonpayable"},{"type":"function","name":"setSweepRecipient","inputs":[{"name":"_recipient","type":"address","internalType":"address payable"}],"outputs":[],"stateMutability":"nonpayable"},{"type":"function","name":"setToken","inputs":[{"name":"_token","type":"address","internalType":"contract IERC20"}],"outputs":[],"stateMutability":"nonpayable"},{"type":"function","name":"setTotal","inputs":[{"name":"_total","type":"uint256","internalType":"uint256"}],"outputs":[],"stateMutability":"nonpayable"},{"type":"function","name":"setUri","inputs":[{"name":"_uri","type":"string","internalType":"string"}],"outputs":[],"stateMutability":"nonpayable"},{"type":"function","name":"setVoteFactor","inputs":[{"name":"_voteFactor","type":"uint256","internalType":"uint256"}],"outputs":[],"stateMutability":"nonpayable"},{"type":"function","name":"sweepNative","inputs":[{"name":"amount","type":"uint256","internalType":"uint256"}],"outputs":[],"stateMutability":"nonpayable"},{"type":"function","name":"sweepNative","inputs":[],"outputs":[],"stateMutability":"nonpayable"},{"type":"function","name":"sweepToken","inputs":[{"name":"token","type":"address","internalType":"contract IERC20"}],"outputs":[],"stateMutability":"nonpayable"},{"type":"function","name":"sweepToken","inputs":[{"name":"token","type":"address","internalType":"contract IERC20"},{"name":"amount","type":"uint256","internalType":"uint256"}],"outputs":[],"stateMutability":"nonpayable"},{"type":"function","name":"symbol","inputs":[],"outputs":[{"name":"","type":"string","internalType":"string"}],"stateMutability":"view"},{"type":"function","name":"token","inputs":[],"outputs":[{"name":"","type":"address","internalType":"contract IERC20"}],"stateMutability":"view"},{"type":"function","name":"total","inputs":[],"outputs":[{"name":"","type":"uint256","internalType":"uint256"}],"stateMutability":"view"},{"type":"function","name":"totalSupply","inputs":[],"outputs":[{"name":"","type":"uint256","internalType":"uint256"}],"stateMutability":"view"},{"type":"function","name":"transfer","inputs":[{"name":"to","type":"address","internalType":"address"},{"name":"amount","type":"uint256","internalType":"uint256"}],"outputs":[{"name":"","type":"bool","internalType":"bool"}],"stateMutability":"nonpayable"},{"type":"function","name":"transferFrom","inputs":[{"name":"from","type":"address","internalType":"address"},{"name":"to","type":"address","internalType":"address"},{"name":"amount","type":"uint256","internalType":"uint256"}],"outputs":[{"name":"","type":"bool","internalType":"bool"}],"stateMutability":"nonpayable"},{"type":"function","name":"transferOwnership","inputs":[{"name":"newOwner","type":"address","internalType":"address"}],"outputs":[],"stateMutability":"nonpayable"},{"type":"function","name":"uri","inputs":[],"outputs":[{"name":"","type":"string","internalType":"string"}],"stateMutability":"view"},{"type":"event","name":"Adjust","inputs":[{"name":"beneficiary","type":"address","indexed":true,"internalType":"address"},{"name":"amount","type":"int256","indexed":false,"internalType":"int256"}],"anonymous":false},{"type":"event","name":"Approval","inputs":[{"name":"owner","type":"address","indexed":true,"internalType":"address"},{"name":"spender","type":"address","indexed":true,"internalType":"address"},{"name":"value","type":"uint256","indexed":false,"internalType":"uint256"}],"anonymous":false},{"type":"event","name":"Claim","inputs":[{"name":"beneficiary","type":"address","indexed":true,"internalType":"address"},{"name":"amount","type":"uint256","indexed":false,"internalType":"uint256"}],"anonymous":false},{"type":"event","name":"DelegateChanged","inputs":[{"name":"delegator","type":"address","indexed":true,"internalType":"address"},{"name":"fromDelegate","type":"address","indexed":true,"internalType":"address"},{"name":"toDelegate","type":"address","indexed":true,"internalType":"address"}],"anonymous":false},{"type":"event","name":"DelegateVotesChanged","inputs":[{"name":"delegate","type":"address","indexed":true,"internalType":"address"},{"name":"previousBalance","type":"uint256","indexed":false,"internalType":"uint256"},{"name":"newBalance","type":"uint256","indexed":false,"internalType":"uint256"}],"anonymous":false},{"type":"event","name":"EIP712DomainChanged","inputs":[],"anonymous":false},{"type":"event","name":"InitializeDistributionRecord","inputs":[{"name":"beneficiary","type":"address","indexed":true,"internalType":"address"},{"name":"total","type":"uint256","indexed":false,"internalType":"uint256"}],"anonymous":false},{"type":"event","name":"InitializeDistributor","inputs":[{"name":"token","type":"address","indexed":true,"internalType":"contract IERC20"},{"name":"total","type":"uint256","indexed":false,"internalType":"uint256"},{"name":"uri","type":"string","indexed":false,"internalType":"string"},{"name":"fractionDenominator","type":"uint256","indexed":false,"internalType":"uint256"}],"anonymous":false},{"type":"event","name":"OwnershipTransferred","inputs":[{"name":"previousOwner","type":"address","indexed":true,"internalType":"address"},{"name":"newOwner","type":"address","indexed":true,"internalType":"address"}],"anonymous":false},{"type":"event","name":"SetDelay","inputs":[{"name":"maxDelayTime","type":"uint160","indexed":false,"internalType":"uint160"}],"anonymous":false},{"type":"event","name":"SetMerkleRoot","inputs":[{"name":"merkleRoot","type":"bytes32","indexed":false,"internalType":"bytes32"}],"anonymous":false},{"type":"event","name":"SetSweepRecipient","inputs":[{"name":"recipient","type":"address","indexed":false,"internalType":"address"}],"anonymous":false},{"type":"event","name":"SetToken","inputs":[{"name":"token","type":"address","indexed":true,"internalType":"contract IERC20"}],"anonymous":false},{"type":"event","name":"SetTotal","inputs":[{"name":"total","type":"uint256","indexed":false,"internalType":"uint256"}],"anonymous":false},{"type":"event","name":"SetUri","inputs":[{"name":"uri","type":"string","indexed":true,"internalType":"string"}],"anonymous":false},{"type":"event","name":"SetVoteFactor","inputs":[{"name":"voteFactor","type":"uint256","indexed":false,"internalType":"uint256"}],"anonymous":false},{"type":"event","name":"SweepNative","inputs":[{"name":"amount","type":"uint256","indexed":false,"internalType":"uint256"}],"anonymous":false},{"type":"event","name":"SweepToken","inputs":[{"name":"token","type":"address","indexed":true,"internalType":"address"},{"name":"amount","type":"uint256","indexed":false,"internalType":"uint256"}],"anonymous":false},{"type":"event","name":"Transfer","inputs":[{"name":"from","type":"address","indexed":true,"internalType":"address"},{"name":"to","type":"address","indexed":true,"internalType":"address"},{"name":"value","type":"uint256","indexed":false,"internalType":"uint256"}],"anonymous":false},{"type":"error","name":"InvalidShortString","inputs":[]},{"type":"error","name":"StringTooLong","inputs":[{"name":"str","type":"string","internalType":"string"}]}],"bytecode":{"object":"0x610180806040523462000972576200501e803803809162000021828562000993565b833981019060c081830312620009725780516001600160a01b03811681036200097257602082015160408301519092906001600160401b0381116200097257810184601f82011215620009725780516001600160401b038111620006f3576040519562000099601f8301601f19166020018862000993565b818752602082840101116200097257620000ba9160208088019101620009b7565b6060810151608082015160a090920151909390926001600160a01b03841684036200097257620000e9620009dc565b620000f3620009dc565b90604051620001028162000977565b600381526212559560ea1b602082015260405192620001218462000977565b60018452603160f81b60208086019190915260008054336001600160a01b03198216811783556040517fccdd1baf560d2682736fa25752c8ccc0c5fc4079b245b0acf7389776308d5b1f949390926001600160a01b0316907f8be0079c531659141344cd1fd0a4f28419497f9722a3daafe3b4186f6b6457e09080a3600180546001600160a01b031916339081179091558152a18051906001600160401b038211620006f3578190620001d660055462000a17565b601f81116200091c575b50602090601f83116001146200088d5760009262000881575b50508160011b916000199060031b1c1916176005555b8051906001600160401b038211620006f35781906200023060065462000a17565b601f811162000820575b50602090601f8311600114620007a25760009262000796575b50508160011b916000199060031b1c1916176006555b620002748162000af6565b61012052620002838262000c83565b6101405260208151910120908160e0526020815191012080610100524660a052604051917f8b73c3c69bb8fe3d512ecc4cf759cc79239f7b179b0ffacaa9a75d522b39400f6020840152604083015260608201524660808201523060a082015260a081528060c081011060018060401b0360c083011117620006f35760c0818101604052815160208301206080523090526001600e556001600160a01b038216156200074e575081156200070957601080546001600160a01b0319166001600160a01b039290921691909117905560115583516001600160401b038111620006f3576200037260135462000a17565b601f81116200069e575b506020601f82116001146200062e57819293949560009262000622575b50508160011b916000199060031b1c1916176013555b6127106101605260018060a01b0360105416601154604051908152606060208201526000601354620003e18162000a17565b90816060850152600181169081600014620005ff5750600114620005af575b5090807f433127dedcff849792656a12f4a9dbc0efeb80df5cce6310f53481a93cd71c719261271060408301520390a2601580546001600160a01b0319166001600160a01b038416908117909155158062000570576200055a5760008051602062004f9e8339815191529260209260008051602062004fde83398151915291849160008051602062004fbe8339815191529083906001600160a01b0380821690045b601480546001600160a01b0319166001600160a01b0392831617905560405191168152a1620004da6001600160a01b03851662000a54565b80601755604051908152a180601855604051908152a16040516141be908162000dc0823960805181613bf4015260a05181613caf015260c05181613bbe015260e05181613c4301526101005181613c6901526101205181611484015261014051816114ae01526101605181818161054c015281816126430152612a5f0152f35b634e487b7160e01b600052601260045260246000fd5b5060008051602062004fde833981519152602060008051602062004f9e8339815191529460008051602062004fbe8339815191528280966000620004a2565b6013600090815260008051602062004f7e833981519152939250905b808210620005e3575090915081016080018162000400565b91926001816020925460808588010152019101909291620005cb565b60ff191660808086019190915291151560051b8401909101915082905062000400565b01519050388062000399565b601360005260206000209060005b601f198416811062000685575060019394959683601f198116106200066b575b505050811b01601355620003af565b015160001960f88460031b161c191690553880806200065c565b9091602060018192858b0151815501930191016200063c565b601360005260008051602062004f7e833981519152601f830160051c810160208410620006eb575b601f830160051c82018110620006de5750506200037c565b60008155600101620006c6565b5080620006c6565b634e487b7160e01b600052604160045260246000fd5b60405162461bcd60e51b815260206004820152601760248201527f4469737472696275746f723a20746f74616c20697320300000000000000000006044820152606490fd5b60c060649162461bcd60e51b82820152602060c4820152602060e48201527f4469737472696275746f723a20746f6b656e206973206164647265737328302961010482015201fd5b01519050388062000253565b60066000908152935060008051602062004ffe83398151915291905b601f198416851062000804576001945083601f19811610620007ea575b505050811b0160065562000269565b015160001960f88460031b161c19169055388080620007db565b81810151835560209485019460019093019290910190620007be565b600660005290915060008051602062004ffe833981519152601f840160051c81016020851062000879575b90849392915b601f830160051c82018110620008695750506200023a565b6000815585945060010162000851565b50806200084b565b015190503880620001f9565b6005600090815293507f036b6384b5eca791c62761152d0c79bb0604c104a5fb6f4eb0703f3154bb3db091905b601f198416851062000900576001945083601f19811610620008e6575b505050811b016005556200020f565b015160001960f88460031b161c19169055388080620008d7565b81810151835560209485019460019093019290910190620008ba565b90915060056000526020600020601f840160051c8101602085106200096a575b90849392915b601f830160051c820181106200095a575050620001e0565b6000815585945060010162000942565b50806200093c565b600080fd5b604081019081106001600160401b03821117620006f357604052565b601f909101601f19168101906001600160401b03821190821017620006f357604052565b60005b838110620009cb5750506000910152565b8181015183820152602001620009ba565b60405190620009eb8262000977565b601582527f496e7465726e616c20766f746520747261636b657200000000000000000000006020830152565b90600182811c9216801562000a49575b602083101462000a3357565b634e487b7160e01b600052602260045260246000fd5b91607f169162000a27565b6014546001600160a01b03919082161562000af2578181161562000aad57600019430143811162000a975782904016181660018060a01b03196016541617601655565b634e487b7160e01b600052601160045260246000fd5b60405162461bcd60e51b815260206004820152601860248201527f492064656d616e64206d6f72652072616e646f6d6e65737300000000000000006044820152606490fd5b5050565b80516020908181101562000b745750601f82511162000b32578082519201519080831062000b2357501790565b82600019910360031b1b161790565b60449062000b669260405193849263305a27a960e01b845280600485015282519283918260248701528686019101620009b7565b601f01601f19168101030190fd5b919291906001600160401b038211620006f35762000b9460075462000a17565b601f811162000c4b575b5080601f831160011462000bdf575081929360009262000bd3575b50508160011b916000199060031b1c19161760075560ff90565b01519050388062000bb9565b90601f19831694600760005282600020926000905b87821062000c3257505083600195961062000c18575b505050811b0160075560ff90565b015160001960f88460031b161c1916905538808062000c0a565b8060018596829496860151815501950193019062000bf4565b600060078152601f838220920160051c820191601f850160051c015b82811062000c7757505062000b9e565b81815560010162000c67565b80516020908181101562000cb05750601f82511162000b32578082519201519080831062000b2357501790565b919291906001600160401b038211620006f35762000cd060085462000a17565b601f811162000d87575b5080601f831160011462000d1b575081929360009262000d0f575b50508160011b916000199060031b1c19161760085560ff90565b01519050388062000cf5565b90601f19831694600860005282600020926000905b87821062000d6e57505083600195961062000d54575b505050811b0160085560ff90565b015160001960f88460031b161c1916905538808062000d46565b8060018596829496860151815501950193019062000d30565b600060088152601f838220920160051c820191601f850160051c015b82811062000db357505062000cda565b81815560010162000da356fe6080604052600436101561001257600080fd5b60003560e01c806306fdde03146103bd578063095ea7b3146103045780630f56b96c146103b857806313c67ce5146103b3578063144fa6d7146103ae57806318160ddd146103225780631be19560146103a95780631c6f0885146103a45780631f8d1d501461039f57806323b872dd1461039a578063276801ec146103955780632ddbd13a14610390578063313ce5671461038b5780633644e5151461038657806339509351146103815780633a46b1a81461037c5780633cf3a0251461037757806349590657146103725780634bf5d7e91461036d578063587cde1e146103685780635c19a95c146103635780636fcfff451461035e57806370a0823114610359578063715018a61461035457806375aa9bc61461034f5780637c1863581461034a5780637cb64759146103455780637ecebe001461034057806384b0196e1461033b5780638da5cb5b146103365780638e539e8c1461033157806391ddadf41461032c57806395d89b41146103275780639a0e7d66146103225780639ab24eb01461031d5780639b642de114610318578063a3f4df7e14610313578063a457c2d71461030e578063a4ef1f7814610309578063a9059cbb14610304578063ab803a76146102ff578063bb22dccb146102fa578063c3cda520146102f5578063c6e8d982146102f0578063c78d5985146102eb578063c9557255146102e6578063d3d0ec89146102e1578063d505accf146102dc578063dd62ed3e146102d7578063de032f58146102d2578063e834a834146102cd578063e85858d9146102c8578063e90a182f146102c3578063eac989f8146102be578063f1127ed8146102b9578063f2fde38b146102b4578063f56c8547146102af578063fc0c546a146102aa5763ffa1ad74146102a557600080fd5b6122b9565b612290565b612267565b6121a0565b612115565b61207e565b611fd2565b611f1c565b611efe565b611e8e565b611e2b565b611ceb565b611c9f565b611c53565b611c2a565b611c01565b611ad2565b611a89565b611a2e565b610513565b611a07565b611964565b611906565b6117b7565b611754565b6107b3565b6116ab565b61167f565b61158b565b611562565b611469565b61142c565b6113e0565b6111c2565b610fc6565b610f6b565b610f2e565b610ee3565b610ebd565b610e7e565b610dcc565b610dae565b610d3f565b610bea565b610b54565b610b39565b610b1d565b610aff565b610ad6565b610a34565b6109e8565b610964565b6107d1565b61070b565b6106bb565b610534565b61041e565b60005b8381106103d55750506000910152565b81810151838201526020016103c5565b906020916103fe815180928185528580860191016103c2565b601f01601f1916010190565b90602061041b9281815201906103e5565b90565b346104fd576000806003193601126104fa576040518160055461044081612044565b9081845260209260019182811690816000146104d8575060011461047f575b61047b8561046f81890382610611565b6040519182918261040a565b0390f35b929450600583527f036b6384b5eca791c62761152d0c79bb0604c104a5fb6f4eb0703f3154bb3db05b8284106104c5575050508161047b9361046f92820101933861045f565b80548585018701529285019281016104a8565b60ff191686860152505050151560051b820101915061046f8161047b3861045f565b80fd5b600080fd5b6001600160a01b038116036104fd57565b346104fd5760403660031901126104fd5761052f600435610502565b612e0e565b346104fd5760003660031901126104fd5760206040517f00000000000000000000000000000000000000000000000000000000000000008152f35b634e487b7160e01b600052604160045260246000fd5b606081019081106001600160401b038211176105a057604052565b61056f565b604081019081106001600160401b038211176105a057604052565b602081019081106001600160401b038211176105a057604052565b608081019081106001600160401b038211176105a057604052565b60c081019081106001600160401b038211176105a057604052565b90601f801991011681019081106001600160401b038211176105a057604052565b6040519061063f82610585565b565b6040519061063f826105a5565b6001600160401b0381116105a057601f01601f191660200190565b9291926106758261064e565b916106836040519384610611565b8294818452818301116104fd578281602093846000960137010152565b9080601f830112156104fd5781602061041b93359101610669565b346104fd5760403660031901126104fd576004356106d881610502565b6024356001600160401b0381116104fd576020916106fd6107039236906004016106a0565b906129e2565b604051908152f35b346104fd5760203660031901126104fd5760043561072881610502565b610730612db6565b6001600160a01b0316801561077857601080546001600160a01b031916821790557fefc1fd16ea80a922086ee4e995739d59b025c1bcea6d1f67855747480c83214b600080a2005b60405162461bcd60e51b8152602060048201526013602482015272746f6b656e206973206164647265737328302960681b6044820152606490fd5b346104fd5760003660031901126104fd576020600454604051908152f35b346104fd5760203660031901126104fd576004356107ee81610502565b6107f6612db6565b6040516370a0823160e01b81523060048201526001600160a01b0382169190602081602481865afa80156108b4577ff4a44a7f605c4971a27bcecb448108e6328b7fad34fab5bff4f69377294b826d9261087b92600092610880575b5060015461086b9183916001600160a01b031690613819565b6040519081529081906020820190565b0390a2005b61086b9192506108a69060203d81116108ad575b61089e8183610611565b810190612d2c565b9190610852565b503d610894565b612d3b565b9181601f840112156104fd578235916001600160401b0383116104fd576020808501948460051b0101116104fd57565b9060a06003198301126104fd576004359160243561090681610502565b9160443591606435916001600160401b038084116104fd57826023850112156104fd578360040135938185116104fd578360248660061b830101116104fd5760240193926084359182116104fd57610960916004016108b9565b9091565b346104fd576109e66109c46109d06109e16109db610981366108e9565b969593999261099d60409a9392969a51928392602084016122e6565b03906109b1601f1992838101835282610611565b6040519384918c8c602085019889612351565b03908101835282610611565b5190209236916123a5565b90612afb565b6123f3565b005b346104fd5760203660031901126104fd577fac657d3615bd618ee537848e2b33acd2a9df67d4776485ab6922b0421d324d296020600435610a27612db6565b80601155604051908152a1005b346104fd5760603660031901126104fd57600435610a5181610502565b610a5c602435610502565b6001600160a01b031660009081526003602090815260408083203384529091529020546001810115612e0e576044351115612e0e5760405162461bcd60e51b815260206004820152601d60248201527f45524332303a20696e73756666696369656e7420616c6c6f77616e63650000006044820152606490fd5b346104fd5760003660031901126104fd576016546040516001600160a01b039091168152602090f35b346104fd5760003660031901126104fd576020601154604051908152f35b346104fd5760003660031901126104fd57602060405160128152f35b346104fd5760003660031901126104fd576020610703613bbb565b346104fd5760403660031901126104fd57610b99600435610b7481610502565b33600052600360205260406000209060018060a01b0316600052602052604060002090565b54602435810110610be55760405162461bcd60e51b81526020600482015260196024820152783234b9b0b13632b2103337b9103b37ba34b733903837bbb2b960391b6044820152606490fd5b61255d565b346104fd5760403660031901126104fd57600435610c0781610502565b60243590610c2665ffffffffffff610c1e43614082565b168310612ed5565b6001600160a01b03166000908152600c6020526040812080549290918360058111610cee575b50905b838210610c9d57505081610c76575050602060005b6040516001600160e01b039091168152f35b610c91610c9891602093600019019060005260206000200190565b5460201c90565b610c64565b9092610ca98185613eb2565b908263ffffffff610cce610cc4858860005260206000200190565b5463ffffffff1690565b161115610cde5750925b90610c4f565b9350610ce99061274f565b610cd8565b80610cfe610d0492969396613ec7565b9061258c565b908263ffffffff610d1f610cc4858860005260206000200190565b161115610d2f5750925b38610c4c565b9350610d3a9061274f565b610d29565b346104fd5760203660031901126104fd57600435610d5b612db6565b7f3b381fdfc0e2729a70e8b26ae2397e9014f703a8235b557f5581c4ed47280fd26020600092610da4848080808560018060a01b03600154165af1610d9e612d47565b50612d77565b604051908152a180f35b346104fd5760003660031901126104fd576020601854604051908152f35b346104fd5760003660031901126104fd574365ffffffffffff610dee43614082565b1603610e395761047b604051610e03816105a5565b601d81527f6d6f64653d626c6f636b6e756d6265722666726f6d3d64656661756c7400000060208201526040519182918261040a565b60405162461bcd60e51b815260206004820152601d60248201527f4552433230566f7465733a2062726f6b656e20636c6f636b206d6f64650000006044820152606490fd5b346104fd5760203660031901126104fd576020600435610e9d81610502565b60018060a01b03809116600052600b825260406000205416604051908152f35b346104fd5760203660031901126104fd576109e6600435610edd81610502565b3361329b565b346104fd5760203660031901126104fd57600435610f0081610502565b60018060a01b0316600052600c6020526020610f206040600020546140e9565b63ffffffff60405191168152f35b346104fd5760203660031901126104fd57600435610f4b81610502565b60018060a01b031660005260026020526020604060002054604051908152f35b346104fd576000806003193601126104fa57610f85612db6565b80546001600160a01b03198116825581906001600160a01b03167f8be0079c531659141344cd1fd0a4f28419497f9722a3daafe3b4186f6b6457e08280a380f35b346104fd5760403660031901126104fd57600435610fe381610502565b7fd81661cef4e40e0f1f97384c033d606e4d6b570554fc3524568d8f9fc84c838861087b60243592611013612db6565b6001600160a01b0381166000908152600f6020526040902061103990612526565b612526565b61104b6110468251151590565b6126a7565b60008513156111b457845b6001600160781b039161106a838310612703565b600087121561116457611141926110c96110c484611123946110bf826110b86110ac60206011549561109e85881015612785565b01516001600160781b031690565b6001600160781b031690565b10156127e1565b61258c565b601155565b6001600160a01b0385166000908152600f60205260409020611102909184166110fd83546001600160781b039060081c1690565b612573565b610100600160801b0382549160081b1690610100600160801b031916179055565b6010546001600160a01b03166000546001600160a01b031690613819565b61114a81612599565b6040519384526001600160a01b0316929081906020820190565b506111026111af9261117b6110c48460115461275d565b6001600160a01b0385166000908152600f6020526040902092166111aa83546001600160781b039060081c1690565b61276a565b611141565b6111bd856126f2565b611056565b346104fd576111d0366108e9565b95949392604096875192866020988585888c8301916111ee926122e6565b0395601f199687810182526112039082610611565b8b519182918a8d8401956112179387612351565b0386810182526112279082610611565b519020913690611236926123a5565b61123f91612afb565b600e5460021461139c5761129a9291611267916002600e556109c489519485928a84016122e6565b6001600160781b0380931660018060a01b038516600052600f86528084886000205460081c160361138c575b50836129e2565b169182156113315761132783836113056112c68260018060a01b0316600052600f602052604060002090565b6112df846111aa83546001600160781b039060801c1690565b8154600160801b600160f81b03191660809190911b600160801b600160f81b0316179055565b6113196113148360125461275d565b601255565b61132281612599565b61299c565b6109e66001600e55565b60849084519062461bcd60e51b82526004820152602f60248201527f4469737472696275746f723a206e6f206d6f726520746f6b656e7320636c616960448201526e6d61626c65207269676874206e6f7760881b6064820152fd5b61139690856123f3565b38611293565b865162461bcd60e51b815260048101879052601f60248201527f5265656e7472616e637947756172643a207265656e7472616e742063616c6c006044820152606490fd5b346104fd5760203660031901126104fd577f914960aef5e033ce5cae8a7992d4b7a6f0f9741227b66acb67c605b7019f8a46602060043561141f612db6565b80601855604051908152a1005b346104fd5760203660031901126104fd5760043561144981610502565b60018060a01b031660005260096020526020604060002054604051908152f35b346104fd576000806003193601126104fa57611506906114a87f0000000000000000000000000000000000000000000000000000000000000000613cfb565b906114d27f0000000000000000000000000000000000000000000000000000000000000000613df5565b90604051916114e0836105c0565b818352611514602091604051968796600f60f81b885260e08589015260e08801906103e5565b9086820360408801526103e5565b904660608601523060808601528260a086015284820360c08601528080855193848152019401925b82811061154b57505050500390f35b83518552869550938101939281019260010161153c565b346104fd5760003660031901126104fd576000546040516001600160a01b039091168152602090f35b346104fd5760203660031901126104fd576004356115ba65ffffffffffff6115b243614082565b168210612ed5565b600d54906000826005811161163c575b50905b8282106115f95782806115e7575060405160008152602090f35b610c98610c91602092600019016137ef565b90916116058184613eb2565b90818363ffffffff611619610cc4846137ef565b16111561162a575050915b906115cd565b909350611637915061274f565b611624565b80610cfe61164c92959395613ec7565b908263ffffffff61165f610cc4856137ef565b16111561166f5750915b386115ca565b925061167a9061274f565b611669565b346104fd5760003660031901126104fd57602061169b43614082565b65ffffffffffff60405191168152f35b346104fd576000806003193601126104fa57604051816006546116cd81612044565b9081845260209260019182811690816000146104d857506001146116fb5761047b8561046f81890382610611565b929450600683527ff652222313e28459528d920b65115c16c04f3efc82aaedc97be59f3f377c0d3f5b828410611741575050508161047b9361046f92820101933861045f565b8054858501870152928501928101611724565b346104fd5760203660031901126104fd5760043561177181610502565b6001600160a01b03166000908152600c6020526040902080548061179d57505060405160008152602090f35b6020916117ae916000190190612e9b565b5054811c610c64565b346104fd576020806003193601126104fd576001600160401b036004358181116104fd57366023820112156104fd576117fa903690602481600401359101610669565b91611803612db6565b82519182116105a0576118208261181b601354612044565b612844565b80601f831160011461188e5750819061185093600092611883575b50508160011b916000199060031b1c19161790565b6013555b61185c6128a3565b7fd70c1392a974224e639e7a9607dcb2c766826aecfe2dc356f442ce0488b01e1f600080a2005b01519050388061183b565b90601f198316936118af601360005260008051602061416983398151915290565b926000905b8682106118ee57505083600195106118d5575b505050811b01601355611854565b015160001960f88460031b161c191690553880806118c7565b806001859682949686015181550195019301906118b4565b346104fd5760003660031901126104fd5761047b604051611926816105a5565b601e81527f506572416464726573735472616e63686556657374696e674d65726b6c65000060208201526040519182916020835260208301906103e5565b346104fd5760403660031901126104fd5760043561198181610502565b3360005260036020526119ad6024359160406000209060018060a01b0316600052602052604060002090565b541015612e0e5760405162461bcd60e51b815260206004820152602560248201527f45524332303a2064656372656173656420616c6c6f77616e63652062656c6f77604482015264207a65726f60d81b6064820152608490fd5b346104fd5760203660031901126104fd576020610703600435611a2981610502565b612cfd565b346104fd576000806003193601126104fa57611a48612db6565b7f3b381fdfc0e2729a70e8b26ae2397e9014f703a8235b557f5581c4ed47280fd2602047610da4848080808560018060a01b03600154165af1610d9e612d47565b346104fd5760203660031901126104fd57611aa5600435610502565b6020601754604051908152f35b6064359060ff821682036104fd57565b6084359060ff821682036104fd57565b346104fd5760c03660031901126104fd57600435611aef81610502565b60443590602435611afe611ab2565b92804211611bbc57611b8e611bb7916109e69560405190611b7682611b686020820195898b8860609194939260808201957fe48329057bfd03d55e49b547132e39cffd9c1820ad7b9d4c5307691425d15adf835260018060a01b0316602083015260408201520152565b03601f198101845283610611565b611b8960a4359360843593519020613cd5565b6139e2565b6001600160a01b0381166000908152600960205260409020805460018101909155909214612f21565b61329b565b60405162461bcd60e51b815260206004820152601d60248201527f4552433230566f7465733a207369676e617475726520657870697265640000006044820152606490fd5b346104fd5760003660031901126104fd576014546040516001600160a01b039091168152602090f35b346104fd5760003660031901126104fd576001546040516001600160a01b039091168152602090f35b346104fd5760203660031901126104fd577f6c339c0bee516a4df5d7074ba7a974856d609f83666e915aa4a0f90e06989dc56020600435611c92612db6565b80601755604051908152a1005b346104fd5760603660031901126104fd57600435611cbc81610502565b6044356001600160401b0381116104fd57602091611ce16107039236906004016106a0565b9060243590612bc2565b346104fd5760e03660031901126104fd57600435611d0881610502565b60243590611d1582610502565b60643591611d21611ac2565b90834211611de65761052f93611dd392611dc0611d598660018060a01b03166000526009602052604060002090815491600183019055565b611b686040519485926020840197604435908b8a91959493909260a09360c08401977f6e71edae12b1b97f4d1f60370fef10105fa2faae0126114a169c64845d6126c98552600180871b038092166020860152166040840152606083015260808201520152565b611b8960c4359360a43593519020613cd5565b6001600160a01b03908116911614612e4f565b60405162461bcd60e51b815260206004820152601d60248201527f45524332305065726d69743a206578706972656420646561646c696e650000006044820152606490fd5b346104fd5760403660031901126104fd576020611e85600435611e4d81610502565b60243590611e5a82610502565b60018060a01b03166000526003835260406000209060018060a01b0316600052602052604060002090565b54604051908152f35b346104fd5760203660031901126104fd577fccdd1baf560d2682736fa25752c8ccc0c5fc4079b245b0acf7389776308d5b1f6020600435611ece81610502565b611ed6612db6565b600180546001600160a01b0319166001600160a01b03929092169182179055604051908152a1005b346104fd5760003660031901126104fd576020601254604051908152f35b346104fd5760203660031901126104fd5761047b600435611f3c81610502565b6040906000828051611f4d81610585565b828152826020820152015260018060a01b0316600052600f6020528060002090805191611f7983610585565b5460ff8116151583526001600160781b0390818160081c16602085015260801c1681830152519182918291909160406060820193805115158352816020820151916001600160781b038093166020860152015116910152565b346104fd5760403660031901126104fd57600435611fef81610502565b7ff4a44a7f605c4971a27bcecb448108e6328b7fad34fab5bff4f69377294b826d60206024359261201e612db6565b6001546001600160a01b039190612039908690841683613819565b6040519485521692a2005b90600182811c92168015612074575b602083101461205e57565b634e487b7160e01b600052602260045260246000fd5b91607f1691612053565b346104fd576000806003193601126104fa57604051816013546120a081612044565b9081845260209260019182811690816000146104d857506001146120ce5761047b8561046f81890382610611565b929450601383526000805160206141698339815191525b828410612102575050508161047b9361046f92820101933861045f565b80548585018701529285019281016120e5565b346104fd5760403660031901126104fd5760043561213281610502565b63ffffffff60243581811681036104fd5761217c6121829160409460006020875161215c816105a5565b82815201526001600160a01b03166000908152600c602052859020612e9b565b50612eb3565b8251815190921682526020908101516001600160e01b031690820152f35b346104fd5760203660031901126104fd576004356121bd81610502565b6121c5612db6565b6001600160a01b03908116801561221357600080546001600160a01b03198116831782559092167f8be0079c531659141344cd1fd0a4f28419497f9722a3daafe3b4186f6b6457e08380a380f35b60405162461bcd60e51b815260206004820152602660248201527f4f776e61626c653a206e6577206f776e657220697320746865207a65726f206160448201526564647265737360d01b6064820152608490fd5b346104fd5760003660031901126104fd576015546040516001600160a01b039091168152602090f35b346104fd5760003660031901126104fd576010546040516001600160a01b039091168152602090f35b346104fd5760003660031901126104fd57602060405160048152f35b6001600160801b038116036104fd57565b602080825280820184905260409182019390929160005b82811061230c57505050505090565b90919293959482806001928735612322816122d5565b6001600160801b0380911682528a89013561233c816122d5565b16818b015297989701969501939291016122fd565b91605494939183526bffffffffffffffffffffffff199060601b166020830152603482015261238982518093602086850191016103c2565b010190565b6001600160401b0381116105a05760051b60200190565b92916123b08261238e565b916123be6040519384610611565b829481845260208094019160051b81019283116104fd57905b8282106123e45750505050565b813581529083019083016123d7565b6001600160781b038083116124cc5761063f92166124856124396124298460018060a01b0316600052600f602052604060002090565b5460801c6001600160781b031690565b612468612444610632565b60018152916001600160781b03851660208401526001600160781b03166040830152565b6001600160a01b0384166000908152600f6020526040902061292e565b6040516001600160781b039190911681526001600160a01b038216907fdb598eb8e0a3d3d5c2e02e4cab1ee8b65bb20e48fc7b42f4c76272de4cdd243490602090a2612599565b60405162461bcd60e51b815260206004820152602c60248201527f4469737472696275746f723a20746f74616c416d6f756e74203e20747970652860448201526b0ead2dce8626460525cdac2f60a31b6064820152608490fd5b9060405161253381610585565b604081935460ff8116151583526001600160781b0390818160081c16602085015260801c16910152565b634e487b7160e01b600052601160045260246000fd5b6001600160781b039182169082160391908211610be557565b91908203918211610be557565b6001600160a01b038116600090815260026020908152604080832054600f9092529091209091906125c990612526565b6001600160781b0380602081604085015116930151168083101560001461262a5750505060005b8083111561260b576126059061063f9361258c565b906130b4565b80831061261757505050565b61063f926126249161258c565b90612fd2565b6126419261263791612573565b1660175490612674565b7f000000000000000000000000000000000000000000000000000000000000000090811561266f57046125f0565b612687565b81810292918115918404141715610be557565b634e487b7160e01b600052601260045260246000fd5b811561266f570490565b156126ae57565b606460405162461bcd60e51b815260206004820152602060248201527f6d75737420696e697469616c697a65206265666f72652061646a757374696e676044820152fd5b600160ff1b8114610be55760000390565b1561270a57565b60405162461bcd60e51b815260206004820152601860248201527f61646a7573746d656e74203e206d61782075696e7431323000000000000000006044820152606490fd5b9060018201809211610be557565b91908201809211610be557565b9190916001600160781b0380809416911601918211610be557565b1561278c57565b60405162461bcd60e51b815260206004820152602760248201527f64656372656173652067726561746572207468616e206469737472696275746f6044820152661c881d1bdd185b60ca1b6064820152608490fd5b156127e857565b60405162461bcd60e51b815260206004820152602e60248201527f64656372656173652067726561746572207468616e206469737472696275746960448201526d1bdb949958dbdc99081d1bdd185b60921b6064820152608490fd5b601f8111612850575050565b60009060138252600080516020614169833981519152906020601f850160051c83019410612899575b601f0160051c01915b82811061288e57505050565b818155600101612882565b9092508290612879565b6040518060006013546128b581612044565b9060019081811690811561291757506001146128d4575b505003902090565b601360009081529192506000805160206141698339815191525b83831061290157505050810138806128cc565b80548684015285945060209092019181016128ee565b60ff191685525050801515028201905038806128cc565b815181546020840151610100600160801b0360089190911b1691151560ff166fffffffffffffffffffffffffffffffff199091161717815561063f916001600160781b0390604001518254600160801b600160f81b031916911660801b600160801b600160f81b0316179055565b60207f47cee97cb7acd717b3c0aa1435d004cd5b3c8c57d70dbceb4e4458bbd60e39d49160018060a01b03906129d785828460105416613819565b6040519485521692a2565b6001600160a01b0381166000908152600f602052604090205460ff1615612aab57612a936040612a84612a5d612a4d612a306110348760018060a01b0316600052600f602052604060002090565b96612a4560208901516001600160781b031690565b964290612bc2565b6001600160781b03809616612674565b7f00000000000000000000000000000000000000000000000000000000000000009061269d565b9301516001600160781b031690565b16818110612aa2575050600090565b61041b9161258c565b60405162461bcd60e51b815260206004820152602260248201527f4469737472696275746f723a20636c61696d206e6f7420696e697469616c697a604482015261195960f21b6064820152608490fd5b60185492600092915b8251841015612b5257612b178484612ba9565b5190600082821015612b43575060005260205260406000205b926000198114610be55760010192612b04565b90604092825260205220612b30565b915092915003612b5e57565b60405162461bcd60e51b815260206004820152600d60248201526c34b73b30b634b210383937b7b360991b6044820152606490fd5b634e487b7160e01b600052603260045260246000fd5b8051821015612bbd5760209160051b010190565b612b93565b82519060209184018281019483818303126104fd5783810151906001600160401b0382116104fd57019480603f870112156104fd5783860151604092612c078261238e565b97612c148551998a610611565b82895284878a019360061b8201019384116104fd578401915b838310612cbb575050505050612c4290612cfd565b8351805b612c54575050505050600090565b6000190190612c63818561258c565b612c8d612c81612c738589612ba9565b51516001600160801b031690565b6001600160801b031690565b10612c99579080612c46565b50612c819250612cac9061041b94612ba9565b5101516001600160801b031690565b848784840301126104fd578685918251612cd4816105a5565b8551612cdf816122d5565b815282860151612cee816122d5565b83820152815201920191612c2d565b6014546001600160a01b0391908216908115612d2457829081806016541691161816041690565b505050600090565b908160209103126104fd575190565b6040513d6000823e3d90fd5b3d15612d72573d90612d588261064e565b91612d666040519384610611565b82523d6000602084013e565b606090565b15612d7e57565b60405162461bcd60e51b815260206004820152601060248201526f2a3930b739b332b9103330b4b632b21760811b6044820152606490fd5b6000546001600160a01b03163303612dca57565b606460405162461bcd60e51b815260206004820152602060248201527f4f776e61626c653a2063616c6c6572206973206e6f7420746865206f776e65726044820152fd5b60405162461bcd60e51b81526020600482015260196024820152783234b9b0b13632b2103337b9103b37ba34b733903837bbb2b960391b6044820152606490fd5b15612e5657565b60405162461bcd60e51b815260206004820152601e60248201527f45524332305065726d69743a20696e76616c6964207369676e617475726500006044820152606490fd5b8054821015612bbd5760005260206000200190600090565b90604051612ec0816105a5565b602081935463ffffffff81168352811c910152565b15612edc57565b60405162461bcd60e51b815260206004820152601960248201527f4552433230566f7465733a20667574757265206c6f6f6b7570000000000000006044820152606490fd5b15612f2857565b60405162461bcd60e51b815260206004820152601960248201527f4552433230566f7465733a20696e76616c6964206e6f6e6365000000000000006044820152606490fd5b15612f7457565b60405162461bcd60e51b815260206004820152603060248201527f4552433230566f7465733a20746f74616c20737570706c79207269736b73206f60448201526f766572666c6f77696e6720766f74657360801b6064820152608490fd5b906001600160a01b038216801561306f57600454828101809111610be55761306b93613050926130028593600455565b6001600160a01b0382166000908152600260209081526040808320805487019055518581527fddf252ad1be2c89b69c2b068fc378daa952ba7f163c4a11628f55a4df523b3ef9190a3613202565b600454613066906001600160e01b031015612f6d565b6135ed565b5050565b60405162461bcd60e51b815260206004820152601f60248201527f45524332303a206d696e7420746f20746865207a65726f2061646472657373006044820152606490fd5b6001600160a01b0381169190821561315c578181600061306b95836130ee6131579660018060a01b03166000526002602052604060002090565b546130fb828210156131ab565b036131188460018060a01b03166000526002602052604060002090565b556131268460045403600455565b6040518481527fddf252ad1be2c89b69c2b068fc378daa952ba7f163c4a11628f55a4df523b3ef90602090a361324d565b6136dd565b60405162461bcd60e51b815260206004820152602160248201527f45524332303a206275726e2066726f6d20746865207a65726f206164647265736044820152607360f81b6064820152608490fd5b156131b257565b60405162461bcd60e51b815260206004820152602260248201527f45524332303a206275726e20616d6f756e7420657863656564732062616c616e604482015261636560f01b6064820152608490fd5b600b6020527fdf7de25b7f1fd6d0b5205f0e18f1f35bd7b8d84cce336588d184533ce43a6f76546001600160a01b039182166000908152604090205461063f93929081169116613310565b6001600160a01b039081166000908152600b60205260408120549080527fdf7de25b7f1fd6d0b5205f0e18f1f35bd7b8d84cce336588d184533ce43a6f765461063f93929081169116613310565b61063f9160018060a01b03809216600092818452600b60205280604085205416809260026020527f3134e8a2e6d97e929a7e54011ea5485d7d196dd5f0ba4d4ef95803e8e3fc257f604087205496600b6020526040812094871694856bffffffffffffffffffffffff60a01b82541617905580a45b6001600160a01b03808316939291168084141580613523575b613334575b50505050565b806133a2575b5082613347575b8061332e565b6001600160a01b03166000908152600c602052604090207fdec2bacdd2f05b59de34da9b523dff8be42e5e38e818c82fdb0bae774387a7249161338991613736565b60408051928352602083019190915290a2388080613341565b80600052600c6020527fdec2bacdd2f05b59de34da9b523dff8be42e5e38e818c82fdb0bae774387a7246040600020805480159182600014613500576133e6610641565b6000815260006020820152915b6020830151613412906001600160e01b03165b6001600160e01b031690565b9261341d898561414e565b941590816134dd575b501561347b5761344e6134659261343c86614019565b92600019019060005260206000200190565b9063ffffffff82549181199060201b169116179055565b604080519182526020820192909252a23861333a565b506134d89061349f61349a61348f43614082565b65ffffffffffff1690565b6140e9565b906134d36134ac86614019565b6134c36134b7610641565b63ffffffff9095168552565b6001600160e01b03166020840152565b613593565b613465565b5163ffffffff16905063ffffffff6134f761348f43614082565b91161438613426565b61351d61351860001984018360005260206000200190565b612eb3565b916133f3565b50821515613329565b600d5490600160401b8210156105a0576001820180600d55821015612bbd57600d600052805160209182015190911b63ffffffff191663ffffffff91909116177fd7b6990105719101dabeb77144f2a3385c8033acd3af97e9423a695e81ad1eb590910155565b8054600160401b8110156105a0576135b091600182018155612e9b565b6135d757815160209283015190921b63ffffffff191663ffffffff92909216919091179055565b634e487b7160e01b600052600060045260246000fd5b600d54909181159182156136c857613603610641565b60008152600060208201525b60208101516136319061362a906001600160e01b0316613406565b958661415b565b931590816136a5575b501561365a5761063f9061344e61365085614019565b91600019016137ef565b5061063f61366d61349a61348f43614082565b6136a061367985614019565b613690613684610641565b63ffffffff9094168452565b6001600160e01b03166020830152565b61352c565b5163ffffffff16905063ffffffff6136bf61348f43614082565b9116143861363a565b6136d861351860001983016137ef565b61360f565b600d5490918115918215613721576136f3610641565b60008152600060208201525b60208101516136319061371a906001600160e01b0316613406565b958661414e565b61373161351860001983016137ef565b6136ff565b9091815491821592836000146137d25761374e610641565b60008152600060208201525b602081015161377c90613775906001600160e01b0316613406565b968761415b565b941590816137af575b501561379b5761344e61063f9261343c86614019565b5061063f9061349f61349a61348f43614082565b5163ffffffff16905063ffffffff6137c961348f43614082565b91161438613785565b6137ea61351860001983018460005260206000200190565b61375a565b600d6000527fd7b6990105719101dabeb77144f2a3385c8033acd3af97e9423a695e81ad1eb50190565b60405163a9059cbb60e01b602082019081526001600160a01b0393841660248301526044808301959095529381526138a8929091613856836105db565b1660405191613864836105a5565b602083527f5361666545524332303a206c6f772d6c6576656c2063616c6c206661696c65646020840152600080958192519082855af16138a2612d47565b9161394d565b80519081159182156138c1575b505061063f91506138ee565b81925090602091810103126138ea57602001519081151582036104fa575061063f9038806138b5565b5080fd5b156138f557565b60405162461bcd60e51b815260206004820152602a60248201527f5361666545524332303a204552433230206f7065726174696f6e20646964206e6044820152691bdd081cdd58d8d9595960b21b6064820152608490fd5b919290156139af5750815115613961575090565b3b1561396a5790565b60405162461bcd60e51b815260206004820152601d60248201527f416464726573733a2063616c6c20746f206e6f6e2d636f6e74726163740000006044820152606490fd5b8251909150156139c25750805190602001fd5b60405162461bcd60e51b81529081906139de906004830161040a565b0390fd5b9161041b93916139f193613b39565b919091613a19565b60051115613a0357565b634e487b7160e01b600052602160045260246000fd5b613a22816139f9565b80613a2a5750565b613a33816139f9565b60018103613a805760405162461bcd60e51b815260206004820152601860248201527f45434453413a20696e76616c6964207369676e617475726500000000000000006044820152606490fd5b613a89816139f9565b60028103613ad65760405162461bcd60e51b815260206004820152601f60248201527f45434453413a20696e76616c6964207369676e6174757265206c656e677468006044820152606490fd5b80613ae26003926139f9565b14613ae957565b60405162461bcd60e51b815260206004820152602260248201527f45434453413a20696e76616c6964207369676e6174757265202773272076616c604482015261756560f01b6064820152608490fd5b9291907f7fffffffffffffffffffffffffffffff5d576e7357a4501ddfe92f46681b20a08311613baf5791608094939160ff602094604051948552168484015260408301526060820152600093849182805260015afa156108b45781516001600160a01b03811615613ba9579190565b50600190565b50505050600090600390565b307f00000000000000000000000000000000000000000000000000000000000000006001600160a01b03161480613cac575b15613c16577f000000000000000000000000000000000000000000000000000000000000000090565b60405160208101907f8b73c3c69bb8fe3d512ecc4cf759cc79239f7b179b0ffacaa9a75d522b39400f82527f000000000000000000000000000000000000000000000000000000000000000060408201527f000000000000000000000000000000000000000000000000000000000000000060608201524660808201523060a082015260a08152613ca6816105f6565b51902090565b507f00000000000000000000000000000000000000000000000000000000000000004614613bed565b604290613ce0613bbb565b906040519161190160f01b8352600283015260228201522090565b60ff8114613d395760ff811690601f8211613d275760405191613d1d836105a5565b8252602082015290565b604051632cd44ac360e21b8152600490fd5b50604051600754816000613d4c83612044565b808352602093600190818116908115613dd55750600114613d76575b505061041b92500382610611565b9093915060076000527fa66cc928b5edb82af9bd49922954155ab7b0942694bea4ce44661d9a8736c688936000915b818310613dbd57505061041b93508201013880613d68565b85548784018501529485019486945091830191613da5565b91505061041b94925060ff191682840152151560051b8201013880613d68565b60ff8114613e175760ff811690601f8211613d275760405191613d1d836105a5565b50604051600854816000613e2a83612044565b808352602093600190818116908115613dd55750600114613e5357505061041b92500382610611565b9093915060086000527ff3f7a9fe364faab93b216da50a3214154f22a0a2b415b23a84c8169e8b636ee3936000915b818310613e9a57505061041b93508201013880613d68565b85548784018501529485019486945091830191613e82565b90808216911860011c8101809111610be55790565b80156140015780613f9a613f93613f89613f7f613f75613f6b613f61613f57600161041b9a6000908b60801c80613ff5575b508060401c80613fe8575b508060201c80613fdb575b508060101c80613fce575b508060081c80613fc1575b508060041c80613fb4575b508060021c80613fa7575b50821c613fa0575b811c1b613f50818b61269d565b0160011c90565b613f50818a61269d565b613f50818961269d565b613f50818861269d565b613f50818761269d565b613f50818661269d565b613f50818561269d565b809261269d565b90614007565b8101613f43565b6002915091019038613f3b565b6004915091019038613f30565b6008915091019038613f25565b6010915091019038613f1a565b6020915091019038613f0f565b6040915091019038613f04565b91505060809038613ef9565b50600090565b9080821015614014575090565b905090565b6001600160e01b039081811161402d571690565b60405162461bcd60e51b815260206004820152602760248201527f53616665436173743a2076616c756520646f65736e27742066697420696e20326044820152663234206269747360c81b6064820152608490fd5b65ffffffffffff90818111614095571690565b60405162461bcd60e51b815260206004820152602660248201527f53616665436173743a2076616c756520646f65736e27742066697420696e203460448201526538206269747360d01b6064820152608490fd5b63ffffffff908181116140fa571690565b60405162461bcd60e51b815260206004820152602660248201527f53616665436173743a2076616c756520646f65736e27742066697420696e203360448201526532206269747360d01b6064820152608490fd5b908103908111610be55790565b908101809111610be5579056fe66de8ffda797e3de9c05e8fc57b3bf0ec28a930d40b0d285d93c06501cf6a090a2646970667358221220adfd4f5df2c87961f321321448420fc3d61af0412679999b49e1033d1e44486464736f6c6343000815003366de8ffda797e3de9c05e8fc57b3bf0ec28a930d40b0d285d93c06501cf6a090914960aef5e033ce5cae8a7992d4b7a6f0f9741227b66acb67c605b7019f8a46dccb8d94a5bbd764ed844afa20f2581be18d3fa84b36855e86a8f0c9316cba7d6c339c0bee516a4df5d7074ba7a974856d609f83666e915aa4a0f90e06989dc5f652222313e28459528d920b65115c16c04f3efc82aaedc97be59f3f377c0d3f","linkReferences":{}},"methodIdentifiers":{"CLOCK_MODE()":"4bf5d7e9","DOMAIN_SEPARATOR()":"3644e515","NAME()":"a3f4df7e","VERSION()":"ffa1ad74","adjust(address,int256)":"75aa9bc6","allowance(address,address)":"dd62ed3e","approve(address,uint256)":"095ea7b3","balanceOf(address)":"70a08231","checkpoints(address,uint32)":"f1127ed8","claim(uint256,address,uint256,(uint128,uint128)[],bytes32[])":"7c186358","claimed()":"e834a834","clock()":"91ddadf4","decimals()":"313ce567","decreaseAllowance(address,uint256)":"a457c2d7","delegate(address)":"5c19a95c","delegateBySig(address,uint256,uint256,uint8,bytes32,bytes32)":"c3cda520","delegates(address)":"587cde1e","distancePerSecond()":"c6e8d982","eip712Domain()":"84b0196e","getClaimableAmount(address,bytes)":"13c67ce5","getDistributionRecord(address)":"e85858d9","getFairDelayTime(address)":"a4ef1f78","getFractionDenominator()":"0f56b96c","getMerkleRoot()":"49590657","getPastTotalSupply(uint256)":"8e539e8c","getPastVotes(address,uint256)":"3a46b1a8","getSweepRecipient()":"c78d5985","getTotalVotes()":"9a0e7d66","getVestedFraction(address,uint256,bytes)":"d3d0ec89","getVoteFactor(address)":"bb22dccb","getVotes(address)":"9ab24eb0","increaseAllowance(address,uint256)":"39509351","initializeDistributionRecord(uint256,address,uint256,(uint128,uint128)[],bytes32[])":"1c6f0885","maxDelayTime()":"f56c8547","name()":"06fdde03","nonces(address)":"7ecebe00","numCheckpoints(address)":"6fcfff45","owner()":"8da5cb5b","permit(address,address,uint256,uint256,uint8,bytes32,bytes32)":"d505accf","randomValue()":"276801ec","renounceOwnership()":"715018a6","setMerkleRoot(bytes32)":"7cb64759","setSweepRecipient(address)":"de032f58","setToken(address)":"144fa6d7","setTotal(uint256)":"1f8d1d50","setUri(string)":"9b642de1","setVoteFactor(uint256)":"c9557255","sweepNative()":"ab803a76","sweepNative(uint256)":"3cf3a025","sweepToken(address)":"1be19560","sweepToken(address,uint256)":"e90a182f","symbol()":"95d89b41","token()":"fc0c546a","total()":"2ddbd13a","totalSupply()":"18160ddd","transfer(address,uint256)":"a9059cbb","transferFrom(address,address,uint256)":"23b872dd","transferOwnership(address)":"f2fde38b","uri()":"eac989f8"},"id":1}