{"abi":[{"type":"function","name":"getMerkleRoot","inputs":[],"outputs":[{"name":"","type":"bytes32","internalType":"bytes32"}],"stateMutability":"view"},{"type":"event","name":"Initialized","inputs":[{"name":"version","type":"uint8","indexed":false,"internalType":"uint8"}],"anonymous":false},{"type":"event","name":"SetMerkleRoot","inputs":[{"name":"merkleRoot","type":"bytes32","indexed":false,"internalType":"bytes32"}],"anonymous":false}],"bytecode":{"object":"0x60808060405234601457607a908161001a8239f35b600080fdfe6080806040526004361015601257600080fd5b600090813560e01c634959065714602857600080fd5b34604057816003193601126040576020906001548152f35b5080fdfea2646970667358221220c1355cf471224b29718c2e6cd6a2ca301c7578d5641b42223287189b9b1aea0564736f6c63430008150033","linkReferences":{}},"methodIdentifiers":{"getMerkleRoot()":"49590657"},"id":21}