{"abi":[{"type":"constructor","inputs":[{"name":"_token","type":"address","internalType":"contract IERC20"},{"name":"_connext","type":"address","internalType":"contract IConnext"},{"name":"_total","type":"uint256","internalType":"uint256"},{"name":"_uri","type":"string","internalType":"string"},{"name":"_voteFactor","type":"uint256","internalType":"uint256"},{"name":"_tranches","type":"tuple[]","internalType":"struct Tranche[]","components":[{"name":"time","type":"uint128","internalType":"uint128"},{"name":"vestedFraction","type":"uint128","internalType":"uint128"}]},{"name":"_merkleRoot","type":"bytes32","internalType":"bytes32"},{"name":"_maxDelayTime","type":"uint160","internalType":"uint160"}],"stateMutability":"nonpayable"},{"type":"function","name":"CLOCK_MODE","inputs":[],"outputs":[{"name":"","type":"string","internalType":"string"}],"stateMutability":"view"},{"type":"function","name":"DOMAIN_SEPARATOR","inputs":[],"outputs":[{"name":"","type":"bytes32","internalType":"bytes32"}],"stateMutability":"view"},{"type":"function","name":"NAME","inputs":[],"outputs":[{"name":"","type":"string","internalType":"string"}],"stateMutability":"pure"},{"type":"function","name":"VERSION","inputs":[],"outputs":[{"name":"","type":"uint256","internalType":"uint256"}],"stateMutability":"pure"},{"type":"function","name":"adjust","inputs":[{"name":"beneficiary","type":"address","internalType":"address"},{"name":"amount","type":"int256","internalType":"int256"}],"outputs":[],"stateMutability":"nonpayable"},{"type":"function","name":"allowance","inputs":[{"name":"owner","type":"address","internalType":"address"},{"name":"spender","type":"address","internalType":"address"}],"outputs":[{"name":"","type":"uint256","internalType":"uint256"}],"stateMutability":"view"},{"type":"function","name":"approve","inputs":[{"name":"spender","type":"address","internalType":"address"},{"name":"amount","type":"uint256","internalType":"uint256"}],"outputs":[{"name":"","type":"bool","internalType":"bool"}],"stateMutability":"nonpayable"},{"type":"function","name":"balanceOf","inputs":[{"name":"account","type":"address","internalType":"address"}],"outputs":[{"name":"","type":"uint256","internalType":"uint256"}],"stateMutability":"view"},{"type":"function","name":"checkpoints","inputs":[{"name":"account","type":"address","internalType":"address"},{"name":"pos","type":"uint32","internalType":"uint32"}],"outputs":[{"name":"","type":"tuple","internalType":"struct ERC20Votes.Checkpoint","components":[{"name":"fromBlock","type":"uint32","internalType":"uint32"},{"name":"votes","type":"uint224","internalType":"uint224"}]}],"stateMutability":"view"},{"type":"function","name":"claimByMerkleProof","inputs":[{"name":"_beneficiary","type":"address","internalType":"address"},{"name":"_total","type":"uint256","internalType":"uint256"},{"name":"_proof","type":"bytes32[]","internalType":"bytes32[]"}],"outputs":[],"stateMutability":"payable"},{"type":"function","name":"claimBySignature","inputs":[{"name":"_recipient","type":"address","internalType":"address"},{"name":"_recipientDomain","type":"uint32","internalType":"uint32"},{"name":"_beneficiary","type":"address","internalType":"address"},{"name":"_beneficiaryDomain","type":"uint32","internalType":"uint32"},{"name":"_total","type":"uint256","internalType":"uint256"},{"name":"_signature","type":"bytes","internalType":"bytes"},{"name":"_proof","type":"bytes32[]","internalType":"bytes32[]"}],"outputs":[],"stateMutability":"payable"},{"type":"function","name":"claimed","inputs":[],"outputs":[{"name":"","type":"uint256","internalType":"uint256"}],"stateMutability":"view"},{"type":"function","name":"clock","inputs":[],"outputs":[{"name":"","type":"uint48","internalType":"uint48"}],"stateMutability":"view"},{"type":"function","name":"connext","inputs":[],"outputs":[{"name":"","type":"address","internalType":"contract IConnext"}],"stateMutability":"view"},{"type":"function","name":"decimals","inputs":[],"outputs":[{"name":"","type":"uint8","internalType":"uint8"}],"stateMutability":"view"},{"type":"function","name":"decreaseAllowance","inputs":[{"name":"spender","type":"address","internalType":"address"},{"name":"subtractedValue","type":"uint256","internalType":"uint256"}],"outputs":[{"name":"","type":"bool","internalType":"bool"}],"stateMutability":"nonpayable"},{"type":"function","name":"delegate","inputs":[{"name":"delegatee","type":"address","internalType":"address"}],"outputs":[],"stateMutability":"nonpayable"},{"type":"function","name":"delegateBySig","inputs":[{"name":"delegatee","type":"address","internalType":"address"},{"name":"nonce","type":"uint256","internalType":"uint256"},{"name":"expiry","type":"uint256","internalType":"uint256"},{"name":"v","type":"uint8","internalType":"uint8"},{"name":"r","type":"bytes32","internalType":"bytes32"},{"name":"s","type":"bytes32","internalType":"bytes32"}],"outputs":[],"stateMutability":"nonpayable"},{"type":"function","name":"delegates","inputs":[{"name":"account","type":"address","internalType":"address"}],"outputs":[{"name":"","type":"address","internalType":"address"}],"stateMutability":"view"},{"type":"function","name":"distancePerSecond","inputs":[],"outputs":[{"name":"","type":"uint160","internalType":"uint160"}],"stateMutability":"view"},{"type":"function","name":"domain","inputs":[],"outputs":[{"name":"","type":"uint32","internalType":"uint32"}],"stateMutability":"view"},{"type":"function","name":"eip712Domain","inputs":[],"outputs":[{"name":"fields","type":"bytes1","internalType":"bytes1"},{"name":"name","type":"string","internalType":"string"},{"name":"version","type":"string","internalType":"string"},{"name":"chainId","type":"uint256","internalType":"uint256"},{"name":"verifyingContract","type":"address","internalType":"address"},{"name":"salt","type":"bytes32","internalType":"bytes32"},{"name":"extensions","type":"uint256[]","internalType":"uint256[]"}],"stateMutability":"view"},{"type":"function","name":"getClaimableAmount","inputs":[{"name":"beneficiary","type":"address","internalType":"address"},{"name":"data","type":"bytes","internalType":"bytes"}],"outputs":[{"name":"","type":"uint256","internalType":"uint256"}],"stateMutability":"view"},{"type":"function","name":"getDistributionRecord","inputs":[{"name":"beneficiary","type":"address","internalType":"address"}],"outputs":[{"name":"","type":"tuple","internalType":"struct DistributionRecord","components":[{"name":"initialized","type":"bool","internalType":"bool"},{"name":"total","type":"uint120","internalType":"uint120"},{"name":"claimed","type":"uint120","internalType":"uint120"}]}],"stateMutability":"view"},{"type":"function","name":"getFairDelayTime","inputs":[{"name":"user","type":"address","internalType":"address"}],"outputs":[{"name":"","type":"uint256","internalType":"uint256"}],"stateMutability":"view"},{"type":"function","name":"getFractionDenominator","inputs":[],"outputs":[{"name":"","type":"uint256","internalType":"uint256"}],"stateMutability":"view"},{"type":"function","name":"getMerkleRoot","inputs":[],"outputs":[{"name":"","type":"bytes32","internalType":"bytes32"}],"stateMutability":"view"},{"type":"function","name":"getPastTotalSupply","inputs":[{"name":"timepoint","type":"uint256","internalType":"uint256"}],"outputs":[{"name":"","type":"uint256","internalType":"uint256"}],"stateMutability":"view"},{"type":"function","name":"getPastVotes","inputs":[{"name":"account","type":"address","internalType":"address"},{"name":"timepoint","type":"uint256","internalType":"uint256"}],"outputs":[{"name":"","type":"uint256","internalType":"uint256"}],"stateMutability":"view"},{"type":"function","name":"getSweepRecipient","inputs":[],"outputs":[{"name":"","type":"address","internalType":"address payable"}],"stateMutability":"view"},{"type":"function","name":"getTotalVotes","inputs":[],"outputs":[{"name":"","type":"uint256","internalType":"uint256"}],"stateMutability":"view"},{"type":"function","name":"getTranche","inputs":[{"name":"i","type":"uint256","internalType":"uint256"}],"outputs":[{"name":"","type":"tuple","internalType":"struct Tranche","components":[{"name":"time","type":"uint128","internalType":"uint128"},{"name":"vestedFraction","type":"uint128","internalType":"uint128"}]}],"stateMutability":"view"},{"type":"function","name":"getTranches","inputs":[],"outputs":[{"name":"","type":"tuple[]","internalType":"struct Tranche[]","components":[{"name":"time","type":"uint128","internalType":"uint128"},{"name":"vestedFraction","type":"uint128","internalType":"uint128"}]}],"stateMutability":"view"},{"type":"function","name":"getVestedFraction","inputs":[{"name":"beneficiary","type":"address","internalType":"address"},{"name":"time","type":"uint256","internalType":"uint256"},{"name":"","type":"bytes","internalType":"bytes"}],"outputs":[{"name":"","type":"uint256","internalType":"uint256"}],"stateMutability":"view"},{"type":"function","name":"getVoteFactor","inputs":[{"name":"","type":"address","internalType":"address"}],"outputs":[{"name":"","type":"uint256","internalType":"uint256"}],"stateMutability":"view"},{"type":"function","name":"getVotes","inputs":[{"name":"account","type":"address","internalType":"address"}],"outputs":[{"name":"","type":"uint256","internalType":"uint256"}],"stateMutability":"view"},{"type":"function","name":"increaseAllowance","inputs":[{"name":"spender","type":"address","internalType":"address"},{"name":"addedValue","type":"uint256","internalType":"uint256"}],"outputs":[{"name":"","type":"bool","internalType":"bool"}],"stateMutability":"nonpayable"},{"type":"function","name":"initializeDistributionRecord","inputs":[{"name":"_domain","type":"uint32","internalType":"uint32"},{"name":"_beneficiary","type":"address","internalType":"address"},{"name":"_amount","type":"uint256","internalType":"uint256"},{"name":"merkleProof","type":"bytes32[]","internalType":"bytes32[]"}],"outputs":[],"stateMutability":"nonpayable"},{"type":"function","name":"maxDelayTime","inputs":[],"outputs":[{"name":"","type":"uint160","internalType":"uint160"}],"stateMutability":"view"},{"type":"function","name":"name","inputs":[],"outputs":[{"name":"","type":"string","internalType":"string"}],"stateMutability":"view"},{"type":"function","name":"nonces","inputs":[{"name":"owner","type":"address","internalType":"address"}],"outputs":[{"name":"","type":"uint256","internalType":"uint256"}],"stateMutability":"view"},{"type":"function","name":"numCheckpoints","inputs":[{"name":"account","type":"address","internalType":"address"}],"outputs":[{"name":"","type":"uint32","internalType":"uint32"}],"stateMutability":"view"},{"type":"function","name":"owner","inputs":[],"outputs":[{"name":"","type":"address","internalType":"address"}],"stateMutability":"view"},{"type":"function","name":"permit","inputs":[{"name":"owner","type":"address","internalType":"address"},{"name":"spender","type":"address","internalType":"address"},{"name":"value","type":"uint256","internalType":"uint256"},{"name":"deadline","type":"uint256","internalType":"uint256"},{"name":"v","type":"uint8","internalType":"uint8"},{"name":"r","type":"bytes32","internalType":"bytes32"},{"name":"s","type":"bytes32","internalType":"bytes32"}],"outputs":[],"stateMutability":"nonpayable"},{"type":"function","name":"randomValue","inputs":[],"outputs":[{"name":"","type":"uint160","internalType":"uint160"}],"stateMutability":"view"},{"type":"function","name":"renounceOwnership","inputs":[],"outputs":[],"stateMutability":"nonpayable"},{"type":"function","name":"setMerkleRoot","inputs":[{"name":"_merkleRoot","type":"bytes32","internalType":"bytes32"}],"outputs":[],"stateMutability":"nonpayable"},{"type":"function","name":"setSweepRecipient","inputs":[{"name":"_recipient","type":"address","internalType":"address payable"}],"outputs":[],"stateMutability":"nonpayable"},{"type":"function","name":"setToken","inputs":[{"name":"_token","type":"address","internalType":"contract IERC20"}],"outputs":[],"stateMutability":"nonpayable"},{"type":"function","name":"setTotal","inputs":[{"name":"_total","type":"uint256","internalType":"uint256"}],"outputs":[],"stateMutability":"nonpayable"},{"type":"function","name":"setTranches","inputs":[{"name":"_tranches","type":"tuple[]","internalType":"struct Tranche[]","components":[{"name":"time","type":"uint128","internalType":"uint128"},{"name":"vestedFraction","type":"uint128","internalType":"uint128"}]}],"outputs":[],"stateMutability":"nonpayable"},{"type":"function","name":"setUri","inputs":[{"name":"_uri","type":"string","internalType":"string"}],"outputs":[],"stateMutability":"nonpayable"},{"type":"function","name":"setVoteFactor","inputs":[{"name":"_voteFactor","type":"uint256","internalType":"uint256"}],"outputs":[],"stateMutability":"nonpayable"},{"type":"function","name":"sweepNative","inputs":[{"name":"amount","type":"uint256","internalType":"uint256"}],"outputs":[],"stateMutability":"nonpayable"},{"type":"function","name":"sweepNative","inputs":[],"outputs":[],"stateMutability":"nonpayable"},{"type":"function","name":"sweepToken","inputs":[{"name":"token","type":"address","internalType":"contract IERC20"}],"outputs":[],"stateMutability":"nonpayable"},{"type":"function","name":"sweepToken","inputs":[{"name":"token","type":"address","internalType":"contract IERC20"},{"name":"amount","type":"uint256","internalType":"uint256"}],"outputs":[],"stateMutability":"nonpayable"},{"type":"function","name":"symbol","inputs":[],"outputs":[{"name":"","type":"string","internalType":"string"}],"stateMutability":"view"},{"type":"function","name":"token","inputs":[],"outputs":[{"name":"","type":"address","internalType":"contract IERC20"}],"stateMutability":"view"},{"type":"function","name":"total","inputs":[],"outputs":[{"name":"","type":"uint256","internalType":"uint256"}],"stateMutability":"view"},{"type":"function","name":"totalSupply","inputs":[],"outputs":[{"name":"","type":"uint256","internalType":"uint256"}],"stateMutability":"view"},{"type":"function","name":"transfer","inputs":[{"name":"to","type":"address","internalType":"address"},{"name":"amount","type":"uint256","internalType":"uint256"}],"outputs":[{"name":"","type":"bool","internalType":"bool"}],"stateMutability":"nonpayable"},{"type":"function","name":"transferFrom","inputs":[{"name":"from","type":"address","internalType":"address"},{"name":"to","type":"address","internalType":"address"},{"name":"amount","type":"uint256","internalType":"uint256"}],"outputs":[{"name":"","type":"bool","internalType":"bool"}],"stateMutability":"nonpayable"},{"type":"function","name":"transferOwnership","inputs":[{"name":"newOwner","type":"address","internalType":"address"}],"outputs":[],"stateMutability":"nonpayable"},{"type":"function","name":"uri","inputs":[],"outputs":[{"name":"","type":"string","internalType":"string"}],"stateMutability":"view"},{"type":"function","name":"xReceive","inputs":[{"name":"","type":"bytes32","internalType":"bytes32"},{"name":"","type":"uint256","internalType":"uint256"},{"name":"","type":"address","internalType":"address"},{"name":"","type":"address","internalType":"address"},{"name":"","type":"uint32","internalType":"uint32"},{"name":"_callData","type":"bytes","internalType":"bytes"}],"outputs":[{"name":"","type":"bytes","internalType":"bytes"}],"stateMutability":"nonpayable"},{"type":"event","name":"Adjust","inputs":[{"name":"beneficiary","type":"address","indexed":true,"internalType":"address"},{"name":"amount","type":"int256","indexed":false,"internalType":"int256"}],"anonymous":false},{"type":"event","name":"Approval","inputs":[{"name":"owner","type":"address","indexed":true,"internalType":"address"},{"name":"spender","type":"address","indexed":true,"internalType":"address"},{"name":"value","type":"uint256","indexed":false,"internalType":"uint256"}],"anonymous":false},{"type":"event","name":"Claim","inputs":[{"name":"beneficiary","type":"address","indexed":true,"internalType":"address"},{"name":"amount","type":"uint256","indexed":false,"internalType":"uint256"}],"anonymous":false},{"type":"event","name":"CrosschainClaim","inputs":[{"name":"id","type":"bytes32","indexed":true,"internalType":"bytes32"},{"name":"beneficiary","type":"address","indexed":true,"internalType":"address"},{"name":"recipient","type":"address","indexed":true,"internalType":"address"},{"name":"recipientDomain","type":"uint32","indexed":false,"internalType":"uint32"},{"name":"amount","type":"uint256","indexed":false,"internalType":"uint256"}],"anonymous":false},{"type":"event","name":"DelegateChanged","inputs":[{"name":"delegator","type":"address","indexed":true,"internalType":"address"},{"name":"fromDelegate","type":"address","indexed":true,"internalType":"address"},{"name":"toDelegate","type":"address","indexed":true,"internalType":"address"}],"anonymous":false},{"type":"event","name":"DelegateVotesChanged","inputs":[{"name":"delegate","type":"address","indexed":true,"internalType":"address"},{"name":"previousBalance","type":"uint256","indexed":false,"internalType":"uint256"},{"name":"newBalance","type":"uint256","indexed":false,"internalType":"uint256"}],"anonymous":false},{"type":"event","name":"EIP712DomainChanged","inputs":[],"anonymous":false},{"type":"event","name":"Foo","inputs":[{"name":"bar","type":"address","indexed":false,"internalType":"address"}],"anonymous":false},{"type":"event","name":"InitializeDistributionRecord","inputs":[{"name":"beneficiary","type":"address","indexed":true,"internalType":"address"},{"name":"total","type":"uint256","indexed":false,"internalType":"uint256"}],"anonymous":false},{"type":"event","name":"InitializeDistributor","inputs":[{"name":"token","type":"address","indexed":true,"internalType":"contract IERC20"},{"name":"total","type":"uint256","indexed":false,"internalType":"uint256"},{"name":"uri","type":"string","indexed":false,"internalType":"string"},{"name":"fractionDenominator","type":"uint256","indexed":false,"internalType":"uint256"}],"anonymous":false},{"type":"event","name":"OwnershipTransferred","inputs":[{"name":"previousOwner","type":"address","indexed":true,"internalType":"address"},{"name":"newOwner","type":"address","indexed":true,"internalType":"address"}],"anonymous":false},{"type":"event","name":"SetDelay","inputs":[{"name":"maxDelayTime","type":"uint160","indexed":false,"internalType":"uint160"}],"anonymous":false},{"type":"event","name":"SetMerkleRoot","inputs":[{"name":"merkleRoot","type":"bytes32","indexed":false,"internalType":"bytes32"}],"anonymous":false},{"type":"event","name":"SetSweepRecipient","inputs":[{"name":"recipient","type":"address","indexed":false,"internalType":"address"}],"anonymous":false},{"type":"event","name":"SetToken","inputs":[{"name":"token","type":"address","indexed":true,"internalType":"contract IERC20"}],"anonymous":false},{"type":"event","name":"SetTotal","inputs":[{"name":"total","type":"uint256","indexed":false,"internalType":"uint256"}],"anonymous":false},{"type":"event","name":"SetTranche","inputs":[{"name":"index","type":"uint256","indexed":true,"internalType":"uint256"},{"name":"time","type":"uint128","indexed":false,"internalType":"uint128"},{"name":"VestedFraction","type":"uint128","indexed":false,"internalType":"uint128"}],"anonymous":false},{"type":"event","name":"SetUri","inputs":[{"name":"uri","type":"string","indexed":true,"internalType":"string"}],"anonymous":false},{"type":"event","name":"SetVoteFactor","inputs":[{"name":"voteFactor","type":"uint256","indexed":false,"internalType":"uint256"}],"anonymous":false},{"type":"event","name":"SweepNative","inputs":[{"name":"amount","type":"uint256","indexed":false,"internalType":"uint256"}],"anonymous":false},{"type":"event","name":"SweepToken","inputs":[{"name":"token","type":"address","indexed":true,"internalType":"address"},{"name":"amount","type":"uint256","indexed":false,"internalType":"uint256"}],"anonymous":false},{"type":"event","name":"Transfer","inputs":[{"name":"from","type":"address","indexed":true,"internalType":"address"},{"name":"to","type":"address","indexed":true,"internalType":"address"},{"name":"value","type":"uint256","indexed":false,"internalType":"uint256"}],"anonymous":false},{"type":"error","name":"InvalidShortString","inputs":[]},{"type":"error","name":"StringTooLong","inputs":[{"name":"str","type":"string","internalType":"string"}]}],"bytecode":{"object":"0x6101c06040523462000c99576200679d803803809162000022826101c062001272565b6101c039610100811262000c99576101c0516001600160a01b038116810362000c99576101e0516001600160a01b038116810362000c995761020051610220519091906001600160401b03811162000c99576101c00192846101c001601f8501121562000c9957835193620000978562001296565b94620000a7604051968762001272565b808652866101c0016020828401011162000c9957620000cd9160208088019101620012b2565b61024051610260519092906001600160401b03811162000c99576101c087016101df8201121562000c99576101c08101516001600160401b0381116200092f57604051976200012360208360051b018a62001272565b81895260208901926101c082016101e0600685901b8301011162000c99576101e0810193905b6101e0600685901b8201018510620011c6575050610280516102a051909890959093509150506001600160a01b038416840362000c99576200018a620012ec565b62000194620012ec565b90604051620001a3816200123a565b600381526212559560ea1b602082015260405192620001c2846200123a565b60018452603160f81b60208086019190915260008054336001600160a01b03198216811783556040517fccdd1baf560d2682736fa25752c8ccc0c5fc4079b245b0acf7389776308d5b1f949390926001600160a01b0316907f8be0079c531659141344cd1fd0a4f28419497f9722a3daafe3b4186f6b6457e09080a3600180546001600160a01b031916339081179091558152a18051906001600160401b0382116200092f5781906200027760055462001327565b601f811162001170575b50602090601f8311600114620010e157600092620010d5575b50508160011b916000199060031b1c1916176005555b8051906001600160401b0382116200092f578190620002d160065462001327565b601f811162001074575b50602090601f831160011462000ff65760009262000fea575b50508160011b916000199060031b1c1916176006555b6200031581620014e4565b6101205262000324826200164c565b6101405260208151910120908160e0526020815191012080610100524660a052604051917f8b73c3c69bb8fe3d512ecc4cf759cc79239f7b179b0ffacaa9a75d522b39400f6020840152604083015260608201524660808201523060a082015260a081528060c081011060018060401b0360c0830111176200092f5760c0818101604052815160208301206080523090526001600e556001600160a01b0382161562000fa25750851562000f5d57601080546001600160a01b0319166001600160a01b039290921691909117905560118590558051906001600160401b0382116200092f5781906200041860135462001327565b601f811162000efc575b50602090601f831160011462000e7e5760009262000e72575b50508160011b916000199060031b1c1916176013555b6127106101605260018060a01b0360105416601154604051908152606060208201526000601354620004838162001327565b9081606085015260018116908160001462000e4f575060011462000dff575b5090807f433127dedcff849792656a12f4a9dbc0efeb80df5cce6310f53481a93cd71c719261271060408301520390a2601580546001600160a01b0319166001600160a01b038416908117909155158062000dce5762000db8576004926020926000805160206200675d8339815191529184916000805160206200673d8339815191529083906001600160a01b0380821690045b601480546001600160a01b0319166001600160a01b0392831617905560405191168152a16200056e6001600160a01b03891662001379565b80601755604051908152a161018081905260405163617d935360e11b815292839182906001600160a01b03165afa801562000d4a5760009062000d7c575b63ffffffff166101a052506010546101805160405163095ea7b360e01b60208201526001600160a01b039182166024820152600060448083019190915281526200066792909116620005fe8262001256565b6000806040519362000610856200123a565b60208552600080516020620066fd833981519152602086015260208151910182855af13d1562000c9e573d91620006478362001296565b9262000657604051948562001272565b83523d6000602085013e6200141b565b805190811591821562000d56575b50501562000c1b5760105461018051604051636eb1769f60e11b81523060048201526001600160a01b0391821660248201819052939290911690602081604481855afa90811562000d4a5760009162000d12575b5062000ca757600080620007459460405194602086019163095ea7b360e01b83526024870152604486015260448552620007038562001256565b6040519462000712866200123a565b60208652600080516020620066fd8339815191526020870152519082855af13d1562000c9e573d91620006478362001296565b805190811591821562000c73575b50501562000c1b576020817f914960aef5e033ce5cae8a7992d4b7a6f0f9741227b66acb67c605b7019f8a4692601855604051908152a180511562000be25760195460006019558062000b9b575b50600080805b835183101562000a22576001600160801b036020620007c7858762001364565b5101511615620009dd576001600160801b03620007e5848662001364565b5151166001600160801b03909116101562000998576001600160801b03602062000810848662001364565b510151166001600160801b03909116101562000945576001600160801b036200083a828462001364565b515116906001600160801b03602062000854838662001364565b510151169062000865818562001364565b519060195491680100000000000000008310156200092f57600183018060195583101562000919576019600052805160209182015160801b6001600160801b0319166001600160801b0391909116177f944998273e477b495144fb8794c914197f3ccb46be2900f4698fd0ef743c9695909301929092556040805185815292830184905260019282917f5104929ca78e46ba25dca9557731ec873a03ae745d3ee194d262cc4820662a1c91a20191620007a7565b634e487b7160e01b600052603260045260246000fd5b634e487b7160e01b600052604160045260246000fd5b60405162461bcd60e51b815260206004820152602560248201527f7472616e63686520766573746564206672616374696f6e206d75737420696e63604482015264726561736560d81b6064820152608490fd5b60405162461bcd60e51b815260206004820152601a60248201527f7472616e6368652074696d65206d75737420696e6372656173650000000000006044820152606490fd5b60405162461bcd60e51b815260206004820152601c60248201527f7472616e63686520766573746564206672616374696f6e203d3d2030000000006044820152606490fd5b6001600160801b039063f48657009082161162000b43576101605191160362000af457604051614f74908162001789823960805181614990015260a05181614a45015260c0518161495a015260e051816149df01526101005181614a05015261012051816114150152610140518161143f0152610160518181816105b401528181612b27015281816133cf015261374501526101805181818161229e0152818161274101528181612c8601528181612cf5015261315201526101a051818181610b3401528181611b3d01526131d20152f35b60405162461bcd60e51b815260206004820152602160248201527f6c617374207472616e636865206d757374207665737420616c6c20746f6b656e6044820152607360f81b6064820152608490fd5b60405162461bcd60e51b815260206004820152602a60248201527f76657374696e6720656e6473206166746572203431303234343438303020284a604482015269616e203120323130302960b01b6064820152608490fd5b60196000527f944998273e477b495144fb8794c914197f3ccb46be2900f4698fd0ef743c9695908101905b81811062000bd55750620007a1565b6000815560010162000bc6565b60405162461bcd60e51b81526020600482015260116024820152701d1c985b98da195cc81c995c5d5a5c9959607a1b6044820152606490fd5b60405162461bcd60e51b815260206004820152602a60248201527f5361666545524332303a204552433230206f7065726174696f6e20646964206e6044820152691bdd081cdd58d8d9595960b21b6064820152608490fd5b819250906020918101031262000c995760200151801515810362000c9957388062000753565b600080fd5b6060916200141b565b60405162461bcd60e51b815260206004820152603660248201527f5361666545524332303a20617070726f76652066726f6d206e6f6e2d7a65726f60448201527f20746f206e6f6e2d7a65726f20616c6c6f77616e6365000000000000000000006064820152608490fd5b90506020813d60201162000d41575b8162000d306020938362001272565b8101031262000c99575138620006c9565b3d915062000d21565b6040513d6000823e3d90fd5b819250906020918101031262000c995760200151801515810362000c9957388062000675565b506020813d60201162000daf575b8162000d996020938362001272565b8101031262000c995763ffffffff9051620005ac565b3d915062000d8a565b634e487b7160e01b600052601260045260246000fd5b506000805160206200675d83398151915260206004946000805160206200673d833981519152828096600062000536565b601360009081526000805160206200671d833981519152939250905b80821062000e335750909150810160800181620004a2565b9192600181602092546080858801015201910190929162000e1b565b60ff191660808086019190915291151560051b84019091019150829050620004a2565b0151905038806200043b565b6013600090815293506000805160206200671d83398151915291905b601f198416851062000ee0576001945083601f1981161062000ec6575b505050811b0160135562000451565b015160001960f88460031b161c1916905538808062000eb7565b8181015183556020948501946001909301929091019062000e9a565b60136000529091506000805160206200671d833981519152601f840160051c81016020851062000f55575b90849392915b601f830160051c8201811062000f4557505062000422565b6000815585945060010162000f2d565b508062000f27565b60405162461bcd60e51b815260206004820152601760248201527f4469737472696275746f723a20746f74616c20697320300000000000000000006044820152606490fd5b60c060649162461bcd60e51b82820152602060c4820152602060e48201527f4469737472696275746f723a20746f6b656e206973206164647265737328302961010482015201fd5b015190503880620002f4565b6006600090815293506000805160206200677d83398151915291905b601f198416851062001058576001945083601f198116106200103e575b505050811b016006556200030a565b015160001960f88460031b161c191690553880806200102f565b8181015183556020948501946001909301929091019062001012565b60066000529091506000805160206200677d833981519152601f840160051c810160208510620010cd575b90849392915b601f830160051c82018110620010bd575050620002db565b60008155859450600101620010a5565b50806200109f565b0151905038806200029a565b6005600090815293507f036b6384b5eca791c62761152d0c79bb0604c104a5fb6f4eb0703f3154bb3db091905b601f198416851062001154576001945083601f198116106200113a575b505050811b01600555620002b0565b015160001960f88460031b161c191690553880806200112b565b818101518355602094850194600190930192909101906200110e565b90915060056000526020600020601f840160051c810160208510620011be575b90849392915b601f830160051c82018110620011ae57505062000281565b6000815585945060010162001196565b508062001190565b604085846101c001031262000c9957604080519081016001600160401b038111828210176200122557602093604092859284526200120489620012d7565b815262001213838a01620012d7565b83820152815201950194915062000149565b60246000634e487b7160e01b81526041600452fd5b604081019081106001600160401b038211176200092f57604052565b608081019081106001600160401b038211176200092f57604052565b601f909101601f19168101906001600160401b038211908210176200092f57604052565b6001600160401b0381116200092f57601f01601f191660200190565b60005b838110620012c65750506000910152565b8181015183820152602001620012b5565b51906001600160801b038216820362000c9957565b60405190620012fb826200123a565b601582527f496e7465726e616c20766f746520747261636b657200000000000000000000006020830152565b90600182811c9216801562001359575b60208310146200134357565b634e487b7160e01b600052602260045260246000fd5b91607f169162001337565b8051821015620009195760209160051b010190565b6014546001600160a01b039190821615620014175781811615620013d2576000194301438111620013bc5782904016181660018060a01b03196016541617601655565b634e487b7160e01b600052601160045260246000fd5b60405162461bcd60e51b815260206004820152601860248201527f492064656d616e64206d6f72652072616e646f6d6e65737300000000000000006044820152606490fd5b5050565b9192901562001480575081511562001431575090565b3b156200143b5790565b60405162461bcd60e51b815260206004820152601d60248201527f416464726573733a2063616c6c20746f206e6f6e2d636f6e74726163740000006044820152606490fd5b825190915015620014945750805190602001fd5b60405162461bcd60e51b8152908190620014b29060048301620014b6565b0390fd5b60409160208252620014d88151809281602086015260208686019101620012b2565b601f01601f1916010190565b8051602090818110156200153d5750601f8251116200152057808251920151908083106200151157501790565b82600019910360031b1b161790565b60405163305a27a960e01b815280620014b28460048301620014b6565b919291906001600160401b0382116200092f576200155d60075462001327565b601f811162001614575b5080601f8311600114620015a857508192936000926200159c575b50508160011b916000199060031b1c19161760075560ff90565b01519050388062001582565b90601f19831694600760005282600020926000905b878210620015fb575050836001959610620015e1575b505050811b0160075560ff90565b015160001960f88460031b161c19169055388080620015d3565b80600185968294968601518155019501930190620015bd565b600060078152601f838220920160051c820191601f850160051c015b8281106200164057505062001567565b81815560010162001630565b805160209081811015620016795750601f8251116200152057808251920151908083106200151157501790565b919291906001600160401b0382116200092f576200169960085462001327565b601f811162001750575b5080601f8311600114620016e45750819293600092620016d8575b50508160011b916000199060031b1c19161760085560ff90565b015190503880620016be565b90601f19831694600860005282600020926000905b878210620017375750508360019596106200171d575b505050811b0160085560ff90565b015160001960f88460031b161c191690553880806200170f565b80600185968294968601518155019501930190620016f9565b600060088152601f838220920160051c820191601f850160051c015b8281106200177c575050620016a3565b8181556001016200176c56fe6080604052600436101561001257600080fd5b60003560e01c806306fdde031461042d578063095ea7b3146103745780630f56b96c1461042857806313c67ce514610423578063144fa6d71461041e57806318160ddd146103925780631be19560146104195780631f8d1d501461041457806323b872dd1461040f5780632538ab261461040a578063276801ec146104055780632ddbd13a14610400578063313ce567146103fb5780633644e515146103f657806339509351146103f15780633a46b1a8146103ec5780633cf3a025146103e757806349590657146103e25780634bf5d7e9146103dd578063587cde1e146103d85780635c19a95c146103d35780636fcfff45146103ce57806370a08231146103c9578063715018a6146103c457806375aa9bc6146103bf5780637cb64759146103ba5780637ecebe00146103b557806384b0196e146103b05780638da5cb5b146103ab5780638e539e8c146103a657806391ddadf4146103a157806395d89b411461039c5780639691cab5146103975780639a0e7d66146103925780639ab24eb01461038d5780639b642de114610388578063a3f4df7e14610383578063a457c2d71461037e578063a4ef1f7814610379578063a9059cbb14610374578063ab803a761461036f578063bb22dccb1461036a578063c2fb26a614610365578063c3cda52014610360578063c6e8d9821461035b578063c78d598514610356578063c955725514610351578063d3d0ec891461034c578063d505accf14610347578063d972e8ad14610342578063dad826861461033d578063dc2f511b14610338578063dd62ed3e14610333578063de032f581461032e578063de4b054814610329578063dfb3beec14610324578063e834a8341461031f578063e85858d91461031a578063e90a182f14610315578063eac989f814610310578063f1127ed81461030b578063f2fde38b14610306578063f56c854714610301578063fc0c546a146102fc578063fd614f41146102f75763ffa1ad74146102f257600080fd5b61283e565b6126e5565b6126bc565b612693565b6125cc565b612550565b6124b9565b61240d565b612357565b612339565b6122cd565b612288565b612218565b6121b5565b6120d3565b611fae565b611eda565b611d9a565b611d4e565b611d02565b611cd9565b611cb0565b611b81565b611b20565b611af7565b611a9c565b61057b565b611a75565b6119d2565b611974565b611825565b6117c2565b6108a0565b61170c565b611638565b61160c565b61151c565b6114f3565b6113fa565b6113bd565b611371565b61117f565b611124565b6110e7565b61109c565b611076565b611037565b610f85565b610f67565b610ef8565b610d9f565b610d0e565b610cf3565b610cd7565b610cb9565b610c90565b610af5565b610a23565b6109b7565b6108be565b610773565b610723565b61059c565b610486565b919082519283825260005b84811061045e575050826000602080949584010152601f8019910116010190565b60208183018101518483018201520161043d565b906020610483928181520190610432565b90565b346105655760008060031936011261056257604051816005546104a88161247f565b90818452602092600191828116908160001461054057506001146104e7575b6104e3856104d781890382610679565b60405191829182610472565b0390f35b929450600583527f036b6384b5eca791c62761152d0c79bb0604c104a5fb6f4eb0703f3154bb3db05b82841061052d57505050816104e3936104d79282010193386104c7565b8054858501870152928501928101610510565b60ff191686860152505050151560051b82010191506104d7816104e3386104c7565b80fd5b600080fd5b6001600160a01b0381160361056557565b346105655760403660031901126105655761059760043561056a565b613af3565b346105655760003660031901126105655760206040517f00000000000000000000000000000000000000000000000000000000000000008152f35b634e487b7160e01b600052604160045260246000fd5b604081019081106001600160401b0382111761060857604052565b6105d7565b606081019081106001600160401b0382111761060857604052565b602081019081106001600160401b0382111761060857604052565b608081019081106001600160401b0382111761060857604052565b60c081019081106001600160401b0382111761060857604052565b90601f801991011681019081106001600160401b0382111761060857604052565b604051906106a78261060d565b565b604051906106a7826105ed565b6001600160401b03811161060857601f01601f191660200190565b9291926106dd826106b6565b916106eb6040519384610679565b829481845281830111610565578281602093846000960137010152565b9080601f8301121561056557816020610483933591016106d1565b34610565576040366003190112610565576004356107408161056a565b6024356001600160401b0381116105655760209161076561076b923690600401610708565b50613350565b604051908152f35b34610565576020366003190112610565576004356107908161056a565b610798613a9b565b6002600e541461085b576002600e556107af613a9b565b6107b7612c75565b6001600160a01b0316801561082057601080546001600160a01b031916821790557fefc1fd16ea80a922086ee4e995739d59b025c1bcea6d1f67855747480c83214b600080a261081461080f60115460125490612a57565b612ce8565b61081e6001600e55565b005b60405162461bcd60e51b8152602060048201526013602482015272746f6b656e206973206164647265737328302960681b6044820152606490fd5b60405162461bcd60e51b815260206004820152601f60248201527f5265656e7472616e637947756172643a207265656e7472616e742063616c6c006044820152606490fd5b34610565576000366003190112610565576020600454604051908152f35b34610565576020366003190112610565576004356108db8161056a565b6108e3613a9b565b6040516370a0823160e01b81523060048201526001600160a01b0382169190602081602481865afa80156109b2577ff4a44a7f605c4971a27bcecb448108e6328b7fad34fab5bff4f69377294b826d926109799260009261097e575b50600154610969918391610963906001600160a01b03165b6001600160a01b031690565b906144e1565b6040519081529081906020820190565b0390a2005b6109699192506109a49060203d81116109ab575b61099c8183610679565b81019061301e565b919061093f565b503d610992565b61307b565b34610565576020366003190112610565576004356109d3613a9b565b6109db613a9b565b806011557fac657d3615bd618ee537848e2b33acd2a9df67d4776485ab6922b0421d324d296020604051838152a16012548103908111610a1e5761081e90612ce8565b6128ef565b3461056557606036600319011261056557600435610a408161056a565b610a4b60243561056a565b6001600160a01b031660009081526003602090815260408083203384529091529020546001810115613af3576044351115613af35760405162461bcd60e51b815260206004820152601d60248201527f45524332303a20696e73756666696369656e7420616c6c6f77616e63650000006044820152606490fd5b9181601f84011215610565578235916001600160401b038311610565576020808501948460051b01011161056557565b606036600319011261056557600435610b0d8161056a565b6044356024356001600160401b03821161056557610b32610b72923690600401610ac5565b7f00000000000000000000000000000000000000000000000000000000000000009391610b6c90610b64868689613283565b923691612de5565b9061346b565b610b7a612f66565b506001600160781b0380911660018060a01b038416600052600f602052808260406000205460081c1603610c80575b50610bb383613350565b16908115610c23576001600160a01b0383166000908152600f6020526040902061081e9390610c0090610bfa85610bf583546001600160781b039060801c1690565b61297d565b906132c7565b610c14610c0f84601254612970565b601255565b610c1d81612a7d565b80613087565b60405162461bcd60e51b815260206004820152602f60248201527f4469737472696275746f723a206e6f206d6f726520746f6b656e7320636c616960448201526e6d61626c65207269676874206e6f7760881b6064820152608490fd5b610c8a9084612e33565b38610ba9565b34610565576000366003190112610565576016546040516001600160a01b039091168152602090f35b34610565576000366003190112610565576020601154604051908152f35b3461056557600036600319011261056557602060405160128152f35b3461056557600036600319011261056557602061076b614957565b3461056557604036600319011261056557610d53600435610d2e8161056a565b33600052600360205260406000209060018060a01b0316600052602052604060002090565b54602435810110610a1e5760405162461bcd60e51b81526020600482015260196024820152783234b9b0b13632b2103337b9103b37ba34b733903837bbb2b960391b6044820152606490fd5b3461056557604036600319011261056557600435610dbc8161056a565b60243590610ddb65ffffffffffff610dd343614e18565b168310613ba2565b6001600160a01b03166000908152600c6020526040812080549290918360058111610ea7575b50905b838210610e5257505081610e2b575050602060005b6040516001600160e01b039091168152f35b610e46610e4d91602093600019019060005260206000200190565b5460201c90565b610e19565b9092610e5e8185614c48565b90818363ffffffff610e84610e7a848960005260206000200190565b5463ffffffff1690565b161115610e95575050925b90610e04565b909450610ea29150612962565b610e8f565b80610eb7610ebd92969396614c5d565b90612a57565b908263ffffffff610ed8610e7a858860005260206000200190565b161115610ee85750925b38610e01565b9350610ef390612962565b610ee2565b3461056557602036600319011261056557600435610f14613a9b565b7f3b381fdfc0e2729a70e8b26ae2397e9014f703a8235b557f5581c4ed47280fd26020600092610f5d848080808560018060a01b03600154165af1610f57613a2c565b50613a5c565b604051908152a180f35b34610565576000366003190112610565576020601854604051908152f35b34610565576000366003190112610565574365ffffffffffff610fa743614e18565b1603610ff2576104e3604051610fbc816105ed565b601d81527f6d6f64653d626c6f636b6e756d6265722666726f6d3d64656661756c74000000602082015260405191829182610472565b60405162461bcd60e51b815260206004820152601d60248201527f4552433230566f7465733a2062726f6b656e20636c6f636b206d6f64650000006044820152606490fd5b346105655760203660031901126105655760206004356110568161056a565b60018060a01b03809116600052600b825260406000205416604051908152f35b346105655760203660031901126105655761081e6004356110968161056a565b33613f68565b34610565576020366003190112610565576004356110b98161056a565b60018060a01b0316600052600c60205260206110d9604060002054614e7f565b63ffffffff60405191168152f35b34610565576020366003190112610565576004356111048161056a565b60018060a01b031660005260026020526020604060002054604051908152f35b34610565576000806003193601126105625761113e613a9b565b80546001600160a01b03198116825581906001600160a01b03167f8be0079c531659141344cd1fd0a4f28419497f9722a3daafe3b4186f6b6457e08280a380f35b346105655760403660031901126105655760043561119c8161056a565b7fd81661cef4e40e0f1f97384c033d606e4d6b570554fc3524568d8f9fc84c8388610979602435926111cc613a9b565b6001600160a01b0381166000908152600f602052604090206111ed9061286d565b6111ff6111fa8251151590565b6128a4565b600085131561136357845b6001600160781b039161121e838310612916565b6000871215611318576112f59261127d611278846112d7946112738261126c61126060206011549561125285881015612998565b01516001600160781b031690565b6001600160781b031690565b10156129f4565b612a57565b601155565b6001600160a01b0385166000908152600f602052604090206112b6909184166112b183546001600160781b039060081c1690565b612a64565b610100600160801b0382549160081b1690610100600160801b031916179055565b6010546001600160a01b03166000546001600160a01b0316906144e1565b6112fe81612a7d565b6040519384526001600160a01b0316929081906020820190565b506112b661135e9261132f61127884601154612970565b6001600160a01b0385166000908152600f602052604090209216610bf583546001600160781b039060081c1690565b6112f5565b61136c85612905565b61120a565b34610565576020366003190112610565577f914960aef5e033ce5cae8a7992d4b7a6f0f9741227b66acb67c605b7019f8a4660206004356113b0613a9b565b80601855604051908152a1005b34610565576020366003190112610565576004356113da8161056a565b60018060a01b031660005260096020526020604060002054604051908152f35b346105655760008060031936011261056257611497906114397f0000000000000000000000000000000000000000000000000000000000000000614a91565b906114637f0000000000000000000000000000000000000000000000000000000000000000614b8b565b906040519161147183610628565b8183526114a5602091604051968796600f60f81b885260e08589015260e0880190610432565b908682036040880152610432565b904660608601523060808601528260a086015284820360c08601528080855193848152019401925b8281106114dc57505050500390f35b8351855286955093810193928101926001016114cd565b34610565576000366003190112610565576000546040516001600160a01b039091168152602090f35b346105655760203660031901126105655760043561154b65ffffffffffff61154343614e18565b168210613ba2565b600d5490600082600581116115c9575b50905b82821061158a578280611578575060405160008152602090f35b610e4d610e46602092600019016144b7565b90916115968184614c48565b908263ffffffff6115a9610e7a856144b7565b1611156115b95750915b9061155e565b92506115c490612962565b6115b3565b80610eb76115d992959395614c5d565b908263ffffffff6115ec610e7a856144b7565b1611156115fc5750915b3861155b565b925061160790612962565b6115f6565b3461056557600036600319011261056557602061162843614e18565b65ffffffffffff60405191168152f35b3461056557600080600319360112610562576040518160065461165a8161247f565b9081845260209260019182811690816000146105405750600114611688576104e3856104d781890382610679565b929450600683527ff652222313e28459528d920b65115c16c04f3efc82aaedc97be59f3f377c0d3f5b8284106116ce57505050816104e3936104d79282010193386104c7565b80548585018701529285019281016116b1565b6001600160401b0381116106085760051b60200190565b35906001600160801b038216820361056557565b346105655760208060031936011261056557600435906001600160401b03821161056557366023830112156105655781600401359161174a836116e1565b9160409361175a85519485610679565b80845260248285019160061b8401019236841161056557602401905b8382106117865761081e856135f7565b858236031261056557828691825161179d816105ed565b6117a6856116f8565b81526117b38386016116f8565b83820152815201910190611776565b34610565576020366003190112610565576004356117df8161056a565b6001600160a01b03166000908152600c6020526040902080548061180b57505060405160008152602090f35b60209161181c916000190190613519565b5054811c610e19565b3461056557602080600319360112610565576001600160401b036004358181116105655736602382011215610565576118689036906024816004013591016106d1565b91611871613a9b565b82519182116106085761188e8261188960135461247f565b612b8b565b80601f83116001146118fc575081906118be936000926118f1575b50508160011b916000199060031b1c19161790565b6013555b6118ca612bea565b7fd70c1392a974224e639e7a9607dcb2c766826aecfe2dc356f442ce0488b01e1f600080a2005b0151905038806118a9565b90601f1983169361191d6013600052600080516020614eff83398151915290565b926000905b86821061195c5750508360019510611943575b505050811b016013556118c2565b015160001960f88460031b161c19169055388080611935565b80600185968294968601518155019501930190611922565b34610565576000366003190112610565576104e3604051611994816105ed565b601e81527f43726f7373636861696e5472616e63686556657374696e674d65726b6c6500006020820152604051918291602083526020830190610432565b34610565576040366003190112610565576004356119ef8161056a565b336000526003602052611a1b6024359160406000209060018060a01b0316600052602052604060002090565b541015613af35760405162461bcd60e51b815260206004820152602560248201527f45524332303a2064656372656173656420616c6c6f77616e63652062656c6f77604482015264207a65726f60d81b6064820152608490fd5b3461056557602036600319011261056557602061076b600435611a978161056a565b6139fd565b346105655760008060031936011261056257611ab6613a9b565b7f3b381fdfc0e2729a70e8b26ae2397e9014f703a8235b557f5581c4ed47280fd2602047610f5d848080808560018060a01b03600154165af1610f57613a2c565b3461056557602036600319011261056557611b1360043561056a565b6020601754604051908152f35b3461056557600036600319011261056557602060405163ffffffff7f0000000000000000000000000000000000000000000000000000000000000000168152f35b6064359060ff8216820361056557565b6084359060ff8216820361056557565b346105655760c036600319011261056557600435611b9e8161056a565b60443590602435611bad611b61565b92804211611c6b57611c3d611c669161081e9560405190611c2582611c176020820195898b8860609194939260808201957fe48329057bfd03d55e49b547132e39cffd9c1820ad7b9d4c5307691425d15adf835260018060a01b0316602083015260408201520152565b03601f198101845283610679565b611c3860a4359360843593519020614a6b565b614948565b6001600160a01b0381166000908152600960205260409020805460018101909155909214613bee565b613f68565b60405162461bcd60e51b815260206004820152601d60248201527f4552433230566f7465733a207369676e617475726520657870697265640000006044820152606490fd5b34610565576000366003190112610565576014546040516001600160a01b039091168152602090f35b34610565576000366003190112610565576001546040516001600160a01b039091168152602090f35b34610565576020366003190112610565577f6c339c0bee516a4df5d7074ba7a974856d609f83666e915aa4a0f90e06989dc56020600435611d41613a9b565b80601755604051908152a1005b3461056557606036600319011261056557600435611d6b8161056a565b6044356001600160401b03811161056557602091611d9061076b923690600401610708565b5060243590613531565b346105655760e036600319011261056557600435611db78161056a565b60243590611dc48261056a565b60643591611dd0611b71565b90834211611e955761059793611e8292611e6f611e088660018060a01b03166000526009602052604060002090815491600183019055565b611c176040519485926020840197604435908b8a91959493909260a09360c08401977f6e71edae12b1b97f4d1f60370fef10105fa2faae0126114a169c64845d6126c98552600180871b038092166020860152166040840152606083015260808201520152565b611c3860c4359360a43593519020614a6b565b6001600160a01b03908116911614613b34565b60405162461bcd60e51b815260206004820152601d60248201527f45524332305065726d69743a206578706972656420646561646c696e650000006044820152606490fd5b3461056557602036600319011261056557600435611ef66135b9565b50601954811015611f4557611f216040916019600052600080516020614f1f833981519152016135d2565b611f4382518092602090816001600160801b0391828151168552015116910152565bf35b613503565b6024359063ffffffff8216820361056557565b6084359063ffffffff8216820361056557565b359063ffffffff8216820361056557565b9181601f84011215610565578235916001600160401b038311610565576020838186019501011161056557565b60e036600319011261056557600435611fc68161056a565b611fce611f4a565b60443590611fdb8261056a565b6064359263ffffffff84168403610565576001600160401b039360843560a43586811161056557612010903690600401611f81565b9260c43597881161056557610b6c85610b6485936120b78b8b6120b061081e9f9b6120be9a6120466120cd9e3690600401610ac5565b9b90996040519660208801926001600160601b0319809360601b16845263ffffffff60e01b809860e01b1660348a015260018060a01b039788938360601b1660388b01528b60e01b16604c8a01526050890152605088526120a688610643565b1695519020613235565b16146131fc565b868b613283565b6120c6612f66565b5084612f7e565b92613087565b346105655760008060031936011261056257601954906120f2826116e1565b9160409161210283519485610679565b818452601981526020938481019282600080516020614f1f833981519152855b83831061218d5750505050835194859481860192828752518093528086019493905b8382106121515786860387f35b91849650828661217d6001949698849851602090816001600160801b0391828151168552015116910152565b0196019201869594929391612144565b60018981926121a1859c99989a9b9c6135d2565b815201920192019190979695939497612122565b3461056557604036600319011261056557602061220f6004356121d78161056a565b602435906121e48261056a565b60018060a01b03166000526003835260406000209060018060a01b0316600052602052604060002090565b54604051908152f35b34610565576020366003190112610565577fccdd1baf560d2682736fa25752c8ccc0c5fc4079b245b0acf7389776308d5b1f60206004356122588161056a565b612260613a9b565b600180546001600160a01b0319166001600160a01b03929092169182179055604051908152a1005b34610565576000366003190112610565576040517f00000000000000000000000000000000000000000000000000000000000000006001600160a01b03168152602090f35b346105655760803660031901126105655760043563ffffffff81168103610565576024356122fa8161056a565b604435906064356001600160401b03811161056557610b64610b6c61081e9561232a612334943690600401610ac5565b9390918787613283565b612e33565b34610565576000366003190112610565576020601254604051908152f35b34610565576020366003190112610565576104e36004356123778161056a565b60409060008280516123888161060d565b828152826020820152015260018060a01b0316600052600f60205280600020908051916123b48361060d565b5460ff8116151583526001600160781b0390818160081c16602085015260801c1681830152519182918291909160406060820193805115158352816020820151916001600160781b038093166020860152015116910152565b346105655760403660031901126105655760043561242a8161056a565b7ff4a44a7f605c4971a27bcecb448108e6328b7fad34fab5bff4f69377294b826d602060243592612459613a9b565b6001546001600160a01b0391906124749086908416836144e1565b6040519485521692a2005b90600182811c921680156124af575b602083101461249957565b634e487b7160e01b600052602260045260246000fd5b91607f169161248e565b346105655760008060031936011261056257604051816013546124db8161247f565b9081845260209260019182811690816000146105405750600114612509576104e3856104d781890382610679565b92945060138352600080516020614eff8339815191525b82841061253d57505050816104e3936104d79282010193386104c7565b8054858501870152928501928101612520565b346105655760403660031901126105655760406125a86125a26004356125758161056a565b61257d611f4a565b906125866135b9565b506001600160a01b03166000908152600c602052849020613519565b50613b80565b8151815163ffffffff1681526020918201516001600160e01b031691810191909152f35b34610565576020366003190112610565576004356125e98161056a565b6125f1613a9b565b6001600160a01b03908116801561263f57600080546001600160a01b03198116831782559092167f8be0079c531659141344cd1fd0a4f28419497f9722a3daafe3b4186f6b6457e08380a380f35b60405162461bcd60e51b815260206004820152602660248201527f4f776e61626c653a206e6577206f776e657220697320746865207a65726f206160448201526564647265737360d01b6064820152608490fd5b34610565576000366003190112610565576015546040516001600160a01b039091168152602090f35b34610565576000366003190112610565576010546040516001600160a01b039091168152602090f35b346105655760c03660031901126105655761270160443561056a565b61270c60643561056a565b612714611f5d565b506001600160401b0360a43581811161056557612735903690600401611f81565b6001600160a01b0392907f00000000000000000000000000000000000000000000000000000000000000008416330361280e578201608083820312610565578235926127808461056a565b61278c60208201611f70565b92604082013591606081013591821161056557019180601f84011215610565576127ef956127c66127d9928560206127e897359101612de5565b9516946127d4858488613283565b61346b565b6127e1612f66565b5083612f7e565b9180613087565b6104e36040516127fe81610628565b6000815260405191829182610472565b60405162461bcd60e51b81526020600482015260086024820152670858dbdb9b995e1d60c21b6044820152606490fd5b3461056557600036600319011261056557602060405160018152f35b6040519061286782610628565b60008252565b9060405161287a8161060d565b604081935460ff8116151583526001600160781b0390818160081c16602085015260801c16910152565b156128ab57565b606460405162461bcd60e51b815260206004820152602060248201527f6d75737420696e697469616c697a65206265666f72652061646a757374696e676044820152fd5b634e487b7160e01b600052601160045260246000fd5b600160ff1b8114610a1e5760000390565b1561291d57565b60405162461bcd60e51b815260206004820152601860248201527f61646a7573746d656e74203e206d61782075696e7431323000000000000000006044820152606490fd5b9060018201809211610a1e57565b91908201809211610a1e57565b9190916001600160781b0380809416911601918211610a1e57565b1561299f57565b60405162461bcd60e51b815260206004820152602760248201527f64656372656173652067726561746572207468616e206469737472696275746f6044820152661c881d1bdd185b60ca1b6064820152608490fd5b156129fb57565b60405162461bcd60e51b815260206004820152602e60248201527f64656372656173652067726561746572207468616e206469737472696275746960448201526d1bdb949958dbdc99081d1bdd185b60921b6064820152608490fd5b91908203918211610a1e57565b6001600160781b039182169082160391908211610a1e57565b6001600160a01b038116600090815260026020908152604080832054600f909252909120909190612aad9061286d565b6001600160781b03806020816040850151169301511680831015600014612b0e5750505060005b80831115612aef57612ae9906106a793612a57565b90613d81565b808310612afb57505050565b6106a792612b0891612a57565b90613c9f565b612b2592612b1b91612a64565b1660175490612b58565b7f0000000000000000000000000000000000000000000000000000000000000000908115612b535704612ad4565b612b6b565b81810292918115918404141715610a1e57565b634e487b7160e01b600052601260045260246000fd5b8115612b53570490565b601f8111612b97575050565b60009060138252600080516020614eff833981519152906020601f850160051c83019410612be0575b601f0160051c01915b828110612bd557505050565b818155600101612bc9565b9092508290612bc0565b604051806000601354612bfc8161247f565b90600190818116908115612c5e5750600114612c1b575b505003902090565b60136000908152919250600080516020614eff8339815191525b838310612c485750505081013880612c13565b8054868401528594506020909201918101612c35565b60ff19168552505080151502820190503880612c13565b6010546106a7906001600160a01b037f0000000000000000000000000000000000000000000000000000000000000000811691612cb59083908316614585565b601054166040519163095ea7b360e01b602084015260248301526000604483015260448252612ce382610643565b6145c0565b6010546001600160a01b037f000000000000000000000000000000000000000000000000000000000000000081169291612d259084908316614585565b6010541681158015612d74575b6106a793612d42612ce39261451a565b60405163095ea7b360e01b60208201526001600160a01b03909116602482015260448101939093528260648101611c17565b50604051636eb1769f60e11b81523060048201526001600160a01b038416602482015292602084604481855afa9081156109b257612d42612ce3926106a796600091612dc7575b50159250509350612d32565b612ddf915060203d81116109ab5761099c8183610679565b38612dbb565b9291612df0826116e1565b91612dfe6040519384610679565b829481845260208094019160051b810192831161056557905b828210612e245750505050565b81358152908301908301612e17565b6001600160781b03808311612f0c576106a79216612ec5612e79612e698460018060a01b0316600052600f602052604060002090565b5460801c6001600160781b031690565b612ea8612e8461069a565b60018152916001600160781b03851660208401526001600160781b03166040830152565b6001600160a01b0384166000908152600f60205260409020613300565b6040516001600160781b039190911681526001600160a01b038216907fdb598eb8e0a3d3d5c2e02e4cab1ee8b65bb20e48fc7b42f4c76272de4cdd243490602090a2612a7d565b60405162461bcd60e51b815260206004820152602c60248201527f4469737472696275746f723a20746f74616c416d6f756e74203e20747970652860448201526b0ead2dce8626460525cdac2f60a31b6064820152608490fd5b604051612f7281610628565b60008152906000368137565b91906001600160781b0380911660018060a01b038416600052600f602052808260406000205460081c160361300e575b50612fb883613350565b168015610c23576001600160a01b0383166000908152600f602052604090206106a79190612ff990610bfa83610bf583546001600160781b039060801c1690565b613008610c0f82601254612970565b92612a7d565b6130189084612e33565b38612fae565b90816020910312610565575190565b63ffffffff90911681526001600160a01b039182166020820152918116604083015290911660608201526080810191909152600060a082015260e060c0820181905261048392910190610432565b6040513d6000823e3d90fd5b9260009063ffffffff80851680159182156131d0575b5050156131095760105491927f4df0c8349f8099121b0fc6178c4bf0f7c650a94a783f56ee216c6c99e7ca42a8926130e190839083906001600160a01b03166144e1565b6040805163ffffffff96909616865260208601929092526001600160a01b03908116951693a4565b60105481906020908590613125906001600160a01b0316610957565b61314d61313061285a565b6040516345560b5d60e11b81529586948594818d6004880161302d565b0381347f00000000000000000000000000000000000000000000000000000000000000006001600160a01b03165af19081156109b2577f4df0c8349f8099121b0fc6178c4bf0f7c650a94a783f56ee216c6c99e7ca42a893916131b2575b50926130e1565b6131ca915060203d81116109ab5761099c8183610679565b386131ab565b7f000000000000000000000000000000000000000000000000000000000000000016149050388061309d565b1561320357565b60405162461bcd60e51b815260206004820152600a602482015269085c9958dbdd995c995960b21b6044820152606490fd5b9161327561327b92610483947f19457468657265756d205369676e6564204d6573736167653a0a333200000000600052601c52603c6000209236916106d1565b9061488e565b91909161476e565b916040519160208301936001600160601b03199060601b168452603483015263ffffffff60e01b9060e01b166054820152603881526132c18161060d565b51902090565b80546effffffffffffffffffffffffffffff60801b191660809290921b6effffffffffffffffffffffffffffff60801b16919091179055565b815181546020840151610100600160801b0360089190911b1691151560ff166fffffffffffffffffffffffffffffffff19909116171781556106a7916001600160781b03906040015116906132c7565b6001600160a01b0381166000908152600f602052604090205460ff161561341b576001600160a01b0381166000908152600f602052604090206133929061286d565b9061340360406133f46133cd6133bd6133b560208801516001600160781b031690565b954290613531565b6001600160781b03809616612b58565b7f000000000000000000000000000000000000000000000000000000000000000090612b81565b9301516001600160781b031690565b16818110613412575050600090565b61048391612a57565b60405162461bcd60e51b815260206004820152602260248201527f4469737472696275746f723a20636c61696d206e6f7420696e697469616c697a604482015261195960f21b6064820152608490fd5b60185492600092915b82518410156134c25761348784846137eb565b51906000828210156134b3575060005260205260406000205b926000198114610a1e5760010192613474565b906040928252602052206134a0565b9150929150036134ce57565b60405162461bcd60e51b815260206004820152600d60248201526c34b73b30b634b210383937b7b360991b6044820152606490fd5b634e487b7160e01b600052603260045260246000fd5b8054821015611f455760005260206000200190600090565b61353a906139fd565b601991825492835b848080156135ad576000190195858503858111610a1e5783881015611f4557846000526001600160801b037f944998273e477b495144fb8794c914197f3ccb46be2900f4698fd0ef743c969480940154161061359f575050613542565b015460801c95945050505050565b50505050505050600090565b604051906135c6826105ed565b60006020838281520152565b906040516135df816105ed565b91546001600160801b038116835260801c6020830152565b90613600613a9b565b61360c8251151561376a565b6136146137aa565b600080805b845182101561371f576136aa9060209361365f61365861364c8761363d888c6137eb565b5101516001600160801b031690565b6001600160801b031690565b15156137ff565b61369161367d61366f868a6137eb565b51516001600160801b031690565b6001600160801b038080941691161161384b565b806136a08661363d878b6137eb565b9216911611613897565b60016136c76136bc61366f84886137eb565b9361363d84886137eb565b916136db6136d582886137eb565b516138f1565b604080516001600160801b0386811682528516602082015282917f5104929ca78e46ba25dca9557731ec873a03ae745d3ee194d262cc4820662a1c91a20190613619565b9190506106a792935061374263f48657006001600160801b038093161115613948565b167f0000000000000000000000000000000000000000000000000000000000000000146139a7565b1561377157565b60405162461bcd60e51b81526020600482015260116024820152701d1c985b98da195cc81c995c5d5a5c9959607a1b6044820152606490fd5b601954600080601955816137bc575050565b60198152600080516020614f1f833981519152918201915b8281106137e057505050565b8181556001016137d4565b8051821015611f455760209160051b010190565b1561380657565b60405162461bcd60e51b815260206004820152601c60248201527f7472616e63686520766573746564206672616374696f6e203d3d2030000000006044820152606490fd5b1561385257565b60405162461bcd60e51b815260206004820152601a60248201527f7472616e6368652074696d65206d75737420696e6372656173650000000000006044820152606490fd5b1561389e57565b60405162461bcd60e51b815260206004820152602560248201527f7472616e63686520766573746564206672616374696f6e206d75737420696e63604482015264726561736560d81b6064820152608490fd5b60195490600160401b821015610608576001820180601955821015611f455760196000526001600160801b038151169060206001600160801b031991015160801b161790600080516020614f1f8339815191520155565b1561394f57565b60405162461bcd60e51b815260206004820152602a60248201527f76657374696e6720656e6473206166746572203431303234343438303020284a604482015269616e203120323130302960b01b6064820152608490fd5b156139ae57565b60405162461bcd60e51b815260206004820152602160248201527f6c617374207472616e636865206d757374207665737420616c6c20746f6b656e6044820152607360f81b6064820152608490fd5b6014546001600160a01b0391908216908115613a2457829081806016541691161816041690565b505050600090565b3d15613a57573d90613a3d826106b6565b91613a4b6040519384610679565b82523d6000602084013e565b606090565b15613a6357565b60405162461bcd60e51b815260206004820152601060248201526f2a3930b739b332b9103330b4b632b21760811b6044820152606490fd5b6000546001600160a01b03163303613aaf57565b606460405162461bcd60e51b815260206004820152602060248201527f4f776e61626c653a2063616c6c6572206973206e6f7420746865206f776e65726044820152fd5b60405162461bcd60e51b81526020600482015260196024820152783234b9b0b13632b2103337b9103b37ba34b733903837bbb2b960391b6044820152606490fd5b15613b3b57565b60405162461bcd60e51b815260206004820152601e60248201527f45524332305065726d69743a20696e76616c6964207369676e617475726500006044820152606490fd5b90604051613b8d816105ed565b602081935463ffffffff81168352811c910152565b15613ba957565b60405162461bcd60e51b815260206004820152601960248201527f4552433230566f7465733a20667574757265206c6f6f6b7570000000000000006044820152606490fd5b15613bf557565b60405162461bcd60e51b815260206004820152601960248201527f4552433230566f7465733a20696e76616c6964206e6f6e6365000000000000006044820152606490fd5b15613c4157565b60405162461bcd60e51b815260206004820152603060248201527f4552433230566f7465733a20746f74616c20737570706c79207269736b73206f60448201526f766572666c6f77696e6720766f74657360801b6064820152608490fd5b906001600160a01b0382168015613d3c57600454828101809111610a1e57613d3893613d1d92613ccf8593600455565b6001600160a01b0382166000908152600260209081526040808320805487019055518581527fddf252ad1be2c89b69c2b068fc378daa952ba7f163c4a11628f55a4df523b3ef9190a3613ecf565b600454613d33906001600160e01b031015613c3a565b6142b5565b5050565b60405162461bcd60e51b815260206004820152601f60248201527f45524332303a206d696e7420746f20746865207a65726f2061646472657373006044820152606490fd5b6001600160a01b03811691908215613e295781816000613d389583613dbb613e249660018060a01b03166000526002602052604060002090565b54613dc882821015613e78565b03613de58460018060a01b03166000526002602052604060002090565b55613df38460045403600455565b6040518481527fddf252ad1be2c89b69c2b068fc378daa952ba7f163c4a11628f55a4df523b3ef90602090a3613f1a565b6143a5565b60405162461bcd60e51b815260206004820152602160248201527f45524332303a206275726e2066726f6d20746865207a65726f206164647265736044820152607360f81b6064820152608490fd5b15613e7f57565b60405162461bcd60e51b815260206004820152602260248201527f45524332303a206275726e20616d6f756e7420657863656564732062616c616e604482015261636560f01b6064820152608490fd5b600b6020527fdf7de25b7f1fd6d0b5205f0e18f1f35bd7b8d84cce336588d184533ce43a6f76546001600160a01b03918216600090815260409020546106a793929081169116613fd8565b6001600160a01b039081166000908152600b60205260408120549080527fdf7de25b7f1fd6d0b5205f0e18f1f35bd7b8d84cce336588d184533ce43a6f76546106a793929081169116613fd8565b6106a79160018060a01b03809216600092818452600b60205280604085205416809260026020527f3134e8a2e6d97e929a7e54011ea5485d7d196dd5f0ba4d4ef95803e8e3fc257f604087205496600b6020526040812094871694856001600160601b0360a01b82541617905580a45b6001600160a01b038083169392911680841415806141eb575b613ffc575b50505050565b8061406a575b508261400f575b80613ff6565b6001600160a01b03166000908152600c602052604090207fdec2bacdd2f05b59de34da9b523dff8be42e5e38e818c82fdb0bae774387a72491614051916143fe565b60408051928352602083019190915290a2388080614009565b80600052600c6020527fdec2bacdd2f05b59de34da9b523dff8be42e5e38e818c82fdb0bae774387a72460406000208054801591826000146141c8576140ae6106a9565b6000815260006020820152915b60208301516140da906001600160e01b03165b6001600160e01b031690565b926140e58985614ee4565b941590816141a5575b50156141435761411661412d9261410486614daf565b92600019019060005260206000200190565b9063ffffffff82549181199060201b169116179055565b604080519182526020820192909252a238614002565b506141a09061416761416261415743614e18565b65ffffffffffff1690565b614e7f565b9061419b61417486614daf565b61418b61417f6106a9565b63ffffffff9095168552565b6001600160e01b03166020840152565b61425b565b61412d565b5163ffffffff16905063ffffffff6141bf61415743614e18565b911614386140ee565b6141e56141e060001984018360005260206000200190565b613b80565b916140bb565b50821515613ff1565b600d5490600160401b821015610608576001820180600d55821015611f4557600d600052805160209182015190911b63ffffffff191663ffffffff91909116177fd7b6990105719101dabeb77144f2a3385c8033acd3af97e9423a695e81ad1eb590910155565b8054600160401b8110156106085761427891600182018155613519565b61429f57815160209283015190921b63ffffffff191663ffffffff92909216919091179055565b634e487b7160e01b600052600060045260246000fd5b600d5490918115918215614390576142cb6106a9565b60008152600060208201525b60208101516142f9906142f2906001600160e01b03166140ce565b9586614ef1565b9315908161436d575b5015614322576106a79061411661431885614daf565b91600019016144b7565b506106a761433561416261415743614e18565b61436861434185614daf565b61435861434c6106a9565b63ffffffff9094168452565b6001600160e01b03166020830152565b6141f4565b5163ffffffff16905063ffffffff61438761415743614e18565b91161438614302565b6143a06141e060001983016144b7565b6142d7565b600d54909181159182156143e9576143bb6106a9565b60008152600060208201525b60208101516142f9906143e2906001600160e01b03166140ce565b9586614ee4565b6143f96141e060001983016144b7565b6143c7565b90918154918215928360001461449a576144166106a9565b60008152600060208201525b60208101516144449061443d906001600160e01b03166140ce565b9687614ef1565b94159081614477575b5015614463576141166106a79261410486614daf565b506106a79061416761416261415743614e18565b5163ffffffff16905063ffffffff61449161415743614e18565b9116143861444d565b6144b26141e060001983018460005260206000200190565b614422565b600d6000527fd7b6990105719101dabeb77144f2a3385c8033acd3af97e9423a695e81ad1eb50190565b60405163a9059cbb60e01b60208201526001600160a01b03909216602483015260448201929092526106a791612ce38260648101611c17565b1561452157565b60405162461bcd60e51b815260206004820152603660248201527f5361666545524332303a20617070726f76652066726f6d206e6f6e2d7a65726f60448201527520746f206e6f6e2d7a65726f20616c6c6f77616e636560501b6064820152608490fd5b60405163095ea7b360e01b60208201526001600160a01b039092166024830152600060448084019190915282526106a79190612ce382610643565b60018060a01b03169061461f6040516145d8816105ed565b6020938482527f5361666545524332303a206c6f772d6c6576656c2063616c6c206661696c6564858301526000808587829751910182855af1614619613a2c565b916146b9565b805191821591848315614691575b50505090501561463a5750565b6084906040519062461bcd60e51b82526004820152602a60248201527f5361666545524332303a204552433230206f7065726174696f6e20646964206e6044820152691bdd081cdd58d8d9595960b21b6064820152fd5b9193818094500103126146b55782015190811515820361056257508038808461462d565b5080fd5b9192901561471b57508151156146cd575090565b3b156146d65790565b60405162461bcd60e51b815260206004820152601d60248201527f416464726573733a2063616c6c20746f206e6f6e2d636f6e74726163740000006044820152606490fd5b82519091501561472e5750805190602001fd5b60405162461bcd60e51b815290819061474a9060048301610472565b0390fd5b6005111561475857565b634e487b7160e01b600052602160045260246000fd5b6147778161474e565b8061477f5750565b6147888161474e565b600181036147d55760405162461bcd60e51b815260206004820152601860248201527f45434453413a20696e76616c6964207369676e617475726500000000000000006044820152606490fd5b6147de8161474e565b6002810361482b5760405162461bcd60e51b815260206004820152601f60248201527f45434453413a20696e76616c6964207369676e6174757265206c656e677468006044820152606490fd5b8061483760039261474e565b1461483e57565b60405162461bcd60e51b815260206004820152602260248201527f45434453413a20696e76616c6964207369676e6174757265202773272076616c604482015261756560f01b6064820152608490fd5b9060418151146000146148bc576148b8916020820151906060604084015193015160001a906148c6565b9091565b5050600090600290565b9291907f7fffffffffffffffffffffffffffffff5d576e7357a4501ddfe92f46681b20a0831161493c5791608094939160ff602094604051948552168484015260408301526060820152600093849182805260015afa156109b25781516001600160a01b03811615614936579190565b50600190565b50505050600090600390565b91610483939161327b936148c6565b307f00000000000000000000000000000000000000000000000000000000000000006001600160a01b03161480614a42575b156149b2577f000000000000000000000000000000000000000000000000000000000000000090565b60405160208101907f8b73c3c69bb8fe3d512ecc4cf759cc79239f7b179b0ffacaa9a75d522b39400f82527f000000000000000000000000000000000000000000000000000000000000000060408201527f000000000000000000000000000000000000000000000000000000000000000060608201524660808201523060a082015260a081526132c18161065e565b507f00000000000000000000000000000000000000000000000000000000000000004614614989565b604290614a76614957565b906040519161190160f01b8352600283015260228201522090565b60ff8114614acf5760ff811690601f8211614abd5760405191614ab3836105ed565b8252602082015290565b604051632cd44ac360e21b8152600490fd5b50604051600754816000614ae28361247f565b808352602093600190818116908115614b6b5750600114614b0c575b505061048392500382610679565b9093915060076000527fa66cc928b5edb82af9bd49922954155ab7b0942694bea4ce44661d9a8736c688936000915b818310614b5357505061048393508201013880614afe565b85548784018501529485019486945091830191614b3b565b91505061048394925060ff191682840152151560051b8201013880614afe565b60ff8114614bad5760ff811690601f8211614abd5760405191614ab3836105ed565b50604051600854816000614bc08361247f565b808352602093600190818116908115614b6b5750600114614be957505061048392500382610679565b9093915060086000527ff3f7a9fe364faab93b216da50a3214154f22a0a2b415b23a84c8169e8b636ee3936000915b818310614c3057505061048393508201013880614afe565b85548784018501529485019486945091830191614c18565b90808216911860011c8101809111610a1e5790565b8015614d975780614d30614d29614d1f614d15614d0b614d01614cf7614ced60016104839a6000908b60801c80614d8b575b508060401c80614d7e575b508060201c80614d71575b508060101c80614d64575b508060081c80614d57575b508060041c80614d4a575b508060021c80614d3d575b50821c614d36575b811c1b614ce6818b612b81565b0160011c90565b614ce6818a612b81565b614ce68189612b81565b614ce68188612b81565b614ce68187612b81565b614ce68186612b81565b614ce68185612b81565b8092612b81565b90614d9d565b8101614cd9565b6002915091019038614cd1565b6004915091019038614cc6565b6008915091019038614cbb565b6010915091019038614cb0565b6020915091019038614ca5565b6040915091019038614c9a565b91505060809038614c8f565b50600090565b9080821015614daa575090565b905090565b6001600160e01b0390818111614dc3571690565b60405162461bcd60e51b815260206004820152602760248201527f53616665436173743a2076616c756520646f65736e27742066697420696e20326044820152663234206269747360c81b6064820152608490fd5b65ffffffffffff90818111614e2b571690565b60405162461bcd60e51b815260206004820152602660248201527f53616665436173743a2076616c756520646f65736e27742066697420696e203460448201526538206269747360d01b6064820152608490fd5b63ffffffff90818111614e90571690565b60405162461bcd60e51b815260206004820152602660248201527f53616665436173743a2076616c756520646f65736e27742066697420696e203360448201526532206269747360d01b6064820152608490fd5b908103908111610a1e5790565b908101809111610a1e579056fe66de8ffda797e3de9c05e8fc57b3bf0ec28a930d40b0d285d93c06501cf6a090944998273e477b495144fb8794c914197f3ccb46be2900f4698fd0ef743c9695a2646970667358221220cc83602c150b8293b63fadd947e6a790d24cbd8a0e5313d96403a87ee582cc3364736f6c634300081500335361666545524332303a206c6f772d6c6576656c2063616c6c206661696c656466de8ffda797e3de9c05e8fc57b3bf0ec28a930d40b0d285d93c06501cf6a090dccb8d94a5bbd764ed844afa20f2581be18d3fa84b36855e86a8f0c9316cba7d6c339c0bee516a4df5d7074ba7a974856d609f83666e915aa4a0f90e06989dc5f652222313e28459528d920b65115c16c04f3efc82aaedc97be59f3f377c0d3f","linkReferences":{}},"methodIdentifiers":{"CLOCK_MODE()":"4bf5d7e9","DOMAIN_SEPARATOR()":"3644e515","NAME()":"a3f4df7e","VERSION()":"ffa1ad74","adjust(address,int256)":"75aa9bc6","allowance(address,address)":"dd62ed3e","approve(address,uint256)":"095ea7b3","balanceOf(address)":"70a08231","checkpoints(address,uint32)":"f1127ed8","claimByMerkleProof(address,uint256,bytes32[])":"2538ab26","claimBySignature(address,uint32,address,uint32,uint256,bytes,bytes32[])":"dad82686","claimed()":"e834a834","clock()":"91ddadf4","connext()":"de4b0548","decimals()":"313ce567","decreaseAllowance(address,uint256)":"a457c2d7","delegate(address)":"5c19a95c","delegateBySig(address,uint256,uint256,uint8,bytes32,bytes32)":"c3cda520","delegates(address)":"587cde1e","distancePerSecond()":"c6e8d982","domain()":"c2fb26a6","eip712Domain()":"84b0196e","getClaimableAmount(address,bytes)":"13c67ce5","getDistributionRecord(address)":"e85858d9","getFairDelayTime(address)":"a4ef1f78","getFractionDenominator()":"0f56b96c","getMerkleRoot()":"49590657","getPastTotalSupply(uint256)":"8e539e8c","getPastVotes(address,uint256)":"3a46b1a8","getSweepRecipient()":"c78d5985","getTotalVotes()":"9a0e7d66","getTranche(uint256)":"d972e8ad","getTranches()":"dc2f511b","getVestedFraction(address,uint256,bytes)":"d3d0ec89","getVoteFactor(address)":"bb22dccb","getVotes(address)":"9ab24eb0","increaseAllowance(address,uint256)":"39509351","initializeDistributionRecord(uint32,address,uint256,bytes32[])":"dfb3beec","maxDelayTime()":"f56c8547","name()":"06fdde03","nonces(address)":"7ecebe00","numCheckpoints(address)":"6fcfff45","owner()":"8da5cb5b","permit(address,address,uint256,uint256,uint8,bytes32,bytes32)":"d505accf","randomValue()":"276801ec","renounceOwnership()":"715018a6","setMerkleRoot(bytes32)":"7cb64759","setSweepRecipient(address)":"de032f58","setToken(address)":"144fa6d7","setTotal(uint256)":"1f8d1d50","setTranches((uint128,uint128)[])":"9691cab5","setUri(string)":"9b642de1","setVoteFactor(uint256)":"c9557255","sweepNative()":"ab803a76","sweepNative(uint256)":"3cf3a025","sweepToken(address)":"1be19560","sweepToken(address,uint256)":"e90a182f","symbol()":"95d89b41","token()":"fc0c546a","total()":"2ddbd13a","totalSupply()":"18160ddd","transfer(address,uint256)":"a9059cbb","transferFrom(address,address,uint256)":"23b872dd","transferOwnership(address)":"f2fde38b","uri()":"eac989f8","xReceive(bytes32,uint256,address,address,uint32,bytes)":"fd614f41"},"id":1}