{"abi":[{"type":"constructor","inputs":[{"name":"_maxDelayTime","type":"uint160","internalType":"uint160"},{"name":"salt","type":"uint160","internalType":"uint160"}],"stateMutability":"nonpayable"},{"type":"function","name":"distancePerSecond","inputs":[],"outputs":[{"name":"","type":"uint160","internalType":"uint160"}],"stateMutability":"view"},{"type":"function","name":"getFairDelayTime","inputs":[{"name":"user","type":"address","internalType":"address"}],"outputs":[{"name":"","type":"uint256","internalType":"uint256"}],"stateMutability":"view"},{"type":"function","name":"maxDelayTime","inputs":[],"outputs":[{"name":"","type":"uint160","internalType":"uint160"}],"stateMutability":"view"},{"type":"function","name":"randomValue","inputs":[],"outputs":[{"name":"","type":"uint160","internalType":"uint160"}],"stateMutability":"view"},{"type":"event","name":"SetDelay","inputs":[{"name":"maxDelayTime","type":"uint160","indexed":false,"internalType":"uint160"}],"anonymous":false}],"bytecode":{"object":"0x6080346100f757601f61034c38819003918201601f19168301916001600160401b038311848410176100fc5780849260409485528339810103126100f757610052602061004b83610112565b9201610112565b600180546001600160a01b039384166001600160a01b03199182168117909255909283156000816100d857506100c2578360008051602061032c83398151915292826100b396602094045b16906000541617600055604051908152a1610126565b60405161016690816101c68239f35b634e487b7160e01b600052601260045260246000fd5b6100b39591509260209260008051602061032c8339815191529461009d565b600080fd5b634e487b7160e01b600052604160045260246000fd5b51906001600160a01b03821682036100f757565b6000546001600160a01b0391908216156101c1578181161561017c5760001943014381116101665782904016181660018060a01b03196002541617600255565b634e487b7160e01b600052601160045260246000fd5b60405162461bcd60e51b815260206004820152601860248201527f492064656d616e64206d6f72652072616e646f6d6e65737300000000000000006044820152606490fd5b505056fe608080604052600436101561001357600080fd5b600090813560e01c908163276801ec146100d857508063a4ef1f781461009f578063c6e8d982146100785763f56c85471461004d57600080fd5b346100755780600319360112610075576001546040516001600160a01b039091168152602090f35b80fd5b5034610075578060031936011261007557546040516001600160a01b039091168152602090f35b503461007557602036600319011261007557600435906001600160a01b03821682036100755760206100d083610101565b604051908152f35b9050346100fd57816003193601126100fd576002546001600160a01b03168152602090f35b5080fd5b6000546001600160a01b039190821690811561012857829081806002541691161816041690565b50505060009056fea2646970667358221220a260cf69f4be522a2af081de8d478892e0375fac2a96ac8221f1bef8d72f3f8164736f6c63430008150033dccb8d94a5bbd764ed844afa20f2581be18d3fa84b36855e86a8f0c9316cba7d","linkReferences":{}},"methodIdentifiers":{"distancePerSecond()":"c6e8d982","getFairDelayTime(address)":"a4ef1f78","maxDelayTime()":"f56c8547","randomValue()":"276801ec"},"id":44}