{"abi":[{"type":"constructor","inputs":[{"name":"_feeBips","type":"uint256","internalType":"uint256"},{"name":"_feeRecipient","type":"address","internalType":"address payable"}],"stateMutability":"nonpayable"},{"type":"function","name":"BASE_CURRENCY_DECIMALS","inputs":[],"outputs":[{"name":"","type":"uint256","internalType":"uint256"}],"stateMutability":"view"},{"type":"function","name":"VERSION","inputs":[],"outputs":[{"name":"","type":"string","internalType":"string"}],"stateMutability":"view"},{"type":"function","name":"baseCurrency","inputs":[],"outputs":[{"name":"","type":"string","internalType":"string"}],"stateMutability":"view"},{"type":"function","name":"buyWithNative","inputs":[{"name":"data","type":"bytes","internalType":"bytes"},{"name":"proof","type":"bytes32[]","internalType":"bytes32[]"}],"outputs":[],"stateMutability":"payable"},{"type":"function","name":"buyWithToken","inputs":[{"name":"token","type":"address","internalType":"contract IERC20Upgradeable"},{"name":"quantity","type":"uint256","internalType":"uint256"},{"name":"data","type":"bytes","internalType":"bytes"},{"name":"proof","type":"bytes32[]","internalType":"bytes32[]"}],"outputs":[],"stateMutability":"nonpayable"},{"type":"function","name":"buyerTotal","inputs":[{"name":"user","type":"address","internalType":"address"}],"outputs":[{"name":"","type":"uint256","internalType":"uint256"}],"stateMutability":"view"},{"type":"function","name":"config","inputs":[],"outputs":[{"name":"recipient","type":"address","internalType":"address payable"},{"name":"merkleRoot","type":"bytes32","internalType":"bytes32"},{"name":"saleMaximum","type":"uint256","internalType":"uint256"},{"name":"userMaximum","type":"uint256","internalType":"uint256"},{"name":"purchaseMinimum","type":"uint256","internalType":"uint256"},{"name":"startTime","type":"uint256","internalType":"uint256"},{"name":"endTime","type":"uint256","internalType":"uint256"},{"name":"maxQueueTime","type":"uint256","internalType":"uint256"},{"name":"URI","type":"string","internalType":"string"}],"stateMutability":"view"},{"type":"function","name":"generatePseudorandomValue","inputs":[{"name":"merkleRoot","type":"bytes32","internalType":"bytes32"}],"outputs":[{"name":"","type":"uint160","internalType":"uint160"}],"stateMutability":"view"},{"type":"function","name":"getFairQueueTime","inputs":[{"name":"buyer","type":"address","internalType":"address"}],"outputs":[{"name":"","type":"uint256","internalType":"uint256"}],"stateMutability":"view"},{"type":"function","name":"getOraclePrice","inputs":[{"name":"oracle","type":"address","internalType":"contract IOracleOrL2OracleWithSequencerCheck"}],"outputs":[{"name":"","type":"uint256","internalType":"uint256"}],"stateMutability":"view"},{"type":"function","name":"getPaymentToken","inputs":[{"name":"token","type":"address","internalType":"contract IERC20Upgradeable"}],"outputs":[{"name":"","type":"tuple","internalType":"struct PaymentTokenInfo","components":[{"name":"oracle","type":"address","internalType":"contract IOracleOrL2OracleWithSequencerCheck"},{"name":"decimals","type":"uint8","internalType":"uint8"}]}],"stateMutability":"view"},{"type":"function","name":"initialize","inputs":[{"name":"_owner","type":"address","internalType":"address"},{"name":"_config","type":"tuple","internalType":"struct Config","components":[{"name":"recipient","type":"address","internalType":"address payable"},{"name":"merkleRoot","type":"bytes32","internalType":"bytes32"},{"name":"saleMaximum","type":"uint256","internalType":"uint256"},{"name":"userMaximum","type":"uint256","internalType":"uint256"},{"name":"purchaseMinimum","type":"uint256","internalType":"uint256"},{"name":"startTime","type":"uint256","internalType":"uint256"},{"name":"endTime","type":"uint256","internalType":"uint256"},{"name":"maxQueueTime","type":"uint256","internalType":"uint256"},{"name":"URI","type":"string","internalType":"string"}]},{"name":"_baseCurrency","type":"string","internalType":"string"},{"name":"_nativePaymentsEnabled","type":"bool","internalType":"bool"},{"name":"_nativeTokenPriceOracle","type":"address","internalType":"contract IOracleOrL2OracleWithSequencerCheck"},{"name":"tokens","type":"address[]","internalType":"contract IERC20Upgradeable[]"},{"name":"oracles","type":"address[]","internalType":"contract IOracleOrL2OracleWithSequencerCheck[]"},{"name":"decimals","type":"uint8[]","internalType":"uint8[]"}],"outputs":[],"stateMutability":"nonpayable"},{"type":"function","name":"isOpen","inputs":[],"outputs":[{"name":"","type":"bool","internalType":"bool"}],"stateMutability":"view"},{"type":"function","name":"isOver","inputs":[],"outputs":[{"name":"","type":"bool","internalType":"bool"}],"stateMutability":"view"},{"type":"function","name":"isValidMerkleProof","inputs":[{"name":"root","type":"bytes32","internalType":"bytes32"},{"name":"account","type":"address","internalType":"address"},{"name":"data","type":"bytes","internalType":"bytes"},{"name":"proof","type":"bytes32[]","internalType":"bytes32[]"}],"outputs":[{"name":"","type":"bool","internalType":"bool"}],"stateMutability":"pure"},{"type":"function","name":"metrics","inputs":[],"outputs":[{"name":"purchaseCount","type":"uint256","internalType":"uint256"},{"name":"buyerCount","type":"uint256","internalType":"uint256"},{"name":"purchaseTotal","type":"uint256","internalType":"uint256"}],"stateMutability":"view"},{"type":"function","name":"nativeTokenPriceOracle","inputs":[],"outputs":[{"name":"","type":"address","internalType":"contract IOracleOrL2OracleWithSequencerCheck"}],"stateMutability":"view"},{"type":"function","name":"owner","inputs":[],"outputs":[{"name":"","type":"address","internalType":"address"}],"stateMutability":"view"},{"type":"function","name":"paymentTokens","inputs":[{"name":"","type":"address","internalType":"contract IERC20Upgradeable"}],"outputs":[{"name":"oracle","type":"address","internalType":"contract IOracleOrL2OracleWithSequencerCheck"},{"name":"decimals","type":"uint8","internalType":"uint8"}],"stateMutability":"view"},{"type":"function","name":"payments","inputs":[{"name":"dest","type":"address","internalType":"address"}],"outputs":[{"name":"","type":"uint256","internalType":"uint256"}],"stateMutability":"view"},{"type":"function","name":"registerDistributor","inputs":[{"name":"_distributor","type":"address","internalType":"address"}],"outputs":[],"stateMutability":"nonpayable"},{"type":"function","name":"renounceOwnership","inputs":[],"outputs":[],"stateMutability":"nonpayable"},{"type":"function","name":"sweepNative","inputs":[],"outputs":[],"stateMutability":"nonpayable"},{"type":"function","name":"sweepToken","inputs":[{"name":"token","type":"address","internalType":"contract IERC20Upgradeable"}],"outputs":[],"stateMutability":"nonpayable"},{"type":"function","name":"tokensToBaseCurrency","inputs":[{"name":"tokenQuantity","type":"uint256","internalType":"uint256"},{"name":"tokenDecimals","type":"uint256","internalType":"uint256"},{"name":"oracle","type":"address","internalType":"contract IOracleOrL2OracleWithSequencerCheck"}],"outputs":[{"name":"value","type":"uint256","internalType":"uint256"}],"stateMutability":"view"},{"type":"function","name":"total","inputs":[],"outputs":[{"name":"","type":"uint256","internalType":"uint256"}],"stateMutability":"view"},{"type":"function","name":"transferOwnership","inputs":[{"name":"newOwner","type":"address","internalType":"address"}],"outputs":[],"stateMutability":"nonpayable"},{"type":"function","name":"update","inputs":[{"name":"_config","type":"tuple","internalType":"struct Config","components":[{"name":"recipient","type":"address","internalType":"address payable"},{"name":"merkleRoot","type":"bytes32","internalType":"bytes32"},{"name":"saleMaximum","type":"uint256","internalType":"uint256"},{"name":"userMaximum","type":"uint256","internalType":"uint256"},{"name":"purchaseMinimum","type":"uint256","internalType":"uint256"},{"name":"startTime","type":"uint256","internalType":"uint256"},{"name":"endTime","type":"uint256","internalType":"uint256"},{"name":"maxQueueTime","type":"uint256","internalType":"uint256"},{"name":"URI","type":"string","internalType":"string"}]}],"outputs":[],"stateMutability":"nonpayable"},{"type":"function","name":"withdrawPayments","inputs":[{"name":"payee","type":"address","internalType":"address payable"}],"outputs":[],"stateMutability":"nonpayable"},{"type":"event","name":"Buy","inputs":[{"name":"buyer","type":"address","indexed":true,"internalType":"address"},{"name":"token","type":"address","indexed":true,"internalType":"address"},{"name":"baseCurrencyValue","type":"uint256","indexed":false,"internalType":"uint256"},{"name":"tokenValue","type":"uint256","indexed":false,"internalType":"uint256"},{"name":"tokenFee","type":"uint256","indexed":false,"internalType":"uint256"}],"anonymous":false},{"type":"event","name":"ImplementationConstructor","inputs":[{"name":"feeRecipient","type":"address","indexed":true,"internalType":"address payable"},{"name":"feeBips","type":"uint256","indexed":false,"internalType":"uint256"}],"anonymous":false},{"type":"event","name":"Initialize","inputs":[{"name":"config","type":"tuple","indexed":false,"internalType":"struct Config","components":[{"name":"recipient","type":"address","internalType":"address payable"},{"name":"merkleRoot","type":"bytes32","internalType":"bytes32"},{"name":"saleMaximum","type":"uint256","internalType":"uint256"},{"name":"userMaximum","type":"uint256","internalType":"uint256"},{"name":"purchaseMinimum","type":"uint256","internalType":"uint256"},{"name":"startTime","type":"uint256","internalType":"uint256"},{"name":"endTime","type":"uint256","internalType":"uint256"},{"name":"maxQueueTime","type":"uint256","internalType":"uint256"},{"name":"URI","type":"string","internalType":"string"}]},{"name":"baseCurrency","type":"string","indexed":false,"internalType":"string"},{"name":"nativeOracle","type":"address","indexed":false,"internalType":"contract IOracleOrL2OracleWithSequencerCheck"},{"name":"nativePaymentsEnabled","type":"bool","indexed":false,"internalType":"bool"}],"anonymous":false},{"type":"event","name":"Initialized","inputs":[{"name":"version","type":"uint8","indexed":false,"internalType":"uint8"}],"anonymous":false},{"type":"event","name":"OwnershipTransferred","inputs":[{"name":"previousOwner","type":"address","indexed":true,"internalType":"address"},{"name":"newOwner","type":"address","indexed":true,"internalType":"address"}],"anonymous":false},{"type":"event","name":"RegisterDistributor","inputs":[{"name":"distributor","type":"address","indexed":false,"internalType":"address"}],"anonymous":false},{"type":"event","name":"SetPaymentTokenInfo","inputs":[{"name":"token","type":"address","indexed":false,"internalType":"contract IERC20Upgradeable"},{"name":"paymentTokenInfo","type":"tuple","indexed":false,"internalType":"struct PaymentTokenInfo","components":[{"name":"oracle","type":"address","internalType":"contract IOracleOrL2OracleWithSequencerCheck"},{"name":"decimals","type":"uint8","internalType":"uint8"}]}],"anonymous":false},{"type":"event","name":"SweepNative","inputs":[{"name":"amount","type":"uint256","indexed":false,"internalType":"uint256"}],"anonymous":false},{"type":"event","name":"SweepToken","inputs":[{"name":"token","type":"address","indexed":true,"internalType":"address"},{"name":"amount","type":"uint256","indexed":false,"internalType":"uint256"}],"anonymous":false},{"type":"event","name":"Update","inputs":[{"name":"config","type":"tuple","indexed":false,"internalType":"struct Config","components":[{"name":"recipient","type":"address","internalType":"address payable"},{"name":"merkleRoot","type":"bytes32","internalType":"bytes32"},{"name":"saleMaximum","type":"uint256","internalType":"uint256"},{"name":"userMaximum","type":"uint256","internalType":"uint256"},{"name":"purchaseMinimum","type":"uint256","internalType":"uint256"},{"name":"startTime","type":"uint256","internalType":"uint256"},{"name":"endTime","type":"uint256","internalType":"uint256"},{"name":"maxQueueTime","type":"uint256","internalType":"uint256"},{"name":"URI","type":"string","internalType":"string"}]}],"anonymous":false}],"bytecode":{"object":"0x60c034620001b05762003be990601f38839003908101601f19168201906001600160401b03821183831017620001b55780839160409586948552833981010312620001b05780516020909101516001600160a01b0381169190828103620001b05760005460ff8160081c166200015c5760ff8082161062000121575b5081620000e3575b7fdac4fd790edde0c2ab54e0618fa7d2d818b20fe5504b25328f64c7246121e0eb9160209160a052806080528451908152a251613a1d9081620001cc82396080518181816103b3015261072e015260a05181818161043201526107a40152f35b826200008357835162461bcd60e51b81526020600482015260116024820152700666565526563697069656e74203d3d203607c1b6044820152606490fd5b60ff90811916176000557f7f26b83ff96e1f2b6a682f133852f6798a09c465da95921460cefb38474024986020855160ff8152a1386200007b565b845162461bcd60e51b815260206004820152602760248201527f496e697469616c697a61626c653a20636f6e747261637420697320696e697469604482015266616c697a696e6760c81b6064820152608490fd5b600080fd5b634e487b7160e01b600052604160045260246000fdfe6080604052600436101561001257600080fd5b6000803560e01c806301c3753f146120505780631be1956014611f465780632ddbd13a14611f28578063311d5c6214611f0c57806331ab051814611e5457806331b3eb9414611de857806347535d7b14611da25780634cc233a814611d69578063621aa92514611d38578063669ad0921461102f578063715018a614610fd157806375f620ac14610fad57806379502c5514610e94578063826b90f214610b4e5780638da5cb5b14610b255780638dbc834314610ab157806392a85fde146109e1578063a04748f6146109af578063a9e0c9c31461098b578063ab803a76146108f3578063b4bd9e27146108ba578063c3b88b4214610872578063cc8f91821461062e578063e2982c2114610596578063e49248d514610553578063e6064de31461052a578063ea51764514610237578063f2fde38b146101a65763ffa1ad741461015c57600080fd5b346101a357806003193601126101a35761019f60405161017b8161223e565b600381526219171960e91b602082015260405191829160208352602083019061227a565b0390f35b80fd5b50346101a35760203660031901126101a3576101c06120cc565b6101c8613018565b6001600160a01b038116156101e3576101e090613070565b80f35b60405162461bcd60e51b815260206004820152602660248201527f4f776e61626c653a206e6577206f776e657220697320746865207a65726f206160448201526564647265737360d01b6064820152608490fd5b50346101a35760803660031901126101a3576102516120cc565b6001600160401b03602435604435828111610526576102749036906004016120e2565b91909260643590811161052257836102918492369060040161210f565b919061029e3233146129d3565b60cf54908161049d57505050506102b59015612ae6565b6102fa6102eb60d3546102c9814211612b3c565b6102d660d4544210612b88565b6102e560d95460d05411612bc5565b42612917565b6102f433612943565b10612c0a565b60018060a01b03908185169485875260cd602052604087206040519061031f8261223e565b5490602060ff8684169384845260a01c1691015215610460576103af7ef93dbdb72854b6b6fb35433086556f2635fc83c37080c667496fecfa650fb49461036b60026001541415612c4a565b600260015587895260cd6020526103a860408a2060206040519161038e8361223e565b549160ff8984169384835260a01c169182910152866129a9565b9687612c96565b86927f000000000000000000000000000000000000000000000000000000000000000080610416575b50506103f2906103e88484612917565b9030903390613173565b604080519485526020850191909152830152339180606081015b0390a36001805580f35b6103f29291945061271061042d6104599286612996565b0480957f0000000000000000000000000000000000000000000000000000000000000000163384613173565b90386103d8565b60405162461bcd60e51b815260206004820152601560248201527434b73b30b634b2103830bcb6b2b73a103a37b5b2b760591b6044820152606490fd5b6020936104c19160405196879586956301c3753f60e01b8752339060048801612a2e565b0381305afa908115610517576104e49160019188916104e9575b50151514612a9a565b6102b5565b61050a915060203d8111610510575b6105028183612259565b810190612a16565b386104db565b503d6104f8565b6040513d88823e3d90fd5b8580fd5b8480fd5b50346101a357806003193601126101a35760cc546040516001600160a01b039091168152602090f35b50346101a35760603660031901126101a3576044356001600160a01b0381168103610591576105896020916024356004356129a9565b604051908152f35b600080fd5b50346101a357602090816003193601126101a3576105b26120cc565b6097546040516371d4ed8d60e11b81526001600160a01b03928316600482015291849183916024918391165afa91821561062257916105f5575b50604051908152f35b90508181813d831161061b575b61060c8183612259565b810103126105915751386105ec565b503d610602565b604051903d90823e3d90fd5b5060403660031901126101a3576001600160401b0360043581811161086e5761065b9036906004016120e2565b9160243590811161086a57816106768492369060040161210f565b91906106833233146129d3565b60cf549081610814575050505061069a9015612ae6565b6106ae6102eb60d3546102c9814211612b3c565b60cc5460ff8160a01c16156107cf5761040c7ef93dbdb72854b6b6fb35433086556f2635fc83c37080c667496fecfa650fb49161072a86956106f560026001541415612c4a565b60026001556001600160a01b0392670de0b6b3a7640000906107229061071c90861661277f565b34612996565b049586612c96565b84907f000000000000000000000000000000000000000000000000000000000000000080610788575b5061076c9060ce54166107668334612917565b90613119565b6040805194855234602086015284015233929081906060820190565b61076c91925061079b6127109134612996565b04916107c983827f000000000000000000000000000000000000000000000000000000000000000016613119565b90610753565b60405162461bcd60e51b815260206004820152601860248201527f6e6174697665207061796d656e74732064697361626c656400000000000000006044820152606490fd5b6020936108389160405196879586956301c3753f60e01b8752339060048801612a2e565b0381305afa90811561085f5761085a9160019186916104e95750151514612a9a565b61069a565b6040513d86823e3d90fd5b8380fd5b8280fd5b50346101a35760203660031901126101a3576040906001600160a01b039060ff9083908361089e6120cc565b16815260cd60205220548351928116835260a01c166020820152f35b50346101a357806003193601126101a35760d45442108015906108e5575b6020906040519015158152f35b5060d95460d05411156108d8565b50346101a357806003193601126101a35747818080808460018060a01b0360ce54165af161091f612ec9565b50156109535760207f3b381fdfc0e2729a70e8b26ae2397e9014f703a8235b557f5581c4ed47280fd291604051908152a180f35b60405162461bcd60e51b815260206004820152601060248201526f2a3930b739b332b9103330b4b632b21760811b6044820152606490fd5b50346101a35760203660031901126101a35760206105896109aa6120cc565b612943565b50346101a357806003193601126101a35760d75460d85460d95460408051938452602084019290925290820152606090f35b50346101a357806003193601126101a35760405160cb54600082610a048361213f565b91828252602093600190858282169182600014610a91575050600114610a46575b50610a3292500383612259565b61019f60405192828493845283019061227a565b84915060cb6000526000805160206139a8833981519152906000915b858310610a79575050610a32935082010185610a25565b80548389018501528794508693909201918101610a62565b60ff191685820152610a3295151560051b8501019250879150610a259050565b50346101a35760203660031901126101a35760409060ff82610ad16120cc565b928060208351610ae08161223e565b828152015260018060a01b03809416815260cd6020522091816020855194610b078661223e565b5492831694858152019160a01c168152835192835251166020820152f35b50346101a357806003193601126101a3576065546040516001600160a01b039091168152602090f35b50346101a3576003199060203683018113610e90576004356001600160401b0380821161086a5781600401946101208336039182011261052657610b906122ba565b60db546001600160a01b039491908516610e5c575b5060a481013563f4865700610bbc818311156123e0565b610bcd60c48401359182111561242c565b60e483013591610be262093a80841115612478565b610bf787610bef8c6124c3565b1615156124d7565b604484013599610c088b1515612523565b6064850135610c18811515612562565b610c248c8211156125a1565b610c7a610c5d608488013593610c3c848611156125ed565b610c5087610c4a8a89612639565b1061265c565b610c58613018565b6124c3565b60018060a01b03166001600160601b0360a01b60ce54161760ce55565b60249b8c87013560cf5560d05560d15560d25560d35560d45560d555610104810135916022190182121561052257016004810135918211610526578136038682011361052657610ccb60d65461213f565b601f8111610e0c575b508490601f8311600114610d6e579185968192610d5b9695947ff19e3240beb82d0dfa0a35ed50201f0ac38ea92b9b29450527293aa8ccd0979b9893610d61575b5050508160011b916000199060031b1c19161760d6555b610d3760cf54612924565b166001600160601b0360a01b60db54161760db5560405191818392835282016126d5565b0390a180f35b0101359050388080610d15565b60d68652956000805160206139c883398151915291601f198416875b818110610df3575097849260019492610d5b9897967ff19e3240beb82d0dfa0a35ed50201f0ac38ea92b9b29450527293aa8ccd0979b9a9b10610dd7575b50505050811b0160d655610d2c565b60001960f88660031b161c199201013516905538808080610dc8565b9193876001819286888e01013581550195019201610d8a565b60d686526000805160206139c8833981519152601f840160051c810191868510610e52575b601f0160051c01905b818110610e475750610cd4565b868155600101610e3a565b9091508190610e31565b610e6b60c0820151421061233c565b60a0810151421115610ba5576040610e8a910151604483013514612388565b38610ba5565b5080fd5b50346101a357806003193601126101a35760018060a01b0360ce541660cf5460d05460d1549260d2549060d35460d45460d554916040519460009860d65497610edc8961213f565b808952602099600190818116908115610f8f5750600114610f47575b5050610f0b8861019f9a9b9c0389612259565b6040519a8b9a610120988c528b015260408a01526060890152608088015260a087015260c086015260e08501528061010085015283019061227a565b819c5060d66000526000805160206139c883398151915260009d8e5b10610f7a57505050998701880199610f0b88610ef8565b80548b8f018d01529c8b019c8101828e610f63565b60ff19168b8d01525050151560051b880189019a50610f0b88610ef8565b50346101a35760203660031901126101a3576020610589610fcc6120cc565b61277f565b50346101a357806003193601126101a357610fea613018565b606580546001600160a01b031981169091556000906001600160a01b03167f8be0079c531659141344cd1fd0a4f28419497f9722a3daafe3b4186f6b6457e08280a380f35b50346101a35760031961010036820112610e905761104b6120cc565b906001600160401b036024351161086e576101209060243536030112610e90576044356001600160401b03811161086e5761108a9036906004016120e2565b606492919235801515810361052657608435916001600160a01b03831683036105915760a4356001600160401b038111611d34576110cc90369060040161210f565b9260c4356001600160401b038111611d30576110ec90369060040161210f565b90916001600160401b0360e43511611d2c5761110d3660e43560040161210f565b9790958b549a60ff8c60081c16159b8c809d611d1f575b8015611d08575b15611cac5760ff8e61123c928f600184198316178355611c9b575b5061114f6122ba565b60db546001600160a01b0316611c65575b5061118963f486570061117b8160a4602435013511156123e0565b60c46024350135111561242c565b61119e62093a8060e460243501351115612478565b6111b76001600160a01b03610bef6004602435016124c3565b6111c8604460243501351515612523565b6111d9606460243501351515612562565b6111f1604460243501356064602435013511156125a1565b611209606460243501356084602435013511156125ed565b61122960c46024350135610c4a60e4602435013560a46024350135612639565b5460081c16611237816130b9565b6130b9565b604051806106708101106001600160401b0361067083011117611c51578d906106706133388239806106708101039082f08015611b5d57609780546001600160a01b031981166001600160a01b03909316928317909155821617803b15610e905781809160046040518094819363204a7f0760e21b83525af18015611c4657611c2e575b5050848903611be957898903611ba4576001600160a01b03831615611b6a5760405163313ce56760e01b81528d6020826004816001600160a01b0389165afa8015611b5d5760089260ff9291611b3e575b501603611af957611329610c5d6024356004016124c3565b602480359081013560cf55604481013560d055606481013560d155608481013560d25560a481013560d35560c481013560d45560e481013560d55561010481013590360360221901811215611af5576001600160401b0360048260243501013511611af55760248035820160048101353603910113611af5578d6113ae60d65461213f565b90601f8211611a81575b9050806001601f60243585016004013511146119e557906004836024350101356119d4575b5060048260243501013560011b9160046000199160243501013560031b1c19161760d6555b6001600160401b0382116119c0578c829161141e60cb5461213f565b601f811161194b575b5081601f84116001146118d957926118ce575b50508160011b916000199060031b1c19161760cb555b60cc80546001600160a81b0319166001600160a01b0383161783151560a01b60ff60a01b1617905560405160808082529092908c906114909085016126d5565b928484036020860152819360cb54906114a88261213f565b808252916001811690811561188a5750600114611810575b5050918493917fb08510a4a112663ff701fcf43686a47fd456cb1a471dd63d662b73612cf700b3959360018060a01b03169082151560a01b16176040840152151560608301520390a1885b8581106115815789896115438a60018060a01b0361152a60cf54612924565b166001600160601b0360a01b60db54161760db55613070565b61154a5780f35b61ff001981541681557f7f26b83ff96e1f2b6a682f133852f6798a09c465da95921460cefb3847402498602060405160018152a180f35b6001600160a01b03611597610c58838988612742565b16156117d6576001600160a01b036115b3610c58838587612742565b161561179d57600460206001600160a01b036115d3610c58858789612742565b166040519283809263313ce56760e01b82525afa9081156117925760089160ff918d91611763575b50160361171e5780611612610c588c938587612742565b61161d828a89612742565b359060ff821680920361086a578860ff6040611719967f1573dfedb5172e215558f8ffa409a71a5e42c596c15c482a04ff548914ebfa77956060958351906116648261223e565b60018060a01b03168152602081019182528c61168b610c588b8960018060a01b0394612742565b16835260cd60208190528484209151825493516001600160a81b03199094166001600160a01b03919091161792861660a01b9290921790558b6116e6610c588a6116d782828b87612742565b986001600160a01b0394612742565b168252602052206040519260018060a01b031683525460018060a01b038116602084015260a01c166040820152a1612733565b61150b565b60405162461bcd60e51b815260206004820152601a60248201527f746f6b656e206f7261636c6520646563696d616c7320213d20380000000000006044820152606490fd5b611785915060203d60201161178b575b61177d8183612259565b8101906126bc565b386115fb565b503d611773565b6040513d8d823e3d90fd5b60405162461bcd60e51b81526020600482015260116024820152700746f6b656e206f7261636c65203d3d203607c1b6044820152606490fd5b60405162461bcd60e51b815260206004820152601260248201527107061796d656e7420746f6b656e203d3d20360741b6044820152606490fd5b95945060cb83929493526000805160206139a88339815191529082915b818310611866575094950160200193509091817fb08510a4a112663ff701fcf43686a47fd456cb1a471dd63d662b73612cf700b36114c0565b602091949596979350806001915483858701015201910190928f929695949361182d565b60ff191660208381019190915292151560051b90910190910194508290507fb08510a4a112663ff701fcf43686a47fd456cb1a471dd63d662b73612cf700b36114c0565b01359050388061143a565b60cb815293506000805160206139a8833981519152915b601f1984168510611933576001945083601f19811610611919575b505050811b0160cb55611450565b0135600019600384901b60f8161c1916905538808061190b565b818101358355602094850194600190930192016118f0565b9160cb91935052601f830160051c6000805160206139a883398151915201602084106119ab575b918e9184935b601f820160051c6000805160206139a883398151915201811061199b5750611427565b9283558493508f92600101611978565b506000805160206139a8833981519152611972565b634e487b7160e01b8d52604160045260248dfd5b6024915082823501010135386113dd565b9060d682526000805160206139c8833981519152915b602435840160040135601f19168110611a63575060019260049290916024358301840135601f19811610611a3d575b5050602435010135811b0160d655611402565b602460001960f88686843501013560031b161c1991848235010101351690553880611a2a565b909160206001819260248688823501010135815501930191016119fb565b60d69052601f60046024358401013590810160051c6000805160206139c88339815191520190602011611ae0575b8f5b601f830160051c6000805160206139c8833981519152018210611ad55790506113b8565b81556001018f611ab1565b506000805160206139c8833981519152611aaf565b8d80fd5b60405162461bcd60e51b815260206004820152601b60248201527f6e6174697665206f7261636c6520646563696d616c7320213d203800000000006044820152606490fd5b611b57915060203d60201161178b5761177d8183612259565b38611311565b50604051903d90823e3d90fd5b60405162461bcd60e51b815260206004820152601260248201527106e6174697665206f7261636c65203d3d20360741b6044820152606490fd5b60405162461bcd60e51b815260206004820152601d60248201527f746f6b656e20616e6420646563696d616c73206c656e6774687320213d0000006044820152606490fd5b60405162461bcd60e51b815260206004820152601b60248201527f746f6b656e20616e64206f7261636c65206c656e6774687320213d00000000006044820152606490fd5b611c3790612215565b611c42578c386112c0565b8c80fd5b6040513d84823e3d90fd5b634e487b7160e01b8e52604160045260248efd5b611c7460c0820151421061233c565b60a0810151421115611160576040611c959101516044602435013514612388565b38611160565b61ffff191661010117815538611146565b60405162461bcd60e51b815260206004820152602e60248201527f496e697469616c697a61626c653a20636f6e747261637420697320616c72656160448201526d191e481a5b9a5d1a585b1a5e995960921b6064820152608490fd5b50303b15801561112b5750600160ff82161461112b565b50600160ff821610611124565b8980fd5b8880fd5b8680fd5b50346101a35760203660031901126101a3576020611d57600435612924565b6040516001600160a01b039091168152f35b50346101a35760203660031901126101a3576020906040906001600160a01b03611d916120cc565b16815260da83522054604051908152f35b50346101a357806003193601126101a35760d354421180611ddd575b80611dd0576020906040519015158152f35b5060d95460d054116108d8565b504260d45411611dbe565b50346101a35760203660031901126101a357806004356001600160a01b0381811691829003611e505760975416803b15611e50576024839260405194859384926351cff8d960e01b845260048401525af18015611c4657611e47575080f35b6101e090612215565b5050fd5b50346101a35760203660031901126101a357611e6e6120cc565b611e76613018565b6001600160a01b03168015611ec7576020817fbfbef9c12fc2cf7df9f0b7679d5863e31a093e9c2c8d5dd9de1ddca31a074828926001600160601b0360a01b60ca54161760ca55604051908152a180f35b60405162461bcd60e51b815260206004820152601960248201527f4469737472696275746f72203d3d2061646472657373283029000000000000006044820152606490fd5b50346101a357806003193601126101a357602060405160088152f35b50346101a357806003193601126101a357602060d954604051908152f35b50346101a357602080600319360112610e9057611f616120cc565b6040516370a0823160e01b81523060048201526001600160a01b038083169392908383602481885afa928315610517578693612021575b5060ce5460405163a9059cbb60e01b86820152911660248201526044808201849052815290608082016001600160401b0381118382101761200d576040527ff4a44a7f605c4971a27bcecb448108e6328b7fad34fab5bff4f69377294b826d939291612003916131c7565b604051908152a280f35b634e487b7160e01b87526041600452602487fd5b9092508381813d8311612049575b6120398183612259565b8101031261052257519138611f98565b503d61202f565b50346101a35760803660031901126101a3576024356001600160a01b0381168103610e90576001600160401b0360443581811161086a576120959036906004016120e2565b9190936064359182116101a35760206120c28686866120b7366004890161210f565b939092600435612f08565b6040519015158152f35b600435906001600160a01b038216820361059157565b9181601f84011215610591578235916001600160401b038311610591576020838186019501011161059157565b9181601f84011215610591578235916001600160401b038311610591576020808501948460051b01011161059157565b90600182811c9216801561216f575b602083101461215957565b634e487b7160e01b600052602260045260246000fd5b91607f169161214e565b60d654600092916121898261213f565b9081815260209260019081811690816000146121f857506001146121ae575b50505050565b929394509060d66000526000805160206139c883398151915292846000945b8386106121e45750505050010190388080806121a8565b8054858701830152940193859082016121cd565b60ff191685840152505090151560051b01019150388080806121a8565b6001600160401b03811161222857604052565b634e487b7160e01b600052604160045260246000fd5b604081019081106001600160401b0382111761222857604052565b90601f801991011681019081106001600160401b0382111761222857604052565b919082519283825260005b8481106122a6575050826000602080949584010152601f8019910116010190565b602081830181015184830182015201612285565b6040519061012082018281106001600160401b0382111761222857604090815260ce546001600160a01b0316835260cf54602084015260d0548382015260d154606084015260d254608084015260d35460a084015260d45460c084015260d55460e084015251610100836123388361233181612179565b0384612259565b0152565b1561234357565b60405162461bcd60e51b815260206004820152601a60248201527f73616c65206973206f7665723a2063616e6e6f742075706174650000000000006044820152606490fd5b1561238f57565b60405162461bcd60e51b8152602060048201526024808201527f65646974696e672073616c654d6178696d756d2061667465722073616c6520736044820152631d185c9d60e21b6064820152608490fd5b156123e757565b60405162461bcd60e51b815260206004820152601f60248201527f7374617274203e203431303234343438303020284a616e2031203231303029006044820152606490fd5b1561243357565b60405162461bcd60e51b815260206004820152601d60248201527f656e64203e203431303234343438303020284a616e20312032313030290000006044820152606490fd5b1561247f57565b606460405162461bcd60e51b815260206004820152602060248201527f6d61782071756575652074696d65203e20363034383030202831207765656b296044820152fd5b356001600160a01b03811681036105915790565b156124de57565b60405162461bcd60e51b815260206004820152601760248201527f726563697069656e74203d3d20616464726573732830290000000000000000006044820152606490fd5b1561252a57565b60405162461bcd60e51b815260206004820152601060248201526f073616c654d6178696d756d203d3d20360841b6044820152606490fd5b1561256957565b60405162461bcd60e51b815260206004820152601060248201526f0757365724d6178696d756d203d3d20360841b6044820152606490fd5b156125a857565b60405162461bcd60e51b815260206004820152601960248201527f757365724d6178696d756d203e2073616c654d6178696d756d000000000000006044820152606490fd5b156125f457565b60405162461bcd60e51b815260206004820152601d60248201527f70757263686173654d696e696d756d203e20757365724d6178696d756d0000006044820152606490fd5b9190820180921161264657565b634e487b7160e01b600052601160045260246000fd5b1561266357565b60405162461bcd60e51b815260206004820152602b60248201527f73616c65206d757374206265206f70656e20666f72206174206c65617374206d60448201526a6178517565756554696d6560a81b6064820152608490fd5b90816020910312610591575160ff811681036105915790565b60ce546001600160a01b0316815260cf54602082015260d054604082015260d154606082015260d254608082015260d35460a082015260d45460c082015260d55460e082015261012061010082018190526127309101612179565b90565b60001981146126465760010190565b91908110156127525760051b0190565b634e487b7160e01b600052603260045260246000fd5b519069ffffffffffffffffffff8216820361059157565b60408051633fabe5a360e21b81529160a090839060049082906001600160a01b03165afa91821561290c5760009283809281926128b6575b5060008513156128815769ffffffffffffffffffff80921692831561284f57156128165716116127e5575090565b5162461bcd60e51b815260206004820152600b60248201526a7374616c6520707269636560a81b6044820152606490fd5b835162461bcd60e51b8152602060048201526012602482015271726f756e64206e6f7420636f6d706c65746560701b6044820152606490fd5b845162461bcd60e51b815260206004820152600b60248201526a0616e73776572203d3d20360ac1b6044820152606490fd5b835162461bcd60e51b815260206004820152600e60248201526d6e6567617469766520707269636560901b6044820152606490fd5b945091505060a0833d8211612904575b816128d360a09383612259565b810103126101a357506128e582612768565b60208301516128fb608060608601519501612768565b909391386127b7565b3d91506128c6565b50513d6000823e3d90fd5b9190820391821161264657565b600019430190438211612646576001600160a01b039081169140161890565b60d554801561298f5760db546001600160a01b039283169083161890821680156129795782048216908115612979578216041690565b634e487b7160e01b600052601260045260246000fd5b5050600090565b8181029291811591840414171561264657565b6129b66129bc929361277f565b90612996565b90604d811161264657600a0a908115612979570490565b156129da57565b60405162461bcd60e51b81526020600482015260146024820152734d75737420627579207769746820616e20454f4160601b6044820152606490fd5b90816020910312610591575180151581036105915790565b9081526001600160a01b03909116602082015260806040820181905281018390529190819060a0840137600060a08284010152601f8019910116810190606060a0828403019101528260a082015260018060fb1b0383116105915760c09260051b809284830137010190565b15612aa157565b60405162461bcd60e51b815260206004820152601960248201527f626164206d65726b6c652070726f6f6620666f722073616c65000000000000006044820152606490fd5b15612aed57565b60405162461bcd60e51b815260206004820152602160248201527f64617461206e6f74207065726d6974746564206f6e207075626c69632073616c6044820152606560f81b6064820152608490fd5b15612b4357565b60405162461bcd60e51b815260206004820152601860248201527f73616c6520686173206e6f7420737461727465642079657400000000000000006044820152606490fd5b15612b8f57565b60405162461bcd60e51b815260206004820152600e60248201526d1cd85b19481a185cc8195b99195960921b6044820152606490fd5b15612bcc57565b60405162461bcd60e51b81526020600482015260166024820152751cd85b1948189d5e481b1a5b5a5d081c995858da195960521b6044820152606490fd5b15612c1157565b60405162461bcd60e51b81526020600482015260116024820152701b9bdd081e5bdd5c881d1d5c9b881e595d607a1b6044820152606490fd5b15612c5157565b60405162461bcd60e51b815260206004820152601f60248201527f5265656e7472616e637947756172643a207265656e7472616e742063616c6c006044820152606490fd5b919060d1549180612e1f575b50506000338152602060da8152604092612cbf8484205486612639565b11612ddc5760d954612cd18186612639565b60d05410612d985760d2548510612d5b5760d75460018101809111612d475790859160d75533845260da83528484205415612d2d575b91612d1960da92612d29969594612639565b60d9553383525220918254612639565b9055565b905060d85460018101809111612d475760d8558490612d07565b634e487b7160e01b84526011600452602484fd5b835162461bcd60e51b8152600481018390526016602482015275707572636861736520756e646572206d696e696d756d60501b6044820152606490fd5b835162461bcd60e51b815260048101839052601b60248201527f707572636861736520657863656564732073616c65206c696d697400000000006044820152606490fd5b60649083519062461bcd60e51b82526004820152601b60248201527f7075726368617365206578636565647320796f7572206c696d697400000000006044820152fd5b80919250600111610591576001823560f81c03612e955760218103612e505760211161059157600101353880612ca2565b60405162461bcd60e51b815260206004820152601760248201527f64617461206c656e67746820213d2033332062797465730000000000000000006044820152606490fd5b60405162461bcd60e51b815260206004820152600c60248201526b756e6b6e6f776e206461746160a01b6044820152606490fd5b3d15612f03573d906001600160401b0382116122285760405191612ef7601f8201601f191660200184612259565b82523d6000602084013e565b606090565b949591909360409485519480602094858801936001600160601b03199060601b1684526034880137850194612f4f6034826000988983820152036014810184520182612259565b5190206001600160401b0388116130045760059188831b875199612f758683018c612259565b8a52848a0190820191368311613000578590915b838310612ff057505050509284935b8851851015612fd95784831b89018401519081811015612fc95786528352612fc38686205b94612733565b93612f98565b9086528352612fc3868620612fbd565b94969550965050505014612fea5790565b50600190565b8235815291810191869101612f89565b8780fd5b634e487b7160e01b85526041600452602485fd5b6065546001600160a01b0316330361302c57565b606460405162461bcd60e51b815260206004820152602060248201527f4f776e61626c653a2063616c6c6572206973206e6f7420746865206f776e65726044820152fd5b606580546001600160a01b039283166001600160a01b0319821681179092559091167f8be0079c531659141344cd1fd0a4f28419497f9722a3daafe3b4186f6b6457e0600080a3565b156130c057565b60405162461bcd60e51b815260206004820152602b60248201527f496e697469616c697a61626c653a20636f6e7472616374206973206e6f74206960448201526a6e697469616c697a696e6760a81b6064820152608490fd5b6097546001600160a01b0390811692833b1561059157600092602491604051958694859363f340fa0160e01b85521660048401525af180156131675761315c5750565b61316590612215565b565b6040513d6000823e3d90fd5b6040516323b872dd60e01b60208201526001600160a01b03928316602482015292909116604483015260648083019390935291815260a08101918183106001600160401b0384111761222857613165926040525b6040516001600160a01b0391909116916131e08261223e565b6020928383527f5361666545524332303a206c6f772d6c6576656c2063616c6c206661696c656484840152803b156132ae57600082819282876132329796519301915af161322c612ec9565b906132f3565b8051908161323f57505050565b828061324f938301019101612a16565b156132575750565b6084906040519062461bcd60e51b82526004820152602a60248201527f5361666545524332303a204552433230206f7065726174696f6e20646964206e6044820152691bdd081cdd58d8d9595960b21b6064820152fd5b60405162461bcd60e51b815260048101859052601d60248201527f416464726573733a2063616c6c20746f206e6f6e2d636f6e74726163740000006044820152606490fd5b909190156132ff575090565b81511561330f5750805190602001fd5b60405162461bcd60e51b81526020600482015290819061333390602483019061227a565b0390fdfe6080806040523461001657610654908161001c8239f35b600080fdfe60406080815260048036101561001457600080fd5b600091823560e01c806351cff8d914610388578063715018a6146103285780638129fc1c146101f65780638da5cb5b146101c9578063e3a9db1a1461018f578063f2fde38b146100f85763f340fa011461006d57600080fd5b60203660031901126100f45781356001600160a01b03811692908390036100f05761009661051d565b82845260656020528184208054913483018093116100dd575055513481527f2da466a7b24304f47e87fa2e1e5a81b9831ce54fec19055ce277ca2f39ba42c490602090a280f35b634e487b7160e01b865260119052602485fd5b8380fd5b8280fd5b5090346100f45760203660031901126100f4578035916001600160a01b03831680840361018b5761012761051d565b15610139578361013684610575565b80f35b906020608492519162461bcd60e51b8352820152602660248201527f4f776e61626c653a206e6577206f776e657220697320746865207a65726f206160448201526564647265737360d01b6064820152fd5b8480fd5b5090346100f45760203660031901126100f457356001600160a01b038116908190036100f457828291602094526065845220549051908152f35b8382346101f257816003193601126101f25760335490516001600160a01b039091168152602090f35b5080fd5b5090346100f457826003193601126100f457825460ff8160081c16159182809361031b575b8015610304575b156102aa575060ff198116600117845581610299575b5061025260ff845460081c1661024d816105be565b6105be565b61025b33610575565b610263575080f35b60207f7f26b83ff96e1f2b6a682f133852f6798a09c465da95921460cefb38474024989161ff001984541684555160018152a180f35b61ffff191661010117835538610238565b608490602085519162461bcd60e51b8352820152602e60248201527f496e697469616c697a61626c653a20636f6e747261637420697320616c72656160448201526d191e481a5b9a5d1a585b1a5e995960921b6064820152fd5b50303b1580156102225750600160ff831614610222565b50600160ff83161061021b565b833461038557806003193601126103855761034161051d565b603380546001600160a01b0319811690915581906001600160a01b03167f8be0079c531659141344cd1fd0a4f28419497f9722a3daafe3b4186f6b6457e08280a380f35b80fd5b5090346100f457602090816003193601126100f05780356001600160a01b038116939084900361018b576103ba61051d565b838552606583528085209185835493558247106104dc578580808086895af13d156104d75767ffffffffffffffff3d8181116104c457845191601f8201601f19908116603f01168301908111838210176104b1578552815287863d92013e5b1561044a5750519081527f7084f5476618d8e60b11ef0d7d3f06914655adb8793e28ff7f018d4c76d505d59190a280f35b83608492519162461bcd60e51b8352820152603a60248201527f416464726573733a20756e61626c6520746f2073656e642076616c75652c207260448201527f6563697069656e74206d617920686176652072657665727465640000000000006064820152fd5b634e487b7160e01b8a526041855260248afd5b634e487b7160e01b895260418452602489fd5b610419565b83606492519162461bcd60e51b8352820152601d60248201527f416464726573733a20696e73756666696369656e742062616c616e63650000006044820152fd5b6033546001600160a01b0316330361053157565b606460405162461bcd60e51b815260206004820152602060248201527f4f776e61626c653a2063616c6c6572206973206e6f7420746865206f776e65726044820152fd5b603380546001600160a01b039283166001600160a01b0319821681179092559091167f8be0079c531659141344cd1fd0a4f28419497f9722a3daafe3b4186f6b6457e0600080a3565b156105c557565b60405162461bcd60e51b815260206004820152602b60248201527f496e697469616c697a61626c653a20636f6e7472616374206973206e6f74206960448201526a6e697469616c697a696e6760a81b6064820152608490fdfea264697066735822122004c3d8057385ea3ff9aa48116a34f42d7f7fa5704393ac6fcddcf8aa2bccb05664736f6c63430008150033a7ce836d032b2bf62b7e2097a8e0a6d8aeb35405ad15271e96d3b0188a1d06fbe767803f8ecf1dee6bb0345811f7312cda556058b19db6389ad9ae3568643ddda2646970667358221220680876b23cb8379f28245f7c6d3c609d9a18a68c1d272cf7b36f01d8f4066caf64736f6c63430008150033","linkReferences":{}},"methodIdentifiers":{"BASE_CURRENCY_DECIMALS()":"311d5c62","VERSION()":"ffa1ad74","baseCurrency()":"92a85fde","buyWithNative(bytes,bytes32[])":"cc8f9182","buyWithToken(address,uint256,bytes,bytes32[])":"ea517645","buyerTotal(address)":"4cc233a8","config()":"79502c55","generatePseudorandomValue(bytes32)":"621aa925","getFairQueueTime(address)":"a9e0c9c3","getOraclePrice(address)":"75f620ac","getPaymentToken(address)":"8dbc8343","initialize(address,(address,bytes32,uint256,uint256,uint256,uint256,uint256,uint256,string),string,bool,address,address[],address[],uint8[])":"669ad092","isOpen()":"47535d7b","isOver()":"b4bd9e27","isValidMerkleProof(bytes32,address,bytes,bytes32[])":"01c3753f","metrics()":"a04748f6","nativeTokenPriceOracle()":"e6064de3","owner()":"8da5cb5b","paymentTokens(address)":"c3b88b42","payments(address)":"e2982c21","registerDistributor(address)":"31ab0518","renounceOwnership()":"715018a6","sweepNative()":"ab803a76","sweepToken(address)":"1be19560","tokensToBaseCurrency(uint256,uint256,address)":"e49248d5","total()":"2ddbd13a","transferOwnership(address)":"f2fde38b","update((address,bytes32,uint256,uint256,uint256,uint256,uint256,uint256,string))":"826b90f2","withdrawPayments(address)":"31b3eb94"},"id":40}