{"abi":[{"type":"constructor","inputs":[{"name":"_connext","type":"address","internalType":"contract IConnext"},{"name":"_distributor","type":"address","internalType":"contract ICrosschain"},{"name":"_distributorDomain","type":"uint32","internalType":"uint32"},{"name":"_merkleRoot","type":"bytes32","internalType":"bytes32"}],"stateMutability":"nonpayable"},{"type":"function","name":"connext","inputs":[],"outputs":[{"name":"","type":"address","internalType":"contract IConnext"}],"stateMutability":"view"},{"type":"function","name":"distributor","inputs":[],"outputs":[{"name":"","type":"address","internalType":"contract ICrosschain"}],"stateMutability":"view"},{"type":"function","name":"distributorDomain","inputs":[],"outputs":[{"name":"","type":"uint32","internalType":"uint32"}],"stateMutability":"view"},{"type":"function","name":"domain","inputs":[],"outputs":[{"name":"","type":"uint32","internalType":"uint32"}],"stateMutability":"view"},{"type":"function","name":"getMerkleRoot","inputs":[],"outputs":[{"name":"","type":"bytes32","internalType":"bytes32"}],"stateMutability":"view"},{"type":"function","name":"initiateClaim","inputs":[{"name":"total","type":"uint256","internalType":"uint256"},{"name":"proof","type":"bytes32[]","internalType":"bytes32[]"}],"outputs":[],"stateMutability":"payable"},{"type":"function","name":"owner","inputs":[],"outputs":[{"name":"","type":"address","internalType":"address"}],"stateMutability":"view"},{"type":"function","name":"renounceOwnership","inputs":[],"outputs":[],"stateMutability":"nonpayable"},{"type":"function","name":"setMerkleRoot","inputs":[{"name":"_merkleRoot","type":"bytes32","internalType":"bytes32"}],"outputs":[],"stateMutability":"nonpayable"},{"type":"function","name":"transferOwnership","inputs":[{"name":"newOwner","type":"address","internalType":"address"}],"outputs":[],"stateMutability":"nonpayable"},{"type":"event","name":"ClaimInitiated","inputs":[{"name":"id","type":"bytes32","indexed":true,"internalType":"bytes32"},{"name":"beneficiary","type":"address","indexed":true,"internalType":"address"},{"name":"total","type":"uint256","indexed":false,"internalType":"uint256"}],"anonymous":false},{"type":"event","name":"OwnershipTransferred","inputs":[{"name":"previousOwner","type":"address","indexed":true,"internalType":"address"},{"name":"newOwner","type":"address","indexed":true,"internalType":"address"}],"anonymous":false},{"type":"event","name":"SetMerkleRoot","inputs":[{"name":"merkleRoot","type":"bytes32","indexed":false,"internalType":"bytes32"}],"anonymous":false}],"bytecode":{"object":"0x610100604090808252346101d4576080816109f9803803809161002282856101d9565b8339810103126101d4578051906001600160a01b03908183168084036101d457602093848301519084821682036101d4578684015163ffffffff94858216968783036101d457899589947f914960aef5e033ce5cae8a7992d4b7a6f0f9741227b66acb67c605b7019f8a46866060600496015160009a818c5551908152a1600154943360018060a01b03198716176001558c5197889687953391167f8be0079c531659141344cd1fd0a4f28419497f9722a3daafe3b4186f6b6457e08c80a360805260a05260e05263617d935360e11b82525afa9182156101c9578092610196575b505016908160c052146101665750516107e6908161021382396080518181816101f90152610532015260a05181818161050a01526106fc015260c0518181816101bf015281816103640152610466015260e05181818161017301526105b00152f35b606491519062461bcd60e51b82526004820152600b60248201526a39b0b6b2903237b6b0b4b760a91b6044820152fd5b9091508482813d83116101c2575b6101ae81836101d9565b810103126101bf5750513880610104565b80fd5b503d6101a4565b8651903d90823e3d90fd5b600080fd5b601f909101601f19168101906001600160401b038211908210176101fc57604052565b634e487b7160e01b600052604160045260246000fdfe608080604052600436101561001357600080fd5b60003560e01c908163479b4b52146106e15750806349590657146106c35780634d805425146102fa578063715018a61461029d5780637cb64759146102515780638da5cb5b14610228578063bfe10928146101e3578063c2fb26a6146101a2578063de4b05481461015d5763f2fde38b1461008d57600080fd5b34610158576020366003190112610158576004356001600160a01b0381811691829003610158576100bc610758565b811561010457600154826bffffffffffffffffffffffff60a01b821617600155167f8be0079c531659141344cd1fd0a4f28419497f9722a3daafe3b4186f6b6457e0600080a3005b60405162461bcd60e51b815260206004820152602660248201527f4f776e61626c653a206e6577206f776e657220697320746865207a65726f206160448201526564647265737360d01b6064820152608490fd5b600080fd5b34610158576000366003190112610158576040517f00000000000000000000000000000000000000000000000000000000000000006001600160a01b03168152602090f35b3461015857600036600319011261015857602060405163ffffffff7f0000000000000000000000000000000000000000000000000000000000000000168152f35b34610158576000366003190112610158576040517f00000000000000000000000000000000000000000000000000000000000000006001600160a01b03168152602090f35b34610158576000366003190112610158576001546040516001600160a01b039091168152602090f35b34610158576020366003190112610158577f914960aef5e033ce5cae8a7992d4b7a6f0f9741227b66acb67c605b7019f8a466020600435610290610758565b80600055604051908152a1005b34610158576000366003190112610158576102b6610758565b600180546001600160a01b031981169091556000906001600160a01b03167f8be0079c531659141344cd1fd0a4f28419497f9722a3daafe3b4186f6b6457e08280a3005b604036600319011261015857602467ffffffffffffffff8135818111610158573660238201121561015857818160040135116101585782816004013560051b820101368111610158576040519260208401903360601b8252600435603486015263ffffffff60e01b7f000000000000000000000000000000000000000000000000000000000000000060e01b16605486015260388552846060810110906060860111176106ae576060840160405283519020926103c46020846004013560051b0160608301610720565b600483013560608201526080918584018383015b82821061069e5750505060005493926000935b606083015185101561045057838560051b840101519081811060001461043f5760005260205260406000205b93600019811461042a57600101936103eb565b86634e487b7160e01b60005260116004526000fd5b906000526020526040600020610417565b90838688930361066a57604080513360208201527f000000000000000000000000000000000000000000000000000000000000000063ffffffff1691810191909152600480356060830152828201929092529082013560a082018190526001600160a01b0392906001600160fb1b031061015857836104f360c0848487956004013560051b858201848401376004013560051b81010360a0810186520184610720565b6040519283916345560b5d60e11b835263ffffffff7f0000000000000000000000000000000000000000000000000000000000000000166004840152837f00000000000000000000000000000000000000000000000000000000000000001690830152600060448301526000606483015260006084830152600060a483015260e060c48301528051908160e484015260005b828110610651575050918160209381610104916000838284010152601f8019910116810103019134907f0000000000000000000000000000000000000000000000000000000000000000165af190811561064557600091610613575b506040519060043582527f564785450270d021954b70d15684b259d3ec23709db8de73e3cc011bf6a56c7b60203393a3005b90506020813d60201161063d575b8161062e60209383610720565b810103126101585751816105e1565b3d9150610621565b6040513d6000823e3d90fd5b6020828201810151610104888401015286945001610585565b60405162461bcd60e51b815260206004820152600d818501526c34b73b30b634b210383937b7b360991b6044820152606490fd5b81358152602091820191016103d8565b84634e487b7160e01b60005260416004526000fd5b34610158576000366003190112610158576020600054604051908152f35b346101585760003660031901126101585760209063ffffffff7f0000000000000000000000000000000000000000000000000000000000000000168152f35b90601f8019910116810190811067ffffffffffffffff82111761074257604052565b634e487b7160e01b600052604160045260246000fd5b6001546001600160a01b0316330361076c57565b606460405162461bcd60e51b815260206004820152602060248201527f4f776e61626c653a2063616c6c6572206973206e6f7420746865206f776e65726044820152fdfea264697066735822122093c7cf438bf1f9958cd66a907ff66a6b9e18b4c7c483ba002379647f092ecc1764736f6c63430008150033","linkReferences":{}},"methodIdentifiers":{"connext()":"de4b0548","distributor()":"bfe10928","distributorDomain()":"479b4b52","domain()":"c2fb26a6","getMerkleRoot()":"49590657","initiateClaim(uint256,bytes32[])":"4d805425","owner()":"8da5cb5b","renounceOwnership()":"715018a6","setMerkleRoot(bytes32)":"7cb64759","transferOwnership(address)":"f2fde38b"},"id":3}