{"abi":[{"type":"constructor","inputs":[],"stateMutability":"nonpayable"},{"type":"function","name":"CLOCK_MODE","inputs":[],"outputs":[{"name":"","type":"string","internalType":"string"}],"stateMutability":"view"},{"type":"function","name":"DOMAIN_SEPARATOR","inputs":[],"outputs":[{"name":"","type":"bytes32","internalType":"bytes32"}],"stateMutability":"view"},{"type":"function","name":"NAME","inputs":[],"outputs":[{"name":"","type":"string","internalType":"string"}],"stateMutability":"pure"},{"type":"function","name":"VERSION","inputs":[],"outputs":[{"name":"","type":"uint256","internalType":"uint256"}],"stateMutability":"pure"},{"type":"function","name":"adjust","inputs":[{"name":"beneficiary","type":"address","internalType":"address"},{"name":"amount","type":"int256","internalType":"int256"}],"outputs":[],"stateMutability":"nonpayable"},{"type":"function","name":"allowance","inputs":[{"name":"owner","type":"address","internalType":"address"},{"name":"spender","type":"address","internalType":"address"}],"outputs":[{"name":"","type":"uint256","internalType":"uint256"}],"stateMutability":"view"},{"type":"function","name":"approve","inputs":[{"name":"spender","type":"address","internalType":"address"},{"name":"amount","type":"uint256","internalType":"uint256"}],"outputs":[{"name":"","type":"bool","internalType":"bool"}],"stateMutability":"nonpayable"},{"type":"function","name":"balanceOf","inputs":[{"name":"account","type":"address","internalType":"address"}],"outputs":[{"name":"","type":"uint256","internalType":"uint256"}],"stateMutability":"view"},{"type":"function","name":"checkpoints","inputs":[{"name":"account","type":"address","internalType":"address"},{"name":"pos","type":"uint32","internalType":"uint32"}],"outputs":[{"name":"","type":"tuple","internalType":"struct ERC20Votes.Checkpoint","components":[{"name":"fromBlock","type":"uint32","internalType":"uint32"},{"name":"votes","type":"uint224","internalType":"uint224"}]}],"stateMutability":"view"},{"type":"function","name":"claim","inputs":[{"name":"index","type":"uint256","internalType":"uint256"},{"name":"beneficiary","type":"address","internalType":"address"},{"name":"totalAmount","type":"uint256","internalType":"uint256"},{"name":"merkleProof","type":"bytes32[]","internalType":"bytes32[]"}],"outputs":[],"stateMutability":"nonpayable"},{"type":"function","name":"claimed","inputs":[],"outputs":[{"name":"","type":"uint256","internalType":"uint256"}],"stateMutability":"view"},{"type":"function","name":"clock","inputs":[],"outputs":[{"name":"","type":"uint48","internalType":"uint48"}],"stateMutability":"view"},{"type":"function","name":"decimals","inputs":[],"outputs":[{"name":"","type":"uint8","internalType":"uint8"}],"stateMutability":"view"},{"type":"function","name":"decreaseAllowance","inputs":[{"name":"spender","type":"address","internalType":"address"},{"name":"subtractedValue","type":"uint256","internalType":"uint256"}],"outputs":[{"name":"","type":"bool","internalType":"bool"}],"stateMutability":"nonpayable"},{"type":"function","name":"delegate","inputs":[{"name":"delegatee","type":"address","internalType":"address"}],"outputs":[],"stateMutability":"nonpayable"},{"type":"function","name":"delegateBySig","inputs":[{"name":"delegatee","type":"address","internalType":"address"},{"name":"nonce","type":"uint256","internalType":"uint256"},{"name":"expiry","type":"uint256","internalType":"uint256"},{"name":"v","type":"uint8","internalType":"uint8"},{"name":"r","type":"bytes32","internalType":"bytes32"},{"name":"s","type":"bytes32","internalType":"bytes32"}],"outputs":[],"stateMutability":"nonpayable"},{"type":"function","name":"delegates","inputs":[{"name":"account","type":"address","internalType":"address"}],"outputs":[{"name":"","type":"address","internalType":"address"}],"stateMutability":"view"},{"type":"function","name":"distancePerSecond","inputs":[],"outputs":[{"name":"","type":"uint160","internalType":"uint160"}],"stateMutability":"view"},{"type":"function","name":"eip712Domain","inputs":[],"outputs":[{"name":"fields","type":"bytes1","internalType":"bytes1"},{"name":"name","type":"string","internalType":"string"},{"name":"version","type":"string","internalType":"string"},{"name":"chainId","type":"uint256","internalType":"uint256"},{"name":"verifyingContract","type":"address","internalType":"address"},{"name":"salt","type":"bytes32","internalType":"bytes32"},{"name":"extensions","type":"uint256[]","internalType":"uint256[]"}],"stateMutability":"view"},{"type":"function","name":"getClaimableAmount","inputs":[{"name":"beneficiary","type":"address","internalType":"address"},{"name":"data","type":"bytes","internalType":"bytes"}],"outputs":[{"name":"","type":"uint256","internalType":"uint256"}],"stateMutability":"view"},{"type":"function","name":"getDistributionRecord","inputs":[{"name":"beneficiary","type":"address","internalType":"address"}],"outputs":[{"name":"","type":"tuple","internalType":"struct DistributionRecord","components":[{"name":"initialized","type":"bool","internalType":"bool"},{"name":"total","type":"uint120","internalType":"uint120"},{"name":"claimed","type":"uint120","internalType":"uint120"}]}],"stateMutability":"view"},{"type":"function","name":"getFairDelayTime","inputs":[{"name":"user","type":"address","internalType":"address"}],"outputs":[{"name":"","type":"uint256","internalType":"uint256"}],"stateMutability":"view"},{"type":"function","name":"getFractionDenominator","inputs":[],"outputs":[{"name":"","type":"uint256","internalType":"uint256"}],"stateMutability":"view"},{"type":"function","name":"getMerkleRoot","inputs":[],"outputs":[{"name":"","type":"bytes32","internalType":"bytes32"}],"stateMutability":"view"},{"type":"function","name":"getPastTotalSupply","inputs":[{"name":"timepoint","type":"uint256","internalType":"uint256"}],"outputs":[{"name":"","type":"uint256","internalType":"uint256"}],"stateMutability":"view"},{"type":"function","name":"getPastVotes","inputs":[{"name":"account","type":"address","internalType":"address"},{"name":"timepoint","type":"uint256","internalType":"uint256"}],"outputs":[{"name":"","type":"uint256","internalType":"uint256"}],"stateMutability":"view"},{"type":"function","name":"getSweepRecipient","inputs":[],"outputs":[{"name":"","type":"address","internalType":"address payable"}],"stateMutability":"view"},{"type":"function","name":"getTotalVotes","inputs":[],"outputs":[{"name":"","type":"uint256","internalType":"uint256"}],"stateMutability":"view"},{"type":"function","name":"getVestedFraction","inputs":[{"name":"beneficiary","type":"address","internalType":"address"},{"name":"time","type":"uint256","internalType":"uint256"},{"name":"data","type":"bytes","internalType":"bytes"}],"outputs":[{"name":"","type":"uint256","internalType":"uint256"}],"stateMutability":"view"},{"type":"function","name":"getVoteFactor","inputs":[{"name":"","type":"address","internalType":"address"}],"outputs":[{"name":"","type":"uint256","internalType":"uint256"}],"stateMutability":"view"},{"type":"function","name":"getVotes","inputs":[{"name":"account","type":"address","internalType":"address"}],"outputs":[{"name":"","type":"uint256","internalType":"uint256"}],"stateMutability":"view"},{"type":"function","name":"increaseAllowance","inputs":[{"name":"spender","type":"address","internalType":"address"},{"name":"addedValue","type":"uint256","internalType":"uint256"}],"outputs":[{"name":"","type":"bool","internalType":"bool"}],"stateMutability":"nonpayable"},{"type":"function","name":"initialize","inputs":[{"name":"_token","type":"address","internalType":"contract IERC20"},{"name":"_total","type":"uint256","internalType":"uint256"},{"name":"_uri","type":"string","internalType":"string"},{"name":"_merkleRoot","type":"bytes32","internalType":"bytes32"},{"name":"_maxDelayTime","type":"uint160","internalType":"uint160"},{"name":"_owner","type":"address","internalType":"address"}],"outputs":[],"stateMutability":"nonpayable"},{"type":"function","name":"initializeDistributionRecord","inputs":[{"name":"index","type":"uint256","internalType":"uint256"},{"name":"beneficiary","type":"address","internalType":"address"},{"name":"amount","type":"uint256","internalType":"uint256"},{"name":"merkleProof","type":"bytes32[]","internalType":"bytes32[]"}],"outputs":[],"stateMutability":"nonpayable"},{"type":"function","name":"maxDelayTime","inputs":[],"outputs":[{"name":"","type":"uint160","internalType":"uint160"}],"stateMutability":"view"},{"type":"function","name":"name","inputs":[],"outputs":[{"name":"","type":"string","internalType":"string"}],"stateMutability":"view"},{"type":"function","name":"nonces","inputs":[{"name":"owner","type":"address","internalType":"address"}],"outputs":[{"name":"","type":"uint256","internalType":"uint256"}],"stateMutability":"view"},{"type":"function","name":"numCheckpoints","inputs":[{"name":"account","type":"address","internalType":"address"}],"outputs":[{"name":"","type":"uint32","internalType":"uint32"}],"stateMutability":"view"},{"type":"function","name":"owner","inputs":[],"outputs":[{"name":"","type":"address","internalType":"address"}],"stateMutability":"view"},{"type":"function","name":"permit","inputs":[{"name":"owner","type":"address","internalType":"address"},{"name":"spender","type":"address","internalType":"address"},{"name":"value","type":"uint256","internalType":"uint256"},{"name":"deadline","type":"uint256","internalType":"uint256"},{"name":"v","type":"uint8","internalType":"uint8"},{"name":"r","type":"bytes32","internalType":"bytes32"},{"name":"s","type":"bytes32","internalType":"bytes32"}],"outputs":[],"stateMutability":"nonpayable"},{"type":"function","name":"randomValue","inputs":[],"outputs":[{"name":"","type":"uint160","internalType":"uint160"}],"stateMutability":"view"},{"type":"function","name":"renounceOwnership","inputs":[],"outputs":[],"stateMutability":"nonpayable"},{"type":"function","name":"setMerkleRoot","inputs":[{"name":"_merkleRoot","type":"bytes32","internalType":"bytes32"}],"outputs":[],"stateMutability":"nonpayable"},{"type":"function","name":"setSweepRecipient","inputs":[{"name":"_recipient","type":"address","internalType":"address payable"}],"outputs":[],"stateMutability":"nonpayable"},{"type":"function","name":"setToken","inputs":[{"name":"_token","type":"address","internalType":"contract IERC20"}],"outputs":[],"stateMutability":"nonpayable"},{"type":"function","name":"setTotal","inputs":[{"name":"_total","type":"uint256","internalType":"uint256"}],"outputs":[],"stateMutability":"nonpayable"},{"type":"function","name":"setUri","inputs":[{"name":"_uri","type":"string","internalType":"string"}],"outputs":[],"stateMutability":"nonpayable"},{"type":"function","name":"setVoteFactor","inputs":[{"name":"_voteFactor","type":"uint256","internalType":"uint256"}],"outputs":[],"stateMutability":"nonpayable"},{"type":"function","name":"sweepNative","inputs":[{"name":"amount","type":"uint256","internalType":"uint256"}],"outputs":[],"stateMutability":"nonpayable"},{"type":"function","name":"sweepNative","inputs":[],"outputs":[],"stateMutability":"nonpayable"},{"type":"function","name":"sweepToken","inputs":[{"name":"token","type":"address","internalType":"contract IERC20"}],"outputs":[],"stateMutability":"nonpayable"},{"type":"function","name":"sweepToken","inputs":[{"name":"token","type":"address","internalType":"contract IERC20"},{"name":"amount","type":"uint256","internalType":"uint256"}],"outputs":[],"stateMutability":"nonpayable"},{"type":"function","name":"symbol","inputs":[],"outputs":[{"name":"","type":"string","internalType":"string"}],"stateMutability":"view"},{"type":"function","name":"token","inputs":[],"outputs":[{"name":"","type":"address","internalType":"contract IERC20"}],"stateMutability":"view"},{"type":"function","name":"total","inputs":[],"outputs":[{"name":"","type":"uint256","internalType":"uint256"}],"stateMutability":"view"},{"type":"function","name":"totalSupply","inputs":[],"outputs":[{"name":"","type":"uint256","internalType":"uint256"}],"stateMutability":"view"},{"type":"function","name":"transfer","inputs":[{"name":"to","type":"address","internalType":"address"},{"name":"amount","type":"uint256","internalType":"uint256"}],"outputs":[{"name":"","type":"bool","internalType":"bool"}],"stateMutability":"nonpayable"},{"type":"function","name":"transferFrom","inputs":[{"name":"from","type":"address","internalType":"address"},{"name":"to","type":"address","internalType":"address"},{"name":"amount","type":"uint256","internalType":"uint256"}],"outputs":[{"name":"","type":"bool","internalType":"bool"}],"stateMutability":"nonpayable"},{"type":"function","name":"transferOwnership","inputs":[{"name":"newOwner","type":"address","internalType":"address"}],"outputs":[],"stateMutability":"nonpayable"},{"type":"function","name":"uri","inputs":[],"outputs":[{"name":"","type":"string","internalType":"string"}],"stateMutability":"view"},{"type":"event","name":"Adjust","inputs":[{"name":"beneficiary","type":"address","indexed":true,"internalType":"address"},{"name":"amount","type":"int256","indexed":false,"internalType":"int256"}],"anonymous":false},{"type":"event","name":"Approval","inputs":[{"name":"owner","type":"address","indexed":true,"internalType":"address"},{"name":"spender","type":"address","indexed":true,"internalType":"address"},{"name":"value","type":"uint256","indexed":false,"internalType":"uint256"}],"anonymous":false},{"type":"event","name":"Claim","inputs":[{"name":"beneficiary","type":"address","indexed":true,"internalType":"address"},{"name":"amount","type":"uint256","indexed":false,"internalType":"uint256"}],"anonymous":false},{"type":"event","name":"DelegateChanged","inputs":[{"name":"delegator","type":"address","indexed":true,"internalType":"address"},{"name":"fromDelegate","type":"address","indexed":true,"internalType":"address"},{"name":"toDelegate","type":"address","indexed":true,"internalType":"address"}],"anonymous":false},{"type":"event","name":"DelegateVotesChanged","inputs":[{"name":"delegate","type":"address","indexed":true,"internalType":"address"},{"name":"previousBalance","type":"uint256","indexed":false,"internalType":"uint256"},{"name":"newBalance","type":"uint256","indexed":false,"internalType":"uint256"}],"anonymous":false},{"type":"event","name":"EIP712DomainChanged","inputs":[],"anonymous":false},{"type":"event","name":"InitializeDistributionRecord","inputs":[{"name":"beneficiary","type":"address","indexed":true,"internalType":"address"},{"name":"total","type":"uint256","indexed":false,"internalType":"uint256"}],"anonymous":false},{"type":"event","name":"InitializeDistributor","inputs":[{"name":"token","type":"address","indexed":true,"internalType":"contract IERC20"},{"name":"total","type":"uint256","indexed":false,"internalType":"uint256"},{"name":"uri","type":"string","indexed":false,"internalType":"string"},{"name":"fractionDenominator","type":"uint256","indexed":false,"internalType":"uint256"}],"anonymous":false},{"type":"event","name":"Initialized","inputs":[{"name":"version","type":"uint8","indexed":false,"internalType":"uint8"}],"anonymous":false},{"type":"event","name":"OwnershipTransferred","inputs":[{"name":"previousOwner","type":"address","indexed":true,"internalType":"address"},{"name":"newOwner","type":"address","indexed":true,"internalType":"address"}],"anonymous":false},{"type":"event","name":"SetDelay","inputs":[{"name":"maxDelayTime","type":"uint160","indexed":false,"internalType":"uint160"}],"anonymous":false},{"type":"event","name":"SetMerkleRoot","inputs":[{"name":"merkleRoot","type":"bytes32","indexed":false,"internalType":"bytes32"}],"anonymous":false},{"type":"event","name":"SetSweepRecipient","inputs":[{"name":"recipient","type":"address","indexed":false,"internalType":"address"}],"anonymous":false},{"type":"event","name":"SetToken","inputs":[{"name":"token","type":"address","indexed":true,"internalType":"contract IERC20"}],"anonymous":false},{"type":"event","name":"SetTotal","inputs":[{"name":"total","type":"uint256","indexed":false,"internalType":"uint256"}],"anonymous":false},{"type":"event","name":"SetUri","inputs":[{"name":"uri","type":"string","indexed":true,"internalType":"string"}],"anonymous":false},{"type":"event","name":"SetVoteFactor","inputs":[{"name":"voteFactor","type":"uint256","indexed":false,"internalType":"uint256"}],"anonymous":false},{"type":"event","name":"SweepNative","inputs":[{"name":"amount","type":"uint256","indexed":false,"internalType":"uint256"}],"anonymous":false},{"type":"event","name":"SweepToken","inputs":[{"name":"token","type":"address","indexed":true,"internalType":"address"},{"name":"amount","type":"uint256","indexed":false,"internalType":"uint256"}],"anonymous":false},{"type":"event","name":"Transfer","inputs":[{"name":"from","type":"address","indexed":true,"internalType":"address"},{"name":"to","type":"address","indexed":true,"internalType":"address"},{"name":"value","type":"uint256","indexed":false,"internalType":"uint256"}],"anonymous":false},{"type":"error","name":"InvalidShortString","inputs":[]},{"type":"error","name":"StringTooLong","inputs":[{"name":"str","type":"string","internalType":"string"}]}],"bytecode":{"object":"0x6101606040818152346200058257620000188262000587565b60158252602091828101917f496e7465726e616c20766f746520747261636b6572000000000000000000000093848452815194620000568662000587565b60158652818601528151906200006c8262000587565b600382526212559560ea1b81830152825195620000898762000587565b6001808852603160f81b8389019081526000805462010000600160b01b0319811633601081811b62010000600160b01b031692909217845589519598939693957fccdd1baf560d2682736fa25752c8ccc0c5fc4079b245b0acf7389776308d5b1f9389939192911c6001600160a01b03167f8be0079c531659141344cd1fd0a4f28419497f9722a3daafe3b4186f6b6457e08980a388546001600160a01b031916339081178a558152a180516001600160401b03939091908483116200056e576005928354928984811c9416801562000563575b898510146200046f578190601f9485811162000512575b508990858311600114620004ae578992620004a2575b5050600019600383901b1c191690891b1783555b8051928584116200048e57600654908982811c9216801562000483575b898310146200046f57908392918594821162000418575b505087918311600114620003b2578692620003a6575b5050600019600383901b1c191690861b176006555b6200020887620005b9565b976101209889526200021a8a62000796565b97610140988952519020988960e0525190209361010098858a524660a052865195858701917f8b73c3c69bb8fe3d512ecc4cf759cc79239f7b179b0ffacaa9a75d522b39400f83528888015260608701524660808701523060a087015260a0865260c0860192868410908411176200039257828752855190206080523060c052600e5581549360ff8560081c166200033f57505060ff8084160362000305575b505050519161472493846200094f85396080518461415a015260a05184614215015260c05184614124015260e051846141a9015251836141cf015251826113e30152518161140d0152f35b60ff7f7f26b83ff96e1f2b6a682f133852f6798a09c465da95921460cefb384740249893811916179055825160ff8152a1388080620002ba565b9066616c697a696e6760c81b6101246084938662461bcd60e51b855260c4820152602760e48201527f496e697469616c697a61626c653a20636f6e747261637420697320696e6974696101048201520152fd5b634e487b7160e01b84526041600452602484fd5b015190503880620001e8565b600687528787208994509190601f198416885b8a828210620004015750508411620003e7575b505050811b01600655620001fd565b015160001960f88460031b161c19169055388080620003d8565b8385015186558c97909501949384019301620003c5565b9091929350600688528888209084808701821c8301938b881062000465575b9187968d93969594929601901c01915b828110620004565750620001d2565b8981558695508b910162000447565b9350829362000437565b634e487b7160e01b88526022600452602488fd5b91607f1691620001bb565b634e487b7160e01b87526041600452602487fd5b0151905038806200018a565b868a528a8a208c94509190601f1984168b5b8d828210620004fb5750508411620004e1575b505050811b0183556200019e565b015160001960f88460031b161c19169055388080620004d3565b8385015186558f97909501949384019301620004c0565b90915085895289892085808501881c8201928c861062000559575b918d918695949301891c01915b8281106200054a57505062000174565b8b81558594508d91016200053a565b925081926200052d565b93607f16936200015d565b634e487b7160e01b86526041600452602486fd5b600080fd5b604081019081106001600160401b03821117620005a357604052565b634e487b7160e01b600052604160045260246000fd5b805160209081811015620006565750601f825111620005f55780825192015190808310620005e657501790565b82600019910360031b1b161790565b90604051809263305a27a960e01b82528060048301528251908160248401526000935b8285106200063c575050604492506000838284010152601f80199101168101030190fd5b848101820151868601604401529381019385935062000618565b906001600160401b038211620005a357600754926001938481811c911680156200078b575b838210146200077557601f81116200073b575b5081601f8411600114620006cf5750928293918392600094620006c3575b50501b916000199060031b1c19161760075560ff90565b015192503880620006ac565b919083601f198116600760005284600020946000905b8883831062000720575050501062000706575b505050811b0160075560ff90565b015160001960f88460031b161c19169055388080620006f8565b858701518855909601959485019487935090810190620006e5565b600760005284601f84600020920160051c820191601f860160051c015b828110620007685750506200068e565b6000815501859062000758565b634e487b7160e01b600052602260045260246000fd5b90607f16906200067b565b805160209081811015620008245750601f825111620007c35780825192015190808310620005e657501790565b90604051809263305a27a960e01b82528060048301528251908160248401526000935b8285106200080a575050604492506000838284010152601f80199101168101030190fd5b8481018201518686016044015293810193859350620007e6565b906001600160401b038211620005a357600854926001938481811c9116801562000943575b838210146200077557601f811162000909575b5081601f84116001146200089d575092829391839260009462000891575b50501b916000199060031b1c19161760085560ff90565b0151925038806200087a565b919083601f198116600860005284600020946000905b88838310620008ee5750505010620008d4575b505050811b0160085560ff90565b015160001960f88460031b161c19169055388080620008c6565b858701518855909601959485019487935090810190620008b3565b600860005284601f84600020920160051c820191601f860160051c015b828110620009365750506200085c565b6000815501859062000926565b90607f16906200084956fe6080604052600436101561001257600080fd5b60003560e01c806306fdde03146103cd578063095ea7b31461030f5780630f56b96c146103c857806313c67ce5146103c3578063144fa6d7146103be57806318160ddd1461032d5780631be19560146103b95780631f8d1d50146103b457806323b872dd146103af578063276801ec146103aa5780632ddbd13a146103a55780632e7ba6ef146103a0578063313ce5671461039b5780633644e5151461039657806339509351146103915780633a46b1a81461038c5780633cf3a0251461038757806349590657146103825780634bf5d7e91461037d578063587cde1e146103785780635c19a95c14610373578063684de1f51461036e5780636fcfff451461036957806370a0823114610364578063715018a61461035f57806375aa9bc61461035a5780637cb64759146103555780637ecebe001461035057806384b0196e1461034b5780638d31aa63146103465780638da5cb5b146103415780638e539e8c1461033c57806391ddadf41461033757806395d89b41146103325780639a0e7d661461032d5780639ab24eb0146103285780639b642de114610323578063a3f4df7e1461031e578063a457c2d714610319578063a4ef1f7814610314578063a9059cbb1461030f578063ab803a761461030a578063bb22dccb14610305578063c3cda52014610300578063c6e8d982146102fb578063c78d5985146102f6578063c9557255146102f1578063d3d0ec89146102ec578063d505accf146102e7578063dd62ed3e146102e2578063de032f58146102dd578063e834a834146102d8578063e85858d9146102d3578063e90a182f146102ce578063eac989f8146102c9578063f1127ed8146102c4578063f2fde38b146102bf578063f56c8547146102ba578063fc0c546a146102b55763ffa1ad74146102b057600080fd5b6122cf565b6122a6565b61227d565b6121ec565b612161565b6120ca565b61201e565b611f68565b611f4a565b611f1d565b611eba565b611d7a565b611d2e565b611ce2565b611cb9565b611c90565b611b61565b611b18565b611abd565b61051b565b611a96565b6119f3565b611983565b611845565b6117e2565b610793565b611739565b61170d565b61161d565b6115f0565b6114c1565b6113c8565b61138b565b61133f565b611145565b6110e5565b6110a8565b61105d565b611006565b610fe0565b610fa1565b610eef565b610ed1565b610e62565b610d0d565b610c77565b610c5c565b610c40565b610a2e565b6109b0565b610987565b6108e5565b610899565b6107b1565b6106eb565b61069b565b61053c565b610426565b919082519283825260005b8481106103fe575050826000602080949584010152601f8019910116010190565b6020818301810151848301820152016103dd565b9060206104239281815201906103d2565b90565b3461050557600080600319360112610502576040518160055461044881612090565b9081845260209260019182811690816000146104e05750600114610487575b61048385610477818903826105fc565b60405191829182610412565b0390f35b929450600583527f036b6384b5eca791c62761152d0c79bb0604c104a5fb6f4eb0703f3154bb3db05b8284106104cd575050508161048393610477928201019338610467565b80548585018701529285019281016104b0565b60ff191686860152505050151560051b82010191506104778161048338610467565b80fd5b600080fd5b6001600160a01b0381160361050557565b346105055760403660031901126105055761053760043561050a565b61337d565b34610505576000366003190112610505576020601454604051908152f35b634e487b7160e01b600052604160045260246000fd5b606081019081106001600160401b0382111761058b57604052565b61055a565b604081019081106001600160401b0382111761058b57604052565b602081019081106001600160401b0382111761058b57604052565b608081019081106001600160401b0382111761058b57604052565b60c081019081106001600160401b0382111761058b57604052565b90601f801991011681019081106001600160401b0382111761058b57604052565b6040519061062a82610570565b565b6040519061062a82610590565b6001600160401b03811161058b57601f01601f191660200190565b81601f820112156105055780359061066b82610639565b9261067960405194856105fc565b8284526020838301011161050557816000926020809301838601378301015290565b34610505576040366003190112610505576004356106b88161050a565b6024356001600160401b038111610505576020916106dd6106e3923690600401610654565b906127a2565b604051908152f35b34610505576020366003190112610505576004356107088161050a565b6107106132c4565b6001600160a01b0316801561075857601080546001600160a01b031916821790557fefc1fd16ea80a922086ee4e995739d59b025c1bcea6d1f67855747480c83214b600080a2005b60405162461bcd60e51b8152602060048201526013602482015272746f6b656e206973206164647265737328302960681b6044820152606490fd5b34610505576000366003190112610505576020600454604051908152f35b34610505576020366003190112610505576004356107ce8161050a565b6107d66132c4565b6040516370a0823160e01b81523060048201526001600160a01b0382169190602081602481865afa8015610894577ff4a44a7f605c4971a27bcecb448108e6328b7fad34fab5bff4f69377294b826d9261085b92600092610860575b5060015461084b9183916001600160a01b031690613d7f565b6040519081529081906020820190565b0390a2005b61084b9192506108869060203d811161088d575b61087e81836105fc565b8101906131ee565b9190610832565b503d610874565b6131fd565b34610505576020366003190112610505577fac657d3615bd618ee537848e2b33acd2a9df67d4776485ab6922b0421d324d2960206004356108d86132c4565b80601155604051908152a1005b34610505576060366003190112610505576004356109028161050a565b61090d60243561050a565b6001600160a01b03166000908152600360209081526040808320338452909152902054600181011561337d57604435111561337d5760405162461bcd60e51b815260206004820152601d60248201527f45524332303a20696e73756666696369656e7420616c6c6f77616e63650000006044820152606490fd5b34610505576000366003190112610505576017546040516001600160a01b039091168152602090f35b34610505576000366003190112610505576020601154604051908152f35b608060031982011261050557600435916024356109ea8161050a565b91604435916064356001600160401b039283821161050557806023830112156105055781600401359384116105055760248460051b83010111610505576024019190565b3461050557610a9c610a96610a42366109ce565b929593604095929551610a8b81610a7d898b602084019687916054939183526001600160601b03199060601b16602083015260348201520190565b03601f1981018352826105fc565b519020923691612f09565b906130f8565b6002600e5414610bfb576002600e55610ab3613190565b50610af4610abf613190565b6001600160781b0380931660018060a01b038516600052600f602052808460406000205460081c1603610beb575b50836127a2565b168015610b8e576001600160a01b0382166000908152600f60205260409020610b829290610b6090610b3a84610b3583546001600160781b039060801c1690565b6123fb565b8154600160801b600160f81b03191660809190911b600160801b600160f81b0316179055565b610b74610b6f836012546123ee565b601255565b610b7d816124fb565b6131a8565b610b8c6001600e55565b005b60405162461bcd60e51b815260206004820152602f60248201527f4469737472696275746f723a206e6f206d6f726520746f6b656e7320636c616960448201526e6d61626c65207269676874206e6f7760881b6064820152608490fd5b610bf59085612f57565b38610aed565b60405162461bcd60e51b815260206004820152601f60248201527f5265656e7472616e637947756172643a207265656e7472616e742063616c6c006044820152606490fd5b3461050557600036600319011261050557602060405160128152f35b346105055760003660031901126105055760206106e3614121565b3461050557604036600319011261050557610cbc600435610c978161050a565b33600052600360205260406000209060018060a01b0316600052602052604060002090565b54602435810110610d085760405162461bcd60e51b81526020600482015260196024820152783234b9b0b13632b2103337b9103b37ba34b733903837bbb2b960391b6044820152606490fd5b61236d565b3461050557604036600319011261050557600435610d2a8161050a565b60243590610d4965ffffffffffff610d41436145e8565b168310613444565b6001600160a01b03166000908152600c6020526040812080549290918360058111610e11575b50905b838210610dc057505081610d99575050602060005b6040516001600160e01b039091168152f35b610db4610dbb91602093600019019060005260206000200190565b5460201c90565b610d87565b9092610dcc8185614418565b908263ffffffff610df1610de7858860005260206000200190565b5463ffffffff1690565b161115610e015750925b90610d72565b9350610e0c906123e0565b610dfb565b80610e21610e279296939661442d565b906124d5565b908263ffffffff610e42610de7858860005260206000200190565b161115610e525750925b38610d6f565b9350610e5d906123e0565b610e4c565b3461050557602036600319011261050557600435610e7e6132c4565b7f3b381fdfc0e2729a70e8b26ae2397e9014f703a8235b557f5581c4ed47280fd26020600092610ec7848080808560018060a01b03600154165af1610ec1613209565b50613239565b604051908152a180f35b34610505576000366003190112610505576020601954604051908152f35b34610505576000366003190112610505574365ffffffffffff610f11436145e8565b1603610f5c57610483604051610f2681610590565b601d81527f6d6f64653d626c6f636b6e756d6265722666726f6d3d64656661756c74000000602082015260405191829182610412565b60405162461bcd60e51b815260206004820152601d60248201527f4552433230566f7465733a2062726f6b656e20636c6f636b206d6f64650000006044820152606490fd5b34610505576020366003190112610505576020600435610fc08161050a565b60018060a01b03809116600052600b825260406000205416604051908152f35b3461050557602036600319011261050557610b8c6004356110008161050a565b33613806565b3461050557610b8c610a9661105861101d366109ce565b929493604096929651610a8b81610a7d8a8a602084019687916054939183526001600160601b03199060601b16602083015260348201520190565b612f57565b346105055760203660031901126105055760043561107a8161050a565b60018060a01b0316600052600c602052602061109a60406000205461464f565b63ffffffff60405191168152f35b34610505576020366003190112610505576004356110c58161050a565b60018060a01b031660005260026020526020604060002054604051908152f35b3461050557600080600319360112610502576110ff6132c4565b805462010000600160b01b031981168255819060101c6001600160a01b03167f8be0079c531659141344cd1fd0a4f28419497f9722a3daafe3b4186f6b6457e08280a380f35b34610505576040366003190112610505576004356111628161050a565b7fd81661cef4e40e0f1f97384c033d606e4d6b570554fc3524568d8f9fc84c838861085b602435926111926132c4565b6001600160a01b0381166000908152600f602052604090206111b8906122eb565b6122eb565b6111ca6111c58251151590565b612322565b600085131561133157845b6001600160781b03916111e9838310612394565b60008712156112e6576112c392611248611243846112a29461123e8261123761122b60206011549561121d85881015612416565b01516001600160781b031690565b6001600160781b031690565b1015612472565b6124d5565b601155565b6001600160a01b0385166000908152600f602052604090206112819091841661127c83546001600160781b039060081c1690565b6124e2565b610100600160801b0382549160081b1690610100600160801b031916179055565b6010546001600160a01b031660005460101c6001600160a01b031690613d7f565b6112cc816124fb565b6040519384526001600160a01b0316929081906020820190565b5061128161132c926112fd611243846011546123ee565b6001600160a01b0385166000908152600f602052604090209216610b3583546001600160781b039060081c1690565b6112c3565b61133a85612383565b6111d5565b34610505576020366003190112610505577f914960aef5e033ce5cae8a7992d4b7a6f0f9741227b66acb67c605b7019f8a46602060043561137e6132c4565b80601955604051908152a1005b34610505576020366003190112610505576004356113a88161050a565b60018060a01b031660005260096020526020604060002054604051908152f35b346105055760008060031936011261050257611465906114077f0000000000000000000000000000000000000000000000000000000000000000614261565b906114317f000000000000000000000000000000000000000000000000000000000000000061435b565b906040519161143f836105ab565b818352611473602091604051968796600f60f81b885260e08589015260e08801906103d2565b9086820360408801526103d2565b904660608601523060808601528260a086015284820360c08601528080855193848152019401925b8281106114aa57505050500390f35b83518552869550938101939281019260010161149b565b346105055760c0366003190112610505576004356114de8161050a565b6044356001600160401b03811161050557611500611564913690600401610654565b9160843561150d8161050a565b60a4359161151a8361050a565b6000549461153f60ff8760081c1615809781986115e2575b81156115c2575b50612a5d565b85611552600160ff196000541617600055565b6115a9575b6064359160243590612ac0565b61156a57005b61157a61ff001960005416600055565b604051600181527f7f26b83ff96e1f2b6a682f133852f6798a09c465da95921460cefb384740249890602090a1005b6115bd61010061ff00196000541617600055565b611557565b303b159150816115d4575b5038611539565b6001915060ff1614386115cd565b600160ff8216109150611532565b346105055760003660031901126105055760005460405160109190911c6001600160a01b03168152602090f35b346105055760203660031901126105055760043561164c65ffffffffffff611644436145e8565b168210613444565b600d5490600082600581116116ca575b50905b82821061168b578280611679575060405160008152602090f35b610dbb610db460209260001901613d55565b90916116978184614418565b908263ffffffff6116aa610de785613d55565b1611156116ba5750915b9061165f565b92506116c5906123e0565b6116b4565b80610e216116da9295939561442d565b908263ffffffff6116ed610de785613d55565b1611156116fd5750915b3861165c565b9250611708906123e0565b6116f7565b34610505576000366003190112610505576020611729436145e8565b65ffffffffffff60405191168152f35b3461050557600080600319360112610502576040518160065461175b81612090565b9081845260209260019182811690816000146104e057506001146117895761048385610477818903826105fc565b929450600683527ff652222313e28459528d920b65115c16c04f3efc82aaedc97be59f3f377c0d3f5b8284106117cf575050508161048393610477928201019338610467565b80548585018701529285019281016117b2565b34610505576020366003190112610505576004356117ff8161050a565b6001600160a01b03166000908152600c6020526040902080548061182b57505060405160008152602090f35b60209161183c91600019019061340a565b5054811c610d87565b3461050557602080600319360112610505576001600160401b0360043581811161050557611877903690600401610654565b916118806132c4565b825191821161058b5761189d82611898601354612090565b6125eb565b80601f831160011461190b575081906118cd93600092611900575b50508160011b916000199060031b1c19161790565b6013555b6118d9612717565b7fd70c1392a974224e639e7a9607dcb2c766826aecfe2dc356f442ce0488b01e1f600080a2005b0151905038806118b8565b90601f1983169361192c60136000526000805160206146cf83398151915290565b926000905b86821061196b5750508360019510611952575b505050811b016013556118d1565b015160001960f88460031b161c19169055388080611944565b80600185968294968601518155019501930190611931565b34610505576000366003190112610505576104836040516119a381610570565b602981527f506572416464726573735472616e63686556657374696e674d65726b6c65446960208201526839ba3934b13aba37b960b91b60408201526040519182916020835260208301906103d2565b3461050557604036600319011261050557600435611a108161050a565b336000526003602052611a3c6024359160406000209060018060a01b0316600052602052604060002090565b54101561337d5760405162461bcd60e51b815260206004820152602560248201527f45524332303a2064656372656173656420616c6c6f77616e63652062656c6f77604482015264207a65726f60d81b6064820152608490fd5b346105055760203660031901126105055760206106e3600435611ab88161050a565b61289d565b346105055760008060031936011261050257611ad76132c4565b7f3b381fdfc0e2729a70e8b26ae2397e9014f703a8235b557f5581c4ed47280fd2602047610ec7848080808560018060a01b03600154165af1610ec1613209565b3461050557602036600319011261050557611b3460043561050a565b6020601854604051908152f35b6064359060ff8216820361050557565b6084359060ff8216820361050557565b346105055760c036600319011261050557600435611b7e8161050a565b60443590602435611b8d611b41565b92804211611c4b57611c1d611c4691610b8c9560405190611c0582611bf76020820195898b8860609194939260808201957fe48329057bfd03d55e49b547132e39cffd9c1820ad7b9d4c5307691425d15adf835260018060a01b0316602083015260408201520152565b03601f1981018452836105fc565b611c1860a435936084359351902061423b565b613f48565b6001600160a01b0381166000908152600960205260409020805460018101909155909214613490565b613806565b60405162461bcd60e51b815260206004820152601d60248201527f4552433230566f7465733a207369676e617475726520657870697265640000006044820152606490fd5b34610505576000366003190112610505576015546040516001600160a01b039091168152602090f35b34610505576000366003190112610505576001546040516001600160a01b039091168152602090f35b34610505576020366003190112610505577f6c339c0bee516a4df5d7074ba7a974856d609f83666e915aa4a0f90e06989dc56020600435611d216132c4565b80601855604051908152a1005b3461050557606036600319011261050557600435611d4b8161050a565b6044356001600160401b03811161050557602091611d706106e3923690600401610654565b9060243590612926565b346105055760e036600319011261050557600435611d978161050a565b60243590611da48261050a565b60643591611db0611b51565b90834211611e755761053793611e6292611e4f611de88660018060a01b03166000526009602052604060002090815491600183019055565b611bf76040519485926020840197604435908b8a91959493909260a09360c08401977f6e71edae12b1b97f4d1f60370fef10105fa2faae0126114a169c64845d6126c98552600180871b038092166020860152166040840152606083015260808201520152565b611c1860c4359360a4359351902061423b565b6001600160a01b039081169116146133be565b60405162461bcd60e51b815260206004820152601d60248201527f45524332305065726d69743a206578706972656420646561646c696e650000006044820152606490fd5b34610505576040366003190112610505576020611f14600435611edc8161050a565b60243590611ee98261050a565b60018060a01b03166000526003835260406000209060018060a01b0316600052602052604060002090565b54604051908152f35b3461050557602036600319011261050557610b8c600435611f3d8161050a565b611f456132c4565b613278565b34610505576000366003190112610505576020601254604051908152f35b3461050557602036600319011261050557610483600435611f888161050a565b6040906000828051611f9981610570565b828152826020820152015260018060a01b0316600052600f6020528060002090805191611fc583610570565b5460ff8116151583526001600160781b0390818160081c16602085015260801c1681830152519182918291909160406060820193805115158352816020820151916001600160781b038093166020860152015116910152565b346105055760403660031901126105055760043561203b8161050a565b7ff4a44a7f605c4971a27bcecb448108e6328b7fad34fab5bff4f69377294b826d60206024359261206a6132c4565b6001546001600160a01b039190612085908690841683613d7f565b6040519485521692a2005b90600182811c921680156120c0575b60208310146120aa57565b634e487b7160e01b600052602260045260246000fd5b91607f169161209f565b346105055760008060031936011261050257604051816013546120ec81612090565b9081845260209260019182811690816000146104e0575060011461211a5761048385610477818903826105fc565b929450601383526000805160206146cf8339815191525b82841061214e575050508161048393610477928201019338610467565b8054858501870152928501928101612131565b346105055760403660031901126105055760043561217e8161050a565b63ffffffff6024358181168103610505576121c86121ce916040946000602087516121a881610590565b82815201526001600160a01b03166000908152600c60205285902061340a565b50613422565b8251815190921682526020908101516001600160e01b031690820152f35b34610505576020366003190112610505576004356122098161050a565b6122116132c4565b6001600160a01b0381161561222957610b8c9061331f565b60405162461bcd60e51b815260206004820152602660248201527f4f776e61626c653a206e6577206f776e657220697320746865207a65726f206160448201526564647265737360d01b6064820152608490fd5b34610505576000366003190112610505576016546040516001600160a01b039091168152602090f35b34610505576000366003190112610505576010546040516001600160a01b039091168152602090f35b3461050557600036600319011261050557602060405160038152f35b906040516122f881610570565b604081935460ff8116151583526001600160781b0390818160081c16602085015260801c16910152565b1561232957565b606460405162461bcd60e51b815260206004820152602060248201527f6d75737420696e697469616c697a65206265666f72652061646a757374696e676044820152fd5b634e487b7160e01b600052601160045260246000fd5b600160ff1b8114610d085760000390565b1561239b57565b60405162461bcd60e51b815260206004820152601860248201527f61646a7573746d656e74203e206d61782075696e7431323000000000000000006044820152606490fd5b9060018201809211610d0857565b91908201809211610d0857565b9190916001600160781b0380809416911601918211610d0857565b1561241d57565b60405162461bcd60e51b815260206004820152602760248201527f64656372656173652067726561746572207468616e206469737472696275746f6044820152661c881d1bdd185b60ca1b6064820152608490fd5b1561247957565b60405162461bcd60e51b815260206004820152602e60248201527f64656372656173652067726561746572207468616e206469737472696275746960448201526d1bdb949958dbdc99081d1bdd185b60921b6064820152608490fd5b91908203918211610d0857565b6001600160781b039182169082160391908211610d0857565b6001600160a01b038116600090815260026020908152604080832054600f90925290912090919061252b906122eb565b6001600160781b0380602081604085015116930151168083101560001461258c5750505060005b8083111561256d576125679061062a936124d5565b9061361f565b80831061257957505050565b61062a92612586916124d5565b90613541565b6125a392612599916124e2565b16601854906125b8565b6014549081156125b35704612552565b6125cb565b81810292918115918404141715610d0857565b634e487b7160e01b600052601260045260246000fd5b81156125b3570490565b601f81116125f7575050565b600090601382526000805160206146cf833981519152906020601f850160051c83019410612640575b601f0160051c01915b82811061263557505050565b818155600101612629565b9092508290612620565b9081516001600160401b03811161058b5761266a81611898601354612090565b602080601f83116001146126a15750819061269c93946000926119005750508160011b916000199060031b1c19161790565b601355565b90601f198316946126c260136000526000805160206146cf83398151915290565b926000905b8782106126ff5750508360019596106126e6575b505050811b01601355565b015160001960f88460031b161c191690553880806126db565b806001859682949686015181550195019301906126c7565b60405180600060135461272981612090565b9060019081811690811561278b5750600114612748575b505003902090565b601360009081529192506000805160206146cf8339815191525b8383106127755750505081013880612740565b8054868401528594506020909201918101612762565b60ff19168552505080151502820190503880612740565b6001600160a01b0381166000908152600f602052604090205460ff161561284d57612835604061282661281d61280d6127f06111b38760018060a01b0316600052600f602052604060002090565b9661280560208901516001600160781b031690565b964290612926565b6001600160781b038096166125b8565b601454906125e1565b9301516001600160781b031690565b16818110612844575050600090565b610423916124d5565b60405162461bcd60e51b815260206004820152602260248201527f4469737472696275746f723a20636c61696d206e6f7420696e697469616c697a604482015261195960f21b6064820152608490fd5b6015546001600160a01b03919082169081156128c457829081806017541691161816041690565b505050600090565b6001600160401b03811161058b5760051b60200190565b51906001600160801b038216820361050557565b634e487b7160e01b600052603260045260246000fd5b80518210156129215760209160051b010190565b6128f7565b82519060209184018281019483818303126105055783810151906001600160401b03821161050557019480603f87011215610505578386015160409261296b826128cc565b976129788551998a6105fc565b82895284878a019360061b820101938411610505578401915b838310612a1f5750505050506129a69061289d565b8351805b6129b8575050505050600090565b60001901906129c781856124d5565b6129f16129e56129d7858961290d565b51516001600160801b031690565b6001600160801b031690565b106129fd5790806129aa565b506129e59250612a10906104239461290d565b5101516001600160801b031690565b84878484030112610505578685918251612a3881610590565b612a41866128e3565b8152612a4e8387016128e3565b83820152815201920191612991565b15612a6457565b60405162461bcd60e51b815260206004820152602e60248201527f496e697469616c697a61626c653a20636f6e747261637420697320616c72656160448201526d191e481a5b9a5d1a585b1a5e995960921b6064820152608490fd5b90949392919260018060a01b03612ae760ff60005460081c16612ae281612c28565b612c28565b612af2818716613278565b7f6c339c0bee516a4df5d7074ba7a974856d609f83666e915aa4a0f90e06989dc5602061271080601855604051908152a1612b3460ff60005460081c16612c28565b80831615612be457612b7e612bdf95612b7989611243612bda97612b5c61062a9d1515612cca565b60018060a01b03166001600160601b0360a01b6010541617601055565b61264a565b612b89612710601455565b6010546001600160a01b03167f433127dedcff849792656a12f4a9dbc0efeb80df5cce6310f53481a93cd71c718260115492612bcf601454604051938493169583612d16565b0390a2831690612dc7565b612c88565b61331f565b606460405162461bcd60e51b815260206004820152602060248201527f4469737472696275746f723a20746f6b656e20697320616464726573732830296044820152fd5b15612c2f57565b60405162461bcd60e51b815260206004820152602b60248201527f496e697469616c697a61626c653a20636f6e7472616374206973206e6f74206960448201526a6e697469616c697a696e6760a81b6064820152608490fd5b60207f914960aef5e033ce5cae8a7992d4b7a6f0f9741227b66acb67c605b7019f8a4691612cbd60ff60005460081c16612c28565b80601955604051908152a1565b15612cd157565b60405162461bcd60e51b815260206004820152601760248201527f4469737472696275746f723a20746f74616c20697320300000000000000000006044820152606490fd5b92919083526020606081850152600060135491612d3283612090565b908160608801526080936001908181169081600014612da65750600114612d60575b50505060409150930152565b6013600090815293506000805160206146cf8339815191525b838510612d93575050505090604091850101388080612d54565b8054898601870152938201938101612d79565b92505050604093925060ff191682870152151560051b850101388080612d54565b90612dd960ff60005460081c16612c28565b601680546001600160a01b039384166001600160a01b0319918216811790925590928315600081612e4c57506125b357837fdccb8d94a5bbd764ed844afa20f2581be18d3fa84b36855e86a8f0c9316cba7d928261062a96602094045b16906015541617601555604051908152a1612e7d565b61062a959150926020927fdccb8d94a5bbd764ed844afa20f2581be18d3fa84b36855e86a8f0c9316cba7d94612e36565b6015546001600160a01b039190821615612f055781811615612ec0576000194301438111610d08578290401618166001600160601b0360a01b6017541617601755565b60405162461bcd60e51b815260206004820152601860248201527f492064656d616e64206d6f72652072616e646f6d6e65737300000000000000006044820152606490fd5b5050565b9291612f14826128cc565b91612f2260405193846105fc565b829481845260208094019160051b810192831161050557905b828210612f485750505050565b81358152908301908301612f3b565b6001600160781b038083116130305761062a9216612fe9612f9d612f8d8460018060a01b0316600052600f602052604060002090565b5460801c6001600160781b031690565b612fcc612fa861061d565b60018152916001600160781b03851660208401526001600160781b03166040830152565b6001600160a01b0384166000908152600f6020526040902061308a565b6040516001600160781b039190911681526001600160a01b038216907fdb598eb8e0a3d3d5c2e02e4cab1ee8b65bb20e48fc7b42f4c76272de4cdd243490602090a26124fb565b60405162461bcd60e51b815260206004820152602c60248201527f4469737472696275746f723a20746f74616c416d6f756e74203e20747970652860448201526b0ead2dce8626460525cdac2f60a31b6064820152608490fd5b815181546020840151610100600160801b0360089190911b1691151560ff166fffffffffffffffffffffffffffffffff199091161717815561062a916001600160781b0390604001518254600160801b600160f81b031916911660801b600160801b600160f81b0316179055565b60195492600092915b825184101561314f57613114848461290d565b5190600082821015613140575060005260205260406000205b926000198114610d085760010192613101565b9060409282526020522061312d565b91509291500361315b57565b60405162461bcd60e51b815260206004820152600d60248201526c34b73b30b634b210383937b7b360991b6044820152606490fd5b60405161319c816105ab565b60008152906000368137565b60207f47cee97cb7acd717b3c0aa1435d004cd5b3c8c57d70dbceb4e4458bbd60e39d49160018060a01b03906131e385828460105416613d7f565b6040519485521692a2565b90816020910312610505575190565b6040513d6000823e3d90fd5b3d15613234573d9061321a82610639565b9161322860405193846105fc565b82523d6000602084013e565b606090565b1561324057565b60405162461bcd60e51b815260206004820152601060248201526f2a3930b739b332b9103330b4b632b21760811b6044820152606490fd5b600180546001600160a01b0319166001600160a01b0390921691821790556040519081527fccdd1baf560d2682736fa25752c8ccc0c5fc4079b245b0acf7389776308d5b1f90602090a1565b60005460101c6001600160a01b031633036132db57565b606460405162461bcd60e51b815260206004820152602060248201527f4f776e61626c653a2063616c6c6572206973206e6f7420746865206f776e65726044820152fd5b6000805462010000600160b01b03198116601084811b62010000600160b01b03169190911783556001600160a01b039384169391901c16907f8be0079c531659141344cd1fd0a4f28419497f9722a3daafe3b4186f6b6457e09080a3565b60405162461bcd60e51b81526020600482015260196024820152783234b9b0b13632b2103337b9103b37ba34b733903837bbb2b960391b6044820152606490fd5b156133c557565b60405162461bcd60e51b815260206004820152601e60248201527f45524332305065726d69743a20696e76616c6964207369676e617475726500006044820152606490fd5b80548210156129215760005260206000200190600090565b9060405161342f81610590565b602081935463ffffffff81168352811c910152565b1561344b57565b60405162461bcd60e51b815260206004820152601960248201527f4552433230566f7465733a20667574757265206c6f6f6b7570000000000000006044820152606490fd5b1561349757565b60405162461bcd60e51b815260206004820152601960248201527f4552433230566f7465733a20696e76616c6964206e6f6e6365000000000000006044820152606490fd5b156134e357565b60405162461bcd60e51b815260206004820152603060248201527f4552433230566f7465733a20746f74616c20737570706c79207269736b73206f60448201526f766572666c6f77696e6720766f74657360801b6064820152608490fd5b906001600160a01b03821680156135da57600454828101809111610d0857612f05936135bf926135718593600455565b6001600160a01b0382166000908152600260209081526040808320805487019055518581527fddf252ad1be2c89b69c2b068fc378daa952ba7f163c4a11628f55a4df523b3ef9190a361376d565b6004546135d5906001600160e01b0310156134dc565b613b53565b60405162461bcd60e51b815260206004820152601f60248201527f45524332303a206d696e7420746f20746865207a65726f2061646472657373006044820152606490fd5b6001600160a01b038116919082156136c75781816000612f0595836136596136c29660018060a01b03166000526002602052604060002090565b5461366682821015613716565b036136838460018060a01b03166000526002602052604060002090565b556136918460045403600455565b6040518481527fddf252ad1be2c89b69c2b068fc378daa952ba7f163c4a11628f55a4df523b3ef90602090a36137b8565b613c43565b60405162461bcd60e51b815260206004820152602160248201527f45524332303a206275726e2066726f6d20746865207a65726f206164647265736044820152607360f81b6064820152608490fd5b1561371d57565b60405162461bcd60e51b815260206004820152602260248201527f45524332303a206275726e20616d6f756e7420657863656564732062616c616e604482015261636560f01b6064820152608490fd5b600b6020527fdf7de25b7f1fd6d0b5205f0e18f1f35bd7b8d84cce336588d184533ce43a6f76546001600160a01b039182166000908152604090205461062a93929081169116613876565b6001600160a01b039081166000908152600b60205260408120549080527fdf7de25b7f1fd6d0b5205f0e18f1f35bd7b8d84cce336588d184533ce43a6f765461062a93929081169116613876565b61062a9160018060a01b03809216600092818452600b60205280604085205416809260026020527f3134e8a2e6d97e929a7e54011ea5485d7d196dd5f0ba4d4ef95803e8e3fc257f604087205496600b6020526040812094871694856001600160601b0360a01b82541617905580a45b6001600160a01b03808316939291168084141580613a89575b61389a575b50505050565b80613908575b50826138ad575b80613894565b6001600160a01b03166000908152600c602052604090207fdec2bacdd2f05b59de34da9b523dff8be42e5e38e818c82fdb0bae774387a724916138ef91613c9c565b60408051928352602083019190915290a23880806138a7565b80600052600c6020527fdec2bacdd2f05b59de34da9b523dff8be42e5e38e818c82fdb0bae774387a7246040600020805480159182600014613a665761394c61062c565b6000815260006020820152915b6020830151613978906001600160e01b03165b6001600160e01b031690565b9261398389856146b4565b94159081613a43575b50156139e1576139b46139cb926139a28661457f565b92600019019060005260206000200190565b9063ffffffff82549181199060201b169116179055565b604080519182526020820192909252a2386138a0565b50613a3e90613a05613a006139f5436145e8565b65ffffffffffff1690565b61464f565b90613a39613a128661457f565b613a29613a1d61062c565b63ffffffff9095168552565b6001600160e01b03166020840152565b613af9565b6139cb565b5163ffffffff16905063ffffffff613a5d6139f5436145e8565b9116143861398c565b613a83613a7e60001984018360005260206000200190565b613422565b91613959565b5082151561388f565b600d5490600160401b82101561058b576001820180600d5582101561292157600d600052805160209182015190911b63ffffffff191663ffffffff91909116177fd7b6990105719101dabeb77144f2a3385c8033acd3af97e9423a695e81ad1eb590910155565b8054600160401b81101561058b57613b169160018201815561340a565b613b3d57815160209283015190921b63ffffffff191663ffffffff92909216919091179055565b634e487b7160e01b600052600060045260246000fd5b600d5490918115918215613c2e57613b6961062c565b60008152600060208201525b6020810151613b9790613b90906001600160e01b031661396c565b95866146c1565b93159081613c0b575b5015613bc05761062a906139b4613bb68561457f565b9160001901613d55565b5061062a613bd3613a006139f5436145e8565b613c06613bdf8561457f565b613bf6613bea61062c565b63ffffffff9094168452565b6001600160e01b03166020830152565b613a92565b5163ffffffff16905063ffffffff613c256139f5436145e8565b91161438613ba0565b613c3e613a7e6000198301613d55565b613b75565b600d5490918115918215613c8757613c5961062c565b60008152600060208201525b6020810151613b9790613c80906001600160e01b031661396c565b95866146b4565b613c97613a7e6000198301613d55565b613c65565b909181549182159283600014613d3857613cb461062c565b60008152600060208201525b6020810151613ce290613cdb906001600160e01b031661396c565b96876146c1565b94159081613d15575b5015613d01576139b461062a926139a28661457f565b5061062a90613a05613a006139f5436145e8565b5163ffffffff16905063ffffffff613d2f6139f5436145e8565b91161438613ceb565b613d50613a7e60001983018460005260206000200190565b613cc0565b600d6000527fd7b6990105719101dabeb77144f2a3385c8033acd3af97e9423a695e81ad1eb50190565b60405163a9059cbb60e01b602082019081526001600160a01b039384166024830152604480830195909552938152613e0e929091613dbc836105c6565b1660405191613dca83610590565b602083527f5361666545524332303a206c6f772d6c6576656c2063616c6c206661696c65646020840152600080958192519082855af1613e08613209565b91613eb3565b8051908115918215613e27575b505061062a9150613e54565b8192509060209181010312613e505760200151908115158203610502575061062a903880613e1b565b5080fd5b15613e5b57565b60405162461bcd60e51b815260206004820152602a60248201527f5361666545524332303a204552433230206f7065726174696f6e20646964206e6044820152691bdd081cdd58d8d9595960b21b6064820152608490fd5b91929015613f155750815115613ec7575090565b3b15613ed05790565b60405162461bcd60e51b815260206004820152601d60248201527f416464726573733a2063616c6c20746f206e6f6e2d636f6e74726163740000006044820152606490fd5b825190915015613f285750805190602001fd5b60405162461bcd60e51b8152908190613f449060048301610412565b0390fd5b916104239391613f579361409f565b919091613f7f565b60051115613f6957565b634e487b7160e01b600052602160045260246000fd5b613f8881613f5f565b80613f905750565b613f9981613f5f565b60018103613fe65760405162461bcd60e51b815260206004820152601860248201527f45434453413a20696e76616c6964207369676e617475726500000000000000006044820152606490fd5b613fef81613f5f565b6002810361403c5760405162461bcd60e51b815260206004820152601f60248201527f45434453413a20696e76616c6964207369676e6174757265206c656e677468006044820152606490fd5b80614048600392613f5f565b1461404f57565b60405162461bcd60e51b815260206004820152602260248201527f45434453413a20696e76616c6964207369676e6174757265202773272076616c604482015261756560f01b6064820152608490fd5b9291907f7fffffffffffffffffffffffffffffff5d576e7357a4501ddfe92f46681b20a083116141155791608094939160ff602094604051948552168484015260408301526060820152600093849182805260015afa156108945781516001600160a01b0381161561410f579190565b50600190565b50505050600090600390565b307f00000000000000000000000000000000000000000000000000000000000000006001600160a01b03161480614212575b1561417c577f000000000000000000000000000000000000000000000000000000000000000090565b60405160208101907f8b73c3c69bb8fe3d512ecc4cf759cc79239f7b179b0ffacaa9a75d522b39400f82527f000000000000000000000000000000000000000000000000000000000000000060408201527f000000000000000000000000000000000000000000000000000000000000000060608201524660808201523060a082015260a0815261420c816105e1565b51902090565b507f00000000000000000000000000000000000000000000000000000000000000004614614153565b604290614246614121565b906040519161190160f01b8352600283015260228201522090565b60ff811461429f5760ff811690601f821161428d576040519161428383610590565b8252602082015290565b604051632cd44ac360e21b8152600490fd5b506040516007548160006142b283612090565b80835260209360019081811690811561433b57506001146142dc575b5050610423925003826105fc565b9093915060076000527fa66cc928b5edb82af9bd49922954155ab7b0942694bea4ce44661d9a8736c688936000915b818310614323575050610423935082010138806142ce565b8554878401850152948501948694509183019161430b565b91505061042394925060ff191682840152151560051b82010138806142ce565b60ff811461437d5760ff811690601f821161428d576040519161428383610590565b5060405160085481600061439083612090565b80835260209360019081811690811561433b57506001146143b9575050610423925003826105fc565b9093915060086000527ff3f7a9fe364faab93b216da50a3214154f22a0a2b415b23a84c8169e8b636ee3936000915b818310614400575050610423935082010138806142ce565b855487840185015294850194869450918301916143e8565b90808216911860011c8101809111610d085790565b801561456757806145006144f96144ef6144e56144db6144d16144c76144bd60016104239a6000908b60801c8061455b575b508060401c8061454e575b508060201c80614541575b508060101c80614534575b508060081c80614527575b508060041c8061451a575b508060021c8061450d575b50821c614506575b811c1b6144b6818b6125e1565b0160011c90565b6144b6818a6125e1565b6144b681896125e1565b6144b681886125e1565b6144b681876125e1565b6144b681866125e1565b6144b681856125e1565b80926125e1565b9061456d565b81016144a9565b60029150910190386144a1565b6004915091019038614496565b600891509101903861448b565b6010915091019038614480565b6020915091019038614475565b604091509101903861446a565b9150506080903861445f565b50600090565b908082101561457a575090565b905090565b6001600160e01b0390818111614593571690565b60405162461bcd60e51b815260206004820152602760248201527f53616665436173743a2076616c756520646f65736e27742066697420696e20326044820152663234206269747360c81b6064820152608490fd5b65ffffffffffff908181116145fb571690565b60405162461bcd60e51b815260206004820152602660248201527f53616665436173743a2076616c756520646f65736e27742066697420696e203460448201526538206269747360d01b6064820152608490fd5b63ffffffff90818111614660571690565b60405162461bcd60e51b815260206004820152602660248201527f53616665436173743a2076616c756520646f65736e27742066697420696e203360448201526532206269747360d01b6064820152608490fd5b908103908111610d085790565b908101809111610d08579056fe66de8ffda797e3de9c05e8fc57b3bf0ec28a930d40b0d285d93c06501cf6a090a2646970667358221220a3c9a6627a046852110ce131809533aaecde08d70b35fac5a5b4dc87193d679b64736f6c63430008150033","linkReferences":{}},"methodIdentifiers":{"CLOCK_MODE()":"4bf5d7e9","DOMAIN_SEPARATOR()":"3644e515","NAME()":"a3f4df7e","VERSION()":"ffa1ad74","adjust(address,int256)":"75aa9bc6","allowance(address,address)":"dd62ed3e","approve(address,uint256)":"095ea7b3","balanceOf(address)":"70a08231","checkpoints(address,uint32)":"f1127ed8","claim(uint256,address,uint256,bytes32[])":"2e7ba6ef","claimed()":"e834a834","clock()":"91ddadf4","decimals()":"313ce567","decreaseAllowance(address,uint256)":"a457c2d7","delegate(address)":"5c19a95c","delegateBySig(address,uint256,uint256,uint8,bytes32,bytes32)":"c3cda520","delegates(address)":"587cde1e","distancePerSecond()":"c6e8d982","eip712Domain()":"84b0196e","getClaimableAmount(address,bytes)":"13c67ce5","getDistributionRecord(address)":"e85858d9","getFairDelayTime(address)":"a4ef1f78","getFractionDenominator()":"0f56b96c","getMerkleRoot()":"49590657","getPastTotalSupply(uint256)":"8e539e8c","getPastVotes(address,uint256)":"3a46b1a8","getSweepRecipient()":"c78d5985","getTotalVotes()":"9a0e7d66","getVestedFraction(address,uint256,bytes)":"d3d0ec89","getVoteFactor(address)":"bb22dccb","getVotes(address)":"9ab24eb0","increaseAllowance(address,uint256)":"39509351","initialize(address,uint256,string,bytes32,uint160,address)":"8d31aa63","initializeDistributionRecord(uint256,address,uint256,bytes32[])":"684de1f5","maxDelayTime()":"f56c8547","name()":"06fdde03","nonces(address)":"7ecebe00","numCheckpoints(address)":"6fcfff45","owner()":"8da5cb5b","permit(address,address,uint256,uint256,uint8,bytes32,bytes32)":"d505accf","randomValue()":"276801ec","renounceOwnership()":"715018a6","setMerkleRoot(bytes32)":"7cb64759","setSweepRecipient(address)":"de032f58","setToken(address)":"144fa6d7","setTotal(uint256)":"1f8d1d50","setUri(string)":"9b642de1","setVoteFactor(uint256)":"c9557255","sweepNative()":"ab803a76","sweepNative(uint256)":"3cf3a025","sweepToken(address)":"1be19560","sweepToken(address,uint256)":"e90a182f","symbol()":"95d89b41","token()":"fc0c546a","total()":"2ddbd13a","totalSupply()":"18160ddd","transfer(address,uint256)":"a9059cbb","transferFrom(address,address,uint256)":"23b872dd","transferOwnership(address)":"f2fde38b","uri()":"eac989f8"},"id":15}