{"abi":[{"type":"constructor","inputs":[],"stateMutability":"nonpayable"},{"type":"function","name":"CLOCK_MODE","inputs":[],"outputs":[{"name":"","type":"string","internalType":"string"}],"stateMutability":"view"},{"type":"function","name":"DOMAIN_SEPARATOR","inputs":[],"outputs":[{"name":"","type":"bytes32","internalType":"bytes32"}],"stateMutability":"view"},{"type":"function","name":"NAME","inputs":[],"outputs":[{"name":"","type":"string","internalType":"string"}],"stateMutability":"pure"},{"type":"function","name":"VERSION","inputs":[],"outputs":[{"name":"","type":"uint256","internalType":"uint256"}],"stateMutability":"pure"},{"type":"function","name":"adjust","inputs":[{"name":"beneficiary","type":"address","internalType":"address"},{"name":"amount","type":"int256","internalType":"int256"}],"outputs":[],"stateMutability":"nonpayable"},{"type":"function","name":"allowance","inputs":[{"name":"owner","type":"address","internalType":"address"},{"name":"spender","type":"address","internalType":"address"}],"outputs":[{"name":"","type":"uint256","internalType":"uint256"}],"stateMutability":"view"},{"type":"function","name":"approve","inputs":[{"name":"spender","type":"address","internalType":"address"},{"name":"amount","type":"uint256","internalType":"uint256"}],"outputs":[{"name":"","type":"bool","internalType":"bool"}],"stateMutability":"nonpayable"},{"type":"function","name":"balanceOf","inputs":[{"name":"account","type":"address","internalType":"address"}],"outputs":[{"name":"","type":"uint256","internalType":"uint256"}],"stateMutability":"view"},{"type":"function","name":"checkpoints","inputs":[{"name":"account","type":"address","internalType":"address"},{"name":"pos","type":"uint32","internalType":"uint32"}],"outputs":[{"name":"","type":"tuple","internalType":"struct ERC20Votes.Checkpoint","components":[{"name":"fromBlock","type":"uint32","internalType":"uint32"},{"name":"votes","type":"uint224","internalType":"uint224"}]}],"stateMutability":"view"},{"type":"function","name":"claim","inputs":[{"name":"index","type":"uint256","internalType":"uint256"},{"name":"beneficiary","type":"address","internalType":"address"},{"name":"totalAmount","type":"uint256","internalType":"uint256"},{"name":"start","type":"uint256","internalType":"uint256"},{"name":"cliff","type":"uint256","internalType":"uint256"},{"name":"end","type":"uint256","internalType":"uint256"},{"name":"merkleProof","type":"bytes32[]","internalType":"bytes32[]"}],"outputs":[],"stateMutability":"nonpayable"},{"type":"function","name":"claimed","inputs":[],"outputs":[{"name":"","type":"uint256","internalType":"uint256"}],"stateMutability":"view"},{"type":"function","name":"clock","inputs":[],"outputs":[{"name":"","type":"uint48","internalType":"uint48"}],"stateMutability":"view"},{"type":"function","name":"decimals","inputs":[],"outputs":[{"name":"","type":"uint8","internalType":"uint8"}],"stateMutability":"view"},{"type":"function","name":"decreaseAllowance","inputs":[{"name":"spender","type":"address","internalType":"address"},{"name":"subtractedValue","type":"uint256","internalType":"uint256"}],"outputs":[{"name":"","type":"bool","internalType":"bool"}],"stateMutability":"nonpayable"},{"type":"function","name":"delegate","inputs":[{"name":"delegatee","type":"address","internalType":"address"}],"outputs":[],"stateMutability":"nonpayable"},{"type":"function","name":"delegateBySig","inputs":[{"name":"delegatee","type":"address","internalType":"address"},{"name":"nonce","type":"uint256","internalType":"uint256"},{"name":"expiry","type":"uint256","internalType":"uint256"},{"name":"v","type":"uint8","internalType":"uint8"},{"name":"r","type":"bytes32","internalType":"bytes32"},{"name":"s","type":"bytes32","internalType":"bytes32"}],"outputs":[],"stateMutability":"nonpayable"},{"type":"function","name":"delegates","inputs":[{"name":"account","type":"address","internalType":"address"}],"outputs":[{"name":"","type":"address","internalType":"address"}],"stateMutability":"view"},{"type":"function","name":"distancePerSecond","inputs":[],"outputs":[{"name":"","type":"uint160","internalType":"uint160"}],"stateMutability":"view"},{"type":"function","name":"eip712Domain","inputs":[],"outputs":[{"name":"fields","type":"bytes1","internalType":"bytes1"},{"name":"name","type":"string","internalType":"string"},{"name":"version","type":"string","internalType":"string"},{"name":"chainId","type":"uint256","internalType":"uint256"},{"name":"verifyingContract","type":"address","internalType":"address"},{"name":"salt","type":"bytes32","internalType":"bytes32"},{"name":"extensions","type":"uint256[]","internalType":"uint256[]"}],"stateMutability":"view"},{"type":"function","name":"getClaimableAmount","inputs":[{"name":"beneficiary","type":"address","internalType":"address"},{"name":"data","type":"bytes","internalType":"bytes"}],"outputs":[{"name":"","type":"uint256","internalType":"uint256"}],"stateMutability":"view"},{"type":"function","name":"getDistributionRecord","inputs":[{"name":"beneficiary","type":"address","internalType":"address"}],"outputs":[{"name":"","type":"tuple","internalType":"struct DistributionRecord","components":[{"name":"initialized","type":"bool","internalType":"bool"},{"name":"total","type":"uint120","internalType":"uint120"},{"name":"claimed","type":"uint120","internalType":"uint120"}]}],"stateMutability":"view"},{"type":"function","name":"getFairDelayTime","inputs":[{"name":"user","type":"address","internalType":"address"}],"outputs":[{"name":"","type":"uint256","internalType":"uint256"}],"stateMutability":"view"},{"type":"function","name":"getFractionDenominator","inputs":[],"outputs":[{"name":"","type":"uint256","internalType":"uint256"}],"stateMutability":"view"},{"type":"function","name":"getMerkleRoot","inputs":[],"outputs":[{"name":"","type":"bytes32","internalType":"bytes32"}],"stateMutability":"view"},{"type":"function","name":"getPastTotalSupply","inputs":[{"name":"timepoint","type":"uint256","internalType":"uint256"}],"outputs":[{"name":"","type":"uint256","internalType":"uint256"}],"stateMutability":"view"},{"type":"function","name":"getPastVotes","inputs":[{"name":"account","type":"address","internalType":"address"},{"name":"timepoint","type":"uint256","internalType":"uint256"}],"outputs":[{"name":"","type":"uint256","internalType":"uint256"}],"stateMutability":"view"},{"type":"function","name":"getSweepRecipient","inputs":[],"outputs":[{"name":"","type":"address","internalType":"address payable"}],"stateMutability":"view"},{"type":"function","name":"getTotalVotes","inputs":[],"outputs":[{"name":"","type":"uint256","internalType":"uint256"}],"stateMutability":"view"},{"type":"function","name":"getVestedFraction","inputs":[{"name":"beneficiary","type":"address","internalType":"address"},{"name":"time","type":"uint256","internalType":"uint256"},{"name":"data","type":"bytes","internalType":"bytes"}],"outputs":[{"name":"","type":"uint256","internalType":"uint256"}],"stateMutability":"view"},{"type":"function","name":"getVoteFactor","inputs":[{"name":"","type":"address","internalType":"address"}],"outputs":[{"name":"","type":"uint256","internalType":"uint256"}],"stateMutability":"view"},{"type":"function","name":"getVotes","inputs":[{"name":"account","type":"address","internalType":"address"}],"outputs":[{"name":"","type":"uint256","internalType":"uint256"}],"stateMutability":"view"},{"type":"function","name":"increaseAllowance","inputs":[{"name":"spender","type":"address","internalType":"address"},{"name":"addedValue","type":"uint256","internalType":"uint256"}],"outputs":[{"name":"","type":"bool","internalType":"bool"}],"stateMutability":"nonpayable"},{"type":"function","name":"initialize","inputs":[{"name":"_token","type":"address","internalType":"contract IERC20"},{"name":"_total","type":"uint256","internalType":"uint256"},{"name":"_uri","type":"string","internalType":"string"},{"name":"_merkleRoot","type":"bytes32","internalType":"bytes32"},{"name":"_maxDelayTime","type":"uint160","internalType":"uint160"},{"name":"_owner","type":"address","internalType":"address"}],"outputs":[],"stateMutability":"nonpayable"},{"type":"function","name":"initializeDistributionRecord","inputs":[{"name":"index","type":"uint256","internalType":"uint256"},{"name":"beneficiary","type":"address","internalType":"address"},{"name":"amount","type":"uint256","internalType":"uint256"},{"name":"start","type":"uint256","internalType":"uint256"},{"name":"cliff","type":"uint256","internalType":"uint256"},{"name":"end","type":"uint256","internalType":"uint256"},{"name":"merkleProof","type":"bytes32[]","internalType":"bytes32[]"}],"outputs":[],"stateMutability":"nonpayable"},{"type":"function","name":"maxDelayTime","inputs":[],"outputs":[{"name":"","type":"uint160","internalType":"uint160"}],"stateMutability":"view"},{"type":"function","name":"name","inputs":[],"outputs":[{"name":"","type":"string","internalType":"string"}],"stateMutability":"view"},{"type":"function","name":"nonces","inputs":[{"name":"owner","type":"address","internalType":"address"}],"outputs":[{"name":"","type":"uint256","internalType":"uint256"}],"stateMutability":"view"},{"type":"function","name":"numCheckpoints","inputs":[{"name":"account","type":"address","internalType":"address"}],"outputs":[{"name":"","type":"uint32","internalType":"uint32"}],"stateMutability":"view"},{"type":"function","name":"owner","inputs":[],"outputs":[{"name":"","type":"address","internalType":"address"}],"stateMutability":"view"},{"type":"function","name":"permit","inputs":[{"name":"owner","type":"address","internalType":"address"},{"name":"spender","type":"address","internalType":"address"},{"name":"value","type":"uint256","internalType":"uint256"},{"name":"deadline","type":"uint256","internalType":"uint256"},{"name":"v","type":"uint8","internalType":"uint8"},{"name":"r","type":"bytes32","internalType":"bytes32"},{"name":"s","type":"bytes32","internalType":"bytes32"}],"outputs":[],"stateMutability":"nonpayable"},{"type":"function","name":"randomValue","inputs":[],"outputs":[{"name":"","type":"uint160","internalType":"uint160"}],"stateMutability":"view"},{"type":"function","name":"renounceOwnership","inputs":[],"outputs":[],"stateMutability":"nonpayable"},{"type":"function","name":"setMerkleRoot","inputs":[{"name":"_merkleRoot","type":"bytes32","internalType":"bytes32"}],"outputs":[],"stateMutability":"nonpayable"},{"type":"function","name":"setSweepRecipient","inputs":[{"name":"_recipient","type":"address","internalType":"address payable"}],"outputs":[],"stateMutability":"nonpayable"},{"type":"function","name":"setToken","inputs":[{"name":"_token","type":"address","internalType":"contract IERC20"}],"outputs":[],"stateMutability":"nonpayable"},{"type":"function","name":"setTotal","inputs":[{"name":"_total","type":"uint256","internalType":"uint256"}],"outputs":[],"stateMutability":"nonpayable"},{"type":"function","name":"setUri","inputs":[{"name":"_uri","type":"string","internalType":"string"}],"outputs":[],"stateMutability":"nonpayable"},{"type":"function","name":"setVoteFactor","inputs":[{"name":"_voteFactor","type":"uint256","internalType":"uint256"}],"outputs":[],"stateMutability":"nonpayable"},{"type":"function","name":"sweepNative","inputs":[{"name":"amount","type":"uint256","internalType":"uint256"}],"outputs":[],"stateMutability":"nonpayable"},{"type":"function","name":"sweepNative","inputs":[],"outputs":[],"stateMutability":"nonpayable"},{"type":"function","name":"sweepToken","inputs":[{"name":"token","type":"address","internalType":"contract IERC20"}],"outputs":[],"stateMutability":"nonpayable"},{"type":"function","name":"sweepToken","inputs":[{"name":"token","type":"address","internalType":"contract IERC20"},{"name":"amount","type":"uint256","internalType":"uint256"}],"outputs":[],"stateMutability":"nonpayable"},{"type":"function","name":"symbol","inputs":[],"outputs":[{"name":"","type":"string","internalType":"string"}],"stateMutability":"view"},{"type":"function","name":"token","inputs":[],"outputs":[{"name":"","type":"address","internalType":"contract IERC20"}],"stateMutability":"view"},{"type":"function","name":"total","inputs":[],"outputs":[{"name":"","type":"uint256","internalType":"uint256"}],"stateMutability":"view"},{"type":"function","name":"totalSupply","inputs":[],"outputs":[{"name":"","type":"uint256","internalType":"uint256"}],"stateMutability":"view"},{"type":"function","name":"transfer","inputs":[{"name":"to","type":"address","internalType":"address"},{"name":"amount","type":"uint256","internalType":"uint256"}],"outputs":[{"name":"","type":"bool","internalType":"bool"}],"stateMutability":"nonpayable"},{"type":"function","name":"transferFrom","inputs":[{"name":"from","type":"address","internalType":"address"},{"name":"to","type":"address","internalType":"address"},{"name":"amount","type":"uint256","internalType":"uint256"}],"outputs":[{"name":"","type":"bool","internalType":"bool"}],"stateMutability":"nonpayable"},{"type":"function","name":"transferOwnership","inputs":[{"name":"newOwner","type":"address","internalType":"address"}],"outputs":[],"stateMutability":"nonpayable"},{"type":"function","name":"uri","inputs":[],"outputs":[{"name":"","type":"string","internalType":"string"}],"stateMutability":"view"},{"type":"event","name":"Adjust","inputs":[{"name":"beneficiary","type":"address","indexed":true,"internalType":"address"},{"name":"amount","type":"int256","indexed":false,"internalType":"int256"}],"anonymous":false},{"type":"event","name":"Approval","inputs":[{"name":"owner","type":"address","indexed":true,"internalType":"address"},{"name":"spender","type":"address","indexed":true,"internalType":"address"},{"name":"value","type":"uint256","indexed":false,"internalType":"uint256"}],"anonymous":false},{"type":"event","name":"Claim","inputs":[{"name":"beneficiary","type":"address","indexed":true,"internalType":"address"},{"name":"amount","type":"uint256","indexed":false,"internalType":"uint256"}],"anonymous":false},{"type":"event","name":"DelegateChanged","inputs":[{"name":"delegator","type":"address","indexed":true,"internalType":"address"},{"name":"fromDelegate","type":"address","indexed":true,"internalType":"address"},{"name":"toDelegate","type":"address","indexed":true,"internalType":"address"}],"anonymous":false},{"type":"event","name":"DelegateVotesChanged","inputs":[{"name":"delegate","type":"address","indexed":true,"internalType":"address"},{"name":"previousBalance","type":"uint256","indexed":false,"internalType":"uint256"},{"name":"newBalance","type":"uint256","indexed":false,"internalType":"uint256"}],"anonymous":false},{"type":"event","name":"EIP712DomainChanged","inputs":[],"anonymous":false},{"type":"event","name":"InitializeDistributionRecord","inputs":[{"name":"beneficiary","type":"address","indexed":true,"internalType":"address"},{"name":"total","type":"uint256","indexed":false,"internalType":"uint256"}],"anonymous":false},{"type":"event","name":"InitializeDistributor","inputs":[{"name":"token","type":"address","indexed":true,"internalType":"contract IERC20"},{"name":"total","type":"uint256","indexed":false,"internalType":"uint256"},{"name":"uri","type":"string","indexed":false,"internalType":"string"},{"name":"fractionDenominator","type":"uint256","indexed":false,"internalType":"uint256"}],"anonymous":false},{"type":"event","name":"Initialized","inputs":[{"name":"version","type":"uint8","indexed":false,"internalType":"uint8"}],"anonymous":false},{"type":"event","name":"OwnershipTransferred","inputs":[{"name":"previousOwner","type":"address","indexed":true,"internalType":"address"},{"name":"newOwner","type":"address","indexed":true,"internalType":"address"}],"anonymous":false},{"type":"event","name":"SetDelay","inputs":[{"name":"maxDelayTime","type":"uint160","indexed":false,"internalType":"uint160"}],"anonymous":false},{"type":"event","name":"SetMerkleRoot","inputs":[{"name":"merkleRoot","type":"bytes32","indexed":false,"internalType":"bytes32"}],"anonymous":false},{"type":"event","name":"SetSweepRecipient","inputs":[{"name":"recipient","type":"address","indexed":false,"internalType":"address"}],"anonymous":false},{"type":"event","name":"SetToken","inputs":[{"name":"token","type":"address","indexed":true,"internalType":"contract IERC20"}],"anonymous":false},{"type":"event","name":"SetTotal","inputs":[{"name":"total","type":"uint256","indexed":false,"internalType":"uint256"}],"anonymous":false},{"type":"event","name":"SetUri","inputs":[{"name":"uri","type":"string","indexed":true,"internalType":"string"}],"anonymous":false},{"type":"event","name":"SetVoteFactor","inputs":[{"name":"voteFactor","type":"uint256","indexed":false,"internalType":"uint256"}],"anonymous":false},{"type":"event","name":"SweepNative","inputs":[{"name":"amount","type":"uint256","indexed":false,"internalType":"uint256"}],"anonymous":false},{"type":"event","name":"SweepToken","inputs":[{"name":"token","type":"address","indexed":true,"internalType":"address"},{"name":"amount","type":"uint256","indexed":false,"internalType":"uint256"}],"anonymous":false},{"type":"event","name":"Transfer","inputs":[{"name":"from","type":"address","indexed":true,"internalType":"address"},{"name":"to","type":"address","indexed":true,"internalType":"address"},{"name":"value","type":"uint256","indexed":false,"internalType":"uint256"}],"anonymous":false},{"type":"error","name":"InvalidShortString","inputs":[]},{"type":"error","name":"StringTooLong","inputs":[{"name":"str","type":"string","internalType":"string"}]}],"bytecode":{"object":"0x6101606040818152346200058257620000188262000587565b60158252602091828101917f496e7465726e616c20766f746520747261636b6572000000000000000000000093848452815194620000568662000587565b60158652818601528151906200006c8262000587565b600382526212559560ea1b81830152825195620000898762000587565b6001808852603160f81b8389019081526000805462010000600160b01b0319811633601081811b62010000600160b01b031692909217845589519598939693957fccdd1baf560d2682736fa25752c8ccc0c5fc4079b245b0acf7389776308d5b1f9389939192911c6001600160a01b03167f8be0079c531659141344cd1fd0a4f28419497f9722a3daafe3b4186f6b6457e08980a388546001600160a01b031916339081178a558152a180516001600160401b03939091908483116200056e576005928354928984811c9416801562000563575b898510146200046f578190601f9485811162000512575b508990858311600114620004ae578992620004a2575b5050600019600383901b1c191690891b1783555b8051928584116200048e57600654908982811c9216801562000483575b898310146200046f57908392918594821162000418575b505087918311600114620003b2578692620003a6575b5050600019600383901b1c191690861b176006555b6200020887620005b9565b976101209889526200021a8a62000796565b97610140988952519020988960e0525190209361010098858a524660a052865195858701917f8b73c3c69bb8fe3d512ecc4cf759cc79239f7b179b0ffacaa9a75d522b39400f83528888015260608701524660808701523060a087015260a0865260c0860192868410908411176200039257828752855190206080523060c052600e5581549360ff8560081c166200033f57505060ff8084160362000305575b505050519161467f93846200094f8539608051846140b5015260a05184614170015260c0518461407f015260e051846141040152518361412a0152518261121e015251816112480152f35b60ff7f7f26b83ff96e1f2b6a682f133852f6798a09c465da95921460cefb384740249893811916179055825160ff8152a1388080620002ba565b9066616c697a696e6760c81b6101246084938662461bcd60e51b855260c4820152602760e48201527f496e697469616c697a61626c653a20636f6e747261637420697320696e6974696101048201520152fd5b634e487b7160e01b84526041600452602484fd5b015190503880620001e8565b600687528787208994509190601f198416885b8a828210620004015750508411620003e7575b505050811b01600655620001fd565b015160001960f88460031b161c19169055388080620003d8565b8385015186558c97909501949384019301620003c5565b9091929350600688528888209084808701821c8301938b881062000465575b9187968d93969594929601901c01915b828110620004565750620001d2565b8981558695508b910162000447565b9350829362000437565b634e487b7160e01b88526022600452602488fd5b91607f1691620001bb565b634e487b7160e01b87526041600452602487fd5b0151905038806200018a565b868a528a8a208c94509190601f1984168b5b8d828210620004fb5750508411620004e1575b505050811b0183556200019e565b015160001960f88460031b161c19169055388080620004d3565b8385015186558f97909501949384019301620004c0565b90915085895289892085808501881c8201928c861062000559575b918d918695949301891c01915b8281106200054a57505062000174565b8b81558594508d91016200053a565b925081926200052d565b93607f16936200015d565b634e487b7160e01b86526041600452602486fd5b600080fd5b604081019081106001600160401b03821117620005a357604052565b634e487b7160e01b600052604160045260246000fd5b805160209081811015620006565750601f825111620005f55780825192015190808310620005e657501790565b82600019910360031b1b161790565b90604051809263305a27a960e01b82528060048301528251908160248401526000935b8285106200063c575050604492506000838284010152601f80199101168101030190fd5b848101820151868601604401529381019385935062000618565b906001600160401b038211620005a357600754926001938481811c911680156200078b575b838210146200077557601f81116200073b575b5081601f8411600114620006cf5750928293918392600094620006c3575b50501b916000199060031b1c19161760075560ff90565b015192503880620006ac565b919083601f198116600760005284600020946000905b8883831062000720575050501062000706575b505050811b0160075560ff90565b015160001960f88460031b161c19169055388080620006f8565b858701518855909601959485019487935090810190620006e5565b600760005284601f84600020920160051c820191601f860160051c015b828110620007685750506200068e565b6000815501859062000758565b634e487b7160e01b600052602260045260246000fd5b90607f16906200067b565b805160209081811015620008245750601f825111620007c35780825192015190808310620005e657501790565b90604051809263305a27a960e01b82528060048301528251908160248401526000935b8285106200080a575050604492506000838284010152601f80199101168101030190fd5b8481018201518686016044015293810193859350620007e6565b906001600160401b038211620005a357600854926001938481811c9116801562000943575b838210146200077557601f811162000909575b5081601f84116001146200089d575092829391839260009462000891575b50501b916000199060031b1c19161760085560ff90565b0151925038806200087a565b919083601f198116600860005284600020946000905b88838310620008ee5750505010620008d4575b505050811b0160085560ff90565b015160001960f88460031b161c19169055388080620008c6565b858701518855909601959485019487935090810190620008b3565b600860005284601f84600020920160051c820191601f860160051c015b828110620009365750506200085c565b6000815501859062000926565b90607f16906200084956fe6080604052600436101561001257600080fd5b60003560e01c806306fdde03146103cd578063095ea7b3146103145780630f56b96c146103c857806313c67ce5146103c3578063144fa6d7146103be57806318160ddd146103325780631be19560146103b95780631f8d1d50146103b457806323b872dd146103af578063276801ec146103aa5780632ddbd13a146103a5578063313ce567146103a05780633644e5151461039b57806339509351146103965780633a46b1a8146103915780633cf3a0251461038c57806349590657146103875780634bf5d7e914610382578063587cde1e1461037d5780635c19a95c146103785780636fcfff451461037357806370a082311461036e578063715018a61461036957806375aa9bc6146103645780637cb647591461035f5780637ecebe001461035a578063839f6ded1461035557806384b0196e146103505780638d31aa631461034b5780638da5cb5b146103465780638e539e8c1461034157806391ddadf41461033c57806395d89b41146103375780639a0e7d66146103325780639ab24eb01461032d5780639b642de114610328578063a3f4df7e14610323578063a457c2d71461031e578063a4ef1f7814610319578063a9059cbb14610314578063ab803a761461030f578063bb22dccb1461030a578063c3cda52014610305578063c6e8d98214610300578063c78d5985146102fb578063c9557255146102f6578063d3d0ec89146102f1578063d505accf146102ec578063dd62ed3e146102e7578063de032f58146102e2578063dfc5aed0146102dd578063e834a834146102d8578063e85858d9146102d3578063e90a182f146102ce578063eac989f8146102c9578063f1127ed8146102c4578063f2fde38b146102bf578063f56c8547146102ba578063fc0c546a146102b55763ffa1ad74146102b057600080fd5b612328565b6122ff565b6122d6565b612245565b6121ba565b612123565b612077565b611fc1565b611fa3565b611d9d565b611d70565b611d0d565b611bcd565b611b81565b611b35565b611b0c565b611ae3565b6119b4565b61196b565b611910565b61051b565b6118e9565b611846565b6117c2565b611684565b611621565b610793565b611578565b61154c565b611458565b61142b565b6112fc565b611203565b611173565b6110c9565b61107d565b610e7e565b610e1e565b610de1565b610d96565b610d6e565b610d2f565b610c7d565b610c5f565b610bf0565b610a9b565b610a05565b6109ea565b6109ce565b6109b0565b610987565b6108e5565b610899565b6107b1565b6106eb565b61069b565b61053c565b610426565b919082519283825260005b8481106103fe575050826000602080949584010152601f8019910116010190565b6020818301810151848301820152016103dd565b9060206104239281815201906103d2565b90565b34610505576000806003193601126105025760405181600554610448816120e9565b9081845260209260019182811690816000146104e05750600114610487575b61048385610477818903826105fc565b60405191829182610412565b0390f35b929450600583527f036b6384b5eca791c62761152d0c79bb0604c104a5fb6f4eb0703f3154bb3db05b8284106104cd575050508161048393610477928201019338610467565b80548585018701529285019281016104b0565b60ff191686860152505050151560051b82010191506104778161048338610467565b80fd5b600080fd5b6001600160a01b0381160361050557565b346105055760403660031901126105055761053760043561050a565b6132c2565b34610505576000366003190112610505576020601454604051908152f35b634e487b7160e01b600052604160045260246000fd5b606081019081106001600160401b0382111761058b57604052565b61055a565b604081019081106001600160401b0382111761058b57604052565b602081019081106001600160401b0382111761058b57604052565b608081019081106001600160401b0382111761058b57604052565b60c081019081106001600160401b0382111761058b57604052565b90601f801991011681019081106001600160401b0382111761058b57604052565b6040519061062a82610570565b565b6040519061062a82610590565b6001600160401b03811161058b57601f01601f191660200190565b81601f820112156105055780359061066b82610639565b9261067960405194856105fc565b8284526020838301011161050557816000926020809301838601378301015290565b34610505576040366003190112610505576004356106b88161050a565b6024356001600160401b038111610505576020916106dd6106e3923690600401610654565b906127fb565b604051908152f35b34610505576020366003190112610505576004356107088161050a565b610710613209565b6001600160a01b0316801561075857601080546001600160a01b031916821790557fefc1fd16ea80a922086ee4e995739d59b025c1bcea6d1f67855747480c83214b600080a2005b60405162461bcd60e51b8152602060048201526013602482015272746f6b656e206973206164647265737328302960681b6044820152606490fd5b34610505576000366003190112610505576020600454604051908152f35b34610505576020366003190112610505576004356107ce8161050a565b6107d6613209565b6040516370a0823160e01b81523060048201526001600160a01b0382169190602081602481865afa8015610894577ff4a44a7f605c4971a27bcecb448108e6328b7fad34fab5bff4f69377294b826d9261085b92600092610860575b5060015461084b9183916001600160a01b031690613cda565b6040519081529081906020820190565b0390a2005b61084b9192506108869060203d811161088d575b61087e81836105fc565b810190613133565b9190610832565b503d610874565b613142565b34610505576020366003190112610505577fac657d3615bd618ee537848e2b33acd2a9df67d4776485ab6922b0421d324d2960206004356108d8613209565b80601155604051908152a1005b34610505576060366003190112610505576004356109028161050a565b61090d60243561050a565b6001600160a01b0316600090815260036020908152604080832033845290915290205460018101156132c25760443511156132c25760405162461bcd60e51b815260206004820152601d60248201527f45524332303a20696e73756666696369656e7420616c6c6f77616e63650000006044820152606490fd5b34610505576000366003190112610505576017546040516001600160a01b039091168152602090f35b34610505576000366003190112610505576020601154604051908152f35b3461050557600036600319011261050557602060405160128152f35b346105055760003660031901126105055760206106e361407c565b3461050557604036600319011261050557610a4a600435610a258161050a565b33600052600360205260406000209060018060a01b0316600052602052604060002090565b54602435810110610a965760405162461bcd60e51b81526020600482015260196024820152783234b9b0b13632b2103337b9103b37ba34b733903837bbb2b960391b6044820152606490fd5b6123c6565b3461050557604036600319011261050557600435610ab88161050a565b60243590610ad765ffffffffffff610acf43614543565b16831061339f565b6001600160a01b03166000908152600c6020526040812080549290918360058111610b9f575b50905b838210610b4e57505081610b27575050602060005b6040516001600160e01b039091168152f35b610b42610b4991602093600019019060005260206000200190565b5460201c90565b610b15565b9092610b5a8185614373565b908263ffffffff610b7f610b75858860005260206000200190565b5463ffffffff1690565b161115610b8f5750925b90610b00565b9350610b9a90612439565b610b89565b80610baf610bb592969396614388565b9061252e565b908263ffffffff610bd0610b75858860005260206000200190565b161115610be05750925b38610afd565b9350610beb90612439565b610bda565b3461050557602036600319011261050557600435610c0c613209565b7f3b381fdfc0e2729a70e8b26ae2397e9014f703a8235b557f5581c4ed47280fd26020600092610c55848080808560018060a01b03600154165af1610c4f61314e565b5061317e565b604051908152a180f35b34610505576000366003190112610505576020601954604051908152f35b34610505576000366003190112610505574365ffffffffffff610c9f43614543565b1603610cea57610483604051610cb481610590565b601d81527f6d6f64653d626c6f636b6e756d6265722666726f6d3d64656661756c74000000602082015260405191829182610412565b60405162461bcd60e51b815260206004820152601d60248201527f4552433230566f7465733a2062726f6b656e20636c6f636b206d6f64650000006044820152606490fd5b34610505576020366003190112610505576020600435610d4e8161050a565b60018060a01b03809116600052600b825260406000205416604051908152f35b3461050557602036600319011261050557610d94600435610d8e8161050a565b33613761565b005b3461050557602036600319011261050557600435610db38161050a565b60018060a01b0316600052600c6020526020610dd36040600020546145aa565b63ffffffff60405191168152f35b3461050557602036600319011261050557600435610dfe8161050a565b60018060a01b031660005260026020526020604060002054604051908152f35b346105055760008060031936011261050257610e38613209565b805462010000600160b01b031981168255819060101c6001600160a01b03167f8be0079c531659141344cd1fd0a4f28419497f9722a3daafe3b4186f6b6457e08280a380f35b3461050557604036600319011261050557600435610e9b8161050a565b7fd81661cef4e40e0f1f97384c033d606e4d6b570554fc3524568d8f9fc84c838861085b60243592610ecb613209565b6001600160a01b0381166000908152600f60205260409020610ef190612344565b612344565b610f03610efe8251151590565b61237b565b600085131561106f57845b6001600160781b0391610f228383106123ed565b600087121561101f57610ffc92610f81610f7c84610fdb94610f7782610f70610f64602060115495610f568588101561246f565b01516001600160781b031690565b6001600160781b031690565b10156124cb565b61252e565b601155565b6001600160a01b0385166000908152600f60205260409020610fba90918416610fb583546001600160781b039060081c1690565b61253b565b610100600160801b0382549160081b1690610100600160801b031916179055565b6010546001600160a01b031660005460101c6001600160a01b031690613cda565b61100581612554565b6040519384526001600160a01b0316929081906020820190565b50610fba61106a92611036610f7c84601154612447565b6001600160a01b0385166000908152600f60205260409020921661106583546001600160781b039060081c1690565b612454565b610ffc565b611078856123dc565b610f0e565b34610505576020366003190112610505577f914960aef5e033ce5cae8a7992d4b7a6f0f9741227b66acb67c605b7019f8a4660206004356110bc613209565b80601955604051908152a1005b34610505576020366003190112610505576004356110e68161050a565b60018060a01b031660005260096020526020604060002054604051908152f35b9060e060031983011261050557600435916024356111238161050a565b9160443591606435916084359160a4359160c4356001600160401b039283821161050557806023830112156105055781600401359384116105055760248460051b83010111610505576024019190565b3461050557610d946111ed6111df6111fe6111f861119036611106565b9796949a92939160409a91969a519485938d8d60208701998a9492909160b496949286526001600160601b03199060601b16602086015260348501526054840152607483015260948201520190565b03601f1981018352826105fc565b519020923691612e49565b9061303f565b612e9e565b3461050557600080600319360112610502576112a0906112427f00000000000000000000000000000000000000000000000000000000000000006141bc565b9061126c7f00000000000000000000000000000000000000000000000000000000000000006142b6565b906040519161127a836105ab565b8183526112ae602091604051968796600f60f81b885260e08589015260e08801906103d2565b9086820360408801526103d2565b904660608601523060808601528260a086015284820360c08601528080855193848152019401925b8281106112e557505050500390f35b8351855286955093810193928101926001016112d6565b346105055760c0366003190112610505576004356113198161050a565b6044356001600160401b0381116105055761133b61139f913690600401610654565b916084356113488161050a565b60a435916113558361050a565b6000549461137a60ff8760081c16158097819861141d575b81156113fd575b50612997565b8561138d600160ff196000541617600055565b6113e4575b60643591602435906129fa565b6113a557005b6113b561ff001960005416600055565b604051600181527f7f26b83ff96e1f2b6a682f133852f6798a09c465da95921460cefb384740249890602090a1005b6113f861010061ff00196000541617600055565b611392565b303b1591508161140f575b5038611374565b6001915060ff161438611408565b600160ff821610915061136d565b346105055760003660031901126105055760005460405160109190911c6001600160a01b03168152602090f35b346105055760203660031901126105055760043561148765ffffffffffff61147f43614543565b16821061339f565b600d549060008260058111611509575b50905b8282106114c65782806114b4575060405160008152602090f35b610b49610b4260209260001901613cb0565b90916114d28184614373565b90818363ffffffff6114e6610b7584613cb0565b1611156114f7575050915b9061149a565b9093506115049150612439565b6114f1565b80610baf61151992959395614388565b908263ffffffff61152c610b7585613cb0565b16111561153c5750915b38611497565b925061154790612439565b611536565b3461050557600036600319011261050557602061156843614543565b65ffffffffffff60405191168152f35b3461050557600080600319360112610502576040518160065461159a816120e9565b9081845260209260019182811690816000146104e057506001146115c85761048385610477818903826105fc565b929450600683527ff652222313e28459528d920b65115c16c04f3efc82aaedc97be59f3f377c0d3f5b82841061160e575050508161048393610477928201019338610467565b80548585018701529285019281016115f1565b346105055760203660031901126105055760043561163e8161050a565b6001600160a01b03166000908152600c6020526040902080548061166a57505060405160008152602090f35b60209161167b91600019019061334f565b5054811c610b15565b3461050557602080600319360112610505576001600160401b03600435818111610505576116b6903690600401610654565b916116bf613209565b825191821161058b576116dc826116d76013546120e9565b612644565b80601f831160011461174a5750819061170c9360009261173f575b50508160011b916000199060031b1c19161790565b6013555b611718612770565b7fd70c1392a974224e639e7a9607dcb2c766826aecfe2dc356f442ce0488b01e1f600080a2005b0151905038806116f7565b90601f1983169361176b601360005260008051602061462a83398151915290565b926000905b8682106117aa5750508360019510611791575b505050811b01601355611710565b015160001960f88460031b161c19169055388080611783565b80600185968294968601518155019501930190611770565b34610505576000366003190112610505576104836040516117e281610570565b603981527f50657241646472657373436f6e74696e756f757356657374696e67496e69746960208201527f616c697a61626c654d65726b6c654469737472696275746f720000000000000060408201526040519182916020835260208301906103d2565b34610505576040366003190112610505576004356118638161050a565b33600052600360205261188f6024359160406000209060018060a01b0316600052602052604060002090565b5410156132c25760405162461bcd60e51b815260206004820152602560248201527f45524332303a2064656372656173656420616c6c6f77616e63652062656c6f77604482015264207a65726f60d81b6064820152608490fd5b346105055760203660031901126105055760206106e360043561190b8161050a565b6128f6565b34610505576000806003193601126105025761192a613209565b7f3b381fdfc0e2729a70e8b26ae2397e9014f703a8235b557f5581c4ed47280fd2602047610c55848080808560018060a01b03600154165af1610c4f61314e565b346105055760203660031901126105055761198760043561050a565b6020601854604051908152f35b6064359060ff8216820361050557565b6084359060ff8216820361050557565b346105055760c0366003190112610505576004356119d18161050a565b604435906024356119e0611994565b92804211611a9e57611a70611a9991610d949560405190611a5882611a4a6020820195898b8860609194939260808201957fe48329057bfd03d55e49b547132e39cffd9c1820ad7b9d4c5307691425d15adf835260018060a01b0316602083015260408201520152565b03601f1981018452836105fc565b611a6b60a4359360843593519020614196565b613ea3565b6001600160a01b03811660009081526009602052604090208054600181019091559092146133eb565b613761565b60405162461bcd60e51b815260206004820152601d60248201527f4552433230566f7465733a207369676e617475726520657870697265640000006044820152606490fd5b34610505576000366003190112610505576015546040516001600160a01b039091168152602090f35b34610505576000366003190112610505576001546040516001600160a01b039091168152602090f35b34610505576020366003190112610505577f6c339c0bee516a4df5d7074ba7a974856d609f83666e915aa4a0f90e06989dc56020600435611b74613209565b80601855604051908152a1005b3461050557606036600319011261050557600435611b9e8161050a565b6044356001600160401b03811161050557602091611bc36106e3923690600401610654565b9060243590612925565b346105055760e036600319011261050557600435611bea8161050a565b60243590611bf78261050a565b60643591611c036119a4565b90834211611cc85761053793611cb592611ca2611c3b8660018060a01b03166000526009602052604060002090815491600183019055565b611a4a6040519485926020840197604435908b8a91959493909260a09360c08401977f6e71edae12b1b97f4d1f60370fef10105fa2faae0126114a169c64845d6126c98552600180871b038092166020860152166040840152606083015260808201520152565b611a6b60c4359360a43593519020614196565b6001600160a01b03908116911614613303565b60405162461bcd60e51b815260206004820152601d60248201527f45524332305065726d69743a206578706972656420646561646c696e650000006044820152606490fd5b34610505576040366003190112610505576020611d67600435611d2f8161050a565b60243590611d3c8261050a565b60018060a01b03166000526003835260406000209060018060a01b0316600052602052604060002090565b54604051908152f35b3461050557602036600319011261050557610d94600435611d908161050a565b611d98613209565b6131bd565b34610505576111df6111ed611e066111f8611db736611106565b979694999291869b9196928b9560405196879560208701998a9492909160b496949286526001600160601b03199060601b16602086015260348501526054840152607483015260948201520190565b6002600e5414611f5e576002600e55611e1d6130d5565b50611e5e611e296130d5565b6001600160781b0380931660018060a01b038516600052600f602052808460406000205460081c1603611f4e575b50836127fb565b168015611ef1576001600160a01b0382166000908152600f60205260409020611ee79290611ec590611e9f8461106583546001600160781b039060801c1690565b8154600160801b600160f81b03191660809190911b600160801b600160f81b0316179055565b611ed9611ed483601254612447565b601255565b611ee281612554565b6130ed565b610d946001600e55565b60405162461bcd60e51b815260206004820152602f60248201527f4469737472696275746f723a206e6f206d6f726520746f6b656e7320636c616960448201526e6d61626c65207269676874206e6f7760881b6064820152608490fd5b611f589085612e9e565b38611e57565b60405162461bcd60e51b815260206004820152601f60248201527f5265656e7472616e637947756172643a207265656e7472616e742063616c6c006044820152606490fd5b34610505576000366003190112610505576020601254604051908152f35b3461050557602036600319011261050557610483600435611fe18161050a565b6040906000828051611ff281610570565b828152826020820152015260018060a01b0316600052600f602052806000209080519161201e83610570565b5460ff8116151583526001600160781b0390818160081c16602085015260801c1681830152519182918291909160406060820193805115158352816020820151916001600160781b038093166020860152015116910152565b34610505576040366003190112610505576004356120948161050a565b7ff4a44a7f605c4971a27bcecb448108e6328b7fad34fab5bff4f69377294b826d6020602435926120c3613209565b6001546001600160a01b0391906120de908690841683613cda565b6040519485521692a2005b90600182811c92168015612119575b602083101461210357565b634e487b7160e01b600052602260045260246000fd5b91607f16916120f8565b34610505576000806003193601126105025760405181601354612145816120e9565b9081845260209260019182811690816000146104e057506001146121735761048385610477818903826105fc565b9294506013835260008051602061462a8339815191525b8284106121a7575050508161048393610477928201019338610467565b805485850187015292850192810161218a565b34610505576040366003190112610505576004356121d78161050a565b63ffffffff6024358181168103610505576122216122279160409460006020875161220181610590565b82815201526001600160a01b03166000908152600c60205285902061334f565b5061337d565b8251815190921682526020908101516001600160e01b031690820152f35b34610505576020366003190112610505576004356122628161050a565b61226a613209565b6001600160a01b0381161561228257610d9490613264565b60405162461bcd60e51b815260206004820152602660248201527f4f776e61626c653a206e6577206f776e657220697320746865207a65726f206160448201526564647265737360d01b6064820152608490fd5b34610505576000366003190112610505576016546040516001600160a01b039091168152602090f35b34610505576000366003190112610505576010546040516001600160a01b039091168152602090f35b3461050557600036600319011261050557602060405160048152f35b9060405161235181610570565b604081935460ff8116151583526001600160781b0390818160081c16602085015260801c16910152565b1561238257565b606460405162461bcd60e51b815260206004820152602060248201527f6d75737420696e697469616c697a65206265666f72652061646a757374696e676044820152fd5b634e487b7160e01b600052601160045260246000fd5b600160ff1b8114610a965760000390565b156123f457565b60405162461bcd60e51b815260206004820152601860248201527f61646a7573746d656e74203e206d61782075696e7431323000000000000000006044820152606490fd5b9060018201809211610a9657565b91908201809211610a9657565b9190916001600160781b0380809416911601918211610a9657565b1561247657565b60405162461bcd60e51b815260206004820152602760248201527f64656372656173652067726561746572207468616e206469737472696275746f6044820152661c881d1bdd185b60ca1b6064820152608490fd5b156124d257565b60405162461bcd60e51b815260206004820152602e60248201527f64656372656173652067726561746572207468616e206469737472696275746960448201526d1bdb949958dbdc99081d1bdd185b60921b6064820152608490fd5b91908203918211610a9657565b6001600160781b039182169082160391908211610a9657565b6001600160a01b038116600090815260026020908152604080832054600f90925290912090919061258490612344565b6001600160781b038060208160408501511693015116808310156000146125e55750505060005b808311156125c6576125c09061062a9361252e565b9061357a565b8083106125d257505050565b61062a926125df9161252e565b9061349c565b6125fc926125f29161253b565b1660185490612611565b60145490811561260c57046125ab565b612624565b81810292918115918404141715610a9657565b634e487b7160e01b600052601260045260246000fd5b811561260c570490565b601f8111612650575050565b6000906013825260008051602061462a833981519152906020601f850160051c83019410612699575b601f0160051c01915b82811061268e57505050565b818155600101612682565b9092508290612679565b9081516001600160401b03811161058b576126c3816116d76013546120e9565b602080601f83116001146126fa575081906126f5939460009261173f5750508160011b916000199060031b1c19161790565b601355565b90601f1983169461271b601360005260008051602061462a83398151915290565b926000905b87821061275857505083600195961061273f575b505050811b01601355565b015160001960f88460031b161c19169055388080612734565b80600185968294968601518155019501930190612720565b604051806000601354612782816120e9565b906001908181169081156127e457506001146127a1575b505003902090565b6013600090815291925060008051602061462a8339815191525b8383106127ce5750505081013880612799565b80548684015285945060209092019181016127bb565b60ff19168552505080151502820190503880612799565b6001600160a01b0381166000908152600f602052604090205460ff16156128a65761288e604061287f612876612866612849610eec8760018060a01b0316600052600f602052604060002090565b9661285e60208901516001600160781b031690565b964290612925565b6001600160781b03809616612611565b6014549061263a565b9301516001600160781b031690565b1681811061289d575050600090565b6104239161252e565b60405162461bcd60e51b815260206004820152602260248201527f4469737472696275746f723a20636c61696d206e6f7420696e697469616c697a604482015261195960f21b6064820152608490fd5b6015546001600160a01b039190821690811561291d57829081806017541691161816041690565b505050600090565b906060838051810103126105055760208301519261294c60606040830151920151936128f6565b8203918211610a965781111561291d578181101561298e5760145492808203918211610a96576129826129889261042395612611565b9261252e565b9061263a565b50505060145490565b1561299e57565b60405162461bcd60e51b815260206004820152602e60248201527f496e697469616c697a61626c653a20636f6e747261637420697320616c72656160448201526d191e481a5b9a5d1a585b1a5e995960921b6064820152608490fd5b90949392919260018060a01b03612a2160ff60005460081c16612a1c81612b68565b612b68565b612a2c8187166131bd565b7f6c339c0bee516a4df5d7074ba7a974856d609f83666e915aa4a0f90e06989dc5602061271080601855604051908152a1612a6e60ff60005460081c16612b68565b80831615612b2457612ab8612b1f95612ab389610f7c612b1a97612a9661062a9d1515612c0a565b60018060a01b03166001600160601b0360a01b6010541617601055565b6126a3565b612ac9670de0b6b3a7640000601455565b6010546001600160a01b03167f433127dedcff849792656a12f4a9dbc0efeb80df5cce6310f53481a93cd71c718260115492612b0f601454604051938493169583612c56565b0390a2831690612d07565b612bc8565b613264565b606460405162461bcd60e51b815260206004820152602060248201527f4469737472696275746f723a20746f6b656e20697320616464726573732830296044820152fd5b15612b6f57565b60405162461bcd60e51b815260206004820152602b60248201527f496e697469616c697a61626c653a20636f6e7472616374206973206e6f74206960448201526a6e697469616c697a696e6760a81b6064820152608490fd5b60207f914960aef5e033ce5cae8a7992d4b7a6f0f9741227b66acb67c605b7019f8a4691612bfd60ff60005460081c16612b68565b80601955604051908152a1565b15612c1157565b60405162461bcd60e51b815260206004820152601760248201527f4469737472696275746f723a20746f74616c20697320300000000000000000006044820152606490fd5b92919083526020606081850152600060135491612c72836120e9565b908160608801526080936001908181169081600014612ce65750600114612ca0575b50505060409150930152565b60136000908152935060008051602061462a8339815191525b838510612cd3575050505090604091850101388080612c94565b8054898601870152938201938101612cb9565b92505050604093925060ff191682870152151560051b850101388080612c94565b90612d1960ff60005460081c16612b68565b601680546001600160a01b039384166001600160a01b0319918216811790925590928315600081612d8c575061260c57837fdccb8d94a5bbd764ed844afa20f2581be18d3fa84b36855e86a8f0c9316cba7d928261062a96602094045b16906015541617601555604051908152a1612dbd565b61062a959150926020927fdccb8d94a5bbd764ed844afa20f2581be18d3fa84b36855e86a8f0c9316cba7d94612d76565b6015546001600160a01b039190821615612e455781811615612e00576000194301438111610a96578290401618166001600160601b0360a01b6017541617601755565b60405162461bcd60e51b815260206004820152601860248201527f492064656d616e64206d6f72652072616e646f6d6e65737300000000000000006044820152606490fd5b5050565b9092916001600160401b03841161058b578360051b60209283604051612e71828501826105fc565b809781520191810192831161050557905b828210612e8f5750505050565b81358152908301908301612e82565b6001600160781b03808311612f775761062a9216612f30612ee4612ed48460018060a01b0316600052600f602052604060002090565b5460801c6001600160781b031690565b612f13612eef61061d565b60018152916001600160781b03851660208401526001600160781b03166040830152565b6001600160a01b0384166000908152600f60205260409020612fd1565b6040516001600160781b039190911681526001600160a01b038216907fdb598eb8e0a3d3d5c2e02e4cab1ee8b65bb20e48fc7b42f4c76272de4cdd243490602090a2612554565b60405162461bcd60e51b815260206004820152602c60248201527f4469737472696275746f723a20746f74616c416d6f756e74203e20747970652860448201526b0ead2dce8626460525cdac2f60a31b6064820152608490fd5b815181546020840151610100600160801b0360089190911b1691151560ff166fffffffffffffffffffffffffffffffff199091161717815561062a916001600160781b0390604001518254600160801b600160f81b031916911660801b600160801b600160f81b0316179055565b60195492600092915b8251841015613094576020808560051b8501015191600083821060001461308757506000525260406000205b926000198114610a965760010192613048565b9160409383525220613074565b9150929150036130a057565b60405162461bcd60e51b815260206004820152600d60248201526c34b73b30b634b210383937b7b360991b6044820152606490fd5b6040516130e1816105ab565b60008152906000368137565b60207f47cee97cb7acd717b3c0aa1435d004cd5b3c8c57d70dbceb4e4458bbd60e39d49160018060a01b039061312885828460105416613cda565b6040519485521692a2565b90816020910312610505575190565b6040513d6000823e3d90fd5b3d15613179573d9061315f82610639565b9161316d60405193846105fc565b82523d6000602084013e565b606090565b1561318557565b60405162461bcd60e51b815260206004820152601060248201526f2a3930b739b332b9103330b4b632b21760811b6044820152606490fd5b600180546001600160a01b0319166001600160a01b0390921691821790556040519081527fccdd1baf560d2682736fa25752c8ccc0c5fc4079b245b0acf7389776308d5b1f90602090a1565b60005460101c6001600160a01b0316330361322057565b606460405162461bcd60e51b815260206004820152602060248201527f4f776e61626c653a2063616c6c6572206973206e6f7420746865206f776e65726044820152fd5b6000805462010000600160b01b03198116601084811b62010000600160b01b03169190911783556001600160a01b039384169391901c16907f8be0079c531659141344cd1fd0a4f28419497f9722a3daafe3b4186f6b6457e09080a3565b60405162461bcd60e51b81526020600482015260196024820152783234b9b0b13632b2103337b9103b37ba34b733903837bbb2b960391b6044820152606490fd5b1561330a57565b60405162461bcd60e51b815260206004820152601e60248201527f45524332305065726d69743a20696e76616c6964207369676e617475726500006044820152606490fd5b80548210156133675760005260206000200190600090565b634e487b7160e01b600052603260045260246000fd5b9060405161338a81610590565b602081935463ffffffff81168352811c910152565b156133a657565b60405162461bcd60e51b815260206004820152601960248201527f4552433230566f7465733a20667574757265206c6f6f6b7570000000000000006044820152606490fd5b156133f257565b60405162461bcd60e51b815260206004820152601960248201527f4552433230566f7465733a20696e76616c6964206e6f6e6365000000000000006044820152606490fd5b1561343e57565b60405162461bcd60e51b815260206004820152603060248201527f4552433230566f7465733a20746f74616c20737570706c79207269736b73206f60448201526f766572666c6f77696e6720766f74657360801b6064820152608490fd5b906001600160a01b038216801561353557600454828101809111610a9657612e459361351a926134cc8593600455565b6001600160a01b0382166000908152600260209081526040808320805487019055518581527fddf252ad1be2c89b69c2b068fc378daa952ba7f163c4a11628f55a4df523b3ef9190a36136c8565b600454613530906001600160e01b031015613437565b613aae565b60405162461bcd60e51b815260206004820152601f60248201527f45524332303a206d696e7420746f20746865207a65726f2061646472657373006044820152606490fd5b6001600160a01b038116919082156136225781816000612e4595836135b461361d9660018060a01b03166000526002602052604060002090565b546135c182821015613671565b036135de8460018060a01b03166000526002602052604060002090565b556135ec8460045403600455565b6040518481527fddf252ad1be2c89b69c2b068fc378daa952ba7f163c4a11628f55a4df523b3ef90602090a3613713565b613b9e565b60405162461bcd60e51b815260206004820152602160248201527f45524332303a206275726e2066726f6d20746865207a65726f206164647265736044820152607360f81b6064820152608490fd5b1561367857565b60405162461bcd60e51b815260206004820152602260248201527f45524332303a206275726e20616d6f756e7420657863656564732062616c616e604482015261636560f01b6064820152608490fd5b600b6020527fdf7de25b7f1fd6d0b5205f0e18f1f35bd7b8d84cce336588d184533ce43a6f76546001600160a01b039182166000908152604090205461062a939290811691166137d1565b6001600160a01b039081166000908152600b60205260408120549080527fdf7de25b7f1fd6d0b5205f0e18f1f35bd7b8d84cce336588d184533ce43a6f765461062a939290811691166137d1565b61062a9160018060a01b03809216600092818452600b60205280604085205416809260026020527f3134e8a2e6d97e929a7e54011ea5485d7d196dd5f0ba4d4ef95803e8e3fc257f604087205496600b6020526040812094871694856001600160601b0360a01b82541617905580a45b6001600160a01b038083169392911680841415806139e4575b6137f5575b50505050565b80613863575b5082613808575b806137ef565b6001600160a01b03166000908152600c602052604090207fdec2bacdd2f05b59de34da9b523dff8be42e5e38e818c82fdb0bae774387a7249161384a91613bf7565b60408051928352602083019190915290a2388080613802565b80600052600c6020527fdec2bacdd2f05b59de34da9b523dff8be42e5e38e818c82fdb0bae774387a72460406000208054801591826000146139c1576138a761062c565b6000815260006020820152915b60208301516138d3906001600160e01b03165b6001600160e01b031690565b926138de898561460f565b9415908161399e575b501561393c5761390f613926926138fd866144da565b92600019019060005260206000200190565b9063ffffffff82549181199060201b169116179055565b604080519182526020820192909252a2386137fb565b506139999061396061395b61395043614543565b65ffffffffffff1690565b6145aa565b9061399461396d866144da565b61398461397861062c565b63ffffffff9095168552565b6001600160e01b03166020840152565b613a54565b613926565b5163ffffffff16905063ffffffff6139b861395043614543565b911614386138e7565b6139de6139d960001984018360005260206000200190565b61337d565b916138b4565b508215156137ea565b600d5490600160401b82101561058b576001820180600d5582101561336757600d600052805160209182015190911b63ffffffff191663ffffffff91909116177fd7b6990105719101dabeb77144f2a3385c8033acd3af97e9423a695e81ad1eb590910155565b8054600160401b81101561058b57613a719160018201815561334f565b613a9857815160209283015190921b63ffffffff191663ffffffff92909216919091179055565b634e487b7160e01b600052600060045260246000fd5b600d5490918115918215613b8957613ac461062c565b60008152600060208201525b6020810151613af290613aeb906001600160e01b03166138c7565b958661461c565b93159081613b66575b5015613b1b5761062a9061390f613b11856144da565b9160001901613cb0565b5061062a613b2e61395b61395043614543565b613b61613b3a856144da565b613b51613b4561062c565b63ffffffff9094168452565b6001600160e01b03166020830152565b6139ed565b5163ffffffff16905063ffffffff613b8061395043614543565b91161438613afb565b613b996139d96000198301613cb0565b613ad0565b600d5490918115918215613be257613bb461062c565b60008152600060208201525b6020810151613af290613bdb906001600160e01b03166138c7565b958661460f565b613bf26139d96000198301613cb0565b613bc0565b909181549182159283600014613c9357613c0f61062c565b60008152600060208201525b6020810151613c3d90613c36906001600160e01b03166138c7565b968761461c565b94159081613c70575b5015613c5c5761390f61062a926138fd866144da565b5061062a9061396061395b61395043614543565b5163ffffffff16905063ffffffff613c8a61395043614543565b91161438613c46565b613cab6139d960001983018460005260206000200190565b613c1b565b600d6000527fd7b6990105719101dabeb77144f2a3385c8033acd3af97e9423a695e81ad1eb50190565b60405163a9059cbb60e01b602082019081526001600160a01b039384166024830152604480830195909552938152613d69929091613d17836105c6565b1660405191613d2583610590565b602083527f5361666545524332303a206c6f772d6c6576656c2063616c6c206661696c65646020840152600080958192519082855af1613d6361314e565b91613e0e565b8051908115918215613d82575b505061062a9150613daf565b8192509060209181010312613dab5760200151908115158203610502575061062a903880613d76565b5080fd5b15613db657565b60405162461bcd60e51b815260206004820152602a60248201527f5361666545524332303a204552433230206f7065726174696f6e20646964206e6044820152691bdd081cdd58d8d9595960b21b6064820152608490fd5b91929015613e705750815115613e22575090565b3b15613e2b5790565b60405162461bcd60e51b815260206004820152601d60248201527f416464726573733a2063616c6c20746f206e6f6e2d636f6e74726163740000006044820152606490fd5b825190915015613e835750805190602001fd5b60405162461bcd60e51b8152908190613e9f9060048301610412565b0390fd5b916104239391613eb293613ffa565b919091613eda565b60051115613ec457565b634e487b7160e01b600052602160045260246000fd5b613ee381613eba565b80613eeb5750565b613ef481613eba565b60018103613f415760405162461bcd60e51b815260206004820152601860248201527f45434453413a20696e76616c6964207369676e617475726500000000000000006044820152606490fd5b613f4a81613eba565b60028103613f975760405162461bcd60e51b815260206004820152601f60248201527f45434453413a20696e76616c6964207369676e6174757265206c656e677468006044820152606490fd5b80613fa3600392613eba565b14613faa57565b60405162461bcd60e51b815260206004820152602260248201527f45434453413a20696e76616c6964207369676e6174757265202773272076616c604482015261756560f01b6064820152608490fd5b9291907f7fffffffffffffffffffffffffffffff5d576e7357a4501ddfe92f46681b20a083116140705791608094939160ff602094604051948552168484015260408301526060820152600093849182805260015afa156108945781516001600160a01b0381161561406a579190565b50600190565b50505050600090600390565b307f00000000000000000000000000000000000000000000000000000000000000006001600160a01b0316148061416d575b156140d7577f000000000000000000000000000000000000000000000000000000000000000090565b60405160208101907f8b73c3c69bb8fe3d512ecc4cf759cc79239f7b179b0ffacaa9a75d522b39400f82527f000000000000000000000000000000000000000000000000000000000000000060408201527f000000000000000000000000000000000000000000000000000000000000000060608201524660808201523060a082015260a08152614167816105e1565b51902090565b507f000000000000000000000000000000000000000000000000000000000000000046146140ae565b6042906141a161407c565b906040519161190160f01b8352600283015260228201522090565b60ff81146141fa5760ff811690601f82116141e857604051916141de83610590565b8252602082015290565b604051632cd44ac360e21b8152600490fd5b5060405160075481600061420d836120e9565b8083526020936001908181169081156142965750600114614237575b5050610423925003826105fc565b9093915060076000527fa66cc928b5edb82af9bd49922954155ab7b0942694bea4ce44661d9a8736c688936000915b81831061427e57505061042393508201013880614229565b85548784018501529485019486945091830191614266565b91505061042394925060ff191682840152151560051b8201013880614229565b60ff81146142d85760ff811690601f82116141e857604051916141de83610590565b506040516008548160006142eb836120e9565b8083526020936001908181169081156142965750600114614314575050610423925003826105fc565b9093915060086000527ff3f7a9fe364faab93b216da50a3214154f22a0a2b415b23a84c8169e8b636ee3936000915b81831061435b57505061042393508201013880614229565b85548784018501529485019486945091830191614343565b90808216911860011c8101809111610a965790565b80156144c2578061445b61445461444a61444061443661442c61442261441860016104239a6000908b60801c806144b6575b508060401c806144a9575b508060201c8061449c575b508060101c8061448f575b508060081c80614482575b508060041c80614475575b508060021c80614468575b50821c614461575b811c1b614411818b61263a565b0160011c90565b614411818a61263a565b614411818961263a565b614411818861263a565b614411818761263a565b614411818661263a565b614411818561263a565b809261263a565b906144c8565b8101614404565b60029150910190386143fc565b60049150910190386143f1565b60089150910190386143e6565b60109150910190386143db565b60209150910190386143d0565b60409150910190386143c5565b915050608090386143ba565b50600090565b90808210156144d5575090565b905090565b6001600160e01b03908181116144ee571690565b60405162461bcd60e51b815260206004820152602760248201527f53616665436173743a2076616c756520646f65736e27742066697420696e20326044820152663234206269747360c81b6064820152608490fd5b65ffffffffffff90818111614556571690565b60405162461bcd60e51b815260206004820152602660248201527f53616665436173743a2076616c756520646f65736e27742066697420696e203460448201526538206269747360d01b6064820152608490fd5b63ffffffff908181116145bb571690565b60405162461bcd60e51b815260206004820152602660248201527f53616665436173743a2076616c756520646f65736e27742066697420696e203360448201526532206269747360d01b6064820152608490fd5b908103908111610a965790565b908101809111610a96579056fe66de8ffda797e3de9c05e8fc57b3bf0ec28a930d40b0d285d93c06501cf6a090a26469706673582212202def21f98c4c1df66db824bfa1be7d81277c2756e4ad7a34845cbf12aaa6c83364736f6c63430008150033","linkReferences":{}},"methodIdentifiers":{"CLOCK_MODE()":"4bf5d7e9","DOMAIN_SEPARATOR()":"3644e515","NAME()":"a3f4df7e","VERSION()":"ffa1ad74","adjust(address,int256)":"75aa9bc6","allowance(address,address)":"dd62ed3e","approve(address,uint256)":"095ea7b3","balanceOf(address)":"70a08231","checkpoints(address,uint32)":"f1127ed8","claim(uint256,address,uint256,uint256,uint256,uint256,bytes32[])":"dfc5aed0","claimed()":"e834a834","clock()":"91ddadf4","decimals()":"313ce567","decreaseAllowance(address,uint256)":"a457c2d7","delegate(address)":"5c19a95c","delegateBySig(address,uint256,uint256,uint8,bytes32,bytes32)":"c3cda520","delegates(address)":"587cde1e","distancePerSecond()":"c6e8d982","eip712Domain()":"84b0196e","getClaimableAmount(address,bytes)":"13c67ce5","getDistributionRecord(address)":"e85858d9","getFairDelayTime(address)":"a4ef1f78","getFractionDenominator()":"0f56b96c","getMerkleRoot()":"49590657","getPastTotalSupply(uint256)":"8e539e8c","getPastVotes(address,uint256)":"3a46b1a8","getSweepRecipient()":"c78d5985","getTotalVotes()":"9a0e7d66","getVestedFraction(address,uint256,bytes)":"d3d0ec89","getVoteFactor(address)":"bb22dccb","getVotes(address)":"9ab24eb0","increaseAllowance(address,uint256)":"39509351","initialize(address,uint256,string,bytes32,uint160,address)":"8d31aa63","initializeDistributionRecord(uint256,address,uint256,uint256,uint256,uint256,bytes32[])":"839f6ded","maxDelayTime()":"f56c8547","name()":"06fdde03","nonces(address)":"7ecebe00","numCheckpoints(address)":"6fcfff45","owner()":"8da5cb5b","permit(address,address,uint256,uint256,uint8,bytes32,bytes32)":"d505accf","randomValue()":"276801ec","renounceOwnership()":"715018a6","setMerkleRoot(bytes32)":"7cb64759","setSweepRecipient(address)":"de032f58","setToken(address)":"144fa6d7","setTotal(uint256)":"1f8d1d50","setUri(string)":"9b642de1","setVoteFactor(uint256)":"c9557255","sweepNative()":"ab803a76","sweepNative(uint256)":"3cf3a025","sweepToken(address)":"1be19560","sweepToken(address,uint256)":"e90a182f","symbol()":"95d89b41","token()":"fc0c546a","total()":"2ddbd13a","totalSupply()":"18160ddd","transfer(address,uint256)":"a9059cbb","transferFrom(address,address,uint256)":"23b872dd","transferOwnership(address)":"f2fde38b","uri()":"eac989f8"},"id":12}