{"abi":[{"type":"constructor","inputs":[{"name":"_dataFeed","type":"address","internalType":"address"},{"name":"_sequencerUptimeFeed","type":"address","internalType":"address"}],"stateMutability":"nonpayable"},{"type":"function","name":"decimals","inputs":[],"outputs":[{"name":"","type":"uint8","internalType":"uint8"}],"stateMutability":"view"},{"type":"function","name":"latestRoundData","inputs":[],"outputs":[{"name":"roundId","type":"uint80","internalType":"uint80"},{"name":"answer","type":"int256","internalType":"int256"},{"name":"startedAt","type":"uint256","internalType":"uint256"},{"name":"updatedAt","type":"uint256","internalType":"uint256"},{"name":"answeredInRound","type":"uint80","internalType":"uint80"}],"stateMutability":"view"},{"type":"error","name":"GracePeriodNotOver","inputs":[]},{"type":"error","name":"SequencerDown","inputs":[]}],"bytecode":{"object":"0x60803461008d57601f6103ab38819003918201601f19168301916001600160401b0383118484101761009257808492604094855283398101031261008d57610052602061004b836100a8565b92016100a8565b600080546001600160a01b039384166001600160a01b031991821617909155600180549290931691161790556040516102ee90816100bd8239f35b600080fd5b634e487b7160e01b600052604160045260246000fd5b51906001600160a01b038216820361008d5756fe6080604081815260048036101561001557600080fd5b600092833560e01c908163313ce5671461018f575063feaf968c1461003957600080fd5b3461018b578260031936011261018b576001548251633fabe5a360e21b80825260a0959290916001600160a01b0391879082908790829086165afa908115610181578490859261015e575b5061014f57420342811161013c57610e10101561012c579085918354169385518095819382525afa9081156101215780928194829183946100e9575b5080519569ffffffffffffffffffff809616875260208701528501526060840152166080820152f35b93509450505061010f9150833d851161011a575b610107818361022f565b810190610283565b9294909190386100c0565b503d6100fd565b8351903d90823e3d90fd5b845163d15f73b560e01b81528490fd5b634e487b7160e01b845260118552602484fd5b855162032b3d60e81b81528590fd5b90506101779150873d891161011a57610107818361022f565b5050915038610084565b86513d86823e3d90fd5b8280fd5b8385843461022b578160031936011261022b57815463313ce56760e01b8552602091859182906001600160a01b03165afa92831561021f5781936101db575b60208460ff855191168152f35b9092506020813d8211610217575b816101f66020938361022f565b8101031261018b57519160ff83168303610214575060ff60206101ce565b80fd5b3d91506101e9565b509051903d90823e3d90fd5b5080fd5b90601f8019910116810190811067ffffffffffffffff82111761025157604052565b634e487b7160e01b600052604160045260246000fd5b519069ffffffffffffffffffff8216820361027e57565b600080fd5b908160a091031261027e5761029781610267565b916020820151916040810151916102b5608060608401519301610267565b9056fea26469706673582212204b7b527d654f23f6ae4b57075a8370d5a40d72b98cb0650a6db55d9957cdf29964736f6c63430008150033","linkReferences":{}},"methodIdentifiers":{"decimals()":"313ce567","latestRoundData()":"feaf968c"},"id":45}