{"abi":[{"type":"constructor","inputs":[{"name":"_paymentToken","type":"address","internalType":"address"},{"name":"_paymentTokenDecimals","type":"uint8","internalType":"uint8"},{"name":"_priceOracle","type":"address","internalType":"address"}],"stateMutability":"payable"},{"type":"function","name":"VERSION","inputs":[],"outputs":[{"name":"","type":"string","internalType":"string"}],"stateMutability":"view"},{"type":"function","name":"_isAllowed","inputs":[{"name":"root","type":"bytes32","internalType":"bytes32"},{"name":"account","type":"address","internalType":"address"},{"name":"proof","type":"bytes32[]","internalType":"bytes32[]"}],"outputs":[{"name":"","type":"bool","internalType":"bool"}],"stateMutability":"pure"},{"type":"function","name":"buy","inputs":[{"name":"saleId","type":"bytes32","internalType":"bytes32"},{"name":"proof","type":"bytes32[]","internalType":"bytes32[]"}],"outputs":[],"stateMutability":"payable"},{"type":"function","name":"buy","inputs":[{"name":"saleId","type":"bytes32","internalType":"bytes32"},{"name":"tokenQuantity","type":"uint256","internalType":"uint256"},{"name":"proof","type":"bytes32[]","internalType":"bytes32[]"}],"outputs":[],"stateMutability":"nonpayable"},{"type":"function","name":"generateRandomishValue","inputs":[{"name":"merkleRoot","type":"bytes32","internalType":"bytes32"}],"outputs":[{"name":"","type":"uint160","internalType":"uint160"}],"stateMutability":"view"},{"type":"function","name":"getAdmin","inputs":[{"name":"saleId","type":"bytes32","internalType":"bytes32"}],"outputs":[{"name":"","type":"address","internalType":"address"}],"stateMutability":"view"},{"type":"function","name":"getBought","inputs":[{"name":"saleId","type":"bytes32","internalType":"bytes32"},{"name":"userAddress","type":"address","internalType":"address"}],"outputs":[{"name":"","type":"uint256","internalType":"uint256"}],"stateMutability":"view"},{"type":"function","name":"getClaimManager","inputs":[{"name":"saleId","type":"bytes32","internalType":"bytes32"}],"outputs":[{"name":"","type":"address","internalType":"address"}],"stateMutability":"view"},{"type":"function","name":"getDecimals","inputs":[{"name":"saleId","type":"bytes32","internalType":"bytes32"}],"outputs":[{"name":"","type":"uint256","internalType":"uint256"}],"stateMutability":"view"},{"type":"function","name":"getEndTime","inputs":[{"name":"saleId","type":"bytes32","internalType":"bytes32"}],"outputs":[{"name":"","type":"uint256","internalType":"uint256"}],"stateMutability":"view"},{"type":"function","name":"getFairQueueTime","inputs":[{"name":"saleId","type":"bytes32","internalType":"bytes32"},{"name":"buyer","type":"address","internalType":"address"}],"outputs":[{"name":"","type":"uint256","internalType":"uint256"}],"stateMutability":"view"},{"type":"function","name":"getLatestPrice","inputs":[],"outputs":[{"name":"","type":"uint256","internalType":"uint256"}],"stateMutability":"view"},{"type":"function","name":"getMaxQueueTime","inputs":[{"name":"saleId","type":"bytes32","internalType":"bytes32"}],"outputs":[{"name":"","type":"uint256","internalType":"uint256"}],"stateMutability":"view"},{"type":"function","name":"getMerkleRoot","inputs":[{"name":"saleId","type":"bytes32","internalType":"bytes32"}],"outputs":[{"name":"","type":"bytes32","internalType":"bytes32"}],"stateMutability":"view"},{"type":"function","name":"getPrice","inputs":[{"name":"saleId","type":"bytes32","internalType":"bytes32"}],"outputs":[{"name":"","type":"uint256","internalType":"uint256"}],"stateMutability":"view"},{"type":"function","name":"getPriceOracle","inputs":[],"outputs":[{"name":"","type":"address","internalType":"address"}],"stateMutability":"view"},{"type":"function","name":"getPurchaseMinimum","inputs":[{"name":"saleId","type":"bytes32","internalType":"bytes32"}],"outputs":[{"name":"","type":"uint256","internalType":"uint256"}],"stateMutability":"view"},{"type":"function","name":"getRandomValue","inputs":[{"name":"saleId","type":"bytes32","internalType":"bytes32"}],"outputs":[{"name":"","type":"uint160","internalType":"uint160"}],"stateMutability":"view"},{"type":"function","name":"getRecipient","inputs":[{"name":"saleId","type":"bytes32","internalType":"bytes32"}],"outputs":[{"name":"","type":"address","internalType":"address"}],"stateMutability":"view"},{"type":"function","name":"getSaleBuyLimit","inputs":[{"name":"saleId","type":"bytes32","internalType":"bytes32"}],"outputs":[{"name":"","type":"uint256","internalType":"uint256"}],"stateMutability":"view"},{"type":"function","name":"getSpent","inputs":[{"name":"saleId","type":"bytes32","internalType":"bytes32"},{"name":"userAddress","type":"address","internalType":"address"}],"outputs":[{"name":"","type":"uint256","internalType":"uint256"}],"stateMutability":"view"},{"type":"function","name":"getStartTime","inputs":[{"name":"saleId","type":"bytes32","internalType":"bytes32"}],"outputs":[{"name":"","type":"uint256","internalType":"uint256"}],"stateMutability":"view"},{"type":"function","name":"getTotalSpent","inputs":[{"name":"saleId","type":"bytes32","internalType":"bytes32"}],"outputs":[{"name":"","type":"uint256","internalType":"uint256"}],"stateMutability":"view"},{"type":"function","name":"getUri","inputs":[{"name":"saleId","type":"bytes32","internalType":"bytes32"}],"outputs":[{"name":"","type":"string","internalType":"string"}],"stateMutability":"view"},{"type":"function","name":"getUserBuyLimit","inputs":[{"name":"saleId","type":"bytes32","internalType":"bytes32"}],"outputs":[{"name":"","type":"uint256","internalType":"uint256"}],"stateMutability":"view"},{"type":"function","name":"isOpen","inputs":[{"name":"saleId","type":"bytes32","internalType":"bytes32"}],"outputs":[{"name":"","type":"bool","internalType":"bool"}],"stateMutability":"view"},{"type":"function","name":"isOver","inputs":[{"name":"saleId","type":"bytes32","internalType":"bytes32"}],"outputs":[{"name":"","type":"bool","internalType":"bool"}],"stateMutability":"view"},{"type":"function","name":"nativeToPaymentToken","inputs":[{"name":"nativeValue","type":"uint256","internalType":"uint256"}],"outputs":[{"name":"","type":"uint256","internalType":"uint256"}],"stateMutability":"view"},{"type":"function","name":"newSale","inputs":[{"name":"recipient","type":"address","internalType":"address payable"},{"name":"merkleRoot","type":"bytes32","internalType":"bytes32"},{"name":"saleBuyLimit","type":"uint256","internalType":"uint256"},{"name":"userBuyLimit","type":"uint256","internalType":"uint256"},{"name":"purchaseMinimum","type":"uint256","internalType":"uint256"},{"name":"startTime","type":"uint256","internalType":"uint256"},{"name":"endTime","type":"uint256","internalType":"uint256"},{"name":"maxQueueTime","type":"uint160","internalType":"uint160"},{"name":"uri","type":"string","internalType":"string"},{"name":"price","type":"uint256","internalType":"uint256"},{"name":"decimals","type":"uint8","internalType":"uint8"}],"outputs":[{"name":"","type":"bytes32","internalType":"bytes32"}],"stateMutability":"nonpayable"},{"type":"function","name":"paymentToken","inputs":[],"outputs":[{"name":"","type":"address","internalType":"contract IERC20"}],"stateMutability":"view"},{"type":"function","name":"paymentTokenDecimals","inputs":[],"outputs":[{"name":"","type":"uint8","internalType":"uint8"}],"stateMutability":"view"},{"type":"function","name":"payments","inputs":[{"name":"dest","type":"address","internalType":"address"}],"outputs":[{"name":"","type":"uint256","internalType":"uint256"}],"stateMutability":"view"},{"type":"function","name":"recoverERC20","inputs":[{"name":"saleId","type":"bytes32","internalType":"bytes32"},{"name":"tokenAddress","type":"address","internalType":"address"},{"name":"tokenAmount","type":"uint256","internalType":"uint256"}],"outputs":[],"stateMutability":"nonpayable"},{"type":"function","name":"registerClaimManager","inputs":[{"name":"saleId","type":"bytes32","internalType":"bytes32"},{"name":"claimManager","type":"address","internalType":"address"}],"outputs":[],"stateMutability":"nonpayable"},{"type":"function","name":"saleCount","inputs":[],"outputs":[{"name":"","type":"uint256","internalType":"uint256"}],"stateMutability":"view"},{"type":"function","name":"setEnd","inputs":[{"name":"saleId","type":"bytes32","internalType":"bytes32"},{"name":"endTime","type":"uint256","internalType":"uint256"}],"outputs":[],"stateMutability":"nonpayable"},{"type":"function","name":"setMaxQueueTime","inputs":[{"name":"saleId","type":"bytes32","internalType":"bytes32"},{"name":"maxQueueTime","type":"uint160","internalType":"uint160"}],"outputs":[],"stateMutability":"nonpayable"},{"type":"function","name":"setMerkleRoot","inputs":[{"name":"saleId","type":"bytes32","internalType":"bytes32"},{"name":"merkleRoot","type":"bytes32","internalType":"bytes32"}],"outputs":[],"stateMutability":"nonpayable"},{"type":"function","name":"setStart","inputs":[{"name":"saleId","type":"bytes32","internalType":"bytes32"},{"name":"startTime","type":"uint256","internalType":"uint256"}],"outputs":[],"stateMutability":"nonpayable"},{"type":"function","name":"setUriAndMerkleRoot","inputs":[{"name":"saleId","type":"bytes32","internalType":"bytes32"},{"name":"merkleRoot","type":"bytes32","internalType":"bytes32"},{"name":"uri","type":"string","internalType":"string"}],"outputs":[],"stateMutability":"nonpayable"},{"type":"function","name":"spentToBought","inputs":[{"name":"saleId","type":"bytes32","internalType":"bytes32"},{"name":"spent","type":"uint256","internalType":"uint256"}],"outputs":[{"name":"","type":"uint256","internalType":"uint256"}],"stateMutability":"view"},{"type":"function","name":"totalSpent","inputs":[],"outputs":[{"name":"","type":"uint256","internalType":"uint256"}],"stateMutability":"view"},{"type":"function","name":"withdrawPayments","inputs":[{"name":"payee","type":"address","internalType":"address payable"}],"outputs":[],"stateMutability":"nonpayable"},{"type":"event","name":"Buy","inputs":[{"name":"saleId","type":"bytes32","indexed":true,"internalType":"bytes32"},{"name":"buyer","type":"address","indexed":true,"internalType":"address"},{"name":"value","type":"uint256","indexed":false,"internalType":"uint256"},{"name":"native","type":"bool","indexed":false,"internalType":"bool"},{"name":"proof","type":"bytes32[]","indexed":false,"internalType":"bytes32[]"}],"anonymous":false},{"type":"event","name":"Deploy","inputs":[{"name":"paymentToken","type":"address","indexed":false,"internalType":"address"},{"name":"paymentTokenDecimals","type":"uint8","indexed":false,"internalType":"uint8"},{"name":"priceOracle","type":"address","indexed":false,"internalType":"address"}],"anonymous":false},{"type":"event","name":"NewSale","inputs":[{"name":"saleId","type":"bytes32","indexed":true,"internalType":"bytes32"},{"name":"merkleRoot","type":"bytes32","indexed":true,"internalType":"bytes32"},{"name":"recipient","type":"address","indexed":true,"internalType":"address"},{"name":"admin","type":"address","indexed":false,"internalType":"address"},{"name":"saleBuyLimit","type":"uint256","indexed":false,"internalType":"uint256"},{"name":"userBuyLimit","type":"uint256","indexed":false,"internalType":"uint256"},{"name":"purchaseMinimum","type":"uint256","indexed":false,"internalType":"uint256"},{"name":"maxQueueTime","type":"uint256","indexed":false,"internalType":"uint256"},{"name":"startTime","type":"uint256","indexed":false,"internalType":"uint256"},{"name":"endTime","type":"uint256","indexed":false,"internalType":"uint256"},{"name":"uri","type":"string","indexed":false,"internalType":"string"},{"name":"price","type":"uint256","indexed":false,"internalType":"uint256"},{"name":"decimals","type":"uint8","indexed":false,"internalType":"uint8"}],"anonymous":false},{"type":"event","name":"RegisterClaimManager","inputs":[{"name":"saleId","type":"bytes32","indexed":true,"internalType":"bytes32"},{"name":"claimManager","type":"address","indexed":true,"internalType":"address"}],"anonymous":false},{"type":"event","name":"UpdateEnd","inputs":[{"name":"saleId","type":"bytes32","indexed":true,"internalType":"bytes32"},{"name":"endTime","type":"uint256","indexed":false,"internalType":"uint256"}],"anonymous":false},{"type":"event","name":"UpdateMaxQueueTime","inputs":[{"name":"saleId","type":"bytes32","indexed":true,"internalType":"bytes32"},{"name":"maxQueueTime","type":"uint256","indexed":false,"internalType":"uint256"}],"anonymous":false},{"type":"event","name":"UpdateMerkleRoot","inputs":[{"name":"saleId","type":"bytes32","indexed":true,"internalType":"bytes32"},{"name":"merkleRoot","type":"bytes32","indexed":false,"internalType":"bytes32"}],"anonymous":false},{"type":"event","name":"UpdateStart","inputs":[{"name":"saleId","type":"bytes32","indexed":true,"internalType":"bytes32"},{"name":"startTime","type":"uint256","indexed":false,"internalType":"uint256"}],"anonymous":false},{"type":"event","name":"UpdateUri","inputs":[{"name":"saleId","type":"bytes32","indexed":true,"internalType":"bytes32"},{"name":"uri","type":"string","indexed":false,"internalType":"string"}],"anonymous":false}],"bytecode":{"object":"0x6001600160401b03601f6200357938819003918201601f191660e0908101929091848411838510176200016e57816060928492604096875283398101031262000169576200004d8162000184565b9060208101519160ff8316918284036200016957846200006e910162000184565b600095600187558551906104fd808301918383109083111762000155579082916200307c8339039087f080156200014b579160609391877f38d1aed58aae630c8dc4b743a178514156b1d122d81b1034ba958fcc0082f25b96946080528060035560045560018060a01b03809216938460a05260c05216908160018060a01b031960015416176001558551928352602083015284820152a151612ee290816200019a823960805181818161037b01528181610e090152611daf015260a05181818161059e0152611e29015260c051818181611d2b015261270f0152f35b85513d88823e3d90fd5b634e487b7160e01b89526041600452602489fd5b600080fd5b634e487b7160e01b600052604160045260246000fd5b51906001600160a01b0382168203620001695756fe6080604052600436101561001257600080fd5b6000803560e01c8063080d840c146121e5578063087c2be714612179578063089ed4351461213d5780630ad0607f1461202c57806312105fea14611fee578063231bedc714611fab57806327e5423014611e585780633013ce2914611e1357806331b3eb9414611d8b57806331d98b3f14611d4f578063325cd79614611d115780633f6fdf3c146116af5780634f8b50b01461169057806350fa4ff21461154a5780635f0fe44614611530578063628f9fa0146114f457806375edcbe0146113cc5780637c35be7a1461134b57806380c6e70a146112fc5780638e15f473146112e1578063939d6065146112a5578063976b20501461123e578063a1e89aec14611220578063a7206cd6146111d5578063ad9a686514611181578063b8211d9014611145578063b8f8a0b3146110ab578063b94c69aa14610fa7578063bac4dd8814610f88578063bc8bf09314610c79578063c83b55f314610c13578063c95970be1461095d578063c96c9d491461093e578063ccc325c21461090f578063dda513da146108d3578063dee5ab43146103f1578063e2982c2114610338578063eb28322e146102fc578063ef8148b2146102b0578063fb346eab14610292578063fbc6da7514610261578063fca513a8146102385763ffa1ad74146101f657600080fd5b34610235578060031936011261023557610231604051610215816122cd565b6003815262312e3360e81b60208201526040519182918261224b565b0390f35b80fd5b50346102355780600319360112610235576001546040516001600160a01b039091168152602090f35b503461023557602036600319011261023557602061028060043561247d565b6040516001600160a01b039091168152f35b50346102355780600319360112610235576020600454604051908152f35b503461023557602036600319011261023557600460406020928235808252600285526102eb60018060a01b036001858520015416151561243f565b815260028452200154604051908152f35b50346102355760203660031901126102355760086040602092600435808252600285526102eb60018060a01b036001858520015416151561243f565b50346102355760209081600319360112610235576024826103576122a3565b6040516371d4ed8d60e11b81526001600160a01b03918216600482015292839182907f0000000000000000000000000000000000000000000000000000000000000000165afa9182156103e557916103b3575b50604051908152f35b90508181813d83116103de575b6103ca81836122e9565b810103126103d95751386103aa565b600080fd5b503d6103c0565b604051903d90823e3d90fd5b50346102355760603660031901126102355760243560043567ffffffffffffffff6044358181116108cf5761042a903690600401612327565b93908386526020926002845260018060a01b039061045282600160408b20015416151561243f565b8588526002855261046b600760408a2001544211612af0565b85885260028552610484600860408a2001544210612b33565b858852600285526104a2604089206004600c82015491015411612b6c565b6104ad323314612ba4565b85885260028552868584600260408c2001548061084b575b50505050858852600285526104f46104e4600760408b20015442612587565b6104ee33896125c9565b10612c97565b6104fc612dc1565b85885260028552610516600660408a200154851015612cd7565b85885260028552600f604089200133600052855261055261053c60406000205486612d1c565b878a5260028752600560408b2001541015612d29565b8588526002855261058361056d600c60408b20015486612d1c565b878a5260028752600460408b2001541015612d75565b604051636eb1769f60e11b81523360048201523060248201527f0000000000000000000000000000000000000000000000000000000000000000831692908681604481875afa80156108405786918b9161080f575b50106107d657868952600286526040892054169160405192868401906323b872dd60e01b825233602486015260448501528560648501526064845260a0840192848410908411176107c0578980916106929585604052610637866122cd565b8986527f5361666545524332303a206c6f772d6c6576656c2063616c6c206661696c656460c0820152519082855af13d156107b8573d916106778361230b565b9261068560405194856122e9565b83523d8b8985013e612e17565b8051908482159283156107a0575b50505015610748579061073e7f626774f7294b3079307930cbec9061bd3e7342694936faae16b870083853337f939285885260028452600f604089200133600052845260406000206106f3848254612d1c565b905585885260028452600c604089200161070e848254612d1c565b905561071c83600454612d1c565b6004558760405194859485528401526060604084015233966060840191612bff565b0390a36001815580f35b60405162461bcd60e51b815260048101849052602a60248201527f5361666545524332303a204552433230206f7065726174696f6e20646964206e6044820152691bdd081cdd58d8d9595960b21b6064820152608490fd5b6107b09350820181019101612be7565b3884816106a0565b606091612e17565b634e487b7160e01b600052604160045260246000fd5b60405162461bcd60e51b8152600481018790526011602482015270616c6c6f77616e636520746f6f206c6f7760781b6044820152606490fd5b809250888092503d8311610839575b61082881836122e9565b810103126103d957859051386105d8565b503d61081e565b6040513d8c823e3d90fd5b61086b604051948593849363ad9a686560e01b8552339060048601612c23565b0381305afa9081156108c45761088e916001918b91610897575b50151514612c4b565b868584386104c5565b6108b79150883d8a116108bd575b6108af81836122e9565b810190612be7565b38610885565b503d6108a5565b6040513d8b823e3d90fd5b8480fd5b50346102355760203660031901126102355760066040602092600435808252600285526102eb60018060a01b036001858520015416151561243f565b503461023557604036600319011261023557602061093661092e612277565b6004356125c9565b604051908152f35b50346102355760203660031901126102355760206102806004356125aa565b50346102355760603660031901126102355760249060043567ffffffffffffffff83356044358281116108cf57366023820112156108cf5780600401359283116108cf57368684830101116108cf5783855260029160209280845260018060a01b0360016109d4828260408c20015416151561243f565b8789528286526109ed828260408c2001541633146129ce565b878952828652600960408a200190610a0f88610a0984546124b8565b8461296b565b8991888c8c601f8311600114610b9757610a7595610a4493929083610b8a575b50508160011b916000199060031b1c19161790565b90555b888a52838752610a60838260408d20015416151561243f565b888a5283875260408a200154821633146129ce565b610a7e876127cb565b610b35579488604094887f5c25e09dfc956c1695410327dbad0359e07b240db96ced50d429a2edb560614a8885999786977f576e604c0ce80f5cc291a8dd68ecbb823e139b8f3063821e7f52275da64e384d9c8f8c8188600e935284875285858383200155610aec866125aa565b948982528752200191166001600160601b0360a01b8254161790558951908152a2855196858896875286015201848401378181018301879052601f01601f19168101030190a280f35b60405162461bcd60e51b8152600481018690526028818b01527f63616e6e6f7420736574206d65726b6c6520726f6f74206f6e63652073616c656044820152671034b99037bb32b960c11b6064820152608490fd5b8b01013590508e38610a2f565b91601f959195198116958484528b80852094915b8c898410610beb5750505050610a759510610bcf575b50508189811b019055610a47565b88018d013560001960038c901b60f8161c191690553880610bc1565b8294509085899a96989993949792010135815501940192018b908f8c90979695949397610bab565b503461023557604036600319011261023557600435600f6040610c34612277565b93838152600260205260018060a01b0393610c58856001858520015416151561243f565b81526002602052200191166000526020526020604060002054604051908152f35b5060403660031901126102355760043560243567ffffffffffffffff8111610f8457610ca9903690600401612327565b9190818452600260209080825260018060a01b0390610cd282600160408a20015416151561243f565b848752808352610cea60076040892001544211612af0565b848752808352610d0260086040892001544210612b33565b848752808352610d1f604088206004600c82015491015411612b6c565b610d2a323314612ba4565b8487528083528583858360408b20015480610f17575b50505050848752808352610d68610d5e600760408a20015442612587565b6104ee33886125c9565b610d70612dc1565b86610d7a346126fb565b92868252828552610d946006604084200154851015612cd7565b868252828552600f6040832001336000528552610dce610db960406000205486612d1c565b88845284875260056040852001541015612d29565b868252828552610dfd610de8600c60408520015486612d1c565b88845284875260046040852001541015612d75565b610e068761247d565b817f00000000000000000000000000000000000000000000000000000000000000001691823b15610f135760248492604051948593849263f340fa0160e01b845216600483015234905af18015610f0857610ef0575b509361073e91867f626774f7294b3079307930cbec9061bd3e7342694936faae16b870083853337f9652808552600f60408a20013360005285526040600020610ea6858254612d1c565b90558689528452600c6040892001610ebf848254612d1c565b9055610ecd83600454612d1c565b600455600160405194859485528401526060604084015233966060840191612bff565b610ef9906122b9565b610f04578638610e5c565b8680fd5b6040513d84823e3d90fd5b8380fd5b610f37604051948593849363ad9a686560e01b8552339060048601612c23565b0381305afa908115610f7957610f59916001918a91610f625750151514612c4b565b85838538610d40565b6108b79150863d88116108bd576108af81836122e9565b6040513d8a823e3d90fd5b8280fd5b50346102355760203660031901126102355760206109366004356126fb565b503461023557604036600319011261023557600435610fc4612277565b818352600260205260408320600101546001600160a01b039190610feb908316151561243f565b82845260026020526110078260016040872001541633146129ce565b169081156110555780835260026020526040832060030180546001600160a01b031916831790557fa238e2b81a1e21f7426993fcac7cc40d45cf7f22c8d58a2345e65c7a1ed06e728380a380f35b60405162461bcd60e51b815260206004820152602860248201527f436c61696d206d616e61676572206d7573742062652061206e6f6e2d7a65726f604482015267206164647265737360c01b6064820152608490fd5b50346102355760603660031901126102355760043560206110ca612277565b918084526002825260446110f860018060a01b03926110f384600160408a2001541633146129ce565b61247d565b8583604051968795869463a9059cbb60e01b865216600485015284356024850152165af18015610f085761112a575080f35b6111419060203d81116108bd576108af81836122e9565b5080f35b503461023557602036600319011261023557600c6040602092600435808252600285526102eb60018060a01b036001858520015416151561243f565b50346102355760603660031901126102355761119b612277565b906044359067ffffffffffffffff82116102355760206111cb846111c23660048701612327565b91600435612a0a565b6040519015158152f35b5034610235576020366003190112610235576002604060209260043580825283855261121060018060a01b036001858520015416151561243f565b8152828452200154604051908152f35b50346102355780600319360112610235576020600354604051908152f35b50346102355760403660031901126102355761093660209160043590611262612277565b9082815260028552600f604060018060a01b0392611289846001848420015416151561243f565b85815260028852200191166000528352604060002054906126b9565b50346102355760203660031901126102355760076040602092600435808252600285526102eb60018060a01b036001858520015416151561243f565b5034610235578060031936011261023557602061093661236f565b503461023557602036600319011261023557602090600160406004359283815260028552828060a01b03936113398585858520015416151561243f565b81526002855220015416604051908152f35b50346102355760203660031901126102355760406020916004358082526002845261138560018060a01b036001858520015416151561243f565b815260028352206007810154421190816113be575b816113ab575b506040519015158152f35b90506004600c82015491015411386113a0565b60088101544210915061139a565b503461023557604036600319011261023557600435808252600260209081526040832060010154602435906001600160a01b039061140d908216151561243f565b838552600283526114288160016040882001541633146129ce565b611431846127cb565b61149e57907f5c25e09dfc956c1695410327dbad0359e07b240db96ced50d429a2edb560614a929184865260028352816002604088200155611472826125aa565b9085875260028452600e604088200191166001600160601b0360a01b825416179055604051908152a280f35b60405162461bcd60e51b815260048101849052602860248201527f63616e6e6f7420736574206d65726b6c6520726f6f74206f6e63652073616c656044820152671034b99037bb32b960c11b6064820152608490fd5b503461023557602036600319011261023557600d6040602092600435808252600285526102eb60018060a01b036001858520015416151561243f565b50346102355760206109366115443661228d565b906126b9565b5034610235576115593661228d565b81835260029060209180835261159960018060a01b0361158381600160408a20015416151561243f565b85875282855260016040882001541633146129ce565b838552808352600860408620015442101561164b57907fa1d69aa21ab2424b05b137a387320de036a0b226f4a0d6317ea2430d99ff27a692916115dd4283116128ba565b6115ed63f4865700831115612822565b8486528083526116058260076040892001541061286e565b84865280835261163361161f600760408920015484612587565b868852828552600d60408920015410612906565b8486528252806008604087200155604051908152a280f35b60405162461bcd60e51b815260048101849052601a60248201527f64697361626c65642061667465722073616c6520636c6f7365730000000000006044820152606490fd5b50346102355760203660031901126102355760206111cb6004356127cb565b503461023557610160366003190112610235576116ca6122a3565b60e4356001600160a01b03811681036103d95767ffffffffffffffff6101043511610f845736602361010435011215610f845761170d610104356004013561230b565b9161171b60405193846122e9565b6004610104359081013580855236910160240111610f1357610104356004013560246101043501602085013783602061010435600401358501015260ff61014435166101443503610f13576001600160a01b03811615611cc15761179563f486570061178b8160a4351115612822565b60c4351115612822565b6117a460c43560a4351061286e565b6117b14260c435116128ba565b60443560643511611c6c5760643560843511611c145760643515611bcf5760443515611b8a576117f86001600160a01b0383166117f260a43560c435612587565b11612906565b604051602081019060243582526001600160601b03198360601b16604082015260443560548201526064356074820152608435609482015260a43560b482015260c43560d482015261188661011582875161185a8160f4840160208c01612228565b81016101243560f482015260ff60f81b6101443560f81b166101148201520360f58101845201826122e9565b519020808552600260205260408520600101549093906001600160a01b0316611b3157838552600260205260408520916024356002840155336001600160601b0360a01b60018501541617600184015560018060a01b03166001600160601b0360a01b83541617825560443560048301556064356005830155608435600683015560a435600783015560c435600883015561012435600a83015560ff610144351660ff19600b8401541617600b830155805167ffffffffffffffff8111611b1d576020956119648261195b60098701546124b8565b6009870161296b565b8690601f8311600114611ab357906119909383611aa85750508160011b916000199060031b1c19161790565b60098201555b6001600160a01b03909116600d8201908155906119b46024356125aa565b600e820180546001600160a01b0319166001600160a01b039092169190911790556003546119e1906129bf565b600355827f131d719b1d5851ec4f2831f990b367619ecbd7aafd05c5961cdc398298c9435560028301549260018060a01b038154169460018060a01b03600183015416600483015491611a90600585015494600960068201549354946007830154600884015490600a8501549760ff600b87015416976040519b8c9b610140968d5260208d015260408c015260608b015260808a015260a089015260c08801528060e0880152860191016124f2565b916101008401526101208301520390a4604051908152f35b015190503880610a2f565b9060098501825287822091935b601f1984168510611b04576001945083601f19811610611aeb575b505050811b016009820155611996565b015160001960f88460031b161c19169055388080611adb565b8181015183559388019360019092019190880190611ac0565b634e487b7160e01b86526041600452602486fd5b60405162461bcd60e51b815260206004820152602b60248201527f612073616c65207769746820746865736520706172616d657465727320616c7260448201526a656164792065786973747360a81b6064820152608490fd5b60405162461bcd60e51b815260206004820152601860248201527f73616c654275794c696d6974206d757374206265203e203000000000000000006044820152606490fd5b60405162461bcd60e51b815260206004820152601860248201527f757365724275794c696d6974206d757374206265203e203000000000000000006044820152606490fd5b60405162461bcd60e51b815260206004820152602a60248201527f70757263686173654d696e696d756d2063616e6e6f7420657863656564207573604482015269195c909d5e531a5b5a5d60b21b6064820152608490fd5b60405162461bcd60e51b815260206004820152602760248201527f757365724275794c696d69742063616e6e6f74206578636565642073616c65426044820152661d5e531a5b5a5d60ca1b6064820152608490fd5b60405162461bcd60e51b815260206004820152602260248201527f726563697069656e74206d757374206e6f74206265207a65726f206164647265604482015261737360f01b6064820152608490fd5b5034610235578060031936011261023557602060405160ff7f0000000000000000000000000000000000000000000000000000000000000000168152f35b503461023557602036600319011261023557600a6040602092600435808252600285526102eb60018060a01b036001858520015416151561243f565b503461023557602036600319011261023557611da56122a3565b6001600160a01b037f0000000000000000000000000000000000000000000000000000000000000000811691839190833b15610f84576024908360405195869485936351cff8d960e01b85521660048401525af18015610f0857611e07575080f35b611e10906122b9565b80f35b50346102355780600319360112610235576040517f00000000000000000000000000000000000000000000000000000000000000006001600160a01b03168152602090f35b503461023557611e673661228d565b818352600290602091808352611e9160018060a01b0361158381600160408a20015416151561243f565b8385528083526008604086200154421015611f66578385528083526008604086200154821015611f2157907f141c96c7f9bc751630fe1c6e1459ac982a755dda2a919f4c7218397df988d0119291611eef63f4865700831115612822565b848652808352611f0961161f83600860408a200154612587565b8486528252806007604087200155604051908152a280f35b60405162461bcd60e51b815260048101849052601b60248201527f73616c65207374617274206d757374207072656365646520656e6400000000006044820152606490fd5b60405162461bcd60e51b815260048101849052601960248201527f64697361626c65642061667465722073616c6520636c6f7365000000000000006044820152606490fd5b5034610235576020366003190112610235576004358082526002602090815260408084206001015491936001600160a01b0393600393611339908616151561243f565b50346102355760203660031901126102355760ff600b60406020936004358082526002865261133960018060a01b036001858520015416151561243f565b503461023557604036600319011261023557600435612049612277565b81835260026020908152604084206001015490916001600160a01b0391612073908316151561243f565b8385526002835261208e8260016040882001541633146129ce565b8385526002835260086040862001544210156120e357907f6039ca6720e37f558ee4c54ff612004deb49321831da1765375d1b0b640088189291168385526002825280600d604087200155604051908152a280f35b60405162461bcd60e51b815260048101849052602c60248201527f63616e6e6f742061646a757374206d61782071756575652074696d652061667460448201526b65722073616c6520656e647360a01b6064820152608490fd5b50346102355760203660031901126102355760056040602092600435808252600285526102eb60018060a01b036001858520015416151561243f565b5034610235576020366003190112610235576121d26121d9600960406102319460043580825260026020526121bd60018060a01b036001858520015416151561243f565b815260026020522001604051928380926124f2565b03826122e9565b6040519182918261224b565b5034610235576020366003190112610235576004358082526002602090815260408084206001015491936001600160a01b0393600e93611339908616151561243f565b60005b83811061223b5750506000910152565b818101518382015260200161222b565b6040916020825261226b8151809281602086015260208686019101612228565b601f01601f1916010190565b602435906001600160a01b03821682036103d957565b60409060031901126103d9576004359060243590565b600435906001600160a01b03821682036103d957565b67ffffffffffffffff81116107c057604052565b6040810190811067ffffffffffffffff8211176107c057604052565b90601f8019910116810190811067ffffffffffffffff8211176107c057604052565b67ffffffffffffffff81116107c057601f01601f191660200190565b9181601f840112156103d95782359167ffffffffffffffff83116103d9576020808501948460051b0101116103d957565b519069ffffffffffffffffffff821682036103d957565b600154604051633fabe5a360e21b81529060a090829060049082906001600160a01b03165afa908115612433576000916123e7575b5060008113156123b15790565b60405162461bcd60e51b815260206004820152600e60248201526d6e6567617469766520707269636560901b6044820152606490fd5b9060a0823d821161242b575b8161240060a093836122e9565b81010312610235575061241281612358565b50612424608060208301519201612358565b50386123a4565b3d91506123f3565b6040513d6000823e3d90fd5b1561244657565b60405162461bcd60e51b815260206004820152600f60248201526e1a5b9d985b1a59081cd85b19481a59608a1b6044820152606490fd5b6000818152600260205260409020600101546001600160a01b0391906124a6908316151561243f565b60005260026020526040600020541690565b90600182811c921680156124e8575b60208310146124d257565b634e487b7160e01b600052602260045260246000fd5b91607f16916124c7565b805460009392612501826124b8565b9182825260209360019182811690816000146125685750600114612527575b5050505050565b90939495506000929192528360002092846000945b83861061255457505050500101903880808080612520565b80548587018301529401938590820161253c565b60ff19168685015250505090151560051b010191503880808080612520565b9190820391821161259457565b634e487b7160e01b600052601160045260246000fd5b600019430190438211612594576001600160a01b039081169140161890565b6000818152600260205260409020600101546125fa9291906125f5906001600160a01b0316151561243f565b6125fd565b90565b6000908152600260205260408120600d81015490811561266e57600e01546001600160a01b0393841690841618908316801561265a578304831691821561264657508216041690565b634e487b7160e01b81526012600452602490fd5b634e487b7160e01b83526012600452602483fd5b5050905090565b60ff16604d811161259457600a0a90565b8181029291811591840414171561259457565b81156126a3570490565b634e487b7160e01b600052601260045260246000fd5b6126e36125fa928260005260026020526126dd60ff600b6040600020015416612675565b90612686565b906000526002602052600a6040600020015490612699565b61270a612733916126dd61236f565b6126dd7f0000000000000000000000000000000000000000000000000000000000000000612675565b60015460405163313ce56760e01b815290602090829060049082906001600160a01b03165afa9081156124335760009161278b575b5060ff60129116019060ff8211612594576127856125fa92612675565b90612699565b6020813d82116127c3575b816127a3602093836122e9565b810103126127bf57519060ff82168203610235575060ff612768565b5080fd5b3d9150612796565b6000818152600260205260409020600101546127f1906001600160a01b0316151561243f565b600052600260205260406000206008810154421090811591612811575090565b90506004600c820154910154111590565b1561282957565b60405162461bcd60e51b815260206004820152601c60248201527f6d61783a203431303234343438303020284a616e2031203231303029000000006044820152606490fd5b1561287557565b60405162461bcd60e51b815260206004820152601e60248201527f73616c65206d757374207374617274206265666f726520697420656e647300006044820152606490fd5b156128c157565b60405162461bcd60e51b815260206004820152601760248201527f73616c65206d75737420656e6420696e206675747572650000000000000000006044820152606490fd5b1561290d57565b60405162461bcd60e51b815260206004820152603060248201527f73616c65206d757374206265206f70656e20666f72206c6f6e6765722074686160448201526f6e206d61782071756575652074696d6560801b6064820152608490fd5b90601f811161297957505050565b600091825260208220906020601f850160051c830194106129b5575b601f0160051c01915b8281106129aa57505050565b81815560010161299e565b9092508290612995565b60001981146125945760010190565b156129d557565b60405162461bcd60e51b815260206004820152600d60248201526c36bab9ba1031329030b236b4b760991b6044820152606490fd5b929390604092835191602092838101916001600160601b03199060601b16825260148152612a37816122cd565b51902067ffffffffffffffff87116107c05760059187831b865198612a5e8683018b6122e9565b8952848901908201913683116103d9578590915b838310612ae05750505050926000935b8751851015612aca5784831b88018401519086600083831015612aba5750506000528352612ab4856000205b946129bf565b93612a82565b9091612ab4938252865220612aae565b9450955050505014612adb57600090565b600190565b8235815291810191869101612a72565b15612af757565b60405162461bcd60e51b81526020600482015260146024820152731cd85b19481b9bdd081cdd185c9d1959081e595d60621b6044820152606490fd5b15612b3a57565b60405162461bcd60e51b815260206004820152600a6024820152691cd85b1948195b99195960b21b6044820152606490fd5b15612b7357565b60405162461bcd60e51b815260206004820152600960248201526839b0b6329037bb32b960b91b6044820152606490fd5b15612bab57565b60405162461bcd60e51b81526020600482015260146024820152734d75737420627579207769746820616e20454f4160601b6044820152606490fd5b908160209103126103d9575180151581036103d95790565b81835290916001600160fb1b0383116103d95760209260051b809284830137010190565b9081526001600160a01b0390911660208201526060604082018190526125fa93910191612bff565b15612c5257565b60405162461bcd60e51b815260206004820152601960248201527f626164206d65726b6c652070726f6f6620666f722073616c65000000000000006044820152606490fd5b15612c9e57565b60405162461bcd60e51b81526020600482015260116024820152701b9bdd081e5bdd5c881d1d5c9b881e595d607a1b6044820152606490fd5b15612cde57565b60405162461bcd60e51b815260206004820152601660248201527570757263686173652062656c6f77206d696e696d756d60501b6044820152606490fd5b9190820180921161259457565b15612d3057565b60405162461bcd60e51b815260206004820152601b60248201527f7075726368617365206578636565647320796f7572206c696d697400000000006044820152606490fd5b15612d7c57565b60405162461bcd60e51b815260206004820152601b60248201527f707572636861736520657863656564732073616c65206c696d697400000000006044820152606490fd5b600260005414612dd2576002600055565b60405162461bcd60e51b815260206004820152601f60248201527f5265656e7472616e637947756172643a207265656e7472616e742063616c6c006044820152606490fd5b91929015612e795750815115612e2b575090565b3b15612e345790565b60405162461bcd60e51b815260206004820152601d60248201527f416464726573733a2063616c6c20746f206e6f6e2d636f6e74726163740000006044820152606490fd5b825190915015612e8c5750805190602001fd5b60405162461bcd60e51b8152908190612ea8906004830161224b565b0390fdfea2646970667358221220103ddb302ea18895ca2058dd56d7a60a56bc0e21228d5ed4d9a1382f5a6f6ffd64736f6c634300081500336080806040523461005b5760008054336001600160a01b0319821681178355916001600160a01b03909116907f8be0079c531659141344cd1fd0a4f28419497f9722a3daafe3b4186f6b6457e09080a361049c90816100618239f35b600080fdfe60406080815260048036101561001457600080fd5b600091823560e01c806351cff8d914610279578063715018a61461021c5780638da5cb5b146101f0578063e3a9db1a146101b6578063f2fde38b146100ed5763f340fa011461006257600080fd5b60203660031901126100e95781356001600160a01b03811692908390036100e55761008b61040e565b82845260016020528184208054913483018093116100d2575055513481527f2da466a7b24304f47e87fa2e1e5a81b9831ce54fec19055ce277ca2f39ba42c490602090a280f35b634e487b7160e01b865260119052602485fd5b8380fd5b8280fd5b50346100e95760203660031901126100e9576001600160a01b038235818116939192908490036101b25761011f61040e565b831561016057505082546001600160a01b0319811683178455167f8be0079c531659141344cd1fd0a4f28419497f9722a3daafe3b4186f6b6457e08380a380f35b906020608492519162461bcd60e51b8352820152602660248201527f4f776e61626c653a206e6577206f776e657220697320746865207a65726f206160448201526564647265737360d01b6064820152fd5b8480fd5b5090346100e95760203660031901126100e957356001600160a01b038116908190036100e957828291602094526001845220549051908152f35b838234610218578160031936011261021857905490516001600160a01b039091168152602090f35b5080fd5b833461027657806003193601126102765761023561040e565b80546001600160a01b03198116825581906001600160a01b03167f8be0079c531659141344cd1fd0a4f28419497f9722a3daafe3b4186f6b6457e08280a380f35b80fd5b5090346100e957602090816003193601126100e55780356001600160a01b03811693908490036101b2576102ab61040e565b838552600183528085209185835493558247106103cd578580808086895af13d156103c85767ffffffffffffffff3d8181116103b557845191601f8201601f19908116603f01168301908111838210176103a2578552815287863d92013e5b1561033b5750519081527f7084f5476618d8e60b11ef0d7d3f06914655adb8793e28ff7f018d4c76d505d59190a280f35b83608492519162461bcd60e51b8352820152603a60248201527f416464726573733a20756e61626c6520746f2073656e642076616c75652c207260448201527f6563697069656e74206d617920686176652072657665727465640000000000006064820152fd5b634e487b7160e01b8a526041855260248afd5b634e487b7160e01b895260418452602489fd5b61030a565b83606492519162461bcd60e51b8352820152601d60248201527f416464726573733a20696e73756666696369656e742062616c616e63650000006044820152fd5b6000546001600160a01b0316330361042257565b606460405162461bcd60e51b815260206004820152602060248201527f4f776e61626c653a2063616c6c6572206973206e6f7420746865206f776e65726044820152fdfea26469706673582212205da8c3482b6ae6cee15cd651efdd8cd9f7c604c5e33eb135f90e610f493facb564736f6c63430008150033","linkReferences":{}},"methodIdentifiers":{"VERSION()":"ffa1ad74","_isAllowed(bytes32,address,bytes32[])":"ad9a6865","buy(bytes32,bytes32[])":"bc8bf093","buy(bytes32,uint256,bytes32[])":"dee5ab43","generateRandomishValue(bytes32)":"c96c9d49","getAdmin(bytes32)":"80c6e70a","getBought(bytes32,address)":"976b2050","getClaimManager(bytes32)":"231bedc7","getDecimals(bytes32)":"12105fea","getEndTime(bytes32)":"eb28322e","getFairQueueTime(bytes32,address)":"ccc325c2","getLatestPrice()":"8e15f473","getMaxQueueTime(bytes32)":"628f9fa0","getMerkleRoot(bytes32)":"a7206cd6","getPrice(bytes32)":"31d98b3f","getPriceOracle()":"fca513a8","getPurchaseMinimum(bytes32)":"dda513da","getRandomValue(bytes32)":"080d840c","getRecipient(bytes32)":"fbc6da75","getSaleBuyLimit(bytes32)":"ef8148b2","getSpent(bytes32,address)":"c83b55f3","getStartTime(bytes32)":"939d6065","getTotalSpent(bytes32)":"b8211d90","getUri(bytes32)":"087c2be7","getUserBuyLimit(bytes32)":"089ed435","isOpen(bytes32)":"7c35be7a","isOver(bytes32)":"4f8b50b0","nativeToPaymentToken(uint256)":"bac4dd88","newSale(address,bytes32,uint256,uint256,uint256,uint256,uint256,uint160,string,uint256,uint8)":"3f6fdf3c","paymentToken()":"3013ce29","paymentTokenDecimals()":"325cd796","payments(address)":"e2982c21","recoverERC20(bytes32,address,uint256)":"b8f8a0b3","registerClaimManager(bytes32,address)":"b94c69aa","saleCount()":"a1e89aec","setEnd(bytes32,uint256)":"50fa4ff2","setMaxQueueTime(bytes32,uint160)":"0ad0607f","setMerkleRoot(bytes32,bytes32)":"75edcbe0","setStart(bytes32,uint256)":"27e54230","setUriAndMerkleRoot(bytes32,bytes32,string)":"c95970be","spentToBought(bytes32,uint256)":"5f0fe446","totalSpent()":"fb346eab","withdrawPayments(address)":"31b3eb94"},"id":39}