{"abi":[{"type":"constructor","inputs":[{"name":"_saleManager","type":"address","internalType":"contract ISaleManager_v_1_3"},{"name":"_saleId","type":"bytes32","internalType":"bytes32"},{"name":"_token","type":"address","internalType":"contract IERC20"},{"name":"_tranches","type":"tuple[]","internalType":"struct Tranche[]","components":[{"name":"time","type":"uint128","internalType":"uint128"},{"name":"vestedFraction","type":"uint128","internalType":"uint128"}]},{"name":"_voteFactor","type":"uint256","internalType":"uint256"},{"name":"_uri","type":"string","internalType":"string"}],"stateMutability":"nonpayable"},{"type":"function","name":"CLOCK_MODE","inputs":[],"outputs":[{"name":"","type":"string","internalType":"string"}],"stateMutability":"view"},{"type":"function","name":"DOMAIN_SEPARATOR","inputs":[],"outputs":[{"name":"","type":"bytes32","internalType":"bytes32"}],"stateMutability":"view"},{"type":"function","name":"NAME","inputs":[],"outputs":[{"name":"","type":"string","internalType":"string"}],"stateMutability":"pure"},{"type":"function","name":"VERSION","inputs":[],"outputs":[{"name":"","type":"uint256","internalType":"uint256"}],"stateMutability":"pure"},{"type":"function","name":"adjust","inputs":[{"name":"beneficiary","type":"address","internalType":"address"},{"name":"amount","type":"int256","internalType":"int256"}],"outputs":[],"stateMutability":"nonpayable"},{"type":"function","name":"allowance","inputs":[{"name":"owner","type":"address","internalType":"address"},{"name":"spender","type":"address","internalType":"address"}],"outputs":[{"name":"","type":"uint256","internalType":"uint256"}],"stateMutability":"view"},{"type":"function","name":"approve","inputs":[{"name":"spender","type":"address","internalType":"address"},{"name":"amount","type":"uint256","internalType":"uint256"}],"outputs":[{"name":"","type":"bool","internalType":"bool"}],"stateMutability":"nonpayable"},{"type":"function","name":"balanceOf","inputs":[{"name":"account","type":"address","internalType":"address"}],"outputs":[{"name":"","type":"uint256","internalType":"uint256"}],"stateMutability":"view"},{"type":"function","name":"checkpoints","inputs":[{"name":"account","type":"address","internalType":"address"},{"name":"pos","type":"uint32","internalType":"uint32"}],"outputs":[{"name":"","type":"tuple","internalType":"struct ERC20Votes.Checkpoint","components":[{"name":"fromBlock","type":"uint32","internalType":"uint32"},{"name":"votes","type":"uint224","internalType":"uint224"}]}],"stateMutability":"view"},{"type":"function","name":"claim","inputs":[{"name":"beneficiary","type":"address","internalType":"address"}],"outputs":[],"stateMutability":"nonpayable"},{"type":"function","name":"claimed","inputs":[],"outputs":[{"name":"","type":"uint256","internalType":"uint256"}],"stateMutability":"view"},{"type":"function","name":"clock","inputs":[],"outputs":[{"name":"","type":"uint48","internalType":"uint48"}],"stateMutability":"view"},{"type":"function","name":"decimals","inputs":[],"outputs":[{"name":"","type":"uint8","internalType":"uint8"}],"stateMutability":"view"},{"type":"function","name":"decreaseAllowance","inputs":[{"name":"spender","type":"address","internalType":"address"},{"name":"subtractedValue","type":"uint256","internalType":"uint256"}],"outputs":[{"name":"","type":"bool","internalType":"bool"}],"stateMutability":"nonpayable"},{"type":"function","name":"delegate","inputs":[{"name":"delegatee","type":"address","internalType":"address"}],"outputs":[],"stateMutability":"nonpayable"},{"type":"function","name":"delegateBySig","inputs":[{"name":"delegatee","type":"address","internalType":"address"},{"name":"nonce","type":"uint256","internalType":"uint256"},{"name":"expiry","type":"uint256","internalType":"uint256"},{"name":"v","type":"uint8","internalType":"uint8"},{"name":"r","type":"bytes32","internalType":"bytes32"},{"name":"s","type":"bytes32","internalType":"bytes32"}],"outputs":[],"stateMutability":"nonpayable"},{"type":"function","name":"delegates","inputs":[{"name":"account","type":"address","internalType":"address"}],"outputs":[{"name":"","type":"address","internalType":"address"}],"stateMutability":"view"},{"type":"function","name":"distancePerSecond","inputs":[],"outputs":[{"name":"","type":"uint160","internalType":"uint160"}],"stateMutability":"view"},{"type":"function","name":"eip712Domain","inputs":[],"outputs":[{"name":"fields","type":"bytes1","internalType":"bytes1"},{"name":"name","type":"string","internalType":"string"},{"name":"version","type":"string","internalType":"string"},{"name":"chainId","type":"uint256","internalType":"uint256"},{"name":"verifyingContract","type":"address","internalType":"address"},{"name":"salt","type":"bytes32","internalType":"bytes32"},{"name":"extensions","type":"uint256[]","internalType":"uint256[]"}],"stateMutability":"view"},{"type":"function","name":"getClaimableAmount","inputs":[{"name":"beneficiary","type":"address","internalType":"address"},{"name":"data","type":"bytes","internalType":"bytes"}],"outputs":[{"name":"","type":"uint256","internalType":"uint256"}],"stateMutability":"view"},{"type":"function","name":"getDistributionRecord","inputs":[{"name":"beneficiary","type":"address","internalType":"address"}],"outputs":[{"name":"","type":"tuple","internalType":"struct DistributionRecord","components":[{"name":"initialized","type":"bool","internalType":"bool"},{"name":"total","type":"uint120","internalType":"uint120"},{"name":"claimed","type":"uint120","internalType":"uint120"}]}],"stateMutability":"view"},{"type":"function","name":"getFairDelayTime","inputs":[{"name":"user","type":"address","internalType":"address"}],"outputs":[{"name":"","type":"uint256","internalType":"uint256"}],"stateMutability":"view"},{"type":"function","name":"getFractionDenominator","inputs":[],"outputs":[{"name":"","type":"uint256","internalType":"uint256"}],"stateMutability":"view"},{"type":"function","name":"getPastTotalSupply","inputs":[{"name":"timepoint","type":"uint256","internalType":"uint256"}],"outputs":[{"name":"","type":"uint256","internalType":"uint256"}],"stateMutability":"view"},{"type":"function","name":"getPastVotes","inputs":[{"name":"account","type":"address","internalType":"address"},{"name":"timepoint","type":"uint256","internalType":"uint256"}],"outputs":[{"name":"","type":"uint256","internalType":"uint256"}],"stateMutability":"view"},{"type":"function","name":"getPurchasedAmount","inputs":[{"name":"buyer","type":"address","internalType":"address"}],"outputs":[{"name":"","type":"uint256","internalType":"uint256"}],"stateMutability":"view"},{"type":"function","name":"getSweepRecipient","inputs":[],"outputs":[{"name":"","type":"address","internalType":"address payable"}],"stateMutability":"view"},{"type":"function","name":"getTotalVotes","inputs":[],"outputs":[{"name":"","type":"uint256","internalType":"uint256"}],"stateMutability":"view"},{"type":"function","name":"getTranche","inputs":[{"name":"i","type":"uint256","internalType":"uint256"}],"outputs":[{"name":"","type":"tuple","internalType":"struct Tranche","components":[{"name":"time","type":"uint128","internalType":"uint128"},{"name":"vestedFraction","type":"uint128","internalType":"uint128"}]}],"stateMutability":"view"},{"type":"function","name":"getTranches","inputs":[],"outputs":[{"name":"","type":"tuple[]","internalType":"struct Tranche[]","components":[{"name":"time","type":"uint128","internalType":"uint128"},{"name":"vestedFraction","type":"uint128","internalType":"uint128"}]}],"stateMutability":"view"},{"type":"function","name":"getVestedFraction","inputs":[{"name":"beneficiary","type":"address","internalType":"address"},{"name":"time","type":"uint256","internalType":"uint256"},{"name":"","type":"bytes","internalType":"bytes"}],"outputs":[{"name":"","type":"uint256","internalType":"uint256"}],"stateMutability":"view"},{"type":"function","name":"getVoteFactor","inputs":[{"name":"","type":"address","internalType":"address"}],"outputs":[{"name":"","type":"uint256","internalType":"uint256"}],"stateMutability":"view"},{"type":"function","name":"getVotes","inputs":[{"name":"account","type":"address","internalType":"address"}],"outputs":[{"name":"","type":"uint256","internalType":"uint256"}],"stateMutability":"view"},{"type":"function","name":"increaseAllowance","inputs":[{"name":"spender","type":"address","internalType":"address"},{"name":"addedValue","type":"uint256","internalType":"uint256"}],"outputs":[{"name":"","type":"bool","internalType":"bool"}],"stateMutability":"nonpayable"},{"type":"function","name":"initializeDistributionRecord","inputs":[{"name":"beneficiary","type":"address","internalType":"address"}],"outputs":[],"stateMutability":"nonpayable"},{"type":"function","name":"maxDelayTime","inputs":[],"outputs":[{"name":"","type":"uint160","internalType":"uint160"}],"stateMutability":"view"},{"type":"function","name":"name","inputs":[],"outputs":[{"name":"","type":"string","internalType":"string"}],"stateMutability":"view"},{"type":"function","name":"nonces","inputs":[{"name":"owner","type":"address","internalType":"address"}],"outputs":[{"name":"","type":"uint256","internalType":"uint256"}],"stateMutability":"view"},{"type":"function","name":"numCheckpoints","inputs":[{"name":"account","type":"address","internalType":"address"}],"outputs":[{"name":"","type":"uint32","internalType":"uint32"}],"stateMutability":"view"},{"type":"function","name":"owner","inputs":[],"outputs":[{"name":"","type":"address","internalType":"address"}],"stateMutability":"view"},{"type":"function","name":"permit","inputs":[{"name":"owner","type":"address","internalType":"address"},{"name":"spender","type":"address","internalType":"address"},{"name":"value","type":"uint256","internalType":"uint256"},{"name":"deadline","type":"uint256","internalType":"uint256"},{"name":"v","type":"uint8","internalType":"uint8"},{"name":"r","type":"bytes32","internalType":"bytes32"},{"name":"s","type":"bytes32","internalType":"bytes32"}],"outputs":[],"stateMutability":"nonpayable"},{"type":"function","name":"randomValue","inputs":[],"outputs":[{"name":"","type":"uint160","internalType":"uint160"}],"stateMutability":"view"},{"type":"function","name":"renounceOwnership","inputs":[],"outputs":[],"stateMutability":"nonpayable"},{"type":"function","name":"saleId","inputs":[],"outputs":[{"name":"","type":"bytes32","internalType":"bytes32"}],"stateMutability":"view"},{"type":"function","name":"saleManager","inputs":[],"outputs":[{"name":"","type":"address","internalType":"contract ISaleManager_v_1_3"}],"stateMutability":"view"},{"type":"function","name":"setSweepRecipient","inputs":[{"name":"_recipient","type":"address","internalType":"address payable"}],"outputs":[],"stateMutability":"nonpayable"},{"type":"function","name":"setToken","inputs":[{"name":"_token","type":"address","internalType":"contract IERC20"}],"outputs":[],"stateMutability":"nonpayable"},{"type":"function","name":"setTotal","inputs":[{"name":"_total","type":"uint256","internalType":"uint256"}],"outputs":[],"stateMutability":"nonpayable"},{"type":"function","name":"setTranches","inputs":[{"name":"_tranches","type":"tuple[]","internalType":"struct Tranche[]","components":[{"name":"time","type":"uint128","internalType":"uint128"},{"name":"vestedFraction","type":"uint128","internalType":"uint128"}]}],"outputs":[],"stateMutability":"nonpayable"},{"type":"function","name":"setUri","inputs":[{"name":"_uri","type":"string","internalType":"string"}],"outputs":[],"stateMutability":"nonpayable"},{"type":"function","name":"setVoteFactor","inputs":[{"name":"_voteFactor","type":"uint256","internalType":"uint256"}],"outputs":[],"stateMutability":"nonpayable"},{"type":"function","name":"sweepNative","inputs":[{"name":"amount","type":"uint256","internalType":"uint256"}],"outputs":[],"stateMutability":"nonpayable"},{"type":"function","name":"sweepNative","inputs":[],"outputs":[],"stateMutability":"nonpayable"},{"type":"function","name":"sweepToken","inputs":[{"name":"token","type":"address","internalType":"contract IERC20"}],"outputs":[],"stateMutability":"nonpayable"},{"type":"function","name":"sweepToken","inputs":[{"name":"token","type":"address","internalType":"contract IERC20"},{"name":"amount","type":"uint256","internalType":"uint256"}],"outputs":[],"stateMutability":"nonpayable"},{"type":"function","name":"symbol","inputs":[],"outputs":[{"name":"","type":"string","internalType":"string"}],"stateMutability":"view"},{"type":"function","name":"token","inputs":[],"outputs":[{"name":"","type":"address","internalType":"contract IERC20"}],"stateMutability":"view"},{"type":"function","name":"total","inputs":[],"outputs":[{"name":"","type":"uint256","internalType":"uint256"}],"stateMutability":"view"},{"type":"function","name":"totalSupply","inputs":[],"outputs":[{"name":"","type":"uint256","internalType":"uint256"}],"stateMutability":"view"},{"type":"function","name":"transfer","inputs":[{"name":"to","type":"address","internalType":"address"},{"name":"amount","type":"uint256","internalType":"uint256"}],"outputs":[{"name":"","type":"bool","internalType":"bool"}],"stateMutability":"nonpayable"},{"type":"function","name":"transferFrom","inputs":[{"name":"from","type":"address","internalType":"address"},{"name":"to","type":"address","internalType":"address"},{"name":"amount","type":"uint256","internalType":"uint256"}],"outputs":[{"name":"","type":"bool","internalType":"bool"}],"stateMutability":"nonpayable"},{"type":"function","name":"transferOwnership","inputs":[{"name":"newOwner","type":"address","internalType":"address"}],"outputs":[],"stateMutability":"nonpayable"},{"type":"function","name":"uri","inputs":[],"outputs":[{"name":"","type":"string","internalType":"string"}],"stateMutability":"view"},{"type":"event","name":"Adjust","inputs":[{"name":"beneficiary","type":"address","indexed":true,"internalType":"address"},{"name":"amount","type":"int256","indexed":false,"internalType":"int256"}],"anonymous":false},{"type":"event","name":"Approval","inputs":[{"name":"owner","type":"address","indexed":true,"internalType":"address"},{"name":"spender","type":"address","indexed":true,"internalType":"address"},{"name":"value","type":"uint256","indexed":false,"internalType":"uint256"}],"anonymous":false},{"type":"event","name":"Claim","inputs":[{"name":"beneficiary","type":"address","indexed":true,"internalType":"address"},{"name":"amount","type":"uint256","indexed":false,"internalType":"uint256"}],"anonymous":false},{"type":"event","name":"DelegateChanged","inputs":[{"name":"delegator","type":"address","indexed":true,"internalType":"address"},{"name":"fromDelegate","type":"address","indexed":true,"internalType":"address"},{"name":"toDelegate","type":"address","indexed":true,"internalType":"address"}],"anonymous":false},{"type":"event","name":"DelegateVotesChanged","inputs":[{"name":"delegate","type":"address","indexed":true,"internalType":"address"},{"name":"previousBalance","type":"uint256","indexed":false,"internalType":"uint256"},{"name":"newBalance","type":"uint256","indexed":false,"internalType":"uint256"}],"anonymous":false},{"type":"event","name":"EIP712DomainChanged","inputs":[],"anonymous":false},{"type":"event","name":"InitializeDistributionRecord","inputs":[{"name":"beneficiary","type":"address","indexed":true,"internalType":"address"},{"name":"total","type":"uint256","indexed":false,"internalType":"uint256"}],"anonymous":false},{"type":"event","name":"InitializeDistributor","inputs":[{"name":"token","type":"address","indexed":true,"internalType":"contract IERC20"},{"name":"total","type":"uint256","indexed":false,"internalType":"uint256"},{"name":"uri","type":"string","indexed":false,"internalType":"string"},{"name":"fractionDenominator","type":"uint256","indexed":false,"internalType":"uint256"}],"anonymous":false},{"type":"event","name":"OwnershipTransferred","inputs":[{"name":"previousOwner","type":"address","indexed":true,"internalType":"address"},{"name":"newOwner","type":"address","indexed":true,"internalType":"address"}],"anonymous":false},{"type":"event","name":"SetDelay","inputs":[{"name":"maxDelayTime","type":"uint160","indexed":false,"internalType":"uint160"}],"anonymous":false},{"type":"event","name":"SetSweepRecipient","inputs":[{"name":"recipient","type":"address","indexed":false,"internalType":"address"}],"anonymous":false},{"type":"event","name":"SetToken","inputs":[{"name":"token","type":"address","indexed":true,"internalType":"contract IERC20"}],"anonymous":false},{"type":"event","name":"SetTotal","inputs":[{"name":"total","type":"uint256","indexed":false,"internalType":"uint256"}],"anonymous":false},{"type":"event","name":"SetTranche","inputs":[{"name":"index","type":"uint256","indexed":true,"internalType":"uint256"},{"name":"time","type":"uint128","indexed":false,"internalType":"uint128"},{"name":"VestedFraction","type":"uint128","indexed":false,"internalType":"uint128"}],"anonymous":false},{"type":"event","name":"SetUri","inputs":[{"name":"uri","type":"string","indexed":true,"internalType":"string"}],"anonymous":false},{"type":"event","name":"SetVoteFactor","inputs":[{"name":"voteFactor","type":"uint256","indexed":false,"internalType":"uint256"}],"anonymous":false},{"type":"event","name":"SweepNative","inputs":[{"name":"amount","type":"uint256","indexed":false,"internalType":"uint256"}],"anonymous":false},{"type":"event","name":"SweepToken","inputs":[{"name":"token","type":"address","indexed":true,"internalType":"address"},{"name":"amount","type":"uint256","indexed":false,"internalType":"uint256"}],"anonymous":false},{"type":"event","name":"Transfer","inputs":[{"name":"from","type":"address","indexed":true,"internalType":"address"},{"name":"to","type":"address","indexed":true,"internalType":"address"},{"name":"value","type":"uint256","indexed":false,"internalType":"uint256"}],"anonymous":false},{"type":"error","name":"InvalidShortString","inputs":[]},{"type":"error","name":"StringTooLong","inputs":[{"name":"str","type":"string","internalType":"string"}]}],"bytecode":{"object":"0x6101c08060405234620010c45762005de9803803809162000021828562001153565b833981019060c081830312620010c45780516001600160a01b0381168103620010c45760208201516040830151929091906001600160a01b0384168403620010c45760608101516001600160401b038111620010c45781019480601f87011215620010c45785516001600160401b038111620007265760405196620000ad60208360051b018962001153565b81885260208089019260061b82010190838211620010c457602001915b818310620010c957505050608082015160a083015190926001600160401b038211620010c4570181601f82011215620010c45780516001600160401b03811162000726576040519262000128601f8301601f19166020018562001153565b81845260208284010111620010c4576200014991602080850191016200118c565b604051630b8211d960e41b8152600481018590526020816024816001600160a01b0388165afa908115620009fa576000916200108c575b50604051632f87f22360e11b81526004810186905260248101919091526020816044816001600160a01b0388165afa908115620009fa5760009162001054575b50620001cb620011b1565b620001d5620011b1565b90604051620001e48162001137565b600381526212559560ea1b602082015260405192620002038462001137565b60018452603160f81b60208086019190915260008054336001600160a01b03198216811783556040517fccdd1baf560d2682736fa25752c8ccc0c5fc4079b245b0acf7389776308d5b1f949390926001600160a01b0316907f8be0079c531659141344cd1fd0a4f28419497f9722a3daafe3b4186f6b6457e09080a3600180546001600160a01b031916339081179091558152a18051906001600160401b03821162000726578190620002b8600554620011ec565b601f811162000ffe575b50602090601f831160011462000f6f5760009262000f63575b50508160011b916000199060031b1c1916176005555b8051906001600160401b0382116200072657819062000312600654620011ec565b601f811162000f02575b50602090601f831160011462000e845760009262000e78575b50508160011b916000199060031b1c1916176006555b62000356816200131b565b610120526200036582620014a8565b6101405260208151910120908160e0526020815191012080610100524660a052604051917f8b73c3c69bb8fe3d512ecc4cf759cc79239f7b179b0ffacaa9a75d522b39400f6020840152604083015260608201524660808201523060a082015260a081528060c081011060018060401b0360c083011117620007265760c0818101604052815160208301206080523090526001600e556001600160a01b0387161562000e305750801562000deb57601080546001600160a01b0319166001600160a01b0388161790556011558051906001600160401b0382116200072657819062000452601354620011ec565b601f811162000d8a575b50602090601f831160011462000d0c5760009262000d00575b50508160011b916000199060031b1c1916176013555b6127106101605260018060a01b0360105416601154604051908152606060208201526000601354620004bd81620011ec565b9081606085015260018116908160001462000cce575060011462000c77575b509160008051602062005d89833981519152828060209561271060407f6c339c0bee516a4df5d7074ba7a974856d609f83666e915aa4a0f90e06989dc5999701520390a2601580546001600160a01b0319908116909155601480549091169055604051600081527fdccb8d94a5bbd764ed844afa20f2581be18d3fa84b36855e86a8f0c9316cba7d908390a162000572620012c2565b80601755604051908152a183511562000c3e5760185460006018558062000bf7575b509060009182835b865185101562000819576001600160801b036020620005bc878a620012ad565b5101511615620007d4576001600160801b03620005da8689620012ad565b5151166001600160801b0390911610156200078f576001600160801b036020620006058689620012ad565b510151166001600160801b0390911610156200073c576001600160801b036200062f8487620012ad565b515116916001600160801b036020620006498689620012ad565b51015116936200065a8188620012ad565b519060185491680100000000000000008310156200072657600183018060185583101562000710576018600052805160209182015160801b6001600160801b0319166001600160801b0391909116177fb13d2d76d1f4b7be834882e410b3e3a8afaf69f83600ae24db354391d2378d2e909301929092556040805186815292830187905260019282917f5104929ca78e46ba25dca9557731ec873a03ae745d3ee194d262cc4820662a1c91a2019390926200059c565b634e487b7160e01b600052603260045260246000fd5b634e487b7160e01b600052604160045260246000fd5b60405162461bcd60e51b815260206004820152602560248201527f7472616e63686520766573746564206672616374696f6e206d75737420696e63604482015264726561736560d81b6064820152608490fd5b60405162461bcd60e51b815260206004820152601a60248201527f7472616e6368652074696d65206d75737420696e6372656173650000000000006044820152606490fd5b60405162461bcd60e51b815260206004820152601c60248201527f7472616e63686520766573746564206672616374696f6e203d3d2030000000006044820152606490fd5b91935084916001600160801b039063f48657009082161162000b9f576101605191160362000b50576001600160a01b0383161562000b0b57811562000ac657620008639062001229565b600019811490811562000a4a575b501562000a06576040516304f8b50b60e41b8152600481018290526020816024816001600160a01b0387165afa908115620009fa57600091620009b1575b50156200096c576101809182526101a0908152604051906147a49283620015e58439608051836141ba015260a05183614275015260c05183614184015260e051836142090152610100518361422f015261012051836114ad015261014051836114d70152610160518381816105840152818161277401528181612ab0015261303e01525182818161096201528181610fb50152818161123401526125f401525181818161092601528181610f7501528181611d7101526125b40152f35b60405162461bcd60e51b815260206004820152601860248201527f5456535f315f335f443a2073616c65206e6f74206f76657200000000000000006044820152606490fd5b6020813d602011620009f1575b81620009cd6020938362001153565b81010312620009ed5751908115158203620009ea575083620008af565b80fd5b5080fd5b3d9150620009be565b6040513d6000823e3d90fd5b606460405162461bcd60e51b815260206004820152602060248201527f746f6b656e20646563696d616c7320646f206e6f74206d617463682073616c656044820152fd5b6040516309082ff560e11b81526004810184905291506020826024816001600160a01b0388165afa918215620009fa5760009262000a8c575b50148362000871565b90916020823d60201162000abd575b8162000aaa6020938362001153565b81010312620009ea575051908462000a83565b3d915062000a9b565b60405162461bcd60e51b815260206004820152601e60248201527f5456535f315f335f443a2073616c6520696420697320627974657328302900006044820152606490fd5b60405162461bcd60e51b815260206004820152601d60248201527f5456535f315f335f443a2073616c6520697320616464726573732830290000006044820152606490fd5b60405162461bcd60e51b815260206004820152602160248201527f6c617374207472616e636865206d757374207665737420616c6c20746f6b656e6044820152607360f81b6064820152608490fd5b60405162461bcd60e51b815260206004820152602a60248201527f76657374696e6720656e6473206166746572203431303234343438303020284a604482015269616e203120323130302960b01b6064820152608490fd5b60186000527fb13d2d76d1f4b7be834882e410b3e3a8afaf69f83600ae24db354391d2378d2e908101905b81811062000c31575062000594565b6000815560010162000c22565b60405162461bcd60e51b81526020600482015260116024820152701d1c985b98da195cc81c995c5d5a5c9959607a1b6044820152606490fd5b60136000908152915060008051602062005da98339815191525b81831062000cb6575050810160800160008051602062005d89833981519152620004dc565b80546080848601015260209092019160010162000c91565b60ff191660808086019190915291151560051b8401909101915060008051602062005d898339815191529050620004dc565b01519050388062000475565b60136000908152935060008051602062005da983398151915291905b601f198416851062000d6e576001945083601f1981161062000d54575b505050811b016013556200048b565b015160001960f88460031b161c1916905538808062000d45565b8181015183556020948501946001909301929091019062000d28565b601360005290915060008051602062005da9833981519152601f840160051c81016020851062000de3575b90849392915b601f830160051c8201811062000dd35750506200045c565b6000815585945060010162000dbb565b508062000db5565b60405162461bcd60e51b815260206004820152601760248201527f4469737472696275746f723a20746f74616c20697320300000000000000000006044820152606490fd5b60c060649162461bcd60e51b82820152602060c4820152602060e48201527f4469737472696275746f723a20746f6b656e206973206164647265737328302961010482015201fd5b01519050388062000335565b60066000908152935060008051602062005dc983398151915291905b601f198416851062000ee6576001945083601f1981161062000ecc575b505050811b016006556200034b565b015160001960f88460031b161c1916905538808062000ebd565b8181015183556020948501946001909301929091019062000ea0565b600660005290915060008051602062005dc9833981519152601f840160051c81016020851062000f5b575b90849392915b601f830160051c8201811062000f4b5750506200031c565b6000815585945060010162000f33565b508062000f2d565b015190503880620002db565b6005600090815293507f036b6384b5eca791c62761152d0c79bb0604c104a5fb6f4eb0703f3154bb3db091905b601f198416851062000fe2576001945083601f1981161062000fc8575b505050811b01600555620002f1565b015160001960f88460031b161c1916905538808062000fb9565b8181015183556020948501946001909301929091019062000f9c565b90915060056000526020600020601f840160051c8101602085106200104c575b90849392915b601f830160051c820181106200103c575050620002c2565b6000815585945060010162001024565b50806200101e565b906020823d60201162001083575b81620010716020938362001153565b81010312620009ea57505138620001c0565b3d915062001062565b906020823d602011620010bb575b81620010a96020938362001153565b81010312620009ea5750513862000180565b3d91506200109a565b600080fd5b604083850312620010c4576040805191908201906001600160401b0382118383101762001122576040926020928452620011038662001177565b81526200111283870162001177565b83820152815201920191620000ca565b60246000634e487b7160e01b81526041600452fd5b604081019081106001600160401b038211176200072657604052565b601f909101601f19168101906001600160401b038211908210176200072657604052565b51906001600160801b0382168203620010c457565b60005b838110620011a05750506000910152565b81810151838201526020016200118f565b60405190620011c08262001137565b601582527f496e7465726e616c20766f746520747261636b657200000000000000000000006020830152565b90600182811c921680156200121e575b60208310146200120857565b634e487b7160e01b600052602260045260246000fd5b91607f1691620011fc565b60405163313ce56760e01b815290602090829060049082906001600160a01b03165afa80916000916200126b575b509062001265575060001990565b60ff1690565b6020813d8211620012a4575b81620012866020938362001153565b81010312620009ed57519060ff82168203620009ea57503862001257565b3d915062001277565b8051821015620007105760209160051b010190565b6014546001600160a01b031615620013195760405162461bcd60e51b815260206004820152601860248201527f492064656d616e64206d6f72652072616e646f6d6e65737300000000000000006044820152606490fd5b565b805160209081811015620013995750601f8251116200135757808251920151908083106200134857501790565b82600019910360031b1b161790565b6044906200138b9260405193849263305a27a960e01b8452806004850152825192839182602487015286860191016200118c565b601f01601f19168101030190fd5b919291906001600160401b0382116200072657620013b9600754620011ec565b601f811162001470575b5080601f8311600114620014045750819293600092620013f8575b50508160011b916000199060031b1c19161760075560ff90565b015190503880620013de565b90601f19831694600760005282600020926000905b878210620014575750508360019596106200143d575b505050811b0160075560ff90565b015160001960f88460031b161c191690553880806200142f565b8060018596829496860151815501950193019062001419565b600060078152601f838220920160051c820191601f850160051c015b8281106200149c575050620013c3565b8181556001016200148c565b805160209081811015620014d55750601f8251116200135757808251920151908083106200134857501790565b919291906001600160401b0382116200072657620014f5600854620011ec565b601f8111620015ac575b5080601f831160011462001540575081929360009262001534575b50508160011b916000199060031b1c19161760085560ff90565b0151905038806200151a565b90601f19831694600860005282600020926000905b8782106200159357505083600195961062001579575b505050811b0160085560ff90565b015160001960f88460031b161c191690553880806200156b565b8060018596829496860151815501950193019062001555565b600060088152601f838220920160051c820191601f850160051c015b828110620015d8575050620014ff565b818155600101620015c856fe6080604052600436101561001257600080fd5b60003560e01c806306fdde03146103fd578063095ea7b31461033f5780630f56b96c146103f857806313c67ce5146103f3578063144fa6d7146103ee57806318160ddd1461035d5780631be19560146103e95780631e83409a146103e45780631f8d1d50146103df57806323b872dd146103da57806324285762146103d5578063276801ec146103d05780632ddbd13a146103cb578063313ce567146103c65780633644e515146103c157806339509351146103bc5780633a46b1a8146103b75780633cf3a025146103b257806344b3c204146103ad5780634bf5d7e9146103a8578063587cde1e146103a35780635c19a95c1461039e5780636fcfff451461039957806370a0823114610394578063715018a61461038f578063746e60b51461038a57806375aa9bc6146103855780637ecebe001461038057806384b0196e1461037b5780638da5cb5b146103765780638e539e8c1461037157806391ddadf41461036c57806395d89b41146103675780639691cab5146103625780639a0e7d661461035d5780639ab24eb0146103585780639b642de114610353578063a3f4df7e1461034e578063a457c2d714610349578063a4ef1f7814610344578063a9059cbb1461033f578063ab803a761461033a578063bb22dccb14610335578063c3cda52014610330578063c6e8d9821461032b578063c78d598514610326578063c84c038714610321578063c95572551461031c578063d3d0ec8914610317578063d505accf14610312578063d972e8ad1461030d578063dc2f511b14610308578063dd62ed3e14610303578063de032f58146102fe578063e834a834146102f9578063e85858d9146102f4578063e90a182f146102ef578063eac989f8146102ea578063f1127ed8146102e5578063f2fde38b146102e0578063f56c8547146102db578063fc0c546a146102d65763ffa1ad74146102d157600080fd5b61256e565b612545565b61251c565b612455565b6123d5565b61233e565b612292565b6121b0565b612192565b612122565b6120bf565b611fdd565b611f6d565b611e2d565b611de0565b611d94565b611d59565b611d30565b611d07565b611bd8565b611b8f565b611b34565b61054b565b611b0d565b611a6a565b611a13565b6118c3565b611860565b6107f3565b6117a9565b6116d4565b6116a8565b6115b4565b61158b565b611492565b611455565b611263565b61121e565b6111c3565b611186565b61113b565b611115565b6110d6565b611024565b610f49565b610eda565b610d85565b610cef565b610cd4565b610cb8565b610c9a565b610c71565b610c4a565b610ba8565b610b5c565b6108f9565b610811565b61074b565b6106fa565b61056c565b610456565b919082519283825260005b84811061042e575050826000602080949584010152601f8019910116010190565b60208183018101518483018201520161040d565b906020610453928181520190610402565b90565b3461053557600080600319360112610532576040518160055461047881612304565b90818452602092600191828116908160001461051057506001146104b7575b6104b3856104a78189038261064e565b60405191829182610442565b0390f35b929450600583527f036b6384b5eca791c62761152d0c79bb0604c104a5fb6f4eb0703f3154bb3db05b8284106104fd57505050816104b3936104a7928201019338610497565b80548585018701529285019281016104e0565b60ff191686860152505050151560051b82010191506104a7816104b338610497565b80fd5b600080fd5b6001600160a01b0381160361053557565b346105355760403660031901126105355761056760043561053a565b6133ec565b346105355760003660031901126105355760206040517f00000000000000000000000000000000000000000000000000000000000000008152f35b634e487b7160e01b600052604160045260246000fd5b6040810190811067ffffffffffffffff8211176105d957604052565b6105a7565b6060810190811067ffffffffffffffff8211176105d957604052565b6020810190811067ffffffffffffffff8211176105d957604052565b6080810190811067ffffffffffffffff8211176105d957604052565b60c0810190811067ffffffffffffffff8211176105d957604052565b90601f8019910116810190811067ffffffffffffffff8211176105d957604052565b6040519061067d826105de565b565b6040519061067d826105bd565b67ffffffffffffffff81116105d957601f01601f191660200190565b9291926106b48261068c565b916106c2604051938461064e565b829481845281830111610535578281602093846000960137010152565b9080601f8301121561053557816020610453933591016106a8565b34610535576040366003190112610535576004356107178161053a565b60243567ffffffffffffffff81116105355760209161073d6107439236906004016106df565b50612726565b604051908152f35b34610535576020366003190112610535576004356107688161053a565b610770613394565b6001600160a01b031680156107b857601080546001600160a01b031916821790557fefc1fd16ea80a922086ee4e995739d59b025c1bcea6d1f67855747480c83214b600080a2005b60405162461bcd60e51b8152602060048201526013602482015272746f6b656e206973206164647265737328302960681b6044820152606490fd5b34610535576000366003190112610535576020600454604051908152f35b346105355760203660031901126105355760043561082e8161053a565b610836613394565b6040516370a0823160e01b81523060048201526001600160a01b0382169190602081602481865afa80156108f4577ff4a44a7f605c4971a27bcecb448108e6328b7fad34fab5bff4f69377294b826d926108bb926000926108c0575b506001546108ab9183916001600160a01b031690613ddf565b6040519081529081906020820190565b0390a2005b6108ab9192506108e69060203d81116108ed575b6108de818361064e565b81019061258a565b9190610892565b503d6108d4565b612599565b3461053557602080600319360112610535576004356109178161053a565b60405163c83b55f360e01b81527f000000000000000000000000000000000000000000000000000000000000000060048201526001600160a01b0382811660248301529083816044817f000000000000000000000000000000000000000000000000000000000000000086165afa80156108f45761099f91600091610b3f575b501515612648565b6002600e5414610afa576002600e556109b782612871565b906109c0612689565b506001600160781b03809216908316600052600f8452808260406000205460081c1603610aea575b506109f282612726565b16908115610a8d576001600160a01b0381166000908152600f60205260409020610a819350610a5f90610a3984610a3483546001600160781b039060801c1690565b612b9f565b8154600160801b600160f81b03191660809190911b600160801b600160f81b0316179055565b610a73610a6e83601254612b92565b601255565b610a7c81612a06565b612dd1565b610a8b6001600e55565b005b60405162461bcd60e51b815260048101849052602f60248201527f4469737472696275746f723a206e6f206d6f726520746f6b656e7320636c616960448201526e6d61626c65207269676874206e6f7760881b6064820152608490fd5b610af490836128ad565b386109e8565b60405162461bcd60e51b815260048101849052601f60248201527f5265656e7472616e637947756172643a207265656e7472616e742063616c6c006044820152606490fd5b610b569150853d87116108ed576108de818361064e565b38610997565b34610535576020366003190112610535577fac657d3615bd618ee537848e2b33acd2a9df67d4776485ab6922b0421d324d296020600435610b9b613394565b80601155604051908152a1005b3461053557606036600319011261053557600435610bc58161053a565b610bd060243561053a565b6001600160a01b0316600090815260036020908152604080832033845290915290205460018101156133ec5760443511156133ec5760405162461bcd60e51b815260206004820152601d60248201527f45524332303a20696e73756666696369656e7420616c6c6f77616e63650000006044820152606490fd5b34610535576020366003190112610535576020610743600435610c6c8161053a565b6125a5565b34610535576000366003190112610535576016546040516001600160a01b039091168152602090f35b34610535576000366003190112610535576020601154604051908152f35b3461053557600036600319011261053557602060405160128152f35b34610535576000366003190112610535576020610743614181565b3461053557604036600319011261053557610d34600435610d0f8161053a565b33600052600360205260406000209060018060a01b0316600052602052604060002090565b54602435810110610d805760405162461bcd60e51b81526020600482015260196024820152783234b9b0b13632b2103337b9103b37ba34b733903837bbb2b960391b6044820152606490fd5b6126d8565b3461053557604036600319011261053557600435610da28161053a565b60243590610dc165ffffffffffff610db943614648565b16831061349b565b6001600160a01b03166000908152600c6020526040812080549290918360058111610e89575b50905b838210610e3857505081610e11575050602060005b6040516001600160e01b039091168152f35b610e2c610e3391602093600019019060005260206000200190565b5460201c90565b610dff565b9092610e448185614478565b908263ffffffff610e69610e5f858860005260206000200190565b5463ffffffff1690565b161115610e795750925b90610dea565b9350610e8490612b84565b610e73565b80610e99610e9f9296939661448d565b906129f9565b908263ffffffff610eba610e5f858860005260206000200190565b161115610eca5750925b38610de7565b9350610ed590612b84565b610ec4565b3461053557602036600319011261053557600435610ef6613394565b7f3b381fdfc0e2729a70e8b26ae2397e9014f703a8235b557f5581c4ed47280fd26020600092610f3f848080808560018060a01b03600154165af1610f39613325565b50613355565b604051908152a180f35b3461053557602036600319011261053557600435610f668161053a565b60405163c83b55f360e01b81527f000000000000000000000000000000000000000000000000000000000000000060048201526001600160a01b038216602482015290602082806044810103817f00000000000000000000000000000000000000000000000000000000000000006001600160a01b03165afa9182156108f457610a8b92610ffd9160009161100c57501515612648565b611006816125a5565b906128ad565b610b56915060203d81116108ed576108de818361064e565b34610535576000366003190112610535574365ffffffffffff61104643614648565b1603611091576104b360405161105b816105bd565b601d81527f6d6f64653d626c6f636b6e756d6265722666726f6d3d64656661756c74000000602082015260405191829182610442565b60405162461bcd60e51b815260206004820152601d60248201527f4552433230566f7465733a2062726f6b656e20636c6f636b206d6f64650000006044820152606490fd5b346105355760203660031901126105355760206004356110f58161053a565b60018060a01b03809116600052600b825260406000205416604051908152f35b3461053557602036600319011261053557610a8b6004356111358161053a565b33613861565b34610535576020366003190112610535576004356111588161053a565b60018060a01b0316600052600c60205260206111786040600020546146af565b63ffffffff60405191168152f35b34610535576020366003190112610535576004356111a38161053a565b60018060a01b031660005260026020526020604060002054604051908152f35b3461053557600080600319360112610532576111dd613394565b80546001600160a01b03198116825581906001600160a01b03167f8be0079c531659141344cd1fd0a4f28419497f9722a3daafe3b4186f6b6457e08280a380f35b34610535576000366003190112610535576040517f00000000000000000000000000000000000000000000000000000000000000006001600160a01b03168152602090f35b34610535576040366003190112610535576004356112808161053a565b7fd81661cef4e40e0f1f97384c033d606e4d6b570554fc3524568d8f9fc84c83886108bb602435926112b0613394565b6001600160a01b0381166000908152600f602052604090206112d1906126a1565b6112e36112de8251151590565b612adc565b600085131561144757845b6001600160781b0391611302838310612b38565b60008712156113fc576113d99261136161135c846113bb946113578261135061134460206011549561133685881015612bba565b01516001600160781b031690565b6001600160781b031690565b1015612c16565b6129f9565b601155565b6001600160a01b0385166000908152600f6020526040902061139a9091841661139583546001600160781b039060081c1690565b6129e0565b610100600160801b0382549160081b1690610100600160801b031916179055565b6010546001600160a01b03166000546001600160a01b031690613ddf565b6113e281612a06565b6040519384526001600160a01b0316929081906020820190565b5061139a6114429261141361135c84601154612b92565b6001600160a01b0385166000908152600f602052604090209216610a3483546001600160781b039060081c1690565b6113d9565b61145085612b27565b6112ee565b34610535576020366003190112610535576004356114728161053a565b60018060a01b031660005260096020526020604060002054604051908152f35b34610535576000806003193601126105325761152f906114d17f00000000000000000000000000000000000000000000000000000000000000006142c1565b906114fb7f00000000000000000000000000000000000000000000000000000000000000006143bb565b9060405191611509836105fa565b81835261153d602091604051968796600f60f81b885260e08589015260e0880190610402565b908682036040880152610402565b904660608601523060808601528260a086015284820360c08601528080855193848152019401925b82811061157457505050500390f35b835185528695509381019392810192600101611565565b34610535576000366003190112610535576000546040516001600160a01b039091168152602090f35b34610535576020366003190112610535576004356115e365ffffffffffff6115db43614648565b16821061349b565b600d549060008260058111611665575b50905b828210611622578280611610575060405160008152602090f35b610e33610e2c60209260001901613db5565b909161162e8184614478565b90818363ffffffff611642610e5f84613db5565b161115611653575050915b906115f6565b9093506116609150612b84565b61164d565b80610e996116759295939561448d565b908263ffffffff611688610e5f85613db5565b1611156116985750915b386115f3565b92506116a390612b84565b611692565b346105355760003660031901126105355760206116c443614648565b65ffffffffffff60405191168152f35b346105355760008060031936011261053257604051816006546116f681612304565b9081845260209260019182811690816000146105105750600114611724576104b3856104a78189038261064e565b929450600683527ff652222313e28459528d920b65115c16c04f3efc82aaedc97be59f3f377c0d3f5b82841061176a57505050816104b3936104a7928201019338610497565b805485850187015292850192810161174d565b67ffffffffffffffff81116105d95760051b60200190565b35906001600160801b038216820361053557565b3461053557602080600319360112610535576004359067ffffffffffffffff82116105355736602383011215610535578160040135916117e88361177d565b916040936117f88551948561064e565b80845260248285019160061b8401019236841161053557602401905b83821061182457610a8b85612ef0565b858236031261053557828691825161183b816105bd565b61184485611795565b8152611851838601611795565b83820152815201910190611814565b346105355760203660031901126105355760043561187d8161053a565b6001600160a01b03166000908152600c602052604090208054806118a957505060405160008152602090f35b6020916118ba916000190190612e2d565b5054811c610dff565b34610535576020806003193601126105355767ffffffffffffffff6004358181116105355736602382011215610535576119079036906024816004013591016106a8565b91611910613394565b82519182116105d95761192d82611928601354612304565b612c79565b80601f831160011461199b5750819061195d93600092611990575b50508160011b916000199060031b1c19161790565b6013555b611969612cd8565b7fd70c1392a974224e639e7a9607dcb2c766826aecfe2dc356f442ce0488b01e1f600080a2005b015190503880611948565b90601f198316936119bc601360005260008051602061472f83398151915290565b926000905b8682106119fb57505083600195106119e2575b505050811b01601355611961565b015160001960f88460031b161c191690553880806119d4565b806001859682949686015181550195019301906119c1565b34610535576000366003190112610535576104b3604051611a33816105bd565b60168152755472616e63686556657374696e6753616c655f315f3360501b6020820152604051918291602083526020830190610402565b3461053557604036600319011261053557600435611a878161053a565b336000526003602052611ab36024359160406000209060018060a01b0316600052602052604060002090565b5410156133ec5760405162461bcd60e51b815260206004820152602560248201527f45524332303a2064656372656173656420616c6c6f77616e63652062656c6f77604482015264207a65726f60d81b6064820152608490fd5b34610535576020366003190112610535576020610743600435611b2f8161053a565b6132f6565b346105355760008060031936011261053257611b4e613394565b7f3b381fdfc0e2729a70e8b26ae2397e9014f703a8235b557f5581c4ed47280fd2602047610f3f848080808560018060a01b03600154165af1610f39613325565b3461053557602036600319011261053557611bab60043561053a565b6020601754604051908152f35b6064359060ff8216820361053557565b6084359060ff8216820361053557565b346105355760c036600319011261053557600435611bf58161053a565b60443590602435611c04611bb8565b92804211611cc257611c94611cbd91610a8b9560405190611c7c82611c6e6020820195898b8860609194939260808201957fe48329057bfd03d55e49b547132e39cffd9c1820ad7b9d4c5307691425d15adf835260018060a01b0316602083015260408201520152565b03601f19810184528361064e565b611c8f60a435936084359351902061429b565b613fa8565b6001600160a01b03811660009081526009602052604090208054600181019091559092146134e7565b613861565b60405162461bcd60e51b815260206004820152601d60248201527f4552433230566f7465733a207369676e617475726520657870697265640000006044820152606490fd5b34610535576000366003190112610535576014546040516001600160a01b039091168152602090f35b34610535576000366003190112610535576001546040516001600160a01b039091168152602090f35b346105355760003660031901126105355760206040517f00000000000000000000000000000000000000000000000000000000000000008152f35b34610535576020366003190112610535577f6c339c0bee516a4df5d7074ba7a974856d609f83666e915aa4a0f90e06989dc56020600435611dd3613394565b80601755604051908152a1005b3461053557606036600319011261053557600435611dfd8161053a565b60443567ffffffffffffffff811161053557602091611e236107439236906004016106df565b5060243590612e45565b346105355760e036600319011261053557600435611e4a8161053a565b60243590611e578261053a565b60643591611e63611bc8565b90834211611f285761056793611f1592611f02611e9b8660018060a01b03166000526009602052604060002090815491600183019055565b611c6e6040519485926020840197604435908b8a91959493909260a09360c08401977f6e71edae12b1b97f4d1f60370fef10105fa2faae0126114a169c64845d6126c98552600180871b038092166020860152166040840152606083015260808201520152565b611c8f60c4359360a4359351902061429b565b6001600160a01b0390811691161461342d565b60405162461bcd60e51b815260206004820152601d60248201527f45524332305065726d69743a206578706972656420646561646c696e650000006044820152606490fd5b3461053557602036600319011261053557600435611f89612eb2565b50601854811015611fd857611fb4604091601860005260008051602061474f83398151915201612ecb565b611fd682518092602090816001600160801b0391828151168552015116910152565bf35b612e17565b34610535576000806003193601126105325760185490611ffc8261177d565b9160409161200c8351948561064e565b81845260188152602093848101928260008051602061474f833981519152855b8383106120975750505050835194859481860192828752518093528086019493905b83821061205b5786860387f35b9184965082866120876001949698849851602090816001600160801b0391828151168552015116910152565b019601920186959492939161204e565b60018981926120ab859c99989a9b9c612ecb565b81520192019201919097969593949761202c565b346105355760403660031901126105355760206121196004356120e18161053a565b602435906120ee8261053a565b60018060a01b03166000526003835260406000209060018060a01b0316600052602052604060002090565b54604051908152f35b34610535576020366003190112610535577fccdd1baf560d2682736fa25752c8ccc0c5fc4079b245b0acf7389776308d5b1f60206004356121628161053a565b61216a613394565b600180546001600160a01b0319166001600160a01b03929092169182179055604051908152a1005b34610535576000366003190112610535576020601254604051908152f35b34610535576020366003190112610535576104b36004356121d08161053a565b604060008180516121e0816105de565b828152826020820152015260018060a01b038216600052600f602052806000209181519261220d846105de565b5460ff811615801585526001600160781b036020860192818160081c16845260801c168486015261226f575b5050519182918291909160406060820193805115158352816020820151916001600160781b038093166020860152015116910152565b61227e61134461228b936125a5565b6001600160781b03169052565b3880612239565b34610535576040366003190112610535576004356122af8161053a565b7ff4a44a7f605c4971a27bcecb448108e6328b7fad34fab5bff4f69377294b826d6020602435926122de613394565b6001546001600160a01b0391906122f9908690841683613ddf565b6040519485521692a2005b90600182811c92168015612334575b602083101461231e57565b634e487b7160e01b600052602260045260246000fd5b91607f1691612313565b3461053557600080600319360112610532576040518160135461236081612304565b908184526020926001918281169081600014610510575060011461238e576104b3856104a78189038261064e565b9294506013835260008051602061472f8339815191525b8284106123c257505050816104b3936104a7928201019338610497565b80548585018701529285019281016123a5565b34610535576040366003190112610535576004356123f28161053a565b63ffffffff60243581811681036105355761243161243791604094612415612eb2565b506001600160a01b03166000908152600c602052859020612e2d565b50613479565b8251815190921682526020908101516001600160e01b031690820152f35b34610535576020366003190112610535576004356124728161053a565b61247a613394565b6001600160a01b0390811680156124c857600080546001600160a01b03198116831782559092167f8be0079c531659141344cd1fd0a4f28419497f9722a3daafe3b4186f6b6457e08380a380f35b60405162461bcd60e51b815260206004820152602660248201527f4f776e61626c653a206e6577206f776e657220697320746865207a65726f206160448201526564647265737360d01b6064820152608490fd5b34610535576000366003190112610535576015546040516001600160a01b039091168152602090f35b34610535576000366003190112610535576010546040516001600160a01b039091168152602090f35b3461053557600036600319011261053557602060405160048152f35b90816020910312610535575190565b6040513d6000823e3d90fd5b604051630976b20560e41b81527f000000000000000000000000000000000000000000000000000000000000000060048201526001600160a01b039091166024820152602081806044810103817f00000000000000000000000000000000000000000000000000000000000000006001600160a01b03165afa9081156108f457600091612630575090565b610453915060203d81116108ed576108de818361064e565b1561264f57565b60405162461bcd60e51b81526020600482015260126024820152711b9bc81c1d5c98da185cd95cc8199bdd5b9960721b6044820152606490fd5b604051612695816105fa565b60008152906000368137565b906040516126ae816105de565b604081935460ff8116151583526001600160781b0390818160081c16602085015260801c16910152565b634e487b7160e01b600052601160045260246000fd5b81810292918115918404141715610d8057565b634e487b7160e01b600052601260045260246000fd5b8115612721570490565b612701565b6001600160a01b0381166000908152600f602052604090205460ff168061279957506127728161276c61275b610453946125a5565b91612764612689565b504290612e45565b906126ee565b7f000000000000000000000000000000000000000000000000000000000000000090612717565b15612821576001600160a01b0381166000908152600f602052604090206127bf906126a1565b9061280960406127fa6127726127ea6127e260208801516001600160781b031690565b954290612e45565b6001600160781b038096166126ee565b9301516001600160781b031690565b16818110612818575050600090565b610453916129f9565b60405162461bcd60e51b815260206004820152602260248201527f4469737472696275746f723a20636c61696d206e6f7420696e697469616c697a604482015261195960f21b6064820152608490fd5b6001600160a01b0381166000908152600f602052604090205460ff811661289c5750610453906125a5565b6001600160781b03915060081c1690565b6001600160781b038083116129865761067d921661293f6128f36128e38460018060a01b0316600052600f602052604060002090565b5460801c6001600160781b031690565b6129226128fe610670565b60018152916001600160781b03851660208401526001600160781b03166040830152565b6001600160a01b0384166000908152600f60205260409020612d63565b6040516001600160781b039190911681526001600160a01b038216907fdb598eb8e0a3d3d5c2e02e4cab1ee8b65bb20e48fc7b42f4c76272de4cdd243490602090a2612a06565b60405162461bcd60e51b815260206004820152602c60248201527f4469737472696275746f723a20746f74616c416d6f756e74203e20747970652860448201526b0ead2dce8626460525cdac2f60a31b6064820152608490fd5b6001600160781b039182169082160391908211610d8057565b91908203918211610d8057565b6001600160a01b038116600090815260026020908152604080832054600f909252909120909190612a36906126a1565b6001600160781b03806020816040850151169301511680831015600014612a975750505060005b80831115612a7857612a729061067d936129f9565b9061367a565b808310612a8457505050565b61067d92612a91916129f9565b90613598565b612aae92612aa4916129e0565b16601754906126ee565b7f00000000000000000000000000000000000000000000000000000000000000009081156127215704612a5d565b15612ae357565b606460405162461bcd60e51b815260206004820152602060248201527f6d75737420696e697469616c697a65206265666f72652061646a757374696e676044820152fd5b600160ff1b8114610d805760000390565b15612b3f57565b60405162461bcd60e51b815260206004820152601860248201527f61646a7573746d656e74203e206d61782075696e7431323000000000000000006044820152606490fd5b9060018201809211610d8057565b91908201809211610d8057565b9190916001600160781b0380809416911601918211610d8057565b15612bc157565b60405162461bcd60e51b815260206004820152602760248201527f64656372656173652067726561746572207468616e206469737472696275746f6044820152661c881d1bdd185b60ca1b6064820152608490fd5b15612c1d57565b60405162461bcd60e51b815260206004820152602e60248201527f64656372656173652067726561746572207468616e206469737472696275746960448201526d1bdb949958dbdc99081d1bdd185b60921b6064820152608490fd5b601f8111612c85575050565b6000906013825260008051602061472f833981519152906020601f850160051c83019410612cce575b601f0160051c01915b828110612cc357505050565b818155600101612cb7565b9092508290612cae565b604051806000601354612cea81612304565b90600190818116908115612d4c5750600114612d09575b505003902090565b6013600090815291925060008051602061472f8339815191525b838310612d365750505081013880612d01565b8054868401528594506020909201918101612d23565b60ff19168552505080151502820190503880612d01565b815181546020840151610100600160801b0360089190911b1691151560ff166fffffffffffffffffffffffffffffffff199091161717815561067d916001600160781b0390604001518254600160801b600160f81b031916911660801b600160801b600160f81b0316179055565b60207f47cee97cb7acd717b3c0aa1435d004cd5b3c8c57d70dbceb4e4458bbd60e39d49160018060a01b0390612e0c85828460105416613ddf565b6040519485521692a2565b634e487b7160e01b600052603260045260246000fd5b8054821015611fd85760005260206000200190600090565b612e4e906132f6565b6018805480805b612e63575050505050600090565b60001901838503858111610d805782821015611fd857836000528160008051602061474f8339815191520154906001600160801b03821610612ea6575080612e55565b94505050505060801c90565b60405190612ebf826105bd565b60006020838281520152565b90604051612ed8816105bd565b91546001600160801b038116835260801c6020830152565b90612ef9613394565b612f0582511515613063565b612f0d6130a3565b600080805b845182101561301857612fa390602093612f58612f51612f4587612f36888c6130e4565b5101516001600160801b031690565b6001600160801b031690565b15156130f8565b612f8a612f76612f68868a6130e4565b51516001600160801b031690565b6001600160801b0380809416911611613144565b80612f9986612f36878b6130e4565b9216911611613190565b6001612fc0612fb5612f6884886130e4565b93612f3684886130e4565b91612fd4612fce82886130e4565b516131ea565b604080516001600160801b0386811682528516602082015282917f5104929ca78e46ba25dca9557731ec873a03ae745d3ee194d262cc4820662a1c91a20190612f12565b91905061067d92935061303b63f48657006001600160801b038093161115613241565b167f0000000000000000000000000000000000000000000000000000000000000000146132a0565b1561306a57565b60405162461bcd60e51b81526020600482015260116024820152701d1c985b98da195cc81c995c5d5a5c9959607a1b6044820152606490fd5b601854600080601855816130b5575050565b6018815260008051602061474f833981519152918201915b8281106130d957505050565b8181556001016130cd565b8051821015611fd85760209160051b010190565b156130ff57565b60405162461bcd60e51b815260206004820152601c60248201527f7472616e63686520766573746564206672616374696f6e203d3d2030000000006044820152606490fd5b1561314b57565b60405162461bcd60e51b815260206004820152601a60248201527f7472616e6368652074696d65206d75737420696e6372656173650000000000006044820152606490fd5b1561319757565b60405162461bcd60e51b815260206004820152602560248201527f7472616e63686520766573746564206672616374696f6e206d75737420696e63604482015264726561736560d81b6064820152608490fd5b60185490600160401b8210156105d9576001820180601855821015611fd85760186000526001600160801b038151169060206001600160801b031991015160801b16179060008051602061474f8339815191520155565b1561324857565b60405162461bcd60e51b815260206004820152602a60248201527f76657374696e6720656e6473206166746572203431303234343438303020284a604482015269616e203120323130302960b01b6064820152608490fd5b156132a757565b60405162461bcd60e51b815260206004820152602160248201527f6c617374207472616e636865206d757374207665737420616c6c20746f6b656e6044820152607360f81b6064820152608490fd5b6014546001600160a01b039190821690811561331d57829081806016541691161816041690565b505050600090565b3d15613350573d906133368261068c565b91613344604051938461064e565b82523d6000602084013e565b606090565b1561335c57565b60405162461bcd60e51b815260206004820152601060248201526f2a3930b739b332b9103330b4b632b21760811b6044820152606490fd5b6000546001600160a01b031633036133a857565b606460405162461bcd60e51b815260206004820152602060248201527f4f776e61626c653a2063616c6c6572206973206e6f7420746865206f776e65726044820152fd5b60405162461bcd60e51b81526020600482015260196024820152783234b9b0b13632b2103337b9103b37ba34b733903837bbb2b960391b6044820152606490fd5b1561343457565b60405162461bcd60e51b815260206004820152601e60248201527f45524332305065726d69743a20696e76616c6964207369676e617475726500006044820152606490fd5b90604051613486816105bd565b602081935463ffffffff81168352811c910152565b156134a257565b60405162461bcd60e51b815260206004820152601960248201527f4552433230566f7465733a20667574757265206c6f6f6b7570000000000000006044820152606490fd5b156134ee57565b60405162461bcd60e51b815260206004820152601960248201527f4552433230566f7465733a20696e76616c6964206e6f6e6365000000000000006044820152606490fd5b1561353a57565b60405162461bcd60e51b815260206004820152603060248201527f4552433230566f7465733a20746f74616c20737570706c79207269736b73206f60448201526f766572666c6f77696e6720766f74657360801b6064820152608490fd5b906001600160a01b038216801561363557600454828101809111610d805761363193613616926135c88593600455565b6001600160a01b0382166000908152600260209081526040808320805487019055518581527fddf252ad1be2c89b69c2b068fc378daa952ba7f163c4a11628f55a4df523b3ef9190a36137c8565b60045461362c906001600160e01b031015613533565b613bb3565b5050565b60405162461bcd60e51b815260206004820152601f60248201527f45524332303a206d696e7420746f20746865207a65726f2061646472657373006044820152606490fd5b6001600160a01b03811691908215613722578181600061363195836136b461371d9660018060a01b03166000526002602052604060002090565b546136c182821015613771565b036136de8460018060a01b03166000526002602052604060002090565b556136ec8460045403600455565b6040518481527fddf252ad1be2c89b69c2b068fc378daa952ba7f163c4a11628f55a4df523b3ef90602090a3613813565b613ca3565b60405162461bcd60e51b815260206004820152602160248201527f45524332303a206275726e2066726f6d20746865207a65726f206164647265736044820152607360f81b6064820152608490fd5b1561377857565b60405162461bcd60e51b815260206004820152602260248201527f45524332303a206275726e20616d6f756e7420657863656564732062616c616e604482015261636560f01b6064820152608490fd5b600b6020527fdf7de25b7f1fd6d0b5205f0e18f1f35bd7b8d84cce336588d184533ce43a6f76546001600160a01b039182166000908152604090205461067d939290811691166138d6565b6001600160a01b039081166000908152600b60205260408120549080527fdf7de25b7f1fd6d0b5205f0e18f1f35bd7b8d84cce336588d184533ce43a6f765461067d939290811691166138d6565b61067d9160018060a01b03809216600092818452600b60205280604085205416809260026020527f3134e8a2e6d97e929a7e54011ea5485d7d196dd5f0ba4d4ef95803e8e3fc257f604087205496600b6020526040812094871694856bffffffffffffffffffffffff60a01b82541617905580a45b6001600160a01b03808316939291168084141580613ae9575b6138fa575b50505050565b80613968575b508261390d575b806138f4565b6001600160a01b03166000908152600c602052604090207fdec2bacdd2f05b59de34da9b523dff8be42e5e38e818c82fdb0bae774387a7249161394f91613cfc565b60408051928352602083019190915290a2388080613907565b80600052600c6020527fdec2bacdd2f05b59de34da9b523dff8be42e5e38e818c82fdb0bae774387a7246040600020805480159182600014613ac6576139ac61067f565b6000815260006020820152915b60208301516139d8906001600160e01b03165b6001600160e01b031690565b926139e38985614714565b94159081613aa3575b5015613a4157613a14613a2b92613a02866145df565b92600019019060005260206000200190565b9063ffffffff82549181199060201b169116179055565b604080519182526020820192909252a238613900565b50613a9e90613a65613a60613a5543614648565b65ffffffffffff1690565b6146af565b90613a99613a72866145df565b613a89613a7d61067f565b63ffffffff9095168552565b6001600160e01b03166020840152565b613b59565b613a2b565b5163ffffffff16905063ffffffff613abd613a5543614648565b911614386139ec565b613ae3613ade60001984018360005260206000200190565b613479565b916139b9565b508215156138ef565b600d5490600160401b8210156105d9576001820180600d55821015611fd857600d600052805160209182015190911b63ffffffff191663ffffffff91909116177fd7b6990105719101dabeb77144f2a3385c8033acd3af97e9423a695e81ad1eb590910155565b8054600160401b8110156105d957613b7691600182018155612e2d565b613b9d57815160209283015190921b63ffffffff191663ffffffff92909216919091179055565b634e487b7160e01b600052600060045260246000fd5b600d5490918115918215613c8e57613bc961067f565b60008152600060208201525b6020810151613bf790613bf0906001600160e01b03166139cc565b9586614721565b93159081613c6b575b5015613c205761067d90613a14613c16856145df565b9160001901613db5565b5061067d613c33613a60613a5543614648565b613c66613c3f856145df565b613c56613c4a61067f565b63ffffffff9094168452565b6001600160e01b03166020830152565b613af2565b5163ffffffff16905063ffffffff613c85613a5543614648565b91161438613c00565b613c9e613ade6000198301613db5565b613bd5565b600d5490918115918215613ce757613cb961067f565b60008152600060208201525b6020810151613bf790613ce0906001600160e01b03166139cc565b9586614714565b613cf7613ade6000198301613db5565b613cc5565b909181549182159283600014613d9857613d1461067f565b60008152600060208201525b6020810151613d4290613d3b906001600160e01b03166139cc565b9687614721565b94159081613d75575b5015613d6157613a1461067d92613a02866145df565b5061067d90613a65613a60613a5543614648565b5163ffffffff16905063ffffffff613d8f613a5543614648565b91161438613d4b565b613db0613ade60001983018460005260206000200190565b613d20565b600d6000527fd7b6990105719101dabeb77144f2a3385c8033acd3af97e9423a695e81ad1eb50190565b60405163a9059cbb60e01b602082019081526001600160a01b039384166024830152604480830195909552938152613e6e929091613e1c83610616565b1660405191613e2a836105bd565b602083527f5361666545524332303a206c6f772d6c6576656c2063616c6c206661696c65646020840152600080958192519082855af1613e68613325565b91613f13565b8051908115918215613e87575b505061067d9150613eb4565b8192509060209181010312613eb05760200151908115158203610532575061067d903880613e7b565b5080fd5b15613ebb57565b60405162461bcd60e51b815260206004820152602a60248201527f5361666545524332303a204552433230206f7065726174696f6e20646964206e6044820152691bdd081cdd58d8d9595960b21b6064820152608490fd5b91929015613f755750815115613f27575090565b3b15613f305790565b60405162461bcd60e51b815260206004820152601d60248201527f416464726573733a2063616c6c20746f206e6f6e2d636f6e74726163740000006044820152606490fd5b825190915015613f885750805190602001fd5b60405162461bcd60e51b8152908190613fa49060048301610442565b0390fd5b916104539391613fb7936140ff565b919091613fdf565b60051115613fc957565b634e487b7160e01b600052602160045260246000fd5b613fe881613fbf565b80613ff05750565b613ff981613fbf565b600181036140465760405162461bcd60e51b815260206004820152601860248201527f45434453413a20696e76616c6964207369676e617475726500000000000000006044820152606490fd5b61404f81613fbf565b6002810361409c5760405162461bcd60e51b815260206004820152601f60248201527f45434453413a20696e76616c6964207369676e6174757265206c656e677468006044820152606490fd5b806140a8600392613fbf565b146140af57565b60405162461bcd60e51b815260206004820152602260248201527f45434453413a20696e76616c6964207369676e6174757265202773272076616c604482015261756560f01b6064820152608490fd5b9291907f7fffffffffffffffffffffffffffffff5d576e7357a4501ddfe92f46681b20a083116141755791608094939160ff602094604051948552168484015260408301526060820152600093849182805260015afa156108f45781516001600160a01b0381161561416f579190565b50600190565b50505050600090600390565b307f00000000000000000000000000000000000000000000000000000000000000006001600160a01b03161480614272575b156141dc577f000000000000000000000000000000000000000000000000000000000000000090565b60405160208101907f8b73c3c69bb8fe3d512ecc4cf759cc79239f7b179b0ffacaa9a75d522b39400f82527f000000000000000000000000000000000000000000000000000000000000000060408201527f000000000000000000000000000000000000000000000000000000000000000060608201524660808201523060a082015260a0815261426c81610632565b51902090565b507f000000000000000000000000000000000000000000000000000000000000000046146141b3565b6042906142a6614181565b906040519161190160f01b8352600283015260228201522090565b60ff81146142ff5760ff811690601f82116142ed57604051916142e3836105bd565b8252602082015290565b604051632cd44ac360e21b8152600490fd5b5060405160075481600061431283612304565b80835260209360019081811690811561439b575060011461433c575b50506104539250038261064e565b9093915060076000527fa66cc928b5edb82af9bd49922954155ab7b0942694bea4ce44661d9a8736c688936000915b8183106143835750506104539350820101388061432e565b8554878401850152948501948694509183019161436b565b91505061045394925060ff191682840152151560051b820101388061432e565b60ff81146143dd5760ff811690601f82116142ed57604051916142e3836105bd565b506040516008548160006143f083612304565b80835260209360019081811690811561439b57506001146144195750506104539250038261064e565b9093915060086000527ff3f7a9fe364faab93b216da50a3214154f22a0a2b415b23a84c8169e8b636ee3936000915b8183106144605750506104539350820101388061432e565b85548784018501529485019486945091830191614448565b90808216911860011c8101809111610d805790565b80156145c7578061456061455961454f61454561453b61453161452761451d60016104539a6000908b60801c806145bb575b508060401c806145ae575b508060201c806145a1575b508060101c80614594575b508060081c80614587575b508060041c8061457a575b508060021c8061456d575b50821c614566575b811c1b614516818b612717565b0160011c90565b614516818a612717565b6145168189612717565b6145168188612717565b6145168187612717565b6145168186612717565b6145168185612717565b8092612717565b906145cd565b8101614509565b6002915091019038614501565b60049150910190386144f6565b60089150910190386144eb565b60109150910190386144e0565b60209150910190386144d5565b60409150910190386144ca565b915050608090386144bf565b50600090565b90808210156145da575090565b905090565b6001600160e01b03908181116145f3571690565b60405162461bcd60e51b815260206004820152602760248201527f53616665436173743a2076616c756520646f65736e27742066697420696e20326044820152663234206269747360c81b6064820152608490fd5b65ffffffffffff9081811161465b571690565b60405162461bcd60e51b815260206004820152602660248201527f53616665436173743a2076616c756520646f65736e27742066697420696e203460448201526538206269747360d01b6064820152608490fd5b63ffffffff908181116146c0571690565b60405162461bcd60e51b815260206004820152602660248201527f53616665436173743a2076616c756520646f65736e27742066697420696e203360448201526532206269747360d01b6064820152608490fd5b908103908111610d805790565b908101809111610d80579056fe66de8ffda797e3de9c05e8fc57b3bf0ec28a930d40b0d285d93c06501cf6a090b13d2d76d1f4b7be834882e410b3e3a8afaf69f83600ae24db354391d2378d2ea2646970667358221220f5ed8370de0d86d6b4733874c76b89719daae60f6827f846ddc45a2ee1d12f2664736f6c63430008150033433127dedcff849792656a12f4a9dbc0efeb80df5cce6310f53481a93cd71c7166de8ffda797e3de9c05e8fc57b3bf0ec28a930d40b0d285d93c06501cf6a090f652222313e28459528d920b65115c16c04f3efc82aaedc97be59f3f377c0d3f","linkReferences":{}},"methodIdentifiers":{"CLOCK_MODE()":"4bf5d7e9","DOMAIN_SEPARATOR()":"3644e515","NAME()":"a3f4df7e","VERSION()":"ffa1ad74","adjust(address,int256)":"75aa9bc6","allowance(address,address)":"dd62ed3e","approve(address,uint256)":"095ea7b3","balanceOf(address)":"70a08231","checkpoints(address,uint32)":"f1127ed8","claim(address)":"1e83409a","claimed()":"e834a834","clock()":"91ddadf4","decimals()":"313ce567","decreaseAllowance(address,uint256)":"a457c2d7","delegate(address)":"5c19a95c","delegateBySig(address,uint256,uint256,uint8,bytes32,bytes32)":"c3cda520","delegates(address)":"587cde1e","distancePerSecond()":"c6e8d982","eip712Domain()":"84b0196e","getClaimableAmount(address,bytes)":"13c67ce5","getDistributionRecord(address)":"e85858d9","getFairDelayTime(address)":"a4ef1f78","getFractionDenominator()":"0f56b96c","getPastTotalSupply(uint256)":"8e539e8c","getPastVotes(address,uint256)":"3a46b1a8","getPurchasedAmount(address)":"24285762","getSweepRecipient()":"c78d5985","getTotalVotes()":"9a0e7d66","getTranche(uint256)":"d972e8ad","getTranches()":"dc2f511b","getVestedFraction(address,uint256,bytes)":"d3d0ec89","getVoteFactor(address)":"bb22dccb","getVotes(address)":"9ab24eb0","increaseAllowance(address,uint256)":"39509351","initializeDistributionRecord(address)":"44b3c204","maxDelayTime()":"f56c8547","name()":"06fdde03","nonces(address)":"7ecebe00","numCheckpoints(address)":"6fcfff45","owner()":"8da5cb5b","permit(address,address,uint256,uint256,uint8,bytes32,bytes32)":"d505accf","randomValue()":"276801ec","renounceOwnership()":"715018a6","saleId()":"c84c0387","saleManager()":"746e60b5","setSweepRecipient(address)":"de032f58","setToken(address)":"144fa6d7","setTotal(uint256)":"1f8d1d50","setTranches((uint128,uint128)[])":"9691cab5","setUri(string)":"9b642de1","setVoteFactor(uint256)":"c9557255","sweepNative()":"ab803a76","sweepNative(uint256)":"3cf3a025","sweepToken(address)":"1be19560","sweepToken(address,uint256)":"e90a182f","symbol()":"95d89b41","token()":"fc0c546a","total()":"2ddbd13a","totalSupply()":"18160ddd","transfer(address,uint256)":"a9059cbb","transferFrom(address,address,uint256)":"23b872dd","transferOwnership(address)":"f2fde38b","uri()":"eac989f8"},"id":5}