{"abi":[{"type":"constructor","inputs":[{"name":"_token","type":"address","internalType":"contract IERC20"},{"name":"_total","type":"uint256","internalType":"uint256"},{"name":"_uri","type":"string","internalType":"string"},{"name":"_voteFactor","type":"uint256","internalType":"uint256"},{"name":"_start","type":"uint256","internalType":"uint256"},{"name":"_cliff","type":"uint256","internalType":"uint256"},{"name":"_end","type":"uint256","internalType":"uint256"},{"name":"_merkleRoot","type":"bytes32","internalType":"bytes32"},{"name":"_maxDelayTime","type":"uint160","internalType":"uint160"}],"stateMutability":"nonpayable"},{"type":"function","name":"CLOCK_MODE","inputs":[],"outputs":[{"name":"","type":"string","internalType":"string"}],"stateMutability":"view"},{"type":"function","name":"DOMAIN_SEPARATOR","inputs":[],"outputs":[{"name":"","type":"bytes32","internalType":"bytes32"}],"stateMutability":"view"},{"type":"function","name":"NAME","inputs":[],"outputs":[{"name":"","type":"string","internalType":"string"}],"stateMutability":"pure"},{"type":"function","name":"VERSION","inputs":[],"outputs":[{"name":"","type":"uint256","internalType":"uint256"}],"stateMutability":"pure"},{"type":"function","name":"adjust","inputs":[{"name":"beneficiary","type":"address","internalType":"address"},{"name":"amount","type":"int256","internalType":"int256"}],"outputs":[],"stateMutability":"nonpayable"},{"type":"function","name":"allowance","inputs":[{"name":"owner","type":"address","internalType":"address"},{"name":"spender","type":"address","internalType":"address"}],"outputs":[{"name":"","type":"uint256","internalType":"uint256"}],"stateMutability":"view"},{"type":"function","name":"approve","inputs":[{"name":"spender","type":"address","internalType":"address"},{"name":"amount","type":"uint256","internalType":"uint256"}],"outputs":[{"name":"","type":"bool","internalType":"bool"}],"stateMutability":"nonpayable"},{"type":"function","name":"balanceOf","inputs":[{"name":"account","type":"address","internalType":"address"}],"outputs":[{"name":"","type":"uint256","internalType":"uint256"}],"stateMutability":"view"},{"type":"function","name":"checkpoints","inputs":[{"name":"account","type":"address","internalType":"address"},{"name":"pos","type":"uint32","internalType":"uint32"}],"outputs":[{"name":"","type":"tuple","internalType":"struct ERC20Votes.Checkpoint","components":[{"name":"fromBlock","type":"uint32","internalType":"uint32"},{"name":"votes","type":"uint224","internalType":"uint224"}]}],"stateMutability":"view"},{"type":"function","name":"claim","inputs":[{"name":"index","type":"uint256","internalType":"uint256"},{"name":"beneficiary","type":"address","internalType":"address"},{"name":"totalAmount","type":"uint256","internalType":"uint256"},{"name":"merkleProof","type":"bytes32[]","internalType":"bytes32[]"}],"outputs":[],"stateMutability":"nonpayable"},{"type":"function","name":"claimed","inputs":[],"outputs":[{"name":"","type":"uint256","internalType":"uint256"}],"stateMutability":"view"},{"type":"function","name":"clock","inputs":[],"outputs":[{"name":"","type":"uint48","internalType":"uint48"}],"stateMutability":"view"},{"type":"function","name":"decimals","inputs":[],"outputs":[{"name":"","type":"uint8","internalType":"uint8"}],"stateMutability":"view"},{"type":"function","name":"decreaseAllowance","inputs":[{"name":"spender","type":"address","internalType":"address"},{"name":"subtractedValue","type":"uint256","internalType":"uint256"}],"outputs":[{"name":"","type":"bool","internalType":"bool"}],"stateMutability":"nonpayable"},{"type":"function","name":"delegate","inputs":[{"name":"delegatee","type":"address","internalType":"address"}],"outputs":[],"stateMutability":"nonpayable"},{"type":"function","name":"delegateBySig","inputs":[{"name":"delegatee","type":"address","internalType":"address"},{"name":"nonce","type":"uint256","internalType":"uint256"},{"name":"expiry","type":"uint256","internalType":"uint256"},{"name":"v","type":"uint8","internalType":"uint8"},{"name":"r","type":"bytes32","internalType":"bytes32"},{"name":"s","type":"bytes32","internalType":"bytes32"}],"outputs":[],"stateMutability":"nonpayable"},{"type":"function","name":"delegates","inputs":[{"name":"account","type":"address","internalType":"address"}],"outputs":[{"name":"","type":"address","internalType":"address"}],"stateMutability":"view"},{"type":"function","name":"distancePerSecond","inputs":[],"outputs":[{"name":"","type":"uint160","internalType":"uint160"}],"stateMutability":"view"},{"type":"function","name":"eip712Domain","inputs":[],"outputs":[{"name":"fields","type":"bytes1","internalType":"bytes1"},{"name":"name","type":"string","internalType":"string"},{"name":"version","type":"string","internalType":"string"},{"name":"chainId","type":"uint256","internalType":"uint256"},{"name":"verifyingContract","type":"address","internalType":"address"},{"name":"salt","type":"bytes32","internalType":"bytes32"},{"name":"extensions","type":"uint256[]","internalType":"uint256[]"}],"stateMutability":"view"},{"type":"function","name":"getClaimableAmount","inputs":[{"name":"beneficiary","type":"address","internalType":"address"},{"name":"data","type":"bytes","internalType":"bytes"}],"outputs":[{"name":"","type":"uint256","internalType":"uint256"}],"stateMutability":"view"},{"type":"function","name":"getDistributionRecord","inputs":[{"name":"beneficiary","type":"address","internalType":"address"}],"outputs":[{"name":"","type":"tuple","internalType":"struct DistributionRecord","components":[{"name":"initialized","type":"bool","internalType":"bool"},{"name":"total","type":"uint120","internalType":"uint120"},{"name":"claimed","type":"uint120","internalType":"uint120"}]}],"stateMutability":"view"},{"type":"function","name":"getFairDelayTime","inputs":[{"name":"user","type":"address","internalType":"address"}],"outputs":[{"name":"","type":"uint256","internalType":"uint256"}],"stateMutability":"view"},{"type":"function","name":"getFractionDenominator","inputs":[],"outputs":[{"name":"","type":"uint256","internalType":"uint256"}],"stateMutability":"view"},{"type":"function","name":"getMerkleRoot","inputs":[],"outputs":[{"name":"","type":"bytes32","internalType":"bytes32"}],"stateMutability":"view"},{"type":"function","name":"getPastTotalSupply","inputs":[{"name":"timepoint","type":"uint256","internalType":"uint256"}],"outputs":[{"name":"","type":"uint256","internalType":"uint256"}],"stateMutability":"view"},{"type":"function","name":"getPastVotes","inputs":[{"name":"account","type":"address","internalType":"address"},{"name":"timepoint","type":"uint256","internalType":"uint256"}],"outputs":[{"name":"","type":"uint256","internalType":"uint256"}],"stateMutability":"view"},{"type":"function","name":"getSweepRecipient","inputs":[],"outputs":[{"name":"","type":"address","internalType":"address payable"}],"stateMutability":"view"},{"type":"function","name":"getTotalVotes","inputs":[],"outputs":[{"name":"","type":"uint256","internalType":"uint256"}],"stateMutability":"view"},{"type":"function","name":"getVestedFraction","inputs":[{"name":"beneficiary","type":"address","internalType":"address"},{"name":"time","type":"uint256","internalType":"uint256"},{"name":"","type":"bytes","internalType":"bytes"}],"outputs":[{"name":"","type":"uint256","internalType":"uint256"}],"stateMutability":"view"},{"type":"function","name":"getVestingConfig","inputs":[],"outputs":[{"name":"","type":"uint256","internalType":"uint256"},{"name":"","type":"uint256","internalType":"uint256"},{"name":"","type":"uint256","internalType":"uint256"}],"stateMutability":"view"},{"type":"function","name":"getVoteFactor","inputs":[{"name":"","type":"address","internalType":"address"}],"outputs":[{"name":"","type":"uint256","internalType":"uint256"}],"stateMutability":"view"},{"type":"function","name":"getVotes","inputs":[{"name":"account","type":"address","internalType":"address"}],"outputs":[{"name":"","type":"uint256","internalType":"uint256"}],"stateMutability":"view"},{"type":"function","name":"increaseAllowance","inputs":[{"name":"spender","type":"address","internalType":"address"},{"name":"addedValue","type":"uint256","internalType":"uint256"}],"outputs":[{"name":"","type":"bool","internalType":"bool"}],"stateMutability":"nonpayable"},{"type":"function","name":"initializeDistributionRecord","inputs":[{"name":"index","type":"uint256","internalType":"uint256"},{"name":"beneficiary","type":"address","internalType":"address"},{"name":"amount","type":"uint256","internalType":"uint256"},{"name":"merkleProof","type":"bytes32[]","internalType":"bytes32[]"}],"outputs":[],"stateMutability":"nonpayable"},{"type":"function","name":"maxDelayTime","inputs":[],"outputs":[{"name":"","type":"uint160","internalType":"uint160"}],"stateMutability":"view"},{"type":"function","name":"name","inputs":[],"outputs":[{"name":"","type":"string","internalType":"string"}],"stateMutability":"view"},{"type":"function","name":"nonces","inputs":[{"name":"owner","type":"address","internalType":"address"}],"outputs":[{"name":"","type":"uint256","internalType":"uint256"}],"stateMutability":"view"},{"type":"function","name":"numCheckpoints","inputs":[{"name":"account","type":"address","internalType":"address"}],"outputs":[{"name":"","type":"uint32","internalType":"uint32"}],"stateMutability":"view"},{"type":"function","name":"owner","inputs":[],"outputs":[{"name":"","type":"address","internalType":"address"}],"stateMutability":"view"},{"type":"function","name":"permit","inputs":[{"name":"owner","type":"address","internalType":"address"},{"name":"spender","type":"address","internalType":"address"},{"name":"value","type":"uint256","internalType":"uint256"},{"name":"deadline","type":"uint256","internalType":"uint256"},{"name":"v","type":"uint8","internalType":"uint8"},{"name":"r","type":"bytes32","internalType":"bytes32"},{"name":"s","type":"bytes32","internalType":"bytes32"}],"outputs":[],"stateMutability":"nonpayable"},{"type":"function","name":"randomValue","inputs":[],"outputs":[{"name":"","type":"uint160","internalType":"uint160"}],"stateMutability":"view"},{"type":"function","name":"renounceOwnership","inputs":[],"outputs":[],"stateMutability":"nonpayable"},{"type":"function","name":"setMerkleRoot","inputs":[{"name":"_merkleRoot","type":"bytes32","internalType":"bytes32"}],"outputs":[],"stateMutability":"nonpayable"},{"type":"function","name":"setSweepRecipient","inputs":[{"name":"_recipient","type":"address","internalType":"address payable"}],"outputs":[],"stateMutability":"nonpayable"},{"type":"function","name":"setToken","inputs":[{"name":"_token","type":"address","internalType":"contract IERC20"}],"outputs":[],"stateMutability":"nonpayable"},{"type":"function","name":"setTotal","inputs":[{"name":"_total","type":"uint256","internalType":"uint256"}],"outputs":[],"stateMutability":"nonpayable"},{"type":"function","name":"setUri","inputs":[{"name":"_uri","type":"string","internalType":"string"}],"outputs":[],"stateMutability":"nonpayable"},{"type":"function","name":"setVestingConfig","inputs":[{"name":"_start","type":"uint256","internalType":"uint256"},{"name":"_cliff","type":"uint256","internalType":"uint256"},{"name":"_end","type":"uint256","internalType":"uint256"}],"outputs":[],"stateMutability":"nonpayable"},{"type":"function","name":"setVoteFactor","inputs":[{"name":"_voteFactor","type":"uint256","internalType":"uint256"}],"outputs":[],"stateMutability":"nonpayable"},{"type":"function","name":"sweepNative","inputs":[{"name":"amount","type":"uint256","internalType":"uint256"}],"outputs":[],"stateMutability":"nonpayable"},{"type":"function","name":"sweepNative","inputs":[],"outputs":[],"stateMutability":"nonpayable"},{"type":"function","name":"sweepToken","inputs":[{"name":"token","type":"address","internalType":"contract IERC20"}],"outputs":[],"stateMutability":"nonpayable"},{"type":"function","name":"sweepToken","inputs":[{"name":"token","type":"address","internalType":"contract IERC20"},{"name":"amount","type":"uint256","internalType":"uint256"}],"outputs":[],"stateMutability":"nonpayable"},{"type":"function","name":"symbol","inputs":[],"outputs":[{"name":"","type":"string","internalType":"string"}],"stateMutability":"view"},{"type":"function","name":"token","inputs":[],"outputs":[{"name":"","type":"address","internalType":"contract IERC20"}],"stateMutability":"view"},{"type":"function","name":"total","inputs":[],"outputs":[{"name":"","type":"uint256","internalType":"uint256"}],"stateMutability":"view"},{"type":"function","name":"totalSupply","inputs":[],"outputs":[{"name":"","type":"uint256","internalType":"uint256"}],"stateMutability":"view"},{"type":"function","name":"transfer","inputs":[{"name":"to","type":"address","internalType":"address"},{"name":"amount","type":"uint256","internalType":"uint256"}],"outputs":[{"name":"","type":"bool","internalType":"bool"}],"stateMutability":"nonpayable"},{"type":"function","name":"transferFrom","inputs":[{"name":"from","type":"address","internalType":"address"},{"name":"to","type":"address","internalType":"address"},{"name":"amount","type":"uint256","internalType":"uint256"}],"outputs":[{"name":"","type":"bool","internalType":"bool"}],"stateMutability":"nonpayable"},{"type":"function","name":"transferOwnership","inputs":[{"name":"newOwner","type":"address","internalType":"address"}],"outputs":[],"stateMutability":"nonpayable"},{"type":"function","name":"uri","inputs":[],"outputs":[{"name":"","type":"string","internalType":"string"}],"stateMutability":"view"},{"type":"event","name":"Adjust","inputs":[{"name":"beneficiary","type":"address","indexed":true,"internalType":"address"},{"name":"amount","type":"int256","indexed":false,"internalType":"int256"}],"anonymous":false},{"type":"event","name":"Approval","inputs":[{"name":"owner","type":"address","indexed":true,"internalType":"address"},{"name":"spender","type":"address","indexed":true,"internalType":"address"},{"name":"value","type":"uint256","indexed":false,"internalType":"uint256"}],"anonymous":false},{"type":"event","name":"Claim","inputs":[{"name":"beneficiary","type":"address","indexed":true,"internalType":"address"},{"name":"amount","type":"uint256","indexed":false,"internalType":"uint256"}],"anonymous":false},{"type":"event","name":"DelegateChanged","inputs":[{"name":"delegator","type":"address","indexed":true,"internalType":"address"},{"name":"fromDelegate","type":"address","indexed":true,"internalType":"address"},{"name":"toDelegate","type":"address","indexed":true,"internalType":"address"}],"anonymous":false},{"type":"event","name":"DelegateVotesChanged","inputs":[{"name":"delegate","type":"address","indexed":true,"internalType":"address"},{"name":"previousBalance","type":"uint256","indexed":false,"internalType":"uint256"},{"name":"newBalance","type":"uint256","indexed":false,"internalType":"uint256"}],"anonymous":false},{"type":"event","name":"EIP712DomainChanged","inputs":[],"anonymous":false},{"type":"event","name":"InitializeDistributionRecord","inputs":[{"name":"beneficiary","type":"address","indexed":true,"internalType":"address"},{"name":"total","type":"uint256","indexed":false,"internalType":"uint256"}],"anonymous":false},{"type":"event","name":"InitializeDistributor","inputs":[{"name":"token","type":"address","indexed":true,"internalType":"contract IERC20"},{"name":"total","type":"uint256","indexed":false,"internalType":"uint256"},{"name":"uri","type":"string","indexed":false,"internalType":"string"},{"name":"fractionDenominator","type":"uint256","indexed":false,"internalType":"uint256"}],"anonymous":false},{"type":"event","name":"OwnershipTransferred","inputs":[{"name":"previousOwner","type":"address","indexed":true,"internalType":"address"},{"name":"newOwner","type":"address","indexed":true,"internalType":"address"}],"anonymous":false},{"type":"event","name":"SetContinuousVesting","inputs":[{"name":"start","type":"uint256","indexed":false,"internalType":"uint256"},{"name":"cliff","type":"uint256","indexed":false,"internalType":"uint256"},{"name":"end","type":"uint256","indexed":false,"internalType":"uint256"}],"anonymous":false},{"type":"event","name":"SetDelay","inputs":[{"name":"maxDelayTime","type":"uint160","indexed":false,"internalType":"uint160"}],"anonymous":false},{"type":"event","name":"SetMerkleRoot","inputs":[{"name":"merkleRoot","type":"bytes32","indexed":false,"internalType":"bytes32"}],"anonymous":false},{"type":"event","name":"SetSweepRecipient","inputs":[{"name":"recipient","type":"address","indexed":false,"internalType":"address"}],"anonymous":false},{"type":"event","name":"SetToken","inputs":[{"name":"token","type":"address","indexed":true,"internalType":"contract IERC20"}],"anonymous":false},{"type":"event","name":"SetTotal","inputs":[{"name":"total","type":"uint256","indexed":false,"internalType":"uint256"}],"anonymous":false},{"type":"event","name":"SetUri","inputs":[{"name":"uri","type":"string","indexed":true,"internalType":"string"}],"anonymous":false},{"type":"event","name":"SetVoteFactor","inputs":[{"name":"voteFactor","type":"uint256","indexed":false,"internalType":"uint256"}],"anonymous":false},{"type":"event","name":"SweepNative","inputs":[{"name":"amount","type":"uint256","indexed":false,"internalType":"uint256"}],"anonymous":false},{"type":"event","name":"SweepToken","inputs":[{"name":"token","type":"address","indexed":true,"internalType":"address"},{"name":"amount","type":"uint256","indexed":false,"internalType":"uint256"}],"anonymous":false},{"type":"event","name":"Transfer","inputs":[{"name":"from","type":"address","indexed":true,"internalType":"address"},{"name":"to","type":"address","indexed":true,"internalType":"address"},{"name":"value","type":"uint256","indexed":false,"internalType":"uint256"}],"anonymous":false},{"type":"error","name":"InvalidShortString","inputs":[]},{"type":"error","name":"StringTooLong","inputs":[{"name":"str","type":"string","internalType":"string"}]}],"bytecode":{"object":"0x6101806040523462000afb57620050368038038091620000228261018062000b1c565b610180396101800161012061018082031262000afb5761018051906001600160a01b038216820362000afb576101a0516101c0516001600160401b03811162000afb576101800182601f8201121562000afb5780516001600160401b0381116200087c5760405193620000a0601f8301601f19166020018662000b1c565b8185526020828401011162000afb57620000c1916020808601910162000b40565b6101e05161020051610220516102405161026051610280519297939690959194939091906001600160a01b038416840362000afb576200010062000b65565b6200010a62000b65565b90604051620001198162000b00565b600381526212559560ea1b602082015260405192620001388462000b00565b60018452603160f81b60208086019190915260008054336001600160a01b03198216811783556040517fccdd1baf560d2682736fa25752c8ccc0c5fc4079b245b0acf7389776308d5b1f949390926001600160a01b0316907f8be0079c531659141344cd1fd0a4f28419497f9722a3daafe3b4186f6b6457e09080a3600180546001600160a01b031916339081179091558152a18051906001600160401b0382116200087c578190620001ed60055462000ba0565b601f811162000aa5575b50602090601f831160011462000a165760009262000a0a575b50508160011b916000199060031b1c1916176005555b8051906001600160401b0382116200087c5781906200024760065462000ba0565b601f8111620009a9575b50602090601f83116001146200092b576000926200091f575b50508160011b916000199060031b1c1916176006555b6200028b8162000c7f565b610120526200029a8262000e0c565b6101405260208151910120908160e0526020815191012080610100524660a052604051917f8b73c3c69bb8fe3d512ecc4cf759cc79239f7b179b0ffacaa9a75d522b39400f6020840152604083015260608201524660808201523060a082015260a081528060c081011060018060401b0360c0830111176200087c5760c0818101604052815160208301206080523090526001600e556001600160a01b03821615620008d7575081156200089257601080546001600160a01b0319166001600160a01b03929092169190911790556011558051906001600160401b0382116200087c5781906200038c60135462000ba0565b601f81116200081b575b50602090601f83116001146200079d5760009262000791575b50508160011b916000199060031b1c1916176013555b670de0b6b3a76400006101605260018060a01b0360105416601154604051908152606060208201526000601354620003fd8162000ba0565b908160608501526001811690816000146200076e57506001146200071e575b5090807f433127dedcff849792656a12f4a9dbc0efeb80df5cce6310f53481a93cd71c7192670de0b6b3a764000060408301520390a2601580546001600160a01b0319166001600160a01b0383169081179091551580620006f057620006da5760008051602062004ff68339815191529160209160008051602062004fd68339815191529083906001600160a01b0380821690045b601480546001600160a01b0319166001600160a01b0392831617905560405191168152a1620004e96001600160a01b03861662000bdd565b80601755604051908152a18383116200069557808411620006505763f48657008111620005f8576060837f34ebbb9e095e6c8737f99dd9923fb97ec1ca3d25cb39225975a934dd8d7a31b4927f914960aef5e033ce5cae8a7992d4b7a6f0f9741227b66acb67c605b7019f8a46966020966018558060195581601a55604051928352868301526040820152a180601b55604051908152a160405161406d908162000f49823960805181613aa9015260a05181613b64015260c05181613a73015260e05181613af801526101005181613b1e015261012051816114150152610140518161143f015261016051818181610564015281816125b0015281816128d7015281816129140152612a6f0152f35b60405162461bcd60e51b815260206004820152602a60248201527f76657374696e6720656e6473206166746572203431303234343438303020284a604482015269616e203120323130302960b01b6064820152608490fd5b60405162461bcd60e51b815260206004820152601860248201527f76657374696e6720656e64206265666f726520636c69666600000000000000006044820152606490fd5b60405162461bcd60e51b815260206004820152601a60248201527f76657374696e6720636c696666206265666f72652073746172740000000000006044820152606490fd5b634e487b7160e01b600052601260045260246000fd5b5060008051602062004ff68339815191529160008051602062004fd6833981519152602080936000620004b1565b6013600090815260008051602062004fb6833981519152939250905b8082106200075257509091508101608001816200041c565b919260018160209254608085880101520191019092916200073a565b60ff191660808086019190915291151560051b840190910191508290506200041c565b015190503880620003af565b60136000908152935060008051602062004fb683398151915291905b601f1984168510620007ff576001945083601f19811610620007e5575b505050811b01601355620003c5565b015160001960f88460031b161c19169055388080620007d6565b81810151835560209485019460019093019290910190620007b9565b601360005290915060008051602062004fb6833981519152601f840160051c81016020851062000874575b90849392915b601f830160051c820181106200086457505062000396565b600081558594506001016200084c565b508062000846565b634e487b7160e01b600052604160045260246000fd5b60405162461bcd60e51b815260206004820152601760248201527f4469737472696275746f723a20746f74616c20697320300000000000000000006044820152606490fd5b60c060649162461bcd60e51b82820152602060c4820152602060e48201527f4469737472696275746f723a20746f6b656e206973206164647265737328302961010482015201fd5b0151905038806200026a565b6006600090815293506000805160206200501683398151915291905b601f19841685106200098d576001945083601f1981161062000973575b505050811b0160065562000280565b015160001960f88460031b161c1916905538808062000964565b8181015183556020948501946001909301929091019062000947565b600660005290915060008051602062005016833981519152601f840160051c81016020851062000a02575b90849392915b601f830160051c82018110620009f257505062000251565b60008155859450600101620009da565b5080620009d4565b01519050388062000210565b6005600090815293507f036b6384b5eca791c62761152d0c79bb0604c104a5fb6f4eb0703f3154bb3db091905b601f198416851062000a89576001945083601f1981161062000a6f575b505050811b0160055562000226565b015160001960f88460031b161c1916905538808062000a60565b8181015183556020948501946001909301929091019062000a43565b90915060056000526020600020601f840160051c81016020851062000af3575b90849392915b601f830160051c8201811062000ae3575050620001f7565b6000815585945060010162000acb565b508062000ac5565b600080fd5b604081019081106001600160401b038211176200087c57604052565b601f909101601f19168101906001600160401b038211908210176200087c57604052565b60005b83811062000b545750506000910152565b818101518382015260200162000b43565b6040519062000b748262000b00565b601582527f496e7465726e616c20766f746520747261636b657200000000000000000000006020830152565b90600182811c9216801562000bd2575b602083101462000bbc57565b634e487b7160e01b600052602260045260246000fd5b91607f169162000bb0565b6014546001600160a01b03919082161562000c7b578181161562000c3657600019430143811162000c205782904016181660018060a01b03196016541617601655565b634e487b7160e01b600052601160045260246000fd5b60405162461bcd60e51b815260206004820152601860248201527f492064656d616e64206d6f72652072616e646f6d6e65737300000000000000006044820152606490fd5b5050565b80516020908181101562000cfd5750601f82511162000cbb578082519201519080831062000cac57501790565b82600019910360031b1b161790565b60449062000cef9260405193849263305a27a960e01b84528060048501528251928391826024870152868601910162000b40565b601f01601f19168101030190fd5b919291906001600160401b0382116200087c5762000d1d60075462000ba0565b601f811162000dd4575b5080601f831160011462000d68575081929360009262000d5c575b50508160011b916000199060031b1c19161760075560ff90565b01519050388062000d42565b90601f19831694600760005282600020926000905b87821062000dbb57505083600195961062000da1575b505050811b0160075560ff90565b015160001960f88460031b161c1916905538808062000d93565b8060018596829496860151815501950193019062000d7d565b600060078152601f838220920160051c820191601f850160051c015b82811062000e0057505062000d27565b81815560010162000df0565b80516020908181101562000e395750601f82511162000cbb578082519201519080831062000cac57501790565b919291906001600160401b0382116200087c5762000e5960085462000ba0565b601f811162000f10575b5080601f831160011462000ea4575081929360009262000e98575b50508160011b916000199060031b1c19161760085560ff90565b01519050388062000e7e565b90601f19831694600860005282600020926000905b87821062000ef757505083600195961062000edd575b505050811b0160085560ff90565b015160001960f88460031b161c1916905538808062000ecf565b8060018596829496860151815501950193019062000eb9565b600060088152601f838220920160051c820191601f850160051c015b82811062000f3c57505062000e63565b81815560010162000f2c56fe6080604052600436101561001257600080fd5b60003560e01c806306fdde03146103dd578063095ea7b3146103245780630f56b96c146103d857806313c67ce5146103d3578063144fa6d7146103ce57806318160ddd146103425780631be19560146103c95780631f8d1d50146103c457806323b872dd146103bf578063276801ec146103ba5780632ddbd13a146103b55780632e7ba6ef146103b0578063313ce567146103ab5780633644e515146103a657806339509351146103a15780633a46b1a81461039c5780633cf3a0251461039757806349590657146103925780634bf5d7e91461038d578063587cde1e146103885780635c19a95c14610383578063684de1f51461037e5780636fcfff451461037957806370a0823114610374578063715018a61461036f57806375aa9bc61461036a5780637cb64759146103655780637ecebe001461036057806384b0196e1461035b5780638da5cb5b146103565780638e539e8c1461035157806391ddadf41461034c57806395d89b41146103475780639a0e7d66146103425780639ab24eb01461033d5780639b642de114610338578063a3f4df7e14610333578063a457c2d71461032e578063a4ef1f7814610329578063a9059cbb14610324578063ab803a761461031f578063bb22dccb1461031a578063bf38b5c814610315578063c32b132614610310578063c3cda5201461030b578063c6e8d98214610306578063c78d598514610301578063c9557255146102fc578063d3d0ec89146102f7578063d505accf146102f2578063dd62ed3e146102ed578063de032f58146102e8578063e834a834146102e3578063e85858d9146102de578063e90a182f146102d9578063eac989f8146102d4578063f1127ed8146102cf578063f2fde38b146102ca578063f56c8547146102c5578063fc0c546a146102c05763ffa1ad74146102bb57600080fd5b6122ee565b6122c5565b61229c565b6121d5565b61214a565b6120b3565b612007565b611f51565b611f33565b611ec3565b611e60565b611d20565b611cd3565b611c87565b611c5e565b611c35565b611b06565b611a72565b611a40565b611a17565b6119bc565b61052b565b611995565b6118f2565b611894565b611744565b6116e1565b6107d3565b611638565b61160c565b61151c565b6114f3565b6113fa565b6113bd565b611371565b61117f565b611124565b6110e7565b61109c565b611045565b61101f565b610fe0565b610f2e565b610f10565b610ea1565b610d4c565b610cb6565b610c9b565b610c7f565b610a6f565b6109f0565b6109c7565b610925565b6108d9565b6107f1565b61072b565b6106da565b61054c565b610436565b919082519283825260005b84811061040e575050826000602080949584010152601f8019910116010190565b6020818301810151848301820152016103ed565b9060206104339281815201906103e2565b90565b3461051557600080600319360112610512576040518160055461045881612079565b9081845260209260019182811690816000146104f05750600114610497575b610493856104878189038261062e565b60405191829182610422565b0390f35b929450600583527f036b6384b5eca791c62761152d0c79bb0604c104a5fb6f4eb0703f3154bb3db05b8284106104dd575050508161049393610487928201019338610477565b80548585018701529285019281016104c0565b60ff191686860152505050151560051b82010191506104878161049338610477565b80fd5b600080fd5b6001600160a01b0381160361051557565b346105155760403660031901126105155761054760043561051a565b612cb2565b346105155760003660031901126105155760206040517f00000000000000000000000000000000000000000000000000000000000000008152f35b634e487b7160e01b600052604160045260246000fd5b6060810190811067ffffffffffffffff8211176105b957604052565b610587565b6040810190811067ffffffffffffffff8211176105b957604052565b6020810190811067ffffffffffffffff8211176105b957604052565b6080810190811067ffffffffffffffff8211176105b957604052565b60c0810190811067ffffffffffffffff8211176105b957604052565b90601f8019910116810190811067ffffffffffffffff8211176105b957604052565b6040519061065d8261059d565b565b6040519061065d826105be565b67ffffffffffffffff81116105b957601f01601f191660200190565b9291926106948261066c565b916106a2604051938461062e565b829481845281830111610515578281602093846000960137010152565b9080601f830112156105155781602061043393359101610688565b34610515576040366003190112610515576004356106f78161051a565b60243567ffffffffffffffff81116105155760209161071d6107239236906004016106bf565b506129f0565b604051908152f35b34610515576020366003190112610515576004356107488161051a565b610750612c5a565b6001600160a01b0316801561079857601080546001600160a01b031916821790557fefc1fd16ea80a922086ee4e995739d59b025c1bcea6d1f67855747480c83214b600080a2005b60405162461bcd60e51b8152602060048201526013602482015272746f6b656e206973206164647265737328302960681b6044820152606490fd5b34610515576000366003190112610515576020600454604051908152f35b346105155760203660031901126105155760043561080e8161051a565b610816612c5a565b6040516370a0823160e01b81523060048201526001600160a01b0382169190602081602481865afa80156108d4577ff4a44a7f605c4971a27bcecb448108e6328b7fad34fab5bff4f69377294b826d9261089b926000926108a0575b5060015461088b9183916001600160a01b0316906136ce565b6040519081529081906020820190565b0390a2005b61088b9192506108c69060203d81116108cd575b6108be818361062e565b810190612bd0565b9190610872565b503d6108b4565b612bdf565b34610515576020366003190112610515577fac657d3615bd618ee537848e2b33acd2a9df67d4776485ab6922b0421d324d296020600435610918612c5a565b80601155604051908152a1005b34610515576060366003190112610515576004356109428161051a565b61094d60243561051a565b6001600160a01b031660009081526003602090815260408083203384529091529020546001810115612cb2576044351115612cb25760405162461bcd60e51b815260206004820152601d60248201527f45524332303a20696e73756666696369656e7420616c6c6f77616e63650000006044820152606490fd5b34610515576000366003190112610515576016546040516001600160a01b039091168152602090f35b34610515576000366003190112610515576020601154604051908152f35b60806003198201126105155760043591602435610a2a8161051a565b916044359160643567ffffffffffffffff9283821161051557806023830112156105155781600401359384116105155760248460051b83010111610515576024019190565b3461051557610add610ad7610a8336610a0e565b929593604095929551610acc81610abe898b602084019687916054939183526001600160601b03199060601b16602083015260348201520190565b03601f19810183528261062e565b51902092369161230a565b90612b0b565b6002600e5414610c3a576002600e556000604051610afa816105da565b526001600160781b0380911660018060a01b038316600052600f602052808260406000205460081c1603610c2a575b50610b33826129f0565b168015610bcd576001600160a01b0382166000908152600f60205260409020610bc19290610b9f90610b7984610b7483546001600160781b039060801c1690565b6126d7565b8154600160801b600160f81b03191660809190911b600160801b600160f81b0316179055565b610bb3610bae836012546126ca565b601255565b610bbc81612506565b6129aa565b610bcb6001600e55565b005b60405162461bcd60e51b815260206004820152602f60248201527f4469737472696275746f723a206e6f206d6f726520746f6b656e7320636c616960448201526e6d61626c65207269676874206e6f7760881b6064820152608490fd5b610c349083612360565b38610b29565b60405162461bcd60e51b815260206004820152601f60248201527f5265656e7472616e637947756172643a207265656e7472616e742063616c6c006044820152606490fd5b3461051557600036600319011261051557602060405160128152f35b34610515576000366003190112610515576020610723613a70565b3461051557604036600319011261051557610cfb600435610cd68161051a565b33600052600360205260406000209060018060a01b0316600052602052604060002090565b54602435810110610d475760405162461bcd60e51b81526020600482015260196024820152783234b9b0b13632b2103337b9103b37ba34b733903837bbb2b960391b6044820152606490fd5b6124ca565b3461051557604036600319011261051557600435610d698161051a565b60243590610d8865ffffffffffff610d8043613f31565b168310612d8f565b6001600160a01b03166000908152600c6020526040812080549290918360058111610e50575b50905b838210610dff57505081610dd8575050602060005b6040516001600160e01b039091168152f35b610df3610dfa91602093600019019060005260206000200190565b5460201c90565b610dc6565b9092610e0b8185613d67565b908263ffffffff610e30610e26858860005260206000200190565b5463ffffffff1690565b161115610e405750925b90610db1565b9350610e4b906126bc565b610e3a565b80610e60610e6692969396613d7c565b906124f9565b908263ffffffff610e81610e26858860005260206000200190565b161115610e915750925b38610dae565b9350610e9c906126bc565b610e8b565b3461051557602036600319011261051557600435610ebd612c5a565b7f3b381fdfc0e2729a70e8b26ae2397e9014f703a8235b557f5581c4ed47280fd26020600092610f06848080808560018060a01b03600154165af1610f00612beb565b50612c1b565b604051908152a180f35b34610515576000366003190112610515576020601b54604051908152f35b34610515576000366003190112610515574365ffffffffffff610f5043613f31565b1603610f9b57610493604051610f65816105be565b601d81527f6d6f64653d626c6f636b6e756d6265722666726f6d3d64656661756c74000000602082015260405191829182610422565b60405162461bcd60e51b815260206004820152601d60248201527f4552433230566f7465733a2062726f6b656e20636c6f636b206d6f64650000006044820152606490fd5b34610515576020366003190112610515576020600435610fff8161051a565b60018060a01b03809116600052600b825260406000205416604051908152f35b3461051557602036600319011261051557610bcb60043561103f8161051a565b33613155565b3461051557610bcb610ad761109761105c36610a0e565b929493604096929651610acc81610abe8a8a602084019687916054939183526001600160601b03199060601b16602083015260348201520190565b612360565b34610515576020366003190112610515576004356110b98161051a565b60018060a01b0316600052600c60205260206110d9604060002054613f98565b63ffffffff60405191168152f35b34610515576020366003190112610515576004356111048161051a565b60018060a01b031660005260026020526020604060002054604051908152f35b34610515576000806003193601126105125761113e612c5a565b80546001600160a01b03198116825581906001600160a01b03167f8be0079c531659141344cd1fd0a4f28419497f9722a3daafe3b4186f6b6457e08280a380f35b346105155760403660031901126105155760043561119c8161051a565b7fd81661cef4e40e0f1f97384c033d606e4d6b570554fc3524568d8f9fc84c838861089b602435926111cc612c5a565b6001600160a01b0381166000908152600f602052604090206111ed90612493565b6111ff6111fa8251151590565b612614565b600085131561136357845b6001600160781b039161121e838310612670565b6000871215611318576112f59261127d611278846112d7946112738261126c611260602060115495611252858810156126f2565b01516001600160781b031690565b6001600160781b031690565b101561274e565b6124f9565b601155565b6001600160a01b0385166000908152600f602052604090206112b6909184166112b183546001600160781b039060081c1690565b6124e0565b610100600160801b0382549160081b1690610100600160801b031916179055565b6010546001600160a01b03166000546001600160a01b0316906136ce565b6112fe81612506565b6040519384526001600160a01b0316929081906020820190565b506112b661135e9261132f611278846011546126ca565b6001600160a01b0385166000908152600f602052604090209216610b7483546001600160781b039060081c1690565b6112f5565b61136c8561265f565b61120a565b34610515576020366003190112610515577f914960aef5e033ce5cae8a7992d4b7a6f0f9741227b66acb67c605b7019f8a4660206004356113b0612c5a565b80601b55604051908152a1005b34610515576020366003190112610515576004356113da8161051a565b60018060a01b031660005260096020526020604060002054604051908152f35b346105155760008060031936011261051257611497906114397f0000000000000000000000000000000000000000000000000000000000000000613bb0565b906114637f0000000000000000000000000000000000000000000000000000000000000000613caa565b9060405191611471836105da565b8183526114a5602091604051968796600f60f81b885260e08589015260e08801906103e2565b9086820360408801526103e2565b904660608601523060808601528260a086015284820360c08601528080855193848152019401925b8281106114dc57505050500390f35b8351855286955093810193928101926001016114cd565b34610515576000366003190112610515576000546040516001600160a01b039091168152602090f35b346105155760203660031901126105155760043561154b65ffffffffffff61154343613f31565b168210612d8f565b600d5490600082600581116115c9575b50905b82821061158a578280611578575060405160008152602090f35b610dfa610df3602092600019016136a4565b90916115968184613d67565b908263ffffffff6115a9610e26856136a4565b1611156115b95750915b9061155e565b92506115c4906126bc565b6115b3565b80610e606115d992959395613d7c565b908263ffffffff6115ec610e26856136a4565b1611156115fc5750915b3861155b565b9250611607906126bc565b6115f6565b3461051557600036600319011261051557602061162843613f31565b65ffffffffffff60405191168152f35b3461051557600080600319360112610512576040518160065461165a81612079565b9081845260209260019182811690816000146104f0575060011461168857610493856104878189038261062e565b929450600683527ff652222313e28459528d920b65115c16c04f3efc82aaedc97be59f3f377c0d3f5b8284106116ce575050508161049393610487928201019338610477565b80548585018701529285019281016116b1565b34610515576020366003190112610515576004356116fe8161051a565b6001600160a01b03166000908152600c6020526040902080548061172a57505060405160008152602090f35b60209161173b916000190190612d3f565b5054811c610dc6565b34610515576020806003193601126105155767ffffffffffffffff600435818111610515573660238201121561051557611788903690602481600401359101610688565b91611791612c5a565b82519182116105b9576117ae826117a9601354612079565b6127b1565b80601f831160011461181c575081906117de93600092611811575b50508160011b916000199060031b1c19161790565b6013555b6117ea612810565b7fd70c1392a974224e639e7a9607dcb2c766826aecfe2dc356f442ce0488b01e1f600080a2005b0151905038806117c9565b90601f1983169361183d601360005260008051602061401883398151915290565b926000905b86821061187c5750508360019510611863575b505050811b016013556117e2565b015160001960f88460031b161c19169055388080611855565b80600185968294968601518155019501930190611842565b34610515576000366003190112610515576104936040516118b4816105be565b601781527f436f6e74696e756f757356657374696e674d65726b6c6500000000000000000060208201526040519182916020835260208301906103e2565b346105155760403660031901126105155760043561190f8161051a565b33600052600360205261193b6024359160406000209060018060a01b0316600052602052604060002090565b541015612cb25760405162461bcd60e51b815260206004820152602560248201527f45524332303a2064656372656173656420616c6c6f77616e63652062656c6f77604482015264207a65726f60d81b6064820152608490fd5b346105155760203660031901126105155760206107236004356119b78161051a565b612ba1565b3461051557600080600319360112610512576119d6612c5a565b7f3b381fdfc0e2729a70e8b26ae2397e9014f703a8235b557f5581c4ed47280fd2602047610f06848080808560018060a01b03600154165af1610f00612beb565b3461051557602036600319011261051557611a3360043561051a565b6020601754604051908152f35b3461051557600036600319011261051557601854601954601a5460408051938452602084019290925290820152606090f35b34610515576060366003190112610515577f34ebbb9e095e6c8737f99dd9923fb97ec1ca3d25cb39225975a934dd8d7a31b4602435600435611ae1604435611ab8612c5a565b826018558360195580601a55604051938493846040919493926060820195825260208201520152565b0390a1005b6064359060ff8216820361051557565b6084359060ff8216820361051557565b346105155760c036600319011261051557600435611b238161051a565b60443590602435611b32611ae6565b92804211611bf057611bc2611beb91610bcb9560405190611baa82611b9c6020820195898b8860609194939260808201957fe48329057bfd03d55e49b547132e39cffd9c1820ad7b9d4c5307691425d15adf835260018060a01b0316602083015260408201520152565b03601f19810184528361062e565b611bbd60a4359360843593519020613b8a565b613897565b6001600160a01b0381166000908152600960205260409020805460018101909155909214612ddb565b613155565b60405162461bcd60e51b815260206004820152601d60248201527f4552433230566f7465733a207369676e617475726520657870697265640000006044820152606490fd5b34610515576000366003190112610515576014546040516001600160a01b039091168152602090f35b34610515576000366003190112610515576001546040516001600160a01b039091168152602090f35b34610515576020366003190112610515577f6c339c0bee516a4df5d7074ba7a974856d609f83666e915aa4a0f90e06989dc56020600435611cc6612c5a565b80601755604051908152a1005b3461051557606036600319011261051557600435611cf08161051a565b60443567ffffffffffffffff811161051557602091611d166107239236906004016106bf565b506024359061289b565b346105155760e036600319011261051557600435611d3d8161051a565b60243590611d4a8261051a565b60643591611d56611af6565b90834211611e1b5761054793611e0892611df5611d8e8660018060a01b03166000526009602052604060002090815491600183019055565b611b9c6040519485926020840197604435908b8a91959493909260a09360c08401977f6e71edae12b1b97f4d1f60370fef10105fa2faae0126114a169c64845d6126c98552600180871b038092166020860152166040840152606083015260808201520152565b611bbd60c4359360a43593519020613b8a565b6001600160a01b03908116911614612cf3565b60405162461bcd60e51b815260206004820152601d60248201527f45524332305065726d69743a206578706972656420646561646c696e650000006044820152606490fd5b34610515576040366003190112610515576020611eba600435611e828161051a565b60243590611e8f8261051a565b60018060a01b03166000526003835260406000209060018060a01b0316600052602052604060002090565b54604051908152f35b34610515576020366003190112610515577fccdd1baf560d2682736fa25752c8ccc0c5fc4079b245b0acf7389776308d5b1f6020600435611f038161051a565b611f0b612c5a565b600180546001600160a01b0319166001600160a01b03929092169182179055604051908152a1005b34610515576000366003190112610515576020601254604051908152f35b3461051557602036600319011261051557610493600435611f718161051a565b6040906000828051611f828161059d565b828152826020820152015260018060a01b0316600052600f6020528060002090805191611fae8361059d565b5460ff8116151583526001600160781b0390818160081c16602085015260801c1681830152519182918291909160406060820193805115158352816020820151916001600160781b038093166020860152015116910152565b34610515576040366003190112610515576004356120248161051a565b7ff4a44a7f605c4971a27bcecb448108e6328b7fad34fab5bff4f69377294b826d602060243592612053612c5a565b6001546001600160a01b03919061206e9086908416836136ce565b6040519485521692a2005b90600182811c921680156120a9575b602083101461209357565b634e487b7160e01b600052602260045260246000fd5b91607f1691612088565b346105155760008060031936011261051257604051816013546120d581612079565b9081845260209260019182811690816000146104f0575060011461210357610493856104878189038261062e565b929450601383526000805160206140188339815191525b828410612137575050508161049393610487928201019338610477565b805485850187015292850192810161211a565b34610515576040366003190112610515576004356121678161051a565b63ffffffff6024358181168103610515576121b16121b791604094600060208751612191816105be565b82815201526001600160a01b03166000908152600c602052859020612d3f565b50612d6d565b8251815190921682526020908101516001600160e01b031690820152f35b34610515576020366003190112610515576004356121f28161051a565b6121fa612c5a565b6001600160a01b03908116801561224857600080546001600160a01b03198116831782559092167f8be0079c531659141344cd1fd0a4f28419497f9722a3daafe3b4186f6b6457e08380a380f35b60405162461bcd60e51b815260206004820152602660248201527f4f776e61626c653a206e6577206f776e657220697320746865207a65726f206160448201526564647265737360d01b6064820152608490fd5b34610515576000366003190112610515576015546040516001600160a01b039091168152602090f35b34610515576000366003190112610515576010546040516001600160a01b039091168152602090f35b3461051557600036600319011261051557602060405160038152f35b90929167ffffffffffffffff84116105b9578360051b602092836040516123338285018261062e565b809781520191810192831161051557905b8282106123515750505050565b81358152908301908301612344565b6001600160781b038083116124395761065d92166123f26123a66123968460018060a01b0316600052600f602052604060002090565b5460801c6001600160781b031690565b6123d56123b1610650565b60018152916001600160781b03851660208401526001600160781b03166040830152565b6001600160a01b0384166000908152600f6020526040902061293c565b6040516001600160781b039190911681526001600160a01b038216907fdb598eb8e0a3d3d5c2e02e4cab1ee8b65bb20e48fc7b42f4c76272de4cdd243490602090a2612506565b60405162461bcd60e51b815260206004820152602c60248201527f4469737472696275746f723a20746f74616c416d6f756e74203e20747970652860448201526b0ead2dce8626460525cdac2f60a31b6064820152608490fd5b906040516124a08161059d565b604081935460ff8116151583526001600160781b0390818160081c16602085015260801c16910152565b634e487b7160e01b600052601160045260246000fd5b6001600160781b039182169082160391908211610d4757565b91908203918211610d4757565b6001600160a01b038116600090815260026020908152604080832054600f90925290912090919061253690612493565b6001600160781b038060208160408501511693015116808310156000146125975750505060005b80831115612578576125729061065d936124f9565b90612f6e565b80831061258457505050565b61065d92612591916124f9565b90612e8c565b6125ae926125a4916124e0565b16601754906125e1565b7f00000000000000000000000000000000000000000000000000000000000000009081156125dc570461255d565b6125f4565b81810292918115918404141715610d4757565b634e487b7160e01b600052601260045260246000fd5b81156125dc570490565b1561261b57565b606460405162461bcd60e51b815260206004820152602060248201527f6d75737420696e697469616c697a65206265666f72652061646a757374696e676044820152fd5b600160ff1b8114610d475760000390565b1561267757565b60405162461bcd60e51b815260206004820152601860248201527f61646a7573746d656e74203e206d61782075696e7431323000000000000000006044820152606490fd5b9060018201809211610d4757565b91908201809211610d4757565b9190916001600160781b0380809416911601918211610d4757565b156126f957565b60405162461bcd60e51b815260206004820152602760248201527f64656372656173652067726561746572207468616e206469737472696275746f6044820152661c881d1bdd185b60ca1b6064820152608490fd5b1561275557565b60405162461bcd60e51b815260206004820152602e60248201527f64656372656173652067726561746572207468616e206469737472696275746960448201526d1bdb949958dbdc99081d1bdd185b60921b6064820152608490fd5b601f81116127bd575050565b60009060138252600080516020614018833981519152906020601f850160051c83019410612806575b601f0160051c01915b8281106127fb57505050565b8181556001016127ef565b90925082906127e6565b60405180600060135461282281612079565b906001908181169081156128845750600114612841575b505003902090565b601360009081529192506000805160206140188339815191525b83831061286e5750505081013880612839565b805486840152859450602090920191810161285b565b60ff19168552505080151502820190503880612839565b6128a490612ba1565b8103908111610d475760195481111561293657601a5490818110156129105760185490818103908111610d47576128fb907f00000000000000000000000000000000000000000000000000000000000000006125e1565b9080830392808411610d4757146125dc570490565b50507f000000000000000000000000000000000000000000000000000000000000000090565b50600090565b815181546020840151610100600160801b0360089190911b1691151560ff166fffffffffffffffffffffffffffffffff199091161717815561065d916001600160781b0390604001518254600160801b600160f81b031916911660801b600160801b600160f81b0316179055565b60207f47cee97cb7acd717b3c0aa1435d004cd5b3c8c57d70dbceb4e4458bbd60e39d49160018060a01b03906129e5858284601054166136ce565b6040519485521692a2565b6001600160a01b0381166000908152600f602052604090205460ff1615612abb576001600160a01b0381166000908152600f60205260409020612a3290612493565b90612aa36040612a94612a6d612a5d612a5560208801516001600160781b031690565b95429061289b565b6001600160781b038096166125e1565b7f00000000000000000000000000000000000000000000000000000000000000009061260a565b9301516001600160781b031690565b16818110612ab2575050600090565b610433916124f9565b60405162461bcd60e51b815260206004820152602260248201527f4469737472696275746f723a20636c61696d206e6f7420696e697469616c697a604482015261195960f21b6064820152608490fd5b601b5492600092915b8251841015612b60576020808560051b85010151916000838210600014612b5357506000525260406000205b926000198114610d475760010192612b14565b9160409383525220612b40565b915092915003612b6c57565b60405162461bcd60e51b815260206004820152600d60248201526c34b73b30b634b210383937b7b360991b6044820152606490fd5b6014546001600160a01b0391908216908115612bc857829081806016541691161816041690565b505050600090565b90816020910312610515575190565b6040513d6000823e3d90fd5b3d15612c16573d90612bfc8261066c565b91612c0a604051938461062e565b82523d6000602084013e565b606090565b15612c2257565b60405162461bcd60e51b815260206004820152601060248201526f2a3930b739b332b9103330b4b632b21760811b6044820152606490fd5b6000546001600160a01b03163303612c6e57565b606460405162461bcd60e51b815260206004820152602060248201527f4f776e61626c653a2063616c6c6572206973206e6f7420746865206f776e65726044820152fd5b60405162461bcd60e51b81526020600482015260196024820152783234b9b0b13632b2103337b9103b37ba34b733903837bbb2b960391b6044820152606490fd5b15612cfa57565b60405162461bcd60e51b815260206004820152601e60248201527f45524332305065726d69743a20696e76616c6964207369676e617475726500006044820152606490fd5b8054821015612d575760005260206000200190600090565b634e487b7160e01b600052603260045260246000fd5b90604051612d7a816105be565b602081935463ffffffff81168352811c910152565b15612d9657565b60405162461bcd60e51b815260206004820152601960248201527f4552433230566f7465733a20667574757265206c6f6f6b7570000000000000006044820152606490fd5b15612de257565b60405162461bcd60e51b815260206004820152601960248201527f4552433230566f7465733a20696e76616c6964206e6f6e6365000000000000006044820152606490fd5b15612e2e57565b60405162461bcd60e51b815260206004820152603060248201527f4552433230566f7465733a20746f74616c20737570706c79207269736b73206f60448201526f766572666c6f77696e6720766f74657360801b6064820152608490fd5b906001600160a01b0382168015612f2957600454828101809111610d4757612f2593612f0a92612ebc8593600455565b6001600160a01b0382166000908152600260209081526040808320805487019055518581527fddf252ad1be2c89b69c2b068fc378daa952ba7f163c4a11628f55a4df523b3ef9190a36130bc565b600454612f20906001600160e01b031015612e27565b6134a2565b5050565b60405162461bcd60e51b815260206004820152601f60248201527f45524332303a206d696e7420746f20746865207a65726f2061646472657373006044820152606490fd5b6001600160a01b038116919082156130165781816000612f259583612fa86130119660018060a01b03166000526002602052604060002090565b54612fb582821015613065565b03612fd28460018060a01b03166000526002602052604060002090565b55612fe08460045403600455565b6040518481527fddf252ad1be2c89b69c2b068fc378daa952ba7f163c4a11628f55a4df523b3ef90602090a3613107565b613592565b60405162461bcd60e51b815260206004820152602160248201527f45524332303a206275726e2066726f6d20746865207a65726f206164647265736044820152607360f81b6064820152608490fd5b1561306c57565b60405162461bcd60e51b815260206004820152602260248201527f45524332303a206275726e20616d6f756e7420657863656564732062616c616e604482015261636560f01b6064820152608490fd5b600b6020527fdf7de25b7f1fd6d0b5205f0e18f1f35bd7b8d84cce336588d184533ce43a6f76546001600160a01b039182166000908152604090205461065d939290811691166131c5565b6001600160a01b039081166000908152600b60205260408120549080527fdf7de25b7f1fd6d0b5205f0e18f1f35bd7b8d84cce336588d184533ce43a6f765461065d939290811691166131c5565b61065d9160018060a01b03809216600092818452600b60205280604085205416809260026020527f3134e8a2e6d97e929a7e54011ea5485d7d196dd5f0ba4d4ef95803e8e3fc257f604087205496600b6020526040812094871694856001600160601b0360a01b82541617905580a45b6001600160a01b038083169392911680841415806133d8575b6131e9575b50505050565b80613257575b50826131fc575b806131e3565b6001600160a01b03166000908152600c602052604090207fdec2bacdd2f05b59de34da9b523dff8be42e5e38e818c82fdb0bae774387a7249161323e916135eb565b60408051928352602083019190915290a23880806131f6565b80600052600c6020527fdec2bacdd2f05b59de34da9b523dff8be42e5e38e818c82fdb0bae774387a72460406000208054801591826000146133b55761329b61065f565b6000815260006020820152915b60208301516132c7906001600160e01b03165b6001600160e01b031690565b926132d28985613ffd565b94159081613392575b50156133305761330361331a926132f186613ec8565b92600019019060005260206000200190565b9063ffffffff82549181199060201b169116179055565b604080519182526020820192909252a2386131ef565b5061338d9061335461334f61334443613f31565b65ffffffffffff1690565b613f98565b9061338861336186613ec8565b61337861336c61065f565b63ffffffff9095168552565b6001600160e01b03166020840152565b613448565b61331a565b5163ffffffff16905063ffffffff6133ac61334443613f31565b911614386132db565b6133d26133cd60001984018360005260206000200190565b612d6d565b916132a8565b508215156131de565b600d5490600160401b8210156105b9576001820180600d55821015612d5757600d600052805160209182015190911b63ffffffff191663ffffffff91909116177fd7b6990105719101dabeb77144f2a3385c8033acd3af97e9423a695e81ad1eb590910155565b8054600160401b8110156105b95761346591600182018155612d3f565b61348c57815160209283015190921b63ffffffff191663ffffffff92909216919091179055565b634e487b7160e01b600052600060045260246000fd5b600d549091811591821561357d576134b861065f565b60008152600060208201525b60208101516134e6906134df906001600160e01b03166132bb565b958661400a565b9315908161355a575b501561350f5761065d9061330361350585613ec8565b91600019016136a4565b5061065d61352261334f61334443613f31565b61355561352e85613ec8565b61354561353961065f565b63ffffffff9094168452565b6001600160e01b03166020830152565b6133e1565b5163ffffffff16905063ffffffff61357461334443613f31565b911614386134ef565b61358d6133cd60001983016136a4565b6134c4565b600d54909181159182156135d6576135a861065f565b60008152600060208201525b60208101516134e6906135cf906001600160e01b03166132bb565b9586613ffd565b6135e66133cd60001983016136a4565b6135b4565b9091815491821592836000146136875761360361065f565b60008152600060208201525b60208101516136319061362a906001600160e01b03166132bb565b968761400a565b94159081613664575b50156136505761330361065d926132f186613ec8565b5061065d9061335461334f61334443613f31565b5163ffffffff16905063ffffffff61367e61334443613f31565b9116143861363a565b61369f6133cd60001983018460005260206000200190565b61360f565b600d6000527fd7b6990105719101dabeb77144f2a3385c8033acd3af97e9423a695e81ad1eb50190565b60405163a9059cbb60e01b602082019081526001600160a01b03938416602483015260448083019590955293815261375d92909161370b836105f6565b1660405191613719836105be565b602083527f5361666545524332303a206c6f772d6c6576656c2063616c6c206661696c65646020840152600080958192519082855af1613757612beb565b91613802565b8051908115918215613776575b505061065d91506137a3565b819250906020918101031261379f5760200151908115158203610512575061065d90388061376a565b5080fd5b156137aa57565b60405162461bcd60e51b815260206004820152602a60248201527f5361666545524332303a204552433230206f7065726174696f6e20646964206e6044820152691bdd081cdd58d8d9595960b21b6064820152608490fd5b919290156138645750815115613816575090565b3b1561381f5790565b60405162461bcd60e51b815260206004820152601d60248201527f416464726573733a2063616c6c20746f206e6f6e2d636f6e74726163740000006044820152606490fd5b8251909150156138775750805190602001fd5b60405162461bcd60e51b81529081906138939060048301610422565b0390fd5b9161043393916138a6936139ee565b9190916138ce565b600511156138b857565b634e487b7160e01b600052602160045260246000fd5b6138d7816138ae565b806138df5750565b6138e8816138ae565b600181036139355760405162461bcd60e51b815260206004820152601860248201527f45434453413a20696e76616c6964207369676e617475726500000000000000006044820152606490fd5b61393e816138ae565b6002810361398b5760405162461bcd60e51b815260206004820152601f60248201527f45434453413a20696e76616c6964207369676e6174757265206c656e677468006044820152606490fd5b806139976003926138ae565b1461399e57565b60405162461bcd60e51b815260206004820152602260248201527f45434453413a20696e76616c6964207369676e6174757265202773272076616c604482015261756560f01b6064820152608490fd5b9291907f7fffffffffffffffffffffffffffffff5d576e7357a4501ddfe92f46681b20a08311613a645791608094939160ff602094604051948552168484015260408301526060820152600093849182805260015afa156108d45781516001600160a01b03811615613a5e579190565b50600190565b50505050600090600390565b307f00000000000000000000000000000000000000000000000000000000000000006001600160a01b03161480613b61575b15613acb577f000000000000000000000000000000000000000000000000000000000000000090565b60405160208101907f8b73c3c69bb8fe3d512ecc4cf759cc79239f7b179b0ffacaa9a75d522b39400f82527f000000000000000000000000000000000000000000000000000000000000000060408201527f000000000000000000000000000000000000000000000000000000000000000060608201524660808201523060a082015260a08152613b5b81610612565b51902090565b507f00000000000000000000000000000000000000000000000000000000000000004614613aa2565b604290613b95613a70565b906040519161190160f01b8352600283015260228201522090565b60ff8114613bee5760ff811690601f8211613bdc5760405191613bd2836105be565b8252602082015290565b604051632cd44ac360e21b8152600490fd5b50604051600754816000613c0183612079565b808352602093600190818116908115613c8a5750600114613c2b575b50506104339250038261062e565b9093915060076000527fa66cc928b5edb82af9bd49922954155ab7b0942694bea4ce44661d9a8736c688936000915b818310613c7257505061043393508201013880613c1d565b85548784018501529485019486945091830191613c5a565b91505061043394925060ff191682840152151560051b8201013880613c1d565b60ff8114613ccc5760ff811690601f8211613bdc5760405191613bd2836105be565b50604051600854816000613cdf83612079565b808352602093600190818116908115613c8a5750600114613d085750506104339250038261062e565b9093915060086000527ff3f7a9fe364faab93b216da50a3214154f22a0a2b415b23a84c8169e8b636ee3936000915b818310613d4f57505061043393508201013880613c1d565b85548784018501529485019486945091830191613d37565b90808216911860011c8101809111610d475790565b80156129365780613e4f613e48613e3e613e34613e2a613e20613e16613e0c60016104339a6000908b60801c80613eaa575b508060401c80613e9d575b508060201c80613e90575b508060101c80613e83575b508060081c80613e76575b508060041c80613e69575b508060021c80613e5c575b50821c613e55575b811c1b613e05818b61260a565b0160011c90565b613e05818a61260a565b613e05818961260a565b613e05818861260a565b613e05818761260a565b613e05818661260a565b613e05818561260a565b809261260a565b90613eb6565b8101613df8565b6002915091019038613df0565b6004915091019038613de5565b6008915091019038613dda565b6010915091019038613dcf565b6020915091019038613dc4565b6040915091019038613db9565b91505060809038613dae565b9080821015613ec3575090565b905090565b6001600160e01b0390818111613edc571690565b60405162461bcd60e51b815260206004820152602760248201527f53616665436173743a2076616c756520646f65736e27742066697420696e20326044820152663234206269747360c81b6064820152608490fd5b65ffffffffffff90818111613f44571690565b60405162461bcd60e51b815260206004820152602660248201527f53616665436173743a2076616c756520646f65736e27742066697420696e203460448201526538206269747360d01b6064820152608490fd5b63ffffffff90818111613fa9571690565b60405162461bcd60e51b815260206004820152602660248201527f53616665436173743a2076616c756520646f65736e27742066697420696e203360448201526532206269747360d01b6064820152608490fd5b908103908111610d475790565b908101809111610d47579056fe66de8ffda797e3de9c05e8fc57b3bf0ec28a930d40b0d285d93c06501cf6a090a2646970667358221220f34a4a9834fe2c69f4b0b5f8b1579175ca382707535f50373d70233b302a42f664736f6c6343000815003366de8ffda797e3de9c05e8fc57b3bf0ec28a930d40b0d285d93c06501cf6a090dccb8d94a5bbd764ed844afa20f2581be18d3fa84b36855e86a8f0c9316cba7d6c339c0bee516a4df5d7074ba7a974856d609f83666e915aa4a0f90e06989dc5f652222313e28459528d920b65115c16c04f3efc82aaedc97be59f3f377c0d3f","linkReferences":{}},"methodIdentifiers":{"CLOCK_MODE()":"4bf5d7e9","DOMAIN_SEPARATOR()":"3644e515","NAME()":"a3f4df7e","VERSION()":"ffa1ad74","adjust(address,int256)":"75aa9bc6","allowance(address,address)":"dd62ed3e","approve(address,uint256)":"095ea7b3","balanceOf(address)":"70a08231","checkpoints(address,uint32)":"f1127ed8","claim(uint256,address,uint256,bytes32[])":"2e7ba6ef","claimed()":"e834a834","clock()":"91ddadf4","decimals()":"313ce567","decreaseAllowance(address,uint256)":"a457c2d7","delegate(address)":"5c19a95c","delegateBySig(address,uint256,uint256,uint8,bytes32,bytes32)":"c3cda520","delegates(address)":"587cde1e","distancePerSecond()":"c6e8d982","eip712Domain()":"84b0196e","getClaimableAmount(address,bytes)":"13c67ce5","getDistributionRecord(address)":"e85858d9","getFairDelayTime(address)":"a4ef1f78","getFractionDenominator()":"0f56b96c","getMerkleRoot()":"49590657","getPastTotalSupply(uint256)":"8e539e8c","getPastVotes(address,uint256)":"3a46b1a8","getSweepRecipient()":"c78d5985","getTotalVotes()":"9a0e7d66","getVestedFraction(address,uint256,bytes)":"d3d0ec89","getVestingConfig()":"bf38b5c8","getVoteFactor(address)":"bb22dccb","getVotes(address)":"9ab24eb0","increaseAllowance(address,uint256)":"39509351","initializeDistributionRecord(uint256,address,uint256,bytes32[])":"684de1f5","maxDelayTime()":"f56c8547","name()":"06fdde03","nonces(address)":"7ecebe00","numCheckpoints(address)":"6fcfff45","owner()":"8da5cb5b","permit(address,address,uint256,uint256,uint8,bytes32,bytes32)":"d505accf","randomValue()":"276801ec","renounceOwnership()":"715018a6","setMerkleRoot(bytes32)":"7cb64759","setSweepRecipient(address)":"de032f58","setToken(address)":"144fa6d7","setTotal(uint256)":"1f8d1d50","setUri(string)":"9b642de1","setVestingConfig(uint256,uint256,uint256)":"c32b1326","setVoteFactor(uint256)":"c9557255","sweepNative()":"ab803a76","sweepNative(uint256)":"3cf3a025","sweepToken(address)":"1be19560","sweepToken(address,uint256)":"e90a182f","symbol()":"95d89b41","token()":"fc0c546a","total()":"2ddbd13a","totalSupply()":"18160ddd","transfer(address,uint256)":"a9059cbb","transferFrom(address,address,uint256)":"23b872dd","transferOwnership(address)":"f2fde38b","uri()":"eac989f8"},"id":0}