{"abi":[{"type":"constructor","inputs":[{"name":"_sale","type":"address","internalType":"contract FlatPriceSale"},{"name":"_token","type":"address","internalType":"contract IERC20"},{"name":"_soldTokenDecimals","type":"uint8","internalType":"uint8"},{"name":"_price","type":"uint256","internalType":"uint256"},{"name":"_start","type":"uint256","internalType":"uint256"},{"name":"_end","type":"uint256","internalType":"uint256"},{"name":"_oracle","type":"address","internalType":"contract IOracleOrL2OracleWithSequencerCheck"},{"name":"priceTiers","type":"tuple[]","internalType":"struct PriceTier[]","components":[{"name":"price","type":"uint128","internalType":"uint128"},{"name":"vestedFraction","type":"uint128","internalType":"uint128"}]},{"name":"_voteFactor","type":"uint256","internalType":"uint256"},{"name":"_uri","type":"string","internalType":"string"}],"stateMutability":"nonpayable"},{"type":"function","name":"CLOCK_MODE","inputs":[],"outputs":[{"name":"","type":"string","internalType":"string"}],"stateMutability":"view"},{"type":"function","name":"DOMAIN_SEPARATOR","inputs":[],"outputs":[{"name":"","type":"bytes32","internalType":"bytes32"}],"stateMutability":"view"},{"type":"function","name":"NAME","inputs":[],"outputs":[{"name":"","type":"string","internalType":"string"}],"stateMutability":"pure"},{"type":"function","name":"VERSION","inputs":[],"outputs":[{"name":"","type":"uint256","internalType":"uint256"}],"stateMutability":"pure"},{"type":"function","name":"adjust","inputs":[{"name":"beneficiary","type":"address","internalType":"address"},{"name":"amount","type":"int256","internalType":"int256"}],"outputs":[],"stateMutability":"nonpayable"},{"type":"function","name":"allowance","inputs":[{"name":"owner","type":"address","internalType":"address"},{"name":"spender","type":"address","internalType":"address"}],"outputs":[{"name":"","type":"uint256","internalType":"uint256"}],"stateMutability":"view"},{"type":"function","name":"approve","inputs":[{"name":"spender","type":"address","internalType":"address"},{"name":"amount","type":"uint256","internalType":"uint256"}],"outputs":[{"name":"","type":"bool","internalType":"bool"}],"stateMutability":"nonpayable"},{"type":"function","name":"balanceOf","inputs":[{"name":"account","type":"address","internalType":"address"}],"outputs":[{"name":"","type":"uint256","internalType":"uint256"}],"stateMutability":"view"},{"type":"function","name":"checkpoints","inputs":[{"name":"account","type":"address","internalType":"address"},{"name":"pos","type":"uint32","internalType":"uint32"}],"outputs":[{"name":"","type":"tuple","internalType":"struct ERC20Votes.Checkpoint","components":[{"name":"fromBlock","type":"uint32","internalType":"uint32"},{"name":"votes","type":"uint224","internalType":"uint224"}]}],"stateMutability":"view"},{"type":"function","name":"claim","inputs":[{"name":"beneficiary","type":"address","internalType":"address"}],"outputs":[],"stateMutability":"nonpayable"},{"type":"function","name":"claimed","inputs":[],"outputs":[{"name":"","type":"uint256","internalType":"uint256"}],"stateMutability":"view"},{"type":"function","name":"clock","inputs":[],"outputs":[{"name":"","type":"uint48","internalType":"uint48"}],"stateMutability":"view"},{"type":"function","name":"decimals","inputs":[],"outputs":[{"name":"","type":"uint8","internalType":"uint8"}],"stateMutability":"view"},{"type":"function","name":"decreaseAllowance","inputs":[{"name":"spender","type":"address","internalType":"address"},{"name":"subtractedValue","type":"uint256","internalType":"uint256"}],"outputs":[{"name":"","type":"bool","internalType":"bool"}],"stateMutability":"nonpayable"},{"type":"function","name":"delegate","inputs":[{"name":"delegatee","type":"address","internalType":"address"}],"outputs":[],"stateMutability":"nonpayable"},{"type":"function","name":"delegateBySig","inputs":[{"name":"delegatee","type":"address","internalType":"address"},{"name":"nonce","type":"uint256","internalType":"uint256"},{"name":"expiry","type":"uint256","internalType":"uint256"},{"name":"v","type":"uint8","internalType":"uint8"},{"name":"r","type":"bytes32","internalType":"bytes32"},{"name":"s","type":"bytes32","internalType":"bytes32"}],"outputs":[],"stateMutability":"nonpayable"},{"type":"function","name":"delegates","inputs":[{"name":"account","type":"address","internalType":"address"}],"outputs":[{"name":"","type":"address","internalType":"address"}],"stateMutability":"view"},{"type":"function","name":"distancePerSecond","inputs":[],"outputs":[{"name":"","type":"uint160","internalType":"uint160"}],"stateMutability":"view"},{"type":"function","name":"eip712Domain","inputs":[],"outputs":[{"name":"fields","type":"bytes1","internalType":"bytes1"},{"name":"name","type":"string","internalType":"string"},{"name":"version","type":"string","internalType":"string"},{"name":"chainId","type":"uint256","internalType":"uint256"},{"name":"verifyingContract","type":"address","internalType":"address"},{"name":"salt","type":"bytes32","internalType":"bytes32"},{"name":"extensions","type":"uint256[]","internalType":"uint256[]"}],"stateMutability":"view"},{"type":"function","name":"getClaimableAmount","inputs":[{"name":"beneficiary","type":"address","internalType":"address"},{"name":"data","type":"bytes","internalType":"bytes"}],"outputs":[{"name":"","type":"uint256","internalType":"uint256"}],"stateMutability":"view"},{"type":"function","name":"getDistributionRecord","inputs":[{"name":"beneficiary","type":"address","internalType":"address"}],"outputs":[{"name":"","type":"tuple","internalType":"struct DistributionRecord","components":[{"name":"initialized","type":"bool","internalType":"bool"},{"name":"total","type":"uint120","internalType":"uint120"},{"name":"claimed","type":"uint120","internalType":"uint120"}]}],"stateMutability":"view"},{"type":"function","name":"getEnd","inputs":[],"outputs":[{"name":"","type":"uint256","internalType":"uint256"}],"stateMutability":"view"},{"type":"function","name":"getFairDelayTime","inputs":[{"name":"user","type":"address","internalType":"address"}],"outputs":[{"name":"","type":"uint256","internalType":"uint256"}],"stateMutability":"view"},{"type":"function","name":"getFractionDenominator","inputs":[],"outputs":[{"name":"","type":"uint256","internalType":"uint256"}],"stateMutability":"view"},{"type":"function","name":"getOracle","inputs":[],"outputs":[{"name":"","type":"address","internalType":"contract IOracleOrL2OracleWithSequencerCheck"}],"stateMutability":"view"},{"type":"function","name":"getPastTotalSupply","inputs":[{"name":"timepoint","type":"uint256","internalType":"uint256"}],"outputs":[{"name":"","type":"uint256","internalType":"uint256"}],"stateMutability":"view"},{"type":"function","name":"getPastVotes","inputs":[{"name":"account","type":"address","internalType":"address"},{"name":"timepoint","type":"uint256","internalType":"uint256"}],"outputs":[{"name":"","type":"uint256","internalType":"uint256"}],"stateMutability":"view"},{"type":"function","name":"getPriceTier","inputs":[{"name":"i","type":"uint256","internalType":"uint256"}],"outputs":[{"name":"","type":"tuple","internalType":"struct PriceTier","components":[{"name":"price","type":"uint128","internalType":"uint128"},{"name":"vestedFraction","type":"uint128","internalType":"uint128"}]}],"stateMutability":"view"},{"type":"function","name":"getPriceTiers","inputs":[],"outputs":[{"name":"","type":"tuple[]","internalType":"struct PriceTier[]","components":[{"name":"price","type":"uint128","internalType":"uint128"},{"name":"vestedFraction","type":"uint128","internalType":"uint128"}]}],"stateMutability":"view"},{"type":"function","name":"getPurchasedAmount","inputs":[{"name":"buyer","type":"address","internalType":"address"}],"outputs":[{"name":"","type":"uint256","internalType":"uint256"}],"stateMutability":"view"},{"type":"function","name":"getStart","inputs":[],"outputs":[{"name":"","type":"uint256","internalType":"uint256"}],"stateMutability":"view"},{"type":"function","name":"getSweepRecipient","inputs":[],"outputs":[{"name":"","type":"address","internalType":"address payable"}],"stateMutability":"view"},{"type":"function","name":"getTotalVotes","inputs":[],"outputs":[{"name":"","type":"uint256","internalType":"uint256"}],"stateMutability":"view"},{"type":"function","name":"getVestedFraction","inputs":[{"name":"beneficiary","type":"address","internalType":"address"},{"name":"time","type":"uint256","internalType":"uint256"},{"name":"","type":"bytes","internalType":"bytes"}],"outputs":[{"name":"","type":"uint256","internalType":"uint256"}],"stateMutability":"view"},{"type":"function","name":"getVoteFactor","inputs":[{"name":"","type":"address","internalType":"address"}],"outputs":[{"name":"","type":"uint256","internalType":"uint256"}],"stateMutability":"view"},{"type":"function","name":"getVotes","inputs":[{"name":"account","type":"address","internalType":"address"}],"outputs":[{"name":"","type":"uint256","internalType":"uint256"}],"stateMutability":"view"},{"type":"function","name":"increaseAllowance","inputs":[{"name":"spender","type":"address","internalType":"address"},{"name":"addedValue","type":"uint256","internalType":"uint256"}],"outputs":[{"name":"","type":"bool","internalType":"bool"}],"stateMutability":"nonpayable"},{"type":"function","name":"initializeDistributionRecord","inputs":[{"name":"beneficiary","type":"address","internalType":"address"}],"outputs":[],"stateMutability":"nonpayable"},{"type":"function","name":"maxDelayTime","inputs":[],"outputs":[{"name":"","type":"uint160","internalType":"uint160"}],"stateMutability":"view"},{"type":"function","name":"name","inputs":[],"outputs":[{"name":"","type":"string","internalType":"string"}],"stateMutability":"view"},{"type":"function","name":"nonces","inputs":[{"name":"owner","type":"address","internalType":"address"}],"outputs":[{"name":"","type":"uint256","internalType":"uint256"}],"stateMutability":"view"},{"type":"function","name":"numCheckpoints","inputs":[{"name":"account","type":"address","internalType":"address"}],"outputs":[{"name":"","type":"uint32","internalType":"uint32"}],"stateMutability":"view"},{"type":"function","name":"owner","inputs":[],"outputs":[{"name":"","type":"address","internalType":"address"}],"stateMutability":"view"},{"type":"function","name":"permit","inputs":[{"name":"owner","type":"address","internalType":"address"},{"name":"spender","type":"address","internalType":"address"},{"name":"value","type":"uint256","internalType":"uint256"},{"name":"deadline","type":"uint256","internalType":"uint256"},{"name":"v","type":"uint8","internalType":"uint8"},{"name":"r","type":"bytes32","internalType":"bytes32"},{"name":"s","type":"bytes32","internalType":"bytes32"}],"outputs":[],"stateMutability":"nonpayable"},{"type":"function","name":"price","inputs":[],"outputs":[{"name":"","type":"uint256","internalType":"uint256"}],"stateMutability":"view"},{"type":"function","name":"randomValue","inputs":[],"outputs":[{"name":"","type":"uint160","internalType":"uint160"}],"stateMutability":"view"},{"type":"function","name":"renounceOwnership","inputs":[],"outputs":[],"stateMutability":"nonpayable"},{"type":"function","name":"sale","inputs":[],"outputs":[{"name":"","type":"address","internalType":"contract FlatPriceSale"}],"stateMutability":"view"},{"type":"function","name":"setPriceTiers","inputs":[{"name":"_start","type":"uint256","internalType":"uint256"},{"name":"_end","type":"uint256","internalType":"uint256"},{"name":"_oracle","type":"address","internalType":"contract IOracleOrL2OracleWithSequencerCheck"},{"name":"_tiers","type":"tuple[]","internalType":"struct PriceTier[]","components":[{"name":"price","type":"uint128","internalType":"uint128"},{"name":"vestedFraction","type":"uint128","internalType":"uint128"}]}],"outputs":[],"stateMutability":"nonpayable"},{"type":"function","name":"setSweepRecipient","inputs":[{"name":"_recipient","type":"address","internalType":"address payable"}],"outputs":[],"stateMutability":"nonpayable"},{"type":"function","name":"setToken","inputs":[{"name":"_token","type":"address","internalType":"contract IERC20"}],"outputs":[],"stateMutability":"nonpayable"},{"type":"function","name":"setTotal","inputs":[{"name":"_total","type":"uint256","internalType":"uint256"}],"outputs":[],"stateMutability":"nonpayable"},{"type":"function","name":"setUri","inputs":[{"name":"_uri","type":"string","internalType":"string"}],"outputs":[],"stateMutability":"nonpayable"},{"type":"function","name":"setVoteFactor","inputs":[{"name":"_voteFactor","type":"uint256","internalType":"uint256"}],"outputs":[],"stateMutability":"nonpayable"},{"type":"function","name":"soldTokenDecimals","inputs":[],"outputs":[{"name":"","type":"uint8","internalType":"uint8"}],"stateMutability":"view"},{"type":"function","name":"sweepNative","inputs":[{"name":"amount","type":"uint256","internalType":"uint256"}],"outputs":[],"stateMutability":"nonpayable"},{"type":"function","name":"sweepNative","inputs":[],"outputs":[],"stateMutability":"nonpayable"},{"type":"function","name":"sweepToken","inputs":[{"name":"token","type":"address","internalType":"contract IERC20"}],"outputs":[],"stateMutability":"nonpayable"},{"type":"function","name":"sweepToken","inputs":[{"name":"token","type":"address","internalType":"contract IERC20"},{"name":"amount","type":"uint256","internalType":"uint256"}],"outputs":[],"stateMutability":"nonpayable"},{"type":"function","name":"symbol","inputs":[],"outputs":[{"name":"","type":"string","internalType":"string"}],"stateMutability":"view"},{"type":"function","name":"token","inputs":[],"outputs":[{"name":"","type":"address","internalType":"contract IERC20"}],"stateMutability":"view"},{"type":"function","name":"total","inputs":[],"outputs":[{"name":"","type":"uint256","internalType":"uint256"}],"stateMutability":"view"},{"type":"function","name":"totalSupply","inputs":[],"outputs":[{"name":"","type":"uint256","internalType":"uint256"}],"stateMutability":"view"},{"type":"function","name":"transfer","inputs":[{"name":"to","type":"address","internalType":"address"},{"name":"amount","type":"uint256","internalType":"uint256"}],"outputs":[{"name":"","type":"bool","internalType":"bool"}],"stateMutability":"nonpayable"},{"type":"function","name":"transferFrom","inputs":[{"name":"from","type":"address","internalType":"address"},{"name":"to","type":"address","internalType":"address"},{"name":"amount","type":"uint256","internalType":"uint256"}],"outputs":[{"name":"","type":"bool","internalType":"bool"}],"stateMutability":"nonpayable"},{"type":"function","name":"transferOwnership","inputs":[{"name":"newOwner","type":"address","internalType":"address"}],"outputs":[],"stateMutability":"nonpayable"},{"type":"function","name":"uri","inputs":[],"outputs":[{"name":"","type":"string","internalType":"string"}],"stateMutability":"view"},{"type":"event","name":"Adjust","inputs":[{"name":"beneficiary","type":"address","indexed":true,"internalType":"address"},{"name":"amount","type":"int256","indexed":false,"internalType":"int256"}],"anonymous":false},{"type":"event","name":"Approval","inputs":[{"name":"owner","type":"address","indexed":true,"internalType":"address"},{"name":"spender","type":"address","indexed":true,"internalType":"address"},{"name":"value","type":"uint256","indexed":false,"internalType":"uint256"}],"anonymous":false},{"type":"event","name":"Claim","inputs":[{"name":"beneficiary","type":"address","indexed":true,"internalType":"address"},{"name":"amount","type":"uint256","indexed":false,"internalType":"uint256"}],"anonymous":false},{"type":"event","name":"DelegateChanged","inputs":[{"name":"delegator","type":"address","indexed":true,"internalType":"address"},{"name":"fromDelegate","type":"address","indexed":true,"internalType":"address"},{"name":"toDelegate","type":"address","indexed":true,"internalType":"address"}],"anonymous":false},{"type":"event","name":"DelegateVotesChanged","inputs":[{"name":"delegate","type":"address","indexed":true,"internalType":"address"},{"name":"previousBalance","type":"uint256","indexed":false,"internalType":"uint256"},{"name":"newBalance","type":"uint256","indexed":false,"internalType":"uint256"}],"anonymous":false},{"type":"event","name":"EIP712DomainChanged","inputs":[],"anonymous":false},{"type":"event","name":"InitializeDistributionRecord","inputs":[{"name":"beneficiary","type":"address","indexed":true,"internalType":"address"},{"name":"total","type":"uint256","indexed":false,"internalType":"uint256"}],"anonymous":false},{"type":"event","name":"InitializeDistributor","inputs":[{"name":"token","type":"address","indexed":true,"internalType":"contract IERC20"},{"name":"total","type":"uint256","indexed":false,"internalType":"uint256"},{"name":"uri","type":"string","indexed":false,"internalType":"string"},{"name":"fractionDenominator","type":"uint256","indexed":false,"internalType":"uint256"}],"anonymous":false},{"type":"event","name":"OwnershipTransferred","inputs":[{"name":"previousOwner","type":"address","indexed":true,"internalType":"address"},{"name":"newOwner","type":"address","indexed":true,"internalType":"address"}],"anonymous":false},{"type":"event","name":"SetDelay","inputs":[{"name":"maxDelayTime","type":"uint160","indexed":false,"internalType":"uint160"}],"anonymous":false},{"type":"event","name":"SetPriceTierConfig","inputs":[{"name":"start","type":"uint256","indexed":false,"internalType":"uint256"},{"name":"end","type":"uint256","indexed":false,"internalType":"uint256"},{"name":"oracle","type":"address","indexed":false,"internalType":"contract IOracleOrL2OracleWithSequencerCheck"},{"name":"tiers","type":"tuple[]","indexed":false,"internalType":"struct PriceTier[]","components":[{"name":"price","type":"uint128","internalType":"uint128"},{"name":"vestedFraction","type":"uint128","internalType":"uint128"}]}],"anonymous":false},{"type":"event","name":"SetSweepRecipient","inputs":[{"name":"recipient","type":"address","indexed":false,"internalType":"address"}],"anonymous":false},{"type":"event","name":"SetToken","inputs":[{"name":"token","type":"address","indexed":true,"internalType":"contract IERC20"}],"anonymous":false},{"type":"event","name":"SetTotal","inputs":[{"name":"total","type":"uint256","indexed":false,"internalType":"uint256"}],"anonymous":false},{"type":"event","name":"SetUri","inputs":[{"name":"uri","type":"string","indexed":true,"internalType":"string"}],"anonymous":false},{"type":"event","name":"SetVoteFactor","inputs":[{"name":"voteFactor","type":"uint256","indexed":false,"internalType":"uint256"}],"anonymous":false},{"type":"event","name":"SweepNative","inputs":[{"name":"amount","type":"uint256","indexed":false,"internalType":"uint256"}],"anonymous":false},{"type":"event","name":"SweepToken","inputs":[{"name":"token","type":"address","indexed":true,"internalType":"address"},{"name":"amount","type":"uint256","indexed":false,"internalType":"uint256"}],"anonymous":false},{"type":"event","name":"Transfer","inputs":[{"name":"from","type":"address","indexed":true,"internalType":"address"},{"name":"to","type":"address","indexed":true,"internalType":"address"},{"name":"value","type":"uint256","indexed":false,"internalType":"uint256"}],"anonymous":false},{"type":"error","name":"InvalidShortString","inputs":[]},{"type":"error","name":"StringTooLong","inputs":[{"name":"str","type":"string","internalType":"string"}]}],"bytecode":{"object":"0x6101e06040523462000f9b5762006025803803809162000022826101e062001030565b6101e039610140811262000f9b576101e0516001600160a01b038116810362000f9b5761020051906001600160a01b038216820362000f9b576102205160ff8116810362000f9b576102405161026051610280516102a05196919490939092916001600160a01b038816880362000f9b576102c051966001600160401b03881162000f9b576101e082016101ff8901121562000f9b576101e0880151976001600160401b038911620006bd5760405198620000e460208260051b018b62001030565b808a5260208a01916101e08501610200600684901b8301011162000f9b57610200810192905b610200600684901b820101841062000fa05750506102e051610300519094925090506001600160401b03811162000f9b576200014f916101e001906101e0016200108e565b6040516316ede89d60e11b81529091906020816004816001600160a01b038b165afa908115620009d65760009162000f63575b50604d60ff86161162000f4d5760ff8516600a0a90808281020482148115171562000f4d57861562000f3757620001b8620010e9565b620001c2620010e9565b90604051620001d18162001014565b600381526212559560ea1b602082015260405192620001f08462001014565b60018452603160f81b60208086019190915260008054336001600160a01b03198216811783556040517fccdd1baf560d2682736fa25752c8ccc0c5fc4079b245b0acf7389776308d5b1f949390926001600160a01b0316907f8be0079c531659141344cd1fd0a4f28419497f9722a3daafe3b4186f6b6457e09080a3600180546001600160a01b031916339081179091558152a18051906001600160401b038211620006bd578190620002a560055462001124565b601f811162000ee1575b50602090601f831160011462000e525760009262000e46575b50508160011b916000199060031b1c1916176005555b8051906001600160401b038211620006bd578190620002ff60065462001124565b601f811162000de5575b50602090601f831160011462000d675760009262000d5b575b50508160011b916000199060031b1c1916176006555b6200034381620011cf565b6101205262000352826200135c565b6101405260208151910120908160e0526020815191012080610100524660a052604051917f8b73c3c69bb8fe3d512ecc4cf759cc79239f7b179b0ffacaa9a75d522b39400f6020840152604083015260608201524660808201523060a082015260a081528060c081011060018060401b0360c083011117620006bd5760c0818101604052815160208301206080523090526001600e556001600160a01b0384161562000d13575086828202041562000cce57601080546001600160a01b0319166001600160a01b0390941693909317909255028490046011558051906001600160401b038211620006bd5781906200044c60135462001124565b601f811162000c6d575b50602090601f831160011462000bef5760009262000be3575b50508160011b916000199060031b1c1916176013555b6127106101605260018060a01b0360105416601154604051908152606060208201526000601354620004b78162001124565b9081606085015260018116908160001462000bb1575060011462000b5a575b509160008051602062005fa5833981519152828060209561271060407f6c339c0bee516a4df5d7074ba7a974856d609f83666e915aa4a0f90e06989dc5999701520390a2601580546001600160a01b0319908116909155601480549091169055604051600081527fdccb8d94a5bbd764ed844afa20f2581be18d3fa84b36855e86a8f0c9316cba7d908390a16200056c62001176565b80601755604051908152a185511562000b155760185460006018558062000adf575b506000949385865b88518810156200075d576001600160801b03620005b4898b62001161565b5151166001600160801b03909116101562000718576001600160801b036020620005df898b62001161565b510151166001600160801b039091161015620006d3576001600160801b0362000609878962001161565b515116946001600160801b03602062000623898b62001161565b510151169662000634818a62001161565b51906018549168010000000000000000831015620006bd576001830180601855831015620006a757601860005280516020919091015160801b6001600160801b0319166001600160801b03919091161760008051602062005fe58339815191529092019190915560010196909562000596565b634e487b7160e01b600052603260045260246000fd5b634e487b7160e01b600052604160045260246000fd5b60405162461bcd60e51b815260206004820152601960248201527f766573746564206672616374696f6e20646563726561736573000000000000006044820152606490fd5b60405162461bcd60e51b815260206004820152601460248201527f74696572207072696365732064656372656173650000000000000000000000006044820152606490fd5b506101605186918a916001600160801b039091160362000a8a576001600160a01b0381161562000a45576019829055601a839055601b80546001600160a01b0319166001600160a01b039290921691821790556040805192835260208301939093529181019190915260806060820181905260188054918301829052600090815260a083019160008051602062005fe5833981519152915b81811062000a1c5750505090807f2f6dbabeba7ecc026ee3c602392401c87a93e56b4a31a698dbd337044a53b2dd920390a16001600160a01b03831615620009e2576040516379502c5560e01b81526000816004816001600160a01b0388165afa908115620009d6576000916200096c575b5042111562000933576101809283526101c09081526101a091825260405191614b0c938462001499853960805184614528015260a051846145e3015260c051846144f2015260e051846145770152610100518461459d01526101205184611617015261014051846116410152610160518481816105c40152818161285e01528181612b9a0152818161301d015261330f0152518381816109ec0152818161101c0152818161129201526126ca015251828181611ad001526127380152518181816124de01526127000152f35b60405162461bcd60e51b81526020600482015260116024820152701cd85b19481b9bdd081bdd995c881e595d607a1b6044820152606490fd5b903d8082843e6200097e818462001030565b82019061012083830312620009d35782516001600160a01b03811603620009d35760c0830151610100840151909390916001600160401b038311620009d35750620009cb9291016200108e565b508462000867565b80fd5b6040513d6000823e3d90fd5b60405162461bcd60e51b815260206004820152601260248201527173616c65206973206164647265737328302960701b6044820152606490fd5b82546001600160801b038116855260801c602085015260409093019260019283019201620007f5565b60405162461bcd60e51b815260206004820152601460248201527f6f7261636c65203d3d20616464726573732830290000000000000000000000006044820152606490fd5b60405162461bcd60e51b815260206004820152602760248201527f686967686573742070726963652074696572206d757374207665737420616c6c60448201526620746f6b656e7360c81b6064820152608490fd5b601860005260008051602062005fe5833981519152908101905b81811062000b0857506200058e565b6000815560010162000af9565b60405162461bcd60e51b815260206004820152601760248201527f312b2070726963652074696572732072657175697265640000000000000000006044820152606490fd5b60136000908152915060008051602062005fc58339815191525b81831062000b99575050810160800160008051602062005fa5833981519152620004d6565b80546080848601015260209092019160010162000b74565b60ff191660808086019190915291151560051b8401909101915060008051602062005fa58339815191529050620004d6565b0151905038806200046f565b60136000908152935060008051602062005fc583398151915291905b601f198416851062000c51576001945083601f1981161062000c37575b505050811b0160135562000485565b015160001960f88460031b161c1916905538808062000c28565b8181015183556020948501946001909301929091019062000c0b565b601360005290915060008051602062005fc5833981519152601f840160051c81016020851062000cc6575b90849392915b601f830160051c8201811062000cb657505062000456565b6000815585945060010162000c9e565b508062000c98565b60405162461bcd60e51b815260206004820152601760248201527f4469737472696275746f723a20746f74616c20697320300000000000000000006044820152606490fd5b60c060649162461bcd60e51b82820152602060c4820152602060e48201527f4469737472696275746f723a20746f6b656e206973206164647265737328302961010482015201fd5b01519050388062000322565b6006600090815293506000805160206200600583398151915291905b601f198416851062000dc9576001945083601f1981161062000daf575b505050811b0160065562000338565b015160001960f88460031b161c1916905538808062000da0565b8181015183556020948501946001909301929091019062000d83565b600660005290915060008051602062006005833981519152601f840160051c81016020851062000e3e575b90849392915b601f830160051c8201811062000e2e57505062000309565b6000815585945060010162000e16565b508062000e10565b015190503880620002c8565b6005600090815293507f036b6384b5eca791c62761152d0c79bb0604c104a5fb6f4eb0703f3154bb3db091905b601f198416851062000ec5576001945083601f1981161062000eab575b505050811b01600555620002de565b015160001960f88460031b161c1916905538808062000e9c565b8181015183556020948501946001909301929091019062000e7f565b90915060056000526020600020601f840160051c81016020851062000f2f575b90849392915b601f830160051c8201811062000f1f575050620002af565b6000815585945060010162000f07565b508062000f01565b634e487b7160e01b600052601260045260246000fd5b634e487b7160e01b600052601160045260246000fd5b906020823d60201162000f92575b8162000f806020938362001030565b81010312620009d35750513862000182565b3d915062000f71565b600080fd5b604084876101e001031262000f9b57604080519081016001600160401b0381118282101762000fff576020936040928592845262000fde8862001054565b815262000fed83890162001054565b8382015281520194019391506200010a565b60246000634e487b7160e01b81526041600452fd5b604081019081106001600160401b03821117620006bd57604052565b601f909101601f19168101906001600160401b03821190821017620006bd57604052565b51906001600160801b038216820362000f9b57565b60005b8381106200107d5750506000910152565b81810151838201526020016200106c565b81601f8201121562000f9b5780516001600160401b038111620006bd5760405192620010c5601f8301601f19166020018562001030565b8184526020828401011162000f9b57620010e6916020808501910162001069565b90565b60405190620010f88262001014565b601582527f496e7465726e616c20766f746520747261636b657200000000000000000000006020830152565b90600182811c9216801562001156575b60208310146200114057565b634e487b7160e01b600052602260045260246000fd5b91607f169162001134565b8051821015620006a75760209160051b010190565b6014546001600160a01b031615620011cd5760405162461bcd60e51b815260206004820152601860248201527f492064656d616e64206d6f72652072616e646f6d6e65737300000000000000006044820152606490fd5b565b8051602090818110156200124d5750601f8251116200120b5780825192015190808310620011fc57501790565b82600019910360031b1b161790565b6044906200123f9260405193849263305a27a960e01b84528060048501528251928391826024870152868601910162001069565b601f01601f19168101030190fd5b919291906001600160401b038211620006bd576200126d60075462001124565b601f811162001324575b5080601f8311600114620012b85750819293600092620012ac575b50508160011b916000199060031b1c19161760075560ff90565b01519050388062001292565b90601f19831694600760005282600020926000905b8782106200130b575050836001959610620012f1575b505050811b0160075560ff90565b015160001960f88460031b161c19169055388080620012e3565b80600185968294968601518155019501930190620012cd565b600060078152601f838220920160051c820191601f850160051c015b8281106200135057505062001277565b81815560010162001340565b805160209081811015620013895750601f8251116200120b5780825192015190808310620011fc57501790565b919291906001600160401b038211620006bd57620013a960085462001124565b601f811162001460575b5080601f8311600114620013f45750819293600092620013e8575b50508160011b916000199060031b1c19161760085560ff90565b015190503880620013ce565b90601f19831694600860005282600020926000905b878210620014475750508360019596106200142d575b505050811b0160085560ff90565b015160001960f88460031b161c191690553880806200141f565b8060018596829496860151815501950193019062001409565b600060088152601f838220920160051c820191601f850160051c015b8281106200148c575050620013b3565b8181556001016200147c56fe6080604052600436101561001257600080fd5b60003560e01c806306fdde031461043d578063095ea7b31461036b5780630f56b96c1461043857806313c67ce514610433578063144fa6d71461042e57806318160ddd146103935780631afbf193146104295780631be19560146104245780631e83409a1461041f5780631f8d1d501461041a57806323b872dd146104155780632428576214610410578063276801ec1461040b5780632ddbd13a14610406578063313ce567146104015780633644e515146103fc57806339509351146103f75780633a46b1a8146103f25780633cf3a025146103ed57806344b3c204146103e85780634bf5d7e9146103e3578063587cde1e146103de5780635b39e87d146103d95780635c19a95c146103d45780636ad1fe02146103cf5780636fcfff45146103ca57806370a08231146103c5578063715018a6146103c057806375aa9bc6146103bb5780637ecebe00146103b6578063833b1fce146103b157806384b0196e146103ac5780638da5cb5b146103a75780638e539e8c146103a257806391ddadf41461039d57806395d89b41146103985780639a0e7d66146103935780639ab24eb01461038e5780639b642de1146103895780639f05a36d14610384578063a035b1fe1461037f578063a3f4df7e1461037a578063a457c2d714610375578063a4ef1f7814610370578063a9059cbb1461036b578063ab803a7614610366578063bb22dccb14610361578063c3cda5201461035c578063c5292c6714610357578063c6e8d98214610352578063c78d59851461034d578063c955725514610348578063d3d0ec8914610343578063d505accf1461033e578063dd62ed3e14610339578063de032f5814610334578063e834a8341461032f578063e85858d91461032a578063e90a182f14610325578063e926839814610320578063eac989f81461031b578063f1127ed814610316578063f2d5c0ff14610311578063f2fde38b1461030c578063f56c854714610307578063fc0c546a146103025763ffa1ad74146102fd57600080fd5b61261b565b6125f2565b6125c9565b612502565b6124c4565b612444565b6123ad565b6122a8565b61220a565b612128565b61210a565b61209a565b612037565b611ef7565b611eaa565b611e5e565b611e35565b611e0c565b611dee565b611cbf565b611c76565b611c1b565b61058b565b611bf4565b611b51565b611af3565b611ab8565b611a9a565b61194a565b6118e7565b610833565b61183e565b611812565b61171e565b6116f5565b6115fc565b6115d3565b611596565b6113a4565b611349565b61130c565b6112c1565b61127c565b611256565b611174565b611135565b611083565b610fd4565b610f65565b610e0c565b610d76565b610d5b565b610d3f565b610d21565b610cf8565b610cd1565b610c2f565b610be3565b6109a9565b6108c1565b610851565b61078b565b61073a565b6105ac565b610496565b919082519283825260005b84811061046e575050826000602080949584010152601f8019910116010190565b60208183018101518483018201520161044d565b906020610493928181520190610442565b90565b346105755760008060031936011261057257604051816005546104b881612373565b90818452602092600191828116908160001461055057506001146104f7575b6104f3856104e78189038261068e565b60405191829182610482565b0390f35b929450600583527f036b6384b5eca791c62761152d0c79bb0604c104a5fb6f4eb0703f3154bb3db05b82841061053d57505050816104f3936104e79282010193386104d7565b8054858501870152928501928101610520565b60ff191686860152505050151560051b82010191506104e7816104f3386104d7565b80fd5b600080fd5b6001600160a01b0381160361057557565b34610575576040366003190112610575576105a760043561057a565b61375a565b346105755760003660031901126105755760206040517f00000000000000000000000000000000000000000000000000000000000000008152f35b634e487b7160e01b600052604160045260246000fd5b6060810190811067ffffffffffffffff82111761061957604052565b6105e7565b6040810190811067ffffffffffffffff82111761061957604052565b6020810190811067ffffffffffffffff82111761061957604052565b6080810190811067ffffffffffffffff82111761061957604052565b60c0810190811067ffffffffffffffff82111761061957604052565b90601f8019910116810190811067ffffffffffffffff82111761061957604052565b604051906106bd826105fd565b565b604051906106bd8261061e565b67ffffffffffffffff811161061957601f01601f191660200190565b9291926106f4826106cc565b91610702604051938461068e565b829481845281830111610575578281602093846000960137010152565b9080601f8301121561057557816020610493933591016106e8565b34610575576040366003190112610575576004356107578161057a565b60243567ffffffffffffffff81116105755760209161077d61078392369060040161071f565b50612810565b604051908152f35b34610575576020366003190112610575576004356107a88161057a565b6107b0613702565b6001600160a01b031680156107f857601080546001600160a01b031916821790557fefc1fd16ea80a922086ee4e995739d59b025c1bcea6d1f67855747480c83214b600080a2005b60405162461bcd60e51b8152602060048201526013602482015272746f6b656e206973206164647265737328302960681b6044820152606490fd5b34610575576000366003190112610575576020600454604051908152f35b346105755760203660031901126105755760043561086d612f01565b506018548110156108bc576108986040916018600052600080516020614ab783398151915201612f6d565b6108ba82518092602090816001600160801b0391828151168552015116910152565bf35b612f1a565b34610575576020366003190112610575576004356108de8161057a565b6108e6613702565b6040516370a0823160e01b81523060048201526001600160a01b0382169190602081602481865afa80156109a4577ff4a44a7f605c4971a27bcecb448108e6328b7fad34fab5bff4f69377294b826d9261096b92600092610970575b5060015461095b9183916001600160a01b03169061414d565b6040519081529081906020820190565b0390a2005b61095b9192506109969060203d811161099d575b61098e818361068e565b810190612637565b9190610942565b503d610984565b612646565b3461057557602080600319360112610575576004356109c78161057a565b60018060a01b03604051630998467560e31b81528381602481858716958660048301527f0000000000000000000000000000000000000000000000000000000000000000165afa80156109a457610a2891600091610bc6575b501515612780565b6002600e5414610b81576002600e55610a408261295b565b90610a496127c1565b506001600160781b0380921690600052600f8452808260406000205460081c1603610b71575b50610a7982612810565b16908115610b14576001600160a01b0381166000908152600f60205260409020610b089350610ae690610ac084610abb83546001600160781b039060801c1690565b612c89565b8154600160801b600160f81b03191660809190911b600160801b600160f81b0316179055565b610afa610af583601254612c7c565b601255565b610b0381612af0565b612ebb565b610b126001600e55565b005b60405162461bcd60e51b815260048101849052602f60248201527f4469737472696275746f723a206e6f206d6f726520746f6b656e7320636c616960448201526e6d61626c65207269676874206e6f7760881b6064820152608490fd5b610b7b9083612997565b38610a6f565b60405162461bcd60e51b815260048101849052601f60248201527f5265656e7472616e637947756172643a207265656e7472616e742063616c6c006044820152606490fd5b610bdd9150853d871161099d5761098e818361068e565b38610a20565b34610575576020366003190112610575577fac657d3615bd618ee537848e2b33acd2a9df67d4776485ab6922b0421d324d296020600435610c22613702565b80601155604051908152a1005b3461057557606036600319011261057557600435610c4c8161057a565b610c5760243561057a565b6001600160a01b03166000908152600360209081526040808320338452909152902054600181011561375a57604435111561375a5760405162461bcd60e51b815260206004820152601d60248201527f45524332303a20696e73756666696369656e7420616c6c6f77616e63650000006044820152606490fd5b34610575576020366003190112610575576020610783600435610cf38161057a565b6126a0565b34610575576000366003190112610575576016546040516001600160a01b039091168152602090f35b34610575576000366003190112610575576020601154604051908152f35b3461057557600036600319011261057557602060405160128152f35b346105755760003660031901126105755760206107836144ef565b3461057557604036600319011261057557610dbb600435610d968161057a565b33600052600360205260406000209060018060a01b0316600052602052604060002090565b54602435810110610e075760405162461bcd60e51b81526020600482015260196024820152783234b9b0b13632b2103337b9103b37ba34b733903837bbb2b960391b6044820152606490fd5b612652565b3461057557604036600319011261057557600435610e298161057a565b60243590610e4865ffffffffffff610e40436149b0565b168310613809565b6001600160a01b03166000908152600c6020526040812080549290918360058111610f14575b50905b838210610ebf57505081610e98575050602060005b6040516001600160e01b039091168152f35b610eb3610eba91602093600019019060005260206000200190565b5460201c90565b610e86565b9092610ecb81856147e6565b90818363ffffffff610ef1610ee7848960005260206000200190565b5463ffffffff1690565b161115610f02575050925b90610e71565b909450610f0f9150612c6e565b610efc565b80610f24610f2a929693966147fb565b90612ae3565b908263ffffffff610f45610ee7858860005260206000200190565b161115610f555750925b38610e6e565b9350610f6090612c6e565b610f4f565b3461057557602036600319011261057557600435610f81613702565b7f3b381fdfc0e2729a70e8b26ae2397e9014f703a8235b557f5581c4ed47280fd26020600092610fca848080808560018060a01b03600154165af1610fc4613693565b506136c3565b604051908152a180f35b34610575576020366003190112610575576024600435610ff38161057a565b604051630998467560e31b81526001600160a01b038281166004830152909260209184919082907f0000000000000000000000000000000000000000000000000000000000000000165afa9182156109a457610b129261105c9160009161106b57501515612780565b611065816126a0565b90612997565b610bdd915060203d811161099d5761098e818361068e565b34610575576000366003190112610575574365ffffffffffff6110a5436149b0565b16036110f0576104f36040516110ba8161061e565b601d81527f6d6f64653d626c6f636b6e756d6265722666726f6d3d64656661756c74000000602082015260405191829182610482565b60405162461bcd60e51b815260206004820152601d60248201527f4552433230566f7465733a2062726f6b656e20636c6f636b206d6f64650000006044820152606490fd5b346105755760203660031901126105755760206004356111548161057a565b60018060a01b03809116600052600b825260406000205416604051908152f35b346105755760008060031936011261057257601854906111938261227c565b916040916111a38351948561068e565b818452601881526020938481019282600080516020614ab7833981519152855b83831061122e5750505050835194859481860192828752518093528086019493905b8382106111f25786860387f35b91849650828661121e6001949698849851602090816001600160801b0391828151168552015116910152565b01960192018695949293916111e5565b6001898192611242859c99989a9b9c612f6d565b8152019201920191909796959394976111c3565b3461057557602036600319011261057557610b126004356112768161057a565b33613bcf565b34610575576000366003190112610575576040517f00000000000000000000000000000000000000000000000000000000000000006001600160a01b03168152602090f35b34610575576020366003190112610575576004356112de8161057a565b60018060a01b0316600052600c60205260206112fe604060002054614a17565b63ffffffff60405191168152f35b34610575576020366003190112610575576004356113298161057a565b60018060a01b031660005260026020526020604060002054604051908152f35b346105755760008060031936011261057257611363613702565b80546001600160a01b03198116825581906001600160a01b03167f8be0079c531659141344cd1fd0a4f28419497f9722a3daafe3b4186f6b6457e08280a380f35b34610575576040366003190112610575576004356113c18161057a565b7fd81661cef4e40e0f1f97384c033d606e4d6b570554fc3524568d8f9fc84c838861096b602435926113f1613702565b6001600160a01b0381166000908152600f60205260409020611412906127d9565b61142461141f8251151590565b612bc6565b600085131561158857845b6001600160781b0391611443838310612c22565b600087121561153d5761151a926114a261149d846114fc946114988261149161148560206011549561147785881015612ca4565b01516001600160781b031690565b6001600160781b031690565b1015612d00565b612ae3565b601155565b6001600160a01b0385166000908152600f602052604090206114db909184166114d683546001600160781b039060081c1690565b612aca565b610100600160801b0382549160081b1690610100600160801b031916179055565b6010546001600160a01b03166000546001600160a01b03169061414d565b61152381612af0565b6040519384526001600160a01b0316929081906020820190565b506114db6115839261155461149d84601154612c7c565b6001600160a01b0385166000908152600f602052604090209216610abb83546001600160781b039060081c1690565b61151a565b61159185612c11565b61142f565b34610575576020366003190112610575576004356115b38161057a565b60018060a01b031660005260096020526020604060002054604051908152f35b3461057557600036600319011261057557601b546040516001600160a01b039091168152602090f35b3461057557600080600319360112610572576116999061163b7f000000000000000000000000000000000000000000000000000000000000000061462f565b906116657f0000000000000000000000000000000000000000000000000000000000000000614729565b90604051916116738361063a565b8183526116a7602091604051968796600f60f81b885260e08589015260e0880190610442565b908682036040880152610442565b904660608601523060808601528260a086015284820360c08601528080855193848152019401925b8281106116de57505050500390f35b8351855286955093810193928101926001016116cf565b34610575576000366003190112610575576000546040516001600160a01b039091168152602090f35b346105755760203660031901126105755760043561174d65ffffffffffff611745436149b0565b168210613809565b600d5490600082600581116117cf575b50905b82821061178c57828061177a575060405160008152602090f35b610eba610eb360209260001901614123565b909161179881846147e6565b90818363ffffffff6117ac610ee784614123565b1611156117bd575050915b90611760565b9093506117ca9150612c6e565b6117b7565b80610f246117df929593956147fb565b908263ffffffff6117f2610ee785614123565b1611156118025750915b3861175d565b925061180d90612c6e565b6117fc565b3461057557600036600319011261057557602061182e436149b0565b65ffffffffffff60405191168152f35b3461057557600080600319360112610572576040518160065461186081612373565b908184526020926001918281169081600014610550575060011461188e576104f3856104e78189038261068e565b929450600683527ff652222313e28459528d920b65115c16c04f3efc82aaedc97be59f3f377c0d3f5b8284106118d457505050816104f3936104e79282010193386104d7565b80548585018701529285019281016118b7565b34610575576020366003190112610575576004356119048161057a565b6001600160a01b03166000908152600c6020526040902080548061193057505060405160008152602090f35b602091611941916000190190612f55565b5054811c610e86565b34610575576020806003193601126105755767ffffffffffffffff60043581811161057557366023820112156105755761198e9036906024816004013591016106e8565b91611997613702565b8251918211610619576119b4826119af601354612373565b612d63565b80601f8311600114611a22575081906119e493600092611a17575b50508160011b916000199060031b1c19161790565b6013555b6119f0612dc2565b7fd70c1392a974224e639e7a9607dcb2c766826aecfe2dc356f442ce0488b01e1f600080a2005b0151905038806119cf565b90601f19831693611a436013600052600080516020614a9783398151915290565b926000905b868210611a825750508360019510611a69575b505050811b016013556119e8565b015160001960f88460031b161c19169055388080611a5b565b80600185968294968601518155019501930190611a48565b34610575576000366003190112610575576020601a54604051908152f35b346105755760003660031901126105755760206040517f00000000000000000000000000000000000000000000000000000000000000008152f35b34610575576000366003190112610575576104f3604051611b138161061e565b601881527f50726963655469657256657374696e6753616c655f325f3000000000000000006020820152604051918291602083526020830190610442565b3461057557604036600319011261057557600435611b6e8161057a565b336000526003602052611b9a6024359160406000209060018060a01b0316600052602052604060002090565b54101561375a5760405162461bcd60e51b815260206004820152602560248201527f45524332303a2064656372656173656420616c6c6f77616e63652062656c6f77604482015264207a65726f60d81b6064820152608490fd5b34610575576020366003190112610575576020610783600435611c168161057a565b613664565b346105755760008060031936011261057257611c35613702565b7f3b381fdfc0e2729a70e8b26ae2397e9014f703a8235b557f5581c4ed47280fd2602047610fca848080808560018060a01b03600154165af1610fc4613693565b3461057557602036600319011261057557611c9260043561057a565b6020601754604051908152f35b6064359060ff8216820361057557565b6084359060ff8216820361057557565b346105755760c036600319011261057557600435611cdc8161057a565b60443590602435611ceb611c9f565b92804211611da957611d7b611da491610b129560405190611d6382611d556020820195898b8860609194939260808201957fe48329057bfd03d55e49b547132e39cffd9c1820ad7b9d4c5307691425d15adf835260018060a01b0316602083015260408201520152565b03601f19810184528361068e565b611d7660a4359360843593519020614609565b614316565b6001600160a01b0381166000908152600960205260409020805460018101909155909214613855565b613bcf565b60405162461bcd60e51b815260206004820152601d60248201527f4552433230566f7465733a207369676e617475726520657870697265640000006044820152606490fd5b34610575576000366003190112610575576020601954604051908152f35b34610575576000366003190112610575576014546040516001600160a01b039091168152602090f35b34610575576000366003190112610575576001546040516001600160a01b039091168152602090f35b34610575576020366003190112610575577f6c339c0bee516a4df5d7074ba7a974856d609f83666e915aa4a0f90e06989dc56020600435611e9d613702565b80601755604051908152a1005b3461057557606036600319011261057557600435611ec78161057a565b60443567ffffffffffffffff811161057557602091611eed61078392369060040161071f565b5060243590612f92565b346105755760e036600319011261057557600435611f148161057a565b60243590611f218261057a565b60643591611f2d611caf565b90834211611ff2576105a793611fdf92611fcc611f658660018060a01b03166000526009602052604060002090815491600183019055565b611d556040519485926020840197604435908b8a91959493909260a09360c08401977f6e71edae12b1b97f4d1f60370fef10105fa2faae0126114a169c64845d6126c98552600180871b038092166020860152166040840152606083015260808201520152565b611d7660c4359360a43593519020614609565b6001600160a01b0390811691161461379b565b60405162461bcd60e51b815260206004820152601d60248201527f45524332305065726d69743a206578706972656420646561646c696e650000006044820152606490fd5b346105755760403660031901126105755760206120916004356120598161057a565b602435906120668261057a565b60018060a01b03166000526003835260406000209060018060a01b0316600052602052604060002090565b54604051908152f35b34610575576020366003190112610575577fccdd1baf560d2682736fa25752c8ccc0c5fc4079b245b0acf7389776308d5b1f60206004356120da8161057a565b6120e2613702565b600180546001600160a01b0319166001600160a01b03929092169182179055604051908152a1005b34610575576000366003190112610575576020601254604051908152f35b34610575576020366003190112610575576104f36004356121488161057a565b60406000818051612158816105fd565b828152826020820152015260018060a01b038216600052600f6020528060002091815192612185846105fd565b5460ff811615801585526001600160781b036020860192818160081c16845260801c16848601526121e7575b5050519182918291909160406060820193805115158352816020820151916001600160781b038093166020860152015116910152565b6121f6611485612203936126a0565b6001600160781b03169052565b38806121b1565b34610575576040366003190112610575576004356122278161057a565b7ff4a44a7f605c4971a27bcecb448108e6328b7fad34fab5bff4f69377294b826d602060243592612256613702565b6001546001600160a01b03919061227190869084168361414d565b6040519485521692a2005b67ffffffffffffffff81116106195760051b60200190565b35906001600160801b038216820361057557565b34610575576080366003190112610575576044356122c58161057a565b60643567ffffffffffffffff81116105755736602382011215610575578060040135916122f18361227c565b916040936123018551948561068e565b80845260209060248286019160061b8401019236841161057557602401905b83821061233757610b12868660243560043561321e565b868236031261057557828791825161234e8161061e565b61235785612294565b8152612364838601612294565b83820152815201910190612320565b90600182811c921680156123a3575b602083101461238d57565b634e487b7160e01b600052602260045260246000fd5b91607f1691612382565b346105755760008060031936011261057257604051816013546123cf81612373565b90818452602092600191828116908160001461055057506001146123fd576104f3856104e78189038261068e565b92945060138352600080516020614a978339815191525b82841061243157505050816104f3936104e79282010193386104d7565b8054858501870152928501928101612414565b34610575576040366003190112610575576004356124618161057a565b63ffffffff6024358181168103610575576124a06124a691604094612484612f01565b506001600160a01b03166000908152600c602052859020612f55565b506137e7565b8251815190921682526020908101516001600160e01b031690820152f35b3461057557600036600319011261057557602060405160ff7f0000000000000000000000000000000000000000000000000000000000000000168152f35b346105755760203660031901126105755760043561251f8161057a565b612527613702565b6001600160a01b03908116801561257557600080546001600160a01b03198116831782559092167f8be0079c531659141344cd1fd0a4f28419497f9722a3daafe3b4186f6b6457e08380a380f35b60405162461bcd60e51b815260206004820152602660248201527f4f776e61626c653a206e6577206f776e657220697320746865207a65726f206160448201526564647265737360d01b6064820152608490fd5b34610575576000366003190112610575576015546040516001600160a01b039091168152602090f35b34610575576000366003190112610575576010546040516001600160a01b039091168152602090f35b3461057557600036600319011261057557602060405160038152f35b90816020910312610575575190565b6040513d6000823e3d90fd5b634e487b7160e01b600052601160045260246000fd5b81810292918115918404141715610e0757565b634e487b7160e01b600052601260045260246000fd5b811561269b570490565b61267b565b604051630998467560e31b81526001600160a01b03918216600482015290602090829060249082907f0000000000000000000000000000000000000000000000000000000000000000165afa9081156109a457600091612762575b5060ff7f00000000000000000000000000000000000000000000000000000000000000001690604d8211610e075761273691600a0a90612668565b7f000000000000000000000000000000000000000000000000000000000000000090811561269b570490565b61277a915060203d811161099d5761098e818361068e565b386126fb565b1561278757565b60405162461bcd60e51b81526020600482015260126024820152711b9bc81c1d5c98da185cd95cc8199bdd5b9960721b6044820152606490fd5b6040516127cd8161063a565b60008152906000368137565b906040516127e6816105fd565b604081935460ff8116151583526001600160781b0390818160081c16602085015260801c16910152565b6001600160a01b0381166000908152600f602052604090205460ff1680612883575061285c81612856612845610493946126a0565b9161284e6127c1565b504290612f92565b90612668565b7f000000000000000000000000000000000000000000000000000000000000000090612691565b1561290b576001600160a01b0381166000908152600f602052604090206128a9906127d9565b906128f360406128e461285c6128d46128cc60208801516001600160781b031690565b954290612f92565b6001600160781b03809616612668565b9301516001600160781b031690565b16818110612902575050600090565b61049391612ae3565b60405162461bcd60e51b815260206004820152602260248201527f4469737472696275746f723a20636c61696d206e6f7420696e697469616c697a604482015261195960f21b6064820152608490fd5b6001600160a01b0381166000908152600f602052604090205460ff81166129865750610493906126a0565b6001600160781b03915060081c1690565b6001600160781b03808311612a70576106bd9216612a296129dd6129cd8460018060a01b0316600052600f602052604060002090565b5460801c6001600160781b031690565b612a0c6129e86106b0565b60018152916001600160781b03851660208401526001600160781b03166040830152565b6001600160a01b0384166000908152600f60205260409020612e4d565b6040516001600160781b039190911681526001600160a01b038216907fdb598eb8e0a3d3d5c2e02e4cab1ee8b65bb20e48fc7b42f4c76272de4cdd243490602090a2612af0565b60405162461bcd60e51b815260206004820152602c60248201527f4469737472696275746f723a20746f74616c416d6f756e74203e20747970652860448201526b0ead2dce8626460525cdac2f60a31b6064820152608490fd5b6001600160781b039182169082160391908211610e0757565b91908203918211610e0757565b6001600160a01b038116600090815260026020908152604080832054600f909252909120909190612b20906127d9565b6001600160781b03806020816040850151169301511680831015600014612b815750505060005b80831115612b6257612b5c906106bd93612ae3565b906139e8565b808310612b6e57505050565b6106bd92612b7b91612ae3565b90613906565b612b9892612b8e91612aca565b1660175490612668565b7f000000000000000000000000000000000000000000000000000000000000000090811561269b5704612b47565b15612bcd57565b606460405162461bcd60e51b815260206004820152602060248201527f6d75737420696e697469616c697a65206265666f72652061646a757374696e676044820152fd5b600160ff1b8114610e075760000390565b15612c2957565b60405162461bcd60e51b815260206004820152601860248201527f61646a7573746d656e74203e206d61782075696e7431323000000000000000006044820152606490fd5b9060018201809211610e0757565b91908201809211610e0757565b9190916001600160781b0380809416911601918211610e0757565b15612cab57565b60405162461bcd60e51b815260206004820152602760248201527f64656372656173652067726561746572207468616e206469737472696275746f6044820152661c881d1bdd185b60ca1b6064820152608490fd5b15612d0757565b60405162461bcd60e51b815260206004820152602e60248201527f64656372656173652067726561746572207468616e206469737472696275746960448201526d1bdb949958dbdc99081d1bdd185b60921b6064820152608490fd5b601f8111612d6f575050565b60009060138252600080516020614a97833981519152906020601f850160051c83019410612db8575b601f0160051c01915b828110612dad57505050565b818155600101612da1565b9092508290612d98565b604051806000601354612dd481612373565b90600190818116908115612e365750600114612df3575b505003902090565b60136000908152919250600080516020614a978339815191525b838310612e205750505081013880612deb565b8054868401528594506020909201918101612e0d565b60ff19168552505080151502820190503880612deb565b815181546020840151610100600160801b0360089190911b1691151560ff166fffffffffffffffffffffffffffffffff19909116171781556106bd916001600160781b0390604001518254600160801b600160f81b031916911660801b600160801b600160f81b0316179055565b60207f47cee97cb7acd717b3c0aa1435d004cd5b3c8c57d70dbceb4e4458bbd60e39d49160018060a01b0390612ef68582846010541661414d565b6040519485521692a2565b60405190612f0e8261061e565b60006020838281520152565b634e487b7160e01b600052603260045260246000fd5b6018548110156108bc576018600052600080516020614ab78339815191520190600090565b80548210156108bc5760005260206000200190600090565b90604051612f7a8161061e565b91546001600160801b038116835260801c6020830152565b90610f24612f9f92613664565b601954811061303f57601a54111561301b57612fb961314e565b601854805b612fc9575050600090565b60001901612ff6612fea612fdc83612f30565b50546001600160801b031690565b6001600160801b031690565b82116130025780612fbe565b6104939150613013612fea91612f30565b505460801c90565b7f000000000000000000000000000000000000000000000000000000000000000090565b50600090565b519069ffffffffffffffffffff8216820361057557565b1561306357565b60405162461bcd60e51b815260206004820152600e60248201526d6e6567617469766520707269636560901b6044820152606490fd5b156130a057565b60405162461bcd60e51b815260206004820152600b60248201526a0616e73776572203d3d20360ac1b6044820152606490fd5b156130da57565b60405162461bcd60e51b8152602060048201526012602482015271726f756e64206e6f7420636f6d706c65746560701b6044820152606490fd5b1561311b57565b60405162461bcd60e51b815260206004820152600b60248201526a7374616c6520707269636560a81b6044820152606490fd5b601b54604051633fabe5a360e21b81529060a090829060049082906001600160a01b03165afa80156109a457600080918180916131c4575b8394506131986000610493951361305c565b6131bc69ffffffffffffffffffff809316936131b5851515613099565b15156130d3565b161115613114565b9250505060a0823d8211613216575b816131e060a0938361068e565b8101031261057257506104936131f582613045565b602083015161320b608060608601519501613045565b909384935091613186565b3d91506131d3565b919093613229613702565b613235845115156133c0565b61323d61340c565b6000918295835b86518510156132ef5786976132b29161328761327361326589809b9c61344d565b51516001600160801b031690565b6001600160801b0380809416911611613461565b806132a88b61329960209b8c9261344d565b5101516001600160801b031690565b92169116116134a4565b60016132cf6132c4613265878b61344d565b96613299878b61344d565b946132e36132dd828b61344d565b516134f0565b01959496959396613244565b509195613376955061335493509361333661334f92956001600160801b037f0000000000000000000000000000000000000000000000000000000000000000911614613547565b61334a6001600160a01b03861615156135a3565b601955565b601a55565b60018060a01b03166bffffffffffffffffffffffff60a01b601b541617601b55565b601954601a54601b547f2f6dbabeba7ecc026ee3c602392401c87a93e56b4a31a698dbd337044a53b2dd92906133bb906001600160a01b0316604051938493846135e6565b0390a1565b156133c757565b60405162461bcd60e51b815260206004820152601760248201527f312b2070726963652074696572732072657175697265640000000000000000006044820152606490fd5b6018546000806018558161341e575050565b60188152600080516020614ab7833981519152918201915b82811061344257505050565b818155600101613436565b80518210156108bc5760209160051b010190565b1561346857565b60405162461bcd60e51b8152602060048201526014602482015273746965722070726963657320646563726561736560601b6044820152606490fd5b156134ab57565b60405162461bcd60e51b815260206004820152601960248201527f766573746564206672616374696f6e20646563726561736573000000000000006044820152606490fd5b60185490600160401b8210156106195760018201806018558210156108bc5760186000526001600160801b038151169060206001600160801b031991015160801b161790600080516020614ab78339815191520155565b1561354e57565b60405162461bcd60e51b815260206004820152602760248201527f686967686573742070726963652074696572206d757374207665737420616c6c60448201526620746f6b656e7360c81b6064820152608490fd5b156135aa57565b60405162461bcd60e51b81526020600482015260146024820152736f7261636c65203d3d206164647265737328302960601b6044820152606490fd5b60a060809182810193815260209485820152604095600180841b03168682015282606082015260185480945201936018600052600080516020614ab7833981519152936000925b84841061363d5750505050505090565b85546001600160801b0381168852811c87830152958201956001958601959093019261362d565b6014546001600160a01b039190821690811561368b57829081806016541691161816041690565b505050600090565b3d156136be573d906136a4826106cc565b916136b2604051938461068e565b82523d6000602084013e565b606090565b156136ca57565b60405162461bcd60e51b815260206004820152601060248201526f2a3930b739b332b9103330b4b632b21760811b6044820152606490fd5b6000546001600160a01b0316330361371657565b606460405162461bcd60e51b815260206004820152602060248201527f4f776e61626c653a2063616c6c6572206973206e6f7420746865206f776e65726044820152fd5b60405162461bcd60e51b81526020600482015260196024820152783234b9b0b13632b2103337b9103b37ba34b733903837bbb2b960391b6044820152606490fd5b156137a257565b60405162461bcd60e51b815260206004820152601e60248201527f45524332305065726d69743a20696e76616c6964207369676e617475726500006044820152606490fd5b906040516137f48161061e565b602081935463ffffffff81168352811c910152565b1561381057565b60405162461bcd60e51b815260206004820152601960248201527f4552433230566f7465733a20667574757265206c6f6f6b7570000000000000006044820152606490fd5b1561385c57565b60405162461bcd60e51b815260206004820152601960248201527f4552433230566f7465733a20696e76616c6964206e6f6e6365000000000000006044820152606490fd5b156138a857565b60405162461bcd60e51b815260206004820152603060248201527f4552433230566f7465733a20746f74616c20737570706c79207269736b73206f60448201526f766572666c6f77696e6720766f74657360801b6064820152608490fd5b906001600160a01b03821680156139a357600454828101809111610e075761399f93613984926139368593600455565b6001600160a01b0382166000908152600260209081526040808320805487019055518581527fddf252ad1be2c89b69c2b068fc378daa952ba7f163c4a11628f55a4df523b3ef9190a3613b36565b60045461399a906001600160e01b0310156138a1565b613f21565b5050565b60405162461bcd60e51b815260206004820152601f60248201527f45524332303a206d696e7420746f20746865207a65726f2061646472657373006044820152606490fd5b6001600160a01b03811691908215613a90578181600061399f9583613a22613a8b9660018060a01b03166000526002602052604060002090565b54613a2f82821015613adf565b03613a4c8460018060a01b03166000526002602052604060002090565b55613a5a8460045403600455565b6040518481527fddf252ad1be2c89b69c2b068fc378daa952ba7f163c4a11628f55a4df523b3ef90602090a3613b81565b614011565b60405162461bcd60e51b815260206004820152602160248201527f45524332303a206275726e2066726f6d20746865207a65726f206164647265736044820152607360f81b6064820152608490fd5b15613ae657565b60405162461bcd60e51b815260206004820152602260248201527f45524332303a206275726e20616d6f756e7420657863656564732062616c616e604482015261636560f01b6064820152608490fd5b600b6020527fdf7de25b7f1fd6d0b5205f0e18f1f35bd7b8d84cce336588d184533ce43a6f76546001600160a01b03918216600090815260409020546106bd93929081169116613c44565b6001600160a01b039081166000908152600b60205260408120549080527fdf7de25b7f1fd6d0b5205f0e18f1f35bd7b8d84cce336588d184533ce43a6f76546106bd93929081169116613c44565b6106bd9160018060a01b03809216600092818452600b60205280604085205416809260026020527f3134e8a2e6d97e929a7e54011ea5485d7d196dd5f0ba4d4ef95803e8e3fc257f604087205496600b6020526040812094871694856bffffffffffffffffffffffff60a01b82541617905580a45b6001600160a01b03808316939291168084141580613e57575b613c68575b50505050565b80613cd6575b5082613c7b575b80613c62565b6001600160a01b03166000908152600c602052604090207fdec2bacdd2f05b59de34da9b523dff8be42e5e38e818c82fdb0bae774387a72491613cbd9161406a565b60408051928352602083019190915290a2388080613c75565b80600052600c6020527fdec2bacdd2f05b59de34da9b523dff8be42e5e38e818c82fdb0bae774387a7246040600020805480159182600014613e3457613d1a6106bf565b6000815260006020820152915b6020830151613d46906001600160e01b03165b6001600160e01b031690565b92613d518985614a7c565b94159081613e11575b5015613daf57613d82613d9992613d7086614947565b92600019019060005260206000200190565b9063ffffffff82549181199060201b169116179055565b604080519182526020820192909252a238613c6e565b50613e0c90613dd3613dce613dc3436149b0565b65ffffffffffff1690565b614a17565b90613e07613de086614947565b613df7613deb6106bf565b63ffffffff9095168552565b6001600160e01b03166020840152565b613ec7565b613d99565b5163ffffffff16905063ffffffff613e2b613dc3436149b0565b91161438613d5a565b613e51613e4c60001984018360005260206000200190565b6137e7565b91613d27565b50821515613c5d565b600d5490600160401b821015610619576001820180600d558210156108bc57600d600052805160209182015190911b63ffffffff191663ffffffff91909116177fd7b6990105719101dabeb77144f2a3385c8033acd3af97e9423a695e81ad1eb590910155565b8054600160401b81101561061957613ee491600182018155612f55565b613f0b57815160209283015190921b63ffffffff191663ffffffff92909216919091179055565b634e487b7160e01b600052600060045260246000fd5b600d5490918115918215613ffc57613f376106bf565b60008152600060208201525b6020810151613f6590613f5e906001600160e01b0316613d3a565b9586614a89565b93159081613fd9575b5015613f8e576106bd90613d82613f8485614947565b9160001901614123565b506106bd613fa1613dce613dc3436149b0565b613fd4613fad85614947565b613fc4613fb86106bf565b63ffffffff9094168452565b6001600160e01b03166020830152565b613e60565b5163ffffffff16905063ffffffff613ff3613dc3436149b0565b91161438613f6e565b61400c613e4c6000198301614123565b613f43565b600d5490918115918215614055576140276106bf565b60008152600060208201525b6020810151613f659061404e906001600160e01b0316613d3a565b9586614a7c565b614065613e4c6000198301614123565b614033565b909181549182159283600014614106576140826106bf565b60008152600060208201525b60208101516140b0906140a9906001600160e01b0316613d3a565b9687614a89565b941590816140e3575b50156140cf57613d826106bd92613d7086614947565b506106bd90613dd3613dce613dc3436149b0565b5163ffffffff16905063ffffffff6140fd613dc3436149b0565b911614386140b9565b61411e613e4c60001983018460005260206000200190565b61408e565b600d6000527fd7b6990105719101dabeb77144f2a3385c8033acd3af97e9423a695e81ad1eb50190565b60405163a9059cbb60e01b602082019081526001600160a01b0393841660248301526044808301959095529381526141dc92909161418a83610656565b16604051916141988361061e565b602083527f5361666545524332303a206c6f772d6c6576656c2063616c6c206661696c65646020840152600080958192519082855af16141d6613693565b91614281565b80519081159182156141f5575b50506106bd9150614222565b819250906020918101031261421e576020015190811515820361057257506106bd9038806141e9565b5080fd5b1561422957565b60405162461bcd60e51b815260206004820152602a60248201527f5361666545524332303a204552433230206f7065726174696f6e20646964206e6044820152691bdd081cdd58d8d9595960b21b6064820152608490fd5b919290156142e35750815115614295575090565b3b1561429e5790565b60405162461bcd60e51b815260206004820152601d60248201527f416464726573733a2063616c6c20746f206e6f6e2d636f6e74726163740000006044820152606490fd5b8251909150156142f65750805190602001fd5b60405162461bcd60e51b81529081906143129060048301610482565b0390fd5b9161049393916143259361446d565b91909161434d565b6005111561433757565b634e487b7160e01b600052602160045260246000fd5b6143568161432d565b8061435e5750565b6143678161432d565b600181036143b45760405162461bcd60e51b815260206004820152601860248201527f45434453413a20696e76616c6964207369676e617475726500000000000000006044820152606490fd5b6143bd8161432d565b6002810361440a5760405162461bcd60e51b815260206004820152601f60248201527f45434453413a20696e76616c6964207369676e6174757265206c656e677468006044820152606490fd5b8061441660039261432d565b1461441d57565b60405162461bcd60e51b815260206004820152602260248201527f45434453413a20696e76616c6964207369676e6174757265202773272076616c604482015261756560f01b6064820152608490fd5b9291907f7fffffffffffffffffffffffffffffff5d576e7357a4501ddfe92f46681b20a083116144e35791608094939160ff602094604051948552168484015260408301526060820152600093849182805260015afa156109a45781516001600160a01b038116156144dd579190565b50600190565b50505050600090600390565b307f00000000000000000000000000000000000000000000000000000000000000006001600160a01b031614806145e0575b1561454a577f000000000000000000000000000000000000000000000000000000000000000090565b60405160208101907f8b73c3c69bb8fe3d512ecc4cf759cc79239f7b179b0ffacaa9a75d522b39400f82527f000000000000000000000000000000000000000000000000000000000000000060408201527f000000000000000000000000000000000000000000000000000000000000000060608201524660808201523060a082015260a081526145da81610672565b51902090565b507f00000000000000000000000000000000000000000000000000000000000000004614614521565b6042906146146144ef565b906040519161190160f01b8352600283015260228201522090565b60ff811461466d5760ff811690601f821161465b57604051916146518361061e565b8252602082015290565b604051632cd44ac360e21b8152600490fd5b5060405160075481600061468083612373565b80835260209360019081811690811561470957506001146146aa575b50506104939250038261068e565b9093915060076000527fa66cc928b5edb82af9bd49922954155ab7b0942694bea4ce44661d9a8736c688936000915b8183106146f15750506104939350820101388061469c565b855487840185015294850194869450918301916146d9565b91505061049394925060ff191682840152151560051b820101388061469c565b60ff811461474b5760ff811690601f821161465b57604051916146518361061e565b5060405160085481600061475e83612373565b80835260209360019081811690811561470957506001146147875750506104939250038261068e565b9093915060086000527ff3f7a9fe364faab93b216da50a3214154f22a0a2b415b23a84c8169e8b636ee3936000915b8183106147ce5750506104939350820101388061469c565b855487840185015294850194869450918301916147b6565b90808216911860011c8101809111610e075790565b801561303f57806148ce6148c76148bd6148b36148a961489f61489561488b60016104939a6000908b60801c80614929575b508060401c8061491c575b508060201c8061490f575b508060101c80614902575b508060081c806148f5575b508060041c806148e8575b508060021c806148db575b50821c6148d4575b811c1b614884818b612691565b0160011c90565b614884818a612691565b6148848189612691565b6148848188612691565b6148848187612691565b6148848186612691565b6148848185612691565b8092612691565b90614935565b8101614877565b600291509101903861486f565b6004915091019038614864565b6008915091019038614859565b601091509101903861484e565b6020915091019038614843565b6040915091019038614838565b9150506080903861482d565b9080821015614942575090565b905090565b6001600160e01b039081811161495b571690565b60405162461bcd60e51b815260206004820152602760248201527f53616665436173743a2076616c756520646f65736e27742066697420696e20326044820152663234206269747360c81b6064820152608490fd5b65ffffffffffff908181116149c3571690565b60405162461bcd60e51b815260206004820152602660248201527f53616665436173743a2076616c756520646f65736e27742066697420696e203460448201526538206269747360d01b6064820152608490fd5b63ffffffff90818111614a28571690565b60405162461bcd60e51b815260206004820152602660248201527f53616665436173743a2076616c756520646f65736e27742066697420696e203360448201526532206269747360d01b6064820152608490fd5b908103908111610e075790565b908101809111610e07579056fe66de8ffda797e3de9c05e8fc57b3bf0ec28a930d40b0d285d93c06501cf6a090b13d2d76d1f4b7be834882e410b3e3a8afaf69f83600ae24db354391d2378d2ea26469706673582212201eb1622a8f0e381db4c585df58ccd6a795ce7953e6d5d06ce277a76c18ac275864736f6c63430008150033433127dedcff849792656a12f4a9dbc0efeb80df5cce6310f53481a93cd71c7166de8ffda797e3de9c05e8fc57b3bf0ec28a930d40b0d285d93c06501cf6a090b13d2d76d1f4b7be834882e410b3e3a8afaf69f83600ae24db354391d2378d2ef652222313e28459528d920b65115c16c04f3efc82aaedc97be59f3f377c0d3f","linkReferences":{}},"methodIdentifiers":{"CLOCK_MODE()":"4bf5d7e9","DOMAIN_SEPARATOR()":"3644e515","NAME()":"a3f4df7e","VERSION()":"ffa1ad74","adjust(address,int256)":"75aa9bc6","allowance(address,address)":"dd62ed3e","approve(address,uint256)":"095ea7b3","balanceOf(address)":"70a08231","checkpoints(address,uint32)":"f1127ed8","claim(address)":"1e83409a","claimed()":"e834a834","clock()":"91ddadf4","decimals()":"313ce567","decreaseAllowance(address,uint256)":"a457c2d7","delegate(address)":"5c19a95c","delegateBySig(address,uint256,uint256,uint8,bytes32,bytes32)":"c3cda520","delegates(address)":"587cde1e","distancePerSecond()":"c6e8d982","eip712Domain()":"84b0196e","getClaimableAmount(address,bytes)":"13c67ce5","getDistributionRecord(address)":"e85858d9","getEnd()":"9f05a36d","getFairDelayTime(address)":"a4ef1f78","getFractionDenominator()":"0f56b96c","getOracle()":"833b1fce","getPastTotalSupply(uint256)":"8e539e8c","getPastVotes(address,uint256)":"3a46b1a8","getPriceTier(uint256)":"1afbf193","getPriceTiers()":"5b39e87d","getPurchasedAmount(address)":"24285762","getStart()":"c5292c67","getSweepRecipient()":"c78d5985","getTotalVotes()":"9a0e7d66","getVestedFraction(address,uint256,bytes)":"d3d0ec89","getVoteFactor(address)":"bb22dccb","getVotes(address)":"9ab24eb0","increaseAllowance(address,uint256)":"39509351","initializeDistributionRecord(address)":"44b3c204","maxDelayTime()":"f56c8547","name()":"06fdde03","nonces(address)":"7ecebe00","numCheckpoints(address)":"6fcfff45","owner()":"8da5cb5b","permit(address,address,uint256,uint256,uint8,bytes32,bytes32)":"d505accf","price()":"a035b1fe","randomValue()":"276801ec","renounceOwnership()":"715018a6","sale()":"6ad1fe02","setPriceTiers(uint256,uint256,address,(uint128,uint128)[])":"e9268398","setSweepRecipient(address)":"de032f58","setToken(address)":"144fa6d7","setTotal(uint256)":"1f8d1d50","setUri(string)":"9b642de1","setVoteFactor(uint256)":"c9557255","soldTokenDecimals()":"f2d5c0ff","sweepNative()":"ab803a76","sweepNative(uint256)":"3cf3a025","sweepToken(address)":"1be19560","sweepToken(address,uint256)":"e90a182f","symbol()":"95d89b41","token()":"fc0c546a","total()":"2ddbd13a","totalSupply()":"18160ddd","transfer(address,uint256)":"a9059cbb","transferFrom(address,address,uint256)":"23b872dd","transferOwnership(address)":"f2fde38b","uri()":"eac989f8"},"id":2}